{
	"contracts/UpdatedPatientDataStorage.sol": {
		"UpdatedPatientDataStorage": {
			"abi": [
				{
					"inputs": [
						{
							"internalType": "address",
							"name": "_rbacAddress",
							"type": "address"
						},
						{
							"internalType": "address",
							"name": "_auditLogAddress",
							"type": "address"
						}
					],
					"stateMutability": "nonpayable",
					"type": "constructor"
				},
				{
					"anonymous": false,
					"inputs": [
						{
							"indexed": true,
							"internalType": "address",
							"name": "provider",
							"type": "address"
						},
						{
							"indexed": true,
							"internalType": "address",
							"name": "patient",
							"type": "address"
						},
						{
							"indexed": false,
							"internalType": "uint256",
							"name": "expiryTime",
							"type": "uint256"
						}
					],
					"name": "EmergencyAccessGranted",
					"type": "event"
				},
				{
					"anonymous": false,
					"inputs": [
						{
							"indexed": true,
							"internalType": "address",
							"name": "provider",
							"type": "address"
						},
						{
							"indexed": true,
							"internalType": "address",
							"name": "patient",
							"type": "address"
						}
					],
					"name": "EmergencyAccessRevoked",
					"type": "event"
				},
				{
					"anonymous": false,
					"inputs": [
						{
							"indexed": true,
							"internalType": "address",
							"name": "patient",
							"type": "address"
						},
						{
							"indexed": false,
							"internalType": "string",
							"name": "category",
							"type": "string"
						}
					],
					"name": "PatientDataUpdated",
					"type": "event"
				},
				{
					"inputs": [],
					"name": "EMERGENCY_ACCESS_DURATION",
					"outputs": [
						{
							"internalType": "uint256",
							"name": "",
							"type": "uint256"
						}
					],
					"stateMutability": "view",
					"type": "function"
				},
				{
					"inputs": [],
					"name": "accessControl",
					"outputs": [
						{
							"internalType": "contract IEnhancedRBAC",
							"name": "",
							"type": "address"
						}
					],
					"stateMutability": "view",
					"type": "function"
				},
				{
					"inputs": [],
					"name": "auditLog",
					"outputs": [
						{
							"internalType": "contract EnhancedAuditLog",
							"name": "",
							"type": "address"
						}
					],
					"stateMutability": "view",
					"type": "function"
				},
				{
					"inputs": [
						{
							"internalType": "address",
							"name": "provider",
							"type": "address"
						},
						{
							"internalType": "address",
							"name": "patient",
							"type": "address"
						}
					],
					"name": "checkEmergencyAccess",
					"outputs": [
						{
							"internalType": "bool",
							"name": "granted",
							"type": "bool"
						},
						{
							"internalType": "uint256",
							"name": "expiry",
							"type": "uint256"
						},
						{
							"internalType": "string",
							"name": "reason",
							"type": "string"
						}
					],
					"stateMutability": "view",
					"type": "function"
				},
				{
					"inputs": [
						{
							"internalType": "address",
							"name": "patient",
							"type": "address"
						}
					],
					"name": "createPatientRecord",
					"outputs": [],
					"stateMutability": "nonpayable",
					"type": "function"
				},
				{
					"inputs": [
						{
							"internalType": "address",
							"name": "patient",
							"type": "address"
						},
						{
							"internalType": "string",
							"name": "category",
							"type": "string"
						}
					],
					"name": "getPatientData",
					"outputs": [
						{
							"internalType": "string",
							"name": "",
							"type": "string"
						}
					],
					"stateMutability": "view",
					"type": "function"
				},
				{
					"inputs": [
						{
							"internalType": "address",
							"name": "patient",
							"type": "address"
						},
						{
							"internalType": "string",
							"name": "reason",
							"type": "string"
						}
					],
					"name": "requestEmergencyAccess",
					"outputs": [],
					"stateMutability": "nonpayable",
					"type": "function"
				},
				{
					"inputs": [
						{
							"internalType": "address",
							"name": "provider",
							"type": "address"
						}
					],
					"name": "revokeEmergencyAccess",
					"outputs": [],
					"stateMutability": "nonpayable",
					"type": "function"
				},
				{
					"inputs": [
						{
							"internalType": "address",
							"name": "patient",
							"type": "address"
						},
						{
							"internalType": "string",
							"name": "category",
							"type": "string"
						},
						{
							"internalType": "string",
							"name": "encryptedData",
							"type": "string"
						}
					],
					"name": "updatePatientData",
					"outputs": [],
					"stateMutability": "nonpayable",
					"type": "function"
				}
			],
			"devdoc": {
				"kind": "dev",
				"methods": {},
				"version": 1
			},
			"evm": {
				"assembly": "    /* \"contracts/UpdatedPatientDataStorage.sol\":127:5434  contract UpdatedPatientDataStorage {... */\n  mstore(0x40, 0x80)\n    /* \"contracts/UpdatedPatientDataStorage.sol\":1075:1253  constructor(address _rbacAddress, address _auditLogAddress) {... */\n  callvalue\n  dup1\n  iszero\n  tag_1\n  jumpi\n  0x00\n  dup1\n  revert\ntag_1:\n  pop\n  mload(0x40)\n  sub(codesize, bytecodeSize)\n  dup1\n  bytecodeSize\n  dup4\n  codecopy\n  dup2\n  dup2\n  add\n  0x40\n  mstore\n  dup2\n  add\n  swap1\n  tag_2\n  swap2\n  swap1\n  tag_3\n  jump\t// in\ntag_2:\n    /* \"contracts/UpdatedPatientDataStorage.sol\":1176:1188  _rbacAddress */\n  dup2\n    /* \"contracts/UpdatedPatientDataStorage.sol\":1146:1159  accessControl */\n  0x00\n  dup1\n    /* \"contracts/UpdatedPatientDataStorage.sol\":1146:1189  accessControl = IEnhancedRBAC(_rbacAddress) */\n  0x0100\n  exp\n  dup2\n  sload\n  dup2\n  0xffffffffffffffffffffffffffffffffffffffff\n  mul\n  not\n  and\n  swap1\n  dup4\n  0xffffffffffffffffffffffffffffffffffffffff\n  and\n  mul\n  or\n  swap1\n  sstore\n  pop\n    /* \"contracts/UpdatedPatientDataStorage.sol\":1228:1244  _auditLogAddress */\n  dup1\n    /* \"contracts/UpdatedPatientDataStorage.sol\":1200:1208  auditLog */\n  0x01\n  0x00\n    /* \"contracts/UpdatedPatientDataStorage.sol\":1200:1245  auditLog = EnhancedAuditLog(_auditLogAddress) */\n  0x0100\n  exp\n  dup2\n  sload\n  dup2\n  0xffffffffffffffffffffffffffffffffffffffff\n  mul\n  not\n  and\n  swap1\n  dup4\n  0xffffffffffffffffffffffffffffffffffffffff\n  and\n  mul\n  or\n  swap1\n  sstore\n  pop\n    /* \"contracts/UpdatedPatientDataStorage.sol\":1075:1253  constructor(address _rbacAddress, address _auditLogAddress) {... */\n  pop\n  pop\n    /* \"contracts/UpdatedPatientDataStorage.sol\":127:5434  contract UpdatedPatientDataStorage {... */\n  jump(tag_6)\n    /* \"#utility.yul\":88:205   */\ntag_8:\n    /* \"#utility.yul\":197:198   */\n  0x00\n    /* \"#utility.yul\":194:195   */\n  dup1\n    /* \"#utility.yul\":187:199   */\n  revert\n    /* \"#utility.yul\":334:460   */\ntag_10:\n    /* \"#utility.yul\":371:378   */\n  0x00\n    /* \"#utility.yul\":411:453   */\n  0xffffffffffffffffffffffffffffffffffffffff\n    /* \"#utility.yul\":404:409   */\n  dup3\n    /* \"#utility.yul\":400:454   */\n  and\n    /* \"#utility.yul\":389:454   */\n  swap1\n  pop\n    /* \"#utility.yul\":334:460   */\n  swap2\n  swap1\n  pop\n  jump\t// out\n    /* \"#utility.yul\":466:562   */\ntag_11:\n    /* \"#utility.yul\":503:510   */\n  0x00\n    /* \"#utility.yul\":532:556   */\n  tag_20\n    /* \"#utility.yul\":550:555   */\n  dup3\n    /* \"#utility.yul\":532:556   */\n  tag_10\n  jump\t// in\ntag_20:\n    /* \"#utility.yul\":521:556   */\n  swap1\n  pop\n    /* \"#utility.yul\":466:562   */\n  swap2\n  swap1\n  pop\n  jump\t// out\n    /* \"#utility.yul\":568:690   */\ntag_12:\n    /* \"#utility.yul\":641:665   */\n  tag_22\n    /* \"#utility.yul\":659:664   */\n  dup2\n    /* \"#utility.yul\":641:665   */\n  tag_11\n  jump\t// in\ntag_22:\n    /* \"#utility.yul\":634:639   */\n  dup2\n    /* \"#utility.yul\":631:666   */\n  eq\n    /* \"#utility.yul\":621:684   */\n  tag_23\n  jumpi\n    /* \"#utility.yul\":680:681   */\n  0x00\n    /* \"#utility.yul\":677:678   */\n  dup1\n    /* \"#utility.yul\":670:682   */\n  revert\n    /* \"#utility.yul\":621:684   */\ntag_23:\n    /* \"#utility.yul\":568:690   */\n  pop\n  jump\t// out\n    /* \"#utility.yul\":696:839   */\ntag_13:\n    /* \"#utility.yul\":753:758   */\n  0x00\n    /* \"#utility.yul\":784:790   */\n  dup2\n    /* \"#utility.yul\":778:791   */\n  mload\n    /* \"#utility.yul\":769:791   */\n  swap1\n  pop\n    /* \"#utility.yul\":800:833   */\n  tag_25\n    /* \"#utility.yul\":827:832   */\n  dup2\n    /* \"#utility.yul\":800:833   */\n  tag_12\n  jump\t// in\ntag_25:\n    /* \"#utility.yul\":696:839   */\n  swap3\n  swap2\n  pop\n  pop\n  jump\t// out\n    /* \"#utility.yul\":845:1352   */\ntag_3:\n    /* \"#utility.yul\":924:930   */\n  0x00\n    /* \"#utility.yul\":932:938   */\n  dup1\n    /* \"#utility.yul\":981:983   */\n  0x40\n    /* \"#utility.yul\":969:978   */\n  dup4\n    /* \"#utility.yul\":960:967   */\n  dup6\n    /* \"#utility.yul\":956:979   */\n  sub\n    /* \"#utility.yul\":952:984   */\n  slt\n    /* \"#utility.yul\":949:1068   */\n  iszero\n  tag_27\n  jumpi\n    /* \"#utility.yul\":987:1066   */\n  tag_28\n  tag_8\n  jump\t// in\ntag_28:\n    /* \"#utility.yul\":949:1068   */\ntag_27:\n    /* \"#utility.yul\":1107:1108   */\n  0x00\n    /* \"#utility.yul\":1132:1196   */\n  tag_29\n    /* \"#utility.yul\":1188:1195   */\n  dup6\n    /* \"#utility.yul\":1179:1185   */\n  dup3\n    /* \"#utility.yul\":1168:1177   */\n  dup7\n    /* \"#utility.yul\":1164:1186   */\n  add\n    /* \"#utility.yul\":1132:1196   */\n  tag_13\n  jump\t// in\ntag_29:\n    /* \"#utility.yul\":1122:1196   */\n  swap3\n  pop\n    /* \"#utility.yul\":1078:1206   */\n  pop\n    /* \"#utility.yul\":1245:1247   */\n  0x20\n    /* \"#utility.yul\":1271:1335   */\n  tag_30\n    /* \"#utility.yul\":1327:1334   */\n  dup6\n    /* \"#utility.yul\":1318:1324   */\n  dup3\n    /* \"#utility.yul\":1307:1316   */\n  dup7\n    /* \"#utility.yul\":1303:1325   */\n  add\n    /* \"#utility.yul\":1271:1335   */\n  tag_13\n  jump\t// in\ntag_30:\n    /* \"#utility.yul\":1261:1335   */\n  swap2\n  pop\n    /* \"#utility.yul\":1216:1345   */\n  pop\n    /* \"#utility.yul\":845:1352   */\n  swap3\n  pop\n  swap3\n  swap1\n  pop\n  jump\t// out\n    /* \"contracts/UpdatedPatientDataStorage.sol\":127:5434  contract UpdatedPatientDataStorage {... */\ntag_6:\n  dataSize(sub_0)\n  dup1\n  dataOffset(sub_0)\n  0x00\n  codecopy\n  0x00\n  return\nstop\n\nsub_0: assembly {\n        /* \"contracts/UpdatedPatientDataStorage.sol\":127:5434  contract UpdatedPatientDataStorage {... */\n      mstore(0x40, 0x80)\n      callvalue\n      dup1\n      iszero\n      tag_1\n      jumpi\n      0x00\n      dup1\n      revert\n    tag_1:\n      pop\n      jumpi(tag_2, lt(calldatasize, 0x04))\n      shr(0xe0, calldataload(0x00))\n      dup1\n      0x7eb3a982\n      gt\n      tag_12\n      jumpi\n      dup1\n      0x7eb3a982\n      eq\n      tag_7\n      jumpi\n      dup1\n      0x9e1b9ec0\n      eq\n      tag_8\n      jumpi\n      dup1\n      0xac053aa9\n      eq\n      tag_9\n      jumpi\n      dup1\n      0xdb455173\n      eq\n      tag_10\n      jumpi\n      dup1\n      0xf54eeeb7\n      eq\n      tag_11\n      jumpi\n      jump(tag_2)\n    tag_12:\n      dup1\n      0x13007d55\n      eq\n      tag_3\n      jumpi\n      dup1\n      0x2114ef1f\n      eq\n      tag_4\n      jumpi\n      dup1\n      0x5a2d6ebd\n      eq\n      tag_5\n      jumpi\n      dup1\n      0x73b492ff\n      eq\n      tag_6\n      jumpi\n    tag_2:\n      0x00\n      dup1\n      revert\n        /* \"contracts/UpdatedPatientDataStorage.sol\":169:203  IEnhancedRBAC public accessControl */\n    tag_3:\n      tag_13\n      tag_14\n      jump\t// in\n    tag_13:\n      mload(0x40)\n      tag_15\n      swap2\n      swap1\n      tag_16\n      jump\t// in\n    tag_15:\n      mload(0x40)\n      dup1\n      swap2\n      sub\n      swap1\n      return\n        /* \"contracts/UpdatedPatientDataStorage.sol\":680:740  uint256 public constant EMERGENCY_ACCESS_DURATION = 24 hours */\n    tag_4:\n      tag_17\n      tag_18\n      jump\t// in\n    tag_17:\n      mload(0x40)\n      tag_19\n      swap2\n      swap1\n      tag_20\n      jump\t// in\n    tag_19:\n      mload(0x40)\n      dup1\n      swap2\n      sub\n      swap1\n      return\n        /* \"contracts/UpdatedPatientDataStorage.sol\":210:242  EnhancedAuditLog public auditLog */\n    tag_5:\n      tag_21\n      tag_22\n      jump\t// in\n    tag_21:\n      mload(0x40)\n      tag_23\n      swap2\n      swap1\n      tag_24\n      jump\t// in\n    tag_23:\n      mload(0x40)\n      dup1\n      swap2\n      sub\n      swap1\n      return\n        /* \"contracts/UpdatedPatientDataStorage.sol\":4376:4998  function revokeEmergencyAccess(address provider) ... */\n    tag_6:\n      tag_25\n      0x04\n      dup1\n      calldatasize\n      sub\n      dup2\n      add\n      swap1\n      tag_26\n      swap2\n      swap1\n      tag_27\n      jump\t// in\n    tag_26:\n      tag_28\n      jump\t// in\n    tag_25:\n      stop\n        /* \"contracts/UpdatedPatientDataStorage.sol\":1616:2047  function createPatientRecord(address patient) ... */\n    tag_7:\n      tag_29\n      0x04\n      dup1\n      calldatasize\n      sub\n      dup2\n      add\n      swap1\n      tag_30\n      swap2\n      swap1\n      tag_27\n      jump\t// in\n    tag_30:\n      tag_31\n      jump\t// in\n    tag_29:\n      stop\n        /* \"contracts/UpdatedPatientDataStorage.sol\":2055:2623  function updatePatientData(... */\n    tag_8:\n      tag_32\n      0x04\n      dup1\n      calldatasize\n      sub\n      dup2\n      add\n      swap1\n      tag_33\n      swap2\n      swap1\n      tag_34\n      jump\t// in\n    tag_33:\n      tag_35\n      jump\t// in\n    tag_32:\n      stop\n        /* \"contracts/UpdatedPatientDataStorage.sol\":5006:5431  function checkEmergencyAccess(address provider, address patient) ... */\n    tag_9:\n      tag_36\n      0x04\n      dup1\n      calldatasize\n      sub\n      dup2\n      add\n      swap1\n      tag_37\n      swap2\n      swap1\n      tag_38\n      jump\t// in\n    tag_37:\n      tag_39\n      jump\t// in\n    tag_36:\n      mload(0x40)\n      tag_40\n      swap4\n      swap3\n      swap2\n      swap1\n      tag_41\n      jump\t// in\n    tag_40:\n      mload(0x40)\n      dup1\n      swap2\n      sub\n      swap1\n      return\n        /* \"contracts/UpdatedPatientDataStorage.sol\":3622:4368  function getPatientData(... */\n    tag_10:\n      tag_42\n      0x04\n      dup1\n      calldatasize\n      sub\n      dup2\n      add\n      swap1\n      tag_43\n      swap2\n      swap1\n      tag_44\n      jump\t// in\n    tag_43:\n      tag_45\n      jump\t// in\n    tag_42:\n      mload(0x40)\n      tag_46\n      swap2\n      swap1\n      tag_47\n      jump\t// in\n    tag_46:\n      mload(0x40)\n      dup1\n      swap2\n      sub\n      swap1\n      return\n        /* \"contracts/UpdatedPatientDataStorage.sol\":2631:3614  function requestEmergencyAccess(... */\n    tag_11:\n      tag_48\n      0x04\n      dup1\n      calldatasize\n      sub\n      dup2\n      add\n      swap1\n      tag_49\n      swap2\n      swap1\n      tag_44\n      jump\t// in\n    tag_49:\n      tag_50\n      jump\t// in\n    tag_48:\n      stop\n        /* \"contracts/UpdatedPatientDataStorage.sol\":169:203  IEnhancedRBAC public accessControl */\n    tag_14:\n      0x00\n      dup1\n      sload\n      swap1\n      0x0100\n      exp\n      swap1\n      div\n      0xffffffffffffffffffffffffffffffffffffffff\n      and\n      dup2\n      jump\t// out\n        /* \"contracts/UpdatedPatientDataStorage.sol\":680:740  uint256 public constant EMERGENCY_ACCESS_DURATION = 24 hours */\n    tag_18:\n        /* \"contracts/UpdatedPatientDataStorage.sol\":732:740  24 hours */\n      0x015180\n        /* \"contracts/UpdatedPatientDataStorage.sol\":680:740  uint256 public constant EMERGENCY_ACCESS_DURATION = 24 hours */\n      dup2\n      jump\t// out\n        /* \"contracts/UpdatedPatientDataStorage.sol\":210:242  EnhancedAuditLog public auditLog */\n    tag_22:\n      0x01\n      0x00\n      swap1\n      sload\n      swap1\n      0x0100\n      exp\n      swap1\n      div\n      0xffffffffffffffffffffffffffffffffffffffff\n      and\n      dup2\n      jump\t// out\n        /* \"contracts/UpdatedPatientDataStorage.sol\":4376:4998  function revokeEmergencyAccess(address provider) ... */\n    tag_28:\n        /* \"contracts/UpdatedPatientDataStorage.sol\":4466:4476  msg.sender */\n      caller\n        /* \"contracts/UpdatedPatientDataStorage.sol\":1529:1543  patientRecords */\n      0x02\n        /* \"contracts/UpdatedPatientDataStorage.sol\":1529:1552  patientRecords[patient] */\n      0x00\n        /* \"contracts/UpdatedPatientDataStorage.sol\":1544:1551  patient */\n      dup3\n        /* \"contracts/UpdatedPatientDataStorage.sol\":1529:1552  patientRecords[patient] */\n      0xffffffffffffffffffffffffffffffffffffffff\n      and\n      0xffffffffffffffffffffffffffffffffffffffff\n      and\n      dup2\n      mstore\n      0x20\n      add\n      swap1\n      dup2\n      mstore\n      0x20\n      add\n      0x00\n      keccak256\n        /* \"contracts/UpdatedPatientDataStorage.sol\":1529:1559  patientRecords[patient].exists */\n      0x01\n      add\n      0x00\n      swap1\n      sload\n      swap1\n      0x0100\n      exp\n      swap1\n      div\n      0xff\n      and\n        /* \"contracts/UpdatedPatientDataStorage.sol\":1521:1588  require(patientRecords[patient].exists, \"Patient record not found\") */\n      tag_52\n      jumpi\n      mload(0x40)\n      0x08c379a000000000000000000000000000000000000000000000000000000000\n      dup2\n      mstore\n      0x04\n      add\n      tag_53\n      swap1\n      tag_54\n      jump\t// in\n    tag_53:\n      mload(0x40)\n      dup1\n      swap2\n      sub\n      swap1\n      revert\n    tag_52:\n        /* \"contracts/UpdatedPatientDataStorage.sol\":4495:4523  PatientRecord storage record */\n      0x00\n        /* \"contracts/UpdatedPatientDataStorage.sol\":4526:4540  patientRecords */\n      0x02\n        /* \"contracts/UpdatedPatientDataStorage.sol\":4526:4552  patientRecords[msg.sender] */\n      0x00\n        /* \"contracts/UpdatedPatientDataStorage.sol\":4541:4551  msg.sender */\n      caller\n        /* \"contracts/UpdatedPatientDataStorage.sol\":4526:4552  patientRecords[msg.sender] */\n      0xffffffffffffffffffffffffffffffffffffffff\n      and\n      0xffffffffffffffffffffffffffffffffffffffff\n      and\n      dup2\n      mstore\n      0x20\n      add\n      swap1\n      dup2\n      mstore\n      0x20\n      add\n      0x00\n      keccak256\n        /* \"contracts/UpdatedPatientDataStorage.sol\":4495:4552  PatientRecord storage record = patientRecords[msg.sender] */\n      swap1\n      pop\n        /* \"contracts/UpdatedPatientDataStorage.sol\":4585:4591  record */\n      dup1\n        /* \"contracts/UpdatedPatientDataStorage.sol\":4585:4607  record.emergencyAccess */\n      0x03\n      add\n        /* \"contracts/UpdatedPatientDataStorage.sol\":4585:4617  record.emergencyAccess[provider] */\n      0x00\n        /* \"contracts/UpdatedPatientDataStorage.sol\":4608:4616  provider */\n      dup5\n        /* \"contracts/UpdatedPatientDataStorage.sol\":4585:4617  record.emergencyAccess[provider] */\n      0xffffffffffffffffffffffffffffffffffffffff\n      and\n      0xffffffffffffffffffffffffffffffffffffffff\n      and\n      dup2\n      mstore\n      0x20\n      add\n      swap1\n      dup2\n      mstore\n      0x20\n      add\n      0x00\n      keccak256\n        /* \"contracts/UpdatedPatientDataStorage.sol\":4585:4625  record.emergencyAccess[provider].granted */\n      0x00\n      add\n      0x00\n      swap1\n      sload\n      swap1\n      0x0100\n      exp\n      swap1\n      div\n      0xff\n      and\n        /* \"contracts/UpdatedPatientDataStorage.sol\":4563:4678  require(... */\n      tag_56\n      jumpi\n      mload(0x40)\n      0x08c379a000000000000000000000000000000000000000000000000000000000\n      dup2\n      mstore\n      0x04\n      add\n      tag_57\n      swap1\n      tag_58\n      jump\t// in\n    tag_57:\n      mload(0x40)\n      dup1\n      swap2\n      sub\n      swap1\n      revert\n    tag_56:\n        /* \"contracts/UpdatedPatientDataStorage.sol\":4706:4712  record */\n      dup1\n        /* \"contracts/UpdatedPatientDataStorage.sol\":4706:4728  record.emergencyAccess */\n      0x03\n      add\n        /* \"contracts/UpdatedPatientDataStorage.sol\":4706:4738  record.emergencyAccess[provider] */\n      0x00\n        /* \"contracts/UpdatedPatientDataStorage.sol\":4729:4737  provider */\n      dup5\n        /* \"contracts/UpdatedPatientDataStorage.sol\":4706:4738  record.emergencyAccess[provider] */\n      0xffffffffffffffffffffffffffffffffffffffff\n      and\n      0xffffffffffffffffffffffffffffffffffffffff\n      and\n      dup2\n      mstore\n      0x20\n      add\n      swap1\n      dup2\n      mstore\n      0x20\n      add\n      0x00\n      keccak256\n      0x00\n        /* \"contracts/UpdatedPatientDataStorage.sol\":4699:4738  delete record.emergencyAccess[provider] */\n      dup1\n      dup3\n      add\n      exp(0x0100, 0x00)\n      dup2\n      sload\n      swap1\n      0xff\n      mul\n      not\n      and\n      swap1\n      sstore\n      0x01\n      dup3\n      add\n      0x00\n      swap1\n      sstore\n      0x02\n      dup3\n      add\n      0x00\n      tag_59\n      swap2\n      swap1\n      tag_60\n      jump\t// in\n    tag_59:\n      pop\n      pop\n        /* \"contracts/UpdatedPatientDataStorage.sol\":4797:4807  msg.sender */\n      caller\n        /* \"contracts/UpdatedPatientDataStorage.sol\":4764:4808  EmergencyAccessRevoked(provider, msg.sender) */\n      0xffffffffffffffffffffffffffffffffffffffff\n      and\n        /* \"contracts/UpdatedPatientDataStorage.sol\":4787:4795  provider */\n      dup4\n        /* \"contracts/UpdatedPatientDataStorage.sol\":4764:4808  EmergencyAccessRevoked(provider, msg.sender) */\n      0xffffffffffffffffffffffffffffffffffffffff\n      and\n      0x381ceeb666db3e3c307a575ad34d05f5b497665803dd1983e06e72dd7b4120e4\n      mload(0x40)\n      mload(0x40)\n      dup1\n      swap2\n      sub\n      swap1\n      log3\n        /* \"contracts/UpdatedPatientDataStorage.sol\":4819:4827  auditLog */\n      0x01\n      0x00\n      swap1\n      sload\n      swap1\n      0x0100\n      exp\n      swap1\n      div\n      0xffffffffffffffffffffffffffffffffffffffff\n      and\n        /* \"contracts/UpdatedPatientDataStorage.sol\":4819:4837  auditLog.logAccess */\n      0xffffffffffffffffffffffffffffffffffffffff\n      and\n      0x67fe17f4\n        /* \"contracts/UpdatedPatientDataStorage.sol\":4852:4862  msg.sender */\n      caller\n        /* \"contracts/UpdatedPatientDataStorage.sol\":4877:4885  provider */\n      dup6\n        /* \"contracts/UpdatedPatientDataStorage.sol\":4974:4979  false */\n      0x00\n        /* \"contracts/UpdatedPatientDataStorage.sol\":4819:4990  auditLog.logAccess(... */\n      mload(0x40)\n      dup5\n      0xffffffff\n      and\n      0xe0\n      shl\n      dup2\n      mstore\n      0x04\n      add\n      tag_61\n      swap4\n      swap3\n      swap2\n      swap1\n      tag_62\n      jump\t// in\n    tag_61:\n      0x00\n      mload(0x40)\n      dup1\n      dup4\n      sub\n      dup2\n      0x00\n      dup8\n      dup1\n      extcodesize\n      iszero\n      dup1\n      iszero\n      tag_63\n      jumpi\n      0x00\n      dup1\n      revert\n    tag_63:\n      pop\n      gas\n      call\n      iszero\n      dup1\n      iszero\n      tag_65\n      jumpi\n      returndatasize\n      0x00\n      dup1\n      returndatacopy\n      revert(0x00, returndatasize)\n    tag_65:\n      pop\n      pop\n      pop\n      pop\n        /* \"contracts/UpdatedPatientDataStorage.sol\":4484:4998  {... */\n      pop\n        /* \"contracts/UpdatedPatientDataStorage.sol\":4376:4998  function revokeEmergencyAccess(address provider) ... */\n      pop\n      pop\n      jump\t// out\n        /* \"contracts/UpdatedPatientDataStorage.sol\":1616:2047  function createPatientRecord(address patient) ... */\n    tag_31:\n        /* \"contracts/UpdatedPatientDataStorage.sol\":1261:1462  modifier onlyAuthorized(string memory permission) {... */\n      mload(0x40)\n      dup1\n      0x40\n      add\n      0x40\n      mstore\n      dup1\n      0x0d\n      dup2\n      mstore\n      0x20\n      add\n      0x6372656174655f7265636f726400000000000000000000000000000000000000\n      dup2\n      mstore\n      pop\n        /* \"contracts/UpdatedPatientDataStorage.sol\":1344:1357  accessControl */\n      0x00\n      dup1\n      sload\n      swap1\n      0x0100\n      exp\n      swap1\n      div\n      0xffffffffffffffffffffffffffffffffffffffff\n      and\n        /* \"contracts/UpdatedPatientDataStorage.sol\":1344:1371  accessControl.hasPermission */\n      0xffffffffffffffffffffffffffffffffffffffff\n      and\n      0x89b3af29\n        /* \"contracts/UpdatedPatientDataStorage.sol\":1372:1382  msg.sender */\n      caller\n        /* \"contracts/UpdatedPatientDataStorage.sol\":1384:1394  permission */\n      dup4\n        /* \"contracts/UpdatedPatientDataStorage.sol\":1344:1395  accessControl.hasPermission(msg.sender, permission) */\n      mload(0x40)\n      dup4\n      0xffffffff\n      and\n      0xe0\n      shl\n      dup2\n      mstore\n      0x04\n      add\n      tag_67\n      swap3\n      swap2\n      swap1\n      tag_68\n      jump\t// in\n    tag_67:\n      0x20\n      mload(0x40)\n      dup1\n      dup4\n      sub\n      dup2\n      dup7\n      gas\n      staticcall\n      iszero\n      dup1\n      iszero\n      tag_70\n      jumpi\n      returndatasize\n      0x00\n      dup1\n      returndatacopy\n      revert(0x00, returndatasize)\n    tag_70:\n      pop\n      pop\n      pop\n      pop\n      mload(0x40)\n      returndatasize\n      not(0x1f)\n      0x1f\n      dup3\n      add\n      and\n      dup3\n      add\n      dup1\n      0x40\n      mstore\n      pop\n      dup2\n      add\n      swap1\n      tag_71\n      swap2\n      swap1\n      tag_72\n      jump\t// in\n    tag_71:\n        /* \"contracts/UpdatedPatientDataStorage.sol\":1322:1442  require(... */\n      tag_73\n      jumpi\n      mload(0x40)\n      0x08c379a000000000000000000000000000000000000000000000000000000000\n      dup2\n      mstore\n      0x04\n      add\n      tag_74\n      swap1\n      tag_75\n      jump\t// in\n    tag_74:\n      mload(0x40)\n      dup1\n      swap2\n      sub\n      swap1\n      revert\n    tag_73:\n        /* \"contracts/UpdatedPatientDataStorage.sol\":1747:1761  patientRecords */\n      0x02\n        /* \"contracts/UpdatedPatientDataStorage.sol\":1747:1770  patientRecords[patient] */\n      0x00\n        /* \"contracts/UpdatedPatientDataStorage.sol\":1762:1769  patient */\n      dup4\n        /* \"contracts/UpdatedPatientDataStorage.sol\":1747:1770  patientRecords[patient] */\n      0xffffffffffffffffffffffffffffffffffffffff\n      and\n      0xffffffffffffffffffffffffffffffffffffffff\n      and\n      dup2\n      mstore\n      0x20\n      add\n      swap1\n      dup2\n      mstore\n      0x20\n      add\n      0x00\n      keccak256\n        /* \"contracts/UpdatedPatientDataStorage.sol\":1747:1777  patientRecords[patient].exists */\n      0x01\n      add\n      0x00\n      swap1\n      sload\n      swap1\n      0x0100\n      exp\n      swap1\n      div\n      0xff\n      and\n        /* \"contracts/UpdatedPatientDataStorage.sol\":1746:1777  !patientRecords[patient].exists */\n      iszero\n        /* \"contracts/UpdatedPatientDataStorage.sol\":1738:1811  require(!patientRecords[patient].exists, \"Patient record already exists\") */\n      tag_77\n      jumpi\n      mload(0x40)\n      0x08c379a000000000000000000000000000000000000000000000000000000000\n      dup2\n      mstore\n      0x04\n      add\n      tag_78\n      swap1\n      tag_79\n      jump\t// in\n    tag_78:\n      mload(0x40)\n      dup1\n      swap2\n      sub\n      swap1\n      revert\n    tag_77:\n        /* \"contracts/UpdatedPatientDataStorage.sol\":1855:1859  true */\n      0x01\n        /* \"contracts/UpdatedPatientDataStorage.sol\":1822:1836  patientRecords */\n      0x02\n        /* \"contracts/UpdatedPatientDataStorage.sol\":1822:1845  patientRecords[patient] */\n      0x00\n        /* \"contracts/UpdatedPatientDataStorage.sol\":1837:1844  patient */\n      dup5\n        /* \"contracts/UpdatedPatientDataStorage.sol\":1822:1845  patientRecords[patient] */\n      0xffffffffffffffffffffffffffffffffffffffff\n      and\n      0xffffffffffffffffffffffffffffffffffffffff\n      and\n      dup2\n      mstore\n      0x20\n      add\n      swap1\n      dup2\n      mstore\n      0x20\n      add\n      0x00\n      keccak256\n        /* \"contracts/UpdatedPatientDataStorage.sol\":1822:1852  patientRecords[patient].exists */\n      0x01\n      add\n      0x00\n        /* \"contracts/UpdatedPatientDataStorage.sol\":1822:1859  patientRecords[patient].exists = true */\n      0x0100\n      exp\n      dup2\n      sload\n      dup2\n      0xff\n      mul\n      not\n      and\n      swap1\n      dup4\n      iszero\n      iszero\n      mul\n      or\n      swap1\n      sstore\n      pop\n        /* \"contracts/UpdatedPatientDataStorage.sol\":1870:1878  auditLog */\n      0x01\n      0x00\n      swap1\n      sload\n      swap1\n      0x0100\n      exp\n      swap1\n      div\n      0xffffffffffffffffffffffffffffffffffffffff\n      and\n        /* \"contracts/UpdatedPatientDataStorage.sol\":1870:1888  auditLog.logAccess */\n      0xffffffffffffffffffffffffffffffffffffffff\n      and\n      0x67fe17f4\n        /* \"contracts/UpdatedPatientDataStorage.sol\":1903:1913  msg.sender */\n      caller\n        /* \"contracts/UpdatedPatientDataStorage.sol\":1928:1935  patient */\n      dup5\n        /* \"contracts/UpdatedPatientDataStorage.sol\":2023:2028  false */\n      0x00\n        /* \"contracts/UpdatedPatientDataStorage.sol\":1870:2039  auditLog.logAccess(... */\n      mload(0x40)\n      dup5\n      0xffffffff\n      and\n      0xe0\n      shl\n      dup2\n      mstore\n      0x04\n      add\n      tag_80\n      swap4\n      swap3\n      swap2\n      swap1\n      tag_81\n      jump\t// in\n    tag_80:\n      0x00\n      mload(0x40)\n      dup1\n      dup4\n      sub\n      dup2\n      0x00\n      dup8\n      dup1\n      extcodesize\n      iszero\n      dup1\n      iszero\n      tag_82\n      jumpi\n      0x00\n      dup1\n      revert\n    tag_82:\n      pop\n      gas\n      call\n      iszero\n      dup1\n      iszero\n      tag_84\n      jumpi\n      returndatasize\n      0x00\n      dup1\n      returndatacopy\n      revert(0x00, returndatasize)\n    tag_84:\n      pop\n      pop\n      pop\n      pop\n        /* \"contracts/UpdatedPatientDataStorage.sol\":1616:2047  function createPatientRecord(address patient) ... */\n      pop\n      pop\n      jump\t// out\n        /* \"contracts/UpdatedPatientDataStorage.sol\":2055:2623  function updatePatientData(... */\n    tag_35:\n        /* \"contracts/UpdatedPatientDataStorage.sol\":1261:1462  modifier onlyAuthorized(string memory permission) {... */\n      mload(0x40)\n      dup1\n      0x40\n      add\n      0x40\n      mstore\n      dup1\n      0x0b\n      dup2\n      mstore\n      0x20\n      add\n      0x7570646174655f64617461000000000000000000000000000000000000000000\n      dup2\n      mstore\n      pop\n        /* \"contracts/UpdatedPatientDataStorage.sol\":1344:1357  accessControl */\n      0x00\n      dup1\n      sload\n      swap1\n      0x0100\n      exp\n      swap1\n      div\n      0xffffffffffffffffffffffffffffffffffffffff\n      and\n        /* \"contracts/UpdatedPatientDataStorage.sol\":1344:1371  accessControl.hasPermission */\n      0xffffffffffffffffffffffffffffffffffffffff\n      and\n      0x89b3af29\n        /* \"contracts/UpdatedPatientDataStorage.sol\":1372:1382  msg.sender */\n      caller\n        /* \"contracts/UpdatedPatientDataStorage.sol\":1384:1394  permission */\n      dup4\n        /* \"contracts/UpdatedPatientDataStorage.sol\":1344:1395  accessControl.hasPermission(msg.sender, permission) */\n      mload(0x40)\n      dup4\n      0xffffffff\n      and\n      0xe0\n      shl\n      dup2\n      mstore\n      0x04\n      add\n      tag_86\n      swap3\n      swap2\n      swap1\n      tag_68\n      jump\t// in\n    tag_86:\n      0x20\n      mload(0x40)\n      dup1\n      dup4\n      sub\n      dup2\n      dup7\n      gas\n      staticcall\n      iszero\n      dup1\n      iszero\n      tag_88\n      jumpi\n      returndatasize\n      0x00\n      dup1\n      returndatacopy\n      revert(0x00, returndatasize)\n    tag_88:\n      pop\n      pop\n      pop\n      pop\n      mload(0x40)\n      returndatasize\n      not(0x1f)\n      0x1f\n      dup3\n      add\n      and\n      dup3\n      add\n      dup1\n      0x40\n      mstore\n      pop\n      dup2\n      add\n      swap1\n      tag_89\n      swap2\n      swap1\n      tag_72\n      jump\t// in\n    tag_89:\n        /* \"contracts/UpdatedPatientDataStorage.sol\":1322:1442  require(... */\n      tag_90\n      jumpi\n      mload(0x40)\n      0x08c379a000000000000000000000000000000000000000000000000000000000\n      dup2\n      mstore\n      0x04\n      add\n      tag_91\n      swap1\n      tag_75\n      jump\t// in\n    tag_91:\n      mload(0x40)\n      dup1\n      swap2\n      sub\n      swap1\n      revert\n    tag_90:\n        /* \"contracts/UpdatedPatientDataStorage.sol\":2266:2273  patient */\n      dup4\n        /* \"contracts/UpdatedPatientDataStorage.sol\":1529:1543  patientRecords */\n      0x02\n        /* \"contracts/UpdatedPatientDataStorage.sol\":1529:1552  patientRecords[patient] */\n      0x00\n        /* \"contracts/UpdatedPatientDataStorage.sol\":1544:1551  patient */\n      dup3\n        /* \"contracts/UpdatedPatientDataStorage.sol\":1529:1552  patientRecords[patient] */\n      0xffffffffffffffffffffffffffffffffffffffff\n      and\n      0xffffffffffffffffffffffffffffffffffffffff\n      and\n      dup2\n      mstore\n      0x20\n      add\n      swap1\n      dup2\n      mstore\n      0x20\n      add\n      0x00\n      keccak256\n        /* \"contracts/UpdatedPatientDataStorage.sol\":1529:1559  patientRecords[patient].exists */\n      0x01\n      add\n      0x00\n      swap1\n      sload\n      swap1\n      0x0100\n      exp\n      swap1\n      div\n      0xff\n      and\n        /* \"contracts/UpdatedPatientDataStorage.sol\":1521:1588  require(patientRecords[patient].exists, \"Patient record not found\") */\n      tag_93\n      jumpi\n      mload(0x40)\n      0x08c379a000000000000000000000000000000000000000000000000000000000\n      dup2\n      mstore\n      0x04\n      add\n      tag_94\n      swap1\n      tag_54\n      jump\t// in\n    tag_94:\n      mload(0x40)\n      dup1\n      swap2\n      sub\n      swap1\n      revert\n    tag_93:\n        /* \"contracts/UpdatedPatientDataStorage.sol\":2343:2356  encryptedData */\n      dup3\n        /* \"contracts/UpdatedPatientDataStorage.sol\":2292:2306  patientRecords */\n      0x02\n        /* \"contracts/UpdatedPatientDataStorage.sol\":2292:2315  patientRecords[patient] */\n      0x00\n        /* \"contracts/UpdatedPatientDataStorage.sol\":2307:2314  patient */\n      dup8\n        /* \"contracts/UpdatedPatientDataStorage.sol\":2292:2315  patientRecords[patient] */\n      0xffffffffffffffffffffffffffffffffffffffff\n      and\n      0xffffffffffffffffffffffffffffffffffffffff\n      and\n      dup2\n      mstore\n      0x20\n      add\n      swap1\n      dup2\n      mstore\n      0x20\n      add\n      0x00\n      keccak256\n        /* \"contracts/UpdatedPatientDataStorage.sol\":2292:2330  patientRecords[patient].dataCategories */\n      0x02\n      add\n        /* \"contracts/UpdatedPatientDataStorage.sol\":2331:2339  category */\n      dup6\n        /* \"contracts/UpdatedPatientDataStorage.sol\":2292:2340  patientRecords[patient].dataCategories[category] */\n      mload(0x40)\n      tag_96\n      swap2\n      swap1\n      tag_97\n      jump\t// in\n    tag_96:\n      swap1\n      dup2\n      mstore\n      0x20\n      add\n      mload(0x40)\n      dup1\n      swap2\n      sub\n      swap1\n      keccak256\n        /* \"contracts/UpdatedPatientDataStorage.sol\":2292:2356  patientRecords[patient].dataCategories[category] = encryptedData */\n      swap1\n      dup2\n      tag_98\n      swap2\n      swap1\n      tag_99\n      jump\t// in\n    tag_98:\n      pop\n        /* \"contracts/UpdatedPatientDataStorage.sol\":2401:2408  patient */\n      dup5\n        /* \"contracts/UpdatedPatientDataStorage.sol\":2382:2419  PatientDataUpdated(patient, category) */\n      0xffffffffffffffffffffffffffffffffffffffff\n      and\n      0x9efb5c7f10a4f04630ee8342cc0456f34298c1249198a5fd73e2f12e29dd584c\n        /* \"contracts/UpdatedPatientDataStorage.sol\":2410:2418  category */\n      dup6\n        /* \"contracts/UpdatedPatientDataStorage.sol\":2382:2419  PatientDataUpdated(patient, category) */\n      mload(0x40)\n      tag_100\n      swap2\n      swap1\n      tag_47\n      jump\t// in\n    tag_100:\n      mload(0x40)\n      dup1\n      swap2\n      sub\n      swap1\n      log2\n        /* \"contracts/UpdatedPatientDataStorage.sol\":2430:2438  auditLog */\n      0x01\n      0x00\n      swap1\n      sload\n      swap1\n      0x0100\n      exp\n      swap1\n      div\n      0xffffffffffffffffffffffffffffffffffffffff\n      and\n        /* \"contracts/UpdatedPatientDataStorage.sol\":2430:2448  auditLog.logAccess */\n      0xffffffffffffffffffffffffffffffffffffffff\n      and\n      0x67fe17f4\n        /* \"contracts/UpdatedPatientDataStorage.sol\":2463:2473  msg.sender */\n      caller\n        /* \"contracts/UpdatedPatientDataStorage.sol\":2488:2495  patient */\n      dup8\n        /* \"contracts/UpdatedPatientDataStorage.sol\":2574:2582  category */\n      dup8\n        /* \"contracts/UpdatedPatientDataStorage.sol\":2545:2583  abi.encodePacked(\"Updated \", category) */\n      add(0x20, mload(0x40))\n      tag_101\n      swap2\n      swap1\n      tag_102\n      jump\t// in\n    tag_101:\n      mload(0x40)\n      0x20\n      dup2\n      dup4\n      sub\n      sub\n      dup2\n      mstore\n      swap1\n      0x40\n      mstore\n        /* \"contracts/UpdatedPatientDataStorage.sol\":2599:2604  false */\n      0x00\n        /* \"contracts/UpdatedPatientDataStorage.sol\":2430:2615  auditLog.logAccess(... */\n      mload(0x40)\n      dup6\n      0xffffffff\n      and\n      0xe0\n      shl\n      dup2\n      mstore\n      0x04\n      add\n      tag_103\n      swap5\n      swap4\n      swap3\n      swap2\n      swap1\n      tag_104\n      jump\t// in\n    tag_103:\n      0x00\n      mload(0x40)\n      dup1\n      dup4\n      sub\n      dup2\n      0x00\n      dup8\n      dup1\n      extcodesize\n      iszero\n      dup1\n      iszero\n      tag_105\n      jumpi\n      0x00\n      dup1\n      revert\n    tag_105:\n      pop\n      gas\n      call\n      iszero\n      dup1\n      iszero\n      tag_107\n      jumpi\n      returndatasize\n      0x00\n      dup1\n      returndatacopy\n      revert(0x00, returndatasize)\n    tag_107:\n      pop\n      pop\n      pop\n      pop\n        /* \"contracts/UpdatedPatientDataStorage.sol\":1453:1454  _ */\n      pop\n        /* \"contracts/UpdatedPatientDataStorage.sol\":2055:2623  function updatePatientData(... */\n      pop\n      pop\n      pop\n      pop\n      jump\t// out\n        /* \"contracts/UpdatedPatientDataStorage.sol\":5006:5431  function checkEmergencyAccess(address provider, address patient) ... */\n    tag_39:\n        /* \"contracts/UpdatedPatientDataStorage.sol\":5154:5166  bool granted */\n      0x00\n        /* \"contracts/UpdatedPatientDataStorage.sol\":5168:5182  uint256 expiry */\n      dup1\n        /* \"contracts/UpdatedPatientDataStorage.sol\":5184:5204  string memory reason */\n      0x60\n        /* \"contracts/UpdatedPatientDataStorage.sol\":5127:5134  patient */\n      dup4\n        /* \"contracts/UpdatedPatientDataStorage.sol\":1529:1543  patientRecords */\n      0x02\n        /* \"contracts/UpdatedPatientDataStorage.sol\":1529:1552  patientRecords[patient] */\n      0x00\n        /* \"contracts/UpdatedPatientDataStorage.sol\":1544:1551  patient */\n      dup3\n        /* \"contracts/UpdatedPatientDataStorage.sol\":1529:1552  patientRecords[patient] */\n      0xffffffffffffffffffffffffffffffffffffffff\n      and\n      0xffffffffffffffffffffffffffffffffffffffff\n      and\n      dup2\n      mstore\n      0x20\n      add\n      swap1\n      dup2\n      mstore\n      0x20\n      add\n      0x00\n      keccak256\n        /* \"contracts/UpdatedPatientDataStorage.sol\":1529:1559  patientRecords[patient].exists */\n      0x01\n      add\n      0x00\n      swap1\n      sload\n      swap1\n      0x0100\n      exp\n      swap1\n      div\n      0xff\n      and\n        /* \"contracts/UpdatedPatientDataStorage.sol\":1521:1588  require(patientRecords[patient].exists, \"Patient record not found\") */\n      tag_109\n      jumpi\n      mload(0x40)\n      0x08c379a000000000000000000000000000000000000000000000000000000000\n      dup2\n      mstore\n      0x04\n      add\n      tag_110\n      swap1\n      tag_54\n      jump\t// in\n    tag_110:\n      mload(0x40)\n      dup1\n      swap2\n      sub\n      swap1\n      revert\n    tag_109:\n        /* \"contracts/UpdatedPatientDataStorage.sol\":5223:5253  EmergencyAccess storage access */\n      0x00\n        /* \"contracts/UpdatedPatientDataStorage.sol\":5256:5270  patientRecords */\n      0x02\n        /* \"contracts/UpdatedPatientDataStorage.sol\":5256:5279  patientRecords[patient] */\n      0x00\n        /* \"contracts/UpdatedPatientDataStorage.sol\":5271:5278  patient */\n      dup8\n        /* \"contracts/UpdatedPatientDataStorage.sol\":5256:5279  patientRecords[patient] */\n      0xffffffffffffffffffffffffffffffffffffffff\n      and\n      0xffffffffffffffffffffffffffffffffffffffff\n      and\n      dup2\n      mstore\n      0x20\n      add\n      swap1\n      dup2\n      mstore\n      0x20\n      add\n      0x00\n      keccak256\n        /* \"contracts/UpdatedPatientDataStorage.sol\":5256:5295  patientRecords[patient].emergencyAccess */\n      0x03\n      add\n        /* \"contracts/UpdatedPatientDataStorage.sol\":5256:5305  patientRecords[patient].emergencyAccess[provider] */\n      0x00\n        /* \"contracts/UpdatedPatientDataStorage.sol\":5296:5304  provider */\n      dup9\n        /* \"contracts/UpdatedPatientDataStorage.sol\":5256:5305  patientRecords[patient].emergencyAccess[provider] */\n      0xffffffffffffffffffffffffffffffffffffffff\n      and\n      0xffffffffffffffffffffffffffffffffffffffff\n      and\n      dup2\n      mstore\n      0x20\n      add\n      swap1\n      dup2\n      mstore\n      0x20\n      add\n      0x00\n      keccak256\n        /* \"contracts/UpdatedPatientDataStorage.sol\":5223:5305  EmergencyAccess storage access = patientRecords[patient].emergencyAccess[provider] */\n      swap1\n      pop\n        /* \"contracts/UpdatedPatientDataStorage.sol\":5338:5344  access */\n      dup1\n        /* \"contracts/UpdatedPatientDataStorage.sol\":5338:5352  access.granted */\n      0x00\n      add\n      0x00\n      swap1\n      sload\n      swap1\n      0x0100\n      exp\n      swap1\n      div\n      0xff\n      and\n        /* \"contracts/UpdatedPatientDataStorage.sol\":5367:5373  access */\n      dup2\n        /* \"contracts/UpdatedPatientDataStorage.sol\":5367:5384  access.expiryTime */\n      0x01\n      add\n      sload\n        /* \"contracts/UpdatedPatientDataStorage.sol\":5399:5405  access */\n      dup3\n        /* \"contracts/UpdatedPatientDataStorage.sol\":5399:5412  access.reason */\n      0x02\n      add\n        /* \"contracts/UpdatedPatientDataStorage.sol\":5316:5423  return (... */\n      dup1\n      dup1\n      sload\n      tag_112\n      swap1\n      tag_113\n      jump\t// in\n    tag_112:\n      dup1\n      0x1f\n      add\n      0x20\n      dup1\n      swap2\n      div\n      mul\n      0x20\n      add\n      mload(0x40)\n      swap1\n      dup2\n      add\n      0x40\n      mstore\n      dup1\n      swap3\n      swap2\n      swap1\n      dup2\n      dup2\n      mstore\n      0x20\n      add\n      dup3\n      dup1\n      sload\n      tag_114\n      swap1\n      tag_113\n      jump\t// in\n    tag_114:\n      dup1\n      iszero\n      tag_115\n      jumpi\n      dup1\n      0x1f\n      lt\n      tag_116\n      jumpi\n      0x0100\n      dup1\n      dup4\n      sload\n      div\n      mul\n      dup4\n      mstore\n      swap2\n      0x20\n      add\n      swap2\n      jump(tag_115)\n    tag_116:\n      dup3\n      add\n      swap2\n      swap1\n      0x00\n      mstore\n      keccak256(0x00, 0x20)\n      swap1\n    tag_117:\n      dup2\n      sload\n      dup2\n      mstore\n      swap1\n      0x01\n      add\n      swap1\n      0x20\n      add\n      dup1\n      dup4\n      gt\n      tag_117\n      jumpi\n      dup3\n      swap1\n      sub\n      0x1f\n      and\n      dup3\n      add\n      swap2\n    tag_115:\n      pop\n      pop\n      pop\n      pop\n      pop\n      swap1\n      pop\n      swap5\n      pop\n      swap5\n      pop\n      swap5\n      pop\n      pop\n        /* \"contracts/UpdatedPatientDataStorage.sol\":5006:5431  function checkEmergencyAccess(address provider, address patient) ... */\n      pop\n      swap3\n      pop\n      swap3\n      pop\n      swap3\n      jump\t// out\n        /* \"contracts/UpdatedPatientDataStorage.sol\":3622:4368  function getPatientData(... */\n    tag_45:\n        /* \"contracts/UpdatedPatientDataStorage.sol\":3795:3808  string memory */\n      0x60\n        /* \"contracts/UpdatedPatientDataStorage.sol\":3768:3775  patient */\n      dup3\n        /* \"contracts/UpdatedPatientDataStorage.sol\":1529:1543  patientRecords */\n      0x02\n        /* \"contracts/UpdatedPatientDataStorage.sol\":1529:1552  patientRecords[patient] */\n      0x00\n        /* \"contracts/UpdatedPatientDataStorage.sol\":1544:1551  patient */\n      dup3\n        /* \"contracts/UpdatedPatientDataStorage.sol\":1529:1552  patientRecords[patient] */\n      0xffffffffffffffffffffffffffffffffffffffff\n      and\n      0xffffffffffffffffffffffffffffffffffffffff\n      and\n      dup2\n      mstore\n      0x20\n      add\n      swap1\n      dup2\n      mstore\n      0x20\n      add\n      0x00\n      keccak256\n        /* \"contracts/UpdatedPatientDataStorage.sol\":1529:1559  patientRecords[patient].exists */\n      0x01\n      add\n      0x00\n      swap1\n      sload\n      swap1\n      0x0100\n      exp\n      swap1\n      div\n      0xff\n      and\n        /* \"contracts/UpdatedPatientDataStorage.sol\":1521:1588  require(patientRecords[patient].exists, \"Patient record not found\") */\n      tag_119\n      jumpi\n      mload(0x40)\n      0x08c379a000000000000000000000000000000000000000000000000000000000\n      dup2\n      mstore\n      0x04\n      add\n      tag_120\n      swap1\n      tag_54\n      jump\t// in\n    tag_120:\n      mload(0x40)\n      dup1\n      swap2\n      sub\n      swap1\n      revert\n    tag_119:\n        /* \"contracts/UpdatedPatientDataStorage.sol\":3864:3877  accessControl */\n      0x00\n      dup1\n      sload\n      swap1\n      0x0100\n      exp\n      swap1\n      div\n      0xffffffffffffffffffffffffffffffffffffffff\n      and\n        /* \"contracts/UpdatedPatientDataStorage.sol\":3864:3891  accessControl.hasPermission */\n      0xffffffffffffffffffffffffffffffffffffffff\n      and\n      0x89b3af29\n        /* \"contracts/UpdatedPatientDataStorage.sol\":3892:3902  msg.sender */\n      caller\n        /* \"contracts/UpdatedPatientDataStorage.sol\":3864:3916  accessControl.hasPermission(msg.sender, \"view_data\") */\n      mload(0x40)\n      dup3\n      0xffffffff\n      and\n      0xe0\n      shl\n      dup2\n      mstore\n      0x04\n      add\n      tag_122\n      swap2\n      swap1\n      tag_123\n      jump\t// in\n    tag_122:\n      0x20\n      mload(0x40)\n      dup1\n      dup4\n      sub\n      dup2\n      dup7\n      gas\n      staticcall\n      iszero\n      dup1\n      iszero\n      tag_125\n      jumpi\n      returndatasize\n      0x00\n      dup1\n      returndatacopy\n      revert(0x00, returndatasize)\n    tag_125:\n      pop\n      pop\n      pop\n      pop\n      mload(0x40)\n      returndatasize\n      not(0x1f)\n      0x1f\n      dup3\n      add\n      and\n      dup3\n      add\n      dup1\n      0x40\n      mstore\n      pop\n      dup2\n      add\n      swap1\n      tag_126\n      swap2\n      swap1\n      tag_72\n      jump\t// in\n    tag_126:\n        /* \"contracts/UpdatedPatientDataStorage.sol\":3860:4000  if (accessControl.hasPermission(msg.sender, \"view_data\")) {... */\n      iszero\n      tag_127\n      jumpi\n        /* \"contracts/UpdatedPatientDataStorage.sol\":3940:3954  patientRecords */\n      0x02\n        /* \"contracts/UpdatedPatientDataStorage.sol\":3940:3963  patientRecords[patient] */\n      0x00\n        /* \"contracts/UpdatedPatientDataStorage.sol\":3955:3962  patient */\n      dup6\n        /* \"contracts/UpdatedPatientDataStorage.sol\":3940:3963  patientRecords[patient] */\n      0xffffffffffffffffffffffffffffffffffffffff\n      and\n      0xffffffffffffffffffffffffffffffffffffffff\n      and\n      dup2\n      mstore\n      0x20\n      add\n      swap1\n      dup2\n      mstore\n      0x20\n      add\n      0x00\n      keccak256\n        /* \"contracts/UpdatedPatientDataStorage.sol\":3940:3978  patientRecords[patient].dataCategories */\n      0x02\n      add\n        /* \"contracts/UpdatedPatientDataStorage.sol\":3979:3987  category */\n      dup4\n        /* \"contracts/UpdatedPatientDataStorage.sol\":3940:3988  patientRecords[patient].dataCategories[category] */\n      mload(0x40)\n      tag_128\n      swap2\n      swap1\n      tag_97\n      jump\t// in\n    tag_128:\n      swap1\n      dup2\n      mstore\n      0x20\n      add\n      mload(0x40)\n      dup1\n      swap2\n      sub\n      swap1\n      keccak256\n        /* \"contracts/UpdatedPatientDataStorage.sol\":3933:3988  return patientRecords[patient].dataCategories[category] */\n      dup1\n      sload\n      tag_129\n      swap1\n      tag_113\n      jump\t// in\n    tag_129:\n      dup1\n      0x1f\n      add\n      0x20\n      dup1\n      swap2\n      div\n      mul\n      0x20\n      add\n      mload(0x40)\n      swap1\n      dup2\n      add\n      0x40\n      mstore\n      dup1\n      swap3\n      swap2\n      swap1\n      dup2\n      dup2\n      mstore\n      0x20\n      add\n      dup3\n      dup1\n      sload\n      tag_130\n      swap1\n      tag_113\n      jump\t// in\n    tag_130:\n      dup1\n      iszero\n      tag_131\n      jumpi\n      dup1\n      0x1f\n      lt\n      tag_132\n      jumpi\n      0x0100\n      dup1\n      dup4\n      sload\n      div\n      mul\n      dup4\n      mstore\n      swap2\n      0x20\n      add\n      swap2\n      jump(tag_131)\n    tag_132:\n      dup3\n      add\n      swap2\n      swap1\n      0x00\n      mstore\n      keccak256(0x00, 0x20)\n      swap1\n    tag_133:\n      dup2\n      sload\n      dup2\n      mstore\n      swap1\n      0x01\n      add\n      swap1\n      0x20\n      add\n      dup1\n      dup4\n      gt\n      tag_133\n      jumpi\n      dup3\n      swap1\n      sub\n      0x1f\n      and\n      dup3\n      add\n      swap2\n    tag_131:\n      pop\n      pop\n      pop\n      pop\n      pop\n      swap2\n      pop\n      jump(tag_121)\n        /* \"contracts/UpdatedPatientDataStorage.sol\":3860:4000  if (accessControl.hasPermission(msg.sender, \"view_data\")) {... */\n    tag_127:\n        /* \"contracts/UpdatedPatientDataStorage.sol\":4055:4088  EmergencyAccess storage emergency */\n      0x00\n        /* \"contracts/UpdatedPatientDataStorage.sol\":4091:4105  patientRecords */\n      0x02\n        /* \"contracts/UpdatedPatientDataStorage.sol\":4091:4114  patientRecords[patient] */\n      0x00\n        /* \"contracts/UpdatedPatientDataStorage.sol\":4106:4113  patient */\n      dup7\n        /* \"contracts/UpdatedPatientDataStorage.sol\":4091:4114  patientRecords[patient] */\n      0xffffffffffffffffffffffffffffffffffffffff\n      and\n      0xffffffffffffffffffffffffffffffffffffffff\n      and\n      dup2\n      mstore\n      0x20\n      add\n      swap1\n      dup2\n      mstore\n      0x20\n      add\n      0x00\n      keccak256\n        /* \"contracts/UpdatedPatientDataStorage.sol\":4091:4130  patientRecords[patient].emergencyAccess */\n      0x03\n      add\n        /* \"contracts/UpdatedPatientDataStorage.sol\":4091:4142  patientRecords[patient].emergencyAccess[msg.sender] */\n      0x00\n        /* \"contracts/UpdatedPatientDataStorage.sol\":4131:4141  msg.sender */\n      caller\n        /* \"contracts/UpdatedPatientDataStorage.sol\":4091:4142  patientRecords[patient].emergencyAccess[msg.sender] */\n      0xffffffffffffffffffffffffffffffffffffffff\n      and\n      0xffffffffffffffffffffffffffffffffffffffff\n      and\n      dup2\n      mstore\n      0x20\n      add\n      swap1\n      dup2\n      mstore\n      0x20\n      add\n      0x00\n      keccak256\n        /* \"contracts/UpdatedPatientDataStorage.sol\":4055:4142  EmergencyAccess storage emergency = patientRecords[patient].emergencyAccess[msg.sender] */\n      swap1\n      pop\n        /* \"contracts/UpdatedPatientDataStorage.sol\":4175:4184  emergency */\n      dup1\n        /* \"contracts/UpdatedPatientDataStorage.sol\":4175:4192  emergency.granted */\n      0x00\n      add\n      0x00\n      swap1\n      sload\n      swap1\n      0x0100\n      exp\n      swap1\n      div\n      0xff\n      and\n        /* \"contracts/UpdatedPatientDataStorage.sol\":4175:4234  emergency.granted && emergency.expiryTime > block.timestamp */\n      dup1\n      iszero\n      tag_134\n      jumpi\n      pop\n        /* \"contracts/UpdatedPatientDataStorage.sol\":4219:4234  block.timestamp */\n      timestamp\n        /* \"contracts/UpdatedPatientDataStorage.sol\":4196:4205  emergency */\n      dup2\n        /* \"contracts/UpdatedPatientDataStorage.sol\":4196:4216  emergency.expiryTime */\n      0x01\n      add\n      sload\n        /* \"contracts/UpdatedPatientDataStorage.sol\":4196:4234  emergency.expiryTime > block.timestamp */\n      gt\n        /* \"contracts/UpdatedPatientDataStorage.sol\":4175:4234  emergency.granted && emergency.expiryTime > block.timestamp */\n    tag_134:\n        /* \"contracts/UpdatedPatientDataStorage.sol\":4153:4284  require(... */\n      tag_135\n      jumpi\n      mload(0x40)\n      0x08c379a000000000000000000000000000000000000000000000000000000000\n      dup2\n      mstore\n      0x04\n      add\n      tag_136\n      swap1\n      tag_137\n      jump\t// in\n    tag_136:\n      mload(0x40)\n      dup1\n      swap2\n      sub\n      swap1\n      revert\n    tag_135:\n        /* \"contracts/UpdatedPatientDataStorage.sol\":4312:4326  patientRecords */\n      0x02\n        /* \"contracts/UpdatedPatientDataStorage.sol\":4312:4335  patientRecords[patient] */\n      0x00\n        /* \"contracts/UpdatedPatientDataStorage.sol\":4327:4334  patient */\n      dup7\n        /* \"contracts/UpdatedPatientDataStorage.sol\":4312:4335  patientRecords[patient] */\n      0xffffffffffffffffffffffffffffffffffffffff\n      and\n      0xffffffffffffffffffffffffffffffffffffffff\n      and\n      dup2\n      mstore\n      0x20\n      add\n      swap1\n      dup2\n      mstore\n      0x20\n      add\n      0x00\n      keccak256\n        /* \"contracts/UpdatedPatientDataStorage.sol\":4312:4350  patientRecords[patient].dataCategories */\n      0x02\n      add\n        /* \"contracts/UpdatedPatientDataStorage.sol\":4351:4359  category */\n      dup5\n        /* \"contracts/UpdatedPatientDataStorage.sol\":4312:4360  patientRecords[patient].dataCategories[category] */\n      mload(0x40)\n      tag_138\n      swap2\n      swap1\n      tag_97\n      jump\t// in\n    tag_138:\n      swap1\n      dup2\n      mstore\n      0x20\n      add\n      mload(0x40)\n      dup1\n      swap2\n      sub\n      swap1\n      keccak256\n        /* \"contracts/UpdatedPatientDataStorage.sol\":4305:4360  return patientRecords[patient].dataCategories[category] */\n      dup1\n      sload\n      tag_139\n      swap1\n      tag_113\n      jump\t// in\n    tag_139:\n      dup1\n      0x1f\n      add\n      0x20\n      dup1\n      swap2\n      div\n      mul\n      0x20\n      add\n      mload(0x40)\n      swap1\n      dup2\n      add\n      0x40\n      mstore\n      dup1\n      swap3\n      swap2\n      swap1\n      dup2\n      dup2\n      mstore\n      0x20\n      add\n      dup3\n      dup1\n      sload\n      tag_140\n      swap1\n      tag_113\n      jump\t// in\n    tag_140:\n      dup1\n      iszero\n      tag_141\n      jumpi\n      dup1\n      0x1f\n      lt\n      tag_142\n      jumpi\n      0x0100\n      dup1\n      dup4\n      sload\n      div\n      mul\n      dup4\n      mstore\n      swap2\n      0x20\n      add\n      swap2\n      jump(tag_141)\n    tag_142:\n      dup3\n      add\n      swap2\n      swap1\n      0x00\n      mstore\n      keccak256(0x00, 0x20)\n      swap1\n    tag_143:\n      dup2\n      sload\n      dup2\n      mstore\n      swap1\n      0x01\n      add\n      swap1\n      0x20\n      add\n      dup1\n      dup4\n      gt\n      tag_143\n      jumpi\n      dup3\n      swap1\n      sub\n      0x1f\n      and\n      dup3\n      add\n      swap2\n    tag_141:\n      pop\n      pop\n      pop\n      pop\n      pop\n      swap3\n      pop\n      pop\n        /* \"contracts/UpdatedPatientDataStorage.sol\":1599:1600  _ */\n    tag_121:\n        /* \"contracts/UpdatedPatientDataStorage.sol\":3622:4368  function getPatientData(... */\n      pop\n      swap3\n      swap2\n      pop\n      pop\n      jump\t// out\n        /* \"contracts/UpdatedPatientDataStorage.sol\":2631:3614  function requestEmergencyAccess(... */\n    tag_50:\n        /* \"contracts/UpdatedPatientDataStorage.sol\":2768:2775  patient */\n      dup2\n        /* \"contracts/UpdatedPatientDataStorage.sol\":1529:1543  patientRecords */\n      0x02\n        /* \"contracts/UpdatedPatientDataStorage.sol\":1529:1552  patientRecords[patient] */\n      0x00\n        /* \"contracts/UpdatedPatientDataStorage.sol\":1544:1551  patient */\n      dup3\n        /* \"contracts/UpdatedPatientDataStorage.sol\":1529:1552  patientRecords[patient] */\n      0xffffffffffffffffffffffffffffffffffffffff\n      and\n      0xffffffffffffffffffffffffffffffffffffffff\n      and\n      dup2\n      mstore\n      0x20\n      add\n      swap1\n      dup2\n      mstore\n      0x20\n      add\n      0x00\n      keccak256\n        /* \"contracts/UpdatedPatientDataStorage.sol\":1529:1559  patientRecords[patient].exists */\n      0x01\n      add\n      0x00\n      swap1\n      sload\n      swap1\n      0x0100\n      exp\n      swap1\n      div\n      0xff\n      and\n        /* \"contracts/UpdatedPatientDataStorage.sol\":1521:1588  require(patientRecords[patient].exists, \"Patient record not found\") */\n      tag_145\n      jumpi\n      mload(0x40)\n      0x08c379a000000000000000000000000000000000000000000000000000000000\n      dup2\n      mstore\n      0x04\n      add\n      tag_146\n      swap1\n      tag_54\n      jump\t// in\n    tag_146:\n      mload(0x40)\n      dup1\n      swap2\n      sub\n      swap1\n      revert\n    tag_145:\n        /* \"contracts/UpdatedPatientDataStorage.sol\":2857:2882  IEnhancedRBAC.Role.Doctor */\n      0x04\n        /* \"contracts/UpdatedPatientDataStorage.sol\":2816:2882  accessControl.getUserRole(msg.sender) == IEnhancedRBAC.Role.Doctor */\n      0x06\n      dup2\n      gt\n      iszero\n      tag_148\n      jumpi\n      tag_149\n      tag_150\n      jump\t// in\n    tag_149:\n    tag_148:\n        /* \"contracts/UpdatedPatientDataStorage.sol\":2816:2829  accessControl */\n      0x00\n      dup1\n      sload\n      swap1\n      0x0100\n      exp\n      swap1\n      div\n      0xffffffffffffffffffffffffffffffffffffffff\n      and\n        /* \"contracts/UpdatedPatientDataStorage.sol\":2816:2841  accessControl.getUserRole */\n      0xffffffffffffffffffffffffffffffffffffffff\n      and\n      0x27820851\n        /* \"contracts/UpdatedPatientDataStorage.sol\":2842:2852  msg.sender */\n      caller\n        /* \"contracts/UpdatedPatientDataStorage.sol\":2816:2853  accessControl.getUserRole(msg.sender) */\n      mload(0x40)\n      dup3\n      0xffffffff\n      and\n      0xe0\n      shl\n      dup2\n      mstore\n      0x04\n      add\n      tag_151\n      swap2\n      swap1\n      tag_152\n      jump\t// in\n    tag_151:\n      0x20\n      mload(0x40)\n      dup1\n      dup4\n      sub\n      dup2\n      dup7\n      gas\n      staticcall\n      iszero\n      dup1\n      iszero\n      tag_154\n      jumpi\n      returndatasize\n      0x00\n      dup1\n      returndatacopy\n      revert(0x00, returndatasize)\n    tag_154:\n      pop\n      pop\n      pop\n      pop\n      mload(0x40)\n      returndatasize\n      not(0x1f)\n      0x1f\n      dup3\n      add\n      and\n      dup3\n      add\n      dup1\n      0x40\n      mstore\n      pop\n      dup2\n      add\n      swap1\n      tag_155\n      swap2\n      swap1\n      tag_156\n      jump\t// in\n    tag_155:\n        /* \"contracts/UpdatedPatientDataStorage.sol\":2816:2882  accessControl.getUserRole(msg.sender) == IEnhancedRBAC.Role.Doctor */\n      0x06\n      dup2\n      gt\n      iszero\n      tag_157\n      jumpi\n      tag_158\n      tag_150\n      jump\t// in\n    tag_158:\n    tag_157:\n      eq\n        /* \"contracts/UpdatedPatientDataStorage.sol\":2816:2968  accessControl.getUserRole(msg.sender) == IEnhancedRBAC.Role.Doctor ||... */\n      dup1\n      tag_159\n      jumpi\n      pop\n        /* \"contracts/UpdatedPatientDataStorage.sol\":2940:2968  IEnhancedRBAC.Role.Paramedic */\n      0x03\n        /* \"contracts/UpdatedPatientDataStorage.sol\":2899:2968  accessControl.getUserRole(msg.sender) == IEnhancedRBAC.Role.Paramedic */\n      0x06\n      dup2\n      gt\n      iszero\n      tag_160\n      jumpi\n      tag_161\n      tag_150\n      jump\t// in\n    tag_161:\n    tag_160:\n        /* \"contracts/UpdatedPatientDataStorage.sol\":2899:2912  accessControl */\n      0x00\n      dup1\n      sload\n      swap1\n      0x0100\n      exp\n      swap1\n      div\n      0xffffffffffffffffffffffffffffffffffffffff\n      and\n        /* \"contracts/UpdatedPatientDataStorage.sol\":2899:2924  accessControl.getUserRole */\n      0xffffffffffffffffffffffffffffffffffffffff\n      and\n      0x27820851\n        /* \"contracts/UpdatedPatientDataStorage.sol\":2925:2935  msg.sender */\n      caller\n        /* \"contracts/UpdatedPatientDataStorage.sol\":2899:2936  accessControl.getUserRole(msg.sender) */\n      mload(0x40)\n      dup3\n      0xffffffff\n      and\n      0xe0\n      shl\n      dup2\n      mstore\n      0x04\n      add\n      tag_162\n      swap2\n      swap1\n      tag_152\n      jump\t// in\n    tag_162:\n      0x20\n      mload(0x40)\n      dup1\n      dup4\n      sub\n      dup2\n      dup7\n      gas\n      staticcall\n      iszero\n      dup1\n      iszero\n      tag_164\n      jumpi\n      returndatasize\n      0x00\n      dup1\n      returndatacopy\n      revert(0x00, returndatasize)\n    tag_164:\n      pop\n      pop\n      pop\n      pop\n      mload(0x40)\n      returndatasize\n      not(0x1f)\n      0x1f\n      dup3\n      add\n      and\n      dup3\n      add\n      dup1\n      0x40\n      mstore\n      pop\n      dup2\n      add\n      swap1\n      tag_165\n      swap2\n      swap1\n      tag_156\n      jump\t// in\n    tag_165:\n        /* \"contracts/UpdatedPatientDataStorage.sol\":2899:2968  accessControl.getUserRole(msg.sender) == IEnhancedRBAC.Role.Paramedic */\n      0x06\n      dup2\n      gt\n      iszero\n      tag_166\n      jumpi\n      tag_167\n      tag_150\n      jump\t// in\n    tag_167:\n    tag_166:\n      eq\n        /* \"contracts/UpdatedPatientDataStorage.sol\":2816:2968  accessControl.getUserRole(msg.sender) == IEnhancedRBAC.Role.Doctor ||... */\n    tag_159:\n        /* \"contracts/UpdatedPatientDataStorage.sol\":2794:3051  require(... */\n      tag_168\n      jumpi\n      mload(0x40)\n      0x08c379a000000000000000000000000000000000000000000000000000000000\n      dup2\n      mstore\n      0x04\n      add\n      tag_169\n      swap1\n      tag_170\n      jump\t// in\n    tag_169:\n      mload(0x40)\n      dup1\n      swap2\n      sub\n      swap1\n      revert\n    tag_168:\n        /* \"contracts/UpdatedPatientDataStorage.sol\":3064:3092  PatientRecord storage record */\n      0x00\n        /* \"contracts/UpdatedPatientDataStorage.sol\":3095:3109  patientRecords */\n      0x02\n        /* \"contracts/UpdatedPatientDataStorage.sol\":3095:3118  patientRecords[patient] */\n      0x00\n        /* \"contracts/UpdatedPatientDataStorage.sol\":3110:3117  patient */\n      dup6\n        /* \"contracts/UpdatedPatientDataStorage.sol\":3095:3118  patientRecords[patient] */\n      0xffffffffffffffffffffffffffffffffffffffff\n      and\n      0xffffffffffffffffffffffffffffffffffffffff\n      and\n      dup2\n      mstore\n      0x20\n      add\n      swap1\n      dup2\n      mstore\n      0x20\n      add\n      0x00\n      keccak256\n        /* \"contracts/UpdatedPatientDataStorage.sol\":3064:3118  PatientRecord storage record = patientRecords[patient] */\n      swap1\n      pop\n        /* \"contracts/UpdatedPatientDataStorage.sol\":3129:3147  uint256 expiryTime */\n      0x00\n        /* \"contracts/UpdatedPatientDataStorage.sol\":732:740  24 hours */\n      0x015180\n        /* \"contracts/UpdatedPatientDataStorage.sol\":3150:3165  block.timestamp */\n      timestamp\n        /* \"contracts/UpdatedPatientDataStorage.sol\":3150:3193  block.timestamp + EMERGENCY_ACCESS_DURATION */\n      tag_171\n      swap2\n      swap1\n      tag_172\n      jump\t// in\n    tag_171:\n        /* \"contracts/UpdatedPatientDataStorage.sol\":3129:3193  uint256 expiryTime = block.timestamp + EMERGENCY_ACCESS_DURATION */\n      swap1\n      pop\n        /* \"contracts/UpdatedPatientDataStorage.sol\":3251:3373  EmergencyAccess({... */\n      mload(0x40)\n      dup1\n      0x60\n      add\n      0x40\n      mstore\n      dup1\n        /* \"contracts/UpdatedPatientDataStorage.sol\":3291:3295  true */\n      0x01\n        /* \"contracts/UpdatedPatientDataStorage.sol\":3251:3373  EmergencyAccess({... */\n      iszero\n      iszero\n      dup2\n      mstore\n      0x20\n      add\n        /* \"contracts/UpdatedPatientDataStorage.sol\":3322:3332  expiryTime */\n      dup3\n        /* \"contracts/UpdatedPatientDataStorage.sol\":3251:3373  EmergencyAccess({... */\n      dup2\n      mstore\n      0x20\n      add\n        /* \"contracts/UpdatedPatientDataStorage.sol\":3355:3361  reason */\n      dup6\n        /* \"contracts/UpdatedPatientDataStorage.sol\":3251:3373  EmergencyAccess({... */\n      dup2\n      mstore\n      pop\n        /* \"contracts/UpdatedPatientDataStorage.sol\":3214:3220  record */\n      dup3\n        /* \"contracts/UpdatedPatientDataStorage.sol\":3214:3236  record.emergencyAccess */\n      0x03\n      add\n        /* \"contracts/UpdatedPatientDataStorage.sol\":3214:3248  record.emergencyAccess[msg.sender] */\n      0x00\n        /* \"contracts/UpdatedPatientDataStorage.sol\":3237:3247  msg.sender */\n      caller\n        /* \"contracts/UpdatedPatientDataStorage.sol\":3214:3248  record.emergencyAccess[msg.sender] */\n      0xffffffffffffffffffffffffffffffffffffffff\n      and\n      0xffffffffffffffffffffffffffffffffffffffff\n      and\n      dup2\n      mstore\n      0x20\n      add\n      swap1\n      dup2\n      mstore\n      0x20\n      add\n      0x00\n      keccak256\n        /* \"contracts/UpdatedPatientDataStorage.sol\":3214:3373  record.emergencyAccess[msg.sender] = EmergencyAccess({... */\n      0x00\n      dup3\n      add\n      mload\n      dup2\n      0x00\n      add\n      exp(0x0100, 0x00)\n      dup2\n      sload\n      dup2\n      0xff\n      mul\n      not\n      and\n      swap1\n      dup4\n      iszero\n      iszero\n      mul\n      or\n      swap1\n      sstore\n      pop\n      0x20\n      dup3\n      add\n      mload\n      dup2\n      0x01\n      add\n      sstore\n      0x40\n      dup3\n      add\n      mload\n      dup2\n      0x02\n      add\n      swap1\n      dup2\n      tag_173\n      swap2\n      swap1\n      tag_99\n      jump\t// in\n    tag_173:\n      pop\n      swap1\n      pop\n      pop\n        /* \"contracts/UpdatedPatientDataStorage.sol\":3426:3433  patient */\n      dup5\n        /* \"contracts/UpdatedPatientDataStorage.sol\":3391:3446  EmergencyAccessGranted(msg.sender, patient, expiryTime) */\n      0xffffffffffffffffffffffffffffffffffffffff\n      and\n        /* \"contracts/UpdatedPatientDataStorage.sol\":3414:3424  msg.sender */\n      caller\n        /* \"contracts/UpdatedPatientDataStorage.sol\":3391:3446  EmergencyAccessGranted(msg.sender, patient, expiryTime) */\n      0xffffffffffffffffffffffffffffffffffffffff\n      and\n      0x5d1675d647fd82d7866123d4b61e400e9b9cd41946ae22001974c31e8addb20b\n        /* \"contracts/UpdatedPatientDataStorage.sol\":3435:3445  expiryTime */\n      dup4\n        /* \"contracts/UpdatedPatientDataStorage.sol\":3391:3446  EmergencyAccessGranted(msg.sender, patient, expiryTime) */\n      mload(0x40)\n      tag_174\n      swap2\n      swap1\n      tag_20\n      jump\t// in\n    tag_174:\n      mload(0x40)\n      dup1\n      swap2\n      sub\n      swap1\n      log3\n        /* \"contracts/UpdatedPatientDataStorage.sol\":3457:3465  auditLog */\n      0x01\n      0x00\n      swap1\n      sload\n      swap1\n      0x0100\n      exp\n      swap1\n      div\n      0xffffffffffffffffffffffffffffffffffffffff\n      and\n        /* \"contracts/UpdatedPatientDataStorage.sol\":3457:3475  auditLog.logAccess */\n      0xffffffffffffffffffffffffffffffffffffffff\n      and\n      0x67fe17f4\n        /* \"contracts/UpdatedPatientDataStorage.sol\":3490:3500  msg.sender */\n      caller\n        /* \"contracts/UpdatedPatientDataStorage.sol\":3515:3522  patient */\n      dup8\n        /* \"contracts/UpdatedPatientDataStorage.sol\":3570:3576  reason */\n      dup8\n        /* \"contracts/UpdatedPatientDataStorage.sol\":3591:3595  true */\n      0x01\n        /* \"contracts/UpdatedPatientDataStorage.sol\":3457:3606  auditLog.logAccess(... */\n      mload(0x40)\n      dup6\n      0xffffffff\n      and\n      0xe0\n      shl\n      dup2\n      mstore\n      0x04\n      add\n      tag_175\n      swap5\n      swap4\n      swap3\n      swap2\n      swap1\n      tag_176\n      jump\t// in\n    tag_175:\n      0x00\n      mload(0x40)\n      dup1\n      dup4\n      sub\n      dup2\n      0x00\n      dup8\n      dup1\n      extcodesize\n      iszero\n      dup1\n      iszero\n      tag_177\n      jumpi\n      0x00\n      dup1\n      revert\n    tag_177:\n      pop\n      gas\n      call\n      iszero\n      dup1\n      iszero\n      tag_179\n      jumpi\n      returndatasize\n      0x00\n      dup1\n      returndatacopy\n      revert(0x00, returndatasize)\n    tag_179:\n      pop\n      pop\n      pop\n      pop\n        /* \"contracts/UpdatedPatientDataStorage.sol\":2783:3614  {... */\n      pop\n      pop\n        /* \"contracts/UpdatedPatientDataStorage.sol\":2631:3614  function requestEmergencyAccess(... */\n      pop\n      pop\n      pop\n      jump\t// out\n    tag_60:\n      pop\n      dup1\n      sload\n      tag_180\n      swap1\n      tag_113\n      jump\t// in\n    tag_180:\n      0x00\n      dup3\n      sstore\n      dup1\n      0x1f\n      lt\n      tag_182\n      jumpi\n      pop\n      jump(tag_181)\n    tag_182:\n      0x1f\n      add\n      0x20\n      swap1\n      div\n      swap1\n      0x00\n      mstore\n      keccak256(0x00, 0x20)\n      swap1\n      dup2\n      add\n      swap1\n      tag_183\n      swap2\n      swap1\n      tag_184\n      jump\t// in\n    tag_183:\n    tag_181:\n      pop\n      jump\t// out\n    tag_184:\n    tag_185:\n      dup1\n      dup3\n      gt\n      iszero\n      tag_186\n      jumpi\n      0x00\n      dup2\n      0x00\n      swap1\n      sstore\n      pop\n      0x01\n      add\n      jump(tag_185)\n    tag_186:\n      pop\n      swap1\n      jump\t// out\n        /* \"#utility.yul\":7:133   */\n    tag_187:\n        /* \"#utility.yul\":44:51   */\n      0x00\n        /* \"#utility.yul\":84:126   */\n      0xffffffffffffffffffffffffffffffffffffffff\n        /* \"#utility.yul\":77:82   */\n      dup3\n        /* \"#utility.yul\":73:127   */\n      and\n        /* \"#utility.yul\":62:127   */\n      swap1\n      pop\n        /* \"#utility.yul\":7:133   */\n      swap2\n      swap1\n      pop\n      jump\t// out\n        /* \"#utility.yul\":139:199   */\n    tag_188:\n        /* \"#utility.yul\":167:170   */\n      0x00\n        /* \"#utility.yul\":188:193   */\n      dup2\n        /* \"#utility.yul\":181:193   */\n      swap1\n      pop\n        /* \"#utility.yul\":139:199   */\n      swap2\n      swap1\n      pop\n      jump\t// out\n        /* \"#utility.yul\":205:347   */\n    tag_189:\n        /* \"#utility.yul\":255:264   */\n      0x00\n        /* \"#utility.yul\":288:341   */\n      tag_274\n        /* \"#utility.yul\":306:340   */\n      tag_275\n        /* \"#utility.yul\":315:339   */\n      tag_276\n        /* \"#utility.yul\":333:338   */\n      dup5\n        /* \"#utility.yul\":315:339   */\n      tag_187\n      jump\t// in\n    tag_276:\n        /* \"#utility.yul\":306:340   */\n      tag_188\n      jump\t// in\n    tag_275:\n        /* \"#utility.yul\":288:341   */\n      tag_187\n      jump\t// in\n    tag_274:\n        /* \"#utility.yul\":275:341   */\n      swap1\n      pop\n        /* \"#utility.yul\":205:347   */\n      swap2\n      swap1\n      pop\n      jump\t// out\n        /* \"#utility.yul\":353:479   */\n    tag_190:\n        /* \"#utility.yul\":403:412   */\n      0x00\n        /* \"#utility.yul\":436:473   */\n      tag_278\n        /* \"#utility.yul\":467:472   */\n      dup3\n        /* \"#utility.yul\":436:473   */\n      tag_189\n      jump\t// in\n    tag_278:\n        /* \"#utility.yul\":423:473   */\n      swap1\n      pop\n        /* \"#utility.yul\":353:479   */\n      swap2\n      swap1\n      pop\n      jump\t// out\n        /* \"#utility.yul\":485:632   */\n    tag_191:\n        /* \"#utility.yul\":556:565   */\n      0x00\n        /* \"#utility.yul\":589:626   */\n      tag_280\n        /* \"#utility.yul\":620:625   */\n      dup3\n        /* \"#utility.yul\":589:626   */\n      tag_190\n      jump\t// in\n    tag_280:\n        /* \"#utility.yul\":576:626   */\n      swap1\n      pop\n        /* \"#utility.yul\":485:632   */\n      swap2\n      swap1\n      pop\n      jump\t// out\n        /* \"#utility.yul\":638:811   */\n    tag_192:\n        /* \"#utility.yul\":746:804   */\n      tag_282\n        /* \"#utility.yul\":798:803   */\n      dup2\n        /* \"#utility.yul\":746:804   */\n      tag_191\n      jump\t// in\n    tag_282:\n        /* \"#utility.yul\":741:744   */\n      dup3\n        /* \"#utility.yul\":734:805   */\n      mstore\n        /* \"#utility.yul\":638:811   */\n      pop\n      pop\n      jump\t// out\n        /* \"#utility.yul\":817:1081   */\n    tag_16:\n        /* \"#utility.yul\":931:935   */\n      0x00\n        /* \"#utility.yul\":969:971   */\n      0x20\n        /* \"#utility.yul\":958:967   */\n      dup3\n        /* \"#utility.yul\":954:972   */\n      add\n        /* \"#utility.yul\":946:972   */\n      swap1\n      pop\n        /* \"#utility.yul\":982:1074   */\n      tag_284\n        /* \"#utility.yul\":1071:1072   */\n      0x00\n        /* \"#utility.yul\":1060:1069   */\n      dup4\n        /* \"#utility.yul\":1056:1073   */\n      add\n        /* \"#utility.yul\":1047:1053   */\n      dup5\n        /* \"#utility.yul\":982:1074   */\n      tag_192\n      jump\t// in\n    tag_284:\n        /* \"#utility.yul\":817:1081   */\n      swap3\n      swap2\n      pop\n      pop\n      jump\t// out\n        /* \"#utility.yul\":1087:1164   */\n    tag_193:\n        /* \"#utility.yul\":1124:1131   */\n      0x00\n        /* \"#utility.yul\":1153:1158   */\n      dup2\n        /* \"#utility.yul\":1142:1158   */\n      swap1\n      pop\n        /* \"#utility.yul\":1087:1164   */\n      swap2\n      swap1\n      pop\n      jump\t// out\n        /* \"#utility.yul\":1170:1288   */\n    tag_194:\n        /* \"#utility.yul\":1257:1281   */\n      tag_287\n        /* \"#utility.yul\":1275:1280   */\n      dup2\n        /* \"#utility.yul\":1257:1281   */\n      tag_193\n      jump\t// in\n    tag_287:\n        /* \"#utility.yul\":1252:1255   */\n      dup3\n        /* \"#utility.yul\":1245:1282   */\n      mstore\n        /* \"#utility.yul\":1170:1288   */\n      pop\n      pop\n      jump\t// out\n        /* \"#utility.yul\":1294:1516   */\n    tag_20:\n        /* \"#utility.yul\":1387:1391   */\n      0x00\n        /* \"#utility.yul\":1425:1427   */\n      0x20\n        /* \"#utility.yul\":1414:1423   */\n      dup3\n        /* \"#utility.yul\":1410:1428   */\n      add\n        /* \"#utility.yul\":1402:1428   */\n      swap1\n      pop\n        /* \"#utility.yul\":1438:1509   */\n      tag_289\n        /* \"#utility.yul\":1506:1507   */\n      0x00\n        /* \"#utility.yul\":1495:1504   */\n      dup4\n        /* \"#utility.yul\":1491:1508   */\n      add\n        /* \"#utility.yul\":1482:1488   */\n      dup5\n        /* \"#utility.yul\":1438:1509   */\n      tag_194\n      jump\t// in\n    tag_289:\n        /* \"#utility.yul\":1294:1516   */\n      swap3\n      swap2\n      pop\n      pop\n      jump\t// out\n        /* \"#utility.yul\":1522:1672   */\n    tag_195:\n        /* \"#utility.yul\":1596:1605   */\n      0x00\n        /* \"#utility.yul\":1629:1666   */\n      tag_291\n        /* \"#utility.yul\":1660:1665   */\n      dup3\n        /* \"#utility.yul\":1629:1666   */\n      tag_190\n      jump\t// in\n    tag_291:\n        /* \"#utility.yul\":1616:1666   */\n      swap1\n      pop\n        /* \"#utility.yul\":1522:1672   */\n      swap2\n      swap1\n      pop\n      jump\t// out\n        /* \"#utility.yul\":1678:1857   */\n    tag_196:\n        /* \"#utility.yul\":1789:1850   */\n      tag_293\n        /* \"#utility.yul\":1844:1849   */\n      dup2\n        /* \"#utility.yul\":1789:1850   */\n      tag_195\n      jump\t// in\n    tag_293:\n        /* \"#utility.yul\":1784:1787   */\n      dup3\n        /* \"#utility.yul\":1777:1851   */\n      mstore\n        /* \"#utility.yul\":1678:1857   */\n      pop\n      pop\n      jump\t// out\n        /* \"#utility.yul\":1863:2133   */\n    tag_24:\n        /* \"#utility.yul\":1980:1984   */\n      0x00\n        /* \"#utility.yul\":2018:2020   */\n      0x20\n        /* \"#utility.yul\":2007:2016   */\n      dup3\n        /* \"#utility.yul\":2003:2021   */\n      add\n        /* \"#utility.yul\":1995:2021   */\n      swap1\n      pop\n        /* \"#utility.yul\":2031:2126   */\n      tag_295\n        /* \"#utility.yul\":2123:2124   */\n      0x00\n        /* \"#utility.yul\":2112:2121   */\n      dup4\n        /* \"#utility.yul\":2108:2125   */\n      add\n        /* \"#utility.yul\":2099:2105   */\n      dup5\n        /* \"#utility.yul\":2031:2126   */\n      tag_196\n      jump\t// in\n    tag_295:\n        /* \"#utility.yul\":1863:2133   */\n      swap3\n      swap2\n      pop\n      pop\n      jump\t// out\n        /* \"#utility.yul\":2139:2214   */\n    tag_197:\n        /* \"#utility.yul\":2172:2178   */\n      0x00\n        /* \"#utility.yul\":2205:2207   */\n      0x40\n        /* \"#utility.yul\":2199:2208   */\n      mload\n        /* \"#utility.yul\":2189:2208   */\n      swap1\n      pop\n        /* \"#utility.yul\":2139:2214   */\n      swap1\n      jump\t// out\n        /* \"#utility.yul\":2220:2337   */\n    tag_198:\n        /* \"#utility.yul\":2329:2330   */\n      0x00\n        /* \"#utility.yul\":2326:2327   */\n      dup1\n        /* \"#utility.yul\":2319:2331   */\n      revert\n        /* \"#utility.yul\":2343:2460   */\n    tag_199:\n        /* \"#utility.yul\":2452:2453   */\n      0x00\n        /* \"#utility.yul\":2449:2450   */\n      dup1\n        /* \"#utility.yul\":2442:2454   */\n      revert\n        /* \"#utility.yul\":2466:2562   */\n    tag_200:\n        /* \"#utility.yul\":2503:2510   */\n      0x00\n        /* \"#utility.yul\":2532:2556   */\n      tag_300\n        /* \"#utility.yul\":2550:2555   */\n      dup3\n        /* \"#utility.yul\":2532:2556   */\n      tag_187\n      jump\t// in\n    tag_300:\n        /* \"#utility.yul\":2521:2556   */\n      swap1\n      pop\n        /* \"#utility.yul\":2466:2562   */\n      swap2\n      swap1\n      pop\n      jump\t// out\n        /* \"#utility.yul\":2568:2690   */\n    tag_201:\n        /* \"#utility.yul\":2641:2665   */\n      tag_302\n        /* \"#utility.yul\":2659:2664   */\n      dup2\n        /* \"#utility.yul\":2641:2665   */\n      tag_200\n      jump\t// in\n    tag_302:\n        /* \"#utility.yul\":2634:2639   */\n      dup2\n        /* \"#utility.yul\":2631:2666   */\n      eq\n        /* \"#utility.yul\":2621:2684   */\n      tag_303\n      jumpi\n        /* \"#utility.yul\":2680:2681   */\n      0x00\n        /* \"#utility.yul\":2677:2678   */\n      dup1\n        /* \"#utility.yul\":2670:2682   */\n      revert\n        /* \"#utility.yul\":2621:2684   */\n    tag_303:\n        /* \"#utility.yul\":2568:2690   */\n      pop\n      jump\t// out\n        /* \"#utility.yul\":2696:2835   */\n    tag_202:\n        /* \"#utility.yul\":2742:2747   */\n      0x00\n        /* \"#utility.yul\":2780:2786   */\n      dup2\n        /* \"#utility.yul\":2767:2787   */\n      calldataload\n        /* \"#utility.yul\":2758:2787   */\n      swap1\n      pop\n        /* \"#utility.yul\":2796:2829   */\n      tag_305\n        /* \"#utility.yul\":2823:2828   */\n      dup2\n        /* \"#utility.yul\":2796:2829   */\n      tag_201\n      jump\t// in\n    tag_305:\n        /* \"#utility.yul\":2696:2835   */\n      swap3\n      swap2\n      pop\n      pop\n      jump\t// out\n        /* \"#utility.yul\":2841:3170   */\n    tag_27:\n        /* \"#utility.yul\":2900:2906   */\n      0x00\n        /* \"#utility.yul\":2949:2951   */\n      0x20\n        /* \"#utility.yul\":2937:2946   */\n      dup3\n        /* \"#utility.yul\":2928:2935   */\n      dup5\n        /* \"#utility.yul\":2924:2947   */\n      sub\n        /* \"#utility.yul\":2920:2952   */\n      slt\n        /* \"#utility.yul\":2917:3036   */\n      iszero\n      tag_307\n      jumpi\n        /* \"#utility.yul\":2955:3034   */\n      tag_308\n      tag_198\n      jump\t// in\n    tag_308:\n        /* \"#utility.yul\":2917:3036   */\n    tag_307:\n        /* \"#utility.yul\":3075:3076   */\n      0x00\n        /* \"#utility.yul\":3100:3153   */\n      tag_309\n        /* \"#utility.yul\":3145:3152   */\n      dup5\n        /* \"#utility.yul\":3136:3142   */\n      dup3\n        /* \"#utility.yul\":3125:3134   */\n      dup6\n        /* \"#utility.yul\":3121:3143   */\n      add\n        /* \"#utility.yul\":3100:3153   */\n      tag_202\n      jump\t// in\n    tag_309:\n        /* \"#utility.yul\":3090:3153   */\n      swap2\n      pop\n        /* \"#utility.yul\":3046:3163   */\n      pop\n        /* \"#utility.yul\":2841:3170   */\n      swap3\n      swap2\n      pop\n      pop\n      jump\t// out\n        /* \"#utility.yul\":3176:3293   */\n    tag_203:\n        /* \"#utility.yul\":3285:3286   */\n      0x00\n        /* \"#utility.yul\":3282:3283   */\n      dup1\n        /* \"#utility.yul\":3275:3287   */\n      revert\n        /* \"#utility.yul\":3299:3416   */\n    tag_204:\n        /* \"#utility.yul\":3408:3409   */\n      0x00\n        /* \"#utility.yul\":3405:3406   */\n      dup1\n        /* \"#utility.yul\":3398:3410   */\n      revert\n        /* \"#utility.yul\":3422:3524   */\n    tag_205:\n        /* \"#utility.yul\":3463:3469   */\n      0x00\n        /* \"#utility.yul\":3514:3516   */\n      0x1f\n        /* \"#utility.yul\":3510:3517   */\n      not\n        /* \"#utility.yul\":3505:3507   */\n      0x1f\n        /* \"#utility.yul\":3498:3503   */\n      dup4\n        /* \"#utility.yul\":3494:3508   */\n      add\n        /* \"#utility.yul\":3490:3518   */\n      and\n        /* \"#utility.yul\":3480:3518   */\n      swap1\n      pop\n        /* \"#utility.yul\":3422:3524   */\n      swap2\n      swap1\n      pop\n      jump\t// out\n        /* \"#utility.yul\":3530:3710   */\n    tag_206:\n        /* \"#utility.yul\":3578:3655   */\n      0x4e487b7100000000000000000000000000000000000000000000000000000000\n        /* \"#utility.yul\":3575:3576   */\n      0x00\n        /* \"#utility.yul\":3568:3656   */\n      mstore\n        /* \"#utility.yul\":3675:3679   */\n      0x41\n        /* \"#utility.yul\":3672:3673   */\n      0x04\n        /* \"#utility.yul\":3665:3680   */\n      mstore\n        /* \"#utility.yul\":3699:3703   */\n      0x24\n        /* \"#utility.yul\":3696:3697   */\n      0x00\n        /* \"#utility.yul\":3689:3704   */\n      revert\n        /* \"#utility.yul\":3716:3997   */\n    tag_207:\n        /* \"#utility.yul\":3799:3826   */\n      tag_315\n        /* \"#utility.yul\":3821:3825   */\n      dup3\n        /* \"#utility.yul\":3799:3826   */\n      tag_205\n      jump\t// in\n    tag_315:\n        /* \"#utility.yul\":3791:3797   */\n      dup2\n        /* \"#utility.yul\":3787:3827   */\n      add\n        /* \"#utility.yul\":3929:3935   */\n      dup2\n        /* \"#utility.yul\":3917:3927   */\n      dup2\n        /* \"#utility.yul\":3914:3936   */\n      lt\n        /* \"#utility.yul\":3893:3911   */\n      0xffffffffffffffff\n        /* \"#utility.yul\":3881:3891   */\n      dup3\n        /* \"#utility.yul\":3878:3912   */\n      gt\n        /* \"#utility.yul\":3875:3937   */\n      or\n        /* \"#utility.yul\":3872:3960   */\n      iszero\n      tag_316\n      jumpi\n        /* \"#utility.yul\":3940:3958   */\n      tag_317\n      tag_206\n      jump\t// in\n    tag_317:\n        /* \"#utility.yul\":3872:3960   */\n    tag_316:\n        /* \"#utility.yul\":3980:3990   */\n      dup1\n        /* \"#utility.yul\":3976:3978   */\n      0x40\n        /* \"#utility.yul\":3969:3991   */\n      mstore\n        /* \"#utility.yul\":3759:3997   */\n      pop\n        /* \"#utility.yul\":3716:3997   */\n      pop\n      pop\n      jump\t// out\n        /* \"#utility.yul\":4003:4132   */\n    tag_208:\n        /* \"#utility.yul\":4037:4043   */\n      0x00\n        /* \"#utility.yul\":4064:4084   */\n      tag_319\n      tag_197\n      jump\t// in\n    tag_319:\n        /* \"#utility.yul\":4054:4084   */\n      swap1\n      pop\n        /* \"#utility.yul\":4093:4126   */\n      tag_320\n        /* \"#utility.yul\":4121:4125   */\n      dup3\n        /* \"#utility.yul\":4113:4119   */\n      dup3\n        /* \"#utility.yul\":4093:4126   */\n      tag_207\n      jump\t// in\n    tag_320:\n        /* \"#utility.yul\":4003:4132   */\n      swap2\n      swap1\n      pop\n      jump\t// out\n        /* \"#utility.yul\":4138:4446   */\n    tag_209:\n        /* \"#utility.yul\":4200:4204   */\n      0x00\n        /* \"#utility.yul\":4290:4308   */\n      0xffffffffffffffff\n        /* \"#utility.yul\":4282:4288   */\n      dup3\n        /* \"#utility.yul\":4279:4309   */\n      gt\n        /* \"#utility.yul\":4276:4332   */\n      iszero\n      tag_322\n      jumpi\n        /* \"#utility.yul\":4312:4330   */\n      tag_323\n      tag_206\n      jump\t// in\n    tag_323:\n        /* \"#utility.yul\":4276:4332   */\n    tag_322:\n        /* \"#utility.yul\":4350:4379   */\n      tag_324\n        /* \"#utility.yul\":4372:4378   */\n      dup3\n        /* \"#utility.yul\":4350:4379   */\n      tag_205\n      jump\t// in\n    tag_324:\n        /* \"#utility.yul\":4342:4379   */\n      swap1\n      pop\n        /* \"#utility.yul\":4434:4438   */\n      0x20\n        /* \"#utility.yul\":4428:4432   */\n      dup2\n        /* \"#utility.yul\":4424:4439   */\n      add\n        /* \"#utility.yul\":4416:4439   */\n      swap1\n      pop\n        /* \"#utility.yul\":4138:4446   */\n      swap2\n      swap1\n      pop\n      jump\t// out\n        /* \"#utility.yul\":4452:4600   */\n    tag_210:\n        /* \"#utility.yul\":4550:4556   */\n      dup3\n        /* \"#utility.yul\":4545:4548   */\n      dup2\n        /* \"#utility.yul\":4540:4543   */\n      dup4\n        /* \"#utility.yul\":4527:4557   */\n      calldatacopy\n        /* \"#utility.yul\":4591:4592   */\n      0x00\n        /* \"#utility.yul\":4582:4588   */\n      dup4\n        /* \"#utility.yul\":4577:4580   */\n      dup4\n        /* \"#utility.yul\":4573:4589   */\n      add\n        /* \"#utility.yul\":4566:4593   */\n      mstore\n        /* \"#utility.yul\":4452:4600   */\n      pop\n      pop\n      pop\n      jump\t// out\n        /* \"#utility.yul\":4606:5031   */\n    tag_211:\n        /* \"#utility.yul\":4684:4689   */\n      0x00\n        /* \"#utility.yul\":4709:4775   */\n      tag_327\n        /* \"#utility.yul\":4725:4774   */\n      tag_328\n        /* \"#utility.yul\":4767:4773   */\n      dup5\n        /* \"#utility.yul\":4725:4774   */\n      tag_209\n      jump\t// in\n    tag_328:\n        /* \"#utility.yul\":4709:4775   */\n      tag_208\n      jump\t// in\n    tag_327:\n        /* \"#utility.yul\":4700:4775   */\n      swap1\n      pop\n        /* \"#utility.yul\":4798:4804   */\n      dup3\n        /* \"#utility.yul\":4791:4796   */\n      dup2\n        /* \"#utility.yul\":4784:4805   */\n      mstore\n        /* \"#utility.yul\":4836:4840   */\n      0x20\n        /* \"#utility.yul\":4829:4834   */\n      dup2\n        /* \"#utility.yul\":4825:4841   */\n      add\n        /* \"#utility.yul\":4874:4877   */\n      dup5\n        /* \"#utility.yul\":4865:4871   */\n      dup5\n        /* \"#utility.yul\":4860:4863   */\n      dup5\n        /* \"#utility.yul\":4856:4872   */\n      add\n        /* \"#utility.yul\":4853:4878   */\n      gt\n        /* \"#utility.yul\":4850:4962   */\n      iszero\n      tag_329\n      jumpi\n        /* \"#utility.yul\":4881:4960   */\n      tag_330\n      tag_204\n      jump\t// in\n    tag_330:\n        /* \"#utility.yul\":4850:4962   */\n    tag_329:\n        /* \"#utility.yul\":4971:5025   */\n      tag_331\n        /* \"#utility.yul\":5018:5024   */\n      dup5\n        /* \"#utility.yul\":5013:5016   */\n      dup3\n        /* \"#utility.yul\":5008:5011   */\n      dup6\n        /* \"#utility.yul\":4971:5025   */\n      tag_210\n      jump\t// in\n    tag_331:\n        /* \"#utility.yul\":4690:5031   */\n      pop\n        /* \"#utility.yul\":4606:5031   */\n      swap4\n      swap3\n      pop\n      pop\n      pop\n      jump\t// out\n        /* \"#utility.yul\":5051:5391   */\n    tag_212:\n        /* \"#utility.yul\":5107:5112   */\n      0x00\n        /* \"#utility.yul\":5156:5159   */\n      dup3\n        /* \"#utility.yul\":5149:5153   */\n      0x1f\n        /* \"#utility.yul\":5141:5147   */\n      dup4\n        /* \"#utility.yul\":5137:5154   */\n      add\n        /* \"#utility.yul\":5133:5160   */\n      slt\n        /* \"#utility.yul\":5123:5245   */\n      tag_333\n      jumpi\n        /* \"#utility.yul\":5164:5243   */\n      tag_334\n      tag_203\n      jump\t// in\n    tag_334:\n        /* \"#utility.yul\":5123:5245   */\n    tag_333:\n        /* \"#utility.yul\":5281:5287   */\n      dup2\n        /* \"#utility.yul\":5268:5288   */\n      calldataload\n        /* \"#utility.yul\":5306:5385   */\n      tag_335\n        /* \"#utility.yul\":5381:5384   */\n      dup5\n        /* \"#utility.yul\":5373:5379   */\n      dup3\n        /* \"#utility.yul\":5366:5370   */\n      0x20\n        /* \"#utility.yul\":5358:5364   */\n      dup7\n        /* \"#utility.yul\":5354:5371   */\n      add\n        /* \"#utility.yul\":5306:5385   */\n      tag_211\n      jump\t// in\n    tag_335:\n        /* \"#utility.yul\":5297:5385   */\n      swap2\n      pop\n        /* \"#utility.yul\":5113:5391   */\n      pop\n        /* \"#utility.yul\":5051:5391   */\n      swap3\n      swap2\n      pop\n      pop\n      jump\t// out\n        /* \"#utility.yul\":5397:6376   */\n    tag_34:\n        /* \"#utility.yul\":5494:5500   */\n      0x00\n        /* \"#utility.yul\":5502:5508   */\n      dup1\n        /* \"#utility.yul\":5510:5516   */\n      0x00\n        /* \"#utility.yul\":5559:5561   */\n      0x60\n        /* \"#utility.yul\":5547:5556   */\n      dup5\n        /* \"#utility.yul\":5538:5545   */\n      dup7\n        /* \"#utility.yul\":5534:5557   */\n      sub\n        /* \"#utility.yul\":5530:5562   */\n      slt\n        /* \"#utility.yul\":5527:5646   */\n      iszero\n      tag_337\n      jumpi\n        /* \"#utility.yul\":5565:5644   */\n      tag_338\n      tag_198\n      jump\t// in\n    tag_338:\n        /* \"#utility.yul\":5527:5646   */\n    tag_337:\n        /* \"#utility.yul\":5685:5686   */\n      0x00\n        /* \"#utility.yul\":5710:5763   */\n      tag_339\n        /* \"#utility.yul\":5755:5762   */\n      dup7\n        /* \"#utility.yul\":5746:5752   */\n      dup3\n        /* \"#utility.yul\":5735:5744   */\n      dup8\n        /* \"#utility.yul\":5731:5753   */\n      add\n        /* \"#utility.yul\":5710:5763   */\n      tag_202\n      jump\t// in\n    tag_339:\n        /* \"#utility.yul\":5700:5763   */\n      swap4\n      pop\n        /* \"#utility.yul\":5656:5773   */\n      pop\n        /* \"#utility.yul\":5840:5842   */\n      0x20\n        /* \"#utility.yul\":5829:5838   */\n      dup5\n        /* \"#utility.yul\":5825:5843   */\n      add\n        /* \"#utility.yul\":5812:5844   */\n      calldataload\n        /* \"#utility.yul\":5871:5889   */\n      0xffffffffffffffff\n        /* \"#utility.yul\":5863:5869   */\n      dup2\n        /* \"#utility.yul\":5860:5890   */\n      gt\n        /* \"#utility.yul\":5857:5974   */\n      iszero\n      tag_340\n      jumpi\n        /* \"#utility.yul\":5893:5972   */\n      tag_341\n      tag_199\n      jump\t// in\n    tag_341:\n        /* \"#utility.yul\":5857:5974   */\n    tag_340:\n        /* \"#utility.yul\":5998:6061   */\n      tag_342\n        /* \"#utility.yul\":6053:6060   */\n      dup7\n        /* \"#utility.yul\":6044:6050   */\n      dup3\n        /* \"#utility.yul\":6033:6042   */\n      dup8\n        /* \"#utility.yul\":6029:6051   */\n      add\n        /* \"#utility.yul\":5998:6061   */\n      tag_212\n      jump\t// in\n    tag_342:\n        /* \"#utility.yul\":5988:6061   */\n      swap3\n      pop\n        /* \"#utility.yul\":5783:6071   */\n      pop\n        /* \"#utility.yul\":6138:6140   */\n      0x40\n        /* \"#utility.yul\":6127:6136   */\n      dup5\n        /* \"#utility.yul\":6123:6141   */\n      add\n        /* \"#utility.yul\":6110:6142   */\n      calldataload\n        /* \"#utility.yul\":6169:6187   */\n      0xffffffffffffffff\n        /* \"#utility.yul\":6161:6167   */\n      dup2\n        /* \"#utility.yul\":6158:6188   */\n      gt\n        /* \"#utility.yul\":6155:6272   */\n      iszero\n      tag_343\n      jumpi\n        /* \"#utility.yul\":6191:6270   */\n      tag_344\n      tag_199\n      jump\t// in\n    tag_344:\n        /* \"#utility.yul\":6155:6272   */\n    tag_343:\n        /* \"#utility.yul\":6296:6359   */\n      tag_345\n        /* \"#utility.yul\":6351:6358   */\n      dup7\n        /* \"#utility.yul\":6342:6348   */\n      dup3\n        /* \"#utility.yul\":6331:6340   */\n      dup8\n        /* \"#utility.yul\":6327:6349   */\n      add\n        /* \"#utility.yul\":6296:6359   */\n      tag_212\n      jump\t// in\n    tag_345:\n        /* \"#utility.yul\":6286:6359   */\n      swap2\n      pop\n        /* \"#utility.yul\":6081:6369   */\n      pop\n        /* \"#utility.yul\":5397:6376   */\n      swap3\n      pop\n      swap3\n      pop\n      swap3\n      jump\t// out\n        /* \"#utility.yul\":6382:6856   */\n    tag_38:\n        /* \"#utility.yul\":6450:6456   */\n      0x00\n        /* \"#utility.yul\":6458:6464   */\n      dup1\n        /* \"#utility.yul\":6507:6509   */\n      0x40\n        /* \"#utility.yul\":6495:6504   */\n      dup4\n        /* \"#utility.yul\":6486:6493   */\n      dup6\n        /* \"#utility.yul\":6482:6505   */\n      sub\n        /* \"#utility.yul\":6478:6510   */\n      slt\n        /* \"#utility.yul\":6475:6594   */\n      iszero\n      tag_347\n      jumpi\n        /* \"#utility.yul\":6513:6592   */\n      tag_348\n      tag_198\n      jump\t// in\n    tag_348:\n        /* \"#utility.yul\":6475:6594   */\n    tag_347:\n        /* \"#utility.yul\":6633:6634   */\n      0x00\n        /* \"#utility.yul\":6658:6711   */\n      tag_349\n        /* \"#utility.yul\":6703:6710   */\n      dup6\n        /* \"#utility.yul\":6694:6700   */\n      dup3\n        /* \"#utility.yul\":6683:6692   */\n      dup7\n        /* \"#utility.yul\":6679:6701   */\n      add\n        /* \"#utility.yul\":6658:6711   */\n      tag_202\n      jump\t// in\n    tag_349:\n        /* \"#utility.yul\":6648:6711   */\n      swap3\n      pop\n        /* \"#utility.yul\":6604:6721   */\n      pop\n        /* \"#utility.yul\":6760:6762   */\n      0x20\n        /* \"#utility.yul\":6786:6839   */\n      tag_350\n        /* \"#utility.yul\":6831:6838   */\n      dup6\n        /* \"#utility.yul\":6822:6828   */\n      dup3\n        /* \"#utility.yul\":6811:6820   */\n      dup7\n        /* \"#utility.yul\":6807:6829   */\n      add\n        /* \"#utility.yul\":6786:6839   */\n      tag_202\n      jump\t// in\n    tag_350:\n        /* \"#utility.yul\":6776:6839   */\n      swap2\n      pop\n        /* \"#utility.yul\":6731:6849   */\n      pop\n        /* \"#utility.yul\":6382:6856   */\n      swap3\n      pop\n      swap3\n      swap1\n      pop\n      jump\t// out\n        /* \"#utility.yul\":6862:6952   */\n    tag_213:\n        /* \"#utility.yul\":6896:6903   */\n      0x00\n        /* \"#utility.yul\":6939:6944   */\n      dup2\n        /* \"#utility.yul\":6932:6945   */\n      iszero\n        /* \"#utility.yul\":6925:6946   */\n      iszero\n        /* \"#utility.yul\":6914:6946   */\n      swap1\n      pop\n        /* \"#utility.yul\":6862:6952   */\n      swap2\n      swap1\n      pop\n      jump\t// out\n        /* \"#utility.yul\":6958:7067   */\n    tag_214:\n        /* \"#utility.yul\":7039:7060   */\n      tag_353\n        /* \"#utility.yul\":7054:7059   */\n      dup2\n        /* \"#utility.yul\":7039:7060   */\n      tag_213\n      jump\t// in\n    tag_353:\n        /* \"#utility.yul\":7034:7037   */\n      dup3\n        /* \"#utility.yul\":7027:7061   */\n      mstore\n        /* \"#utility.yul\":6958:7067   */\n      pop\n      pop\n      jump\t// out\n        /* \"#utility.yul\":7073:7172   */\n    tag_215:\n        /* \"#utility.yul\":7125:7131   */\n      0x00\n        /* \"#utility.yul\":7159:7164   */\n      dup2\n        /* \"#utility.yul\":7153:7165   */\n      mload\n        /* \"#utility.yul\":7143:7165   */\n      swap1\n      pop\n        /* \"#utility.yul\":7073:7172   */\n      swap2\n      swap1\n      pop\n      jump\t// out\n        /* \"#utility.yul\":7178:7347   */\n    tag_216:\n        /* \"#utility.yul\":7262:7273   */\n      0x00\n        /* \"#utility.yul\":7296:7302   */\n      dup3\n        /* \"#utility.yul\":7291:7294   */\n      dup3\n        /* \"#utility.yul\":7284:7303   */\n      mstore\n        /* \"#utility.yul\":7336:7340   */\n      0x20\n        /* \"#utility.yul\":7331:7334   */\n      dup3\n        /* \"#utility.yul\":7327:7341   */\n      add\n        /* \"#utility.yul\":7312:7341   */\n      swap1\n      pop\n        /* \"#utility.yul\":7178:7347   */\n      swap3\n      swap2\n      pop\n      pop\n      jump\t// out\n        /* \"#utility.yul\":7353:7492   */\n    tag_217:\n        /* \"#utility.yul\":7442:7448   */\n      dup3\n        /* \"#utility.yul\":7437:7440   */\n      dup2\n        /* \"#utility.yul\":7432:7435   */\n      dup4\n        /* \"#utility.yul\":7426:7449   */\n      mcopy\n        /* \"#utility.yul\":7483:7484   */\n      0x00\n        /* \"#utility.yul\":7474:7480   */\n      dup4\n        /* \"#utility.yul\":7469:7472   */\n      dup4\n        /* \"#utility.yul\":7465:7481   */\n      add\n        /* \"#utility.yul\":7458:7485   */\n      mstore\n        /* \"#utility.yul\":7353:7492   */\n      pop\n      pop\n      pop\n      jump\t// out\n        /* \"#utility.yul\":7498:7875   */\n    tag_218:\n        /* \"#utility.yul\":7586:7589   */\n      0x00\n        /* \"#utility.yul\":7614:7653   */\n      tag_358\n        /* \"#utility.yul\":7647:7652   */\n      dup3\n        /* \"#utility.yul\":7614:7653   */\n      tag_215\n      jump\t// in\n    tag_358:\n        /* \"#utility.yul\":7669:7740   */\n      tag_359\n        /* \"#utility.yul\":7733:7739   */\n      dup2\n        /* \"#utility.yul\":7728:7731   */\n      dup6\n        /* \"#utility.yul\":7669:7740   */\n      tag_216\n      jump\t// in\n    tag_359:\n        /* \"#utility.yul\":7662:7740   */\n      swap4\n      pop\n        /* \"#utility.yul\":7749:7814   */\n      tag_360\n        /* \"#utility.yul\":7807:7813   */\n      dup2\n        /* \"#utility.yul\":7802:7805   */\n      dup6\n        /* \"#utility.yul\":7795:7799   */\n      0x20\n        /* \"#utility.yul\":7788:7793   */\n      dup7\n        /* \"#utility.yul\":7784:7800   */\n      add\n        /* \"#utility.yul\":7749:7814   */\n      tag_217\n      jump\t// in\n    tag_360:\n        /* \"#utility.yul\":7839:7868   */\n      tag_361\n        /* \"#utility.yul\":7861:7867   */\n      dup2\n        /* \"#utility.yul\":7839:7868   */\n      tag_205\n      jump\t// in\n    tag_361:\n        /* \"#utility.yul\":7834:7837   */\n      dup5\n        /* \"#utility.yul\":7830:7869   */\n      add\n        /* \"#utility.yul\":7823:7869   */\n      swap2\n      pop\n        /* \"#utility.yul\":7590:7875   */\n      pop\n        /* \"#utility.yul\":7498:7875   */\n      swap3\n      swap2\n      pop\n      pop\n      jump\t// out\n        /* \"#utility.yul\":7881:8402   */\n    tag_41:\n        /* \"#utility.yul\":8044:8048   */\n      0x00\n        /* \"#utility.yul\":8082:8084   */\n      0x60\n        /* \"#utility.yul\":8071:8080   */\n      dup3\n        /* \"#utility.yul\":8067:8085   */\n      add\n        /* \"#utility.yul\":8059:8085   */\n      swap1\n      pop\n        /* \"#utility.yul\":8095:8160   */\n      tag_363\n        /* \"#utility.yul\":8157:8158   */\n      0x00\n        /* \"#utility.yul\":8146:8155   */\n      dup4\n        /* \"#utility.yul\":8142:8159   */\n      add\n        /* \"#utility.yul\":8133:8139   */\n      dup7\n        /* \"#utility.yul\":8095:8160   */\n      tag_214\n      jump\t// in\n    tag_363:\n        /* \"#utility.yul\":8170:8242   */\n      tag_364\n        /* \"#utility.yul\":8238:8240   */\n      0x20\n        /* \"#utility.yul\":8227:8236   */\n      dup4\n        /* \"#utility.yul\":8223:8241   */\n      add\n        /* \"#utility.yul\":8214:8220   */\n      dup6\n        /* \"#utility.yul\":8170:8242   */\n      tag_194\n      jump\t// in\n    tag_364:\n        /* \"#utility.yul\":8289:8298   */\n      dup2\n        /* \"#utility.yul\":8283:8287   */\n      dup2\n        /* \"#utility.yul\":8279:8299   */\n      sub\n        /* \"#utility.yul\":8274:8276   */\n      0x40\n        /* \"#utility.yul\":8263:8272   */\n      dup4\n        /* \"#utility.yul\":8259:8277   */\n      add\n        /* \"#utility.yul\":8252:8300   */\n      mstore\n        /* \"#utility.yul\":8317:8395   */\n      tag_365\n        /* \"#utility.yul\":8390:8394   */\n      dup2\n        /* \"#utility.yul\":8381:8387   */\n      dup5\n        /* \"#utility.yul\":8317:8395   */\n      tag_218\n      jump\t// in\n    tag_365:\n        /* \"#utility.yul\":8309:8395   */\n      swap1\n      pop\n        /* \"#utility.yul\":7881:8402   */\n      swap5\n      swap4\n      pop\n      pop\n      pop\n      pop\n      jump\t// out\n        /* \"#utility.yul\":8408:9062   */\n    tag_44:\n        /* \"#utility.yul\":8486:8492   */\n      0x00\n        /* \"#utility.yul\":8494:8500   */\n      dup1\n        /* \"#utility.yul\":8543:8545   */\n      0x40\n        /* \"#utility.yul\":8531:8540   */\n      dup4\n        /* \"#utility.yul\":8522:8529   */\n      dup6\n        /* \"#utility.yul\":8518:8541   */\n      sub\n        /* \"#utility.yul\":8514:8546   */\n      slt\n        /* \"#utility.yul\":8511:8630   */\n      iszero\n      tag_367\n      jumpi\n        /* \"#utility.yul\":8549:8628   */\n      tag_368\n      tag_198\n      jump\t// in\n    tag_368:\n        /* \"#utility.yul\":8511:8630   */\n    tag_367:\n        /* \"#utility.yul\":8669:8670   */\n      0x00\n        /* \"#utility.yul\":8694:8747   */\n      tag_369\n        /* \"#utility.yul\":8739:8746   */\n      dup6\n        /* \"#utility.yul\":8730:8736   */\n      dup3\n        /* \"#utility.yul\":8719:8728   */\n      dup7\n        /* \"#utility.yul\":8715:8737   */\n      add\n        /* \"#utility.yul\":8694:8747   */\n      tag_202\n      jump\t// in\n    tag_369:\n        /* \"#utility.yul\":8684:8747   */\n      swap3\n      pop\n        /* \"#utility.yul\":8640:8757   */\n      pop\n        /* \"#utility.yul\":8824:8826   */\n      0x20\n        /* \"#utility.yul\":8813:8822   */\n      dup4\n        /* \"#utility.yul\":8809:8827   */\n      add\n        /* \"#utility.yul\":8796:8828   */\n      calldataload\n        /* \"#utility.yul\":8855:8873   */\n      0xffffffffffffffff\n        /* \"#utility.yul\":8847:8853   */\n      dup2\n        /* \"#utility.yul\":8844:8874   */\n      gt\n        /* \"#utility.yul\":8841:8958   */\n      iszero\n      tag_370\n      jumpi\n        /* \"#utility.yul\":8877:8956   */\n      tag_371\n      tag_199\n      jump\t// in\n    tag_371:\n        /* \"#utility.yul\":8841:8958   */\n    tag_370:\n        /* \"#utility.yul\":8982:9045   */\n      tag_372\n        /* \"#utility.yul\":9037:9044   */\n      dup6\n        /* \"#utility.yul\":9028:9034   */\n      dup3\n        /* \"#utility.yul\":9017:9026   */\n      dup7\n        /* \"#utility.yul\":9013:9035   */\n      add\n        /* \"#utility.yul\":8982:9045   */\n      tag_212\n      jump\t// in\n    tag_372:\n        /* \"#utility.yul\":8972:9045   */\n      swap2\n      pop\n        /* \"#utility.yul\":8767:9055   */\n      pop\n        /* \"#utility.yul\":8408:9062   */\n      swap3\n      pop\n      swap3\n      swap1\n      pop\n      jump\t// out\n        /* \"#utility.yul\":9068:9381   */\n    tag_47:\n        /* \"#utility.yul\":9181:9185   */\n      0x00\n        /* \"#utility.yul\":9219:9221   */\n      0x20\n        /* \"#utility.yul\":9208:9217   */\n      dup3\n        /* \"#utility.yul\":9204:9222   */\n      add\n        /* \"#utility.yul\":9196:9222   */\n      swap1\n      pop\n        /* \"#utility.yul\":9268:9277   */\n      dup2\n        /* \"#utility.yul\":9262:9266   */\n      dup2\n        /* \"#utility.yul\":9258:9278   */\n      sub\n        /* \"#utility.yul\":9254:9255   */\n      0x00\n        /* \"#utility.yul\":9243:9252   */\n      dup4\n        /* \"#utility.yul\":9239:9256   */\n      add\n        /* \"#utility.yul\":9232:9279   */\n      mstore\n        /* \"#utility.yul\":9296:9374   */\n      tag_374\n        /* \"#utility.yul\":9369:9373   */\n      dup2\n        /* \"#utility.yul\":9360:9366   */\n      dup5\n        /* \"#utility.yul\":9296:9374   */\n      tag_218\n      jump\t// in\n    tag_374:\n        /* \"#utility.yul\":9288:9374   */\n      swap1\n      pop\n        /* \"#utility.yul\":9068:9381   */\n      swap3\n      swap2\n      pop\n      pop\n      jump\t// out\n        /* \"#utility.yul\":9387:9561   */\n    tag_219:\n        /* \"#utility.yul\":9527:9553   */\n      0x50617469656e74207265636f7264206e6f7420666f756e640000000000000000\n        /* \"#utility.yul\":9523:9524   */\n      0x00\n        /* \"#utility.yul\":9515:9521   */\n      dup3\n        /* \"#utility.yul\":9511:9525   */\n      add\n        /* \"#utility.yul\":9504:9554   */\n      mstore\n        /* \"#utility.yul\":9387:9561   */\n      pop\n      jump\t// out\n        /* \"#utility.yul\":9567:9933   */\n    tag_220:\n        /* \"#utility.yul\":9709:9712   */\n      0x00\n        /* \"#utility.yul\":9730:9797   */\n      tag_377\n        /* \"#utility.yul\":9794:9796   */\n      0x18\n        /* \"#utility.yul\":9789:9792   */\n      dup4\n        /* \"#utility.yul\":9730:9797   */\n      tag_216\n      jump\t// in\n    tag_377:\n        /* \"#utility.yul\":9723:9797   */\n      swap2\n      pop\n        /* \"#utility.yul\":9806:9899   */\n      tag_378\n        /* \"#utility.yul\":9895:9898   */\n      dup3\n        /* \"#utility.yul\":9806:9899   */\n      tag_219\n      jump\t// in\n    tag_378:\n        /* \"#utility.yul\":9924:9926   */\n      0x20\n        /* \"#utility.yul\":9919:9922   */\n      dup3\n        /* \"#utility.yul\":9915:9927   */\n      add\n        /* \"#utility.yul\":9908:9927   */\n      swap1\n      pop\n        /* \"#utility.yul\":9567:9933   */\n      swap2\n      swap1\n      pop\n      jump\t// out\n        /* \"#utility.yul\":9939:10358   */\n    tag_54:\n        /* \"#utility.yul\":10105:10109   */\n      0x00\n        /* \"#utility.yul\":10143:10145   */\n      0x20\n        /* \"#utility.yul\":10132:10141   */\n      dup3\n        /* \"#utility.yul\":10128:10146   */\n      add\n        /* \"#utility.yul\":10120:10146   */\n      swap1\n      pop\n        /* \"#utility.yul\":10192:10201   */\n      dup2\n        /* \"#utility.yul\":10186:10190   */\n      dup2\n        /* \"#utility.yul\":10182:10202   */\n      sub\n        /* \"#utility.yul\":10178:10179   */\n      0x00\n        /* \"#utility.yul\":10167:10176   */\n      dup4\n        /* \"#utility.yul\":10163:10180   */\n      add\n        /* \"#utility.yul\":10156:10203   */\n      mstore\n        /* \"#utility.yul\":10220:10351   */\n      tag_380\n        /* \"#utility.yul\":10346:10350   */\n      dup2\n        /* \"#utility.yul\":10220:10351   */\n      tag_220\n      jump\t// in\n    tag_380:\n        /* \"#utility.yul\":10212:10351   */\n      swap1\n      pop\n        /* \"#utility.yul\":9939:10358   */\n      swap2\n      swap1\n      pop\n      jump\t// out\n        /* \"#utility.yul\":10364:10539   */\n    tag_221:\n        /* \"#utility.yul\":10504:10531   */\n      0x4e6f20656d657267656e63792061636365737320666f756e6400000000000000\n        /* \"#utility.yul\":10500:10501   */\n      0x00\n        /* \"#utility.yul\":10492:10498   */\n      dup3\n        /* \"#utility.yul\":10488:10502   */\n      add\n        /* \"#utility.yul\":10481:10532   */\n      mstore\n        /* \"#utility.yul\":10364:10539   */\n      pop\n      jump\t// out\n        /* \"#utility.yul\":10545:10911   */\n    tag_222:\n        /* \"#utility.yul\":10687:10690   */\n      0x00\n        /* \"#utility.yul\":10708:10775   */\n      tag_383\n        /* \"#utility.yul\":10772:10774   */\n      0x19\n        /* \"#utility.yul\":10767:10770   */\n      dup4\n        /* \"#utility.yul\":10708:10775   */\n      tag_216\n      jump\t// in\n    tag_383:\n        /* \"#utility.yul\":10701:10775   */\n      swap2\n      pop\n        /* \"#utility.yul\":10784:10877   */\n      tag_384\n        /* \"#utility.yul\":10873:10876   */\n      dup3\n        /* \"#utility.yul\":10784:10877   */\n      tag_221\n      jump\t// in\n    tag_384:\n        /* \"#utility.yul\":10902:10904   */\n      0x20\n        /* \"#utility.yul\":10897:10900   */\n      dup3\n        /* \"#utility.yul\":10893:10905   */\n      add\n        /* \"#utility.yul\":10886:10905   */\n      swap1\n      pop\n        /* \"#utility.yul\":10545:10911   */\n      swap2\n      swap1\n      pop\n      jump\t// out\n        /* \"#utility.yul\":10917:11336   */\n    tag_58:\n        /* \"#utility.yul\":11083:11087   */\n      0x00\n        /* \"#utility.yul\":11121:11123   */\n      0x20\n        /* \"#utility.yul\":11110:11119   */\n      dup3\n        /* \"#utility.yul\":11106:11124   */\n      add\n        /* \"#utility.yul\":11098:11124   */\n      swap1\n      pop\n        /* \"#utility.yul\":11170:11179   */\n      dup2\n        /* \"#utility.yul\":11164:11168   */\n      dup2\n        /* \"#utility.yul\":11160:11180   */\n      sub\n        /* \"#utility.yul\":11156:11157   */\n      0x00\n        /* \"#utility.yul\":11145:11154   */\n      dup4\n        /* \"#utility.yul\":11141:11158   */\n      add\n        /* \"#utility.yul\":11134:11181   */\n      mstore\n        /* \"#utility.yul\":11198:11329   */\n      tag_386\n        /* \"#utility.yul\":11324:11328   */\n      dup2\n        /* \"#utility.yul\":11198:11329   */\n      tag_222\n      jump\t// in\n    tag_386:\n        /* \"#utility.yul\":11190:11329   */\n      swap1\n      pop\n        /* \"#utility.yul\":10917:11336   */\n      swap2\n      swap1\n      pop\n      jump\t// out\n        /* \"#utility.yul\":11342:11460   */\n    tag_223:\n        /* \"#utility.yul\":11429:11453   */\n      tag_388\n        /* \"#utility.yul\":11447:11452   */\n      dup2\n        /* \"#utility.yul\":11429:11453   */\n      tag_200\n      jump\t// in\n    tag_388:\n        /* \"#utility.yul\":11424:11427   */\n      dup3\n        /* \"#utility.yul\":11417:11454   */\n      mstore\n        /* \"#utility.yul\":11342:11460   */\n      pop\n      pop\n      jump\t// out\n        /* \"#utility.yul\":11466:11632   */\n    tag_224:\n        /* \"#utility.yul\":11606:11624   */\n      0x7265766f6b655f656d657267656e637900000000000000000000000000000000\n        /* \"#utility.yul\":11602:11603   */\n      0x00\n        /* \"#utility.yul\":11594:11600   */\n      dup3\n        /* \"#utility.yul\":11590:11604   */\n      add\n        /* \"#utility.yul\":11583:11625   */\n      mstore\n        /* \"#utility.yul\":11466:11632   */\n      pop\n      jump\t// out\n        /* \"#utility.yul\":11638:12004   */\n    tag_225:\n        /* \"#utility.yul\":11780:11783   */\n      0x00\n        /* \"#utility.yul\":11801:11868   */\n      tag_391\n        /* \"#utility.yul\":11865:11867   */\n      0x10\n        /* \"#utility.yul\":11860:11863   */\n      dup4\n        /* \"#utility.yul\":11801:11868   */\n      tag_216\n      jump\t// in\n    tag_391:\n        /* \"#utility.yul\":11794:11868   */\n      swap2\n      pop\n        /* \"#utility.yul\":11877:11970   */\n      tag_392\n        /* \"#utility.yul\":11966:11969   */\n      dup3\n        /* \"#utility.yul\":11877:11970   */\n      tag_224\n      jump\t// in\n    tag_392:\n        /* \"#utility.yul\":11995:11997   */\n      0x20\n        /* \"#utility.yul\":11990:11993   */\n      dup3\n        /* \"#utility.yul\":11986:11998   */\n      add\n        /* \"#utility.yul\":11979:11998   */\n      swap1\n      pop\n        /* \"#utility.yul\":11638:12004   */\n      swap2\n      swap1\n      pop\n      jump\t// out\n        /* \"#utility.yul\":12010:12184   */\n    tag_226:\n        /* \"#utility.yul\":12150:12176   */\n      0x456d657267656e637920616363657373207265766f6b65640000000000000000\n        /* \"#utility.yul\":12146:12147   */\n      0x00\n        /* \"#utility.yul\":12138:12144   */\n      dup3\n        /* \"#utility.yul\":12134:12148   */\n      add\n        /* \"#utility.yul\":12127:12177   */\n      mstore\n        /* \"#utility.yul\":12010:12184   */\n      pop\n      jump\t// out\n        /* \"#utility.yul\":12190:12556   */\n    tag_227:\n        /* \"#utility.yul\":12332:12335   */\n      0x00\n        /* \"#utility.yul\":12353:12420   */\n      tag_395\n        /* \"#utility.yul\":12417:12419   */\n      0x18\n        /* \"#utility.yul\":12412:12415   */\n      dup4\n        /* \"#utility.yul\":12353:12420   */\n      tag_216\n      jump\t// in\n    tag_395:\n        /* \"#utility.yul\":12346:12420   */\n      swap2\n      pop\n        /* \"#utility.yul\":12429:12522   */\n      tag_396\n        /* \"#utility.yul\":12518:12521   */\n      dup3\n        /* \"#utility.yul\":12429:12522   */\n      tag_226\n      jump\t// in\n    tag_396:\n        /* \"#utility.yul\":12547:12549   */\n      0x20\n        /* \"#utility.yul\":12542:12545   */\n      dup3\n        /* \"#utility.yul\":12538:12550   */\n      add\n        /* \"#utility.yul\":12531:12550   */\n      swap1\n      pop\n        /* \"#utility.yul\":12190:12556   */\n      swap2\n      swap1\n      pop\n      jump\t// out\n        /* \"#utility.yul\":12562:13608   */\n    tag_62:\n        /* \"#utility.yul\":12907:12911   */\n      0x00\n        /* \"#utility.yul\":12945:12948   */\n      0xa0\n        /* \"#utility.yul\":12934:12943   */\n      dup3\n        /* \"#utility.yul\":12930:12949   */\n      add\n        /* \"#utility.yul\":12922:12949   */\n      swap1\n      pop\n        /* \"#utility.yul\":12959:13030   */\n      tag_398\n        /* \"#utility.yul\":13027:13028   */\n      0x00\n        /* \"#utility.yul\":13016:13025   */\n      dup4\n        /* \"#utility.yul\":13012:13029   */\n      add\n        /* \"#utility.yul\":13003:13009   */\n      dup7\n        /* \"#utility.yul\":12959:13030   */\n      tag_223\n      jump\t// in\n    tag_398:\n        /* \"#utility.yul\":13040:13112   */\n      tag_399\n        /* \"#utility.yul\":13108:13110   */\n      0x20\n        /* \"#utility.yul\":13097:13106   */\n      dup4\n        /* \"#utility.yul\":13093:13111   */\n      add\n        /* \"#utility.yul\":13084:13090   */\n      dup6\n        /* \"#utility.yul\":13040:13112   */\n      tag_223\n      jump\t// in\n    tag_399:\n        /* \"#utility.yul\":13159:13168   */\n      dup2\n        /* \"#utility.yul\":13153:13157   */\n      dup2\n        /* \"#utility.yul\":13149:13169   */\n      sub\n        /* \"#utility.yul\":13144:13146   */\n      0x40\n        /* \"#utility.yul\":13133:13142   */\n      dup4\n        /* \"#utility.yul\":13129:13147   */\n      add\n        /* \"#utility.yul\":13122:13170   */\n      mstore\n        /* \"#utility.yul\":13187:13318   */\n      tag_400\n        /* \"#utility.yul\":13313:13317   */\n      dup2\n        /* \"#utility.yul\":13187:13318   */\n      tag_225\n      jump\t// in\n    tag_400:\n        /* \"#utility.yul\":13179:13318   */\n      swap1\n      pop\n        /* \"#utility.yul\":13365:13374   */\n      dup2\n        /* \"#utility.yul\":13359:13363   */\n      dup2\n        /* \"#utility.yul\":13355:13375   */\n      sub\n        /* \"#utility.yul\":13350:13352   */\n      0x60\n        /* \"#utility.yul\":13339:13348   */\n      dup4\n        /* \"#utility.yul\":13335:13353   */\n      add\n        /* \"#utility.yul\":13328:13376   */\n      mstore\n        /* \"#utility.yul\":13393:13524   */\n      tag_401\n        /* \"#utility.yul\":13519:13523   */\n      dup2\n        /* \"#utility.yul\":13393:13524   */\n      tag_227\n      jump\t// in\n    tag_401:\n        /* \"#utility.yul\":13385:13524   */\n      swap1\n      pop\n        /* \"#utility.yul\":13534:13601   */\n      tag_402\n        /* \"#utility.yul\":13596:13599   */\n      0x80\n        /* \"#utility.yul\":13585:13594   */\n      dup4\n        /* \"#utility.yul\":13581:13600   */\n      add\n        /* \"#utility.yul\":13572:13578   */\n      dup5\n        /* \"#utility.yul\":13534:13601   */\n      tag_214\n      jump\t// in\n    tag_402:\n        /* \"#utility.yul\":12562:13608   */\n      swap5\n      swap4\n      pop\n      pop\n      pop\n      pop\n      jump\t// out\n        /* \"#utility.yul\":13614:14037   */\n    tag_68:\n        /* \"#utility.yul\":13755:13759   */\n      0x00\n        /* \"#utility.yul\":13793:13795   */\n      0x40\n        /* \"#utility.yul\":13782:13791   */\n      dup3\n        /* \"#utility.yul\":13778:13796   */\n      add\n        /* \"#utility.yul\":13770:13796   */\n      swap1\n      pop\n        /* \"#utility.yul\":13806:13877   */\n      tag_404\n        /* \"#utility.yul\":13874:13875   */\n      0x00\n        /* \"#utility.yul\":13863:13872   */\n      dup4\n        /* \"#utility.yul\":13859:13876   */\n      add\n        /* \"#utility.yul\":13850:13856   */\n      dup6\n        /* \"#utility.yul\":13806:13877   */\n      tag_223\n      jump\t// in\n    tag_404:\n        /* \"#utility.yul\":13924:13933   */\n      dup2\n        /* \"#utility.yul\":13918:13922   */\n      dup2\n        /* \"#utility.yul\":13914:13934   */\n      sub\n        /* \"#utility.yul\":13909:13911   */\n      0x20\n        /* \"#utility.yul\":13898:13907   */\n      dup4\n        /* \"#utility.yul\":13894:13912   */\n      add\n        /* \"#utility.yul\":13887:13935   */\n      mstore\n        /* \"#utility.yul\":13952:14030   */\n      tag_405\n        /* \"#utility.yul\":14025:14029   */\n      dup2\n        /* \"#utility.yul\":14016:14022   */\n      dup5\n        /* \"#utility.yul\":13952:14030   */\n      tag_218\n      jump\t// in\n    tag_405:\n        /* \"#utility.yul\":13944:14030   */\n      swap1\n      pop\n        /* \"#utility.yul\":13614:14037   */\n      swap4\n      swap3\n      pop\n      pop\n      pop\n      jump\t// out\n        /* \"#utility.yul\":14043:14159   */\n    tag_228:\n        /* \"#utility.yul\":14113:14134   */\n      tag_407\n        /* \"#utility.yul\":14128:14133   */\n      dup2\n        /* \"#utility.yul\":14113:14134   */\n      tag_213\n      jump\t// in\n    tag_407:\n        /* \"#utility.yul\":14106:14111   */\n      dup2\n        /* \"#utility.yul\":14103:14135   */\n      eq\n        /* \"#utility.yul\":14093:14153   */\n      tag_408\n      jumpi\n        /* \"#utility.yul\":14149:14150   */\n      0x00\n        /* \"#utility.yul\":14146:14147   */\n      dup1\n        /* \"#utility.yul\":14139:14151   */\n      revert\n        /* \"#utility.yul\":14093:14153   */\n    tag_408:\n        /* \"#utility.yul\":14043:14159   */\n      pop\n      jump\t// out\n        /* \"#utility.yul\":14165:14302   */\n    tag_229:\n        /* \"#utility.yul\":14219:14224   */\n      0x00\n        /* \"#utility.yul\":14250:14256   */\n      dup2\n        /* \"#utility.yul\":14244:14257   */\n      mload\n        /* \"#utility.yul\":14235:14257   */\n      swap1\n      pop\n        /* \"#utility.yul\":14266:14296   */\n      tag_410\n        /* \"#utility.yul\":14290:14295   */\n      dup2\n        /* \"#utility.yul\":14266:14296   */\n      tag_228\n      jump\t// in\n    tag_410:\n        /* \"#utility.yul\":14165:14302   */\n      swap3\n      swap2\n      pop\n      pop\n      jump\t// out\n        /* \"#utility.yul\":14308:14653   */\n    tag_72:\n        /* \"#utility.yul\":14375:14381   */\n      0x00\n        /* \"#utility.yul\":14424:14426   */\n      0x20\n        /* \"#utility.yul\":14412:14421   */\n      dup3\n        /* \"#utility.yul\":14403:14410   */\n      dup5\n        /* \"#utility.yul\":14399:14422   */\n      sub\n        /* \"#utility.yul\":14395:14427   */\n      slt\n        /* \"#utility.yul\":14392:14511   */\n      iszero\n      tag_412\n      jumpi\n        /* \"#utility.yul\":14430:14509   */\n      tag_413\n      tag_198\n      jump\t// in\n    tag_413:\n        /* \"#utility.yul\":14392:14511   */\n    tag_412:\n        /* \"#utility.yul\":14550:14551   */\n      0x00\n        /* \"#utility.yul\":14575:14636   */\n      tag_414\n        /* \"#utility.yul\":14628:14635   */\n      dup5\n        /* \"#utility.yul\":14619:14625   */\n      dup3\n        /* \"#utility.yul\":14608:14617   */\n      dup6\n        /* \"#utility.yul\":14604:14626   */\n      add\n        /* \"#utility.yul\":14575:14636   */\n      tag_229\n      jump\t// in\n    tag_414:\n        /* \"#utility.yul\":14565:14636   */\n      swap2\n      pop\n        /* \"#utility.yul\":14521:14646   */\n      pop\n        /* \"#utility.yul\":14308:14653   */\n      swap3\n      swap2\n      pop\n      pop\n      jump\t// out\n        /* \"#utility.yul\":14659:14828   */\n    tag_230:\n        /* \"#utility.yul\":14799:14820   */\n      0x556e617574686f72697a65642061636365737300000000000000000000000000\n        /* \"#utility.yul\":14795:14796   */\n      0x00\n        /* \"#utility.yul\":14787:14793   */\n      dup3\n        /* \"#utility.yul\":14783:14797   */\n      add\n        /* \"#utility.yul\":14776:14821   */\n      mstore\n        /* \"#utility.yul\":14659:14828   */\n      pop\n      jump\t// out\n        /* \"#utility.yul\":14834:15200   */\n    tag_231:\n        /* \"#utility.yul\":14976:14979   */\n      0x00\n        /* \"#utility.yul\":14997:15064   */\n      tag_417\n        /* \"#utility.yul\":15061:15063   */\n      0x13\n        /* \"#utility.yul\":15056:15059   */\n      dup4\n        /* \"#utility.yul\":14997:15064   */\n      tag_216\n      jump\t// in\n    tag_417:\n        /* \"#utility.yul\":14990:15064   */\n      swap2\n      pop\n        /* \"#utility.yul\":15073:15166   */\n      tag_418\n        /* \"#utility.yul\":15162:15165   */\n      dup3\n        /* \"#utility.yul\":15073:15166   */\n      tag_230\n      jump\t// in\n    tag_418:\n        /* \"#utility.yul\":15191:15193   */\n      0x20\n        /* \"#utility.yul\":15186:15189   */\n      dup3\n        /* \"#utility.yul\":15182:15194   */\n      add\n        /* \"#utility.yul\":15175:15194   */\n      swap1\n      pop\n        /* \"#utility.yul\":14834:15200   */\n      swap2\n      swap1\n      pop\n      jump\t// out\n        /* \"#utility.yul\":15206:15625   */\n    tag_75:\n        /* \"#utility.yul\":15372:15376   */\n      0x00\n        /* \"#utility.yul\":15410:15412   */\n      0x20\n        /* \"#utility.yul\":15399:15408   */\n      dup3\n        /* \"#utility.yul\":15395:15413   */\n      add\n        /* \"#utility.yul\":15387:15413   */\n      swap1\n      pop\n        /* \"#utility.yul\":15459:15468   */\n      dup2\n        /* \"#utility.yul\":15453:15457   */\n      dup2\n        /* \"#utility.yul\":15449:15469   */\n      sub\n        /* \"#utility.yul\":15445:15446   */\n      0x00\n        /* \"#utility.yul\":15434:15443   */\n      dup4\n        /* \"#utility.yul\":15430:15447   */\n      add\n        /* \"#utility.yul\":15423:15470   */\n      mstore\n        /* \"#utility.yul\":15487:15618   */\n      tag_420\n        /* \"#utility.yul\":15613:15617   */\n      dup2\n        /* \"#utility.yul\":15487:15618   */\n      tag_231\n      jump\t// in\n    tag_420:\n        /* \"#utility.yul\":15479:15618   */\n      swap1\n      pop\n        /* \"#utility.yul\":15206:15625   */\n      swap2\n      swap1\n      pop\n      jump\t// out\n        /* \"#utility.yul\":15631:15810   */\n    tag_232:\n        /* \"#utility.yul\":15771:15802   */\n      0x50617469656e74207265636f726420616c726561647920657869737473000000\n        /* \"#utility.yul\":15767:15768   */\n      0x00\n        /* \"#utility.yul\":15759:15765   */\n      dup3\n        /* \"#utility.yul\":15755:15769   */\n      add\n        /* \"#utility.yul\":15748:15803   */\n      mstore\n        /* \"#utility.yul\":15631:15810   */\n      pop\n      jump\t// out\n        /* \"#utility.yul\":15816:16182   */\n    tag_233:\n        /* \"#utility.yul\":15958:15961   */\n      0x00\n        /* \"#utility.yul\":15979:16046   */\n      tag_423\n        /* \"#utility.yul\":16043:16045   */\n      0x1d\n        /* \"#utility.yul\":16038:16041   */\n      dup4\n        /* \"#utility.yul\":15979:16046   */\n      tag_216\n      jump\t// in\n    tag_423:\n        /* \"#utility.yul\":15972:16046   */\n      swap2\n      pop\n        /* \"#utility.yul\":16055:16148   */\n      tag_424\n        /* \"#utility.yul\":16144:16147   */\n      dup3\n        /* \"#utility.yul\":16055:16148   */\n      tag_232\n      jump\t// in\n    tag_424:\n        /* \"#utility.yul\":16173:16175   */\n      0x20\n        /* \"#utility.yul\":16168:16171   */\n      dup3\n        /* \"#utility.yul\":16164:16176   */\n      add\n        /* \"#utility.yul\":16157:16176   */\n      swap1\n      pop\n        /* \"#utility.yul\":15816:16182   */\n      swap2\n      swap1\n      pop\n      jump\t// out\n        /* \"#utility.yul\":16188:16607   */\n    tag_79:\n        /* \"#utility.yul\":16354:16358   */\n      0x00\n        /* \"#utility.yul\":16392:16394   */\n      0x20\n        /* \"#utility.yul\":16381:16390   */\n      dup3\n        /* \"#utility.yul\":16377:16395   */\n      add\n        /* \"#utility.yul\":16369:16395   */\n      swap1\n      pop\n        /* \"#utility.yul\":16441:16450   */\n      dup2\n        /* \"#utility.yul\":16435:16439   */\n      dup2\n        /* \"#utility.yul\":16431:16451   */\n      sub\n        /* \"#utility.yul\":16427:16428   */\n      0x00\n        /* \"#utility.yul\":16416:16425   */\n      dup4\n        /* \"#utility.yul\":16412:16429   */\n      add\n        /* \"#utility.yul\":16405:16452   */\n      mstore\n        /* \"#utility.yul\":16469:16600   */\n      tag_426\n        /* \"#utility.yul\":16595:16599   */\n      dup2\n        /* \"#utility.yul\":16469:16600   */\n      tag_233\n      jump\t// in\n    tag_426:\n        /* \"#utility.yul\":16461:16600   */\n      swap1\n      pop\n        /* \"#utility.yul\":16188:16607   */\n      swap2\n      swap1\n      pop\n      jump\t// out\n        /* \"#utility.yul\":16613:16776   */\n    tag_234:\n        /* \"#utility.yul\":16753:16768   */\n      0x6372656174655f7265636f726400000000000000000000000000000000000000\n        /* \"#utility.yul\":16749:16750   */\n      0x00\n        /* \"#utility.yul\":16741:16747   */\n      dup3\n        /* \"#utility.yul\":16737:16751   */\n      add\n        /* \"#utility.yul\":16730:16769   */\n      mstore\n        /* \"#utility.yul\":16613:16776   */\n      pop\n      jump\t// out\n        /* \"#utility.yul\":16782:17148   */\n    tag_235:\n        /* \"#utility.yul\":16924:16927   */\n      0x00\n        /* \"#utility.yul\":16945:17012   */\n      tag_429\n        /* \"#utility.yul\":17009:17011   */\n      0x0d\n        /* \"#utility.yul\":17004:17007   */\n      dup4\n        /* \"#utility.yul\":16945:17012   */\n      tag_216\n      jump\t// in\n    tag_429:\n        /* \"#utility.yul\":16938:17012   */\n      swap2\n      pop\n        /* \"#utility.yul\":17021:17114   */\n      tag_430\n        /* \"#utility.yul\":17110:17113   */\n      dup3\n        /* \"#utility.yul\":17021:17114   */\n      tag_234\n      jump\t// in\n    tag_430:\n        /* \"#utility.yul\":17139:17141   */\n      0x20\n        /* \"#utility.yul\":17134:17137   */\n      dup3\n        /* \"#utility.yul\":17130:17142   */\n      add\n        /* \"#utility.yul\":17123:17142   */\n      swap1\n      pop\n        /* \"#utility.yul\":16782:17148   */\n      swap2\n      swap1\n      pop\n      jump\t// out\n        /* \"#utility.yul\":17154:17330   */\n    tag_236:\n        /* \"#utility.yul\":17294:17322   */\n      0x4e65772070617469656e74207265636f72642063726561746564000000000000\n        /* \"#utility.yul\":17290:17291   */\n      0x00\n        /* \"#utility.yul\":17282:17288   */\n      dup3\n        /* \"#utility.yul\":17278:17292   */\n      add\n        /* \"#utility.yul\":17271:17323   */\n      mstore\n        /* \"#utility.yul\":17154:17330   */\n      pop\n      jump\t// out\n        /* \"#utility.yul\":17336:17702   */\n    tag_237:\n        /* \"#utility.yul\":17478:17481   */\n      0x00\n        /* \"#utility.yul\":17499:17566   */\n      tag_433\n        /* \"#utility.yul\":17563:17565   */\n      0x1a\n        /* \"#utility.yul\":17558:17561   */\n      dup4\n        /* \"#utility.yul\":17499:17566   */\n      tag_216\n      jump\t// in\n    tag_433:\n        /* \"#utility.yul\":17492:17566   */\n      swap2\n      pop\n        /* \"#utility.yul\":17575:17668   */\n      tag_434\n        /* \"#utility.yul\":17664:17667   */\n      dup3\n        /* \"#utility.yul\":17575:17668   */\n      tag_236\n      jump\t// in\n    tag_434:\n        /* \"#utility.yul\":17693:17695   */\n      0x20\n        /* \"#utility.yul\":17688:17691   */\n      dup3\n        /* \"#utility.yul\":17684:17696   */\n      add\n        /* \"#utility.yul\":17677:17696   */\n      swap1\n      pop\n        /* \"#utility.yul\":17336:17702   */\n      swap2\n      swap1\n      pop\n      jump\t// out\n        /* \"#utility.yul\":17708:18754   */\n    tag_81:\n        /* \"#utility.yul\":18053:18057   */\n      0x00\n        /* \"#utility.yul\":18091:18094   */\n      0xa0\n        /* \"#utility.yul\":18080:18089   */\n      dup3\n        /* \"#utility.yul\":18076:18095   */\n      add\n        /* \"#utility.yul\":18068:18095   */\n      swap1\n      pop\n        /* \"#utility.yul\":18105:18176   */\n      tag_436\n        /* \"#utility.yul\":18173:18174   */\n      0x00\n        /* \"#utility.yul\":18162:18171   */\n      dup4\n        /* \"#utility.yul\":18158:18175   */\n      add\n        /* \"#utility.yul\":18149:18155   */\n      dup7\n        /* \"#utility.yul\":18105:18176   */\n      tag_223\n      jump\t// in\n    tag_436:\n        /* \"#utility.yul\":18186:18258   */\n      tag_437\n        /* \"#utility.yul\":18254:18256   */\n      0x20\n        /* \"#utility.yul\":18243:18252   */\n      dup4\n        /* \"#utility.yul\":18239:18257   */\n      add\n        /* \"#utility.yul\":18230:18236   */\n      dup6\n        /* \"#utility.yul\":18186:18258   */\n      tag_223\n      jump\t// in\n    tag_437:\n        /* \"#utility.yul\":18305:18314   */\n      dup2\n        /* \"#utility.yul\":18299:18303   */\n      dup2\n        /* \"#utility.yul\":18295:18315   */\n      sub\n        /* \"#utility.yul\":18290:18292   */\n      0x40\n        /* \"#utility.yul\":18279:18288   */\n      dup4\n        /* \"#utility.yul\":18275:18293   */\n      add\n        /* \"#utility.yul\":18268:18316   */\n      mstore\n        /* \"#utility.yul\":18333:18464   */\n      tag_438\n        /* \"#utility.yul\":18459:18463   */\n      dup2\n        /* \"#utility.yul\":18333:18464   */\n      tag_235\n      jump\t// in\n    tag_438:\n        /* \"#utility.yul\":18325:18464   */\n      swap1\n      pop\n        /* \"#utility.yul\":18511:18520   */\n      dup2\n        /* \"#utility.yul\":18505:18509   */\n      dup2\n        /* \"#utility.yul\":18501:18521   */\n      sub\n        /* \"#utility.yul\":18496:18498   */\n      0x60\n        /* \"#utility.yul\":18485:18494   */\n      dup4\n        /* \"#utility.yul\":18481:18499   */\n      add\n        /* \"#utility.yul\":18474:18522   */\n      mstore\n        /* \"#utility.yul\":18539:18670   */\n      tag_439\n        /* \"#utility.yul\":18665:18669   */\n      dup2\n        /* \"#utility.yul\":18539:18670   */\n      tag_237\n      jump\t// in\n    tag_439:\n        /* \"#utility.yul\":18531:18670   */\n      swap1\n      pop\n        /* \"#utility.yul\":18680:18747   */\n      tag_440\n        /* \"#utility.yul\":18742:18745   */\n      0x80\n        /* \"#utility.yul\":18731:18740   */\n      dup4\n        /* \"#utility.yul\":18727:18746   */\n      add\n        /* \"#utility.yul\":18718:18724   */\n      dup5\n        /* \"#utility.yul\":18680:18747   */\n      tag_214\n      jump\t// in\n    tag_440:\n        /* \"#utility.yul\":17708:18754   */\n      swap5\n      swap4\n      pop\n      pop\n      pop\n      pop\n      jump\t// out\n        /* \"#utility.yul\":18760:18908   */\n    tag_238:\n        /* \"#utility.yul\":18862:18873   */\n      0x00\n        /* \"#utility.yul\":18899:18902   */\n      dup2\n        /* \"#utility.yul\":18884:18902   */\n      swap1\n      pop\n        /* \"#utility.yul\":18760:18908   */\n      swap3\n      swap2\n      pop\n      pop\n      jump\t// out\n        /* \"#utility.yul\":18914:19304   */\n    tag_239:\n        /* \"#utility.yul\":19020:19023   */\n      0x00\n        /* \"#utility.yul\":19048:19087   */\n      tag_443\n        /* \"#utility.yul\":19081:19086   */\n      dup3\n        /* \"#utility.yul\":19048:19087   */\n      tag_215\n      jump\t// in\n    tag_443:\n        /* \"#utility.yul\":19103:19192   */\n      tag_444\n        /* \"#utility.yul\":19185:19191   */\n      dup2\n        /* \"#utility.yul\":19180:19183   */\n      dup6\n        /* \"#utility.yul\":19103:19192   */\n      tag_238\n      jump\t// in\n    tag_444:\n        /* \"#utility.yul\":19096:19192   */\n      swap4\n      pop\n        /* \"#utility.yul\":19201:19266   */\n      tag_445\n        /* \"#utility.yul\":19259:19265   */\n      dup2\n        /* \"#utility.yul\":19254:19257   */\n      dup6\n        /* \"#utility.yul\":19247:19251   */\n      0x20\n        /* \"#utility.yul\":19240:19245   */\n      dup7\n        /* \"#utility.yul\":19236:19252   */\n      add\n        /* \"#utility.yul\":19201:19266   */\n      tag_217\n      jump\t// in\n    tag_445:\n        /* \"#utility.yul\":19291:19297   */\n      dup1\n        /* \"#utility.yul\":19286:19289   */\n      dup5\n        /* \"#utility.yul\":19282:19298   */\n      add\n        /* \"#utility.yul\":19275:19298   */\n      swap2\n      pop\n        /* \"#utility.yul\":19024:19304   */\n      pop\n        /* \"#utility.yul\":18914:19304   */\n      swap3\n      swap2\n      pop\n      pop\n      jump\t// out\n        /* \"#utility.yul\":19310:19585   */\n    tag_97:\n        /* \"#utility.yul\":19442:19445   */\n      0x00\n        /* \"#utility.yul\":19464:19559   */\n      tag_447\n        /* \"#utility.yul\":19555:19558   */\n      dup3\n        /* \"#utility.yul\":19546:19552   */\n      dup5\n        /* \"#utility.yul\":19464:19559   */\n      tag_239\n      jump\t// in\n    tag_447:\n        /* \"#utility.yul\":19457:19559   */\n      swap2\n      pop\n        /* \"#utility.yul\":19576:19579   */\n      dup2\n        /* \"#utility.yul\":19569:19579   */\n      swap1\n      pop\n        /* \"#utility.yul\":19310:19585   */\n      swap3\n      swap2\n      pop\n      pop\n      jump\t// out\n        /* \"#utility.yul\":19591:19771   */\n    tag_240:\n        /* \"#utility.yul\":19639:19716   */\n      0x4e487b7100000000000000000000000000000000000000000000000000000000\n        /* \"#utility.yul\":19636:19637   */\n      0x00\n        /* \"#utility.yul\":19629:19717   */\n      mstore\n        /* \"#utility.yul\":19736:19740   */\n      0x22\n        /* \"#utility.yul\":19733:19734   */\n      0x04\n        /* \"#utility.yul\":19726:19741   */\n      mstore\n        /* \"#utility.yul\":19760:19764   */\n      0x24\n        /* \"#utility.yul\":19757:19758   */\n      0x00\n        /* \"#utility.yul\":19750:19765   */\n      revert\n        /* \"#utility.yul\":19777:20097   */\n    tag_113:\n        /* \"#utility.yul\":19821:19827   */\n      0x00\n        /* \"#utility.yul\":19858:19859   */\n      0x02\n        /* \"#utility.yul\":19852:19856   */\n      dup3\n        /* \"#utility.yul\":19848:19860   */\n      div\n        /* \"#utility.yul\":19838:19860   */\n      swap1\n      pop\n        /* \"#utility.yul\":19905:19906   */\n      0x01\n        /* \"#utility.yul\":19899:19903   */\n      dup3\n        /* \"#utility.yul\":19895:19907   */\n      and\n        /* \"#utility.yul\":19926:19944   */\n      dup1\n        /* \"#utility.yul\":19916:19997   */\n      tag_450\n      jumpi\n        /* \"#utility.yul\":19982:19986   */\n      0x7f\n        /* \"#utility.yul\":19974:19980   */\n      dup3\n        /* \"#utility.yul\":19970:19987   */\n      and\n        /* \"#utility.yul\":19960:19987   */\n      swap2\n      pop\n        /* \"#utility.yul\":19916:19997   */\n    tag_450:\n        /* \"#utility.yul\":20044:20046   */\n      0x20\n        /* \"#utility.yul\":20036:20042   */\n      dup3\n        /* \"#utility.yul\":20033:20047   */\n      lt\n        /* \"#utility.yul\":20013:20031   */\n      dup2\n        /* \"#utility.yul\":20010:20048   */\n      sub\n        /* \"#utility.yul\":20007:20091   */\n      tag_451\n      jumpi\n        /* \"#utility.yul\":20063:20081   */\n      tag_452\n      tag_240\n      jump\t// in\n    tag_452:\n        /* \"#utility.yul\":20007:20091   */\n    tag_451:\n        /* \"#utility.yul\":19828:20097   */\n      pop\n        /* \"#utility.yul\":19777:20097   */\n      swap2\n      swap1\n      pop\n      jump\t// out\n        /* \"#utility.yul\":20103:20244   */\n    tag_241:\n        /* \"#utility.yul\":20152:20156   */\n      0x00\n        /* \"#utility.yul\":20175:20178   */\n      dup2\n        /* \"#utility.yul\":20167:20178   */\n      swap1\n      pop\n        /* \"#utility.yul\":20198:20201   */\n      dup2\n        /* \"#utility.yul\":20195:20196   */\n      0x00\n        /* \"#utility.yul\":20188:20202   */\n      mstore\n        /* \"#utility.yul\":20232:20236   */\n      0x20\n        /* \"#utility.yul\":20229:20230   */\n      0x00\n        /* \"#utility.yul\":20219:20237   */\n      keccak256\n        /* \"#utility.yul\":20211:20237   */\n      swap1\n      pop\n        /* \"#utility.yul\":20103:20244   */\n      swap2\n      swap1\n      pop\n      jump\t// out\n        /* \"#utility.yul\":20250:20343   */\n    tag_242:\n        /* \"#utility.yul\":20287:20293   */\n      0x00\n        /* \"#utility.yul\":20334:20336   */\n      0x20\n        /* \"#utility.yul\":20329:20331   */\n      0x1f\n        /* \"#utility.yul\":20322:20327   */\n      dup4\n        /* \"#utility.yul\":20318:20332   */\n      add\n        /* \"#utility.yul\":20314:20337   */\n      div\n        /* \"#utility.yul\":20304:20337   */\n      swap1\n      pop\n        /* \"#utility.yul\":20250:20343   */\n      swap2\n      swap1\n      pop\n      jump\t// out\n        /* \"#utility.yul\":20349:20456   */\n    tag_243:\n        /* \"#utility.yul\":20393:20401   */\n      0x00\n        /* \"#utility.yul\":20443:20448   */\n      dup3\n        /* \"#utility.yul\":20437:20441   */\n      dup3\n        /* \"#utility.yul\":20433:20449   */\n      shl\n        /* \"#utility.yul\":20412:20449   */\n      swap1\n      pop\n        /* \"#utility.yul\":20349:20456   */\n      swap3\n      swap2\n      pop\n      pop\n      jump\t// out\n        /* \"#utility.yul\":20462:20855   */\n    tag_244:\n        /* \"#utility.yul\":20531:20537   */\n      0x00\n        /* \"#utility.yul\":20581:20582   */\n      0x08\n        /* \"#utility.yul\":20569:20579   */\n      dup4\n        /* \"#utility.yul\":20565:20583   */\n      mul\n        /* \"#utility.yul\":20604:20701   */\n      tag_457\n        /* \"#utility.yul\":20634:20700   */\n      0xffffffffffffffffffffffffffffffffffffffffffffffffffffffffffffffff\n        /* \"#utility.yul\":20623:20632   */\n      dup3\n        /* \"#utility.yul\":20604:20701   */\n      tag_243\n      jump\t// in\n    tag_457:\n        /* \"#utility.yul\":20722:20761   */\n      tag_458\n        /* \"#utility.yul\":20752:20760   */\n      dup7\n        /* \"#utility.yul\":20741:20750   */\n      dup4\n        /* \"#utility.yul\":20722:20761   */\n      tag_243\n      jump\t// in\n    tag_458:\n        /* \"#utility.yul\":20710:20761   */\n      swap6\n      pop\n        /* \"#utility.yul\":20794:20798   */\n      dup1\n        /* \"#utility.yul\":20790:20799   */\n      not\n        /* \"#utility.yul\":20783:20788   */\n      dup5\n        /* \"#utility.yul\":20779:20800   */\n      and\n        /* \"#utility.yul\":20770:20800   */\n      swap4\n      pop\n        /* \"#utility.yul\":20843:20847   */\n      dup1\n        /* \"#utility.yul\":20833:20841   */\n      dup7\n        /* \"#utility.yul\":20829:20848   */\n      and\n        /* \"#utility.yul\":20822:20827   */\n      dup5\n        /* \"#utility.yul\":20819:20849   */\n      or\n        /* \"#utility.yul\":20809:20849   */\n      swap3\n      pop\n        /* \"#utility.yul\":20538:20855   */\n      pop\n      pop\n        /* \"#utility.yul\":20462:20855   */\n      swap4\n      swap3\n      pop\n      pop\n      pop\n      jump\t// out\n        /* \"#utility.yul\":20861:21003   */\n    tag_245:\n        /* \"#utility.yul\":20911:20920   */\n      0x00\n        /* \"#utility.yul\":20944:20997   */\n      tag_460\n        /* \"#utility.yul\":20962:20996   */\n      tag_461\n        /* \"#utility.yul\":20971:20995   */\n      tag_462\n        /* \"#utility.yul\":20989:20994   */\n      dup5\n        /* \"#utility.yul\":20971:20995   */\n      tag_193\n      jump\t// in\n    tag_462:\n        /* \"#utility.yul\":20962:20996   */\n      tag_188\n      jump\t// in\n    tag_461:\n        /* \"#utility.yul\":20944:20997   */\n      tag_193\n      jump\t// in\n    tag_460:\n        /* \"#utility.yul\":20931:20997   */\n      swap1\n      pop\n        /* \"#utility.yul\":20861:21003   */\n      swap2\n      swap1\n      pop\n      jump\t// out\n        /* \"#utility.yul\":21009:21084   */\n    tag_246:\n        /* \"#utility.yul\":21052:21055   */\n      0x00\n        /* \"#utility.yul\":21073:21078   */\n      dup2\n        /* \"#utility.yul\":21066:21078   */\n      swap1\n      pop\n        /* \"#utility.yul\":21009:21084   */\n      swap2\n      swap1\n      pop\n      jump\t// out\n        /* \"#utility.yul\":21090:21359   */\n    tag_247:\n        /* \"#utility.yul\":21200:21239   */\n      tag_465\n        /* \"#utility.yul\":21231:21238   */\n      dup4\n        /* \"#utility.yul\":21200:21239   */\n      tag_245\n      jump\t// in\n    tag_465:\n        /* \"#utility.yul\":21261:21352   */\n      tag_466\n        /* \"#utility.yul\":21310:21351   */\n      tag_467\n        /* \"#utility.yul\":21334:21350   */\n      dup3\n        /* \"#utility.yul\":21310:21351   */\n      tag_246\n      jump\t// in\n    tag_467:\n        /* \"#utility.yul\":21302:21308   */\n      dup5\n        /* \"#utility.yul\":21295:21299   */\n      dup5\n        /* \"#utility.yul\":21289:21300   */\n      sload\n        /* \"#utility.yul\":21261:21352   */\n      tag_244\n      jump\t// in\n    tag_466:\n        /* \"#utility.yul\":21255:21259   */\n      dup3\n        /* \"#utility.yul\":21248:21353   */\n      sstore\n        /* \"#utility.yul\":21166:21359   */\n      pop\n        /* \"#utility.yul\":21090:21359   */\n      pop\n      pop\n      pop\n      jump\t// out\n        /* \"#utility.yul\":21365:21438   */\n    tag_248:\n        /* \"#utility.yul\":21410:21413   */\n      0x00\n        /* \"#utility.yul\":21365:21438   */\n      swap1\n      jump\t// out\n        /* \"#utility.yul\":21444:21633   */\n    tag_249:\n        /* \"#utility.yul\":21521:21553   */\n      tag_470\n      tag_248\n      jump\t// in\n    tag_470:\n        /* \"#utility.yul\":21562:21627   */\n      tag_471\n        /* \"#utility.yul\":21620:21626   */\n      dup2\n        /* \"#utility.yul\":21612:21618   */\n      dup5\n        /* \"#utility.yul\":21606:21610   */\n      dup5\n        /* \"#utility.yul\":21562:21627   */\n      tag_247\n      jump\t// in\n    tag_471:\n        /* \"#utility.yul\":21497:21633   */\n      pop\n        /* \"#utility.yul\":21444:21633   */\n      pop\n      pop\n      jump\t// out\n        /* \"#utility.yul\":21639:21825   */\n    tag_250:\n        /* \"#utility.yul\":21699:21819   */\n    tag_473:\n        /* \"#utility.yul\":21716:21719   */\n      dup2\n        /* \"#utility.yul\":21709:21714   */\n      dup2\n        /* \"#utility.yul\":21706:21720   */\n      lt\n        /* \"#utility.yul\":21699:21819   */\n      iszero\n      tag_475\n      jumpi\n        /* \"#utility.yul\":21770:21809   */\n      tag_476\n        /* \"#utility.yul\":21807:21808   */\n      0x00\n        /* \"#utility.yul\":21800:21805   */\n      dup3\n        /* \"#utility.yul\":21770:21809   */\n      tag_249\n      jump\t// in\n    tag_476:\n        /* \"#utility.yul\":21743:21744   */\n      0x01\n        /* \"#utility.yul\":21736:21741   */\n      dup2\n        /* \"#utility.yul\":21732:21745   */\n      add\n        /* \"#utility.yul\":21723:21745   */\n      swap1\n      pop\n        /* \"#utility.yul\":21699:21819   */\n      jump(tag_473)\n    tag_475:\n        /* \"#utility.yul\":21639:21825   */\n      pop\n      pop\n      jump\t// out\n        /* \"#utility.yul\":21831:22374   */\n    tag_251:\n        /* \"#utility.yul\":21932:21934   */\n      0x1f\n        /* \"#utility.yul\":21927:21930   */\n      dup3\n        /* \"#utility.yul\":21924:21935   */\n      gt\n        /* \"#utility.yul\":21921:22367   */\n      iszero\n      tag_478\n      jumpi\n        /* \"#utility.yul\":21966:22004   */\n      tag_479\n        /* \"#utility.yul\":21998:22003   */\n      dup2\n        /* \"#utility.yul\":21966:22004   */\n      tag_241\n      jump\t// in\n    tag_479:\n        /* \"#utility.yul\":22050:22079   */\n      tag_480\n        /* \"#utility.yul\":22068:22078   */\n      dup5\n        /* \"#utility.yul\":22050:22079   */\n      tag_242\n      jump\t// in\n    tag_480:\n        /* \"#utility.yul\":22040:22048   */\n      dup2\n        /* \"#utility.yul\":22036:22080   */\n      add\n        /* \"#utility.yul\":22233:22235   */\n      0x20\n        /* \"#utility.yul\":22221:22231   */\n      dup6\n        /* \"#utility.yul\":22218:22236   */\n      lt\n        /* \"#utility.yul\":22215:22264   */\n      iszero\n      tag_481\n      jumpi\n        /* \"#utility.yul\":22254:22262   */\n      dup2\n        /* \"#utility.yul\":22239:22262   */\n      swap1\n      pop\n        /* \"#utility.yul\":22215:22264   */\n    tag_481:\n        /* \"#utility.yul\":22277:22357   */\n      tag_482\n        /* \"#utility.yul\":22333:22355   */\n      tag_483\n        /* \"#utility.yul\":22351:22354   */\n      dup6\n        /* \"#utility.yul\":22333:22355   */\n      tag_242\n      jump\t// in\n    tag_483:\n        /* \"#utility.yul\":22323:22331   */\n      dup4\n        /* \"#utility.yul\":22319:22356   */\n      add\n        /* \"#utility.yul\":22306:22317   */\n      dup3\n        /* \"#utility.yul\":22277:22357   */\n      tag_250\n      jump\t// in\n    tag_482:\n        /* \"#utility.yul\":21936:22367   */\n      pop\n      pop\n        /* \"#utility.yul\":21921:22367   */\n    tag_478:\n        /* \"#utility.yul\":21831:22374   */\n      pop\n      pop\n      pop\n      jump\t// out\n        /* \"#utility.yul\":22380:22497   */\n    tag_252:\n        /* \"#utility.yul\":22434:22442   */\n      0x00\n        /* \"#utility.yul\":22484:22489   */\n      dup3\n        /* \"#utility.yul\":22478:22482   */\n      dup3\n        /* \"#utility.yul\":22474:22490   */\n      shr\n        /* \"#utility.yul\":22453:22490   */\n      swap1\n      pop\n        /* \"#utility.yul\":22380:22497   */\n      swap3\n      swap2\n      pop\n      pop\n      jump\t// out\n        /* \"#utility.yul\":22503:22672   */\n    tag_253:\n        /* \"#utility.yul\":22547:22553   */\n      0x00\n        /* \"#utility.yul\":22580:22631   */\n      tag_486\n        /* \"#utility.yul\":22628:22629   */\n      0x00\n        /* \"#utility.yul\":22624:22630   */\n      not\n        /* \"#utility.yul\":22616:22621   */\n      dup5\n        /* \"#utility.yul\":22613:22614   */\n      0x08\n        /* \"#utility.yul\":22609:22622   */\n      mul\n        /* \"#utility.yul\":22580:22631   */\n      tag_252\n      jump\t// in\n    tag_486:\n        /* \"#utility.yul\":22576:22632   */\n      not\n        /* \"#utility.yul\":22661:22665   */\n      dup1\n        /* \"#utility.yul\":22655:22659   */\n      dup4\n        /* \"#utility.yul\":22651:22666   */\n      and\n        /* \"#utility.yul\":22641:22666   */\n      swap2\n      pop\n        /* \"#utility.yul\":22554:22672   */\n      pop\n        /* \"#utility.yul\":22503:22672   */\n      swap3\n      swap2\n      pop\n      pop\n      jump\t// out\n        /* \"#utility.yul\":22677:22972   */\n    tag_254:\n        /* \"#utility.yul\":22753:22757   */\n      0x00\n        /* \"#utility.yul\":22899:22928   */\n      tag_488\n        /* \"#utility.yul\":22924:22927   */\n      dup4\n        /* \"#utility.yul\":22918:22922   */\n      dup4\n        /* \"#utility.yul\":22899:22928   */\n      tag_253\n      jump\t// in\n    tag_488:\n        /* \"#utility.yul\":22891:22928   */\n      swap2\n      pop\n        /* \"#utility.yul\":22961:22964   */\n      dup3\n        /* \"#utility.yul\":22958:22959   */\n      0x02\n        /* \"#utility.yul\":22954:22965   */\n      mul\n        /* \"#utility.yul\":22948:22952   */\n      dup3\n        /* \"#utility.yul\":22945:22966   */\n      or\n        /* \"#utility.yul\":22937:22966   */\n      swap1\n      pop\n        /* \"#utility.yul\":22677:22972   */\n      swap3\n      swap2\n      pop\n      pop\n      jump\t// out\n        /* \"#utility.yul\":22977:24372   */\n    tag_99:\n        /* \"#utility.yul\":23094:23131   */\n      tag_490\n        /* \"#utility.yul\":23127:23130   */\n      dup3\n        /* \"#utility.yul\":23094:23131   */\n      tag_215\n      jump\t// in\n    tag_490:\n        /* \"#utility.yul\":23196:23214   */\n      0xffffffffffffffff\n        /* \"#utility.yul\":23188:23194   */\n      dup2\n        /* \"#utility.yul\":23185:23215   */\n      gt\n        /* \"#utility.yul\":23182:23238   */\n      iszero\n      tag_491\n      jumpi\n        /* \"#utility.yul\":23218:23236   */\n      tag_492\n      tag_206\n      jump\t// in\n    tag_492:\n        /* \"#utility.yul\":23182:23238   */\n    tag_491:\n        /* \"#utility.yul\":23262:23300   */\n      tag_493\n        /* \"#utility.yul\":23294:23298   */\n      dup3\n        /* \"#utility.yul\":23288:23299   */\n      sload\n        /* \"#utility.yul\":23262:23300   */\n      tag_113\n      jump\t// in\n    tag_493:\n        /* \"#utility.yul\":23347:23414   */\n      tag_494\n        /* \"#utility.yul\":23407:23413   */\n      dup3\n        /* \"#utility.yul\":23399:23405   */\n      dup3\n        /* \"#utility.yul\":23393:23397   */\n      dup6\n        /* \"#utility.yul\":23347:23414   */\n      tag_251\n      jump\t// in\n    tag_494:\n        /* \"#utility.yul\":23441:23442   */\n      0x00\n        /* \"#utility.yul\":23465:23469   */\n      0x20\n        /* \"#utility.yul\":23452:23469   */\n      swap1\n      pop\n        /* \"#utility.yul\":23497:23499   */\n      0x1f\n        /* \"#utility.yul\":23489:23495   */\n      dup4\n        /* \"#utility.yul\":23486:23500   */\n      gt\n        /* \"#utility.yul\":23514:23515   */\n      0x01\n        /* \"#utility.yul\":23509:24127   */\n      dup2\n      eq\n      tag_496\n      jumpi\n        /* \"#utility.yul\":24171:24172   */\n      0x00\n        /* \"#utility.yul\":24188:24194   */\n      dup5\n        /* \"#utility.yul\":24185:24262   */\n      iszero\n      tag_497\n      jumpi\n        /* \"#utility.yul\":24237:24246   */\n      dup3\n        /* \"#utility.yul\":24232:24235   */\n      dup8\n        /* \"#utility.yul\":24228:24247   */\n      add\n        /* \"#utility.yul\":24222:24248   */\n      mload\n        /* \"#utility.yul\":24213:24248   */\n      swap1\n      pop\n        /* \"#utility.yul\":24185:24262   */\n    tag_497:\n        /* \"#utility.yul\":24288:24355   */\n      tag_498\n        /* \"#utility.yul\":24348:24354   */\n      dup6\n        /* \"#utility.yul\":24341:24346   */\n      dup3\n        /* \"#utility.yul\":24288:24355   */\n      tag_254\n      jump\t// in\n    tag_498:\n        /* \"#utility.yul\":24282:24286   */\n      dup7\n        /* \"#utility.yul\":24275:24356   */\n      sstore\n        /* \"#utility.yul\":24144:24366   */\n      pop\n        /* \"#utility.yul\":23479:24366   */\n      jump(tag_495)\n        /* \"#utility.yul\":23509:24127   */\n    tag_496:\n        /* \"#utility.yul\":23561:23565   */\n      0x1f\n        /* \"#utility.yul\":23557:23566   */\n      not\n        /* \"#utility.yul\":23549:23555   */\n      dup5\n        /* \"#utility.yul\":23545:23567   */\n      and\n        /* \"#utility.yul\":23595:23632   */\n      tag_499\n        /* \"#utility.yul\":23627:23631   */\n      dup7\n        /* \"#utility.yul\":23595:23632   */\n      tag_241\n      jump\t// in\n    tag_499:\n        /* \"#utility.yul\":23654:23655   */\n      0x00\n        /* \"#utility.yul\":23668:23876   */\n    tag_500:\n        /* \"#utility.yul\":23682:23689   */\n      dup3\n        /* \"#utility.yul\":23679:23680   */\n      dup2\n        /* \"#utility.yul\":23676:23690   */\n      lt\n        /* \"#utility.yul\":23668:23876   */\n      iszero\n      tag_502\n      jumpi\n        /* \"#utility.yul\":23761:23770   */\n      dup5\n        /* \"#utility.yul\":23756:23759   */\n      dup10\n        /* \"#utility.yul\":23752:23771   */\n      add\n        /* \"#utility.yul\":23746:23772   */\n      mload\n        /* \"#utility.yul\":23738:23744   */\n      dup3\n        /* \"#utility.yul\":23731:23773   */\n      sstore\n        /* \"#utility.yul\":23812:23813   */\n      0x01\n        /* \"#utility.yul\":23804:23810   */\n      dup3\n        /* \"#utility.yul\":23800:23814   */\n      add\n        /* \"#utility.yul\":23790:23814   */\n      swap2\n      pop\n        /* \"#utility.yul\":23859:23861   */\n      0x20\n        /* \"#utility.yul\":23848:23857   */\n      dup6\n        /* \"#utility.yul\":23844:23862   */\n      add\n        /* \"#utility.yul\":23831:23862   */\n      swap5\n      pop\n        /* \"#utility.yul\":23705:23709   */\n      0x20\n        /* \"#utility.yul\":23702:23703   */\n      dup2\n        /* \"#utility.yul\":23698:23710   */\n      add\n        /* \"#utility.yul\":23693:23710   */\n      swap1\n      pop\n        /* \"#utility.yul\":23668:23876   */\n      jump(tag_500)\n    tag_502:\n        /* \"#utility.yul\":23904:23910   */\n      dup7\n        /* \"#utility.yul\":23895:23902   */\n      dup4\n        /* \"#utility.yul\":23892:23911   */\n      lt\n        /* \"#utility.yul\":23889:24068   */\n      iszero\n      tag_503\n      jumpi\n        /* \"#utility.yul\":23962:23971   */\n      dup5\n        /* \"#utility.yul\":23957:23960   */\n      dup10\n        /* \"#utility.yul\":23953:23972   */\n      add\n        /* \"#utility.yul\":23947:23973   */\n      mload\n        /* \"#utility.yul\":24005:24053   */\n      tag_504\n        /* \"#utility.yul\":24047:24051   */\n      0x1f\n        /* \"#utility.yul\":24039:24045   */\n      dup10\n        /* \"#utility.yul\":24035:24052   */\n      and\n        /* \"#utility.yul\":24024:24033   */\n      dup3\n        /* \"#utility.yul\":24005:24053   */\n      tag_253\n      jump\t// in\n    tag_504:\n        /* \"#utility.yul\":23997:24003   */\n      dup4\n        /* \"#utility.yul\":23990:24054   */\n      sstore\n        /* \"#utility.yul\":23912:24068   */\n      pop\n        /* \"#utility.yul\":23889:24068   */\n    tag_503:\n        /* \"#utility.yul\":24114:24115   */\n      0x01\n        /* \"#utility.yul\":24110:24111   */\n      0x02\n        /* \"#utility.yul\":24102:24108   */\n      dup9\n        /* \"#utility.yul\":24098:24112   */\n      mul\n        /* \"#utility.yul\":24094:24116   */\n      add\n        /* \"#utility.yul\":24088:24092   */\n      dup9\n        /* \"#utility.yul\":24081:24117   */\n      sstore\n        /* \"#utility.yul\":23516:24127   */\n      pop\n      pop\n      pop\n        /* \"#utility.yul\":23479:24366   */\n    tag_495:\n      pop\n        /* \"#utility.yul\":23069:24372   */\n      pop\n      pop\n      pop\n        /* \"#utility.yul\":22977:24372   */\n      pop\n      pop\n      jump\t// out\n        /* \"#utility.yul\":24378:24536   */\n    tag_255:\n        /* \"#utility.yul\":24518:24528   */\n      0x5570646174656420000000000000000000000000000000000000000000000000\n        /* \"#utility.yul\":24514:24515   */\n      0x00\n        /* \"#utility.yul\":24506:24512   */\n      dup3\n        /* \"#utility.yul\":24502:24516   */\n      add\n        /* \"#utility.yul\":24495:24529   */\n      mstore\n        /* \"#utility.yul\":24378:24536   */\n      pop\n      jump\t// out\n        /* \"#utility.yul\":24542:24942   */\n    tag_256:\n        /* \"#utility.yul\":24702:24705   */\n      0x00\n        /* \"#utility.yul\":24723:24807   */\n      tag_507\n        /* \"#utility.yul\":24805:24806   */\n      0x08\n        /* \"#utility.yul\":24800:24803   */\n      dup4\n        /* \"#utility.yul\":24723:24807   */\n      tag_238\n      jump\t// in\n    tag_507:\n        /* \"#utility.yul\":24716:24807   */\n      swap2\n      pop\n        /* \"#utility.yul\":24816:24909   */\n      tag_508\n        /* \"#utility.yul\":24905:24908   */\n      dup3\n        /* \"#utility.yul\":24816:24909   */\n      tag_255\n      jump\t// in\n    tag_508:\n        /* \"#utility.yul\":24934:24935   */\n      0x08\n        /* \"#utility.yul\":24929:24932   */\n      dup3\n        /* \"#utility.yul\":24925:24936   */\n      add\n        /* \"#utility.yul\":24918:24936   */\n      swap1\n      pop\n        /* \"#utility.yul\":24542:24942   */\n      swap2\n      swap1\n      pop\n      jump\t// out\n        /* \"#utility.yul\":24948:25489   */\n    tag_102:\n        /* \"#utility.yul\":25181:25184   */\n      0x00\n        /* \"#utility.yul\":25203:25351   */\n      tag_510\n        /* \"#utility.yul\":25347:25350   */\n      dup3\n        /* \"#utility.yul\":25203:25351   */\n      tag_256\n      jump\t// in\n    tag_510:\n        /* \"#utility.yul\":25196:25351   */\n      swap2\n      pop\n        /* \"#utility.yul\":25368:25463   */\n      tag_511\n        /* \"#utility.yul\":25459:25462   */\n      dup3\n        /* \"#utility.yul\":25450:25456   */\n      dup5\n        /* \"#utility.yul\":25368:25463   */\n      tag_239\n      jump\t// in\n    tag_511:\n        /* \"#utility.yul\":25361:25463   */\n      swap2\n      pop\n        /* \"#utility.yul\":25480:25483   */\n      dup2\n        /* \"#utility.yul\":25473:25483   */\n      swap1\n      pop\n        /* \"#utility.yul\":24948:25489   */\n      swap3\n      swap2\n      pop\n      pop\n      jump\t// out\n        /* \"#utility.yul\":25495:25656   */\n    tag_257:\n        /* \"#utility.yul\":25635:25648   */\n      0x7570646174655f64617461000000000000000000000000000000000000000000\n        /* \"#utility.yul\":25631:25632   */\n      0x00\n        /* \"#utility.yul\":25623:25629   */\n      dup3\n        /* \"#utility.yul\":25619:25633   */\n      add\n        /* \"#utility.yul\":25612:25649   */\n      mstore\n        /* \"#utility.yul\":25495:25656   */\n      pop\n      jump\t// out\n        /* \"#utility.yul\":25662:26028   */\n    tag_258:\n        /* \"#utility.yul\":25804:25807   */\n      0x00\n        /* \"#utility.yul\":25825:25892   */\n      tag_514\n        /* \"#utility.yul\":25889:25891   */\n      0x0b\n        /* \"#utility.yul\":25884:25887   */\n      dup4\n        /* \"#utility.yul\":25825:25892   */\n      tag_216\n      jump\t// in\n    tag_514:\n        /* \"#utility.yul\":25818:25892   */\n      swap2\n      pop\n        /* \"#utility.yul\":25901:25994   */\n      tag_515\n        /* \"#utility.yul\":25990:25993   */\n      dup3\n        /* \"#utility.yul\":25901:25994   */\n      tag_257\n      jump\t// in\n    tag_515:\n        /* \"#utility.yul\":26019:26021   */\n      0x20\n        /* \"#utility.yul\":26014:26017   */\n      dup3\n        /* \"#utility.yul\":26010:26022   */\n      add\n        /* \"#utility.yul\":26003:26022   */\n      swap1\n      pop\n        /* \"#utility.yul\":25662:26028   */\n      swap2\n      swap1\n      pop\n      jump\t// out\n        /* \"#utility.yul\":26034:26974   */\n    tag_104:\n        /* \"#utility.yul\":26326:26330   */\n      0x00\n        /* \"#utility.yul\":26364:26367   */\n      0xa0\n        /* \"#utility.yul\":26353:26362   */\n      dup3\n        /* \"#utility.yul\":26349:26368   */\n      add\n        /* \"#utility.yul\":26341:26368   */\n      swap1\n      pop\n        /* \"#utility.yul\":26378:26449   */\n      tag_517\n        /* \"#utility.yul\":26446:26447   */\n      0x00\n        /* \"#utility.yul\":26435:26444   */\n      dup4\n        /* \"#utility.yul\":26431:26448   */\n      add\n        /* \"#utility.yul\":26422:26428   */\n      dup8\n        /* \"#utility.yul\":26378:26449   */\n      tag_223\n      jump\t// in\n    tag_517:\n        /* \"#utility.yul\":26459:26531   */\n      tag_518\n        /* \"#utility.yul\":26527:26529   */\n      0x20\n        /* \"#utility.yul\":26516:26525   */\n      dup4\n        /* \"#utility.yul\":26512:26530   */\n      add\n        /* \"#utility.yul\":26503:26509   */\n      dup7\n        /* \"#utility.yul\":26459:26531   */\n      tag_223\n      jump\t// in\n    tag_518:\n        /* \"#utility.yul\":26578:26587   */\n      dup2\n        /* \"#utility.yul\":26572:26576   */\n      dup2\n        /* \"#utility.yul\":26568:26588   */\n      sub\n        /* \"#utility.yul\":26563:26565   */\n      0x40\n        /* \"#utility.yul\":26552:26561   */\n      dup4\n        /* \"#utility.yul\":26548:26566   */\n      add\n        /* \"#utility.yul\":26541:26589   */\n      mstore\n        /* \"#utility.yul\":26606:26737   */\n      tag_519\n        /* \"#utility.yul\":26732:26736   */\n      dup2\n        /* \"#utility.yul\":26606:26737   */\n      tag_258\n      jump\t// in\n    tag_519:\n        /* \"#utility.yul\":26598:26737   */\n      swap1\n      pop\n        /* \"#utility.yul\":26784:26793   */\n      dup2\n        /* \"#utility.yul\":26778:26782   */\n      dup2\n        /* \"#utility.yul\":26774:26794   */\n      sub\n        /* \"#utility.yul\":26769:26771   */\n      0x60\n        /* \"#utility.yul\":26758:26767   */\n      dup4\n        /* \"#utility.yul\":26754:26772   */\n      add\n        /* \"#utility.yul\":26747:26795   */\n      mstore\n        /* \"#utility.yul\":26812:26890   */\n      tag_520\n        /* \"#utility.yul\":26885:26889   */\n      dup2\n        /* \"#utility.yul\":26876:26882   */\n      dup6\n        /* \"#utility.yul\":26812:26890   */\n      tag_218\n      jump\t// in\n    tag_520:\n        /* \"#utility.yul\":26804:26890   */\n      swap1\n      pop\n        /* \"#utility.yul\":26900:26967   */\n      tag_521\n        /* \"#utility.yul\":26962:26965   */\n      0x80\n        /* \"#utility.yul\":26951:26960   */\n      dup4\n        /* \"#utility.yul\":26947:26966   */\n      add\n        /* \"#utility.yul\":26938:26944   */\n      dup5\n        /* \"#utility.yul\":26900:26967   */\n      tag_214\n      jump\t// in\n    tag_521:\n        /* \"#utility.yul\":26034:26974   */\n      swap6\n      swap5\n      pop\n      pop\n      pop\n      pop\n      pop\n      jump\t// out\n        /* \"#utility.yul\":26980:27139   */\n    tag_259:\n        /* \"#utility.yul\":27120:27131   */\n      0x766965775f646174610000000000000000000000000000000000000000000000\n        /* \"#utility.yul\":27116:27117   */\n      0x00\n        /* \"#utility.yul\":27108:27114   */\n      dup3\n        /* \"#utility.yul\":27104:27118   */\n      add\n        /* \"#utility.yul\":27097:27132   */\n      mstore\n        /* \"#utility.yul\":26980:27139   */\n      pop\n      jump\t// out\n        /* \"#utility.yul\":27145:27510   */\n    tag_260:\n        /* \"#utility.yul\":27287:27290   */\n      0x00\n        /* \"#utility.yul\":27308:27374   */\n      tag_524\n        /* \"#utility.yul\":27372:27373   */\n      0x09\n        /* \"#utility.yul\":27367:27370   */\n      dup4\n        /* \"#utility.yul\":27308:27374   */\n      tag_216\n      jump\t// in\n    tag_524:\n        /* \"#utility.yul\":27301:27374   */\n      swap2\n      pop\n        /* \"#utility.yul\":27383:27476   */\n      tag_525\n        /* \"#utility.yul\":27472:27475   */\n      dup3\n        /* \"#utility.yul\":27383:27476   */\n      tag_259\n      jump\t// in\n    tag_525:\n        /* \"#utility.yul\":27501:27503   */\n      0x20\n        /* \"#utility.yul\":27496:27499   */\n      dup3\n        /* \"#utility.yul\":27492:27504   */\n      add\n        /* \"#utility.yul\":27485:27504   */\n      swap1\n      pop\n        /* \"#utility.yul\":27145:27510   */\n      swap2\n      swap1\n      pop\n      jump\t// out\n        /* \"#utility.yul\":27516:28045   */\n    tag_123:\n        /* \"#utility.yul\":27710:27714   */\n      0x00\n        /* \"#utility.yul\":27748:27750   */\n      0x40\n        /* \"#utility.yul\":27737:27746   */\n      dup3\n        /* \"#utility.yul\":27733:27751   */\n      add\n        /* \"#utility.yul\":27725:27751   */\n      swap1\n      pop\n        /* \"#utility.yul\":27761:27832   */\n      tag_527\n        /* \"#utility.yul\":27829:27830   */\n      0x00\n        /* \"#utility.yul\":27818:27827   */\n      dup4\n        /* \"#utility.yul\":27814:27831   */\n      add\n        /* \"#utility.yul\":27805:27811   */\n      dup5\n        /* \"#utility.yul\":27761:27832   */\n      tag_223\n      jump\t// in\n    tag_527:\n        /* \"#utility.yul\":27879:27888   */\n      dup2\n        /* \"#utility.yul\":27873:27877   */\n      dup2\n        /* \"#utility.yul\":27869:27889   */\n      sub\n        /* \"#utility.yul\":27864:27866   */\n      0x20\n        /* \"#utility.yul\":27853:27862   */\n      dup4\n        /* \"#utility.yul\":27849:27867   */\n      add\n        /* \"#utility.yul\":27842:27890   */\n      mstore\n        /* \"#utility.yul\":27907:28038   */\n      tag_528\n        /* \"#utility.yul\":28033:28037   */\n      dup2\n        /* \"#utility.yul\":27907:28038   */\n      tag_260\n      jump\t// in\n    tag_528:\n        /* \"#utility.yul\":27899:28038   */\n      swap1\n      pop\n        /* \"#utility.yul\":27516:28045   */\n      swap3\n      swap2\n      pop\n      pop\n      jump\t// out\n        /* \"#utility.yul\":28051:28223   */\n    tag_261:\n        /* \"#utility.yul\":28191:28215   */\n      0x4e6f2076616c6964206163636573732072696768747300000000000000000000\n        /* \"#utility.yul\":28187:28188   */\n      0x00\n        /* \"#utility.yul\":28179:28185   */\n      dup3\n        /* \"#utility.yul\":28175:28189   */\n      add\n        /* \"#utility.yul\":28168:28216   */\n      mstore\n        /* \"#utility.yul\":28051:28223   */\n      pop\n      jump\t// out\n        /* \"#utility.yul\":28229:28595   */\n    tag_262:\n        /* \"#utility.yul\":28371:28374   */\n      0x00\n        /* \"#utility.yul\":28392:28459   */\n      tag_531\n        /* \"#utility.yul\":28456:28458   */\n      0x16\n        /* \"#utility.yul\":28451:28454   */\n      dup4\n        /* \"#utility.yul\":28392:28459   */\n      tag_216\n      jump\t// in\n    tag_531:\n        /* \"#utility.yul\":28385:28459   */\n      swap2\n      pop\n        /* \"#utility.yul\":28468:28561   */\n      tag_532\n        /* \"#utility.yul\":28557:28560   */\n      dup3\n        /* \"#utility.yul\":28468:28561   */\n      tag_261\n      jump\t// in\n    tag_532:\n        /* \"#utility.yul\":28586:28588   */\n      0x20\n        /* \"#utility.yul\":28581:28584   */\n      dup3\n        /* \"#utility.yul\":28577:28589   */\n      add\n        /* \"#utility.yul\":28570:28589   */\n      swap1\n      pop\n        /* \"#utility.yul\":28229:28595   */\n      swap2\n      swap1\n      pop\n      jump\t// out\n        /* \"#utility.yul\":28601:29020   */\n    tag_137:\n        /* \"#utility.yul\":28767:28771   */\n      0x00\n        /* \"#utility.yul\":28805:28807   */\n      0x20\n        /* \"#utility.yul\":28794:28803   */\n      dup3\n        /* \"#utility.yul\":28790:28808   */\n      add\n        /* \"#utility.yul\":28782:28808   */\n      swap1\n      pop\n        /* \"#utility.yul\":28854:28863   */\n      dup2\n        /* \"#utility.yul\":28848:28852   */\n      dup2\n        /* \"#utility.yul\":28844:28864   */\n      sub\n        /* \"#utility.yul\":28840:28841   */\n      0x00\n        /* \"#utility.yul\":28829:28838   */\n      dup4\n        /* \"#utility.yul\":28825:28842   */\n      add\n        /* \"#utility.yul\":28818:28865   */\n      mstore\n        /* \"#utility.yul\":28882:29013   */\n      tag_534\n        /* \"#utility.yul\":29008:29012   */\n      dup2\n        /* \"#utility.yul\":28882:29013   */\n      tag_262\n      jump\t// in\n    tag_534:\n        /* \"#utility.yul\":28874:29013   */\n      swap1\n      pop\n        /* \"#utility.yul\":28601:29020   */\n      swap2\n      swap1\n      pop\n      jump\t// out\n        /* \"#utility.yul\":29026:29206   */\n    tag_150:\n        /* \"#utility.yul\":29074:29151   */\n      0x4e487b7100000000000000000000000000000000000000000000000000000000\n        /* \"#utility.yul\":29071:29072   */\n      0x00\n        /* \"#utility.yul\":29064:29152   */\n      mstore\n        /* \"#utility.yul\":29171:29175   */\n      0x21\n        /* \"#utility.yul\":29168:29169   */\n      0x04\n        /* \"#utility.yul\":29161:29176   */\n      mstore\n        /* \"#utility.yul\":29195:29199   */\n      0x24\n        /* \"#utility.yul\":29192:29193   */\n      0x00\n        /* \"#utility.yul\":29185:29200   */\n      revert\n        /* \"#utility.yul\":29212:29434   */\n    tag_152:\n        /* \"#utility.yul\":29305:29309   */\n      0x00\n        /* \"#utility.yul\":29343:29345   */\n      0x20\n        /* \"#utility.yul\":29332:29341   */\n      dup3\n        /* \"#utility.yul\":29328:29346   */\n      add\n        /* \"#utility.yul\":29320:29346   */\n      swap1\n      pop\n        /* \"#utility.yul\":29356:29427   */\n      tag_537\n        /* \"#utility.yul\":29424:29425   */\n      0x00\n        /* \"#utility.yul\":29413:29422   */\n      dup4\n        /* \"#utility.yul\":29409:29426   */\n      add\n        /* \"#utility.yul\":29400:29406   */\n      dup5\n        /* \"#utility.yul\":29356:29427   */\n      tag_223\n      jump\t// in\n    tag_537:\n        /* \"#utility.yul\":29212:29434   */\n      swap3\n      swap2\n      pop\n      pop\n      jump\t// out\n        /* \"#utility.yul\":29440:29547   */\n    tag_263:\n        /* \"#utility.yul\":29521:29522   */\n      0x07\n        /* \"#utility.yul\":29514:29519   */\n      dup2\n        /* \"#utility.yul\":29511:29523   */\n      lt\n        /* \"#utility.yul\":29501:29541   */\n      tag_539\n      jumpi\n        /* \"#utility.yul\":29537:29538   */\n      0x00\n        /* \"#utility.yul\":29534:29535   */\n      dup1\n        /* \"#utility.yul\":29527:29539   */\n      revert\n        /* \"#utility.yul\":29501:29541   */\n    tag_539:\n        /* \"#utility.yul\":29440:29547   */\n      pop\n      jump\t// out\n        /* \"#utility.yul\":29553:29712   */\n    tag_264:\n        /* \"#utility.yul\":29618:29623   */\n      0x00\n        /* \"#utility.yul\":29649:29655   */\n      dup2\n        /* \"#utility.yul\":29643:29656   */\n      mload\n        /* \"#utility.yul\":29634:29656   */\n      swap1\n      pop\n        /* \"#utility.yul\":29665:29706   */\n      tag_541\n        /* \"#utility.yul\":29700:29705   */\n      dup2\n        /* \"#utility.yul\":29665:29706   */\n      tag_263\n      jump\t// in\n    tag_541:\n        /* \"#utility.yul\":29553:29712   */\n      swap3\n      swap2\n      pop\n      pop\n      jump\t// out\n        /* \"#utility.yul\":29718:30085   */\n    tag_156:\n        /* \"#utility.yul\":29796:29802   */\n      0x00\n        /* \"#utility.yul\":29845:29847   */\n      0x20\n        /* \"#utility.yul\":29833:29842   */\n      dup3\n        /* \"#utility.yul\":29824:29831   */\n      dup5\n        /* \"#utility.yul\":29820:29843   */\n      sub\n        /* \"#utility.yul\":29816:29848   */\n      slt\n        /* \"#utility.yul\":29813:29932   */\n      iszero\n      tag_543\n      jumpi\n        /* \"#utility.yul\":29851:29930   */\n      tag_544\n      tag_198\n      jump\t// in\n    tag_544:\n        /* \"#utility.yul\":29813:29932   */\n    tag_543:\n        /* \"#utility.yul\":29971:29972   */\n      0x00\n        /* \"#utility.yul\":29996:30068   */\n      tag_545\n        /* \"#utility.yul\":30060:30067   */\n      dup5\n        /* \"#utility.yul\":30051:30057   */\n      dup3\n        /* \"#utility.yul\":30040:30049   */\n      dup6\n        /* \"#utility.yul\":30036:30058   */\n      add\n        /* \"#utility.yul\":29996:30068   */\n      tag_264\n      jump\t// in\n    tag_545:\n        /* \"#utility.yul\":29986:30068   */\n      swap2\n      pop\n        /* \"#utility.yul\":29942:30078   */\n      pop\n        /* \"#utility.yul\":29718:30085   */\n      swap3\n      swap2\n      pop\n      pop\n      jump\t// out\n        /* \"#utility.yul\":30091:30333   */\n    tag_265:\n        /* \"#utility.yul\":30231:30265   */\n      0x4f6e6c7920646f63746f7273206f7220706172616d65646963732063616e2072\n        /* \"#utility.yul\":30227:30228   */\n      0x00\n        /* \"#utility.yul\":30219:30225   */\n      dup3\n        /* \"#utility.yul\":30215:30229   */\n      add\n        /* \"#utility.yul\":30208:30266   */\n      mstore\n        /* \"#utility.yul\":30300:30325   */\n      0x65717565737420656d657267656e637920616363657373000000000000000000\n        /* \"#utility.yul\":30295:30297   */\n      0x20\n        /* \"#utility.yul\":30287:30293   */\n      dup3\n        /* \"#utility.yul\":30283:30298   */\n      add\n        /* \"#utility.yul\":30276:30326   */\n      mstore\n        /* \"#utility.yul\":30091:30333   */\n      pop\n      jump\t// out\n        /* \"#utility.yul\":30339:30705   */\n    tag_266:\n        /* \"#utility.yul\":30481:30484   */\n      0x00\n        /* \"#utility.yul\":30502:30569   */\n      tag_548\n        /* \"#utility.yul\":30566:30568   */\n      0x37\n        /* \"#utility.yul\":30561:30564   */\n      dup4\n        /* \"#utility.yul\":30502:30569   */\n      tag_216\n      jump\t// in\n    tag_548:\n        /* \"#utility.yul\":30495:30569   */\n      swap2\n      pop\n        /* \"#utility.yul\":30578:30671   */\n      tag_549\n        /* \"#utility.yul\":30667:30670   */\n      dup3\n        /* \"#utility.yul\":30578:30671   */\n      tag_265\n      jump\t// in\n    tag_549:\n        /* \"#utility.yul\":30696:30698   */\n      0x40\n        /* \"#utility.yul\":30691:30694   */\n      dup3\n        /* \"#utility.yul\":30687:30699   */\n      add\n        /* \"#utility.yul\":30680:30699   */\n      swap1\n      pop\n        /* \"#utility.yul\":30339:30705   */\n      swap2\n      swap1\n      pop\n      jump\t// out\n        /* \"#utility.yul\":30711:31130   */\n    tag_170:\n        /* \"#utility.yul\":30877:30881   */\n      0x00\n        /* \"#utility.yul\":30915:30917   */\n      0x20\n        /* \"#utility.yul\":30904:30913   */\n      dup3\n        /* \"#utility.yul\":30900:30918   */\n      add\n        /* \"#utility.yul\":30892:30918   */\n      swap1\n      pop\n        /* \"#utility.yul\":30964:30973   */\n      dup2\n        /* \"#utility.yul\":30958:30962   */\n      dup2\n        /* \"#utility.yul\":30954:30974   */\n      sub\n        /* \"#utility.yul\":30950:30951   */\n      0x00\n        /* \"#utility.yul\":30939:30948   */\n      dup4\n        /* \"#utility.yul\":30935:30952   */\n      add\n        /* \"#utility.yul\":30928:30975   */\n      mstore\n        /* \"#utility.yul\":30992:31123   */\n      tag_551\n        /* \"#utility.yul\":31118:31122   */\n      dup2\n        /* \"#utility.yul\":30992:31123   */\n      tag_266\n      jump\t// in\n    tag_551:\n        /* \"#utility.yul\":30984:31123   */\n      swap1\n      pop\n        /* \"#utility.yul\":30711:31130   */\n      swap2\n      swap1\n      pop\n      jump\t// out\n        /* \"#utility.yul\":31136:31316   */\n    tag_267:\n        /* \"#utility.yul\":31184:31261   */\n      0x4e487b7100000000000000000000000000000000000000000000000000000000\n        /* \"#utility.yul\":31181:31182   */\n      0x00\n        /* \"#utility.yul\":31174:31262   */\n      mstore\n        /* \"#utility.yul\":31281:31285   */\n      0x11\n        /* \"#utility.yul\":31278:31279   */\n      0x04\n        /* \"#utility.yul\":31271:31286   */\n      mstore\n        /* \"#utility.yul\":31305:31309   */\n      0x24\n        /* \"#utility.yul\":31302:31303   */\n      0x00\n        /* \"#utility.yul\":31295:31310   */\n      revert\n        /* \"#utility.yul\":31322:31513   */\n    tag_172:\n        /* \"#utility.yul\":31362:31365   */\n      0x00\n        /* \"#utility.yul\":31381:31401   */\n      tag_554\n        /* \"#utility.yul\":31399:31400   */\n      dup3\n        /* \"#utility.yul\":31381:31401   */\n      tag_193\n      jump\t// in\n    tag_554:\n        /* \"#utility.yul\":31376:31401   */\n      swap2\n      pop\n        /* \"#utility.yul\":31415:31435   */\n      tag_555\n        /* \"#utility.yul\":31433:31434   */\n      dup4\n        /* \"#utility.yul\":31415:31435   */\n      tag_193\n      jump\t// in\n    tag_555:\n        /* \"#utility.yul\":31410:31435   */\n      swap3\n      pop\n        /* \"#utility.yul\":31458:31459   */\n      dup3\n        /* \"#utility.yul\":31455:31456   */\n      dup3\n        /* \"#utility.yul\":31451:31460   */\n      add\n        /* \"#utility.yul\":31444:31460   */\n      swap1\n      pop\n        /* \"#utility.yul\":31479:31482   */\n      dup1\n        /* \"#utility.yul\":31476:31477   */\n      dup3\n        /* \"#utility.yul\":31473:31483   */\n      gt\n        /* \"#utility.yul\":31470:31506   */\n      iszero\n      tag_556\n      jumpi\n        /* \"#utility.yul\":31486:31504   */\n      tag_557\n      tag_267\n      jump\t// in\n    tag_557:\n        /* \"#utility.yul\":31470:31506   */\n    tag_556:\n        /* \"#utility.yul\":31322:31513   */\n      swap3\n      swap2\n      pop\n      pop\n      jump\t// out\n        /* \"#utility.yul\":31519:31685   */\n    tag_268:\n        /* \"#utility.yul\":31659:31677   */\n      0x656d657267656e63795f61636365737300000000000000000000000000000000\n        /* \"#utility.yul\":31655:31656   */\n      0x00\n        /* \"#utility.yul\":31647:31653   */\n      dup3\n        /* \"#utility.yul\":31643:31657   */\n      add\n        /* \"#utility.yul\":31636:31678   */\n      mstore\n        /* \"#utility.yul\":31519:31685   */\n      pop\n      jump\t// out\n        /* \"#utility.yul\":31691:32057   */\n    tag_269:\n        /* \"#utility.yul\":31833:31836   */\n      0x00\n        /* \"#utility.yul\":31854:31921   */\n      tag_560\n        /* \"#utility.yul\":31918:31920   */\n      0x10\n        /* \"#utility.yul\":31913:31916   */\n      dup4\n        /* \"#utility.yul\":31854:31921   */\n      tag_216\n      jump\t// in\n    tag_560:\n        /* \"#utility.yul\":31847:31921   */\n      swap2\n      pop\n        /* \"#utility.yul\":31930:32023   */\n      tag_561\n        /* \"#utility.yul\":32019:32022   */\n      dup3\n        /* \"#utility.yul\":31930:32023   */\n      tag_268\n      jump\t// in\n    tag_561:\n        /* \"#utility.yul\":32048:32050   */\n      0x20\n        /* \"#utility.yul\":32043:32046   */\n      dup3\n        /* \"#utility.yul\":32039:32051   */\n      add\n        /* \"#utility.yul\":32032:32051   */\n      swap1\n      pop\n        /* \"#utility.yul\":31691:32057   */\n      swap2\n      swap1\n      pop\n      jump\t// out\n        /* \"#utility.yul\":32063:33003   */\n    tag_176:\n        /* \"#utility.yul\":32355:32359   */\n      0x00\n        /* \"#utility.yul\":32393:32396   */\n      0xa0\n        /* \"#utility.yul\":32382:32391   */\n      dup3\n        /* \"#utility.yul\":32378:32397   */\n      add\n        /* \"#utility.yul\":32370:32397   */\n      swap1\n      pop\n        /* \"#utility.yul\":32407:32478   */\n      tag_563\n        /* \"#utility.yul\":32475:32476   */\n      0x00\n        /* \"#utility.yul\":32464:32473   */\n      dup4\n        /* \"#utility.yul\":32460:32477   */\n      add\n        /* \"#utility.yul\":32451:32457   */\n      dup8\n        /* \"#utility.yul\":32407:32478   */\n      tag_223\n      jump\t// in\n    tag_563:\n        /* \"#utility.yul\":32488:32560   */\n      tag_564\n        /* \"#utility.yul\":32556:32558   */\n      0x20\n        /* \"#utility.yul\":32545:32554   */\n      dup4\n        /* \"#utility.yul\":32541:32559   */\n      add\n        /* \"#utility.yul\":32532:32538   */\n      dup7\n        /* \"#utility.yul\":32488:32560   */\n      tag_223\n      jump\t// in\n    tag_564:\n        /* \"#utility.yul\":32607:32616   */\n      dup2\n        /* \"#utility.yul\":32601:32605   */\n      dup2\n        /* \"#utility.yul\":32597:32617   */\n      sub\n        /* \"#utility.yul\":32592:32594   */\n      0x40\n        /* \"#utility.yul\":32581:32590   */\n      dup4\n        /* \"#utility.yul\":32577:32595   */\n      add\n        /* \"#utility.yul\":32570:32618   */\n      mstore\n        /* \"#utility.yul\":32635:32766   */\n      tag_565\n        /* \"#utility.yul\":32761:32765   */\n      dup2\n        /* \"#utility.yul\":32635:32766   */\n      tag_269\n      jump\t// in\n    tag_565:\n        /* \"#utility.yul\":32627:32766   */\n      swap1\n      pop\n        /* \"#utility.yul\":32813:32822   */\n      dup2\n        /* \"#utility.yul\":32807:32811   */\n      dup2\n        /* \"#utility.yul\":32803:32823   */\n      sub\n        /* \"#utility.yul\":32798:32800   */\n      0x60\n        /* \"#utility.yul\":32787:32796   */\n      dup4\n        /* \"#utility.yul\":32783:32801   */\n      add\n        /* \"#utility.yul\":32776:32824   */\n      mstore\n        /* \"#utility.yul\":32841:32919   */\n      tag_566\n        /* \"#utility.yul\":32914:32918   */\n      dup2\n        /* \"#utility.yul\":32905:32911   */\n      dup6\n        /* \"#utility.yul\":32841:32919   */\n      tag_218\n      jump\t// in\n    tag_566:\n        /* \"#utility.yul\":32833:32919   */\n      swap1\n      pop\n        /* \"#utility.yul\":32929:32996   */\n      tag_567\n        /* \"#utility.yul\":32991:32994   */\n      0x80\n        /* \"#utility.yul\":32980:32989   */\n      dup4\n        /* \"#utility.yul\":32976:32995   */\n      add\n        /* \"#utility.yul\":32967:32973   */\n      dup5\n        /* \"#utility.yul\":32929:32996   */\n      tag_214\n      jump\t// in\n    tag_567:\n        /* \"#utility.yul\":32063:33003   */\n      swap6\n      swap5\n      pop\n      pop\n      pop\n      pop\n      pop\n      jump\t// out\n\n    auxdata: 0xa2646970667358221220aba692a006eb3abad776806905358f455c2e27b98c9f6bfc0255477600847f1d64736f6c634300081a0033\n}\n",
				"bytecode": {
					"linkReferences": {},
					"object": "608060405234801561000f575f80fd5b506040516125eb3803806125eb83398181016040528101906100319190610115565b815f806101000a81548173ffffffffffffffffffffffffffffffffffffffff021916908373ffffffffffffffffffffffffffffffffffffffff1602179055508060015f6101000a81548173ffffffffffffffffffffffffffffffffffffffff021916908373ffffffffffffffffffffffffffffffffffffffff1602179055505050610153565b5f80fd5b5f73ffffffffffffffffffffffffffffffffffffffff82169050919050565b5f6100e4826100bb565b9050919050565b6100f4816100da565b81146100fe575f80fd5b50565b5f8151905061010f816100eb565b92915050565b5f806040838503121561012b5761012a6100b7565b5b5f61013885828601610101565b925050602061014985828601610101565b9150509250929050565b61248b806101605f395ff3fe608060405234801561000f575f80fd5b5060043610610091575f3560e01c80637eb3a982116100645780637eb3a9821461010b5780639e1b9ec014610127578063ac053aa914610143578063db45517314610175578063f54eeeb7146101a557610091565b806313007d55146100955780632114ef1f146100b35780635a2d6ebd146100d157806373b492ff146100ef575b5f80fd5b61009d6101c1565b6040516100aa91906114f0565b60405180910390f35b6100bb6101e4565b6040516100c89190611521565b60405180910390f35b6100d96101eb565b6040516100e6919061155a565b60405180910390f35b610109600480360381019061010491906115bf565b610210565b005b610125600480360381019061012091906115bf565b6104be565b005b610141600480360381019061013c9190611726565b610740565b005b61015d600480360381019061015891906117ae565b610a46565b60405161016c93929190611866565b60405180910390f35b61018f600480360381019061018a91906118a2565b610c07565b60405161019c91906118fc565b60405180910390f35b6101bf60048036038101906101ba91906118a2565b610fe6565b005b5f8054906101000a900473ffffffffffffffffffffffffffffffffffffffff1681565b6201518081565b60015f9054906101000a900473ffffffffffffffffffffffffffffffffffffffff1681565b3360025f8273ffffffffffffffffffffffffffffffffffffffff1673ffffffffffffffffffffffffffffffffffffffff1681526020019081526020015f206001015f9054906101000a900460ff1661029d576040517f08c379a000000000000000000000000000000000000000000000000000000000815260040161029490611966565b60405180910390fd5b5f60025f3373ffffffffffffffffffffffffffffffffffffffff1673ffffffffffffffffffffffffffffffffffffffff1681526020019081526020015f209050806003015f8473ffffffffffffffffffffffffffffffffffffffff1673ffffffffffffffffffffffffffffffffffffffff1681526020019081526020015f205f015f9054906101000a900460ff1661036a576040517f08c379a0000000000000000000000000000000000000000000000000000000008152600401610361906119ce565b60405180910390fd5b806003015f8473ffffffffffffffffffffffffffffffffffffffff1673ffffffffffffffffffffffffffffffffffffffff1681526020019081526020015f205f8082015f6101000a81549060ff0219169055600182015f9055600282015f6103d2919061141e565b50503373ffffffffffffffffffffffffffffffffffffffff168373ffffffffffffffffffffffffffffffffffffffff167f381ceeb666db3e3c307a575ad34d05f5b497665803dd1983e06e72dd7b4120e460405160405180910390a360015f9054906101000a900473ffffffffffffffffffffffffffffffffffffffff1673ffffffffffffffffffffffffffffffffffffffff166367fe17f433855f6040518463ffffffff1660e01b815260040161048c93929190611a8f565b5f604051808303815f87803b1580156104a3575f80fd5b505af11580156104b5573d5f803e3d5ffd5b50505050505050565b6040518060400160405280600d81526020017f6372656174655f7265636f7264000000000000000000000000000000000000008152505f8054906101000a900473ffffffffffffffffffffffffffffffffffffffff1673ffffffffffffffffffffffffffffffffffffffff166389b3af2933836040518363ffffffff1660e01b815260040161054e929190611aea565b602060405180830381865afa158015610569573d5f803e3d5ffd5b505050506040513d601f19601f8201168201806040525081019061058d9190611b42565b6105cc576040517f08c379a00000000000000000000000000000000000000000000000000000000081526004016105c390611bb7565b60405180910390fd5b60025f8373ffffffffffffffffffffffffffffffffffffffff1673ffffffffffffffffffffffffffffffffffffffff1681526020019081526020015f206001015f9054906101000a900460ff1615610659576040517f08c379a000000000000000000000000000000000000000000000000000000000815260040161065090611c1f565b60405180910390fd5b600160025f8473ffffffffffffffffffffffffffffffffffffffff1673ffffffffffffffffffffffffffffffffffffffff1681526020019081526020015f206001015f6101000a81548160ff02191690831515021790555060015f9054906101000a900473ffffffffffffffffffffffffffffffffffffffff1673ffffffffffffffffffffffffffffffffffffffff166367fe17f433845f6040518463ffffffff1660e01b815260040161070f93929190611cd1565b5f604051808303815f87803b158015610726575f80fd5b505af1158015610738573d5f803e3d5ffd5b505050505050565b6040518060400160405280600b81526020017f7570646174655f646174610000000000000000000000000000000000000000008152505f8054906101000a900473ffffffffffffffffffffffffffffffffffffffff1673ffffffffffffffffffffffffffffffffffffffff166389b3af2933836040518363ffffffff1660e01b81526004016107d0929190611aea565b602060405180830381865afa1580156107eb573d5f803e3d5ffd5b505050506040513d601f19601f8201168201806040525081019061080f9190611b42565b61084e576040517f08c379a000000000000000000000000000000000000000000000000000000000815260040161084590611bb7565b60405180910390fd5b8360025f8273ffffffffffffffffffffffffffffffffffffffff1673ffffffffffffffffffffffffffffffffffffffff1681526020019081526020015f206001015f9054906101000a900460ff166108db576040517f08c379a00000000000000000000000000000000000000000000000000000000081526004016108d290611966565b60405180910390fd5b8260025f8773ffffffffffffffffffffffffffffffffffffffff1673ffffffffffffffffffffffffffffffffffffffff1681526020019081526020015f206002018560405161092a9190611d66565b908152602001604051809103902090816109449190611f6d565b508473ffffffffffffffffffffffffffffffffffffffff167f9efb5c7f10a4f04630ee8342cc0456f34298c1249198a5fd73e2f12e29dd584c8560405161098b91906118fc565b60405180910390a260015f9054906101000a900473ffffffffffffffffffffffffffffffffffffffff1673ffffffffffffffffffffffffffffffffffffffff166367fe17f43387876040516020016109e39190612086565b6040516020818303038152906040525f6040518563ffffffff1660e01b8152600401610a1294939291906120f1565b5f604051808303815f87803b158015610a29575f80fd5b505af1158015610a3b573d5f803e3d5ffd5b505050505050505050565b5f8060608360025f8273ffffffffffffffffffffffffffffffffffffffff1673ffffffffffffffffffffffffffffffffffffffff1681526020019081526020015f206001015f9054906101000a900460ff16610ad7576040517f08c379a0000000000000000000000000000000000000000000000000000000008152600401610ace90611966565b60405180910390fd5b5f60025f8773ffffffffffffffffffffffffffffffffffffffff1673ffffffffffffffffffffffffffffffffffffffff1681526020019081526020015f206003015f8873ffffffffffffffffffffffffffffffffffffffff1673ffffffffffffffffffffffffffffffffffffffff1681526020019081526020015f209050805f015f9054906101000a900460ff16816001015482600201808054610b7a90611da9565b80601f0160208091040260200160405190810160405280929190818152602001828054610ba690611da9565b8015610bf15780601f10610bc857610100808354040283529160200191610bf1565b820191905f5260205f20905b815481529060010190602001808311610bd457829003601f168201915b5050505050905094509450945050509250925092565b60608260025f8273ffffffffffffffffffffffffffffffffffffffff1673ffffffffffffffffffffffffffffffffffffffff1681526020019081526020015f206001015f9054906101000a900460ff16610c96576040517f08c379a0000000000000000000000000000000000000000000000000000000008152600401610c8d90611966565b60405180910390fd5b5f8054906101000a900473ffffffffffffffffffffffffffffffffffffffff1673ffffffffffffffffffffffffffffffffffffffff166389b3af29336040518263ffffffff1660e01b8152600401610cee9190612198565b602060405180830381865afa158015610d09573d5f803e3d5ffd5b505050506040513d601f19601f82011682018060405250810190610d2d9190611b42565b15610e1c5760025f8573ffffffffffffffffffffffffffffffffffffffff1673ffffffffffffffffffffffffffffffffffffffff1681526020019081526020015f2060020183604051610d809190611d66565b90815260200160405180910390208054610d9990611da9565b80601f0160208091040260200160405190810160405280929190818152602001828054610dc590611da9565b8015610e105780601f10610de757610100808354040283529160200191610e10565b820191905f5260205f20905b815481529060010190602001808311610df357829003601f168201915b50505050509150610fdf565b5f60025f8673ffffffffffffffffffffffffffffffffffffffff1673ffffffffffffffffffffffffffffffffffffffff1681526020019081526020015f206003015f3373ffffffffffffffffffffffffffffffffffffffff1673ffffffffffffffffffffffffffffffffffffffff1681526020019081526020015f209050805f015f9054906101000a900460ff168015610eb95750428160010154115b610ef8576040517f08c379a0000000000000000000000000000000000000000000000000000000008152600401610eef9061220e565b60405180910390fd5b60025f8673ffffffffffffffffffffffffffffffffffffffff1673ffffffffffffffffffffffffffffffffffffffff1681526020019081526020015f2060020184604051610f469190611d66565b90815260200160405180910390208054610f5f90611da9565b80601f0160208091040260200160405190810160405280929190818152602001828054610f8b90611da9565b8015610fd65780601f10610fad57610100808354040283529160200191610fd6565b820191905f5260205f20905b815481529060010190602001808311610fb957829003601f168201915b50505050509250505b5092915050565b8160025f8273ffffffffffffffffffffffffffffffffffffffff1673ffffffffffffffffffffffffffffffffffffffff1681526020019081526020015f206001015f9054906101000a900460ff16611073576040517f08c379a000000000000000000000000000000000000000000000000000000000815260040161106a90611966565b60405180910390fd5b600460068111156110875761108661222c565b5b5f8054906101000a900473ffffffffffffffffffffffffffffffffffffffff1673ffffffffffffffffffffffffffffffffffffffff166327820851336040518263ffffffff1660e01b81526004016110df9190612259565b602060405180830381865afa1580156110fa573d5f803e3d5ffd5b505050506040513d601f19601f8201168201806040525081019061111e9190612295565b60068111156111305761112f61222c565b5b14806111f657506003600681111561114b5761114a61222c565b5b5f8054906101000a900473ffffffffffffffffffffffffffffffffffffffff1673ffffffffffffffffffffffffffffffffffffffff166327820851336040518263ffffffff1660e01b81526004016111a39190612259565b602060405180830381865afa1580156111be573d5f803e3d5ffd5b505050506040513d601f19601f820116820180604052508101906111e29190612295565b60068111156111f4576111f361222c565b5b145b611235576040517f08c379a000000000000000000000000000000000000000000000000000000000815260040161122c90612330565b60405180910390fd5b5f60025f8573ffffffffffffffffffffffffffffffffffffffff1673ffffffffffffffffffffffffffffffffffffffff1681526020019081526020015f2090505f6201518042611285919061237b565b9050604051806060016040528060011515815260200182815260200185815250826003015f3373ffffffffffffffffffffffffffffffffffffffff1673ffffffffffffffffffffffffffffffffffffffff1681526020019081526020015f205f820151815f015f6101000a81548160ff0219169083151502179055506020820151816001015560408201518160020190816113209190611f6d565b509050508473ffffffffffffffffffffffffffffffffffffffff163373ffffffffffffffffffffffffffffffffffffffff167f5d1675d647fd82d7866123d4b61e400e9b9cd41946ae22001974c31e8addb20b836040516113819190611521565b60405180910390a360015f9054906101000a900473ffffffffffffffffffffffffffffffffffffffff1673ffffffffffffffffffffffffffffffffffffffff166367fe17f433878760016040518563ffffffff1660e01b81526004016113ea94939291906123f8565b5f604051808303815f87803b158015611401575f80fd5b505af1158015611413573d5f803e3d5ffd5b505050505050505050565b50805461142a90611da9565b5f825580601f1061143b5750611458565b601f0160209004905f5260205f2090810190611457919061145b565b5b50565b5b80821115611472575f815f90555060010161145c565b5090565b5f73ffffffffffffffffffffffffffffffffffffffff82169050919050565b5f819050919050565b5f6114b86114b36114ae84611476565b611495565b611476565b9050919050565b5f6114c98261149e565b9050919050565b5f6114da826114bf565b9050919050565b6114ea816114d0565b82525050565b5f6020820190506115035f8301846114e1565b92915050565b5f819050919050565b61151b81611509565b82525050565b5f6020820190506115345f830184611512565b92915050565b5f611544826114bf565b9050919050565b6115548161153a565b82525050565b5f60208201905061156d5f83018461154b565b92915050565b5f604051905090565b5f80fd5b5f80fd5b5f61158e82611476565b9050919050565b61159e81611584565b81146115a8575f80fd5b50565b5f813590506115b981611595565b92915050565b5f602082840312156115d4576115d361157c565b5b5f6115e1848285016115ab565b91505092915050565b5f80fd5b5f80fd5b5f601f19601f8301169050919050565b7f4e487b71000000000000000000000000000000000000000000000000000000005f52604160045260245ffd5b611638826115f2565b810181811067ffffffffffffffff8211171561165757611656611602565b5b80604052505050565b5f611669611573565b9050611675828261162f565b919050565b5f67ffffffffffffffff82111561169457611693611602565b5b61169d826115f2565b9050602081019050919050565b828183375f83830152505050565b5f6116ca6116c58461167a565b611660565b9050828152602081018484840111156116e6576116e56115ee565b5b6116f18482856116aa565b509392505050565b5f82601f83011261170d5761170c6115ea565b5b813561171d8482602086016116b8565b91505092915050565b5f805f6060848603121561173d5761173c61157c565b5b5f61174a868287016115ab565b935050602084013567ffffffffffffffff81111561176b5761176a611580565b5b611777868287016116f9565b925050604084013567ffffffffffffffff81111561179857611797611580565b5b6117a4868287016116f9565b9150509250925092565b5f80604083850312156117c4576117c361157c565b5b5f6117d1858286016115ab565b92505060206117e2858286016115ab565b9150509250929050565b5f8115159050919050565b611800816117ec565b82525050565b5f81519050919050565b5f82825260208201905092915050565b8281835e5f83830152505050565b5f61183882611806565b6118428185611810565b9350611852818560208601611820565b61185b816115f2565b840191505092915050565b5f6060820190506118795f8301866117f7565b6118866020830185611512565b8181036040830152611898818461182e565b9050949350505050565b5f80604083850312156118b8576118b761157c565b5b5f6118c5858286016115ab565b925050602083013567ffffffffffffffff8111156118e6576118e5611580565b5b6118f2858286016116f9565b9150509250929050565b5f6020820190508181035f830152611914818461182e565b905092915050565b7f50617469656e74207265636f7264206e6f7420666f756e6400000000000000005f82015250565b5f611950601883611810565b915061195b8261191c565b602082019050919050565b5f6020820190508181035f83015261197d81611944565b9050919050565b7f4e6f20656d657267656e63792061636365737320666f756e64000000000000005f82015250565b5f6119b8601983611810565b91506119c382611984565b602082019050919050565b5f6020820190508181035f8301526119e5816119ac565b9050919050565b6119f581611584565b82525050565b7f7265766f6b655f656d657267656e6379000000000000000000000000000000005f82015250565b5f611a2f601083611810565b9150611a3a826119fb565b602082019050919050565b7f456d657267656e637920616363657373207265766f6b656400000000000000005f82015250565b5f611a79601883611810565b9150611a8482611a45565b602082019050919050565b5f60a082019050611aa25f8301866119ec565b611aaf60208301856119ec565b8181036040830152611ac081611a23565b90508181036060830152611ad381611a6d565b9050611ae260808301846117f7565b949350505050565b5f604082019050611afd5f8301856119ec565b8181036020830152611b0f818461182e565b90509392505050565b611b21816117ec565b8114611b2b575f80fd5b50565b5f81519050611b3c81611b18565b92915050565b5f60208284031215611b5757611b5661157c565b5b5f611b6484828501611b2e565b91505092915050565b7f556e617574686f72697a656420616363657373000000000000000000000000005f82015250565b5f611ba1601383611810565b9150611bac82611b6d565b602082019050919050565b5f6020820190508181035f830152611bce81611b95565b9050919050565b7f50617469656e74207265636f726420616c7265616479206578697374730000005f82015250565b5f611c09601d83611810565b9150611c1482611bd5565b602082019050919050565b5f6020820190508181035f830152611c3681611bfd565b9050919050565b7f6372656174655f7265636f7264000000000000000000000000000000000000005f82015250565b5f611c71600d83611810565b9150611c7c82611c3d565b602082019050919050565b7f4e65772070617469656e74207265636f726420637265617465640000000000005f82015250565b5f611cbb601a83611810565b9150611cc682611c87565b602082019050919050565b5f60a082019050611ce45f8301866119ec565b611cf160208301856119ec565b8181036040830152611d0281611c65565b90508181036060830152611d1581611caf565b9050611d2460808301846117f7565b949350505050565b5f81905092915050565b5f611d4082611806565b611d4a8185611d2c565b9350611d5a818560208601611820565b80840191505092915050565b5f611d718284611d36565b915081905092915050565b7f4e487b71000000000000000000000000000000000000000000000000000000005f52602260045260245ffd5b5f6002820490506001821680611dc057607f821691505b602082108103611dd357611dd2611d7c565b5b50919050565b5f819050815f5260205f209050919050565b5f6020601f8301049050919050565b5f82821b905092915050565b5f60088302611e357fffffffffffffffffffffffffffffffffffffffffffffffffffffffffffffffff82611dfa565b611e3f8683611dfa565b95508019841693508086168417925050509392505050565b5f611e71611e6c611e6784611509565b611495565b611509565b9050919050565b5f819050919050565b611e8a83611e57565b611e9e611e9682611e78565b848454611e06565b825550505050565b5f90565b611eb2611ea6565b611ebd818484611e81565b505050565b5b81811015611ee057611ed55f82611eaa565b600181019050611ec3565b5050565b601f821115611f2557611ef681611dd9565b611eff84611deb565b81016020851015611f0e578190505b611f22611f1a85611deb565b830182611ec2565b50505b505050565b5f82821c905092915050565b5f611f455f1984600802611f2a565b1980831691505092915050565b5f611f5d8383611f36565b9150826002028217905092915050565b611f7682611806565b67ffffffffffffffff811115611f8f57611f8e611602565b5b611f998254611da9565b611fa4828285611ee4565b5f60209050601f831160018114611fd5575f8415611fc3578287015190505b611fcd8582611f52565b865550612034565b601f198416611fe386611dd9565b5f5b8281101561200a57848901518255600182019150602085019450602081019050611fe5565b868310156120275784890151612023601f891682611f36565b8355505b6001600288020188555050505b505050505050565b7f55706461746564200000000000000000000000000000000000000000000000005f82015250565b5f612070600883611d2c565b915061207b8261203c565b600882019050919050565b5f61209082612064565b915061209c8284611d36565b915081905092915050565b7f7570646174655f646174610000000000000000000000000000000000000000005f82015250565b5f6120db600b83611810565b91506120e6826120a7565b602082019050919050565b5f60a0820190506121045f8301876119ec565b61211160208301866119ec565b8181036040830152612122816120cf565b90508181036060830152612136818561182e565b905061214560808301846117f7565b95945050505050565b7f766965775f6461746100000000000000000000000000000000000000000000005f82015250565b5f612182600983611810565b915061218d8261214e565b602082019050919050565b5f6040820190506121ab5f8301846119ec565b81810360208301526121bc81612176565b905092915050565b7f4e6f2076616c69642061636365737320726967687473000000000000000000005f82015250565b5f6121f8601683611810565b9150612203826121c4565b602082019050919050565b5f6020820190508181035f830152612225816121ec565b9050919050565b7f4e487b71000000000000000000000000000000000000000000000000000000005f52602160045260245ffd5b5f60208201905061226c5f8301846119ec565b92915050565b6007811061227e575f80fd5b50565b5f8151905061228f81612272565b92915050565b5f602082840312156122aa576122a961157c565b5b5f6122b784828501612281565b91505092915050565b7f4f6e6c7920646f63746f7273206f7220706172616d65646963732063616e20725f8201527f65717565737420656d657267656e637920616363657373000000000000000000602082015250565b5f61231a603783611810565b9150612325826122c0565b604082019050919050565b5f6020820190508181035f8301526123478161230e565b9050919050565b7f4e487b71000000000000000000000000000000000000000000000000000000005f52601160045260245ffd5b5f61238582611509565b915061239083611509565b92508282019050808211156123a8576123a761234e565b5b92915050565b7f656d657267656e63795f616363657373000000000000000000000000000000005f82015250565b5f6123e2601083611810565b91506123ed826123ae565b602082019050919050565b5f60a08201905061240b5f8301876119ec565b61241860208301866119ec565b8181036040830152612429816123d6565b9050818103606083015261243d818561182e565b905061244c60808301846117f7565b9594505050505056fea2646970667358221220aba692a006eb3abad776806905358f455c2e27b98c9f6bfc0255477600847f1d64736f6c634300081a0033",
					"opcodes": "PUSH1 0x80 PUSH1 0x40 MSTORE CALLVALUE DUP1 ISZERO PUSH2 0xF JUMPI PUSH0 DUP1 REVERT JUMPDEST POP PUSH1 0x40 MLOAD PUSH2 0x25EB CODESIZE SUB DUP1 PUSH2 0x25EB DUP4 CODECOPY DUP2 DUP2 ADD PUSH1 0x40 MSTORE DUP2 ADD SWAP1 PUSH2 0x31 SWAP2 SWAP1 PUSH2 0x115 JUMP JUMPDEST DUP2 PUSH0 DUP1 PUSH2 0x100 EXP DUP2 SLOAD DUP2 PUSH20 0xFFFFFFFFFFFFFFFFFFFFFFFFFFFFFFFFFFFFFFFF MUL NOT AND SWAP1 DUP4 PUSH20 0xFFFFFFFFFFFFFFFFFFFFFFFFFFFFFFFFFFFFFFFF AND MUL OR SWAP1 SSTORE POP DUP1 PUSH1 0x1 PUSH0 PUSH2 0x100 EXP DUP2 SLOAD DUP2 PUSH20 0xFFFFFFFFFFFFFFFFFFFFFFFFFFFFFFFFFFFFFFFF MUL NOT AND SWAP1 DUP4 PUSH20 0xFFFFFFFFFFFFFFFFFFFFFFFFFFFFFFFFFFFFFFFF AND MUL OR SWAP1 SSTORE POP POP POP PUSH2 0x153 JUMP JUMPDEST PUSH0 DUP1 REVERT JUMPDEST PUSH0 PUSH20 0xFFFFFFFFFFFFFFFFFFFFFFFFFFFFFFFFFFFFFFFF DUP3 AND SWAP1 POP SWAP2 SWAP1 POP JUMP JUMPDEST PUSH0 PUSH2 0xE4 DUP3 PUSH2 0xBB JUMP JUMPDEST SWAP1 POP SWAP2 SWAP1 POP JUMP JUMPDEST PUSH2 0xF4 DUP2 PUSH2 0xDA JUMP JUMPDEST DUP2 EQ PUSH2 0xFE JUMPI PUSH0 DUP1 REVERT JUMPDEST POP JUMP JUMPDEST PUSH0 DUP2 MLOAD SWAP1 POP PUSH2 0x10F DUP2 PUSH2 0xEB JUMP JUMPDEST SWAP3 SWAP2 POP POP JUMP JUMPDEST PUSH0 DUP1 PUSH1 0x40 DUP4 DUP6 SUB SLT ISZERO PUSH2 0x12B JUMPI PUSH2 0x12A PUSH2 0xB7 JUMP JUMPDEST JUMPDEST PUSH0 PUSH2 0x138 DUP6 DUP3 DUP7 ADD PUSH2 0x101 JUMP JUMPDEST SWAP3 POP POP PUSH1 0x20 PUSH2 0x149 DUP6 DUP3 DUP7 ADD PUSH2 0x101 JUMP JUMPDEST SWAP2 POP POP SWAP3 POP SWAP3 SWAP1 POP JUMP JUMPDEST PUSH2 0x248B DUP1 PUSH2 0x160 PUSH0 CODECOPY PUSH0 RETURN INVALID PUSH1 0x80 PUSH1 0x40 MSTORE CALLVALUE DUP1 ISZERO PUSH2 0xF JUMPI PUSH0 DUP1 REVERT JUMPDEST POP PUSH1 0x4 CALLDATASIZE LT PUSH2 0x91 JUMPI PUSH0 CALLDATALOAD PUSH1 0xE0 SHR DUP1 PUSH4 0x7EB3A982 GT PUSH2 0x64 JUMPI DUP1 PUSH4 0x7EB3A982 EQ PUSH2 0x10B JUMPI DUP1 PUSH4 0x9E1B9EC0 EQ PUSH2 0x127 JUMPI DUP1 PUSH4 0xAC053AA9 EQ PUSH2 0x143 JUMPI DUP1 PUSH4 0xDB455173 EQ PUSH2 0x175 JUMPI DUP1 PUSH4 0xF54EEEB7 EQ PUSH2 0x1A5 JUMPI PUSH2 0x91 JUMP JUMPDEST DUP1 PUSH4 0x13007D55 EQ PUSH2 0x95 JUMPI DUP1 PUSH4 0x2114EF1F EQ PUSH2 0xB3 JUMPI DUP1 PUSH4 0x5A2D6EBD EQ PUSH2 0xD1 JUMPI DUP1 PUSH4 0x73B492FF EQ PUSH2 0xEF JUMPI JUMPDEST PUSH0 DUP1 REVERT JUMPDEST PUSH2 0x9D PUSH2 0x1C1 JUMP JUMPDEST PUSH1 0x40 MLOAD PUSH2 0xAA SWAP2 SWAP1 PUSH2 0x14F0 JUMP JUMPDEST PUSH1 0x40 MLOAD DUP1 SWAP2 SUB SWAP1 RETURN JUMPDEST PUSH2 0xBB PUSH2 0x1E4 JUMP JUMPDEST PUSH1 0x40 MLOAD PUSH2 0xC8 SWAP2 SWAP1 PUSH2 0x1521 JUMP JUMPDEST PUSH1 0x40 MLOAD DUP1 SWAP2 SUB SWAP1 RETURN JUMPDEST PUSH2 0xD9 PUSH2 0x1EB JUMP JUMPDEST PUSH1 0x40 MLOAD PUSH2 0xE6 SWAP2 SWAP1 PUSH2 0x155A JUMP JUMPDEST PUSH1 0x40 MLOAD DUP1 SWAP2 SUB SWAP1 RETURN JUMPDEST PUSH2 0x109 PUSH1 0x4 DUP1 CALLDATASIZE SUB DUP2 ADD SWAP1 PUSH2 0x104 SWAP2 SWAP1 PUSH2 0x15BF JUMP JUMPDEST PUSH2 0x210 JUMP JUMPDEST STOP JUMPDEST PUSH2 0x125 PUSH1 0x4 DUP1 CALLDATASIZE SUB DUP2 ADD SWAP1 PUSH2 0x120 SWAP2 SWAP1 PUSH2 0x15BF JUMP JUMPDEST PUSH2 0x4BE JUMP JUMPDEST STOP JUMPDEST PUSH2 0x141 PUSH1 0x4 DUP1 CALLDATASIZE SUB DUP2 ADD SWAP1 PUSH2 0x13C SWAP2 SWAP1 PUSH2 0x1726 JUMP JUMPDEST PUSH2 0x740 JUMP JUMPDEST STOP JUMPDEST PUSH2 0x15D PUSH1 0x4 DUP1 CALLDATASIZE SUB DUP2 ADD SWAP1 PUSH2 0x158 SWAP2 SWAP1 PUSH2 0x17AE JUMP JUMPDEST PUSH2 0xA46 JUMP JUMPDEST PUSH1 0x40 MLOAD PUSH2 0x16C SWAP4 SWAP3 SWAP2 SWAP1 PUSH2 0x1866 JUMP JUMPDEST PUSH1 0x40 MLOAD DUP1 SWAP2 SUB SWAP1 RETURN JUMPDEST PUSH2 0x18F PUSH1 0x4 DUP1 CALLDATASIZE SUB DUP2 ADD SWAP1 PUSH2 0x18A SWAP2 SWAP1 PUSH2 0x18A2 JUMP JUMPDEST PUSH2 0xC07 JUMP JUMPDEST PUSH1 0x40 MLOAD PUSH2 0x19C SWAP2 SWAP1 PUSH2 0x18FC JUMP JUMPDEST PUSH1 0x40 MLOAD DUP1 SWAP2 SUB SWAP1 RETURN JUMPDEST PUSH2 0x1BF PUSH1 0x4 DUP1 CALLDATASIZE SUB DUP2 ADD SWAP1 PUSH2 0x1BA SWAP2 SWAP1 PUSH2 0x18A2 JUMP JUMPDEST PUSH2 0xFE6 JUMP JUMPDEST STOP JUMPDEST PUSH0 DUP1 SLOAD SWAP1 PUSH2 0x100 EXP SWAP1 DIV PUSH20 0xFFFFFFFFFFFFFFFFFFFFFFFFFFFFFFFFFFFFFFFF AND DUP2 JUMP JUMPDEST PUSH3 0x15180 DUP2 JUMP JUMPDEST PUSH1 0x1 PUSH0 SWAP1 SLOAD SWAP1 PUSH2 0x100 EXP SWAP1 DIV PUSH20 0xFFFFFFFFFFFFFFFFFFFFFFFFFFFFFFFFFFFFFFFF AND DUP2 JUMP JUMPDEST CALLER PUSH1 0x2 PUSH0 DUP3 PUSH20 0xFFFFFFFFFFFFFFFFFFFFFFFFFFFFFFFFFFFFFFFF AND PUSH20 0xFFFFFFFFFFFFFFFFFFFFFFFFFFFFFFFFFFFFFFFF AND DUP2 MSTORE PUSH1 0x20 ADD SWAP1 DUP2 MSTORE PUSH1 0x20 ADD PUSH0 KECCAK256 PUSH1 0x1 ADD PUSH0 SWAP1 SLOAD SWAP1 PUSH2 0x100 EXP SWAP1 DIV PUSH1 0xFF AND PUSH2 0x29D JUMPI PUSH1 0x40 MLOAD PUSH32 0x8C379A000000000000000000000000000000000000000000000000000000000 DUP2 MSTORE PUSH1 0x4 ADD PUSH2 0x294 SWAP1 PUSH2 0x1966 JUMP JUMPDEST PUSH1 0x40 MLOAD DUP1 SWAP2 SUB SWAP1 REVERT JUMPDEST PUSH0 PUSH1 0x2 PUSH0 CALLER PUSH20 0xFFFFFFFFFFFFFFFFFFFFFFFFFFFFFFFFFFFFFFFF AND PUSH20 0xFFFFFFFFFFFFFFFFFFFFFFFFFFFFFFFFFFFFFFFF AND DUP2 MSTORE PUSH1 0x20 ADD SWAP1 DUP2 MSTORE PUSH1 0x20 ADD PUSH0 KECCAK256 SWAP1 POP DUP1 PUSH1 0x3 ADD PUSH0 DUP5 PUSH20 0xFFFFFFFFFFFFFFFFFFFFFFFFFFFFFFFFFFFFFFFF AND PUSH20 0xFFFFFFFFFFFFFFFFFFFFFFFFFFFFFFFFFFFFFFFF AND DUP2 MSTORE PUSH1 0x20 ADD SWAP1 DUP2 MSTORE PUSH1 0x20 ADD PUSH0 KECCAK256 PUSH0 ADD PUSH0 SWAP1 SLOAD SWAP1 PUSH2 0x100 EXP SWAP1 DIV PUSH1 0xFF AND PUSH2 0x36A JUMPI PUSH1 0x40 MLOAD PUSH32 0x8C379A000000000000000000000000000000000000000000000000000000000 DUP2 MSTORE PUSH1 0x4 ADD PUSH2 0x361 SWAP1 PUSH2 0x19CE JUMP JUMPDEST PUSH1 0x40 MLOAD DUP1 SWAP2 SUB SWAP1 REVERT JUMPDEST DUP1 PUSH1 0x3 ADD PUSH0 DUP5 PUSH20 0xFFFFFFFFFFFFFFFFFFFFFFFFFFFFFFFFFFFFFFFF AND PUSH20 0xFFFFFFFFFFFFFFFFFFFFFFFFFFFFFFFFFFFFFFFF AND DUP2 MSTORE PUSH1 0x20 ADD SWAP1 DUP2 MSTORE PUSH1 0x20 ADD PUSH0 KECCAK256 PUSH0 DUP1 DUP3 ADD PUSH0 PUSH2 0x100 EXP DUP2 SLOAD SWAP1 PUSH1 0xFF MUL NOT AND SWAP1 SSTORE PUSH1 0x1 DUP3 ADD PUSH0 SWAP1 SSTORE PUSH1 0x2 DUP3 ADD PUSH0 PUSH2 0x3D2 SWAP2 SWAP1 PUSH2 0x141E JUMP JUMPDEST POP POP CALLER PUSH20 0xFFFFFFFFFFFFFFFFFFFFFFFFFFFFFFFFFFFFFFFF AND DUP4 PUSH20 0xFFFFFFFFFFFFFFFFFFFFFFFFFFFFFFFFFFFFFFFF AND PUSH32 0x381CEEB666DB3E3C307A575AD34D05F5B497665803DD1983E06E72DD7B4120E4 PUSH1 0x40 MLOAD PUSH1 0x40 MLOAD DUP1 SWAP2 SUB SWAP1 LOG3 PUSH1 0x1 PUSH0 SWAP1 SLOAD SWAP1 PUSH2 0x100 EXP SWAP1 DIV PUSH20 0xFFFFFFFFFFFFFFFFFFFFFFFFFFFFFFFFFFFFFFFF AND PUSH20 0xFFFFFFFFFFFFFFFFFFFFFFFFFFFFFFFFFFFFFFFF AND PUSH4 0x67FE17F4 CALLER DUP6 PUSH0 PUSH1 0x40 MLOAD DUP5 PUSH4 0xFFFFFFFF AND PUSH1 0xE0 SHL DUP2 MSTORE PUSH1 0x4 ADD PUSH2 0x48C SWAP4 SWAP3 SWAP2 SWAP1 PUSH2 0x1A8F JUMP JUMPDEST PUSH0 PUSH1 0x40 MLOAD DUP1 DUP4 SUB DUP2 PUSH0 DUP8 DUP1 EXTCODESIZE ISZERO DUP1 ISZERO PUSH2 0x4A3 JUMPI PUSH0 DUP1 REVERT JUMPDEST POP GAS CALL ISZERO DUP1 ISZERO PUSH2 0x4B5 JUMPI RETURNDATASIZE PUSH0 DUP1 RETURNDATACOPY RETURNDATASIZE PUSH0 REVERT JUMPDEST POP POP POP POP POP POP POP JUMP JUMPDEST PUSH1 0x40 MLOAD DUP1 PUSH1 0x40 ADD PUSH1 0x40 MSTORE DUP1 PUSH1 0xD DUP2 MSTORE PUSH1 0x20 ADD PUSH32 0x6372656174655F7265636F726400000000000000000000000000000000000000 DUP2 MSTORE POP PUSH0 DUP1 SLOAD SWAP1 PUSH2 0x100 EXP SWAP1 DIV PUSH20 0xFFFFFFFFFFFFFFFFFFFFFFFFFFFFFFFFFFFFFFFF AND PUSH20 0xFFFFFFFFFFFFFFFFFFFFFFFFFFFFFFFFFFFFFFFF AND PUSH4 0x89B3AF29 CALLER DUP4 PUSH1 0x40 MLOAD DUP4 PUSH4 0xFFFFFFFF AND PUSH1 0xE0 SHL DUP2 MSTORE PUSH1 0x4 ADD PUSH2 0x54E SWAP3 SWAP2 SWAP1 PUSH2 0x1AEA JUMP JUMPDEST PUSH1 0x20 PUSH1 0x40 MLOAD DUP1 DUP4 SUB DUP2 DUP7 GAS STATICCALL ISZERO DUP1 ISZERO PUSH2 0x569 JUMPI RETURNDATASIZE PUSH0 DUP1 RETURNDATACOPY RETURNDATASIZE PUSH0 REVERT JUMPDEST POP POP POP POP PUSH1 0x40 MLOAD RETURNDATASIZE PUSH1 0x1F NOT PUSH1 0x1F DUP3 ADD AND DUP3 ADD DUP1 PUSH1 0x40 MSTORE POP DUP2 ADD SWAP1 PUSH2 0x58D SWAP2 SWAP1 PUSH2 0x1B42 JUMP JUMPDEST PUSH2 0x5CC JUMPI PUSH1 0x40 MLOAD PUSH32 0x8C379A000000000000000000000000000000000000000000000000000000000 DUP2 MSTORE PUSH1 0x4 ADD PUSH2 0x5C3 SWAP1 PUSH2 0x1BB7 JUMP JUMPDEST PUSH1 0x40 MLOAD DUP1 SWAP2 SUB SWAP1 REVERT JUMPDEST PUSH1 0x2 PUSH0 DUP4 PUSH20 0xFFFFFFFFFFFFFFFFFFFFFFFFFFFFFFFFFFFFFFFF AND PUSH20 0xFFFFFFFFFFFFFFFFFFFFFFFFFFFFFFFFFFFFFFFF AND DUP2 MSTORE PUSH1 0x20 ADD SWAP1 DUP2 MSTORE PUSH1 0x20 ADD PUSH0 KECCAK256 PUSH1 0x1 ADD PUSH0 SWAP1 SLOAD SWAP1 PUSH2 0x100 EXP SWAP1 DIV PUSH1 0xFF AND ISZERO PUSH2 0x659 JUMPI PUSH1 0x40 MLOAD PUSH32 0x8C379A000000000000000000000000000000000000000000000000000000000 DUP2 MSTORE PUSH1 0x4 ADD PUSH2 0x650 SWAP1 PUSH2 0x1C1F JUMP JUMPDEST PUSH1 0x40 MLOAD DUP1 SWAP2 SUB SWAP1 REVERT JUMPDEST PUSH1 0x1 PUSH1 0x2 PUSH0 DUP5 PUSH20 0xFFFFFFFFFFFFFFFFFFFFFFFFFFFFFFFFFFFFFFFF AND PUSH20 0xFFFFFFFFFFFFFFFFFFFFFFFFFFFFFFFFFFFFFFFF AND DUP2 MSTORE PUSH1 0x20 ADD SWAP1 DUP2 MSTORE PUSH1 0x20 ADD PUSH0 KECCAK256 PUSH1 0x1 ADD PUSH0 PUSH2 0x100 EXP DUP2 SLOAD DUP2 PUSH1 0xFF MUL NOT AND SWAP1 DUP4 ISZERO ISZERO MUL OR SWAP1 SSTORE POP PUSH1 0x1 PUSH0 SWAP1 SLOAD SWAP1 PUSH2 0x100 EXP SWAP1 DIV PUSH20 0xFFFFFFFFFFFFFFFFFFFFFFFFFFFFFFFFFFFFFFFF AND PUSH20 0xFFFFFFFFFFFFFFFFFFFFFFFFFFFFFFFFFFFFFFFF AND PUSH4 0x67FE17F4 CALLER DUP5 PUSH0 PUSH1 0x40 MLOAD DUP5 PUSH4 0xFFFFFFFF AND PUSH1 0xE0 SHL DUP2 MSTORE PUSH1 0x4 ADD PUSH2 0x70F SWAP4 SWAP3 SWAP2 SWAP1 PUSH2 0x1CD1 JUMP JUMPDEST PUSH0 PUSH1 0x40 MLOAD DUP1 DUP4 SUB DUP2 PUSH0 DUP8 DUP1 EXTCODESIZE ISZERO DUP1 ISZERO PUSH2 0x726 JUMPI PUSH0 DUP1 REVERT JUMPDEST POP GAS CALL ISZERO DUP1 ISZERO PUSH2 0x738 JUMPI RETURNDATASIZE PUSH0 DUP1 RETURNDATACOPY RETURNDATASIZE PUSH0 REVERT JUMPDEST POP POP POP POP POP POP JUMP JUMPDEST PUSH1 0x40 MLOAD DUP1 PUSH1 0x40 ADD PUSH1 0x40 MSTORE DUP1 PUSH1 0xB DUP2 MSTORE PUSH1 0x20 ADD PUSH32 0x7570646174655F64617461000000000000000000000000000000000000000000 DUP2 MSTORE POP PUSH0 DUP1 SLOAD SWAP1 PUSH2 0x100 EXP SWAP1 DIV PUSH20 0xFFFFFFFFFFFFFFFFFFFFFFFFFFFFFFFFFFFFFFFF AND PUSH20 0xFFFFFFFFFFFFFFFFFFFFFFFFFFFFFFFFFFFFFFFF AND PUSH4 0x89B3AF29 CALLER DUP4 PUSH1 0x40 MLOAD DUP4 PUSH4 0xFFFFFFFF AND PUSH1 0xE0 SHL DUP2 MSTORE PUSH1 0x4 ADD PUSH2 0x7D0 SWAP3 SWAP2 SWAP1 PUSH2 0x1AEA JUMP JUMPDEST PUSH1 0x20 PUSH1 0x40 MLOAD DUP1 DUP4 SUB DUP2 DUP7 GAS STATICCALL ISZERO DUP1 ISZERO PUSH2 0x7EB JUMPI RETURNDATASIZE PUSH0 DUP1 RETURNDATACOPY RETURNDATASIZE PUSH0 REVERT JUMPDEST POP POP POP POP PUSH1 0x40 MLOAD RETURNDATASIZE PUSH1 0x1F NOT PUSH1 0x1F DUP3 ADD AND DUP3 ADD DUP1 PUSH1 0x40 MSTORE POP DUP2 ADD SWAP1 PUSH2 0x80F SWAP2 SWAP1 PUSH2 0x1B42 JUMP JUMPDEST PUSH2 0x84E JUMPI PUSH1 0x40 MLOAD PUSH32 0x8C379A000000000000000000000000000000000000000000000000000000000 DUP2 MSTORE PUSH1 0x4 ADD PUSH2 0x845 SWAP1 PUSH2 0x1BB7 JUMP JUMPDEST PUSH1 0x40 MLOAD DUP1 SWAP2 SUB SWAP1 REVERT JUMPDEST DUP4 PUSH1 0x2 PUSH0 DUP3 PUSH20 0xFFFFFFFFFFFFFFFFFFFFFFFFFFFFFFFFFFFFFFFF AND PUSH20 0xFFFFFFFFFFFFFFFFFFFFFFFFFFFFFFFFFFFFFFFF AND DUP2 MSTORE PUSH1 0x20 ADD SWAP1 DUP2 MSTORE PUSH1 0x20 ADD PUSH0 KECCAK256 PUSH1 0x1 ADD PUSH0 SWAP1 SLOAD SWAP1 PUSH2 0x100 EXP SWAP1 DIV PUSH1 0xFF AND PUSH2 0x8DB JUMPI PUSH1 0x40 MLOAD PUSH32 0x8C379A000000000000000000000000000000000000000000000000000000000 DUP2 MSTORE PUSH1 0x4 ADD PUSH2 0x8D2 SWAP1 PUSH2 0x1966 JUMP JUMPDEST PUSH1 0x40 MLOAD DUP1 SWAP2 SUB SWAP1 REVERT JUMPDEST DUP3 PUSH1 0x2 PUSH0 DUP8 PUSH20 0xFFFFFFFFFFFFFFFFFFFFFFFFFFFFFFFFFFFFFFFF AND PUSH20 0xFFFFFFFFFFFFFFFFFFFFFFFFFFFFFFFFFFFFFFFF AND DUP2 MSTORE PUSH1 0x20 ADD SWAP1 DUP2 MSTORE PUSH1 0x20 ADD PUSH0 KECCAK256 PUSH1 0x2 ADD DUP6 PUSH1 0x40 MLOAD PUSH2 0x92A SWAP2 SWAP1 PUSH2 0x1D66 JUMP JUMPDEST SWAP1 DUP2 MSTORE PUSH1 0x20 ADD PUSH1 0x40 MLOAD DUP1 SWAP2 SUB SWAP1 KECCAK256 SWAP1 DUP2 PUSH2 0x944 SWAP2 SWAP1 PUSH2 0x1F6D JUMP JUMPDEST POP DUP5 PUSH20 0xFFFFFFFFFFFFFFFFFFFFFFFFFFFFFFFFFFFFFFFF AND PUSH32 0x9EFB5C7F10A4F04630EE8342CC0456F34298C1249198A5FD73E2F12E29DD584C DUP6 PUSH1 0x40 MLOAD PUSH2 0x98B SWAP2 SWAP1 PUSH2 0x18FC JUMP JUMPDEST PUSH1 0x40 MLOAD DUP1 SWAP2 SUB SWAP1 LOG2 PUSH1 0x1 PUSH0 SWAP1 SLOAD SWAP1 PUSH2 0x100 EXP SWAP1 DIV PUSH20 0xFFFFFFFFFFFFFFFFFFFFFFFFFFFFFFFFFFFFFFFF AND PUSH20 0xFFFFFFFFFFFFFFFFFFFFFFFFFFFFFFFFFFFFFFFF AND PUSH4 0x67FE17F4 CALLER DUP8 DUP8 PUSH1 0x40 MLOAD PUSH1 0x20 ADD PUSH2 0x9E3 SWAP2 SWAP1 PUSH2 0x2086 JUMP JUMPDEST PUSH1 0x40 MLOAD PUSH1 0x20 DUP2 DUP4 SUB SUB DUP2 MSTORE SWAP1 PUSH1 0x40 MSTORE PUSH0 PUSH1 0x40 MLOAD DUP6 PUSH4 0xFFFFFFFF AND PUSH1 0xE0 SHL DUP2 MSTORE PUSH1 0x4 ADD PUSH2 0xA12 SWAP5 SWAP4 SWAP3 SWAP2 SWAP1 PUSH2 0x20F1 JUMP JUMPDEST PUSH0 PUSH1 0x40 MLOAD DUP1 DUP4 SUB DUP2 PUSH0 DUP8 DUP1 EXTCODESIZE ISZERO DUP1 ISZERO PUSH2 0xA29 JUMPI PUSH0 DUP1 REVERT JUMPDEST POP GAS CALL ISZERO DUP1 ISZERO PUSH2 0xA3B JUMPI RETURNDATASIZE PUSH0 DUP1 RETURNDATACOPY RETURNDATASIZE PUSH0 REVERT JUMPDEST POP POP POP POP POP POP POP POP POP JUMP JUMPDEST PUSH0 DUP1 PUSH1 0x60 DUP4 PUSH1 0x2 PUSH0 DUP3 PUSH20 0xFFFFFFFFFFFFFFFFFFFFFFFFFFFFFFFFFFFFFFFF AND PUSH20 0xFFFFFFFFFFFFFFFFFFFFFFFFFFFFFFFFFFFFFFFF AND DUP2 MSTORE PUSH1 0x20 ADD SWAP1 DUP2 MSTORE PUSH1 0x20 ADD PUSH0 KECCAK256 PUSH1 0x1 ADD PUSH0 SWAP1 SLOAD SWAP1 PUSH2 0x100 EXP SWAP1 DIV PUSH1 0xFF AND PUSH2 0xAD7 JUMPI PUSH1 0x40 MLOAD PUSH32 0x8C379A000000000000000000000000000000000000000000000000000000000 DUP2 MSTORE PUSH1 0x4 ADD PUSH2 0xACE SWAP1 PUSH2 0x1966 JUMP JUMPDEST PUSH1 0x40 MLOAD DUP1 SWAP2 SUB SWAP1 REVERT JUMPDEST PUSH0 PUSH1 0x2 PUSH0 DUP8 PUSH20 0xFFFFFFFFFFFFFFFFFFFFFFFFFFFFFFFFFFFFFFFF AND PUSH20 0xFFFFFFFFFFFFFFFFFFFFFFFFFFFFFFFFFFFFFFFF AND DUP2 MSTORE PUSH1 0x20 ADD SWAP1 DUP2 MSTORE PUSH1 0x20 ADD PUSH0 KECCAK256 PUSH1 0x3 ADD PUSH0 DUP9 PUSH20 0xFFFFFFFFFFFFFFFFFFFFFFFFFFFFFFFFFFFFFFFF AND PUSH20 0xFFFFFFFFFFFFFFFFFFFFFFFFFFFFFFFFFFFFFFFF AND DUP2 MSTORE PUSH1 0x20 ADD SWAP1 DUP2 MSTORE PUSH1 0x20 ADD PUSH0 KECCAK256 SWAP1 POP DUP1 PUSH0 ADD PUSH0 SWAP1 SLOAD SWAP1 PUSH2 0x100 EXP SWAP1 DIV PUSH1 0xFF AND DUP2 PUSH1 0x1 ADD SLOAD DUP3 PUSH1 0x2 ADD DUP1 DUP1 SLOAD PUSH2 0xB7A SWAP1 PUSH2 0x1DA9 JUMP JUMPDEST DUP1 PUSH1 0x1F ADD PUSH1 0x20 DUP1 SWAP2 DIV MUL PUSH1 0x20 ADD PUSH1 0x40 MLOAD SWAP1 DUP2 ADD PUSH1 0x40 MSTORE DUP1 SWAP3 SWAP2 SWAP1 DUP2 DUP2 MSTORE PUSH1 0x20 ADD DUP3 DUP1 SLOAD PUSH2 0xBA6 SWAP1 PUSH2 0x1DA9 JUMP JUMPDEST DUP1 ISZERO PUSH2 0xBF1 JUMPI DUP1 PUSH1 0x1F LT PUSH2 0xBC8 JUMPI PUSH2 0x100 DUP1 DUP4 SLOAD DIV MUL DUP4 MSTORE SWAP2 PUSH1 0x20 ADD SWAP2 PUSH2 0xBF1 JUMP JUMPDEST DUP3 ADD SWAP2 SWAP1 PUSH0 MSTORE PUSH1 0x20 PUSH0 KECCAK256 SWAP1 JUMPDEST DUP2 SLOAD DUP2 MSTORE SWAP1 PUSH1 0x1 ADD SWAP1 PUSH1 0x20 ADD DUP1 DUP4 GT PUSH2 0xBD4 JUMPI DUP3 SWAP1 SUB PUSH1 0x1F AND DUP3 ADD SWAP2 JUMPDEST POP POP POP POP POP SWAP1 POP SWAP5 POP SWAP5 POP SWAP5 POP POP POP SWAP3 POP SWAP3 POP SWAP3 JUMP JUMPDEST PUSH1 0x60 DUP3 PUSH1 0x2 PUSH0 DUP3 PUSH20 0xFFFFFFFFFFFFFFFFFFFFFFFFFFFFFFFFFFFFFFFF AND PUSH20 0xFFFFFFFFFFFFFFFFFFFFFFFFFFFFFFFFFFFFFFFF AND DUP2 MSTORE PUSH1 0x20 ADD SWAP1 DUP2 MSTORE PUSH1 0x20 ADD PUSH0 KECCAK256 PUSH1 0x1 ADD PUSH0 SWAP1 SLOAD SWAP1 PUSH2 0x100 EXP SWAP1 DIV PUSH1 0xFF AND PUSH2 0xC96 JUMPI PUSH1 0x40 MLOAD PUSH32 0x8C379A000000000000000000000000000000000000000000000000000000000 DUP2 MSTORE PUSH1 0x4 ADD PUSH2 0xC8D SWAP1 PUSH2 0x1966 JUMP JUMPDEST PUSH1 0x40 MLOAD DUP1 SWAP2 SUB SWAP1 REVERT JUMPDEST PUSH0 DUP1 SLOAD SWAP1 PUSH2 0x100 EXP SWAP1 DIV PUSH20 0xFFFFFFFFFFFFFFFFFFFFFFFFFFFFFFFFFFFFFFFF AND PUSH20 0xFFFFFFFFFFFFFFFFFFFFFFFFFFFFFFFFFFFFFFFF AND PUSH4 0x89B3AF29 CALLER PUSH1 0x40 MLOAD DUP3 PUSH4 0xFFFFFFFF AND PUSH1 0xE0 SHL DUP2 MSTORE PUSH1 0x4 ADD PUSH2 0xCEE SWAP2 SWAP1 PUSH2 0x2198 JUMP JUMPDEST PUSH1 0x20 PUSH1 0x40 MLOAD DUP1 DUP4 SUB DUP2 DUP7 GAS STATICCALL ISZERO DUP1 ISZERO PUSH2 0xD09 JUMPI RETURNDATASIZE PUSH0 DUP1 RETURNDATACOPY RETURNDATASIZE PUSH0 REVERT JUMPDEST POP POP POP POP PUSH1 0x40 MLOAD RETURNDATASIZE PUSH1 0x1F NOT PUSH1 0x1F DUP3 ADD AND DUP3 ADD DUP1 PUSH1 0x40 MSTORE POP DUP2 ADD SWAP1 PUSH2 0xD2D SWAP2 SWAP1 PUSH2 0x1B42 JUMP JUMPDEST ISZERO PUSH2 0xE1C JUMPI PUSH1 0x2 PUSH0 DUP6 PUSH20 0xFFFFFFFFFFFFFFFFFFFFFFFFFFFFFFFFFFFFFFFF AND PUSH20 0xFFFFFFFFFFFFFFFFFFFFFFFFFFFFFFFFFFFFFFFF AND DUP2 MSTORE PUSH1 0x20 ADD SWAP1 DUP2 MSTORE PUSH1 0x20 ADD PUSH0 KECCAK256 PUSH1 0x2 ADD DUP4 PUSH1 0x40 MLOAD PUSH2 0xD80 SWAP2 SWAP1 PUSH2 0x1D66 JUMP JUMPDEST SWAP1 DUP2 MSTORE PUSH1 0x20 ADD PUSH1 0x40 MLOAD DUP1 SWAP2 SUB SWAP1 KECCAK256 DUP1 SLOAD PUSH2 0xD99 SWAP1 PUSH2 0x1DA9 JUMP JUMPDEST DUP1 PUSH1 0x1F ADD PUSH1 0x20 DUP1 SWAP2 DIV MUL PUSH1 0x20 ADD PUSH1 0x40 MLOAD SWAP1 DUP2 ADD PUSH1 0x40 MSTORE DUP1 SWAP3 SWAP2 SWAP1 DUP2 DUP2 MSTORE PUSH1 0x20 ADD DUP3 DUP1 SLOAD PUSH2 0xDC5 SWAP1 PUSH2 0x1DA9 JUMP JUMPDEST DUP1 ISZERO PUSH2 0xE10 JUMPI DUP1 PUSH1 0x1F LT PUSH2 0xDE7 JUMPI PUSH2 0x100 DUP1 DUP4 SLOAD DIV MUL DUP4 MSTORE SWAP2 PUSH1 0x20 ADD SWAP2 PUSH2 0xE10 JUMP JUMPDEST DUP3 ADD SWAP2 SWAP1 PUSH0 MSTORE PUSH1 0x20 PUSH0 KECCAK256 SWAP1 JUMPDEST DUP2 SLOAD DUP2 MSTORE SWAP1 PUSH1 0x1 ADD SWAP1 PUSH1 0x20 ADD DUP1 DUP4 GT PUSH2 0xDF3 JUMPI DUP3 SWAP1 SUB PUSH1 0x1F AND DUP3 ADD SWAP2 JUMPDEST POP POP POP POP POP SWAP2 POP PUSH2 0xFDF JUMP JUMPDEST PUSH0 PUSH1 0x2 PUSH0 DUP7 PUSH20 0xFFFFFFFFFFFFFFFFFFFFFFFFFFFFFFFFFFFFFFFF AND PUSH20 0xFFFFFFFFFFFFFFFFFFFFFFFFFFFFFFFFFFFFFFFF AND DUP2 MSTORE PUSH1 0x20 ADD SWAP1 DUP2 MSTORE PUSH1 0x20 ADD PUSH0 KECCAK256 PUSH1 0x3 ADD PUSH0 CALLER PUSH20 0xFFFFFFFFFFFFFFFFFFFFFFFFFFFFFFFFFFFFFFFF AND PUSH20 0xFFFFFFFFFFFFFFFFFFFFFFFFFFFFFFFFFFFFFFFF AND DUP2 MSTORE PUSH1 0x20 ADD SWAP1 DUP2 MSTORE PUSH1 0x20 ADD PUSH0 KECCAK256 SWAP1 POP DUP1 PUSH0 ADD PUSH0 SWAP1 SLOAD SWAP1 PUSH2 0x100 EXP SWAP1 DIV PUSH1 0xFF AND DUP1 ISZERO PUSH2 0xEB9 JUMPI POP TIMESTAMP DUP2 PUSH1 0x1 ADD SLOAD GT JUMPDEST PUSH2 0xEF8 JUMPI PUSH1 0x40 MLOAD PUSH32 0x8C379A000000000000000000000000000000000000000000000000000000000 DUP2 MSTORE PUSH1 0x4 ADD PUSH2 0xEEF SWAP1 PUSH2 0x220E JUMP JUMPDEST PUSH1 0x40 MLOAD DUP1 SWAP2 SUB SWAP1 REVERT JUMPDEST PUSH1 0x2 PUSH0 DUP7 PUSH20 0xFFFFFFFFFFFFFFFFFFFFFFFFFFFFFFFFFFFFFFFF AND PUSH20 0xFFFFFFFFFFFFFFFFFFFFFFFFFFFFFFFFFFFFFFFF AND DUP2 MSTORE PUSH1 0x20 ADD SWAP1 DUP2 MSTORE PUSH1 0x20 ADD PUSH0 KECCAK256 PUSH1 0x2 ADD DUP5 PUSH1 0x40 MLOAD PUSH2 0xF46 SWAP2 SWAP1 PUSH2 0x1D66 JUMP JUMPDEST SWAP1 DUP2 MSTORE PUSH1 0x20 ADD PUSH1 0x40 MLOAD DUP1 SWAP2 SUB SWAP1 KECCAK256 DUP1 SLOAD PUSH2 0xF5F SWAP1 PUSH2 0x1DA9 JUMP JUMPDEST DUP1 PUSH1 0x1F ADD PUSH1 0x20 DUP1 SWAP2 DIV MUL PUSH1 0x20 ADD PUSH1 0x40 MLOAD SWAP1 DUP2 ADD PUSH1 0x40 MSTORE DUP1 SWAP3 SWAP2 SWAP1 DUP2 DUP2 MSTORE PUSH1 0x20 ADD DUP3 DUP1 SLOAD PUSH2 0xF8B SWAP1 PUSH2 0x1DA9 JUMP JUMPDEST DUP1 ISZERO PUSH2 0xFD6 JUMPI DUP1 PUSH1 0x1F LT PUSH2 0xFAD JUMPI PUSH2 0x100 DUP1 DUP4 SLOAD DIV MUL DUP4 MSTORE SWAP2 PUSH1 0x20 ADD SWAP2 PUSH2 0xFD6 JUMP JUMPDEST DUP3 ADD SWAP2 SWAP1 PUSH0 MSTORE PUSH1 0x20 PUSH0 KECCAK256 SWAP1 JUMPDEST DUP2 SLOAD DUP2 MSTORE SWAP1 PUSH1 0x1 ADD SWAP1 PUSH1 0x20 ADD DUP1 DUP4 GT PUSH2 0xFB9 JUMPI DUP3 SWAP1 SUB PUSH1 0x1F AND DUP3 ADD SWAP2 JUMPDEST POP POP POP POP POP SWAP3 POP POP JUMPDEST POP SWAP3 SWAP2 POP POP JUMP JUMPDEST DUP2 PUSH1 0x2 PUSH0 DUP3 PUSH20 0xFFFFFFFFFFFFFFFFFFFFFFFFFFFFFFFFFFFFFFFF AND PUSH20 0xFFFFFFFFFFFFFFFFFFFFFFFFFFFFFFFFFFFFFFFF AND DUP2 MSTORE PUSH1 0x20 ADD SWAP1 DUP2 MSTORE PUSH1 0x20 ADD PUSH0 KECCAK256 PUSH1 0x1 ADD PUSH0 SWAP1 SLOAD SWAP1 PUSH2 0x100 EXP SWAP1 DIV PUSH1 0xFF AND PUSH2 0x1073 JUMPI PUSH1 0x40 MLOAD PUSH32 0x8C379A000000000000000000000000000000000000000000000000000000000 DUP2 MSTORE PUSH1 0x4 ADD PUSH2 0x106A SWAP1 PUSH2 0x1966 JUMP JUMPDEST PUSH1 0x40 MLOAD DUP1 SWAP2 SUB SWAP1 REVERT JUMPDEST PUSH1 0x4 PUSH1 0x6 DUP2 GT ISZERO PUSH2 0x1087 JUMPI PUSH2 0x1086 PUSH2 0x222C JUMP JUMPDEST JUMPDEST PUSH0 DUP1 SLOAD SWAP1 PUSH2 0x100 EXP SWAP1 DIV PUSH20 0xFFFFFFFFFFFFFFFFFFFFFFFFFFFFFFFFFFFFFFFF AND PUSH20 0xFFFFFFFFFFFFFFFFFFFFFFFFFFFFFFFFFFFFFFFF AND PUSH4 0x27820851 CALLER PUSH1 0x40 MLOAD DUP3 PUSH4 0xFFFFFFFF AND PUSH1 0xE0 SHL DUP2 MSTORE PUSH1 0x4 ADD PUSH2 0x10DF SWAP2 SWAP1 PUSH2 0x2259 JUMP JUMPDEST PUSH1 0x20 PUSH1 0x40 MLOAD DUP1 DUP4 SUB DUP2 DUP7 GAS STATICCALL ISZERO DUP1 ISZERO PUSH2 0x10FA JUMPI RETURNDATASIZE PUSH0 DUP1 RETURNDATACOPY RETURNDATASIZE PUSH0 REVERT JUMPDEST POP POP POP POP PUSH1 0x40 MLOAD RETURNDATASIZE PUSH1 0x1F NOT PUSH1 0x1F DUP3 ADD AND DUP3 ADD DUP1 PUSH1 0x40 MSTORE POP DUP2 ADD SWAP1 PUSH2 0x111E SWAP2 SWAP1 PUSH2 0x2295 JUMP JUMPDEST PUSH1 0x6 DUP2 GT ISZERO PUSH2 0x1130 JUMPI PUSH2 0x112F PUSH2 0x222C JUMP JUMPDEST JUMPDEST EQ DUP1 PUSH2 0x11F6 JUMPI POP PUSH1 0x3 PUSH1 0x6 DUP2 GT ISZERO PUSH2 0x114B JUMPI PUSH2 0x114A PUSH2 0x222C JUMP JUMPDEST JUMPDEST PUSH0 DUP1 SLOAD SWAP1 PUSH2 0x100 EXP SWAP1 DIV PUSH20 0xFFFFFFFFFFFFFFFFFFFFFFFFFFFFFFFFFFFFFFFF AND PUSH20 0xFFFFFFFFFFFFFFFFFFFFFFFFFFFFFFFFFFFFFFFF AND PUSH4 0x27820851 CALLER PUSH1 0x40 MLOAD DUP3 PUSH4 0xFFFFFFFF AND PUSH1 0xE0 SHL DUP2 MSTORE PUSH1 0x4 ADD PUSH2 0x11A3 SWAP2 SWAP1 PUSH2 0x2259 JUMP JUMPDEST PUSH1 0x20 PUSH1 0x40 MLOAD DUP1 DUP4 SUB DUP2 DUP7 GAS STATICCALL ISZERO DUP1 ISZERO PUSH2 0x11BE JUMPI RETURNDATASIZE PUSH0 DUP1 RETURNDATACOPY RETURNDATASIZE PUSH0 REVERT JUMPDEST POP POP POP POP PUSH1 0x40 MLOAD RETURNDATASIZE PUSH1 0x1F NOT PUSH1 0x1F DUP3 ADD AND DUP3 ADD DUP1 PUSH1 0x40 MSTORE POP DUP2 ADD SWAP1 PUSH2 0x11E2 SWAP2 SWAP1 PUSH2 0x2295 JUMP JUMPDEST PUSH1 0x6 DUP2 GT ISZERO PUSH2 0x11F4 JUMPI PUSH2 0x11F3 PUSH2 0x222C JUMP JUMPDEST JUMPDEST EQ JUMPDEST PUSH2 0x1235 JUMPI PUSH1 0x40 MLOAD PUSH32 0x8C379A000000000000000000000000000000000000000000000000000000000 DUP2 MSTORE PUSH1 0x4 ADD PUSH2 0x122C SWAP1 PUSH2 0x2330 JUMP JUMPDEST PUSH1 0x40 MLOAD DUP1 SWAP2 SUB SWAP1 REVERT JUMPDEST PUSH0 PUSH1 0x2 PUSH0 DUP6 PUSH20 0xFFFFFFFFFFFFFFFFFFFFFFFFFFFFFFFFFFFFFFFF AND PUSH20 0xFFFFFFFFFFFFFFFFFFFFFFFFFFFFFFFFFFFFFFFF AND DUP2 MSTORE PUSH1 0x20 ADD SWAP1 DUP2 MSTORE PUSH1 0x20 ADD PUSH0 KECCAK256 SWAP1 POP PUSH0 PUSH3 0x15180 TIMESTAMP PUSH2 0x1285 SWAP2 SWAP1 PUSH2 0x237B JUMP JUMPDEST SWAP1 POP PUSH1 0x40 MLOAD DUP1 PUSH1 0x60 ADD PUSH1 0x40 MSTORE DUP1 PUSH1 0x1 ISZERO ISZERO DUP2 MSTORE PUSH1 0x20 ADD DUP3 DUP2 MSTORE PUSH1 0x20 ADD DUP6 DUP2 MSTORE POP DUP3 PUSH1 0x3 ADD PUSH0 CALLER PUSH20 0xFFFFFFFFFFFFFFFFFFFFFFFFFFFFFFFFFFFFFFFF AND PUSH20 0xFFFFFFFFFFFFFFFFFFFFFFFFFFFFFFFFFFFFFFFF AND DUP2 MSTORE PUSH1 0x20 ADD SWAP1 DUP2 MSTORE PUSH1 0x20 ADD PUSH0 KECCAK256 PUSH0 DUP3 ADD MLOAD DUP2 PUSH0 ADD PUSH0 PUSH2 0x100 EXP DUP2 SLOAD DUP2 PUSH1 0xFF MUL NOT AND SWAP1 DUP4 ISZERO ISZERO MUL OR SWAP1 SSTORE POP PUSH1 0x20 DUP3 ADD MLOAD DUP2 PUSH1 0x1 ADD SSTORE PUSH1 0x40 DUP3 ADD MLOAD DUP2 PUSH1 0x2 ADD SWAP1 DUP2 PUSH2 0x1320 SWAP2 SWAP1 PUSH2 0x1F6D JUMP JUMPDEST POP SWAP1 POP POP DUP5 PUSH20 0xFFFFFFFFFFFFFFFFFFFFFFFFFFFFFFFFFFFFFFFF AND CALLER PUSH20 0xFFFFFFFFFFFFFFFFFFFFFFFFFFFFFFFFFFFFFFFF AND PUSH32 0x5D1675D647FD82D7866123D4B61E400E9B9CD41946AE22001974C31E8ADDB20B DUP4 PUSH1 0x40 MLOAD PUSH2 0x1381 SWAP2 SWAP1 PUSH2 0x1521 JUMP JUMPDEST PUSH1 0x40 MLOAD DUP1 SWAP2 SUB SWAP1 LOG3 PUSH1 0x1 PUSH0 SWAP1 SLOAD SWAP1 PUSH2 0x100 EXP SWAP1 DIV PUSH20 0xFFFFFFFFFFFFFFFFFFFFFFFFFFFFFFFFFFFFFFFF AND PUSH20 0xFFFFFFFFFFFFFFFFFFFFFFFFFFFFFFFFFFFFFFFF AND PUSH4 0x67FE17F4 CALLER DUP8 DUP8 PUSH1 0x1 PUSH1 0x40 MLOAD DUP6 PUSH4 0xFFFFFFFF AND PUSH1 0xE0 SHL DUP2 MSTORE PUSH1 0x4 ADD PUSH2 0x13EA SWAP5 SWAP4 SWAP3 SWAP2 SWAP1 PUSH2 0x23F8 JUMP JUMPDEST PUSH0 PUSH1 0x40 MLOAD DUP1 DUP4 SUB DUP2 PUSH0 DUP8 DUP1 EXTCODESIZE ISZERO DUP1 ISZERO PUSH2 0x1401 JUMPI PUSH0 DUP1 REVERT JUMPDEST POP GAS CALL ISZERO DUP1 ISZERO PUSH2 0x1413 JUMPI RETURNDATASIZE PUSH0 DUP1 RETURNDATACOPY RETURNDATASIZE PUSH0 REVERT JUMPDEST POP POP POP POP POP POP POP POP POP JUMP JUMPDEST POP DUP1 SLOAD PUSH2 0x142A SWAP1 PUSH2 0x1DA9 JUMP JUMPDEST PUSH0 DUP3 SSTORE DUP1 PUSH1 0x1F LT PUSH2 0x143B JUMPI POP PUSH2 0x1458 JUMP JUMPDEST PUSH1 0x1F ADD PUSH1 0x20 SWAP1 DIV SWAP1 PUSH0 MSTORE PUSH1 0x20 PUSH0 KECCAK256 SWAP1 DUP2 ADD SWAP1 PUSH2 0x1457 SWAP2 SWAP1 PUSH2 0x145B JUMP JUMPDEST JUMPDEST POP JUMP JUMPDEST JUMPDEST DUP1 DUP3 GT ISZERO PUSH2 0x1472 JUMPI PUSH0 DUP2 PUSH0 SWAP1 SSTORE POP PUSH1 0x1 ADD PUSH2 0x145C JUMP JUMPDEST POP SWAP1 JUMP JUMPDEST PUSH0 PUSH20 0xFFFFFFFFFFFFFFFFFFFFFFFFFFFFFFFFFFFFFFFF DUP3 AND SWAP1 POP SWAP2 SWAP1 POP JUMP JUMPDEST PUSH0 DUP2 SWAP1 POP SWAP2 SWAP1 POP JUMP JUMPDEST PUSH0 PUSH2 0x14B8 PUSH2 0x14B3 PUSH2 0x14AE DUP5 PUSH2 0x1476 JUMP JUMPDEST PUSH2 0x1495 JUMP JUMPDEST PUSH2 0x1476 JUMP JUMPDEST SWAP1 POP SWAP2 SWAP1 POP JUMP JUMPDEST PUSH0 PUSH2 0x14C9 DUP3 PUSH2 0x149E JUMP JUMPDEST SWAP1 POP SWAP2 SWAP1 POP JUMP JUMPDEST PUSH0 PUSH2 0x14DA DUP3 PUSH2 0x14BF JUMP JUMPDEST SWAP1 POP SWAP2 SWAP1 POP JUMP JUMPDEST PUSH2 0x14EA DUP2 PUSH2 0x14D0 JUMP JUMPDEST DUP3 MSTORE POP POP JUMP JUMPDEST PUSH0 PUSH1 0x20 DUP3 ADD SWAP1 POP PUSH2 0x1503 PUSH0 DUP4 ADD DUP5 PUSH2 0x14E1 JUMP JUMPDEST SWAP3 SWAP2 POP POP JUMP JUMPDEST PUSH0 DUP2 SWAP1 POP SWAP2 SWAP1 POP JUMP JUMPDEST PUSH2 0x151B DUP2 PUSH2 0x1509 JUMP JUMPDEST DUP3 MSTORE POP POP JUMP JUMPDEST PUSH0 PUSH1 0x20 DUP3 ADD SWAP1 POP PUSH2 0x1534 PUSH0 DUP4 ADD DUP5 PUSH2 0x1512 JUMP JUMPDEST SWAP3 SWAP2 POP POP JUMP JUMPDEST PUSH0 PUSH2 0x1544 DUP3 PUSH2 0x14BF JUMP JUMPDEST SWAP1 POP SWAP2 SWAP1 POP JUMP JUMPDEST PUSH2 0x1554 DUP2 PUSH2 0x153A JUMP JUMPDEST DUP3 MSTORE POP POP JUMP JUMPDEST PUSH0 PUSH1 0x20 DUP3 ADD SWAP1 POP PUSH2 0x156D PUSH0 DUP4 ADD DUP5 PUSH2 0x154B JUMP JUMPDEST SWAP3 SWAP2 POP POP JUMP JUMPDEST PUSH0 PUSH1 0x40 MLOAD SWAP1 POP SWAP1 JUMP JUMPDEST PUSH0 DUP1 REVERT JUMPDEST PUSH0 DUP1 REVERT JUMPDEST PUSH0 PUSH2 0x158E DUP3 PUSH2 0x1476 JUMP JUMPDEST SWAP1 POP SWAP2 SWAP1 POP JUMP JUMPDEST PUSH2 0x159E DUP2 PUSH2 0x1584 JUMP JUMPDEST DUP2 EQ PUSH2 0x15A8 JUMPI PUSH0 DUP1 REVERT JUMPDEST POP JUMP JUMPDEST PUSH0 DUP2 CALLDATALOAD SWAP1 POP PUSH2 0x15B9 DUP2 PUSH2 0x1595 JUMP JUMPDEST SWAP3 SWAP2 POP POP JUMP JUMPDEST PUSH0 PUSH1 0x20 DUP3 DUP5 SUB SLT ISZERO PUSH2 0x15D4 JUMPI PUSH2 0x15D3 PUSH2 0x157C JUMP JUMPDEST JUMPDEST PUSH0 PUSH2 0x15E1 DUP5 DUP3 DUP6 ADD PUSH2 0x15AB JUMP JUMPDEST SWAP2 POP POP SWAP3 SWAP2 POP POP JUMP JUMPDEST PUSH0 DUP1 REVERT JUMPDEST PUSH0 DUP1 REVERT JUMPDEST PUSH0 PUSH1 0x1F NOT PUSH1 0x1F DUP4 ADD AND SWAP1 POP SWAP2 SWAP1 POP JUMP JUMPDEST PUSH32 0x4E487B7100000000000000000000000000000000000000000000000000000000 PUSH0 MSTORE PUSH1 0x41 PUSH1 0x4 MSTORE PUSH1 0x24 PUSH0 REVERT JUMPDEST PUSH2 0x1638 DUP3 PUSH2 0x15F2 JUMP JUMPDEST DUP2 ADD DUP2 DUP2 LT PUSH8 0xFFFFFFFFFFFFFFFF DUP3 GT OR ISZERO PUSH2 0x1657 JUMPI PUSH2 0x1656 PUSH2 0x1602 JUMP JUMPDEST JUMPDEST DUP1 PUSH1 0x40 MSTORE POP POP POP JUMP JUMPDEST PUSH0 PUSH2 0x1669 PUSH2 0x1573 JUMP JUMPDEST SWAP1 POP PUSH2 0x1675 DUP3 DUP3 PUSH2 0x162F JUMP JUMPDEST SWAP2 SWAP1 POP JUMP JUMPDEST PUSH0 PUSH8 0xFFFFFFFFFFFFFFFF DUP3 GT ISZERO PUSH2 0x1694 JUMPI PUSH2 0x1693 PUSH2 0x1602 JUMP JUMPDEST JUMPDEST PUSH2 0x169D DUP3 PUSH2 0x15F2 JUMP JUMPDEST SWAP1 POP PUSH1 0x20 DUP2 ADD SWAP1 POP SWAP2 SWAP1 POP JUMP JUMPDEST DUP3 DUP2 DUP4 CALLDATACOPY PUSH0 DUP4 DUP4 ADD MSTORE POP POP POP JUMP JUMPDEST PUSH0 PUSH2 0x16CA PUSH2 0x16C5 DUP5 PUSH2 0x167A JUMP JUMPDEST PUSH2 0x1660 JUMP JUMPDEST SWAP1 POP DUP3 DUP2 MSTORE PUSH1 0x20 DUP2 ADD DUP5 DUP5 DUP5 ADD GT ISZERO PUSH2 0x16E6 JUMPI PUSH2 0x16E5 PUSH2 0x15EE JUMP JUMPDEST JUMPDEST PUSH2 0x16F1 DUP5 DUP3 DUP6 PUSH2 0x16AA JUMP JUMPDEST POP SWAP4 SWAP3 POP POP POP JUMP JUMPDEST PUSH0 DUP3 PUSH1 0x1F DUP4 ADD SLT PUSH2 0x170D JUMPI PUSH2 0x170C PUSH2 0x15EA JUMP JUMPDEST JUMPDEST DUP2 CALLDATALOAD PUSH2 0x171D DUP5 DUP3 PUSH1 0x20 DUP7 ADD PUSH2 0x16B8 JUMP JUMPDEST SWAP2 POP POP SWAP3 SWAP2 POP POP JUMP JUMPDEST PUSH0 DUP1 PUSH0 PUSH1 0x60 DUP5 DUP7 SUB SLT ISZERO PUSH2 0x173D JUMPI PUSH2 0x173C PUSH2 0x157C JUMP JUMPDEST JUMPDEST PUSH0 PUSH2 0x174A DUP7 DUP3 DUP8 ADD PUSH2 0x15AB JUMP JUMPDEST SWAP4 POP POP PUSH1 0x20 DUP5 ADD CALLDATALOAD PUSH8 0xFFFFFFFFFFFFFFFF DUP2 GT ISZERO PUSH2 0x176B JUMPI PUSH2 0x176A PUSH2 0x1580 JUMP JUMPDEST JUMPDEST PUSH2 0x1777 DUP7 DUP3 DUP8 ADD PUSH2 0x16F9 JUMP JUMPDEST SWAP3 POP POP PUSH1 0x40 DUP5 ADD CALLDATALOAD PUSH8 0xFFFFFFFFFFFFFFFF DUP2 GT ISZERO PUSH2 0x1798 JUMPI PUSH2 0x1797 PUSH2 0x1580 JUMP JUMPDEST JUMPDEST PUSH2 0x17A4 DUP7 DUP3 DUP8 ADD PUSH2 0x16F9 JUMP JUMPDEST SWAP2 POP POP SWAP3 POP SWAP3 POP SWAP3 JUMP JUMPDEST PUSH0 DUP1 PUSH1 0x40 DUP4 DUP6 SUB SLT ISZERO PUSH2 0x17C4 JUMPI PUSH2 0x17C3 PUSH2 0x157C JUMP JUMPDEST JUMPDEST PUSH0 PUSH2 0x17D1 DUP6 DUP3 DUP7 ADD PUSH2 0x15AB JUMP JUMPDEST SWAP3 POP POP PUSH1 0x20 PUSH2 0x17E2 DUP6 DUP3 DUP7 ADD PUSH2 0x15AB JUMP JUMPDEST SWAP2 POP POP SWAP3 POP SWAP3 SWAP1 POP JUMP JUMPDEST PUSH0 DUP2 ISZERO ISZERO SWAP1 POP SWAP2 SWAP1 POP JUMP JUMPDEST PUSH2 0x1800 DUP2 PUSH2 0x17EC JUMP JUMPDEST DUP3 MSTORE POP POP JUMP JUMPDEST PUSH0 DUP2 MLOAD SWAP1 POP SWAP2 SWAP1 POP JUMP JUMPDEST PUSH0 DUP3 DUP3 MSTORE PUSH1 0x20 DUP3 ADD SWAP1 POP SWAP3 SWAP2 POP POP JUMP JUMPDEST DUP3 DUP2 DUP4 MCOPY PUSH0 DUP4 DUP4 ADD MSTORE POP POP POP JUMP JUMPDEST PUSH0 PUSH2 0x1838 DUP3 PUSH2 0x1806 JUMP JUMPDEST PUSH2 0x1842 DUP2 DUP6 PUSH2 0x1810 JUMP JUMPDEST SWAP4 POP PUSH2 0x1852 DUP2 DUP6 PUSH1 0x20 DUP7 ADD PUSH2 0x1820 JUMP JUMPDEST PUSH2 0x185B DUP2 PUSH2 0x15F2 JUMP JUMPDEST DUP5 ADD SWAP2 POP POP SWAP3 SWAP2 POP POP JUMP JUMPDEST PUSH0 PUSH1 0x60 DUP3 ADD SWAP1 POP PUSH2 0x1879 PUSH0 DUP4 ADD DUP7 PUSH2 0x17F7 JUMP JUMPDEST PUSH2 0x1886 PUSH1 0x20 DUP4 ADD DUP6 PUSH2 0x1512 JUMP JUMPDEST DUP2 DUP2 SUB PUSH1 0x40 DUP4 ADD MSTORE PUSH2 0x1898 DUP2 DUP5 PUSH2 0x182E JUMP JUMPDEST SWAP1 POP SWAP5 SWAP4 POP POP POP POP JUMP JUMPDEST PUSH0 DUP1 PUSH1 0x40 DUP4 DUP6 SUB SLT ISZERO PUSH2 0x18B8 JUMPI PUSH2 0x18B7 PUSH2 0x157C JUMP JUMPDEST JUMPDEST PUSH0 PUSH2 0x18C5 DUP6 DUP3 DUP7 ADD PUSH2 0x15AB JUMP JUMPDEST SWAP3 POP POP PUSH1 0x20 DUP4 ADD CALLDATALOAD PUSH8 0xFFFFFFFFFFFFFFFF DUP2 GT ISZERO PUSH2 0x18E6 JUMPI PUSH2 0x18E5 PUSH2 0x1580 JUMP JUMPDEST JUMPDEST PUSH2 0x18F2 DUP6 DUP3 DUP7 ADD PUSH2 0x16F9 JUMP JUMPDEST SWAP2 POP POP SWAP3 POP SWAP3 SWAP1 POP JUMP JUMPDEST PUSH0 PUSH1 0x20 DUP3 ADD SWAP1 POP DUP2 DUP2 SUB PUSH0 DUP4 ADD MSTORE PUSH2 0x1914 DUP2 DUP5 PUSH2 0x182E JUMP JUMPDEST SWAP1 POP SWAP3 SWAP2 POP POP JUMP JUMPDEST PUSH32 0x50617469656E74207265636F7264206E6F7420666F756E640000000000000000 PUSH0 DUP3 ADD MSTORE POP JUMP JUMPDEST PUSH0 PUSH2 0x1950 PUSH1 0x18 DUP4 PUSH2 0x1810 JUMP JUMPDEST SWAP2 POP PUSH2 0x195B DUP3 PUSH2 0x191C JUMP JUMPDEST PUSH1 0x20 DUP3 ADD SWAP1 POP SWAP2 SWAP1 POP JUMP JUMPDEST PUSH0 PUSH1 0x20 DUP3 ADD SWAP1 POP DUP2 DUP2 SUB PUSH0 DUP4 ADD MSTORE PUSH2 0x197D DUP2 PUSH2 0x1944 JUMP JUMPDEST SWAP1 POP SWAP2 SWAP1 POP JUMP JUMPDEST PUSH32 0x4E6F20656D657267656E63792061636365737320666F756E6400000000000000 PUSH0 DUP3 ADD MSTORE POP JUMP JUMPDEST PUSH0 PUSH2 0x19B8 PUSH1 0x19 DUP4 PUSH2 0x1810 JUMP JUMPDEST SWAP2 POP PUSH2 0x19C3 DUP3 PUSH2 0x1984 JUMP JUMPDEST PUSH1 0x20 DUP3 ADD SWAP1 POP SWAP2 SWAP1 POP JUMP JUMPDEST PUSH0 PUSH1 0x20 DUP3 ADD SWAP1 POP DUP2 DUP2 SUB PUSH0 DUP4 ADD MSTORE PUSH2 0x19E5 DUP2 PUSH2 0x19AC JUMP JUMPDEST SWAP1 POP SWAP2 SWAP1 POP JUMP JUMPDEST PUSH2 0x19F5 DUP2 PUSH2 0x1584 JUMP JUMPDEST DUP3 MSTORE POP POP JUMP JUMPDEST PUSH32 0x7265766F6B655F656D657267656E637900000000000000000000000000000000 PUSH0 DUP3 ADD MSTORE POP JUMP JUMPDEST PUSH0 PUSH2 0x1A2F PUSH1 0x10 DUP4 PUSH2 0x1810 JUMP JUMPDEST SWAP2 POP PUSH2 0x1A3A DUP3 PUSH2 0x19FB JUMP JUMPDEST PUSH1 0x20 DUP3 ADD SWAP1 POP SWAP2 SWAP1 POP JUMP JUMPDEST PUSH32 0x456D657267656E637920616363657373207265766F6B65640000000000000000 PUSH0 DUP3 ADD MSTORE POP JUMP JUMPDEST PUSH0 PUSH2 0x1A79 PUSH1 0x18 DUP4 PUSH2 0x1810 JUMP JUMPDEST SWAP2 POP PUSH2 0x1A84 DUP3 PUSH2 0x1A45 JUMP JUMPDEST PUSH1 0x20 DUP3 ADD SWAP1 POP SWAP2 SWAP1 POP JUMP JUMPDEST PUSH0 PUSH1 0xA0 DUP3 ADD SWAP1 POP PUSH2 0x1AA2 PUSH0 DUP4 ADD DUP7 PUSH2 0x19EC JUMP JUMPDEST PUSH2 0x1AAF PUSH1 0x20 DUP4 ADD DUP6 PUSH2 0x19EC JUMP JUMPDEST DUP2 DUP2 SUB PUSH1 0x40 DUP4 ADD MSTORE PUSH2 0x1AC0 DUP2 PUSH2 0x1A23 JUMP JUMPDEST SWAP1 POP DUP2 DUP2 SUB PUSH1 0x60 DUP4 ADD MSTORE PUSH2 0x1AD3 DUP2 PUSH2 0x1A6D JUMP JUMPDEST SWAP1 POP PUSH2 0x1AE2 PUSH1 0x80 DUP4 ADD DUP5 PUSH2 0x17F7 JUMP JUMPDEST SWAP5 SWAP4 POP POP POP POP JUMP JUMPDEST PUSH0 PUSH1 0x40 DUP3 ADD SWAP1 POP PUSH2 0x1AFD PUSH0 DUP4 ADD DUP6 PUSH2 0x19EC JUMP JUMPDEST DUP2 DUP2 SUB PUSH1 0x20 DUP4 ADD MSTORE PUSH2 0x1B0F DUP2 DUP5 PUSH2 0x182E JUMP JUMPDEST SWAP1 POP SWAP4 SWAP3 POP POP POP JUMP JUMPDEST PUSH2 0x1B21 DUP2 PUSH2 0x17EC JUMP JUMPDEST DUP2 EQ PUSH2 0x1B2B JUMPI PUSH0 DUP1 REVERT JUMPDEST POP JUMP JUMPDEST PUSH0 DUP2 MLOAD SWAP1 POP PUSH2 0x1B3C DUP2 PUSH2 0x1B18 JUMP JUMPDEST SWAP3 SWAP2 POP POP JUMP JUMPDEST PUSH0 PUSH1 0x20 DUP3 DUP5 SUB SLT ISZERO PUSH2 0x1B57 JUMPI PUSH2 0x1B56 PUSH2 0x157C JUMP JUMPDEST JUMPDEST PUSH0 PUSH2 0x1B64 DUP5 DUP3 DUP6 ADD PUSH2 0x1B2E JUMP JUMPDEST SWAP2 POP POP SWAP3 SWAP2 POP POP JUMP JUMPDEST PUSH32 0x556E617574686F72697A65642061636365737300000000000000000000000000 PUSH0 DUP3 ADD MSTORE POP JUMP JUMPDEST PUSH0 PUSH2 0x1BA1 PUSH1 0x13 DUP4 PUSH2 0x1810 JUMP JUMPDEST SWAP2 POP PUSH2 0x1BAC DUP3 PUSH2 0x1B6D JUMP JUMPDEST PUSH1 0x20 DUP3 ADD SWAP1 POP SWAP2 SWAP1 POP JUMP JUMPDEST PUSH0 PUSH1 0x20 DUP3 ADD SWAP1 POP DUP2 DUP2 SUB PUSH0 DUP4 ADD MSTORE PUSH2 0x1BCE DUP2 PUSH2 0x1B95 JUMP JUMPDEST SWAP1 POP SWAP2 SWAP1 POP JUMP JUMPDEST PUSH32 0x50617469656E74207265636F726420616C726561647920657869737473000000 PUSH0 DUP3 ADD MSTORE POP JUMP JUMPDEST PUSH0 PUSH2 0x1C09 PUSH1 0x1D DUP4 PUSH2 0x1810 JUMP JUMPDEST SWAP2 POP PUSH2 0x1C14 DUP3 PUSH2 0x1BD5 JUMP JUMPDEST PUSH1 0x20 DUP3 ADD SWAP1 POP SWAP2 SWAP1 POP JUMP JUMPDEST PUSH0 PUSH1 0x20 DUP3 ADD SWAP1 POP DUP2 DUP2 SUB PUSH0 DUP4 ADD MSTORE PUSH2 0x1C36 DUP2 PUSH2 0x1BFD JUMP JUMPDEST SWAP1 POP SWAP2 SWAP1 POP JUMP JUMPDEST PUSH32 0x6372656174655F7265636F726400000000000000000000000000000000000000 PUSH0 DUP3 ADD MSTORE POP JUMP JUMPDEST PUSH0 PUSH2 0x1C71 PUSH1 0xD DUP4 PUSH2 0x1810 JUMP JUMPDEST SWAP2 POP PUSH2 0x1C7C DUP3 PUSH2 0x1C3D JUMP JUMPDEST PUSH1 0x20 DUP3 ADD SWAP1 POP SWAP2 SWAP1 POP JUMP JUMPDEST PUSH32 0x4E65772070617469656E74207265636F72642063726561746564000000000000 PUSH0 DUP3 ADD MSTORE POP JUMP JUMPDEST PUSH0 PUSH2 0x1CBB PUSH1 0x1A DUP4 PUSH2 0x1810 JUMP JUMPDEST SWAP2 POP PUSH2 0x1CC6 DUP3 PUSH2 0x1C87 JUMP JUMPDEST PUSH1 0x20 DUP3 ADD SWAP1 POP SWAP2 SWAP1 POP JUMP JUMPDEST PUSH0 PUSH1 0xA0 DUP3 ADD SWAP1 POP PUSH2 0x1CE4 PUSH0 DUP4 ADD DUP7 PUSH2 0x19EC JUMP JUMPDEST PUSH2 0x1CF1 PUSH1 0x20 DUP4 ADD DUP6 PUSH2 0x19EC JUMP JUMPDEST DUP2 DUP2 SUB PUSH1 0x40 DUP4 ADD MSTORE PUSH2 0x1D02 DUP2 PUSH2 0x1C65 JUMP JUMPDEST SWAP1 POP DUP2 DUP2 SUB PUSH1 0x60 DUP4 ADD MSTORE PUSH2 0x1D15 DUP2 PUSH2 0x1CAF JUMP JUMPDEST SWAP1 POP PUSH2 0x1D24 PUSH1 0x80 DUP4 ADD DUP5 PUSH2 0x17F7 JUMP JUMPDEST SWAP5 SWAP4 POP POP POP POP JUMP JUMPDEST PUSH0 DUP2 SWAP1 POP SWAP3 SWAP2 POP POP JUMP JUMPDEST PUSH0 PUSH2 0x1D40 DUP3 PUSH2 0x1806 JUMP JUMPDEST PUSH2 0x1D4A DUP2 DUP6 PUSH2 0x1D2C JUMP JUMPDEST SWAP4 POP PUSH2 0x1D5A DUP2 DUP6 PUSH1 0x20 DUP7 ADD PUSH2 0x1820 JUMP JUMPDEST DUP1 DUP5 ADD SWAP2 POP POP SWAP3 SWAP2 POP POP JUMP JUMPDEST PUSH0 PUSH2 0x1D71 DUP3 DUP5 PUSH2 0x1D36 JUMP JUMPDEST SWAP2 POP DUP2 SWAP1 POP SWAP3 SWAP2 POP POP JUMP JUMPDEST PUSH32 0x4E487B7100000000000000000000000000000000000000000000000000000000 PUSH0 MSTORE PUSH1 0x22 PUSH1 0x4 MSTORE PUSH1 0x24 PUSH0 REVERT JUMPDEST PUSH0 PUSH1 0x2 DUP3 DIV SWAP1 POP PUSH1 0x1 DUP3 AND DUP1 PUSH2 0x1DC0 JUMPI PUSH1 0x7F DUP3 AND SWAP2 POP JUMPDEST PUSH1 0x20 DUP3 LT DUP2 SUB PUSH2 0x1DD3 JUMPI PUSH2 0x1DD2 PUSH2 0x1D7C JUMP JUMPDEST JUMPDEST POP SWAP2 SWAP1 POP JUMP JUMPDEST PUSH0 DUP2 SWAP1 POP DUP2 PUSH0 MSTORE PUSH1 0x20 PUSH0 KECCAK256 SWAP1 POP SWAP2 SWAP1 POP JUMP JUMPDEST PUSH0 PUSH1 0x20 PUSH1 0x1F DUP4 ADD DIV SWAP1 POP SWAP2 SWAP1 POP JUMP JUMPDEST PUSH0 DUP3 DUP3 SHL SWAP1 POP SWAP3 SWAP2 POP POP JUMP JUMPDEST PUSH0 PUSH1 0x8 DUP4 MUL PUSH2 0x1E35 PUSH32 0xFFFFFFFFFFFFFFFFFFFFFFFFFFFFFFFFFFFFFFFFFFFFFFFFFFFFFFFFFFFFFFFF DUP3 PUSH2 0x1DFA JUMP JUMPDEST PUSH2 0x1E3F DUP7 DUP4 PUSH2 0x1DFA JUMP JUMPDEST SWAP6 POP DUP1 NOT DUP5 AND SWAP4 POP DUP1 DUP7 AND DUP5 OR SWAP3 POP POP POP SWAP4 SWAP3 POP POP POP JUMP JUMPDEST PUSH0 PUSH2 0x1E71 PUSH2 0x1E6C PUSH2 0x1E67 DUP5 PUSH2 0x1509 JUMP JUMPDEST PUSH2 0x1495 JUMP JUMPDEST PUSH2 0x1509 JUMP JUMPDEST SWAP1 POP SWAP2 SWAP1 POP JUMP JUMPDEST PUSH0 DUP2 SWAP1 POP SWAP2 SWAP1 POP JUMP JUMPDEST PUSH2 0x1E8A DUP4 PUSH2 0x1E57 JUMP JUMPDEST PUSH2 0x1E9E PUSH2 0x1E96 DUP3 PUSH2 0x1E78 JUMP JUMPDEST DUP5 DUP5 SLOAD PUSH2 0x1E06 JUMP JUMPDEST DUP3 SSTORE POP POP POP POP JUMP JUMPDEST PUSH0 SWAP1 JUMP JUMPDEST PUSH2 0x1EB2 PUSH2 0x1EA6 JUMP JUMPDEST PUSH2 0x1EBD DUP2 DUP5 DUP5 PUSH2 0x1E81 JUMP JUMPDEST POP POP POP JUMP JUMPDEST JUMPDEST DUP2 DUP2 LT ISZERO PUSH2 0x1EE0 JUMPI PUSH2 0x1ED5 PUSH0 DUP3 PUSH2 0x1EAA JUMP JUMPDEST PUSH1 0x1 DUP2 ADD SWAP1 POP PUSH2 0x1EC3 JUMP JUMPDEST POP POP JUMP JUMPDEST PUSH1 0x1F DUP3 GT ISZERO PUSH2 0x1F25 JUMPI PUSH2 0x1EF6 DUP2 PUSH2 0x1DD9 JUMP JUMPDEST PUSH2 0x1EFF DUP5 PUSH2 0x1DEB JUMP JUMPDEST DUP2 ADD PUSH1 0x20 DUP6 LT ISZERO PUSH2 0x1F0E JUMPI DUP2 SWAP1 POP JUMPDEST PUSH2 0x1F22 PUSH2 0x1F1A DUP6 PUSH2 0x1DEB JUMP JUMPDEST DUP4 ADD DUP3 PUSH2 0x1EC2 JUMP JUMPDEST POP POP JUMPDEST POP POP POP JUMP JUMPDEST PUSH0 DUP3 DUP3 SHR SWAP1 POP SWAP3 SWAP2 POP POP JUMP JUMPDEST PUSH0 PUSH2 0x1F45 PUSH0 NOT DUP5 PUSH1 0x8 MUL PUSH2 0x1F2A JUMP JUMPDEST NOT DUP1 DUP4 AND SWAP2 POP POP SWAP3 SWAP2 POP POP JUMP JUMPDEST PUSH0 PUSH2 0x1F5D DUP4 DUP4 PUSH2 0x1F36 JUMP JUMPDEST SWAP2 POP DUP3 PUSH1 0x2 MUL DUP3 OR SWAP1 POP SWAP3 SWAP2 POP POP JUMP JUMPDEST PUSH2 0x1F76 DUP3 PUSH2 0x1806 JUMP JUMPDEST PUSH8 0xFFFFFFFFFFFFFFFF DUP2 GT ISZERO PUSH2 0x1F8F JUMPI PUSH2 0x1F8E PUSH2 0x1602 JUMP JUMPDEST JUMPDEST PUSH2 0x1F99 DUP3 SLOAD PUSH2 0x1DA9 JUMP JUMPDEST PUSH2 0x1FA4 DUP3 DUP3 DUP6 PUSH2 0x1EE4 JUMP JUMPDEST PUSH0 PUSH1 0x20 SWAP1 POP PUSH1 0x1F DUP4 GT PUSH1 0x1 DUP2 EQ PUSH2 0x1FD5 JUMPI PUSH0 DUP5 ISZERO PUSH2 0x1FC3 JUMPI DUP3 DUP8 ADD MLOAD SWAP1 POP JUMPDEST PUSH2 0x1FCD DUP6 DUP3 PUSH2 0x1F52 JUMP JUMPDEST DUP7 SSTORE POP PUSH2 0x2034 JUMP JUMPDEST PUSH1 0x1F NOT DUP5 AND PUSH2 0x1FE3 DUP7 PUSH2 0x1DD9 JUMP JUMPDEST PUSH0 JUMPDEST DUP3 DUP2 LT ISZERO PUSH2 0x200A JUMPI DUP5 DUP10 ADD MLOAD DUP3 SSTORE PUSH1 0x1 DUP3 ADD SWAP2 POP PUSH1 0x20 DUP6 ADD SWAP5 POP PUSH1 0x20 DUP2 ADD SWAP1 POP PUSH2 0x1FE5 JUMP JUMPDEST DUP7 DUP4 LT ISZERO PUSH2 0x2027 JUMPI DUP5 DUP10 ADD MLOAD PUSH2 0x2023 PUSH1 0x1F DUP10 AND DUP3 PUSH2 0x1F36 JUMP JUMPDEST DUP4 SSTORE POP JUMPDEST PUSH1 0x1 PUSH1 0x2 DUP9 MUL ADD DUP9 SSTORE POP POP POP JUMPDEST POP POP POP POP POP POP JUMP JUMPDEST PUSH32 0x5570646174656420000000000000000000000000000000000000000000000000 PUSH0 DUP3 ADD MSTORE POP JUMP JUMPDEST PUSH0 PUSH2 0x2070 PUSH1 0x8 DUP4 PUSH2 0x1D2C JUMP JUMPDEST SWAP2 POP PUSH2 0x207B DUP3 PUSH2 0x203C JUMP JUMPDEST PUSH1 0x8 DUP3 ADD SWAP1 POP SWAP2 SWAP1 POP JUMP JUMPDEST PUSH0 PUSH2 0x2090 DUP3 PUSH2 0x2064 JUMP JUMPDEST SWAP2 POP PUSH2 0x209C DUP3 DUP5 PUSH2 0x1D36 JUMP JUMPDEST SWAP2 POP DUP2 SWAP1 POP SWAP3 SWAP2 POP POP JUMP JUMPDEST PUSH32 0x7570646174655F64617461000000000000000000000000000000000000000000 PUSH0 DUP3 ADD MSTORE POP JUMP JUMPDEST PUSH0 PUSH2 0x20DB PUSH1 0xB DUP4 PUSH2 0x1810 JUMP JUMPDEST SWAP2 POP PUSH2 0x20E6 DUP3 PUSH2 0x20A7 JUMP JUMPDEST PUSH1 0x20 DUP3 ADD SWAP1 POP SWAP2 SWAP1 POP JUMP JUMPDEST PUSH0 PUSH1 0xA0 DUP3 ADD SWAP1 POP PUSH2 0x2104 PUSH0 DUP4 ADD DUP8 PUSH2 0x19EC JUMP JUMPDEST PUSH2 0x2111 PUSH1 0x20 DUP4 ADD DUP7 PUSH2 0x19EC JUMP JUMPDEST DUP2 DUP2 SUB PUSH1 0x40 DUP4 ADD MSTORE PUSH2 0x2122 DUP2 PUSH2 0x20CF JUMP JUMPDEST SWAP1 POP DUP2 DUP2 SUB PUSH1 0x60 DUP4 ADD MSTORE PUSH2 0x2136 DUP2 DUP6 PUSH2 0x182E JUMP JUMPDEST SWAP1 POP PUSH2 0x2145 PUSH1 0x80 DUP4 ADD DUP5 PUSH2 0x17F7 JUMP JUMPDEST SWAP6 SWAP5 POP POP POP POP POP JUMP JUMPDEST PUSH32 0x766965775F646174610000000000000000000000000000000000000000000000 PUSH0 DUP3 ADD MSTORE POP JUMP JUMPDEST PUSH0 PUSH2 0x2182 PUSH1 0x9 DUP4 PUSH2 0x1810 JUMP JUMPDEST SWAP2 POP PUSH2 0x218D DUP3 PUSH2 0x214E JUMP JUMPDEST PUSH1 0x20 DUP3 ADD SWAP1 POP SWAP2 SWAP1 POP JUMP JUMPDEST PUSH0 PUSH1 0x40 DUP3 ADD SWAP1 POP PUSH2 0x21AB PUSH0 DUP4 ADD DUP5 PUSH2 0x19EC JUMP JUMPDEST DUP2 DUP2 SUB PUSH1 0x20 DUP4 ADD MSTORE PUSH2 0x21BC DUP2 PUSH2 0x2176 JUMP JUMPDEST SWAP1 POP SWAP3 SWAP2 POP POP JUMP JUMPDEST PUSH32 0x4E6F2076616C6964206163636573732072696768747300000000000000000000 PUSH0 DUP3 ADD MSTORE POP JUMP JUMPDEST PUSH0 PUSH2 0x21F8 PUSH1 0x16 DUP4 PUSH2 0x1810 JUMP JUMPDEST SWAP2 POP PUSH2 0x2203 DUP3 PUSH2 0x21C4 JUMP JUMPDEST PUSH1 0x20 DUP3 ADD SWAP1 POP SWAP2 SWAP1 POP JUMP JUMPDEST PUSH0 PUSH1 0x20 DUP3 ADD SWAP1 POP DUP2 DUP2 SUB PUSH0 DUP4 ADD MSTORE PUSH2 0x2225 DUP2 PUSH2 0x21EC JUMP JUMPDEST SWAP1 POP SWAP2 SWAP1 POP JUMP JUMPDEST PUSH32 0x4E487B7100000000000000000000000000000000000000000000000000000000 PUSH0 MSTORE PUSH1 0x21 PUSH1 0x4 MSTORE PUSH1 0x24 PUSH0 REVERT JUMPDEST PUSH0 PUSH1 0x20 DUP3 ADD SWAP1 POP PUSH2 0x226C PUSH0 DUP4 ADD DUP5 PUSH2 0x19EC JUMP JUMPDEST SWAP3 SWAP2 POP POP JUMP JUMPDEST PUSH1 0x7 DUP2 LT PUSH2 0x227E JUMPI PUSH0 DUP1 REVERT JUMPDEST POP JUMP JUMPDEST PUSH0 DUP2 MLOAD SWAP1 POP PUSH2 0x228F DUP2 PUSH2 0x2272 JUMP JUMPDEST SWAP3 SWAP2 POP POP JUMP JUMPDEST PUSH0 PUSH1 0x20 DUP3 DUP5 SUB SLT ISZERO PUSH2 0x22AA JUMPI PUSH2 0x22A9 PUSH2 0x157C JUMP JUMPDEST JUMPDEST PUSH0 PUSH2 0x22B7 DUP5 DUP3 DUP6 ADD PUSH2 0x2281 JUMP JUMPDEST SWAP2 POP POP SWAP3 SWAP2 POP POP JUMP JUMPDEST PUSH32 0x4F6E6C7920646F63746F7273206F7220706172616D65646963732063616E2072 PUSH0 DUP3 ADD MSTORE PUSH32 0x65717565737420656D657267656E637920616363657373000000000000000000 PUSH1 0x20 DUP3 ADD MSTORE POP JUMP JUMPDEST PUSH0 PUSH2 0x231A PUSH1 0x37 DUP4 PUSH2 0x1810 JUMP JUMPDEST SWAP2 POP PUSH2 0x2325 DUP3 PUSH2 0x22C0 JUMP JUMPDEST PUSH1 0x40 DUP3 ADD SWAP1 POP SWAP2 SWAP1 POP JUMP JUMPDEST PUSH0 PUSH1 0x20 DUP3 ADD SWAP1 POP DUP2 DUP2 SUB PUSH0 DUP4 ADD MSTORE PUSH2 0x2347 DUP2 PUSH2 0x230E JUMP JUMPDEST SWAP1 POP SWAP2 SWAP1 POP JUMP JUMPDEST PUSH32 0x4E487B7100000000000000000000000000000000000000000000000000000000 PUSH0 MSTORE PUSH1 0x11 PUSH1 0x4 MSTORE PUSH1 0x24 PUSH0 REVERT JUMPDEST PUSH0 PUSH2 0x2385 DUP3 PUSH2 0x1509 JUMP JUMPDEST SWAP2 POP PUSH2 0x2390 DUP4 PUSH2 0x1509 JUMP JUMPDEST SWAP3 POP DUP3 DUP3 ADD SWAP1 POP DUP1 DUP3 GT ISZERO PUSH2 0x23A8 JUMPI PUSH2 0x23A7 PUSH2 0x234E JUMP JUMPDEST JUMPDEST SWAP3 SWAP2 POP POP JUMP JUMPDEST PUSH32 0x656D657267656E63795F61636365737300000000000000000000000000000000 PUSH0 DUP3 ADD MSTORE POP JUMP JUMPDEST PUSH0 PUSH2 0x23E2 PUSH1 0x10 DUP4 PUSH2 0x1810 JUMP JUMPDEST SWAP2 POP PUSH2 0x23ED DUP3 PUSH2 0x23AE JUMP JUMPDEST PUSH1 0x20 DUP3 ADD SWAP1 POP SWAP2 SWAP1 POP JUMP JUMPDEST PUSH0 PUSH1 0xA0 DUP3 ADD SWAP1 POP PUSH2 0x240B PUSH0 DUP4 ADD DUP8 PUSH2 0x19EC JUMP JUMPDEST PUSH2 0x2418 PUSH1 0x20 DUP4 ADD DUP7 PUSH2 0x19EC JUMP JUMPDEST DUP2 DUP2 SUB PUSH1 0x40 DUP4 ADD MSTORE PUSH2 0x2429 DUP2 PUSH2 0x23D6 JUMP JUMPDEST SWAP1 POP DUP2 DUP2 SUB PUSH1 0x60 DUP4 ADD MSTORE PUSH2 0x243D DUP2 DUP6 PUSH2 0x182E JUMP JUMPDEST SWAP1 POP PUSH2 0x244C PUSH1 0x80 DUP4 ADD DUP5 PUSH2 0x17F7 JUMP JUMPDEST SWAP6 SWAP5 POP POP POP POP POP JUMP INVALID LOG2 PUSH5 0x6970667358 0x22 SLT KECCAK256 0xAB 0xA6 SWAP3 LOG0 MOD 0xEB GASPRICE 0xBA 0xD7 PUSH23 0x806905358F455C2E27B98C9F6BFC0255477600847F1D64 PUSH20 0x6F6C634300081A00330000000000000000000000 "
				},
				"gasEstimates": {
					"creation": {
						"codeDepositCost": "1871000",
						"executionCost": "infinite",
						"totalCost": "infinite"
					},
					"external": {
						"EMERGENCY_ACCESS_DURATION()": "348",
						"accessControl()": "infinite",
						"auditLog()": "infinite",
						"checkEmergencyAccess(address,address)": "infinite",
						"createPatientRecord(address)": "infinite",
						"getPatientData(address,string)": "infinite",
						"requestEmergencyAccess(address,string)": "infinite",
						"revokeEmergencyAccess(address)": "infinite",
						"updatePatientData(address,string,string)": "infinite"
					}
				},
				"methodIdentifiers": {
					"EMERGENCY_ACCESS_DURATION()": "2114ef1f",
					"accessControl()": "13007d55",
					"auditLog()": "5a2d6ebd",
					"checkEmergencyAccess(address,address)": "ac053aa9",
					"createPatientRecord(address)": "7eb3a982",
					"getPatientData(address,string)": "db455173",
					"requestEmergencyAccess(address,string)": "f54eeeb7",
					"revokeEmergencyAccess(address)": "73b492ff",
					"updatePatientData(address,string,string)": "9e1b9ec0"
				}
			},
			"storageLayout": {
				"storage": [
					{
						"astId": 201,
						"contract": "contracts/UpdatedPatientDataStorage.sol:UpdatedPatientDataStorage",
						"label": "accessControl",
						"offset": 0,
						"slot": "0",
						"type": "t_contract(IEnhancedRBAC)194"
					},
					{
						"astId": 204,
						"contract": "contracts/UpdatedPatientDataStorage.sol:UpdatedPatientDataStorage",
						"label": "auditLog",
						"offset": 0,
						"slot": "1",
						"type": "t_contract(EnhancedAuditLog)150"
					},
					{
						"astId": 230,
						"contract": "contracts/UpdatedPatientDataStorage.sol:UpdatedPatientDataStorage",
						"label": "patientRecords",
						"offset": 0,
						"slot": "2",
						"type": "t_mapping(t_address,t_struct(PatientRecord)218_storage)"
					}
				],
				"types": {
					"t_address": {
						"encoding": "inplace",
						"label": "address",
						"numberOfBytes": "20"
					},
					"t_bool": {
						"encoding": "inplace",
						"label": "bool",
						"numberOfBytes": "1"
					},
					"t_contract(EnhancedAuditLog)150": {
						"encoding": "inplace",
						"label": "contract EnhancedAuditLog",
						"numberOfBytes": "20"
					},
					"t_contract(IEnhancedRBAC)194": {
						"encoding": "inplace",
						"label": "contract IEnhancedRBAC",
						"numberOfBytes": "20"
					},
					"t_mapping(t_address,t_struct(EmergencyAccess)225_storage)": {
						"encoding": "mapping",
						"key": "t_address",
						"label": "mapping(address => struct UpdatedPatientDataStorage.EmergencyAccess)",
						"numberOfBytes": "32",
						"value": "t_struct(EmergencyAccess)225_storage"
					},
					"t_mapping(t_address,t_struct(PatientRecord)218_storage)": {
						"encoding": "mapping",
						"key": "t_address",
						"label": "mapping(address => struct UpdatedPatientDataStorage.PatientRecord)",
						"numberOfBytes": "32",
						"value": "t_struct(PatientRecord)218_storage"
					},
					"t_mapping(t_string_memory_ptr,t_string_storage)": {
						"encoding": "mapping",
						"key": "t_string_memory_ptr",
						"label": "mapping(string => string)",
						"numberOfBytes": "32",
						"value": "t_string_storage"
					},
					"t_string_memory_ptr": {
						"encoding": "bytes",
						"label": "string",
						"numberOfBytes": "32"
					},
					"t_string_storage": {
						"encoding": "bytes",
						"label": "string",
						"numberOfBytes": "32"
					},
					"t_struct(EmergencyAccess)225_storage": {
						"encoding": "inplace",
						"label": "struct UpdatedPatientDataStorage.EmergencyAccess",
						"members": [
							{
								"astId": 220,
								"contract": "contracts/UpdatedPatientDataStorage.sol:UpdatedPatientDataStorage",
								"label": "granted",
								"offset": 0,
								"slot": "0",
								"type": "t_bool"
							},
							{
								"astId": 222,
								"contract": "contracts/UpdatedPatientDataStorage.sol:UpdatedPatientDataStorage",
								"label": "expiryTime",
								"offset": 0,
								"slot": "1",
								"type": "t_uint256"
							},
							{
								"astId": 224,
								"contract": "contracts/UpdatedPatientDataStorage.sol:UpdatedPatientDataStorage",
								"label": "reason",
								"offset": 0,
								"slot": "2",
								"type": "t_string_storage"
							}
						],
						"numberOfBytes": "96"
					},
					"t_struct(PatientRecord)218_storage": {
						"encoding": "inplace",
						"label": "struct UpdatedPatientDataStorage.PatientRecord",
						"members": [
							{
								"astId": 206,
								"contract": "contracts/UpdatedPatientDataStorage.sol:UpdatedPatientDataStorage",
								"label": "encryptedData",
								"offset": 0,
								"slot": "0",
								"type": "t_string_storage"
							},
							{
								"astId": 208,
								"contract": "contracts/UpdatedPatientDataStorage.sol:UpdatedPatientDataStorage",
								"label": "exists",
								"offset": 0,
								"slot": "1",
								"type": "t_bool"
							},
							{
								"astId": 212,
								"contract": "contracts/UpdatedPatientDataStorage.sol:UpdatedPatientDataStorage",
								"label": "dataCategories",
								"offset": 0,
								"slot": "2",
								"type": "t_mapping(t_string_memory_ptr,t_string_storage)"
							},
							{
								"astId": 217,
								"contract": "contracts/UpdatedPatientDataStorage.sol:UpdatedPatientDataStorage",
								"label": "emergencyAccess",
								"offset": 0,
								"slot": "3",
								"type": "t_mapping(t_address,t_struct(EmergencyAccess)225_storage)"
							}
						],
						"numberOfBytes": "128"
					},
					"t_uint256": {
						"encoding": "inplace",
						"label": "uint256",
						"numberOfBytes": "32"
					}
				}
			},
			"userdoc": {
				"kind": "user",
				"methods": {},
				"version": 1
			}
		}
	}
}