{
	"contracts/EnhancedAuditLog.sol": {
		"EnhancedAuditLog": {
			"abi": [
				{
					"anonymous": false,
					"inputs": [
						{
							"indexed": true,
							"internalType": "address",
							"name": "user",
							"type": "address"
						},
						{
							"indexed": true,
							"internalType": "address",
							"name": "patient",
							"type": "address"
						},
						{
							"indexed": false,
							"internalType": "string",
							"name": "accessType",
							"type": "string"
						},
						{
							"indexed": false,
							"internalType": "string",
							"name": "justification",
							"type": "string"
						},
						{
							"indexed": false,
							"internalType": "bool",
							"name": "isEmergency",
							"type": "bool"
						},
						{
							"indexed": false,
							"internalType": "uint256",
							"name": "timestamp",
							"type": "uint256"
						}
					],
					"name": "AccessLogged",
					"type": "event"
				},
				{
					"inputs": [
						{
							"internalType": "uint256",
							"name": "",
							"type": "uint256"
						}
					],
					"name": "accessRecords",
					"outputs": [
						{
							"internalType": "address",
							"name": "user",
							"type": "address"
						},
						{
							"internalType": "address",
							"name": "patient",
							"type": "address"
						},
						{
							"internalType": "string",
							"name": "accessType",
							"type": "string"
						},
						{
							"internalType": "string",
							"name": "justification",
							"type": "string"
						},
						{
							"internalType": "uint256",
							"name": "timestamp",
							"type": "uint256"
						},
						{
							"internalType": "bool",
							"name": "isEmergency",
							"type": "bool"
						}
					],
					"stateMutability": "view",
					"type": "function"
				},
				{
					"inputs": [
						{
							"internalType": "address",
							"name": "patient",
							"type": "address"
						}
					],
					"name": "getPatientAccessRecords",
					"outputs": [
						{
							"components": [
								{
									"internalType": "address",
									"name": "user",
									"type": "address"
								},
								{
									"internalType": "address",
									"name": "patient",
									"type": "address"
								},
								{
									"internalType": "string",
									"name": "accessType",
									"type": "string"
								},
								{
									"internalType": "string",
									"name": "justification",
									"type": "string"
								},
								{
									"internalType": "uint256",
									"name": "timestamp",
									"type": "uint256"
								},
								{
									"internalType": "bool",
									"name": "isEmergency",
									"type": "bool"
								}
							],
							"internalType": "struct EnhancedAuditLog.AccessRecord[]",
							"name": "",
							"type": "tuple[]"
						}
					],
					"stateMutability": "view",
					"type": "function"
				},
				{
					"inputs": [
						{
							"internalType": "address",
							"name": "user",
							"type": "address"
						},
						{
							"internalType": "address",
							"name": "patient",
							"type": "address"
						},
						{
							"internalType": "string",
							"name": "accessType",
							"type": "string"
						},
						{
							"internalType": "string",
							"name": "justification",
							"type": "string"
						},
						{
							"internalType": "bool",
							"name": "isEmergency",
							"type": "bool"
						}
					],
					"name": "logAccess",
					"outputs": [],
					"stateMutability": "nonpayable",
					"type": "function"
				}
			],
			"devdoc": {
				"kind": "dev",
				"methods": {},
				"version": 1
			},
			"evm": {
				"assembly": "    /* \"contracts/EnhancedAuditLog.sol\":85:2037  contract EnhancedAuditLog {... */\n  mstore(0x40, 0x80)\n  callvalue\n  dup1\n  iszero\n  tag_1\n  jumpi\n  0x00\n  dup1\n  revert\ntag_1:\n  pop\n  dataSize(sub_0)\n  dup1\n  dataOffset(sub_0)\n  0x00\n  codecopy\n  0x00\n  return\nstop\n\nsub_0: assembly {\n        /* \"contracts/EnhancedAuditLog.sol\":85:2037  contract EnhancedAuditLog {... */\n      mstore(0x40, 0x80)\n      callvalue\n      dup1\n      iszero\n      tag_1\n      jumpi\n      0x00\n      dup1\n      revert\n    tag_1:\n      pop\n      jumpi(tag_2, lt(calldatasize, 0x04))\n      shr(0xe0, calldataload(0x00))\n      dup1\n      0x67fe17f4\n      eq\n      tag_3\n      jumpi\n      dup1\n      0xb55fdd5c\n      eq\n      tag_4\n      jumpi\n      dup1\n      0xcf07855a\n      eq\n      tag_5\n      jumpi\n    tag_2:\n      0x00\n      dup1\n      revert\n        /* \"contracts/EnhancedAuditLog.sol\":741:1579  function logAccess(... */\n    tag_3:\n      tag_6\n      0x04\n      dup1\n      calldatasize\n      sub\n      dup2\n      add\n      swap1\n      tag_7\n      swap2\n      swap1\n      tag_8\n      jump\t// in\n    tag_7:\n      tag_9\n      jump\t// in\n    tag_6:\n      stop\n        /* \"contracts/EnhancedAuditLog.sol\":350:385  AccessRecord[] public accessRecords */\n    tag_4:\n      tag_10\n      0x04\n      dup1\n      calldatasize\n      sub\n      dup2\n      add\n      swap1\n      tag_11\n      swap2\n      swap1\n      tag_12\n      jump\t// in\n    tag_11:\n      tag_13\n      jump\t// in\n    tag_10:\n      mload(0x40)\n      tag_14\n      swap7\n      swap6\n      swap5\n      swap4\n      swap3\n      swap2\n      swap1\n      tag_15\n      jump\t// in\n    tag_14:\n      mload(0x40)\n      dup1\n      swap2\n      sub\n      swap1\n      return\n        /* \"contracts/EnhancedAuditLog.sol\":1587:2034  function getPatientAccessRecords(address patient) ... */\n    tag_5:\n      tag_16\n      0x04\n      dup1\n      calldatasize\n      sub\n      dup2\n      add\n      swap1\n      tag_17\n      swap2\n      swap1\n      tag_18\n      jump\t// in\n    tag_17:\n      tag_19\n      jump\t// in\n    tag_16:\n      mload(0x40)\n      tag_20\n      swap2\n      swap1\n      tag_21\n      jump\t// in\n    tag_20:\n      mload(0x40)\n      dup1\n      swap2\n      sub\n      swap1\n      return\n        /* \"contracts/EnhancedAuditLog.sol\":741:1579  function logAccess(... */\n    tag_9:\n        /* \"contracts/EnhancedAuditLog.sol\":934:953  uint256 recordIndex */\n      0x00\n        /* \"contracts/EnhancedAuditLog.sol\":956:969  accessRecords */\n      dup1\n        /* \"contracts/EnhancedAuditLog.sol\":956:976  accessRecords.length */\n      dup1\n      sload\n      swap1\n      pop\n        /* \"contracts/EnhancedAuditLog.sol\":934:976  uint256 recordIndex = accessRecords.length */\n      swap1\n      pop\n        /* \"contracts/EnhancedAuditLog.sol\":997:1023  AccessRecord memory record */\n      0x00\n        /* \"contracts/EnhancedAuditLog.sol\":1026:1267  AccessRecord({... */\n      mload(0x40)\n      dup1\n      0xc0\n      add\n      0x40\n      mstore\n      dup1\n        /* \"contracts/EnhancedAuditLog.sol\":1060:1064  user */\n      dup9\n        /* \"contracts/EnhancedAuditLog.sol\":1026:1267  AccessRecord({... */\n      0xffffffffffffffffffffffffffffffffffffffff\n      and\n      dup2\n      mstore\n      0x20\n      add\n        /* \"contracts/EnhancedAuditLog.sol\":1088:1095  patient */\n      dup8\n        /* \"contracts/EnhancedAuditLog.sol\":1026:1267  AccessRecord({... */\n      0xffffffffffffffffffffffffffffffffffffffff\n      and\n      dup2\n      mstore\n      0x20\n      add\n        /* \"contracts/EnhancedAuditLog.sol\":1122:1132  accessType */\n      dup7\n        /* \"contracts/EnhancedAuditLog.sol\":1026:1267  AccessRecord({... */\n      dup2\n      mstore\n      0x20\n      add\n        /* \"contracts/EnhancedAuditLog.sol\":1162:1175  justification */\n      dup6\n        /* \"contracts/EnhancedAuditLog.sol\":1026:1267  AccessRecord({... */\n      dup2\n      mstore\n      0x20\n      add\n        /* \"contracts/EnhancedAuditLog.sol\":1201:1216  block.timestamp */\n      timestamp\n        /* \"contracts/EnhancedAuditLog.sol\":1026:1267  AccessRecord({... */\n      dup2\n      mstore\n      0x20\n      add\n        /* \"contracts/EnhancedAuditLog.sol\":1244:1255  isEmergency */\n      dup5\n        /* \"contracts/EnhancedAuditLog.sol\":1026:1267  AccessRecord({... */\n      iszero\n      iszero\n      dup2\n      mstore\n      pop\n        /* \"contracts/EnhancedAuditLog.sol\":997:1267  AccessRecord memory record = AccessRecord({... */\n      swap1\n      pop\n        /* \"contracts/EnhancedAuditLog.sol\":1288:1301  accessRecords */\n      0x00\n        /* \"contracts/EnhancedAuditLog.sol\":1307:1313  record */\n      dup2\n        /* \"contracts/EnhancedAuditLog.sol\":1288:1314  accessRecords.push(record) */\n      swap1\n      dup1\n      0x01\n      dup2\n      sload\n      add\n      dup1\n      dup3\n      sstore\n      dup1\n      swap2\n      pop\n      pop\n      0x01\n      swap1\n      sub\n      swap1\n      0x00\n      mstore\n      keccak256(0x00, 0x20)\n      swap1\n      0x06\n      mul\n      add\n      0x00\n      swap1\n      swap2\n      swap1\n      swap2\n      swap1\n      swap2\n      pop\n      0x00\n      dup3\n      add\n      mload\n      dup2\n      0x00\n      add\n      exp(0x0100, 0x00)\n      dup2\n      sload\n      dup2\n      0xffffffffffffffffffffffffffffffffffffffff\n      mul\n      not\n      and\n      swap1\n      dup4\n      0xffffffffffffffffffffffffffffffffffffffff\n      and\n      mul\n      or\n      swap1\n      sstore\n      pop\n      0x20\n      dup3\n      add\n      mload\n      dup2\n      0x01\n      add\n      exp(0x0100, 0x00)\n      dup2\n      sload\n      dup2\n      0xffffffffffffffffffffffffffffffffffffffff\n      mul\n      not\n      and\n      swap1\n      dup4\n      0xffffffffffffffffffffffffffffffffffffffff\n      and\n      mul\n      or\n      swap1\n      sstore\n      pop\n      0x40\n      dup3\n      add\n      mload\n      dup2\n      0x02\n      add\n      swap1\n      dup2\n      tag_24\n      swap2\n      swap1\n      tag_25\n      jump\t// in\n    tag_24:\n      pop\n      0x60\n      dup3\n      add\n      mload\n      dup2\n      0x03\n      add\n      swap1\n      dup2\n      tag_26\n      swap2\n      swap1\n      tag_25\n      jump\t// in\n    tag_26:\n      pop\n      0x80\n      dup3\n      add\n      mload\n      dup2\n      0x04\n      add\n      sstore\n      0xa0\n      dup3\n      add\n      mload\n      dup2\n      0x05\n      add\n      exp(0x0100, 0x00)\n      dup2\n      sload\n      dup2\n      0xff\n      mul\n      not\n      and\n      swap1\n      dup4\n      iszero\n      iszero\n      mul\n      or\n      swap1\n      sstore\n      pop\n      pop\n      pop\n        /* \"contracts/EnhancedAuditLog.sol\":1325:1345  patientAccessRecords */\n      0x01\n        /* \"contracts/EnhancedAuditLog.sol\":1325:1354  patientAccessRecords[patient] */\n      0x00\n        /* \"contracts/EnhancedAuditLog.sol\":1346:1353  patient */\n      dup8\n        /* \"contracts/EnhancedAuditLog.sol\":1325:1354  patientAccessRecords[patient] */\n      0xffffffffffffffffffffffffffffffffffffffff\n      and\n      0xffffffffffffffffffffffffffffffffffffffff\n      and\n      dup2\n      mstore\n      0x20\n      add\n      swap1\n      dup2\n      mstore\n      0x20\n      add\n      0x00\n      keccak256\n        /* \"contracts/EnhancedAuditLog.sol\":1360:1371  recordIndex */\n      dup3\n        /* \"contracts/EnhancedAuditLog.sol\":1325:1372  patientAccessRecords[patient].push(recordIndex) */\n      swap1\n      dup1\n      0x01\n      dup2\n      sload\n      add\n      dup1\n      dup3\n      sstore\n      dup1\n      swap2\n      pop\n      pop\n      0x01\n      swap1\n      sub\n      swap1\n      0x00\n      mstore\n      keccak256(0x00, 0x20)\n      add\n      0x00\n      swap1\n      swap2\n      swap1\n      swap2\n      swap1\n      swap2\n      pop\n      sstore\n        /* \"contracts/EnhancedAuditLog.sol\":1444:1451  patient */\n      dup6\n        /* \"contracts/EnhancedAuditLog.sol\":1398:1571  AccessLogged(... */\n      0xffffffffffffffffffffffffffffffffffffffff\n      and\n        /* \"contracts/EnhancedAuditLog.sol\":1425:1429  user */\n      dup8\n        /* \"contracts/EnhancedAuditLog.sol\":1398:1571  AccessLogged(... */\n      0xffffffffffffffffffffffffffffffffffffffff\n      and\n      0xe1cf0b71ebdf0b44c9529862b4b1957eb9176cb23ea1d9d0e984943a0fac48f4\n        /* \"contracts/EnhancedAuditLog.sol\":1466:1476  accessType */\n      dup8\n        /* \"contracts/EnhancedAuditLog.sol\":1491:1504  justification */\n      dup8\n        /* \"contracts/EnhancedAuditLog.sol\":1519:1530  isEmergency */\n      dup8\n        /* \"contracts/EnhancedAuditLog.sol\":1545:1560  block.timestamp */\n      timestamp\n        /* \"contracts/EnhancedAuditLog.sol\":1398:1571  AccessLogged(... */\n      mload(0x40)\n      tag_28\n      swap5\n      swap4\n      swap3\n      swap2\n      swap1\n      tag_29\n      jump\t// in\n    tag_28:\n      mload(0x40)\n      dup1\n      swap2\n      sub\n      swap1\n      log3\n        /* \"contracts/EnhancedAuditLog.sol\":923:1579  {... */\n      pop\n      pop\n        /* \"contracts/EnhancedAuditLog.sol\":741:1579  function logAccess(... */\n      pop\n      pop\n      pop\n      pop\n      pop\n      jump\t// out\n        /* \"contracts/EnhancedAuditLog.sol\":350:385  AccessRecord[] public accessRecords */\n    tag_13:\n      0x00\n      dup2\n      dup2\n      sload\n      dup2\n      lt\n      tag_30\n      jumpi\n      0x00\n      dup1\n      revert\n    tag_30:\n      swap1\n      0x00\n      mstore\n      keccak256(0x00, 0x20)\n      swap1\n      0x06\n      mul\n      add\n      0x00\n      swap2\n      pop\n      swap1\n      pop\n      dup1\n      0x00\n      add\n      0x00\n      swap1\n      sload\n      swap1\n      0x0100\n      exp\n      swap1\n      div\n      0xffffffffffffffffffffffffffffffffffffffff\n      and\n      swap1\n      dup1\n      0x01\n      add\n      0x00\n      swap1\n      sload\n      swap1\n      0x0100\n      exp\n      swap1\n      div\n      0xffffffffffffffffffffffffffffffffffffffff\n      and\n      swap1\n      dup1\n      0x02\n      add\n      dup1\n      sload\n      tag_32\n      swap1\n      tag_33\n      jump\t// in\n    tag_32:\n      dup1\n      0x1f\n      add\n      0x20\n      dup1\n      swap2\n      div\n      mul\n      0x20\n      add\n      mload(0x40)\n      swap1\n      dup2\n      add\n      0x40\n      mstore\n      dup1\n      swap3\n      swap2\n      swap1\n      dup2\n      dup2\n      mstore\n      0x20\n      add\n      dup3\n      dup1\n      sload\n      tag_34\n      swap1\n      tag_33\n      jump\t// in\n    tag_34:\n      dup1\n      iszero\n      tag_35\n      jumpi\n      dup1\n      0x1f\n      lt\n      tag_36\n      jumpi\n      0x0100\n      dup1\n      dup4\n      sload\n      div\n      mul\n      dup4\n      mstore\n      swap2\n      0x20\n      add\n      swap2\n      jump(tag_35)\n    tag_36:\n      dup3\n      add\n      swap2\n      swap1\n      0x00\n      mstore\n      keccak256(0x00, 0x20)\n      swap1\n    tag_37:\n      dup2\n      sload\n      dup2\n      mstore\n      swap1\n      0x01\n      add\n      swap1\n      0x20\n      add\n      dup1\n      dup4\n      gt\n      tag_37\n      jumpi\n      dup3\n      swap1\n      sub\n      0x1f\n      and\n      dup3\n      add\n      swap2\n    tag_35:\n      pop\n      pop\n      pop\n      pop\n      pop\n      swap1\n      dup1\n      0x03\n      add\n      dup1\n      sload\n      tag_38\n      swap1\n      tag_33\n      jump\t// in\n    tag_38:\n      dup1\n      0x1f\n      add\n      0x20\n      dup1\n      swap2\n      div\n      mul\n      0x20\n      add\n      mload(0x40)\n      swap1\n      dup2\n      add\n      0x40\n      mstore\n      dup1\n      swap3\n      swap2\n      swap1\n      dup2\n      dup2\n      mstore\n      0x20\n      add\n      dup3\n      dup1\n      sload\n      tag_39\n      swap1\n      tag_33\n      jump\t// in\n    tag_39:\n      dup1\n      iszero\n      tag_40\n      jumpi\n      dup1\n      0x1f\n      lt\n      tag_41\n      jumpi\n      0x0100\n      dup1\n      dup4\n      sload\n      div\n      mul\n      dup4\n      mstore\n      swap2\n      0x20\n      add\n      swap2\n      jump(tag_40)\n    tag_41:\n      dup3\n      add\n      swap2\n      swap1\n      0x00\n      mstore\n      keccak256(0x00, 0x20)\n      swap1\n    tag_42:\n      dup2\n      sload\n      dup2\n      mstore\n      swap1\n      0x01\n      add\n      swap1\n      0x20\n      add\n      dup1\n      dup4\n      gt\n      tag_42\n      jumpi\n      dup3\n      swap1\n      sub\n      0x1f\n      and\n      dup3\n      add\n      swap2\n    tag_40:\n      pop\n      pop\n      pop\n      pop\n      pop\n      swap1\n      dup1\n      0x04\n      add\n      sload\n      swap1\n      dup1\n      0x05\n      add\n      0x00\n      swap1\n      sload\n      swap1\n      0x0100\n      exp\n      swap1\n      div\n      0xff\n      and\n      swap1\n      pop\n      dup7\n      jump\t// out\n        /* \"contracts/EnhancedAuditLog.sol\":1587:2034  function getPatientAccessRecords(address patient) ... */\n    tag_19:\n        /* \"contracts/EnhancedAuditLog.sol\":1688:1709  AccessRecord[] memory */\n      0x60\n        /* \"contracts/EnhancedAuditLog.sol\":1728:1752  uint256[] memory indices */\n      0x00\n        /* \"contracts/EnhancedAuditLog.sol\":1755:1775  patientAccessRecords */\n      0x01\n        /* \"contracts/EnhancedAuditLog.sol\":1755:1784  patientAccessRecords[patient] */\n      0x00\n        /* \"contracts/EnhancedAuditLog.sol\":1776:1783  patient */\n      dup5\n        /* \"contracts/EnhancedAuditLog.sol\":1755:1784  patientAccessRecords[patient] */\n      0xffffffffffffffffffffffffffffffffffffffff\n      and\n      0xffffffffffffffffffffffffffffffffffffffff\n      and\n      dup2\n      mstore\n      0x20\n      add\n      swap1\n      dup2\n      mstore\n      0x20\n      add\n      0x00\n      keccak256\n        /* \"contracts/EnhancedAuditLog.sol\":1728:1784  uint256[] memory indices = patientAccessRecords[patient] */\n      dup1\n      sload\n      dup1\n      0x20\n      mul\n      0x20\n      add\n      mload(0x40)\n      swap1\n      dup2\n      add\n      0x40\n      mstore\n      dup1\n      swap3\n      swap2\n      swap1\n      dup2\n      dup2\n      mstore\n      0x20\n      add\n      dup3\n      dup1\n      sload\n      dup1\n      iszero\n      tag_44\n      jumpi\n      0x20\n      mul\n      dup3\n      add\n      swap2\n      swap1\n      0x00\n      mstore\n      keccak256(0x00, 0x20)\n      swap1\n    tag_45:\n      dup2\n      sload\n      dup2\n      mstore\n      0x20\n      add\n      swap1\n      0x01\n      add\n      swap1\n      dup1\n      dup4\n      gt\n      tag_45\n      jumpi\n    tag_44:\n      pop\n      pop\n      pop\n      pop\n      pop\n      swap1\n      pop\n        /* \"contracts/EnhancedAuditLog.sol\":1795:1824  AccessRecord[] memory records */\n      0x00\n        /* \"contracts/EnhancedAuditLog.sol\":1846:1853  indices */\n      dup2\n        /* \"contracts/EnhancedAuditLog.sol\":1846:1860  indices.length */\n      mload\n        /* \"contracts/EnhancedAuditLog.sol\":1827:1861  new AccessRecord[](indices.length) */\n      0xffffffffffffffff\n      dup2\n      gt\n      iszero\n      tag_46\n      jumpi\n      tag_47\n      tag_48\n      jump\t// in\n    tag_47:\n    tag_46:\n      mload(0x40)\n      swap1\n      dup1\n      dup3\n      mstore\n      dup1\n      0x20\n      mul\n      0x20\n      add\n      dup3\n      add\n      0x40\n      mstore\n      dup1\n      iszero\n      tag_49\n      jumpi\n      dup2\n      0x20\n      add\n    tag_50:\n      tag_51\n      tag_52\n      jump\t// in\n    tag_51:\n      dup2\n      mstore\n      0x20\n      add\n      swap1\n      0x01\n      swap1\n      sub\n      swap1\n      dup2\n      tag_50\n      jumpi\n      swap1\n      pop\n    tag_49:\n      pop\n        /* \"contracts/EnhancedAuditLog.sol\":1795:1861  AccessRecord[] memory records = new AccessRecord[](indices.length) */\n      swap1\n      pop\n        /* \"contracts/EnhancedAuditLog.sol\":1887:1896  uint256 i */\n      0x00\n        /* \"contracts/EnhancedAuditLog.sol\":1882:1992  for (uint256 i = 0; i < indices.length; i++) {... */\n    tag_53:\n        /* \"contracts/EnhancedAuditLog.sol\":1906:1913  indices */\n      dup3\n        /* \"contracts/EnhancedAuditLog.sol\":1906:1920  indices.length */\n      mload\n        /* \"contracts/EnhancedAuditLog.sol\":1902:1903  i */\n      dup2\n        /* \"contracts/EnhancedAuditLog.sol\":1902:1920  i < indices.length */\n      lt\n        /* \"contracts/EnhancedAuditLog.sol\":1882:1992  for (uint256 i = 0; i < indices.length; i++) {... */\n      iszero\n      tag_54\n      jumpi\n        /* \"contracts/EnhancedAuditLog.sol\":1955:1968  accessRecords */\n      0x00\n        /* \"contracts/EnhancedAuditLog.sol\":1969:1976  indices */\n      dup4\n        /* \"contracts/EnhancedAuditLog.sol\":1977:1978  i */\n      dup3\n        /* \"contracts/EnhancedAuditLog.sol\":1969:1979  indices[i] */\n      dup2\n      mload\n      dup2\n      lt\n      tag_56\n      jumpi\n      tag_57\n      tag_58\n      jump\t// in\n    tag_57:\n    tag_56:\n      0x20\n      mul\n      0x20\n      add\n      add\n      mload\n        /* \"contracts/EnhancedAuditLog.sol\":1955:1980  accessRecords[indices[i]] */\n      dup2\n      sload\n      dup2\n      lt\n      tag_59\n      jumpi\n      tag_60\n      tag_58\n      jump\t// in\n    tag_60:\n    tag_59:\n      swap1\n      0x00\n      mstore\n      keccak256(0x00, 0x20)\n      swap1\n      0x06\n      mul\n      add\n        /* \"contracts/EnhancedAuditLog.sol\":1942:1980  records[i] = accessRecords[indices[i]] */\n      mload(0x40)\n      dup1\n      0xc0\n      add\n      0x40\n      mstore\n      swap1\n      dup2\n      0x00\n      dup3\n      add\n      0x00\n      swap1\n      sload\n      swap1\n      0x0100\n      exp\n      swap1\n      div\n      0xffffffffffffffffffffffffffffffffffffffff\n      and\n      0xffffffffffffffffffffffffffffffffffffffff\n      and\n      0xffffffffffffffffffffffffffffffffffffffff\n      and\n      dup2\n      mstore\n      0x20\n      add\n      0x01\n      dup3\n      add\n      0x00\n      swap1\n      sload\n      swap1\n      0x0100\n      exp\n      swap1\n      div\n      0xffffffffffffffffffffffffffffffffffffffff\n      and\n      0xffffffffffffffffffffffffffffffffffffffff\n      and\n      0xffffffffffffffffffffffffffffffffffffffff\n      and\n      dup2\n      mstore\n      0x20\n      add\n      0x02\n      dup3\n      add\n      dup1\n      sload\n      tag_62\n      swap1\n      tag_33\n      jump\t// in\n    tag_62:\n      dup1\n      0x1f\n      add\n      0x20\n      dup1\n      swap2\n      div\n      mul\n      0x20\n      add\n      mload(0x40)\n      swap1\n      dup2\n      add\n      0x40\n      mstore\n      dup1\n      swap3\n      swap2\n      swap1\n      dup2\n      dup2\n      mstore\n      0x20\n      add\n      dup3\n      dup1\n      sload\n      tag_63\n      swap1\n      tag_33\n      jump\t// in\n    tag_63:\n      dup1\n      iszero\n      tag_64\n      jumpi\n      dup1\n      0x1f\n      lt\n      tag_65\n      jumpi\n      0x0100\n      dup1\n      dup4\n      sload\n      div\n      mul\n      dup4\n      mstore\n      swap2\n      0x20\n      add\n      swap2\n      jump(tag_64)\n    tag_65:\n      dup3\n      add\n      swap2\n      swap1\n      0x00\n      mstore\n      keccak256(0x00, 0x20)\n      swap1\n    tag_66:\n      dup2\n      sload\n      dup2\n      mstore\n      swap1\n      0x01\n      add\n      swap1\n      0x20\n      add\n      dup1\n      dup4\n      gt\n      tag_66\n      jumpi\n      dup3\n      swap1\n      sub\n      0x1f\n      and\n      dup3\n      add\n      swap2\n    tag_64:\n      pop\n      pop\n      pop\n      pop\n      pop\n      dup2\n      mstore\n      0x20\n      add\n      0x03\n      dup3\n      add\n      dup1\n      sload\n      tag_67\n      swap1\n      tag_33\n      jump\t// in\n    tag_67:\n      dup1\n      0x1f\n      add\n      0x20\n      dup1\n      swap2\n      div\n      mul\n      0x20\n      add\n      mload(0x40)\n      swap1\n      dup2\n      add\n      0x40\n      mstore\n      dup1\n      swap3\n      swap2\n      swap1\n      dup2\n      dup2\n      mstore\n      0x20\n      add\n      dup3\n      dup1\n      sload\n      tag_68\n      swap1\n      tag_33\n      jump\t// in\n    tag_68:\n      dup1\n      iszero\n      tag_69\n      jumpi\n      dup1\n      0x1f\n      lt\n      tag_70\n      jumpi\n      0x0100\n      dup1\n      dup4\n      sload\n      div\n      mul\n      dup4\n      mstore\n      swap2\n      0x20\n      add\n      swap2\n      jump(tag_69)\n    tag_70:\n      dup3\n      add\n      swap2\n      swap1\n      0x00\n      mstore\n      keccak256(0x00, 0x20)\n      swap1\n    tag_71:\n      dup2\n      sload\n      dup2\n      mstore\n      swap1\n      0x01\n      add\n      swap1\n      0x20\n      add\n      dup1\n      dup4\n      gt\n      tag_71\n      jumpi\n      dup3\n      swap1\n      sub\n      0x1f\n      and\n      dup3\n      add\n      swap2\n    tag_69:\n      pop\n      pop\n      pop\n      pop\n      pop\n      dup2\n      mstore\n      0x20\n      add\n      0x04\n      dup3\n      add\n      sload\n      dup2\n      mstore\n      0x20\n      add\n      0x05\n      dup3\n      add\n      0x00\n      swap1\n      sload\n      swap1\n      0x0100\n      exp\n      swap1\n      div\n      0xff\n      and\n      iszero\n      iszero\n      iszero\n      iszero\n      dup2\n      mstore\n      pop\n      pop\n        /* \"contracts/EnhancedAuditLog.sol\":1942:1949  records */\n      dup3\n        /* \"contracts/EnhancedAuditLog.sol\":1950:1951  i */\n      dup3\n        /* \"contracts/EnhancedAuditLog.sol\":1942:1952  records[i] */\n      dup2\n      mload\n      dup2\n      lt\n      tag_72\n      jumpi\n      tag_73\n      tag_58\n      jump\t// in\n    tag_73:\n    tag_72:\n      0x20\n      mul\n      0x20\n      add\n      add\n        /* \"contracts/EnhancedAuditLog.sol\":1942:1980  records[i] = accessRecords[indices[i]] */\n      dup2\n      swap1\n      mstore\n      pop\n        /* \"contracts/EnhancedAuditLog.sol\":1922:1925  i++ */\n      dup1\n      dup1\n      0x01\n      add\n      swap2\n      pop\n      pop\n        /* \"contracts/EnhancedAuditLog.sol\":1882:1992  for (uint256 i = 0; i < indices.length; i++) {... */\n      jump(tag_53)\n    tag_54:\n      pop\n        /* \"contracts/EnhancedAuditLog.sol\":2019:2026  records */\n      dup1\n        /* \"contracts/EnhancedAuditLog.sol\":2012:2026  return records */\n      swap3\n      pop\n      pop\n      pop\n        /* \"contracts/EnhancedAuditLog.sol\":1587:2034  function getPatientAccessRecords(address patient) ... */\n      swap2\n      swap1\n      pop\n      jump\t// out\n    tag_52:\n      mload(0x40)\n      dup1\n      0xc0\n      add\n      0x40\n      mstore\n      dup1\n      and(0xffffffffffffffffffffffffffffffffffffffff, 0x00)\n      dup2\n      mstore\n      0x20\n      add\n      and(0xffffffffffffffffffffffffffffffffffffffff, 0x00)\n      dup2\n      mstore\n      0x20\n      add\n      0x60\n      dup2\n      mstore\n      0x20\n      add\n      0x60\n      dup2\n      mstore\n      0x20\n      add\n      0x00\n      dup2\n      mstore\n      0x20\n      add\n      iszero(iszero(0x00))\n      dup2\n      mstore\n      pop\n      swap1\n      jump\t// out\n        /* \"#utility.yul\":7:82   */\n    tag_74:\n        /* \"#utility.yul\":40:46   */\n      0x00\n        /* \"#utility.yul\":73:75   */\n      0x40\n        /* \"#utility.yul\":67:76   */\n      mload\n        /* \"#utility.yul\":57:76   */\n      swap1\n      pop\n        /* \"#utility.yul\":7:82   */\n      swap1\n      jump\t// out\n        /* \"#utility.yul\":88:205   */\n    tag_75:\n        /* \"#utility.yul\":197:198   */\n      0x00\n        /* \"#utility.yul\":194:195   */\n      dup1\n        /* \"#utility.yul\":187:199   */\n      revert\n        /* \"#utility.yul\":211:328   */\n    tag_76:\n        /* \"#utility.yul\":320:321   */\n      0x00\n        /* \"#utility.yul\":317:318   */\n      dup1\n        /* \"#utility.yul\":310:322   */\n      revert\n        /* \"#utility.yul\":334:460   */\n    tag_77:\n        /* \"#utility.yul\":371:378   */\n      0x00\n        /* \"#utility.yul\":411:453   */\n      0xffffffffffffffffffffffffffffffffffffffff\n        /* \"#utility.yul\":404:409   */\n      dup3\n        /* \"#utility.yul\":400:454   */\n      and\n        /* \"#utility.yul\":389:454   */\n      swap1\n      pop\n        /* \"#utility.yul\":334:460   */\n      swap2\n      swap1\n      pop\n      jump\t// out\n        /* \"#utility.yul\":466:562   */\n    tag_78:\n        /* \"#utility.yul\":503:510   */\n      0x00\n        /* \"#utility.yul\":532:556   */\n      tag_137\n        /* \"#utility.yul\":550:555   */\n      dup3\n        /* \"#utility.yul\":532:556   */\n      tag_77\n      jump\t// in\n    tag_137:\n        /* \"#utility.yul\":521:556   */\n      swap1\n      pop\n        /* \"#utility.yul\":466:562   */\n      swap2\n      swap1\n      pop\n      jump\t// out\n        /* \"#utility.yul\":568:690   */\n    tag_79:\n        /* \"#utility.yul\":641:665   */\n      tag_139\n        /* \"#utility.yul\":659:664   */\n      dup2\n        /* \"#utility.yul\":641:665   */\n      tag_78\n      jump\t// in\n    tag_139:\n        /* \"#utility.yul\":634:639   */\n      dup2\n        /* \"#utility.yul\":631:666   */\n      eq\n        /* \"#utility.yul\":621:684   */\n      tag_140\n      jumpi\n        /* \"#utility.yul\":680:681   */\n      0x00\n        /* \"#utility.yul\":677:678   */\n      dup1\n        /* \"#utility.yul\":670:682   */\n      revert\n        /* \"#utility.yul\":621:684   */\n    tag_140:\n        /* \"#utility.yul\":568:690   */\n      pop\n      jump\t// out\n        /* \"#utility.yul\":696:835   */\n    tag_80:\n        /* \"#utility.yul\":742:747   */\n      0x00\n        /* \"#utility.yul\":780:786   */\n      dup2\n        /* \"#utility.yul\":767:787   */\n      calldataload\n        /* \"#utility.yul\":758:787   */\n      swap1\n      pop\n        /* \"#utility.yul\":796:829   */\n      tag_142\n        /* \"#utility.yul\":823:828   */\n      dup2\n        /* \"#utility.yul\":796:829   */\n      tag_79\n      jump\t// in\n    tag_142:\n        /* \"#utility.yul\":696:835   */\n      swap3\n      swap2\n      pop\n      pop\n      jump\t// out\n        /* \"#utility.yul\":841:958   */\n    tag_81:\n        /* \"#utility.yul\":950:951   */\n      0x00\n        /* \"#utility.yul\":947:948   */\n      dup1\n        /* \"#utility.yul\":940:952   */\n      revert\n        /* \"#utility.yul\":964:1081   */\n    tag_82:\n        /* \"#utility.yul\":1073:1074   */\n      0x00\n        /* \"#utility.yul\":1070:1071   */\n      dup1\n        /* \"#utility.yul\":1063:1075   */\n      revert\n        /* \"#utility.yul\":1087:1189   */\n    tag_83:\n        /* \"#utility.yul\":1128:1134   */\n      0x00\n        /* \"#utility.yul\":1179:1181   */\n      0x1f\n        /* \"#utility.yul\":1175:1182   */\n      not\n        /* \"#utility.yul\":1170:1172   */\n      0x1f\n        /* \"#utility.yul\":1163:1168   */\n      dup4\n        /* \"#utility.yul\":1159:1173   */\n      add\n        /* \"#utility.yul\":1155:1183   */\n      and\n        /* \"#utility.yul\":1145:1183   */\n      swap1\n      pop\n        /* \"#utility.yul\":1087:1189   */\n      swap2\n      swap1\n      pop\n      jump\t// out\n        /* \"#utility.yul\":1195:1375   */\n    tag_48:\n        /* \"#utility.yul\":1243:1320   */\n      0x4e487b7100000000000000000000000000000000000000000000000000000000\n        /* \"#utility.yul\":1240:1241   */\n      0x00\n        /* \"#utility.yul\":1233:1321   */\n      mstore\n        /* \"#utility.yul\":1340:1344   */\n      0x41\n        /* \"#utility.yul\":1337:1338   */\n      0x04\n        /* \"#utility.yul\":1330:1345   */\n      mstore\n        /* \"#utility.yul\":1364:1368   */\n      0x24\n        /* \"#utility.yul\":1361:1362   */\n      0x00\n        /* \"#utility.yul\":1354:1369   */\n      revert\n        /* \"#utility.yul\":1381:1662   */\n    tag_84:\n        /* \"#utility.yul\":1464:1491   */\n      tag_148\n        /* \"#utility.yul\":1486:1490   */\n      dup3\n        /* \"#utility.yul\":1464:1491   */\n      tag_83\n      jump\t// in\n    tag_148:\n        /* \"#utility.yul\":1456:1462   */\n      dup2\n        /* \"#utility.yul\":1452:1492   */\n      add\n        /* \"#utility.yul\":1594:1600   */\n      dup2\n        /* \"#utility.yul\":1582:1592   */\n      dup2\n        /* \"#utility.yul\":1579:1601   */\n      lt\n        /* \"#utility.yul\":1558:1576   */\n      0xffffffffffffffff\n        /* \"#utility.yul\":1546:1556   */\n      dup3\n        /* \"#utility.yul\":1543:1577   */\n      gt\n        /* \"#utility.yul\":1540:1602   */\n      or\n        /* \"#utility.yul\":1537:1625   */\n      iszero\n      tag_149\n      jumpi\n        /* \"#utility.yul\":1605:1623   */\n      tag_150\n      tag_48\n      jump\t// in\n    tag_150:\n        /* \"#utility.yul\":1537:1625   */\n    tag_149:\n        /* \"#utility.yul\":1645:1655   */\n      dup1\n        /* \"#utility.yul\":1641:1643   */\n      0x40\n        /* \"#utility.yul\":1634:1656   */\n      mstore\n        /* \"#utility.yul\":1424:1662   */\n      pop\n        /* \"#utility.yul\":1381:1662   */\n      pop\n      pop\n      jump\t// out\n        /* \"#utility.yul\":1668:1797   */\n    tag_85:\n        /* \"#utility.yul\":1702:1708   */\n      0x00\n        /* \"#utility.yul\":1729:1749   */\n      tag_152\n      tag_74\n      jump\t// in\n    tag_152:\n        /* \"#utility.yul\":1719:1749   */\n      swap1\n      pop\n        /* \"#utility.yul\":1758:1791   */\n      tag_153\n        /* \"#utility.yul\":1786:1790   */\n      dup3\n        /* \"#utility.yul\":1778:1784   */\n      dup3\n        /* \"#utility.yul\":1758:1791   */\n      tag_84\n      jump\t// in\n    tag_153:\n        /* \"#utility.yul\":1668:1797   */\n      swap2\n      swap1\n      pop\n      jump\t// out\n        /* \"#utility.yul\":1803:2111   */\n    tag_86:\n        /* \"#utility.yul\":1865:1869   */\n      0x00\n        /* \"#utility.yul\":1955:1973   */\n      0xffffffffffffffff\n        /* \"#utility.yul\":1947:1953   */\n      dup3\n        /* \"#utility.yul\":1944:1974   */\n      gt\n        /* \"#utility.yul\":1941:1997   */\n      iszero\n      tag_155\n      jumpi\n        /* \"#utility.yul\":1977:1995   */\n      tag_156\n      tag_48\n      jump\t// in\n    tag_156:\n        /* \"#utility.yul\":1941:1997   */\n    tag_155:\n        /* \"#utility.yul\":2015:2044   */\n      tag_157\n        /* \"#utility.yul\":2037:2043   */\n      dup3\n        /* \"#utility.yul\":2015:2044   */\n      tag_83\n      jump\t// in\n    tag_157:\n        /* \"#utility.yul\":2007:2044   */\n      swap1\n      pop\n        /* \"#utility.yul\":2099:2103   */\n      0x20\n        /* \"#utility.yul\":2093:2097   */\n      dup2\n        /* \"#utility.yul\":2089:2104   */\n      add\n        /* \"#utility.yul\":2081:2104   */\n      swap1\n      pop\n        /* \"#utility.yul\":1803:2111   */\n      swap2\n      swap1\n      pop\n      jump\t// out\n        /* \"#utility.yul\":2117:2265   */\n    tag_87:\n        /* \"#utility.yul\":2215:2221   */\n      dup3\n        /* \"#utility.yul\":2210:2213   */\n      dup2\n        /* \"#utility.yul\":2205:2208   */\n      dup4\n        /* \"#utility.yul\":2192:2222   */\n      calldatacopy\n        /* \"#utility.yul\":2256:2257   */\n      0x00\n        /* \"#utility.yul\":2247:2253   */\n      dup4\n        /* \"#utility.yul\":2242:2245   */\n      dup4\n        /* \"#utility.yul\":2238:2254   */\n      add\n        /* \"#utility.yul\":2231:2258   */\n      mstore\n        /* \"#utility.yul\":2117:2265   */\n      pop\n      pop\n      pop\n      jump\t// out\n        /* \"#utility.yul\":2271:2696   */\n    tag_88:\n        /* \"#utility.yul\":2349:2354   */\n      0x00\n        /* \"#utility.yul\":2374:2440   */\n      tag_160\n        /* \"#utility.yul\":2390:2439   */\n      tag_161\n        /* \"#utility.yul\":2432:2438   */\n      dup5\n        /* \"#utility.yul\":2390:2439   */\n      tag_86\n      jump\t// in\n    tag_161:\n        /* \"#utility.yul\":2374:2440   */\n      tag_85\n      jump\t// in\n    tag_160:\n        /* \"#utility.yul\":2365:2440   */\n      swap1\n      pop\n        /* \"#utility.yul\":2463:2469   */\n      dup3\n        /* \"#utility.yul\":2456:2461   */\n      dup2\n        /* \"#utility.yul\":2449:2470   */\n      mstore\n        /* \"#utility.yul\":2501:2505   */\n      0x20\n        /* \"#utility.yul\":2494:2499   */\n      dup2\n        /* \"#utility.yul\":2490:2506   */\n      add\n        /* \"#utility.yul\":2539:2542   */\n      dup5\n        /* \"#utility.yul\":2530:2536   */\n      dup5\n        /* \"#utility.yul\":2525:2528   */\n      dup5\n        /* \"#utility.yul\":2521:2537   */\n      add\n        /* \"#utility.yul\":2518:2543   */\n      gt\n        /* \"#utility.yul\":2515:2627   */\n      iszero\n      tag_162\n      jumpi\n        /* \"#utility.yul\":2546:2625   */\n      tag_163\n      tag_82\n      jump\t// in\n    tag_163:\n        /* \"#utility.yul\":2515:2627   */\n    tag_162:\n        /* \"#utility.yul\":2636:2690   */\n      tag_164\n        /* \"#utility.yul\":2683:2689   */\n      dup5\n        /* \"#utility.yul\":2678:2681   */\n      dup3\n        /* \"#utility.yul\":2673:2676   */\n      dup6\n        /* \"#utility.yul\":2636:2690   */\n      tag_87\n      jump\t// in\n    tag_164:\n        /* \"#utility.yul\":2355:2696   */\n      pop\n        /* \"#utility.yul\":2271:2696   */\n      swap4\n      swap3\n      pop\n      pop\n      pop\n      jump\t// out\n        /* \"#utility.yul\":2716:3056   */\n    tag_89:\n        /* \"#utility.yul\":2772:2777   */\n      0x00\n        /* \"#utility.yul\":2821:2824   */\n      dup3\n        /* \"#utility.yul\":2814:2818   */\n      0x1f\n        /* \"#utility.yul\":2806:2812   */\n      dup4\n        /* \"#utility.yul\":2802:2819   */\n      add\n        /* \"#utility.yul\":2798:2825   */\n      slt\n        /* \"#utility.yul\":2788:2910   */\n      tag_166\n      jumpi\n        /* \"#utility.yul\":2829:2908   */\n      tag_167\n      tag_81\n      jump\t// in\n    tag_167:\n        /* \"#utility.yul\":2788:2910   */\n    tag_166:\n        /* \"#utility.yul\":2946:2952   */\n      dup2\n        /* \"#utility.yul\":2933:2953   */\n      calldataload\n        /* \"#utility.yul\":2971:3050   */\n      tag_168\n        /* \"#utility.yul\":3046:3049   */\n      dup5\n        /* \"#utility.yul\":3038:3044   */\n      dup3\n        /* \"#utility.yul\":3031:3035   */\n      0x20\n        /* \"#utility.yul\":3023:3029   */\n      dup7\n        /* \"#utility.yul\":3019:3036   */\n      add\n        /* \"#utility.yul\":2971:3050   */\n      tag_88\n      jump\t// in\n    tag_168:\n        /* \"#utility.yul\":2962:3050   */\n      swap2\n      pop\n        /* \"#utility.yul\":2778:3056   */\n      pop\n        /* \"#utility.yul\":2716:3056   */\n      swap3\n      swap2\n      pop\n      pop\n      jump\t// out\n        /* \"#utility.yul\":3062:3152   */\n    tag_90:\n        /* \"#utility.yul\":3096:3103   */\n      0x00\n        /* \"#utility.yul\":3139:3144   */\n      dup2\n        /* \"#utility.yul\":3132:3145   */\n      iszero\n        /* \"#utility.yul\":3125:3146   */\n      iszero\n        /* \"#utility.yul\":3114:3146   */\n      swap1\n      pop\n        /* \"#utility.yul\":3062:3152   */\n      swap2\n      swap1\n      pop\n      jump\t// out\n        /* \"#utility.yul\":3158:3274   */\n    tag_91:\n        /* \"#utility.yul\":3228:3249   */\n      tag_171\n        /* \"#utility.yul\":3243:3248   */\n      dup2\n        /* \"#utility.yul\":3228:3249   */\n      tag_90\n      jump\t// in\n    tag_171:\n        /* \"#utility.yul\":3221:3226   */\n      dup2\n        /* \"#utility.yul\":3218:3250   */\n      eq\n        /* \"#utility.yul\":3208:3268   */\n      tag_172\n      jumpi\n        /* \"#utility.yul\":3264:3265   */\n      0x00\n        /* \"#utility.yul\":3261:3262   */\n      dup1\n        /* \"#utility.yul\":3254:3266   */\n      revert\n        /* \"#utility.yul\":3208:3268   */\n    tag_172:\n        /* \"#utility.yul\":3158:3274   */\n      pop\n      jump\t// out\n        /* \"#utility.yul\":3280:3413   */\n    tag_92:\n        /* \"#utility.yul\":3323:3328   */\n      0x00\n        /* \"#utility.yul\":3361:3367   */\n      dup2\n        /* \"#utility.yul\":3348:3368   */\n      calldataload\n        /* \"#utility.yul\":3339:3368   */\n      swap1\n      pop\n        /* \"#utility.yul\":3377:3407   */\n      tag_174\n        /* \"#utility.yul\":3401:3406   */\n      dup2\n        /* \"#utility.yul\":3377:3407   */\n      tag_91\n      jump\t// in\n    tag_174:\n        /* \"#utility.yul\":3280:3413   */\n      swap3\n      swap2\n      pop\n      pop\n      jump\t// out\n        /* \"#utility.yul\":3419:4684   */\n    tag_8:\n        /* \"#utility.yul\":3531:3537   */\n      0x00\n        /* \"#utility.yul\":3539:3545   */\n      dup1\n        /* \"#utility.yul\":3547:3553   */\n      0x00\n        /* \"#utility.yul\":3555:3561   */\n      dup1\n        /* \"#utility.yul\":3563:3569   */\n      0x00\n        /* \"#utility.yul\":3612:3615   */\n      0xa0\n        /* \"#utility.yul\":3600:3609   */\n      dup7\n        /* \"#utility.yul\":3591:3598   */\n      dup9\n        /* \"#utility.yul\":3587:3610   */\n      sub\n        /* \"#utility.yul\":3583:3616   */\n      slt\n        /* \"#utility.yul\":3580:3700   */\n      iszero\n      tag_176\n      jumpi\n        /* \"#utility.yul\":3619:3698   */\n      tag_177\n      tag_75\n      jump\t// in\n    tag_177:\n        /* \"#utility.yul\":3580:3700   */\n    tag_176:\n        /* \"#utility.yul\":3739:3740   */\n      0x00\n        /* \"#utility.yul\":3764:3817   */\n      tag_178\n        /* \"#utility.yul\":3809:3816   */\n      dup9\n        /* \"#utility.yul\":3800:3806   */\n      dup3\n        /* \"#utility.yul\":3789:3798   */\n      dup10\n        /* \"#utility.yul\":3785:3807   */\n      add\n        /* \"#utility.yul\":3764:3817   */\n      tag_80\n      jump\t// in\n    tag_178:\n        /* \"#utility.yul\":3754:3817   */\n      swap6\n      pop\n        /* \"#utility.yul\":3710:3827   */\n      pop\n        /* \"#utility.yul\":3866:3868   */\n      0x20\n        /* \"#utility.yul\":3892:3945   */\n      tag_179\n        /* \"#utility.yul\":3937:3944   */\n      dup9\n        /* \"#utility.yul\":3928:3934   */\n      dup3\n        /* \"#utility.yul\":3917:3926   */\n      dup10\n        /* \"#utility.yul\":3913:3935   */\n      add\n        /* \"#utility.yul\":3892:3945   */\n      tag_80\n      jump\t// in\n    tag_179:\n        /* \"#utility.yul\":3882:3945   */\n      swap5\n      pop\n        /* \"#utility.yul\":3837:3955   */\n      pop\n        /* \"#utility.yul\":4022:4024   */\n      0x40\n        /* \"#utility.yul\":4011:4020   */\n      dup7\n        /* \"#utility.yul\":4007:4025   */\n      add\n        /* \"#utility.yul\":3994:4026   */\n      calldataload\n        /* \"#utility.yul\":4053:4071   */\n      0xffffffffffffffff\n        /* \"#utility.yul\":4045:4051   */\n      dup2\n        /* \"#utility.yul\":4042:4072   */\n      gt\n        /* \"#utility.yul\":4039:4156   */\n      iszero\n      tag_180\n      jumpi\n        /* \"#utility.yul\":4075:4154   */\n      tag_181\n      tag_76\n      jump\t// in\n    tag_181:\n        /* \"#utility.yul\":4039:4156   */\n    tag_180:\n        /* \"#utility.yul\":4180:4243   */\n      tag_182\n        /* \"#utility.yul\":4235:4242   */\n      dup9\n        /* \"#utility.yul\":4226:4232   */\n      dup3\n        /* \"#utility.yul\":4215:4224   */\n      dup10\n        /* \"#utility.yul\":4211:4233   */\n      add\n        /* \"#utility.yul\":4180:4243   */\n      tag_89\n      jump\t// in\n    tag_182:\n        /* \"#utility.yul\":4170:4243   */\n      swap4\n      pop\n        /* \"#utility.yul\":3965:4253   */\n      pop\n        /* \"#utility.yul\":4320:4322   */\n      0x60\n        /* \"#utility.yul\":4309:4318   */\n      dup7\n        /* \"#utility.yul\":4305:4323   */\n      add\n        /* \"#utility.yul\":4292:4324   */\n      calldataload\n        /* \"#utility.yul\":4351:4369   */\n      0xffffffffffffffff\n        /* \"#utility.yul\":4343:4349   */\n      dup2\n        /* \"#utility.yul\":4340:4370   */\n      gt\n        /* \"#utility.yul\":4337:4454   */\n      iszero\n      tag_183\n      jumpi\n        /* \"#utility.yul\":4373:4452   */\n      tag_184\n      tag_76\n      jump\t// in\n    tag_184:\n        /* \"#utility.yul\":4337:4454   */\n    tag_183:\n        /* \"#utility.yul\":4478:4541   */\n      tag_185\n        /* \"#utility.yul\":4533:4540   */\n      dup9\n        /* \"#utility.yul\":4524:4530   */\n      dup3\n        /* \"#utility.yul\":4513:4522   */\n      dup10\n        /* \"#utility.yul\":4509:4531   */\n      add\n        /* \"#utility.yul\":4478:4541   */\n      tag_89\n      jump\t// in\n    tag_185:\n        /* \"#utility.yul\":4468:4541   */\n      swap3\n      pop\n        /* \"#utility.yul\":4263:4551   */\n      pop\n        /* \"#utility.yul\":4590:4593   */\n      0x80\n        /* \"#utility.yul\":4617:4667   */\n      tag_186\n        /* \"#utility.yul\":4659:4666   */\n      dup9\n        /* \"#utility.yul\":4650:4656   */\n      dup3\n        /* \"#utility.yul\":4639:4648   */\n      dup10\n        /* \"#utility.yul\":4635:4657   */\n      add\n        /* \"#utility.yul\":4617:4667   */\n      tag_92\n      jump\t// in\n    tag_186:\n        /* \"#utility.yul\":4607:4667   */\n      swap2\n      pop\n        /* \"#utility.yul\":4561:4677   */\n      pop\n        /* \"#utility.yul\":3419:4684   */\n      swap3\n      swap6\n      pop\n      swap3\n      swap6\n      swap1\n      swap4\n      pop\n      jump\t// out\n        /* \"#utility.yul\":4690:4767   */\n    tag_93:\n        /* \"#utility.yul\":4727:4734   */\n      0x00\n        /* \"#utility.yul\":4756:4761   */\n      dup2\n        /* \"#utility.yul\":4745:4761   */\n      swap1\n      pop\n        /* \"#utility.yul\":4690:4767   */\n      swap2\n      swap1\n      pop\n      jump\t// out\n        /* \"#utility.yul\":4773:4895   */\n    tag_94:\n        /* \"#utility.yul\":4846:4870   */\n      tag_189\n        /* \"#utility.yul\":4864:4869   */\n      dup2\n        /* \"#utility.yul\":4846:4870   */\n      tag_93\n      jump\t// in\n    tag_189:\n        /* \"#utility.yul\":4839:4844   */\n      dup2\n        /* \"#utility.yul\":4836:4871   */\n      eq\n        /* \"#utility.yul\":4826:4889   */\n      tag_190\n      jumpi\n        /* \"#utility.yul\":4885:4886   */\n      0x00\n        /* \"#utility.yul\":4882:4883   */\n      dup1\n        /* \"#utility.yul\":4875:4887   */\n      revert\n        /* \"#utility.yul\":4826:4889   */\n    tag_190:\n        /* \"#utility.yul\":4773:4895   */\n      pop\n      jump\t// out\n        /* \"#utility.yul\":4901:5040   */\n    tag_95:\n        /* \"#utility.yul\":4947:4952   */\n      0x00\n        /* \"#utility.yul\":4985:4991   */\n      dup2\n        /* \"#utility.yul\":4972:4992   */\n      calldataload\n        /* \"#utility.yul\":4963:4992   */\n      swap1\n      pop\n        /* \"#utility.yul\":5001:5034   */\n      tag_192\n        /* \"#utility.yul\":5028:5033   */\n      dup2\n        /* \"#utility.yul\":5001:5034   */\n      tag_94\n      jump\t// in\n    tag_192:\n        /* \"#utility.yul\":4901:5040   */\n      swap3\n      swap2\n      pop\n      pop\n      jump\t// out\n        /* \"#utility.yul\":5046:5375   */\n    tag_12:\n        /* \"#utility.yul\":5105:5111   */\n      0x00\n        /* \"#utility.yul\":5154:5156   */\n      0x20\n        /* \"#utility.yul\":5142:5151   */\n      dup3\n        /* \"#utility.yul\":5133:5140   */\n      dup5\n        /* \"#utility.yul\":5129:5152   */\n      sub\n        /* \"#utility.yul\":5125:5157   */\n      slt\n        /* \"#utility.yul\":5122:5241   */\n      iszero\n      tag_194\n      jumpi\n        /* \"#utility.yul\":5160:5239   */\n      tag_195\n      tag_75\n      jump\t// in\n    tag_195:\n        /* \"#utility.yul\":5122:5241   */\n    tag_194:\n        /* \"#utility.yul\":5280:5281   */\n      0x00\n        /* \"#utility.yul\":5305:5358   */\n      tag_196\n        /* \"#utility.yul\":5350:5357   */\n      dup5\n        /* \"#utility.yul\":5341:5347   */\n      dup3\n        /* \"#utility.yul\":5330:5339   */\n      dup6\n        /* \"#utility.yul\":5326:5348   */\n      add\n        /* \"#utility.yul\":5305:5358   */\n      tag_95\n      jump\t// in\n    tag_196:\n        /* \"#utility.yul\":5295:5358   */\n      swap2\n      pop\n        /* \"#utility.yul\":5251:5368   */\n      pop\n        /* \"#utility.yul\":5046:5375   */\n      swap3\n      swap2\n      pop\n      pop\n      jump\t// out\n        /* \"#utility.yul\":5381:5499   */\n    tag_96:\n        /* \"#utility.yul\":5468:5492   */\n      tag_198\n        /* \"#utility.yul\":5486:5491   */\n      dup2\n        /* \"#utility.yul\":5468:5492   */\n      tag_78\n      jump\t// in\n    tag_198:\n        /* \"#utility.yul\":5463:5466   */\n      dup3\n        /* \"#utility.yul\":5456:5493   */\n      mstore\n        /* \"#utility.yul\":5381:5499   */\n      pop\n      pop\n      jump\t// out\n        /* \"#utility.yul\":5505:5604   */\n    tag_97:\n        /* \"#utility.yul\":5557:5563   */\n      0x00\n        /* \"#utility.yul\":5591:5596   */\n      dup2\n        /* \"#utility.yul\":5585:5597   */\n      mload\n        /* \"#utility.yul\":5575:5597   */\n      swap1\n      pop\n        /* \"#utility.yul\":5505:5604   */\n      swap2\n      swap1\n      pop\n      jump\t// out\n        /* \"#utility.yul\":5610:5779   */\n    tag_98:\n        /* \"#utility.yul\":5694:5705   */\n      0x00\n        /* \"#utility.yul\":5728:5734   */\n      dup3\n        /* \"#utility.yul\":5723:5726   */\n      dup3\n        /* \"#utility.yul\":5716:5735   */\n      mstore\n        /* \"#utility.yul\":5768:5772   */\n      0x20\n        /* \"#utility.yul\":5763:5766   */\n      dup3\n        /* \"#utility.yul\":5759:5773   */\n      add\n        /* \"#utility.yul\":5744:5773   */\n      swap1\n      pop\n        /* \"#utility.yul\":5610:5779   */\n      swap3\n      swap2\n      pop\n      pop\n      jump\t// out\n        /* \"#utility.yul\":5785:5924   */\n    tag_99:\n        /* \"#utility.yul\":5874:5880   */\n      dup3\n        /* \"#utility.yul\":5869:5872   */\n      dup2\n        /* \"#utility.yul\":5864:5867   */\n      dup4\n        /* \"#utility.yul\":5858:5881   */\n      mcopy\n        /* \"#utility.yul\":5915:5916   */\n      0x00\n        /* \"#utility.yul\":5906:5912   */\n      dup4\n        /* \"#utility.yul\":5901:5904   */\n      dup4\n        /* \"#utility.yul\":5897:5913   */\n      add\n        /* \"#utility.yul\":5890:5917   */\n      mstore\n        /* \"#utility.yul\":5785:5924   */\n      pop\n      pop\n      pop\n      jump\t// out\n        /* \"#utility.yul\":5930:6307   */\n    tag_100:\n        /* \"#utility.yul\":6018:6021   */\n      0x00\n        /* \"#utility.yul\":6046:6085   */\n      tag_203\n        /* \"#utility.yul\":6079:6084   */\n      dup3\n        /* \"#utility.yul\":6046:6085   */\n      tag_97\n      jump\t// in\n    tag_203:\n        /* \"#utility.yul\":6101:6172   */\n      tag_204\n        /* \"#utility.yul\":6165:6171   */\n      dup2\n        /* \"#utility.yul\":6160:6163   */\n      dup6\n        /* \"#utility.yul\":6101:6172   */\n      tag_98\n      jump\t// in\n    tag_204:\n        /* \"#utility.yul\":6094:6172   */\n      swap4\n      pop\n        /* \"#utility.yul\":6181:6246   */\n      tag_205\n        /* \"#utility.yul\":6239:6245   */\n      dup2\n        /* \"#utility.yul\":6234:6237   */\n      dup6\n        /* \"#utility.yul\":6227:6231   */\n      0x20\n        /* \"#utility.yul\":6220:6225   */\n      dup7\n        /* \"#utility.yul\":6216:6232   */\n      add\n        /* \"#utility.yul\":6181:6246   */\n      tag_99\n      jump\t// in\n    tag_205:\n        /* \"#utility.yul\":6271:6300   */\n      tag_206\n        /* \"#utility.yul\":6293:6299   */\n      dup2\n        /* \"#utility.yul\":6271:6300   */\n      tag_83\n      jump\t// in\n    tag_206:\n        /* \"#utility.yul\":6266:6269   */\n      dup5\n        /* \"#utility.yul\":6262:6301   */\n      add\n        /* \"#utility.yul\":6255:6301   */\n      swap2\n      pop\n        /* \"#utility.yul\":6022:6307   */\n      pop\n        /* \"#utility.yul\":5930:6307   */\n      swap3\n      swap2\n      pop\n      pop\n      jump\t// out\n        /* \"#utility.yul\":6313:6431   */\n    tag_101:\n        /* \"#utility.yul\":6400:6424   */\n      tag_208\n        /* \"#utility.yul\":6418:6423   */\n      dup2\n        /* \"#utility.yul\":6400:6424   */\n      tag_93\n      jump\t// in\n    tag_208:\n        /* \"#utility.yul\":6395:6398   */\n      dup3\n        /* \"#utility.yul\":6388:6425   */\n      mstore\n        /* \"#utility.yul\":6313:6431   */\n      pop\n      pop\n      jump\t// out\n        /* \"#utility.yul\":6437:6546   */\n    tag_102:\n        /* \"#utility.yul\":6518:6539   */\n      tag_210\n        /* \"#utility.yul\":6533:6538   */\n      dup2\n        /* \"#utility.yul\":6518:6539   */\n      tag_90\n      jump\t// in\n    tag_210:\n        /* \"#utility.yul\":6513:6516   */\n      dup3\n        /* \"#utility.yul\":6506:6540   */\n      mstore\n        /* \"#utility.yul\":6437:6546   */\n      pop\n      pop\n      jump\t// out\n        /* \"#utility.yul\":6552:7497   */\n    tag_15:\n        /* \"#utility.yul\":6819:6823   */\n      0x00\n        /* \"#utility.yul\":6857:6860   */\n      0xc0\n        /* \"#utility.yul\":6846:6855   */\n      dup3\n        /* \"#utility.yul\":6842:6861   */\n      add\n        /* \"#utility.yul\":6834:6861   */\n      swap1\n      pop\n        /* \"#utility.yul\":6871:6942   */\n      tag_212\n        /* \"#utility.yul\":6939:6940   */\n      0x00\n        /* \"#utility.yul\":6928:6937   */\n      dup4\n        /* \"#utility.yul\":6924:6941   */\n      add\n        /* \"#utility.yul\":6915:6921   */\n      dup10\n        /* \"#utility.yul\":6871:6942   */\n      tag_96\n      jump\t// in\n    tag_212:\n        /* \"#utility.yul\":6952:7024   */\n      tag_213\n        /* \"#utility.yul\":7020:7022   */\n      0x20\n        /* \"#utility.yul\":7009:7018   */\n      dup4\n        /* \"#utility.yul\":7005:7023   */\n      add\n        /* \"#utility.yul\":6996:7002   */\n      dup9\n        /* \"#utility.yul\":6952:7024   */\n      tag_96\n      jump\t// in\n    tag_213:\n        /* \"#utility.yul\":7071:7080   */\n      dup2\n        /* \"#utility.yul\":7065:7069   */\n      dup2\n        /* \"#utility.yul\":7061:7081   */\n      sub\n        /* \"#utility.yul\":7056:7058   */\n      0x40\n        /* \"#utility.yul\":7045:7054   */\n      dup4\n        /* \"#utility.yul\":7041:7059   */\n      add\n        /* \"#utility.yul\":7034:7082   */\n      mstore\n        /* \"#utility.yul\":7099:7177   */\n      tag_214\n        /* \"#utility.yul\":7172:7176   */\n      dup2\n        /* \"#utility.yul\":7163:7169   */\n      dup8\n        /* \"#utility.yul\":7099:7177   */\n      tag_100\n      jump\t// in\n    tag_214:\n        /* \"#utility.yul\":7091:7177   */\n      swap1\n      pop\n        /* \"#utility.yul\":7224:7233   */\n      dup2\n        /* \"#utility.yul\":7218:7222   */\n      dup2\n        /* \"#utility.yul\":7214:7234   */\n      sub\n        /* \"#utility.yul\":7209:7211   */\n      0x60\n        /* \"#utility.yul\":7198:7207   */\n      dup4\n        /* \"#utility.yul\":7194:7212   */\n      add\n        /* \"#utility.yul\":7187:7235   */\n      mstore\n        /* \"#utility.yul\":7252:7330   */\n      tag_215\n        /* \"#utility.yul\":7325:7329   */\n      dup2\n        /* \"#utility.yul\":7316:7322   */\n      dup7\n        /* \"#utility.yul\":7252:7330   */\n      tag_100\n      jump\t// in\n    tag_215:\n        /* \"#utility.yul\":7244:7330   */\n      swap1\n      pop\n        /* \"#utility.yul\":7340:7413   */\n      tag_216\n        /* \"#utility.yul\":7408:7411   */\n      0x80\n        /* \"#utility.yul\":7397:7406   */\n      dup4\n        /* \"#utility.yul\":7393:7412   */\n      add\n        /* \"#utility.yul\":7384:7390   */\n      dup6\n        /* \"#utility.yul\":7340:7413   */\n      tag_101\n      jump\t// in\n    tag_216:\n        /* \"#utility.yul\":7423:7490   */\n      tag_217\n        /* \"#utility.yul\":7485:7488   */\n      0xa0\n        /* \"#utility.yul\":7474:7483   */\n      dup4\n        /* \"#utility.yul\":7470:7489   */\n      add\n        /* \"#utility.yul\":7461:7467   */\n      dup5\n        /* \"#utility.yul\":7423:7490   */\n      tag_102\n      jump\t// in\n    tag_217:\n        /* \"#utility.yul\":6552:7497   */\n      swap8\n      swap7\n      pop\n      pop\n      pop\n      pop\n      pop\n      pop\n      pop\n      jump\t// out\n        /* \"#utility.yul\":7503:7832   */\n    tag_18:\n        /* \"#utility.yul\":7562:7568   */\n      0x00\n        /* \"#utility.yul\":7611:7613   */\n      0x20\n        /* \"#utility.yul\":7599:7608   */\n      dup3\n        /* \"#utility.yul\":7590:7597   */\n      dup5\n        /* \"#utility.yul\":7586:7609   */\n      sub\n        /* \"#utility.yul\":7582:7614   */\n      slt\n        /* \"#utility.yul\":7579:7698   */\n      iszero\n      tag_219\n      jumpi\n        /* \"#utility.yul\":7617:7696   */\n      tag_220\n      tag_75\n      jump\t// in\n    tag_220:\n        /* \"#utility.yul\":7579:7698   */\n    tag_219:\n        /* \"#utility.yul\":7737:7738   */\n      0x00\n        /* \"#utility.yul\":7762:7815   */\n      tag_221\n        /* \"#utility.yul\":7807:7814   */\n      dup5\n        /* \"#utility.yul\":7798:7804   */\n      dup3\n        /* \"#utility.yul\":7787:7796   */\n      dup6\n        /* \"#utility.yul\":7783:7805   */\n      add\n        /* \"#utility.yul\":7762:7815   */\n      tag_80\n      jump\t// in\n    tag_221:\n        /* \"#utility.yul\":7752:7815   */\n      swap2\n      pop\n        /* \"#utility.yul\":7708:7825   */\n      pop\n        /* \"#utility.yul\":7503:7832   */\n      swap3\n      swap2\n      pop\n      pop\n      jump\t// out\n        /* \"#utility.yul\":7838:7980   */\n    tag_103:\n        /* \"#utility.yul\":7933:7939   */\n      0x00\n        /* \"#utility.yul\":7967:7972   */\n      dup2\n        /* \"#utility.yul\":7961:7973   */\n      mload\n        /* \"#utility.yul\":7951:7973   */\n      swap1\n      pop\n        /* \"#utility.yul\":7838:7980   */\n      swap2\n      swap1\n      pop\n      jump\t// out\n        /* \"#utility.yul\":7986:8198   */\n    tag_104:\n        /* \"#utility.yul\":8113:8124   */\n      0x00\n        /* \"#utility.yul\":8147:8153   */\n      dup3\n        /* \"#utility.yul\":8142:8145   */\n      dup3\n        /* \"#utility.yul\":8135:8154   */\n      mstore\n        /* \"#utility.yul\":8187:8191   */\n      0x20\n        /* \"#utility.yul\":8182:8185   */\n      dup3\n        /* \"#utility.yul\":8178:8192   */\n      add\n        /* \"#utility.yul\":8163:8192   */\n      swap1\n      pop\n        /* \"#utility.yul\":7986:8198   */\n      swap3\n      swap2\n      pop\n      pop\n      jump\t// out\n        /* \"#utility.yul\":8204:8364   */\n    tag_105:\n        /* \"#utility.yul\":8299:8303   */\n      0x00\n        /* \"#utility.yul\":8322:8325   */\n      dup2\n        /* \"#utility.yul\":8314:8325   */\n      swap1\n      pop\n        /* \"#utility.yul\":8352:8356   */\n      0x20\n        /* \"#utility.yul\":8347:8350   */\n      dup3\n        /* \"#utility.yul\":8343:8357   */\n      add\n        /* \"#utility.yul\":8335:8357   */\n      swap1\n      pop\n        /* \"#utility.yul\":8204:8364   */\n      swap2\n      swap1\n      pop\n      jump\t// out\n        /* \"#utility.yul\":8370:8478   */\n    tag_106:\n        /* \"#utility.yul\":8447:8471   */\n      tag_226\n        /* \"#utility.yul\":8465:8470   */\n      dup2\n        /* \"#utility.yul\":8447:8471   */\n      tag_78\n      jump\t// in\n    tag_226:\n        /* \"#utility.yul\":8442:8445   */\n      dup3\n        /* \"#utility.yul\":8435:8472   */\n      mstore\n        /* \"#utility.yul\":8370:8478   */\n      pop\n      pop\n      jump\t// out\n        /* \"#utility.yul\":8484:8643   */\n    tag_107:\n        /* \"#utility.yul\":8558:8569   */\n      0x00\n        /* \"#utility.yul\":8592:8598   */\n      dup3\n        /* \"#utility.yul\":8587:8590   */\n      dup3\n        /* \"#utility.yul\":8580:8599   */\n      mstore\n        /* \"#utility.yul\":8632:8636   */\n      0x20\n        /* \"#utility.yul\":8627:8630   */\n      dup3\n        /* \"#utility.yul\":8623:8637   */\n      add\n        /* \"#utility.yul\":8608:8637   */\n      swap1\n      pop\n        /* \"#utility.yul\":8484:8643   */\n      swap3\n      swap2\n      pop\n      pop\n      jump\t// out\n        /* \"#utility.yul\":8649:9006   */\n    tag_108:\n        /* \"#utility.yul\":8727:8730   */\n      0x00\n        /* \"#utility.yul\":8755:8794   */\n      tag_229\n        /* \"#utility.yul\":8788:8793   */\n      dup3\n        /* \"#utility.yul\":8755:8794   */\n      tag_97\n      jump\t// in\n    tag_229:\n        /* \"#utility.yul\":8810:8871   */\n      tag_230\n        /* \"#utility.yul\":8864:8870   */\n      dup2\n        /* \"#utility.yul\":8859:8862   */\n      dup6\n        /* \"#utility.yul\":8810:8871   */\n      tag_107\n      jump\t// in\n    tag_230:\n        /* \"#utility.yul\":8803:8871   */\n      swap4\n      pop\n        /* \"#utility.yul\":8880:8945   */\n      tag_231\n        /* \"#utility.yul\":8938:8944   */\n      dup2\n        /* \"#utility.yul\":8933:8936   */\n      dup6\n        /* \"#utility.yul\":8926:8930   */\n      0x20\n        /* \"#utility.yul\":8919:8924   */\n      dup7\n        /* \"#utility.yul\":8915:8931   */\n      add\n        /* \"#utility.yul\":8880:8945   */\n      tag_99\n      jump\t// in\n    tag_231:\n        /* \"#utility.yul\":8970:8999   */\n      tag_232\n        /* \"#utility.yul\":8992:8998   */\n      dup2\n        /* \"#utility.yul\":8970:8999   */\n      tag_83\n      jump\t// in\n    tag_232:\n        /* \"#utility.yul\":8965:8968   */\n      dup5\n        /* \"#utility.yul\":8961:9000   */\n      add\n        /* \"#utility.yul\":8954:9000   */\n      swap2\n      pop\n        /* \"#utility.yul\":8731:9006   */\n      pop\n        /* \"#utility.yul\":8649:9006   */\n      swap3\n      swap2\n      pop\n      pop\n      jump\t// out\n        /* \"#utility.yul\":9012:9120   */\n    tag_109:\n        /* \"#utility.yul\":9089:9113   */\n      tag_234\n        /* \"#utility.yul\":9107:9112   */\n      dup2\n        /* \"#utility.yul\":9089:9113   */\n      tag_93\n      jump\t// in\n    tag_234:\n        /* \"#utility.yul\":9084:9087   */\n      dup3\n        /* \"#utility.yul\":9077:9114   */\n      mstore\n        /* \"#utility.yul\":9012:9120   */\n      pop\n      pop\n      jump\t// out\n        /* \"#utility.yul\":9126:9225   */\n    tag_110:\n        /* \"#utility.yul\":9197:9218   */\n      tag_236\n        /* \"#utility.yul\":9212:9217   */\n      dup2\n        /* \"#utility.yul\":9197:9218   */\n      tag_90\n      jump\t// in\n    tag_236:\n        /* \"#utility.yul\":9192:9195   */\n      dup3\n        /* \"#utility.yul\":9185:9219   */\n      mstore\n        /* \"#utility.yul\":9126:9225   */\n      pop\n      pop\n      jump\t// out\n        /* \"#utility.yul\":9315:10708   */\n    tag_111:\n        /* \"#utility.yul\":9430:9433   */\n      0x00\n        /* \"#utility.yul\":9466:9470   */\n      0xc0\n        /* \"#utility.yul\":9461:9464   */\n      dup4\n        /* \"#utility.yul\":9457:9471   */\n      add\n        /* \"#utility.yul\":9553:9557   */\n      0x00\n        /* \"#utility.yul\":9546:9551   */\n      dup4\n        /* \"#utility.yul\":9542:9558   */\n      add\n        /* \"#utility.yul\":9536:9559   */\n      mload\n        /* \"#utility.yul\":9572:9635   */\n      tag_238\n        /* \"#utility.yul\":9629:9633   */\n      0x00\n        /* \"#utility.yul\":9624:9627   */\n      dup7\n        /* \"#utility.yul\":9620:9634   */\n      add\n        /* \"#utility.yul\":9606:9618   */\n      dup3\n        /* \"#utility.yul\":9572:9635   */\n      tag_106\n      jump\t// in\n    tag_238:\n        /* \"#utility.yul\":9481:9645   */\n      pop\n        /* \"#utility.yul\":9730:9734   */\n      0x20\n        /* \"#utility.yul\":9723:9728   */\n      dup4\n        /* \"#utility.yul\":9719:9735   */\n      add\n        /* \"#utility.yul\":9713:9736   */\n      mload\n        /* \"#utility.yul\":9749:9812   */\n      tag_239\n        /* \"#utility.yul\":9806:9810   */\n      0x20\n        /* \"#utility.yul\":9801:9804   */\n      dup7\n        /* \"#utility.yul\":9797:9811   */\n      add\n        /* \"#utility.yul\":9783:9795   */\n      dup3\n        /* \"#utility.yul\":9749:9812   */\n      tag_106\n      jump\t// in\n    tag_239:\n        /* \"#utility.yul\":9655:9822   */\n      pop\n        /* \"#utility.yul\":9910:9914   */\n      0x40\n        /* \"#utility.yul\":9903:9908   */\n      dup4\n        /* \"#utility.yul\":9899:9915   */\n      add\n        /* \"#utility.yul\":9893:9916   */\n      mload\n        /* \"#utility.yul\":9963:9966   */\n      dup5\n        /* \"#utility.yul\":9957:9961   */\n      dup3\n        /* \"#utility.yul\":9953:9967   */\n      sub\n        /* \"#utility.yul\":9946:9950   */\n      0x40\n        /* \"#utility.yul\":9941:9944   */\n      dup7\n        /* \"#utility.yul\":9937:9951   */\n      add\n        /* \"#utility.yul\":9930:9968   */\n      mstore\n        /* \"#utility.yul\":9989:10062   */\n      tag_240\n        /* \"#utility.yul\":10057:10061   */\n      dup3\n        /* \"#utility.yul\":10043:10055   */\n      dup3\n        /* \"#utility.yul\":9989:10062   */\n      tag_108\n      jump\t// in\n    tag_240:\n        /* \"#utility.yul\":9981:10062   */\n      swap2\n      pop\n        /* \"#utility.yul\":9832:10073   */\n      pop\n        /* \"#utility.yul\":10164:10168   */\n      0x60\n        /* \"#utility.yul\":10157:10162   */\n      dup4\n        /* \"#utility.yul\":10153:10169   */\n      add\n        /* \"#utility.yul\":10147:10170   */\n      mload\n        /* \"#utility.yul\":10217:10220   */\n      dup5\n        /* \"#utility.yul\":10211:10215   */\n      dup3\n        /* \"#utility.yul\":10207:10221   */\n      sub\n        /* \"#utility.yul\":10200:10204   */\n      0x60\n        /* \"#utility.yul\":10195:10198   */\n      dup7\n        /* \"#utility.yul\":10191:10205   */\n      add\n        /* \"#utility.yul\":10184:10222   */\n      mstore\n        /* \"#utility.yul\":10243:10316   */\n      tag_241\n        /* \"#utility.yul\":10311:10315   */\n      dup3\n        /* \"#utility.yul\":10297:10309   */\n      dup3\n        /* \"#utility.yul\":10243:10316   */\n      tag_108\n      jump\t// in\n    tag_241:\n        /* \"#utility.yul\":10235:10316   */\n      swap2\n      pop\n        /* \"#utility.yul\":10083:10327   */\n      pop\n        /* \"#utility.yul\":10414:10418   */\n      0x80\n        /* \"#utility.yul\":10407:10412   */\n      dup4\n        /* \"#utility.yul\":10403:10419   */\n      add\n        /* \"#utility.yul\":10397:10420   */\n      mload\n        /* \"#utility.yul\":10433:10496   */\n      tag_242\n        /* \"#utility.yul\":10490:10494   */\n      0x80\n        /* \"#utility.yul\":10485:10488   */\n      dup7\n        /* \"#utility.yul\":10481:10495   */\n      add\n        /* \"#utility.yul\":10467:10479   */\n      dup3\n        /* \"#utility.yul\":10433:10496   */\n      tag_109\n      jump\t// in\n    tag_242:\n        /* \"#utility.yul\":10337:10506   */\n      pop\n        /* \"#utility.yul\":10595:10599   */\n      0xa0\n        /* \"#utility.yul\":10588:10593   */\n      dup4\n        /* \"#utility.yul\":10584:10600   */\n      add\n        /* \"#utility.yul\":10578:10601   */\n      mload\n        /* \"#utility.yul\":10614:10671   */\n      tag_243\n        /* \"#utility.yul\":10665:10669   */\n      0xa0\n        /* \"#utility.yul\":10660:10663   */\n      dup7\n        /* \"#utility.yul\":10656:10670   */\n      add\n        /* \"#utility.yul\":10642:10654   */\n      dup3\n        /* \"#utility.yul\":10614:10671   */\n      tag_110\n      jump\t// in\n    tag_243:\n        /* \"#utility.yul\":10516:10681   */\n      pop\n        /* \"#utility.yul\":10698:10702   */\n      dup1\n        /* \"#utility.yul\":10691:10702   */\n      swap2\n      pop\n        /* \"#utility.yul\":9435:10708   */\n      pop\n        /* \"#utility.yul\":9315:10708   */\n      swap3\n      swap2\n      pop\n      pop\n      jump\t// out\n        /* \"#utility.yul\":10714:10982   */\n    tag_112:\n        /* \"#utility.yul\":10839:10849   */\n      0x00\n        /* \"#utility.yul\":10874:10976   */\n      tag_245\n        /* \"#utility.yul\":10972:10975   */\n      dup4\n        /* \"#utility.yul\":10964:10970   */\n      dup4\n        /* \"#utility.yul\":10874:10976   */\n      tag_111\n      jump\t// in\n    tag_245:\n        /* \"#utility.yul\":10860:10976   */\n      swap1\n      pop\n        /* \"#utility.yul\":10714:10982   */\n      swap3\n      swap2\n      pop\n      pop\n      jump\t// out\n        /* \"#utility.yul\":10988:11129   */\n    tag_113:\n        /* \"#utility.yul\":11086:11090   */\n      0x00\n        /* \"#utility.yul\":11118:11122   */\n      0x20\n        /* \"#utility.yul\":11113:11116   */\n      dup3\n        /* \"#utility.yul\":11109:11123   */\n      add\n        /* \"#utility.yul\":11101:11123   */\n      swap1\n      pop\n        /* \"#utility.yul\":10988:11129   */\n      swap2\n      swap1\n      pop\n      jump\t// out\n        /* \"#utility.yul\":11223:12358   */\n    tag_114:\n        /* \"#utility.yul\":11398:11401   */\n      0x00\n        /* \"#utility.yul\":11427:11509   */\n      tag_248\n        /* \"#utility.yul\":11503:11508   */\n      dup3\n        /* \"#utility.yul\":11427:11509   */\n      tag_103\n      jump\t// in\n    tag_248:\n        /* \"#utility.yul\":11525:11639   */\n      tag_249\n        /* \"#utility.yul\":11632:11638   */\n      dup2\n        /* \"#utility.yul\":11627:11630   */\n      dup6\n        /* \"#utility.yul\":11525:11639   */\n      tag_104\n      jump\t// in\n    tag_249:\n        /* \"#utility.yul\":11518:11639   */\n      swap4\n      pop\n        /* \"#utility.yul\":11665:11668   */\n      dup4\n        /* \"#utility.yul\":11710:11714   */\n      0x20\n        /* \"#utility.yul\":11702:11708   */\n      dup3\n        /* \"#utility.yul\":11698:11715   */\n      mul\n        /* \"#utility.yul\":11693:11696   */\n      dup6\n        /* \"#utility.yul\":11689:11716   */\n      add\n        /* \"#utility.yul\":11740:11824   */\n      tag_250\n        /* \"#utility.yul\":11818:11823   */\n      dup6\n        /* \"#utility.yul\":11740:11824   */\n      tag_105\n      jump\t// in\n    tag_250:\n        /* \"#utility.yul\":11847:11854   */\n      dup1\n        /* \"#utility.yul\":11878:11879   */\n      0x00\n        /* \"#utility.yul\":11863:12313   */\n    tag_251:\n        /* \"#utility.yul\":11888:11894   */\n      dup6\n        /* \"#utility.yul\":11885:11886   */\n      dup2\n        /* \"#utility.yul\":11882:11895   */\n      lt\n        /* \"#utility.yul\":11863:12313   */\n      iszero\n      tag_253\n      jumpi\n        /* \"#utility.yul\":11959:11968   */\n      dup5\n        /* \"#utility.yul\":11953:11957   */\n      dup5\n        /* \"#utility.yul\":11949:11969   */\n      sub\n        /* \"#utility.yul\":11944:11947   */\n      dup10\n        /* \"#utility.yul\":11937:11970   */\n      mstore\n        /* \"#utility.yul\":12010:12016   */\n      dup2\n        /* \"#utility.yul\":12004:12017   */\n      mload\n        /* \"#utility.yul\":12038:12158   */\n      tag_254\n        /* \"#utility.yul\":12153:12157   */\n      dup6\n        /* \"#utility.yul\":12138:12151   */\n      dup3\n        /* \"#utility.yul\":12038:12158   */\n      tag_112\n      jump\t// in\n    tag_254:\n        /* \"#utility.yul\":12030:12158   */\n      swap5\n      pop\n        /* \"#utility.yul\":12181:12269   */\n      tag_255\n        /* \"#utility.yul\":12262:12268   */\n      dup4\n        /* \"#utility.yul\":12181:12269   */\n      tag_113\n      jump\t// in\n    tag_255:\n        /* \"#utility.yul\":12171:12269   */\n      swap3\n      pop\n        /* \"#utility.yul\":12298:12302   */\n      0x20\n        /* \"#utility.yul\":12293:12296   */\n      dup11\n        /* \"#utility.yul\":12289:12303   */\n      add\n        /* \"#utility.yul\":12282:12303   */\n      swap10\n      pop\n        /* \"#utility.yul\":11923:12313   */\n      pop\n        /* \"#utility.yul\":11910:11911   */\n      0x01\n        /* \"#utility.yul\":11907:11908   */\n      dup2\n        /* \"#utility.yul\":11903:11912   */\n      add\n        /* \"#utility.yul\":11898:11912   */\n      swap1\n      pop\n        /* \"#utility.yul\":11863:12313   */\n      jump(tag_251)\n    tag_253:\n        /* \"#utility.yul\":11867:11881   */\n      pop\n        /* \"#utility.yul\":12329:12333   */\n      dup3\n        /* \"#utility.yul\":12322:12333   */\n      swap8\n      pop\n        /* \"#utility.yul\":12349:12352   */\n      dup8\n        /* \"#utility.yul\":12342:12352   */\n      swap6\n      pop\n        /* \"#utility.yul\":11403:12358   */\n      pop\n      pop\n      pop\n      pop\n      pop\n        /* \"#utility.yul\":11223:12358   */\n      swap3\n      swap2\n      pop\n      pop\n      jump\t// out\n        /* \"#utility.yul\":12364:12849   */\n    tag_21:\n        /* \"#utility.yul\":12563:12567   */\n      0x00\n        /* \"#utility.yul\":12601:12603   */\n      0x20\n        /* \"#utility.yul\":12590:12599   */\n      dup3\n        /* \"#utility.yul\":12586:12604   */\n      add\n        /* \"#utility.yul\":12578:12604   */\n      swap1\n      pop\n        /* \"#utility.yul\":12650:12659   */\n      dup2\n        /* \"#utility.yul\":12644:12648   */\n      dup2\n        /* \"#utility.yul\":12640:12660   */\n      sub\n        /* \"#utility.yul\":12636:12637   */\n      0x00\n        /* \"#utility.yul\":12625:12634   */\n      dup4\n        /* \"#utility.yul\":12621:12638   */\n      add\n        /* \"#utility.yul\":12614:12661   */\n      mstore\n        /* \"#utility.yul\":12678:12842   */\n      tag_257\n        /* \"#utility.yul\":12837:12841   */\n      dup2\n        /* \"#utility.yul\":12828:12834   */\n      dup5\n        /* \"#utility.yul\":12678:12842   */\n      tag_114\n      jump\t// in\n    tag_257:\n        /* \"#utility.yul\":12670:12842   */\n      swap1\n      pop\n        /* \"#utility.yul\":12364:12849   */\n      swap3\n      swap2\n      pop\n      pop\n      jump\t// out\n        /* \"#utility.yul\":12855:13035   */\n    tag_115:\n        /* \"#utility.yul\":12903:12980   */\n      0x4e487b7100000000000000000000000000000000000000000000000000000000\n        /* \"#utility.yul\":12900:12901   */\n      0x00\n        /* \"#utility.yul\":12893:12981   */\n      mstore\n        /* \"#utility.yul\":13000:13004   */\n      0x22\n        /* \"#utility.yul\":12997:12998   */\n      0x04\n        /* \"#utility.yul\":12990:13005   */\n      mstore\n        /* \"#utility.yul\":13024:13028   */\n      0x24\n        /* \"#utility.yul\":13021:13022   */\n      0x00\n        /* \"#utility.yul\":13014:13029   */\n      revert\n        /* \"#utility.yul\":13041:13361   */\n    tag_33:\n        /* \"#utility.yul\":13085:13091   */\n      0x00\n        /* \"#utility.yul\":13122:13123   */\n      0x02\n        /* \"#utility.yul\":13116:13120   */\n      dup3\n        /* \"#utility.yul\":13112:13124   */\n      div\n        /* \"#utility.yul\":13102:13124   */\n      swap1\n      pop\n        /* \"#utility.yul\":13169:13170   */\n      0x01\n        /* \"#utility.yul\":13163:13167   */\n      dup3\n        /* \"#utility.yul\":13159:13171   */\n      and\n        /* \"#utility.yul\":13190:13208   */\n      dup1\n        /* \"#utility.yul\":13180:13261   */\n      tag_260\n      jumpi\n        /* \"#utility.yul\":13246:13250   */\n      0x7f\n        /* \"#utility.yul\":13238:13244   */\n      dup3\n        /* \"#utility.yul\":13234:13251   */\n      and\n        /* \"#utility.yul\":13224:13251   */\n      swap2\n      pop\n        /* \"#utility.yul\":13180:13261   */\n    tag_260:\n        /* \"#utility.yul\":13308:13310   */\n      0x20\n        /* \"#utility.yul\":13300:13306   */\n      dup3\n        /* \"#utility.yul\":13297:13311   */\n      lt\n        /* \"#utility.yul\":13277:13295   */\n      dup2\n        /* \"#utility.yul\":13274:13312   */\n      sub\n        /* \"#utility.yul\":13271:13355   */\n      tag_261\n      jumpi\n        /* \"#utility.yul\":13327:13345   */\n      tag_262\n      tag_115\n      jump\t// in\n    tag_262:\n        /* \"#utility.yul\":13271:13355   */\n    tag_261:\n        /* \"#utility.yul\":13092:13361   */\n      pop\n        /* \"#utility.yul\":13041:13361   */\n      swap2\n      swap1\n      pop\n      jump\t// out\n        /* \"#utility.yul\":13367:13508   */\n    tag_116:\n        /* \"#utility.yul\":13416:13420   */\n      0x00\n        /* \"#utility.yul\":13439:13442   */\n      dup2\n        /* \"#utility.yul\":13431:13442   */\n      swap1\n      pop\n        /* \"#utility.yul\":13462:13465   */\n      dup2\n        /* \"#utility.yul\":13459:13460   */\n      0x00\n        /* \"#utility.yul\":13452:13466   */\n      mstore\n        /* \"#utility.yul\":13496:13500   */\n      0x20\n        /* \"#utility.yul\":13493:13494   */\n      0x00\n        /* \"#utility.yul\":13483:13501   */\n      keccak256\n        /* \"#utility.yul\":13475:13501   */\n      swap1\n      pop\n        /* \"#utility.yul\":13367:13508   */\n      swap2\n      swap1\n      pop\n      jump\t// out\n        /* \"#utility.yul\":13514:13607   */\n    tag_117:\n        /* \"#utility.yul\":13551:13557   */\n      0x00\n        /* \"#utility.yul\":13598:13600   */\n      0x20\n        /* \"#utility.yul\":13593:13595   */\n      0x1f\n        /* \"#utility.yul\":13586:13591   */\n      dup4\n        /* \"#utility.yul\":13582:13596   */\n      add\n        /* \"#utility.yul\":13578:13601   */\n      div\n        /* \"#utility.yul\":13568:13601   */\n      swap1\n      pop\n        /* \"#utility.yul\":13514:13607   */\n      swap2\n      swap1\n      pop\n      jump\t// out\n        /* \"#utility.yul\":13613:13720   */\n    tag_118:\n        /* \"#utility.yul\":13657:13665   */\n      0x00\n        /* \"#utility.yul\":13707:13712   */\n      dup3\n        /* \"#utility.yul\":13701:13705   */\n      dup3\n        /* \"#utility.yul\":13697:13713   */\n      shl\n        /* \"#utility.yul\":13676:13713   */\n      swap1\n      pop\n        /* \"#utility.yul\":13613:13720   */\n      swap3\n      swap2\n      pop\n      pop\n      jump\t// out\n        /* \"#utility.yul\":13726:14119   */\n    tag_119:\n        /* \"#utility.yul\":13795:13801   */\n      0x00\n        /* \"#utility.yul\":13845:13846   */\n      0x08\n        /* \"#utility.yul\":13833:13843   */\n      dup4\n        /* \"#utility.yul\":13829:13847   */\n      mul\n        /* \"#utility.yul\":13868:13965   */\n      tag_267\n        /* \"#utility.yul\":13898:13964   */\n      0xffffffffffffffffffffffffffffffffffffffffffffffffffffffffffffffff\n        /* \"#utility.yul\":13887:13896   */\n      dup3\n        /* \"#utility.yul\":13868:13965   */\n      tag_118\n      jump\t// in\n    tag_267:\n        /* \"#utility.yul\":13986:14025   */\n      tag_268\n        /* \"#utility.yul\":14016:14024   */\n      dup7\n        /* \"#utility.yul\":14005:14014   */\n      dup4\n        /* \"#utility.yul\":13986:14025   */\n      tag_118\n      jump\t// in\n    tag_268:\n        /* \"#utility.yul\":13974:14025   */\n      swap6\n      pop\n        /* \"#utility.yul\":14058:14062   */\n      dup1\n        /* \"#utility.yul\":14054:14063   */\n      not\n        /* \"#utility.yul\":14047:14052   */\n      dup5\n        /* \"#utility.yul\":14043:14064   */\n      and\n        /* \"#utility.yul\":14034:14064   */\n      swap4\n      pop\n        /* \"#utility.yul\":14107:14111   */\n      dup1\n        /* \"#utility.yul\":14097:14105   */\n      dup7\n        /* \"#utility.yul\":14093:14112   */\n      and\n        /* \"#utility.yul\":14086:14091   */\n      dup5\n        /* \"#utility.yul\":14083:14113   */\n      or\n        /* \"#utility.yul\":14073:14113   */\n      swap3\n      pop\n        /* \"#utility.yul\":13802:14119   */\n      pop\n      pop\n        /* \"#utility.yul\":13726:14119   */\n      swap4\n      swap3\n      pop\n      pop\n      pop\n      jump\t// out\n        /* \"#utility.yul\":14125:14185   */\n    tag_120:\n        /* \"#utility.yul\":14153:14156   */\n      0x00\n        /* \"#utility.yul\":14174:14179   */\n      dup2\n        /* \"#utility.yul\":14167:14179   */\n      swap1\n      pop\n        /* \"#utility.yul\":14125:14185   */\n      swap2\n      swap1\n      pop\n      jump\t// out\n        /* \"#utility.yul\":14191:14333   */\n    tag_121:\n        /* \"#utility.yul\":14241:14250   */\n      0x00\n        /* \"#utility.yul\":14274:14327   */\n      tag_271\n        /* \"#utility.yul\":14292:14326   */\n      tag_272\n        /* \"#utility.yul\":14301:14325   */\n      tag_273\n        /* \"#utility.yul\":14319:14324   */\n      dup5\n        /* \"#utility.yul\":14301:14325   */\n      tag_93\n      jump\t// in\n    tag_273:\n        /* \"#utility.yul\":14292:14326   */\n      tag_120\n      jump\t// in\n    tag_272:\n        /* \"#utility.yul\":14274:14327   */\n      tag_93\n      jump\t// in\n    tag_271:\n        /* \"#utility.yul\":14261:14327   */\n      swap1\n      pop\n        /* \"#utility.yul\":14191:14333   */\n      swap2\n      swap1\n      pop\n      jump\t// out\n        /* \"#utility.yul\":14339:14414   */\n    tag_122:\n        /* \"#utility.yul\":14382:14385   */\n      0x00\n        /* \"#utility.yul\":14403:14408   */\n      dup2\n        /* \"#utility.yul\":14396:14408   */\n      swap1\n      pop\n        /* \"#utility.yul\":14339:14414   */\n      swap2\n      swap1\n      pop\n      jump\t// out\n        /* \"#utility.yul\":14420:14689   */\n    tag_123:\n        /* \"#utility.yul\":14530:14569   */\n      tag_276\n        /* \"#utility.yul\":14561:14568   */\n      dup4\n        /* \"#utility.yul\":14530:14569   */\n      tag_121\n      jump\t// in\n    tag_276:\n        /* \"#utility.yul\":14591:14682   */\n      tag_277\n        /* \"#utility.yul\":14640:14681   */\n      tag_278\n        /* \"#utility.yul\":14664:14680   */\n      dup3\n        /* \"#utility.yul\":14640:14681   */\n      tag_122\n      jump\t// in\n    tag_278:\n        /* \"#utility.yul\":14632:14638   */\n      dup5\n        /* \"#utility.yul\":14625:14629   */\n      dup5\n        /* \"#utility.yul\":14619:14630   */\n      sload\n        /* \"#utility.yul\":14591:14682   */\n      tag_119\n      jump\t// in\n    tag_277:\n        /* \"#utility.yul\":14585:14589   */\n      dup3\n        /* \"#utility.yul\":14578:14683   */\n      sstore\n        /* \"#utility.yul\":14496:14689   */\n      pop\n        /* \"#utility.yul\":14420:14689   */\n      pop\n      pop\n      pop\n      jump\t// out\n        /* \"#utility.yul\":14695:14768   */\n    tag_124:\n        /* \"#utility.yul\":14740:14743   */\n      0x00\n        /* \"#utility.yul\":14695:14768   */\n      swap1\n      jump\t// out\n        /* \"#utility.yul\":14774:14963   */\n    tag_125:\n        /* \"#utility.yul\":14851:14883   */\n      tag_281\n      tag_124\n      jump\t// in\n    tag_281:\n        /* \"#utility.yul\":14892:14957   */\n      tag_282\n        /* \"#utility.yul\":14950:14956   */\n      dup2\n        /* \"#utility.yul\":14942:14948   */\n      dup5\n        /* \"#utility.yul\":14936:14940   */\n      dup5\n        /* \"#utility.yul\":14892:14957   */\n      tag_123\n      jump\t// in\n    tag_282:\n        /* \"#utility.yul\":14827:14963   */\n      pop\n        /* \"#utility.yul\":14774:14963   */\n      pop\n      pop\n      jump\t// out\n        /* \"#utility.yul\":14969:15155   */\n    tag_126:\n        /* \"#utility.yul\":15029:15149   */\n    tag_284:\n        /* \"#utility.yul\":15046:15049   */\n      dup2\n        /* \"#utility.yul\":15039:15044   */\n      dup2\n        /* \"#utility.yul\":15036:15050   */\n      lt\n        /* \"#utility.yul\":15029:15149   */\n      iszero\n      tag_286\n      jumpi\n        /* \"#utility.yul\":15100:15139   */\n      tag_287\n        /* \"#utility.yul\":15137:15138   */\n      0x00\n        /* \"#utility.yul\":15130:15135   */\n      dup3\n        /* \"#utility.yul\":15100:15139   */\n      tag_125\n      jump\t// in\n    tag_287:\n        /* \"#utility.yul\":15073:15074   */\n      0x01\n        /* \"#utility.yul\":15066:15071   */\n      dup2\n        /* \"#utility.yul\":15062:15075   */\n      add\n        /* \"#utility.yul\":15053:15075   */\n      swap1\n      pop\n        /* \"#utility.yul\":15029:15149   */\n      jump(tag_284)\n    tag_286:\n        /* \"#utility.yul\":14969:15155   */\n      pop\n      pop\n      jump\t// out\n        /* \"#utility.yul\":15161:15704   */\n    tag_127:\n        /* \"#utility.yul\":15262:15264   */\n      0x1f\n        /* \"#utility.yul\":15257:15260   */\n      dup3\n        /* \"#utility.yul\":15254:15265   */\n      gt\n        /* \"#utility.yul\":15251:15697   */\n      iszero\n      tag_289\n      jumpi\n        /* \"#utility.yul\":15296:15334   */\n      tag_290\n        /* \"#utility.yul\":15328:15333   */\n      dup2\n        /* \"#utility.yul\":15296:15334   */\n      tag_116\n      jump\t// in\n    tag_290:\n        /* \"#utility.yul\":15380:15409   */\n      tag_291\n        /* \"#utility.yul\":15398:15408   */\n      dup5\n        /* \"#utility.yul\":15380:15409   */\n      tag_117\n      jump\t// in\n    tag_291:\n        /* \"#utility.yul\":15370:15378   */\n      dup2\n        /* \"#utility.yul\":15366:15410   */\n      add\n        /* \"#utility.yul\":15563:15565   */\n      0x20\n        /* \"#utility.yul\":15551:15561   */\n      dup6\n        /* \"#utility.yul\":15548:15566   */\n      lt\n        /* \"#utility.yul\":15545:15594   */\n      iszero\n      tag_292\n      jumpi\n        /* \"#utility.yul\":15584:15592   */\n      dup2\n        /* \"#utility.yul\":15569:15592   */\n      swap1\n      pop\n        /* \"#utility.yul\":15545:15594   */\n    tag_292:\n        /* \"#utility.yul\":15607:15687   */\n      tag_293\n        /* \"#utility.yul\":15663:15685   */\n      tag_294\n        /* \"#utility.yul\":15681:15684   */\n      dup6\n        /* \"#utility.yul\":15663:15685   */\n      tag_117\n      jump\t// in\n    tag_294:\n        /* \"#utility.yul\":15653:15661   */\n      dup4\n        /* \"#utility.yul\":15649:15686   */\n      add\n        /* \"#utility.yul\":15636:15647   */\n      dup3\n        /* \"#utility.yul\":15607:15687   */\n      tag_126\n      jump\t// in\n    tag_293:\n        /* \"#utility.yul\":15266:15697   */\n      pop\n      pop\n        /* \"#utility.yul\":15251:15697   */\n    tag_289:\n        /* \"#utility.yul\":15161:15704   */\n      pop\n      pop\n      pop\n      jump\t// out\n        /* \"#utility.yul\":15710:15827   */\n    tag_128:\n        /* \"#utility.yul\":15764:15772   */\n      0x00\n        /* \"#utility.yul\":15814:15819   */\n      dup3\n        /* \"#utility.yul\":15808:15812   */\n      dup3\n        /* \"#utility.yul\":15804:15820   */\n      shr\n        /* \"#utility.yul\":15783:15820   */\n      swap1\n      pop\n        /* \"#utility.yul\":15710:15827   */\n      swap3\n      swap2\n      pop\n      pop\n      jump\t// out\n        /* \"#utility.yul\":15833:16002   */\n    tag_129:\n        /* \"#utility.yul\":15877:15883   */\n      0x00\n        /* \"#utility.yul\":15910:15961   */\n      tag_297\n        /* \"#utility.yul\":15958:15959   */\n      0x00\n        /* \"#utility.yul\":15954:15960   */\n      not\n        /* \"#utility.yul\":15946:15951   */\n      dup5\n        /* \"#utility.yul\":15943:15944   */\n      0x08\n        /* \"#utility.yul\":15939:15952   */\n      mul\n        /* \"#utility.yul\":15910:15961   */\n      tag_128\n      jump\t// in\n    tag_297:\n        /* \"#utility.yul\":15906:15962   */\n      not\n        /* \"#utility.yul\":15991:15995   */\n      dup1\n        /* \"#utility.yul\":15985:15989   */\n      dup4\n        /* \"#utility.yul\":15981:15996   */\n      and\n        /* \"#utility.yul\":15971:15996   */\n      swap2\n      pop\n        /* \"#utility.yul\":15884:16002   */\n      pop\n        /* \"#utility.yul\":15833:16002   */\n      swap3\n      swap2\n      pop\n      pop\n      jump\t// out\n        /* \"#utility.yul\":16007:16302   */\n    tag_130:\n        /* \"#utility.yul\":16083:16087   */\n      0x00\n        /* \"#utility.yul\":16229:16258   */\n      tag_299\n        /* \"#utility.yul\":16254:16257   */\n      dup4\n        /* \"#utility.yul\":16248:16252   */\n      dup4\n        /* \"#utility.yul\":16229:16258   */\n      tag_129\n      jump\t// in\n    tag_299:\n        /* \"#utility.yul\":16221:16258   */\n      swap2\n      pop\n        /* \"#utility.yul\":16291:16294   */\n      dup3\n        /* \"#utility.yul\":16288:16289   */\n      0x02\n        /* \"#utility.yul\":16284:16295   */\n      mul\n        /* \"#utility.yul\":16278:16282   */\n      dup3\n        /* \"#utility.yul\":16275:16296   */\n      or\n        /* \"#utility.yul\":16267:16296   */\n      swap1\n      pop\n        /* \"#utility.yul\":16007:16302   */\n      swap3\n      swap2\n      pop\n      pop\n      jump\t// out\n        /* \"#utility.yul\":16307:17702   */\n    tag_25:\n        /* \"#utility.yul\":16424:16461   */\n      tag_301\n        /* \"#utility.yul\":16457:16460   */\n      dup3\n        /* \"#utility.yul\":16424:16461   */\n      tag_97\n      jump\t// in\n    tag_301:\n        /* \"#utility.yul\":16526:16544   */\n      0xffffffffffffffff\n        /* \"#utility.yul\":16518:16524   */\n      dup2\n        /* \"#utility.yul\":16515:16545   */\n      gt\n        /* \"#utility.yul\":16512:16568   */\n      iszero\n      tag_302\n      jumpi\n        /* \"#utility.yul\":16548:16566   */\n      tag_303\n      tag_48\n      jump\t// in\n    tag_303:\n        /* \"#utility.yul\":16512:16568   */\n    tag_302:\n        /* \"#utility.yul\":16592:16630   */\n      tag_304\n        /* \"#utility.yul\":16624:16628   */\n      dup3\n        /* \"#utility.yul\":16618:16629   */\n      sload\n        /* \"#utility.yul\":16592:16630   */\n      tag_33\n      jump\t// in\n    tag_304:\n        /* \"#utility.yul\":16677:16744   */\n      tag_305\n        /* \"#utility.yul\":16737:16743   */\n      dup3\n        /* \"#utility.yul\":16729:16735   */\n      dup3\n        /* \"#utility.yul\":16723:16727   */\n      dup6\n        /* \"#utility.yul\":16677:16744   */\n      tag_127\n      jump\t// in\n    tag_305:\n        /* \"#utility.yul\":16771:16772   */\n      0x00\n        /* \"#utility.yul\":16795:16799   */\n      0x20\n        /* \"#utility.yul\":16782:16799   */\n      swap1\n      pop\n        /* \"#utility.yul\":16827:16829   */\n      0x1f\n        /* \"#utility.yul\":16819:16825   */\n      dup4\n        /* \"#utility.yul\":16816:16830   */\n      gt\n        /* \"#utility.yul\":16844:16845   */\n      0x01\n        /* \"#utility.yul\":16839:17457   */\n      dup2\n      eq\n      tag_307\n      jumpi\n        /* \"#utility.yul\":17501:17502   */\n      0x00\n        /* \"#utility.yul\":17518:17524   */\n      dup5\n        /* \"#utility.yul\":17515:17592   */\n      iszero\n      tag_308\n      jumpi\n        /* \"#utility.yul\":17567:17576   */\n      dup3\n        /* \"#utility.yul\":17562:17565   */\n      dup8\n        /* \"#utility.yul\":17558:17577   */\n      add\n        /* \"#utility.yul\":17552:17578   */\n      mload\n        /* \"#utility.yul\":17543:17578   */\n      swap1\n      pop\n        /* \"#utility.yul\":17515:17592   */\n    tag_308:\n        /* \"#utility.yul\":17618:17685   */\n      tag_309\n        /* \"#utility.yul\":17678:17684   */\n      dup6\n        /* \"#utility.yul\":17671:17676   */\n      dup3\n        /* \"#utility.yul\":17618:17685   */\n      tag_130\n      jump\t// in\n    tag_309:\n        /* \"#utility.yul\":17612:17616   */\n      dup7\n        /* \"#utility.yul\":17605:17686   */\n      sstore\n        /* \"#utility.yul\":17474:17696   */\n      pop\n        /* \"#utility.yul\":16809:17696   */\n      jump(tag_306)\n        /* \"#utility.yul\":16839:17457   */\n    tag_307:\n        /* \"#utility.yul\":16891:16895   */\n      0x1f\n        /* \"#utility.yul\":16887:16896   */\n      not\n        /* \"#utility.yul\":16879:16885   */\n      dup5\n        /* \"#utility.yul\":16875:16897   */\n      and\n        /* \"#utility.yul\":16925:16962   */\n      tag_310\n        /* \"#utility.yul\":16957:16961   */\n      dup7\n        /* \"#utility.yul\":16925:16962   */\n      tag_116\n      jump\t// in\n    tag_310:\n        /* \"#utility.yul\":16984:16985   */\n      0x00\n        /* \"#utility.yul\":16998:17206   */\n    tag_311:\n        /* \"#utility.yul\":17012:17019   */\n      dup3\n        /* \"#utility.yul\":17009:17010   */\n      dup2\n        /* \"#utility.yul\":17006:17020   */\n      lt\n        /* \"#utility.yul\":16998:17206   */\n      iszero\n      tag_313\n      jumpi\n        /* \"#utility.yul\":17091:17100   */\n      dup5\n        /* \"#utility.yul\":17086:17089   */\n      dup10\n        /* \"#utility.yul\":17082:17101   */\n      add\n        /* \"#utility.yul\":17076:17102   */\n      mload\n        /* \"#utility.yul\":17068:17074   */\n      dup3\n        /* \"#utility.yul\":17061:17103   */\n      sstore\n        /* \"#utility.yul\":17142:17143   */\n      0x01\n        /* \"#utility.yul\":17134:17140   */\n      dup3\n        /* \"#utility.yul\":17130:17144   */\n      add\n        /* \"#utility.yul\":17120:17144   */\n      swap2\n      pop\n        /* \"#utility.yul\":17189:17191   */\n      0x20\n        /* \"#utility.yul\":17178:17187   */\n      dup6\n        /* \"#utility.yul\":17174:17192   */\n      add\n        /* \"#utility.yul\":17161:17192   */\n      swap5\n      pop\n        /* \"#utility.yul\":17035:17039   */\n      0x20\n        /* \"#utility.yul\":17032:17033   */\n      dup2\n        /* \"#utility.yul\":17028:17040   */\n      add\n        /* \"#utility.yul\":17023:17040   */\n      swap1\n      pop\n        /* \"#utility.yul\":16998:17206   */\n      jump(tag_311)\n    tag_313:\n        /* \"#utility.yul\":17234:17240   */\n      dup7\n        /* \"#utility.yul\":17225:17232   */\n      dup4\n        /* \"#utility.yul\":17222:17241   */\n      lt\n        /* \"#utility.yul\":17219:17398   */\n      iszero\n      tag_314\n      jumpi\n        /* \"#utility.yul\":17292:17301   */\n      dup5\n        /* \"#utility.yul\":17287:17290   */\n      dup10\n        /* \"#utility.yul\":17283:17302   */\n      add\n        /* \"#utility.yul\":17277:17303   */\n      mload\n        /* \"#utility.yul\":17335:17383   */\n      tag_315\n        /* \"#utility.yul\":17377:17381   */\n      0x1f\n        /* \"#utility.yul\":17369:17375   */\n      dup10\n        /* \"#utility.yul\":17365:17382   */\n      and\n        /* \"#utility.yul\":17354:17363   */\n      dup3\n        /* \"#utility.yul\":17335:17383   */\n      tag_129\n      jump\t// in\n    tag_315:\n        /* \"#utility.yul\":17327:17333   */\n      dup4\n        /* \"#utility.yul\":17320:17384   */\n      sstore\n        /* \"#utility.yul\":17242:17398   */\n      pop\n        /* \"#utility.yul\":17219:17398   */\n    tag_314:\n        /* \"#utility.yul\":17444:17445   */\n      0x01\n        /* \"#utility.yul\":17440:17441   */\n      0x02\n        /* \"#utility.yul\":17432:17438   */\n      dup9\n        /* \"#utility.yul\":17428:17442   */\n      mul\n        /* \"#utility.yul\":17424:17446   */\n      add\n        /* \"#utility.yul\":17418:17422   */\n      dup9\n        /* \"#utility.yul\":17411:17447   */\n      sstore\n        /* \"#utility.yul\":16846:17457   */\n      pop\n      pop\n      pop\n        /* \"#utility.yul\":16809:17696   */\n    tag_306:\n      pop\n        /* \"#utility.yul\":16399:17702   */\n      pop\n      pop\n      pop\n        /* \"#utility.yul\":16307:17702   */\n      pop\n      pop\n      jump\t// out\n        /* \"#utility.yul\":17708:18431   */\n    tag_29:\n        /* \"#utility.yul\":17919:17923   */\n      0x00\n        /* \"#utility.yul\":17957:17960   */\n      0x80\n        /* \"#utility.yul\":17946:17955   */\n      dup3\n        /* \"#utility.yul\":17942:17961   */\n      add\n        /* \"#utility.yul\":17934:17961   */\n      swap1\n      pop\n        /* \"#utility.yul\":18007:18016   */\n      dup2\n        /* \"#utility.yul\":18001:18005   */\n      dup2\n        /* \"#utility.yul\":17997:18017   */\n      sub\n        /* \"#utility.yul\":17993:17994   */\n      0x00\n        /* \"#utility.yul\":17982:17991   */\n      dup4\n        /* \"#utility.yul\":17978:17995   */\n      add\n        /* \"#utility.yul\":17971:18018   */\n      mstore\n        /* \"#utility.yul\":18035:18113   */\n      tag_317\n        /* \"#utility.yul\":18108:18112   */\n      dup2\n        /* \"#utility.yul\":18099:18105   */\n      dup8\n        /* \"#utility.yul\":18035:18113   */\n      tag_100\n      jump\t// in\n    tag_317:\n        /* \"#utility.yul\":18027:18113   */\n      swap1\n      pop\n        /* \"#utility.yul\":18160:18169   */\n      dup2\n        /* \"#utility.yul\":18154:18158   */\n      dup2\n        /* \"#utility.yul\":18150:18170   */\n      sub\n        /* \"#utility.yul\":18145:18147   */\n      0x20\n        /* \"#utility.yul\":18134:18143   */\n      dup4\n        /* \"#utility.yul\":18130:18148   */\n      add\n        /* \"#utility.yul\":18123:18171   */\n      mstore\n        /* \"#utility.yul\":18188:18266   */\n      tag_318\n        /* \"#utility.yul\":18261:18265   */\n      dup2\n        /* \"#utility.yul\":18252:18258   */\n      dup7\n        /* \"#utility.yul\":18188:18266   */\n      tag_100\n      jump\t// in\n    tag_318:\n        /* \"#utility.yul\":18180:18266   */\n      swap1\n      pop\n        /* \"#utility.yul\":18276:18342   */\n      tag_319\n        /* \"#utility.yul\":18338:18340   */\n      0x40\n        /* \"#utility.yul\":18327:18336   */\n      dup4\n        /* \"#utility.yul\":18323:18341   */\n      add\n        /* \"#utility.yul\":18314:18320   */\n      dup6\n        /* \"#utility.yul\":18276:18342   */\n      tag_102\n      jump\t// in\n    tag_319:\n        /* \"#utility.yul\":18352:18424   */\n      tag_320\n        /* \"#utility.yul\":18420:18422   */\n      0x60\n        /* \"#utility.yul\":18409:18418   */\n      dup4\n        /* \"#utility.yul\":18405:18423   */\n      add\n        /* \"#utility.yul\":18396:18402   */\n      dup5\n        /* \"#utility.yul\":18352:18424   */\n      tag_101\n      jump\t// in\n    tag_320:\n        /* \"#utility.yul\":17708:18431   */\n      swap6\n      swap5\n      pop\n      pop\n      pop\n      pop\n      pop\n      jump\t// out\n        /* \"#utility.yul\":18437:18617   */\n    tag_58:\n        /* \"#utility.yul\":18485:18562   */\n      0x4e487b7100000000000000000000000000000000000000000000000000000000\n        /* \"#utility.yul\":18482:18483   */\n      0x00\n        /* \"#utility.yul\":18475:18563   */\n      mstore\n        /* \"#utility.yul\":18582:18586   */\n      0x32\n        /* \"#utility.yul\":18579:18580   */\n      0x04\n        /* \"#utility.yul\":18572:18587   */\n      mstore\n        /* \"#utility.yul\":18606:18610   */\n      0x24\n        /* \"#utility.yul\":18603:18604   */\n      0x00\n        /* \"#utility.yul\":18596:18611   */\n      revert\n\n    auxdata: 0xa2646970667358221220ce832054d2e0e41b246343a66b1a715d36bbaf7f1f6140cd895da53166fa638e64736f6c634300081a0033\n}\n",
				"bytecode": {
					"linkReferences": {},
					"object": "6080604052348015600e575f80fd5b506111c58061001c5f395ff3fe608060405234801561000f575f80fd5b506004361061003f575f3560e01c806367fe17f414610043578063b55fdd5c1461005f578063cf07855a14610094575b5f80fd5b61005d60048036038101906100589190610a39565b6100c4565b005b61007960048036038101906100749190610b1b565b610308565b60405161008b96959493929190610bd3565b60405180910390f35b6100ae60048036038101906100a99190610c40565b6104a4565b6040516100bb9190610e28565b60405180910390f35b5f808054905090505f6040518060c001604052808873ffffffffffffffffffffffffffffffffffffffff1681526020018773ffffffffffffffffffffffffffffffffffffffff16815260200186815260200185815260200142815260200184151581525090505f81908060018154018082558091505060019003905f5260205f2090600602015f909190919091505f820151815f015f6101000a81548173ffffffffffffffffffffffffffffffffffffffff021916908373ffffffffffffffffffffffffffffffffffffffff1602179055506020820151816001015f6101000a81548173ffffffffffffffffffffffffffffffffffffffff021916908373ffffffffffffffffffffffffffffffffffffffff16021790555060408201518160020190816101f19190611042565b5060608201518160030190816102079190611042565b506080820151816004015560a0820151816005015f6101000a81548160ff021916908315150217905550505060015f8773ffffffffffffffffffffffffffffffffffffffff1673ffffffffffffffffffffffffffffffffffffffff1681526020019081526020015f2082908060018154018082558091505060019003905f5260205f20015f90919091909150558573ffffffffffffffffffffffffffffffffffffffff168773ffffffffffffffffffffffffffffffffffffffff167fe1cf0b71ebdf0b44c9529862b4b1957eb9176cb23ea1d9d0e984943a0fac48f4878787426040516102f79493929190611111565b60405180910390a350505050505050565b5f8181548110610316575f80fd5b905f5260205f2090600602015f91509050805f015f9054906101000a900473ffffffffffffffffffffffffffffffffffffffff1690806001015f9054906101000a900473ffffffffffffffffffffffffffffffffffffffff169080600201805461037f90610e75565b80601f01602080910402602001604051908101604052809291908181526020018280546103ab90610e75565b80156103f65780601f106103cd576101008083540402835291602001916103f6565b820191905f5260205f20905b8154815290600101906020018083116103d957829003601f168201915b50505050509080600301805461040b90610e75565b80601f016020809104026020016040519081016040528092919081815260200182805461043790610e75565b80156104825780601f1061045957610100808354040283529160200191610482565b820191905f5260205f20905b81548152906001019060200180831161046557829003601f168201915b505050505090806004015490806005015f9054906101000a900460ff16905086565b60605f60015f8473ffffffffffffffffffffffffffffffffffffffff1673ffffffffffffffffffffffffffffffffffffffff1681526020019081526020015f2080548060200260200160405190810160405280929190818152602001828054801561052c57602002820191905f5260205f20905b815481526020019060010190808311610518575b505050505090505f815167ffffffffffffffff81111561054f5761054e6108e0565b5b60405190808252806020026020018201604052801561058857816020015b6105756107fd565b81526020019060019003908161056d5790505b5090505f5b82518110156107f2575f8382815181106105aa576105a9611162565b5b6020026020010151815481106105c3576105c2611162565b5b905f5260205f2090600602016040518060c00160405290815f82015f9054906101000a900473ffffffffffffffffffffffffffffffffffffffff1673ffffffffffffffffffffffffffffffffffffffff1673ffffffffffffffffffffffffffffffffffffffff168152602001600182015f9054906101000a900473ffffffffffffffffffffffffffffffffffffffff1673ffffffffffffffffffffffffffffffffffffffff1673ffffffffffffffffffffffffffffffffffffffff16815260200160028201805461069390610e75565b80601f01602080910402602001604051908101604052809291908181526020018280546106bf90610e75565b801561070a5780601f106106e15761010080835404028352916020019161070a565b820191905f5260205f20905b8154815290600101906020018083116106ed57829003601f168201915b5050505050815260200160038201805461072390610e75565b80601f016020809104026020016040519081016040528092919081815260200182805461074f90610e75565b801561079a5780601f106107715761010080835404028352916020019161079a565b820191905f5260205f20905b81548152906001019060200180831161077d57829003601f168201915b5050505050815260200160048201548152602001600582015f9054906101000a900460ff1615151515815250508282815181106107da576107d9611162565b5b6020026020010181905250808060010191505061058d565b508092505050919050565b6040518060c001604052805f73ffffffffffffffffffffffffffffffffffffffff1681526020015f73ffffffffffffffffffffffffffffffffffffffff16815260200160608152602001606081526020015f81526020015f151581525090565b5f604051905090565b5f80fd5b5f80fd5b5f73ffffffffffffffffffffffffffffffffffffffff82169050919050565b5f6108978261086e565b9050919050565b6108a78161088d565b81146108b1575f80fd5b50565b5f813590506108c28161089e565b92915050565b5f80fd5b5f80fd5b5f601f19601f8301169050919050565b7f4e487b71000000000000000000000000000000000000000000000000000000005f52604160045260245ffd5b610916826108d0565b810181811067ffffffffffffffff82111715610935576109346108e0565b5b80604052505050565b5f61094761085d565b9050610953828261090d565b919050565b5f67ffffffffffffffff821115610972576109716108e0565b5b61097b826108d0565b9050602081019050919050565b828183375f83830152505050565b5f6109a86109a384610958565b61093e565b9050828152602081018484840111156109c4576109c36108cc565b5b6109cf848285610988565b509392505050565b5f82601f8301126109eb576109ea6108c8565b5b81356109fb848260208601610996565b91505092915050565b5f8115159050919050565b610a1881610a04565b8114610a22575f80fd5b50565b5f81359050610a3381610a0f565b92915050565b5f805f805f60a08688031215610a5257610a51610866565b5b5f610a5f888289016108b4565b9550506020610a70888289016108b4565b945050604086013567ffffffffffffffff811115610a9157610a9061086a565b5b610a9d888289016109d7565b935050606086013567ffffffffffffffff811115610abe57610abd61086a565b5b610aca888289016109d7565b9250506080610adb88828901610a25565b9150509295509295909350565b5f819050919050565b610afa81610ae8565b8114610b04575f80fd5b50565b5f81359050610b1581610af1565b92915050565b5f60208284031215610b3057610b2f610866565b5b5f610b3d84828501610b07565b91505092915050565b610b4f8161088d565b82525050565b5f81519050919050565b5f82825260208201905092915050565b8281835e5f83830152505050565b5f610b8782610b55565b610b918185610b5f565b9350610ba1818560208601610b6f565b610baa816108d0565b840191505092915050565b610bbe81610ae8565b82525050565b610bcd81610a04565b82525050565b5f60c082019050610be65f830189610b46565b610bf36020830188610b46565b8181036040830152610c058187610b7d565b90508181036060830152610c198186610b7d565b9050610c286080830185610bb5565b610c3560a0830184610bc4565b979650505050505050565b5f60208284031215610c5557610c54610866565b5b5f610c62848285016108b4565b91505092915050565b5f81519050919050565b5f82825260208201905092915050565b5f819050602082019050919050565b610c9d8161088d565b82525050565b5f82825260208201905092915050565b5f610cbd82610b55565b610cc78185610ca3565b9350610cd7818560208601610b6f565b610ce0816108d0565b840191505092915050565b610cf481610ae8565b82525050565b610d0381610a04565b82525050565b5f60c083015f830151610d1e5f860182610c94565b506020830151610d316020860182610c94565b5060408301518482036040860152610d498282610cb3565b91505060608301518482036060860152610d638282610cb3565b9150506080830151610d786080860182610ceb565b5060a0830151610d8b60a0860182610cfa565b508091505092915050565b5f610da18383610d09565b905092915050565b5f602082019050919050565b5f610dbf82610c6b565b610dc98185610c75565b935083602082028501610ddb85610c85565b805f5b85811015610e165784840389528151610df78582610d96565b9450610e0283610da9565b925060208a01995050600181019050610dde565b50829750879550505050505092915050565b5f6020820190508181035f830152610e408184610db5565b905092915050565b7f4e487b71000000000000000000000000000000000000000000000000000000005f52602260045260245ffd5b5f6002820490506001821680610e8c57607f821691505b602082108103610e9f57610e9e610e48565b5b50919050565b5f819050815f5260205f209050919050565b5f6020601f8301049050919050565b5f82821b905092915050565b5f60088302610f017fffffffffffffffffffffffffffffffffffffffffffffffffffffffffffffffff82610ec6565b610f0b8683610ec6565b95508019841693508086168417925050509392505050565b5f819050919050565b5f610f46610f41610f3c84610ae8565b610f23565b610ae8565b9050919050565b5f819050919050565b610f5f83610f2c565b610f73610f6b82610f4d565b848454610ed2565b825550505050565b5f90565b610f87610f7b565b610f92818484610f56565b505050565b5b81811015610fb557610faa5f82610f7f565b600181019050610f98565b5050565b601f821115610ffa57610fcb81610ea5565b610fd484610eb7565b81016020851015610fe3578190505b610ff7610fef85610eb7565b830182610f97565b50505b505050565b5f82821c905092915050565b5f61101a5f1984600802610fff565b1980831691505092915050565b5f611032838361100b565b9150826002028217905092915050565b61104b82610b55565b67ffffffffffffffff811115611064576110636108e0565b5b61106e8254610e75565b611079828285610fb9565b5f60209050601f8311600181146110aa575f8415611098578287015190505b6110a28582611027565b865550611109565b601f1984166110b886610ea5565b5f5b828110156110df578489015182556001820191506020850194506020810190506110ba565b868310156110fc57848901516110f8601f89168261100b565b8355505b6001600288020188555050505b505050505050565b5f6080820190508181035f8301526111298187610b7d565b9050818103602083015261113d8186610b7d565b905061114c6040830185610bc4565b6111596060830184610bb5565b95945050505050565b7f4e487b71000000000000000000000000000000000000000000000000000000005f52603260045260245ffdfea2646970667358221220ce832054d2e0e41b246343a66b1a715d36bbaf7f1f6140cd895da53166fa638e64736f6c634300081a0033",
					"opcodes": "PUSH1 0x80 PUSH1 0x40 MSTORE CALLVALUE DUP1 ISZERO PUSH1 0xE JUMPI PUSH0 DUP1 REVERT JUMPDEST POP PUSH2 0x11C5 DUP1 PUSH2 0x1C PUSH0 CODECOPY PUSH0 RETURN INVALID PUSH1 0x80 PUSH1 0x40 MSTORE CALLVALUE DUP1 ISZERO PUSH2 0xF JUMPI PUSH0 DUP1 REVERT JUMPDEST POP PUSH1 0x4 CALLDATASIZE LT PUSH2 0x3F JUMPI PUSH0 CALLDATALOAD PUSH1 0xE0 SHR DUP1 PUSH4 0x67FE17F4 EQ PUSH2 0x43 JUMPI DUP1 PUSH4 0xB55FDD5C EQ PUSH2 0x5F JUMPI DUP1 PUSH4 0xCF07855A EQ PUSH2 0x94 JUMPI JUMPDEST PUSH0 DUP1 REVERT JUMPDEST PUSH2 0x5D PUSH1 0x4 DUP1 CALLDATASIZE SUB DUP2 ADD SWAP1 PUSH2 0x58 SWAP2 SWAP1 PUSH2 0xA39 JUMP JUMPDEST PUSH2 0xC4 JUMP JUMPDEST STOP JUMPDEST PUSH2 0x79 PUSH1 0x4 DUP1 CALLDATASIZE SUB DUP2 ADD SWAP1 PUSH2 0x74 SWAP2 SWAP1 PUSH2 0xB1B JUMP JUMPDEST PUSH2 0x308 JUMP JUMPDEST PUSH1 0x40 MLOAD PUSH2 0x8B SWAP7 SWAP6 SWAP5 SWAP4 SWAP3 SWAP2 SWAP1 PUSH2 0xBD3 JUMP JUMPDEST PUSH1 0x40 MLOAD DUP1 SWAP2 SUB SWAP1 RETURN JUMPDEST PUSH2 0xAE PUSH1 0x4 DUP1 CALLDATASIZE SUB DUP2 ADD SWAP1 PUSH2 0xA9 SWAP2 SWAP1 PUSH2 0xC40 JUMP JUMPDEST PUSH2 0x4A4 JUMP JUMPDEST PUSH1 0x40 MLOAD PUSH2 0xBB SWAP2 SWAP1 PUSH2 0xE28 JUMP JUMPDEST PUSH1 0x40 MLOAD DUP1 SWAP2 SUB SWAP1 RETURN JUMPDEST PUSH0 DUP1 DUP1 SLOAD SWAP1 POP SWAP1 POP PUSH0 PUSH1 0x40 MLOAD DUP1 PUSH1 0xC0 ADD PUSH1 0x40 MSTORE DUP1 DUP9 PUSH20 0xFFFFFFFFFFFFFFFFFFFFFFFFFFFFFFFFFFFFFFFF AND DUP2 MSTORE PUSH1 0x20 ADD DUP8 PUSH20 0xFFFFFFFFFFFFFFFFFFFFFFFFFFFFFFFFFFFFFFFF AND DUP2 MSTORE PUSH1 0x20 ADD DUP7 DUP2 MSTORE PUSH1 0x20 ADD DUP6 DUP2 MSTORE PUSH1 0x20 ADD TIMESTAMP DUP2 MSTORE PUSH1 0x20 ADD DUP5 ISZERO ISZERO DUP2 MSTORE POP SWAP1 POP PUSH0 DUP2 SWAP1 DUP1 PUSH1 0x1 DUP2 SLOAD ADD DUP1 DUP3 SSTORE DUP1 SWAP2 POP POP PUSH1 0x1 SWAP1 SUB SWAP1 PUSH0 MSTORE PUSH1 0x20 PUSH0 KECCAK256 SWAP1 PUSH1 0x6 MUL ADD PUSH0 SWAP1 SWAP2 SWAP1 SWAP2 SWAP1 SWAP2 POP PUSH0 DUP3 ADD MLOAD DUP2 PUSH0 ADD PUSH0 PUSH2 0x100 EXP DUP2 SLOAD DUP2 PUSH20 0xFFFFFFFFFFFFFFFFFFFFFFFFFFFFFFFFFFFFFFFF MUL NOT AND SWAP1 DUP4 PUSH20 0xFFFFFFFFFFFFFFFFFFFFFFFFFFFFFFFFFFFFFFFF AND MUL OR SWAP1 SSTORE POP PUSH1 0x20 DUP3 ADD MLOAD DUP2 PUSH1 0x1 ADD PUSH0 PUSH2 0x100 EXP DUP2 SLOAD DUP2 PUSH20 0xFFFFFFFFFFFFFFFFFFFFFFFFFFFFFFFFFFFFFFFF MUL NOT AND SWAP1 DUP4 PUSH20 0xFFFFFFFFFFFFFFFFFFFFFFFFFFFFFFFFFFFFFFFF AND MUL OR SWAP1 SSTORE POP PUSH1 0x40 DUP3 ADD MLOAD DUP2 PUSH1 0x2 ADD SWAP1 DUP2 PUSH2 0x1F1 SWAP2 SWAP1 PUSH2 0x1042 JUMP JUMPDEST POP PUSH1 0x60 DUP3 ADD MLOAD DUP2 PUSH1 0x3 ADD SWAP1 DUP2 PUSH2 0x207 SWAP2 SWAP1 PUSH2 0x1042 JUMP JUMPDEST POP PUSH1 0x80 DUP3 ADD MLOAD DUP2 PUSH1 0x4 ADD SSTORE PUSH1 0xA0 DUP3 ADD MLOAD DUP2 PUSH1 0x5 ADD PUSH0 PUSH2 0x100 EXP DUP2 SLOAD DUP2 PUSH1 0xFF MUL NOT AND SWAP1 DUP4 ISZERO ISZERO MUL OR SWAP1 SSTORE POP POP POP PUSH1 0x1 PUSH0 DUP8 PUSH20 0xFFFFFFFFFFFFFFFFFFFFFFFFFFFFFFFFFFFFFFFF AND PUSH20 0xFFFFFFFFFFFFFFFFFFFFFFFFFFFFFFFFFFFFFFFF AND DUP2 MSTORE PUSH1 0x20 ADD SWAP1 DUP2 MSTORE PUSH1 0x20 ADD PUSH0 KECCAK256 DUP3 SWAP1 DUP1 PUSH1 0x1 DUP2 SLOAD ADD DUP1 DUP3 SSTORE DUP1 SWAP2 POP POP PUSH1 0x1 SWAP1 SUB SWAP1 PUSH0 MSTORE PUSH1 0x20 PUSH0 KECCAK256 ADD PUSH0 SWAP1 SWAP2 SWAP1 SWAP2 SWAP1 SWAP2 POP SSTORE DUP6 PUSH20 0xFFFFFFFFFFFFFFFFFFFFFFFFFFFFFFFFFFFFFFFF AND DUP8 PUSH20 0xFFFFFFFFFFFFFFFFFFFFFFFFFFFFFFFFFFFFFFFF AND PUSH32 0xE1CF0B71EBDF0B44C9529862B4B1957EB9176CB23EA1D9D0E984943A0FAC48F4 DUP8 DUP8 DUP8 TIMESTAMP PUSH1 0x40 MLOAD PUSH2 0x2F7 SWAP5 SWAP4 SWAP3 SWAP2 SWAP1 PUSH2 0x1111 JUMP JUMPDEST PUSH1 0x40 MLOAD DUP1 SWAP2 SUB SWAP1 LOG3 POP POP POP POP POP POP POP JUMP JUMPDEST PUSH0 DUP2 DUP2 SLOAD DUP2 LT PUSH2 0x316 JUMPI PUSH0 DUP1 REVERT JUMPDEST SWAP1 PUSH0 MSTORE PUSH1 0x20 PUSH0 KECCAK256 SWAP1 PUSH1 0x6 MUL ADD PUSH0 SWAP2 POP SWAP1 POP DUP1 PUSH0 ADD PUSH0 SWAP1 SLOAD SWAP1 PUSH2 0x100 EXP SWAP1 DIV PUSH20 0xFFFFFFFFFFFFFFFFFFFFFFFFFFFFFFFFFFFFFFFF AND SWAP1 DUP1 PUSH1 0x1 ADD PUSH0 SWAP1 SLOAD SWAP1 PUSH2 0x100 EXP SWAP1 DIV PUSH20 0xFFFFFFFFFFFFFFFFFFFFFFFFFFFFFFFFFFFFFFFF AND SWAP1 DUP1 PUSH1 0x2 ADD DUP1 SLOAD PUSH2 0x37F SWAP1 PUSH2 0xE75 JUMP JUMPDEST DUP1 PUSH1 0x1F ADD PUSH1 0x20 DUP1 SWAP2 DIV MUL PUSH1 0x20 ADD PUSH1 0x40 MLOAD SWAP1 DUP2 ADD PUSH1 0x40 MSTORE DUP1 SWAP3 SWAP2 SWAP1 DUP2 DUP2 MSTORE PUSH1 0x20 ADD DUP3 DUP1 SLOAD PUSH2 0x3AB SWAP1 PUSH2 0xE75 JUMP JUMPDEST DUP1 ISZERO PUSH2 0x3F6 JUMPI DUP1 PUSH1 0x1F LT PUSH2 0x3CD JUMPI PUSH2 0x100 DUP1 DUP4 SLOAD DIV MUL DUP4 MSTORE SWAP2 PUSH1 0x20 ADD SWAP2 PUSH2 0x3F6 JUMP JUMPDEST DUP3 ADD SWAP2 SWAP1 PUSH0 MSTORE PUSH1 0x20 PUSH0 KECCAK256 SWAP1 JUMPDEST DUP2 SLOAD DUP2 MSTORE SWAP1 PUSH1 0x1 ADD SWAP1 PUSH1 0x20 ADD DUP1 DUP4 GT PUSH2 0x3D9 JUMPI DUP3 SWAP1 SUB PUSH1 0x1F AND DUP3 ADD SWAP2 JUMPDEST POP POP POP POP POP SWAP1 DUP1 PUSH1 0x3 ADD DUP1 SLOAD PUSH2 0x40B SWAP1 PUSH2 0xE75 JUMP JUMPDEST DUP1 PUSH1 0x1F ADD PUSH1 0x20 DUP1 SWAP2 DIV MUL PUSH1 0x20 ADD PUSH1 0x40 MLOAD SWAP1 DUP2 ADD PUSH1 0x40 MSTORE DUP1 SWAP3 SWAP2 SWAP1 DUP2 DUP2 MSTORE PUSH1 0x20 ADD DUP3 DUP1 SLOAD PUSH2 0x437 SWAP1 PUSH2 0xE75 JUMP JUMPDEST DUP1 ISZERO PUSH2 0x482 JUMPI DUP1 PUSH1 0x1F LT PUSH2 0x459 JUMPI PUSH2 0x100 DUP1 DUP4 SLOAD DIV MUL DUP4 MSTORE SWAP2 PUSH1 0x20 ADD SWAP2 PUSH2 0x482 JUMP JUMPDEST DUP3 ADD SWAP2 SWAP1 PUSH0 MSTORE PUSH1 0x20 PUSH0 KECCAK256 SWAP1 JUMPDEST DUP2 SLOAD DUP2 MSTORE SWAP1 PUSH1 0x1 ADD SWAP1 PUSH1 0x20 ADD DUP1 DUP4 GT PUSH2 0x465 JUMPI DUP3 SWAP1 SUB PUSH1 0x1F AND DUP3 ADD SWAP2 JUMPDEST POP POP POP POP POP SWAP1 DUP1 PUSH1 0x4 ADD SLOAD SWAP1 DUP1 PUSH1 0x5 ADD PUSH0 SWAP1 SLOAD SWAP1 PUSH2 0x100 EXP SWAP1 DIV PUSH1 0xFF AND SWAP1 POP DUP7 JUMP JUMPDEST PUSH1 0x60 PUSH0 PUSH1 0x1 PUSH0 DUP5 PUSH20 0xFFFFFFFFFFFFFFFFFFFFFFFFFFFFFFFFFFFFFFFF AND PUSH20 0xFFFFFFFFFFFFFFFFFFFFFFFFFFFFFFFFFFFFFFFF AND DUP2 MSTORE PUSH1 0x20 ADD SWAP1 DUP2 MSTORE PUSH1 0x20 ADD PUSH0 KECCAK256 DUP1 SLOAD DUP1 PUSH1 0x20 MUL PUSH1 0x20 ADD PUSH1 0x40 MLOAD SWAP1 DUP2 ADD PUSH1 0x40 MSTORE DUP1 SWAP3 SWAP2 SWAP1 DUP2 DUP2 MSTORE PUSH1 0x20 ADD DUP3 DUP1 SLOAD DUP1 ISZERO PUSH2 0x52C JUMPI PUSH1 0x20 MUL DUP3 ADD SWAP2 SWAP1 PUSH0 MSTORE PUSH1 0x20 PUSH0 KECCAK256 SWAP1 JUMPDEST DUP2 SLOAD DUP2 MSTORE PUSH1 0x20 ADD SWAP1 PUSH1 0x1 ADD SWAP1 DUP1 DUP4 GT PUSH2 0x518 JUMPI JUMPDEST POP POP POP POP POP SWAP1 POP PUSH0 DUP2 MLOAD PUSH8 0xFFFFFFFFFFFFFFFF DUP2 GT ISZERO PUSH2 0x54F JUMPI PUSH2 0x54E PUSH2 0x8E0 JUMP JUMPDEST JUMPDEST PUSH1 0x40 MLOAD SWAP1 DUP1 DUP3 MSTORE DUP1 PUSH1 0x20 MUL PUSH1 0x20 ADD DUP3 ADD PUSH1 0x40 MSTORE DUP1 ISZERO PUSH2 0x588 JUMPI DUP2 PUSH1 0x20 ADD JUMPDEST PUSH2 0x575 PUSH2 0x7FD JUMP JUMPDEST DUP2 MSTORE PUSH1 0x20 ADD SWAP1 PUSH1 0x1 SWAP1 SUB SWAP1 DUP2 PUSH2 0x56D JUMPI SWAP1 POP JUMPDEST POP SWAP1 POP PUSH0 JUMPDEST DUP3 MLOAD DUP2 LT ISZERO PUSH2 0x7F2 JUMPI PUSH0 DUP4 DUP3 DUP2 MLOAD DUP2 LT PUSH2 0x5AA JUMPI PUSH2 0x5A9 PUSH2 0x1162 JUMP JUMPDEST JUMPDEST PUSH1 0x20 MUL PUSH1 0x20 ADD ADD MLOAD DUP2 SLOAD DUP2 LT PUSH2 0x5C3 JUMPI PUSH2 0x5C2 PUSH2 0x1162 JUMP JUMPDEST JUMPDEST SWAP1 PUSH0 MSTORE PUSH1 0x20 PUSH0 KECCAK256 SWAP1 PUSH1 0x6 MUL ADD PUSH1 0x40 MLOAD DUP1 PUSH1 0xC0 ADD PUSH1 0x40 MSTORE SWAP1 DUP2 PUSH0 DUP3 ADD PUSH0 SWAP1 SLOAD SWAP1 PUSH2 0x100 EXP SWAP1 DIV PUSH20 0xFFFFFFFFFFFFFFFFFFFFFFFFFFFFFFFFFFFFFFFF AND PUSH20 0xFFFFFFFFFFFFFFFFFFFFFFFFFFFFFFFFFFFFFFFF AND PUSH20 0xFFFFFFFFFFFFFFFFFFFFFFFFFFFFFFFFFFFFFFFF AND DUP2 MSTORE PUSH1 0x20 ADD PUSH1 0x1 DUP3 ADD PUSH0 SWAP1 SLOAD SWAP1 PUSH2 0x100 EXP SWAP1 DIV PUSH20 0xFFFFFFFFFFFFFFFFFFFFFFFFFFFFFFFFFFFFFFFF AND PUSH20 0xFFFFFFFFFFFFFFFFFFFFFFFFFFFFFFFFFFFFFFFF AND PUSH20 0xFFFFFFFFFFFFFFFFFFFFFFFFFFFFFFFFFFFFFFFF AND DUP2 MSTORE PUSH1 0x20 ADD PUSH1 0x2 DUP3 ADD DUP1 SLOAD PUSH2 0x693 SWAP1 PUSH2 0xE75 JUMP JUMPDEST DUP1 PUSH1 0x1F ADD PUSH1 0x20 DUP1 SWAP2 DIV MUL PUSH1 0x20 ADD PUSH1 0x40 MLOAD SWAP1 DUP2 ADD PUSH1 0x40 MSTORE DUP1 SWAP3 SWAP2 SWAP1 DUP2 DUP2 MSTORE PUSH1 0x20 ADD DUP3 DUP1 SLOAD PUSH2 0x6BF SWAP1 PUSH2 0xE75 JUMP JUMPDEST DUP1 ISZERO PUSH2 0x70A JUMPI DUP1 PUSH1 0x1F LT PUSH2 0x6E1 JUMPI PUSH2 0x100 DUP1 DUP4 SLOAD DIV MUL DUP4 MSTORE SWAP2 PUSH1 0x20 ADD SWAP2 PUSH2 0x70A JUMP JUMPDEST DUP3 ADD SWAP2 SWAP1 PUSH0 MSTORE PUSH1 0x20 PUSH0 KECCAK256 SWAP1 JUMPDEST DUP2 SLOAD DUP2 MSTORE SWAP1 PUSH1 0x1 ADD SWAP1 PUSH1 0x20 ADD DUP1 DUP4 GT PUSH2 0x6ED JUMPI DUP3 SWAP1 SUB PUSH1 0x1F AND DUP3 ADD SWAP2 JUMPDEST POP POP POP POP POP DUP2 MSTORE PUSH1 0x20 ADD PUSH1 0x3 DUP3 ADD DUP1 SLOAD PUSH2 0x723 SWAP1 PUSH2 0xE75 JUMP JUMPDEST DUP1 PUSH1 0x1F ADD PUSH1 0x20 DUP1 SWAP2 DIV MUL PUSH1 0x20 ADD PUSH1 0x40 MLOAD SWAP1 DUP2 ADD PUSH1 0x40 MSTORE DUP1 SWAP3 SWAP2 SWAP1 DUP2 DUP2 MSTORE PUSH1 0x20 ADD DUP3 DUP1 SLOAD PUSH2 0x74F SWAP1 PUSH2 0xE75 JUMP JUMPDEST DUP1 ISZERO PUSH2 0x79A JUMPI DUP1 PUSH1 0x1F LT PUSH2 0x771 JUMPI PUSH2 0x100 DUP1 DUP4 SLOAD DIV MUL DUP4 MSTORE SWAP2 PUSH1 0x20 ADD SWAP2 PUSH2 0x79A JUMP JUMPDEST DUP3 ADD SWAP2 SWAP1 PUSH0 MSTORE PUSH1 0x20 PUSH0 KECCAK256 SWAP1 JUMPDEST DUP2 SLOAD DUP2 MSTORE SWAP1 PUSH1 0x1 ADD SWAP1 PUSH1 0x20 ADD DUP1 DUP4 GT PUSH2 0x77D JUMPI DUP3 SWAP1 SUB PUSH1 0x1F AND DUP3 ADD SWAP2 JUMPDEST POP POP POP POP POP DUP2 MSTORE PUSH1 0x20 ADD PUSH1 0x4 DUP3 ADD SLOAD DUP2 MSTORE PUSH1 0x20 ADD PUSH1 0x5 DUP3 ADD PUSH0 SWAP1 SLOAD SWAP1 PUSH2 0x100 EXP SWAP1 DIV PUSH1 0xFF AND ISZERO ISZERO ISZERO ISZERO DUP2 MSTORE POP POP DUP3 DUP3 DUP2 MLOAD DUP2 LT PUSH2 0x7DA JUMPI PUSH2 0x7D9 PUSH2 0x1162 JUMP JUMPDEST JUMPDEST PUSH1 0x20 MUL PUSH1 0x20 ADD ADD DUP2 SWAP1 MSTORE POP DUP1 DUP1 PUSH1 0x1 ADD SWAP2 POP POP PUSH2 0x58D JUMP JUMPDEST POP DUP1 SWAP3 POP POP POP SWAP2 SWAP1 POP JUMP JUMPDEST PUSH1 0x40 MLOAD DUP1 PUSH1 0xC0 ADD PUSH1 0x40 MSTORE DUP1 PUSH0 PUSH20 0xFFFFFFFFFFFFFFFFFFFFFFFFFFFFFFFFFFFFFFFF AND DUP2 MSTORE PUSH1 0x20 ADD PUSH0 PUSH20 0xFFFFFFFFFFFFFFFFFFFFFFFFFFFFFFFFFFFFFFFF AND DUP2 MSTORE PUSH1 0x20 ADD PUSH1 0x60 DUP2 MSTORE PUSH1 0x20 ADD PUSH1 0x60 DUP2 MSTORE PUSH1 0x20 ADD PUSH0 DUP2 MSTORE PUSH1 0x20 ADD PUSH0 ISZERO ISZERO DUP2 MSTORE POP SWAP1 JUMP JUMPDEST PUSH0 PUSH1 0x40 MLOAD SWAP1 POP SWAP1 JUMP JUMPDEST PUSH0 DUP1 REVERT JUMPDEST PUSH0 DUP1 REVERT JUMPDEST PUSH0 PUSH20 0xFFFFFFFFFFFFFFFFFFFFFFFFFFFFFFFFFFFFFFFF DUP3 AND SWAP1 POP SWAP2 SWAP1 POP JUMP JUMPDEST PUSH0 PUSH2 0x897 DUP3 PUSH2 0x86E JUMP JUMPDEST SWAP1 POP SWAP2 SWAP1 POP JUMP JUMPDEST PUSH2 0x8A7 DUP2 PUSH2 0x88D JUMP JUMPDEST DUP2 EQ PUSH2 0x8B1 JUMPI PUSH0 DUP1 REVERT JUMPDEST POP JUMP JUMPDEST PUSH0 DUP2 CALLDATALOAD SWAP1 POP PUSH2 0x8C2 DUP2 PUSH2 0x89E JUMP JUMPDEST SWAP3 SWAP2 POP POP JUMP JUMPDEST PUSH0 DUP1 REVERT JUMPDEST PUSH0 DUP1 REVERT JUMPDEST PUSH0 PUSH1 0x1F NOT PUSH1 0x1F DUP4 ADD AND SWAP1 POP SWAP2 SWAP1 POP JUMP JUMPDEST PUSH32 0x4E487B7100000000000000000000000000000000000000000000000000000000 PUSH0 MSTORE PUSH1 0x41 PUSH1 0x4 MSTORE PUSH1 0x24 PUSH0 REVERT JUMPDEST PUSH2 0x916 DUP3 PUSH2 0x8D0 JUMP JUMPDEST DUP2 ADD DUP2 DUP2 LT PUSH8 0xFFFFFFFFFFFFFFFF DUP3 GT OR ISZERO PUSH2 0x935 JUMPI PUSH2 0x934 PUSH2 0x8E0 JUMP JUMPDEST JUMPDEST DUP1 PUSH1 0x40 MSTORE POP POP POP JUMP JUMPDEST PUSH0 PUSH2 0x947 PUSH2 0x85D JUMP JUMPDEST SWAP1 POP PUSH2 0x953 DUP3 DUP3 PUSH2 0x90D JUMP JUMPDEST SWAP2 SWAP1 POP JUMP JUMPDEST PUSH0 PUSH8 0xFFFFFFFFFFFFFFFF DUP3 GT ISZERO PUSH2 0x972 JUMPI PUSH2 0x971 PUSH2 0x8E0 JUMP JUMPDEST JUMPDEST PUSH2 0x97B DUP3 PUSH2 0x8D0 JUMP JUMPDEST SWAP1 POP PUSH1 0x20 DUP2 ADD SWAP1 POP SWAP2 SWAP1 POP JUMP JUMPDEST DUP3 DUP2 DUP4 CALLDATACOPY PUSH0 DUP4 DUP4 ADD MSTORE POP POP POP JUMP JUMPDEST PUSH0 PUSH2 0x9A8 PUSH2 0x9A3 DUP5 PUSH2 0x958 JUMP JUMPDEST PUSH2 0x93E JUMP JUMPDEST SWAP1 POP DUP3 DUP2 MSTORE PUSH1 0x20 DUP2 ADD DUP5 DUP5 DUP5 ADD GT ISZERO PUSH2 0x9C4 JUMPI PUSH2 0x9C3 PUSH2 0x8CC JUMP JUMPDEST JUMPDEST PUSH2 0x9CF DUP5 DUP3 DUP6 PUSH2 0x988 JUMP JUMPDEST POP SWAP4 SWAP3 POP POP POP JUMP JUMPDEST PUSH0 DUP3 PUSH1 0x1F DUP4 ADD SLT PUSH2 0x9EB JUMPI PUSH2 0x9EA PUSH2 0x8C8 JUMP JUMPDEST JUMPDEST DUP2 CALLDATALOAD PUSH2 0x9FB DUP5 DUP3 PUSH1 0x20 DUP7 ADD PUSH2 0x996 JUMP JUMPDEST SWAP2 POP POP SWAP3 SWAP2 POP POP JUMP JUMPDEST PUSH0 DUP2 ISZERO ISZERO SWAP1 POP SWAP2 SWAP1 POP JUMP JUMPDEST PUSH2 0xA18 DUP2 PUSH2 0xA04 JUMP JUMPDEST DUP2 EQ PUSH2 0xA22 JUMPI PUSH0 DUP1 REVERT JUMPDEST POP JUMP JUMPDEST PUSH0 DUP2 CALLDATALOAD SWAP1 POP PUSH2 0xA33 DUP2 PUSH2 0xA0F JUMP JUMPDEST SWAP3 SWAP2 POP POP JUMP JUMPDEST PUSH0 DUP1 PUSH0 DUP1 PUSH0 PUSH1 0xA0 DUP7 DUP9 SUB SLT ISZERO PUSH2 0xA52 JUMPI PUSH2 0xA51 PUSH2 0x866 JUMP JUMPDEST JUMPDEST PUSH0 PUSH2 0xA5F DUP9 DUP3 DUP10 ADD PUSH2 0x8B4 JUMP JUMPDEST SWAP6 POP POP PUSH1 0x20 PUSH2 0xA70 DUP9 DUP3 DUP10 ADD PUSH2 0x8B4 JUMP JUMPDEST SWAP5 POP POP PUSH1 0x40 DUP7 ADD CALLDATALOAD PUSH8 0xFFFFFFFFFFFFFFFF DUP2 GT ISZERO PUSH2 0xA91 JUMPI PUSH2 0xA90 PUSH2 0x86A JUMP JUMPDEST JUMPDEST PUSH2 0xA9D DUP9 DUP3 DUP10 ADD PUSH2 0x9D7 JUMP JUMPDEST SWAP4 POP POP PUSH1 0x60 DUP7 ADD CALLDATALOAD PUSH8 0xFFFFFFFFFFFFFFFF DUP2 GT ISZERO PUSH2 0xABE JUMPI PUSH2 0xABD PUSH2 0x86A JUMP JUMPDEST JUMPDEST PUSH2 0xACA DUP9 DUP3 DUP10 ADD PUSH2 0x9D7 JUMP JUMPDEST SWAP3 POP POP PUSH1 0x80 PUSH2 0xADB DUP9 DUP3 DUP10 ADD PUSH2 0xA25 JUMP JUMPDEST SWAP2 POP POP SWAP3 SWAP6 POP SWAP3 SWAP6 SWAP1 SWAP4 POP JUMP JUMPDEST PUSH0 DUP2 SWAP1 POP SWAP2 SWAP1 POP JUMP JUMPDEST PUSH2 0xAFA DUP2 PUSH2 0xAE8 JUMP JUMPDEST DUP2 EQ PUSH2 0xB04 JUMPI PUSH0 DUP1 REVERT JUMPDEST POP JUMP JUMPDEST PUSH0 DUP2 CALLDATALOAD SWAP1 POP PUSH2 0xB15 DUP2 PUSH2 0xAF1 JUMP JUMPDEST SWAP3 SWAP2 POP POP JUMP JUMPDEST PUSH0 PUSH1 0x20 DUP3 DUP5 SUB SLT ISZERO PUSH2 0xB30 JUMPI PUSH2 0xB2F PUSH2 0x866 JUMP JUMPDEST JUMPDEST PUSH0 PUSH2 0xB3D DUP5 DUP3 DUP6 ADD PUSH2 0xB07 JUMP JUMPDEST SWAP2 POP POP SWAP3 SWAP2 POP POP JUMP JUMPDEST PUSH2 0xB4F DUP2 PUSH2 0x88D JUMP JUMPDEST DUP3 MSTORE POP POP JUMP JUMPDEST PUSH0 DUP2 MLOAD SWAP1 POP SWAP2 SWAP1 POP JUMP JUMPDEST PUSH0 DUP3 DUP3 MSTORE PUSH1 0x20 DUP3 ADD SWAP1 POP SWAP3 SWAP2 POP POP JUMP JUMPDEST DUP3 DUP2 DUP4 MCOPY PUSH0 DUP4 DUP4 ADD MSTORE POP POP POP JUMP JUMPDEST PUSH0 PUSH2 0xB87 DUP3 PUSH2 0xB55 JUMP JUMPDEST PUSH2 0xB91 DUP2 DUP6 PUSH2 0xB5F JUMP JUMPDEST SWAP4 POP PUSH2 0xBA1 DUP2 DUP6 PUSH1 0x20 DUP7 ADD PUSH2 0xB6F JUMP JUMPDEST PUSH2 0xBAA DUP2 PUSH2 0x8D0 JUMP JUMPDEST DUP5 ADD SWAP2 POP POP SWAP3 SWAP2 POP POP JUMP JUMPDEST PUSH2 0xBBE DUP2 PUSH2 0xAE8 JUMP JUMPDEST DUP3 MSTORE POP POP JUMP JUMPDEST PUSH2 0xBCD DUP2 PUSH2 0xA04 JUMP JUMPDEST DUP3 MSTORE POP POP JUMP JUMPDEST PUSH0 PUSH1 0xC0 DUP3 ADD SWAP1 POP PUSH2 0xBE6 PUSH0 DUP4 ADD DUP10 PUSH2 0xB46 JUMP JUMPDEST PUSH2 0xBF3 PUSH1 0x20 DUP4 ADD DUP9 PUSH2 0xB46 JUMP JUMPDEST DUP2 DUP2 SUB PUSH1 0x40 DUP4 ADD MSTORE PUSH2 0xC05 DUP2 DUP8 PUSH2 0xB7D JUMP JUMPDEST SWAP1 POP DUP2 DUP2 SUB PUSH1 0x60 DUP4 ADD MSTORE PUSH2 0xC19 DUP2 DUP7 PUSH2 0xB7D JUMP JUMPDEST SWAP1 POP PUSH2 0xC28 PUSH1 0x80 DUP4 ADD DUP6 PUSH2 0xBB5 JUMP JUMPDEST PUSH2 0xC35 PUSH1 0xA0 DUP4 ADD DUP5 PUSH2 0xBC4 JUMP JUMPDEST SWAP8 SWAP7 POP POP POP POP POP POP POP JUMP JUMPDEST PUSH0 PUSH1 0x20 DUP3 DUP5 SUB SLT ISZERO PUSH2 0xC55 JUMPI PUSH2 0xC54 PUSH2 0x866 JUMP JUMPDEST JUMPDEST PUSH0 PUSH2 0xC62 DUP5 DUP3 DUP6 ADD PUSH2 0x8B4 JUMP JUMPDEST SWAP2 POP POP SWAP3 SWAP2 POP POP JUMP JUMPDEST PUSH0 DUP2 MLOAD SWAP1 POP SWAP2 SWAP1 POP JUMP JUMPDEST PUSH0 DUP3 DUP3 MSTORE PUSH1 0x20 DUP3 ADD SWAP1 POP SWAP3 SWAP2 POP POP JUMP JUMPDEST PUSH0 DUP2 SWAP1 POP PUSH1 0x20 DUP3 ADD SWAP1 POP SWAP2 SWAP1 POP JUMP JUMPDEST PUSH2 0xC9D DUP2 PUSH2 0x88D JUMP JUMPDEST DUP3 MSTORE POP POP JUMP JUMPDEST PUSH0 DUP3 DUP3 MSTORE PUSH1 0x20 DUP3 ADD SWAP1 POP SWAP3 SWAP2 POP POP JUMP JUMPDEST PUSH0 PUSH2 0xCBD DUP3 PUSH2 0xB55 JUMP JUMPDEST PUSH2 0xCC7 DUP2 DUP6 PUSH2 0xCA3 JUMP JUMPDEST SWAP4 POP PUSH2 0xCD7 DUP2 DUP6 PUSH1 0x20 DUP7 ADD PUSH2 0xB6F JUMP JUMPDEST PUSH2 0xCE0 DUP2 PUSH2 0x8D0 JUMP JUMPDEST DUP5 ADD SWAP2 POP POP SWAP3 SWAP2 POP POP JUMP JUMPDEST PUSH2 0xCF4 DUP2 PUSH2 0xAE8 JUMP JUMPDEST DUP3 MSTORE POP POP JUMP JUMPDEST PUSH2 0xD03 DUP2 PUSH2 0xA04 JUMP JUMPDEST DUP3 MSTORE POP POP JUMP JUMPDEST PUSH0 PUSH1 0xC0 DUP4 ADD PUSH0 DUP4 ADD MLOAD PUSH2 0xD1E PUSH0 DUP7 ADD DUP3 PUSH2 0xC94 JUMP JUMPDEST POP PUSH1 0x20 DUP4 ADD MLOAD PUSH2 0xD31 PUSH1 0x20 DUP7 ADD DUP3 PUSH2 0xC94 JUMP JUMPDEST POP PUSH1 0x40 DUP4 ADD MLOAD DUP5 DUP3 SUB PUSH1 0x40 DUP7 ADD MSTORE PUSH2 0xD49 DUP3 DUP3 PUSH2 0xCB3 JUMP JUMPDEST SWAP2 POP POP PUSH1 0x60 DUP4 ADD MLOAD DUP5 DUP3 SUB PUSH1 0x60 DUP7 ADD MSTORE PUSH2 0xD63 DUP3 DUP3 PUSH2 0xCB3 JUMP JUMPDEST SWAP2 POP POP PUSH1 0x80 DUP4 ADD MLOAD PUSH2 0xD78 PUSH1 0x80 DUP7 ADD DUP3 PUSH2 0xCEB JUMP JUMPDEST POP PUSH1 0xA0 DUP4 ADD MLOAD PUSH2 0xD8B PUSH1 0xA0 DUP7 ADD DUP3 PUSH2 0xCFA JUMP JUMPDEST POP DUP1 SWAP2 POP POP SWAP3 SWAP2 POP POP JUMP JUMPDEST PUSH0 PUSH2 0xDA1 DUP4 DUP4 PUSH2 0xD09 JUMP JUMPDEST SWAP1 POP SWAP3 SWAP2 POP POP JUMP JUMPDEST PUSH0 PUSH1 0x20 DUP3 ADD SWAP1 POP SWAP2 SWAP1 POP JUMP JUMPDEST PUSH0 PUSH2 0xDBF DUP3 PUSH2 0xC6B JUMP JUMPDEST PUSH2 0xDC9 DUP2 DUP6 PUSH2 0xC75 JUMP JUMPDEST SWAP4 POP DUP4 PUSH1 0x20 DUP3 MUL DUP6 ADD PUSH2 0xDDB DUP6 PUSH2 0xC85 JUMP JUMPDEST DUP1 PUSH0 JUMPDEST DUP6 DUP2 LT ISZERO PUSH2 0xE16 JUMPI DUP5 DUP5 SUB DUP10 MSTORE DUP2 MLOAD PUSH2 0xDF7 DUP6 DUP3 PUSH2 0xD96 JUMP JUMPDEST SWAP5 POP PUSH2 0xE02 DUP4 PUSH2 0xDA9 JUMP JUMPDEST SWAP3 POP PUSH1 0x20 DUP11 ADD SWAP10 POP POP PUSH1 0x1 DUP2 ADD SWAP1 POP PUSH2 0xDDE JUMP JUMPDEST POP DUP3 SWAP8 POP DUP8 SWAP6 POP POP POP POP POP POP SWAP3 SWAP2 POP POP JUMP JUMPDEST PUSH0 PUSH1 0x20 DUP3 ADD SWAP1 POP DUP2 DUP2 SUB PUSH0 DUP4 ADD MSTORE PUSH2 0xE40 DUP2 DUP5 PUSH2 0xDB5 JUMP JUMPDEST SWAP1 POP SWAP3 SWAP2 POP POP JUMP JUMPDEST PUSH32 0x4E487B7100000000000000000000000000000000000000000000000000000000 PUSH0 MSTORE PUSH1 0x22 PUSH1 0x4 MSTORE PUSH1 0x24 PUSH0 REVERT JUMPDEST PUSH0 PUSH1 0x2 DUP3 DIV SWAP1 POP PUSH1 0x1 DUP3 AND DUP1 PUSH2 0xE8C JUMPI PUSH1 0x7F DUP3 AND SWAP2 POP JUMPDEST PUSH1 0x20 DUP3 LT DUP2 SUB PUSH2 0xE9F JUMPI PUSH2 0xE9E PUSH2 0xE48 JUMP JUMPDEST JUMPDEST POP SWAP2 SWAP1 POP JUMP JUMPDEST PUSH0 DUP2 SWAP1 POP DUP2 PUSH0 MSTORE PUSH1 0x20 PUSH0 KECCAK256 SWAP1 POP SWAP2 SWAP1 POP JUMP JUMPDEST PUSH0 PUSH1 0x20 PUSH1 0x1F DUP4 ADD DIV SWAP1 POP SWAP2 SWAP1 POP JUMP JUMPDEST PUSH0 DUP3 DUP3 SHL SWAP1 POP SWAP3 SWAP2 POP POP JUMP JUMPDEST PUSH0 PUSH1 0x8 DUP4 MUL PUSH2 0xF01 PUSH32 0xFFFFFFFFFFFFFFFFFFFFFFFFFFFFFFFFFFFFFFFFFFFFFFFFFFFFFFFFFFFFFFFF DUP3 PUSH2 0xEC6 JUMP JUMPDEST PUSH2 0xF0B DUP7 DUP4 PUSH2 0xEC6 JUMP JUMPDEST SWAP6 POP DUP1 NOT DUP5 AND SWAP4 POP DUP1 DUP7 AND DUP5 OR SWAP3 POP POP POP SWAP4 SWAP3 POP POP POP JUMP JUMPDEST PUSH0 DUP2 SWAP1 POP SWAP2 SWAP1 POP JUMP JUMPDEST PUSH0 PUSH2 0xF46 PUSH2 0xF41 PUSH2 0xF3C DUP5 PUSH2 0xAE8 JUMP JUMPDEST PUSH2 0xF23 JUMP JUMPDEST PUSH2 0xAE8 JUMP JUMPDEST SWAP1 POP SWAP2 SWAP1 POP JUMP JUMPDEST PUSH0 DUP2 SWAP1 POP SWAP2 SWAP1 POP JUMP JUMPDEST PUSH2 0xF5F DUP4 PUSH2 0xF2C JUMP JUMPDEST PUSH2 0xF73 PUSH2 0xF6B DUP3 PUSH2 0xF4D JUMP JUMPDEST DUP5 DUP5 SLOAD PUSH2 0xED2 JUMP JUMPDEST DUP3 SSTORE POP POP POP POP JUMP JUMPDEST PUSH0 SWAP1 JUMP JUMPDEST PUSH2 0xF87 PUSH2 0xF7B JUMP JUMPDEST PUSH2 0xF92 DUP2 DUP5 DUP5 PUSH2 0xF56 JUMP JUMPDEST POP POP POP JUMP JUMPDEST JUMPDEST DUP2 DUP2 LT ISZERO PUSH2 0xFB5 JUMPI PUSH2 0xFAA PUSH0 DUP3 PUSH2 0xF7F JUMP JUMPDEST PUSH1 0x1 DUP2 ADD SWAP1 POP PUSH2 0xF98 JUMP JUMPDEST POP POP JUMP JUMPDEST PUSH1 0x1F DUP3 GT ISZERO PUSH2 0xFFA JUMPI PUSH2 0xFCB DUP2 PUSH2 0xEA5 JUMP JUMPDEST PUSH2 0xFD4 DUP5 PUSH2 0xEB7 JUMP JUMPDEST DUP2 ADD PUSH1 0x20 DUP6 LT ISZERO PUSH2 0xFE3 JUMPI DUP2 SWAP1 POP JUMPDEST PUSH2 0xFF7 PUSH2 0xFEF DUP6 PUSH2 0xEB7 JUMP JUMPDEST DUP4 ADD DUP3 PUSH2 0xF97 JUMP JUMPDEST POP POP JUMPDEST POP POP POP JUMP JUMPDEST PUSH0 DUP3 DUP3 SHR SWAP1 POP SWAP3 SWAP2 POP POP JUMP JUMPDEST PUSH0 PUSH2 0x101A PUSH0 NOT DUP5 PUSH1 0x8 MUL PUSH2 0xFFF JUMP JUMPDEST NOT DUP1 DUP4 AND SWAP2 POP POP SWAP3 SWAP2 POP POP JUMP JUMPDEST PUSH0 PUSH2 0x1032 DUP4 DUP4 PUSH2 0x100B JUMP JUMPDEST SWAP2 POP DUP3 PUSH1 0x2 MUL DUP3 OR SWAP1 POP SWAP3 SWAP2 POP POP JUMP JUMPDEST PUSH2 0x104B DUP3 PUSH2 0xB55 JUMP JUMPDEST PUSH8 0xFFFFFFFFFFFFFFFF DUP2 GT ISZERO PUSH2 0x1064 JUMPI PUSH2 0x1063 PUSH2 0x8E0 JUMP JUMPDEST JUMPDEST PUSH2 0x106E DUP3 SLOAD PUSH2 0xE75 JUMP JUMPDEST PUSH2 0x1079 DUP3 DUP3 DUP6 PUSH2 0xFB9 JUMP JUMPDEST PUSH0 PUSH1 0x20 SWAP1 POP PUSH1 0x1F DUP4 GT PUSH1 0x1 DUP2 EQ PUSH2 0x10AA JUMPI PUSH0 DUP5 ISZERO PUSH2 0x1098 JUMPI DUP3 DUP8 ADD MLOAD SWAP1 POP JUMPDEST PUSH2 0x10A2 DUP6 DUP3 PUSH2 0x1027 JUMP JUMPDEST DUP7 SSTORE POP PUSH2 0x1109 JUMP JUMPDEST PUSH1 0x1F NOT DUP5 AND PUSH2 0x10B8 DUP7 PUSH2 0xEA5 JUMP JUMPDEST PUSH0 JUMPDEST DUP3 DUP2 LT ISZERO PUSH2 0x10DF JUMPI DUP5 DUP10 ADD MLOAD DUP3 SSTORE PUSH1 0x1 DUP3 ADD SWAP2 POP PUSH1 0x20 DUP6 ADD SWAP5 POP PUSH1 0x20 DUP2 ADD SWAP1 POP PUSH2 0x10BA JUMP JUMPDEST DUP7 DUP4 LT ISZERO PUSH2 0x10FC JUMPI DUP5 DUP10 ADD MLOAD PUSH2 0x10F8 PUSH1 0x1F DUP10 AND DUP3 PUSH2 0x100B JUMP JUMPDEST DUP4 SSTORE POP JUMPDEST PUSH1 0x1 PUSH1 0x2 DUP9 MUL ADD DUP9 SSTORE POP POP POP JUMPDEST POP POP POP POP POP POP JUMP JUMPDEST PUSH0 PUSH1 0x80 DUP3 ADD SWAP1 POP DUP2 DUP2 SUB PUSH0 DUP4 ADD MSTORE PUSH2 0x1129 DUP2 DUP8 PUSH2 0xB7D JUMP JUMPDEST SWAP1 POP DUP2 DUP2 SUB PUSH1 0x20 DUP4 ADD MSTORE PUSH2 0x113D DUP2 DUP7 PUSH2 0xB7D JUMP JUMPDEST SWAP1 POP PUSH2 0x114C PUSH1 0x40 DUP4 ADD DUP6 PUSH2 0xBC4 JUMP JUMPDEST PUSH2 0x1159 PUSH1 0x60 DUP4 ADD DUP5 PUSH2 0xBB5 JUMP JUMPDEST SWAP6 SWAP5 POP POP POP POP POP JUMP JUMPDEST PUSH32 0x4E487B7100000000000000000000000000000000000000000000000000000000 PUSH0 MSTORE PUSH1 0x32 PUSH1 0x4 MSTORE PUSH1 0x24 PUSH0 REVERT INVALID LOG2 PUSH5 0x6970667358 0x22 SLT KECCAK256 0xCE DUP4 KECCAK256 SLOAD 0xD2 0xE0 0xE4 SHL 0x24 PUSH4 0x43A66B1A PUSH18 0x5D36BBAF7F1F6140CD895DA53166FA638E64 PUSH20 0x6F6C634300081A00330000000000000000000000 "
				},
				"gasEstimates": {
					"creation": {
						"codeDepositCost": "909800",
						"executionCost": "946",
						"totalCost": "910746"
					},
					"external": {
						"accessRecords(uint256)": "infinite",
						"getPatientAccessRecords(address)": "infinite",
						"logAccess(address,address,string,string,bool)": "infinite"
					}
				},
				"methodIdentifiers": {
					"accessRecords(uint256)": "b55fdd5c",
					"getPatientAccessRecords(address)": "cf07855a",
					"logAccess(address,address,string,string,bool)": "67fe17f4"
				}
			},
			"storageLayout": {
				"storage": [
					{
						"astId": 18,
						"contract": "contracts/EnhancedAuditLog.sol:EnhancedAuditLog",
						"label": "accessRecords",
						"offset": 0,
						"slot": "0",
						"type": "t_array(t_struct(AccessRecord)14_storage)dyn_storage"
					},
					{
						"astId": 23,
						"contract": "contracts/EnhancedAuditLog.sol:EnhancedAuditLog",
						"label": "patientAccessRecords",
						"offset": 0,
						"slot": "1",
						"type": "t_mapping(t_address,t_array(t_uint256)dyn_storage)"
					}
				],
				"types": {
					"t_address": {
						"encoding": "inplace",
						"label": "address",
						"numberOfBytes": "20"
					},
					"t_array(t_struct(AccessRecord)14_storage)dyn_storage": {
						"base": "t_struct(AccessRecord)14_storage",
						"encoding": "dynamic_array",
						"label": "struct EnhancedAuditLog.AccessRecord[]",
						"numberOfBytes": "32"
					},
					"t_array(t_uint256)dyn_storage": {
						"base": "t_uint256",
						"encoding": "dynamic_array",
						"label": "uint256[]",
						"numberOfBytes": "32"
					},
					"t_bool": {
						"encoding": "inplace",
						"label": "bool",
						"numberOfBytes": "1"
					},
					"t_mapping(t_address,t_array(t_uint256)dyn_storage)": {
						"encoding": "mapping",
						"key": "t_address",
						"label": "mapping(address => uint256[])",
						"numberOfBytes": "32",
						"value": "t_array(t_uint256)dyn_storage"
					},
					"t_string_storage": {
						"encoding": "bytes",
						"label": "string",
						"numberOfBytes": "32"
					},
					"t_struct(AccessRecord)14_storage": {
						"encoding": "inplace",
						"label": "struct EnhancedAuditLog.AccessRecord",
						"members": [
							{
								"astId": 3,
								"contract": "contracts/EnhancedAuditLog.sol:EnhancedAuditLog",
								"label": "user",
								"offset": 0,
								"slot": "0",
								"type": "t_address"
							},
							{
								"astId": 5,
								"contract": "contracts/EnhancedAuditLog.sol:EnhancedAuditLog",
								"label": "patient",
								"offset": 0,
								"slot": "1",
								"type": "t_address"
							},
							{
								"astId": 7,
								"contract": "contracts/EnhancedAuditLog.sol:EnhancedAuditLog",
								"label": "accessType",
								"offset": 0,
								"slot": "2",
								"type": "t_string_storage"
							},
							{
								"astId": 9,
								"contract": "contracts/EnhancedAuditLog.sol:EnhancedAuditLog",
								"label": "justification",
								"offset": 0,
								"slot": "3",
								"type": "t_string_storage"
							},
							{
								"astId": 11,
								"contract": "contracts/EnhancedAuditLog.sol:EnhancedAuditLog",
								"label": "timestamp",
								"offset": 0,
								"slot": "4",
								"type": "t_uint256"
							},
							{
								"astId": 13,
								"contract": "contracts/EnhancedAuditLog.sol:EnhancedAuditLog",
								"label": "isEmergency",
								"offset": 0,
								"slot": "5",
								"type": "t_bool"
							}
						],
						"numberOfBytes": "192"
					},
					"t_uint256": {
						"encoding": "inplace",
						"label": "uint256",
						"numberOfBytes": "32"
					}
				}
			},
			"userdoc": {
				"kind": "user",
				"methods": {},
				"version": 1
			}
		}
	}
}