{
	"contracts/EnhancedRBAC.sol": {
		"EnhancedRBAC": {
			"abi": [
				{
					"inputs": [
						{
							"internalType": "address",
							"name": "_didRegistryAddress",
							"type": "address"
						},
						{
							"internalType": "address",
							"name": "_zkpVerifierAddress",
							"type": "address"
						}
					],
					"stateMutability": "nonpayable",
					"type": "constructor"
				},
				{
					"anonymous": false,
					"inputs": [
						{
							"indexed": true,
							"internalType": "address",
							"name": "user",
							"type": "address"
						},
						{
							"indexed": false,
							"internalType": "string",
							"name": "permission",
							"type": "string"
						}
					],
					"name": "PermissionGranted",
					"type": "event"
				},
				{
					"anonymous": false,
					"inputs": [
						{
							"indexed": true,
							"internalType": "address",
							"name": "user",
							"type": "address"
						},
						{
							"indexed": false,
							"internalType": "string",
							"name": "permission",
							"type": "string"
						}
					],
					"name": "PermissionRevoked",
					"type": "event"
				},
				{
					"anonymous": false,
					"inputs": [
						{
							"indexed": true,
							"internalType": "address",
							"name": "user",
							"type": "address"
						},
						{
							"indexed": false,
							"internalType": "enum EnhancedRBAC.Role",
							"name": "role",
							"type": "uint8"
						},
						{
							"indexed": false,
							"internalType": "string",
							"name": "did",
							"type": "string"
						}
					],
					"name": "RoleAssigned",
					"type": "event"
				},
				{
					"anonymous": false,
					"inputs": [
						{
							"indexed": true,
							"internalType": "address",
							"name": "user",
							"type": "address"
						}
					],
					"name": "RoleRevoked",
					"type": "event"
				},
				{
					"inputs": [
						{
							"internalType": "address",
							"name": "user",
							"type": "address"
						},
						{
							"internalType": "enum EnhancedRBAC.Role",
							"name": "role",
							"type": "uint8"
						},
						{
							"internalType": "bytes32",
							"name": "roleCredential",
							"type": "bytes32"
						},
						{
							"internalType": "string",
							"name": "did",
							"type": "string"
						},
						{
							"internalType": "uint256",
							"name": "validityPeriod",
							"type": "uint256"
						}
					],
					"name": "assignRole",
					"outputs": [],
					"stateMutability": "nonpayable",
					"type": "function"
				},
				{
					"inputs": [],
					"name": "didRegistry",
					"outputs": [
						{
							"internalType": "contract IDIDRegistry",
							"name": "",
							"type": "address"
						}
					],
					"stateMutability": "view",
					"type": "function"
				},
				{
					"inputs": [],
					"name": "zkpVerifier",
					"outputs": [
						{
							"internalType": "contract ZKPVerifier",
							"name": "",
							"type": "address"
						}
					],
					"stateMutability": "view",
					"type": "function"
				}
			],
			"devdoc": {
				"kind": "dev",
				"methods": {},
				"version": 1
			},
			"evm": {
				"assembly": "    /* \"contracts/EnhancedRBAC.sol\":121:1976  contract EnhancedRBAC {... */\n  mstore(0x40, 0x80)\n    /* \"contracts/EnhancedRBAC.sol\":851:1044  constructor(address _didRegistryAddress, address _zkpVerifierAddress) {... */\n  callvalue\n  dup1\n  iszero\n  tag_1\n  jumpi\n  0x00\n  dup1\n  revert\ntag_1:\n  pop\n  mload(0x40)\n  sub(codesize, bytecodeSize)\n  dup1\n  bytecodeSize\n  dup4\n  codecopy\n  dup2\n  dup2\n  add\n  0x40\n  mstore\n  dup2\n  add\n  swap1\n  tag_2\n  swap2\n  swap1\n  tag_3\n  jump\t// in\ntag_2:\n    /* \"contracts/EnhancedRBAC.sol\":959:978  _didRegistryAddress */\n  dup2\n    /* \"contracts/EnhancedRBAC.sol\":932:943  didRegistry */\n  0x02\n  0x00\n    /* \"contracts/EnhancedRBAC.sol\":932:979  didRegistry = IDIDRegistry(_didRegistryAddress) */\n  0x0100\n  exp\n  dup2\n  sload\n  dup2\n  0xffffffffffffffffffffffffffffffffffffffff\n  mul\n  not\n  and\n  swap1\n  dup4\n  0xffffffffffffffffffffffffffffffffffffffff\n  and\n  mul\n  or\n  swap1\n  sstore\n  pop\n    /* \"contracts/EnhancedRBAC.sol\":1016:1035  _zkpVerifierAddress */\n  dup1\n    /* \"contracts/EnhancedRBAC.sol\":990:1001  zkpVerifier */\n  0x03\n  0x00\n    /* \"contracts/EnhancedRBAC.sol\":990:1036  zkpVerifier = ZKPVerifier(_zkpVerifierAddress) */\n  0x0100\n  exp\n  dup2\n  sload\n  dup2\n  0xffffffffffffffffffffffffffffffffffffffff\n  mul\n  not\n  and\n  swap1\n  dup4\n  0xffffffffffffffffffffffffffffffffffffffff\n  and\n  mul\n  or\n  swap1\n  sstore\n  pop\n    /* \"contracts/EnhancedRBAC.sol\":851:1044  constructor(address _didRegistryAddress, address _zkpVerifierAddress) {... */\n  pop\n  pop\n    /* \"contracts/EnhancedRBAC.sol\":121:1976  contract EnhancedRBAC {... */\n  jump(tag_6)\n    /* \"#utility.yul\":88:205   */\ntag_8:\n    /* \"#utility.yul\":197:198   */\n  0x00\n    /* \"#utility.yul\":194:195   */\n  dup1\n    /* \"#utility.yul\":187:199   */\n  revert\n    /* \"#utility.yul\":334:460   */\ntag_10:\n    /* \"#utility.yul\":371:378   */\n  0x00\n    /* \"#utility.yul\":411:453   */\n  0xffffffffffffffffffffffffffffffffffffffff\n    /* \"#utility.yul\":404:409   */\n  dup3\n    /* \"#utility.yul\":400:454   */\n  and\n    /* \"#utility.yul\":389:454   */\n  swap1\n  pop\n    /* \"#utility.yul\":334:460   */\n  swap2\n  swap1\n  pop\n  jump\t// out\n    /* \"#utility.yul\":466:562   */\ntag_11:\n    /* \"#utility.yul\":503:510   */\n  0x00\n    /* \"#utility.yul\":532:556   */\n  tag_20\n    /* \"#utility.yul\":550:555   */\n  dup3\n    /* \"#utility.yul\":532:556   */\n  tag_10\n  jump\t// in\ntag_20:\n    /* \"#utility.yul\":521:556   */\n  swap1\n  pop\n    /* \"#utility.yul\":466:562   */\n  swap2\n  swap1\n  pop\n  jump\t// out\n    /* \"#utility.yul\":568:690   */\ntag_12:\n    /* \"#utility.yul\":641:665   */\n  tag_22\n    /* \"#utility.yul\":659:664   */\n  dup2\n    /* \"#utility.yul\":641:665   */\n  tag_11\n  jump\t// in\ntag_22:\n    /* \"#utility.yul\":634:639   */\n  dup2\n    /* \"#utility.yul\":631:666   */\n  eq\n    /* \"#utility.yul\":621:684   */\n  tag_23\n  jumpi\n    /* \"#utility.yul\":680:681   */\n  0x00\n    /* \"#utility.yul\":677:678   */\n  dup1\n    /* \"#utility.yul\":670:682   */\n  revert\n    /* \"#utility.yul\":621:684   */\ntag_23:\n    /* \"#utility.yul\":568:690   */\n  pop\n  jump\t// out\n    /* \"#utility.yul\":696:839   */\ntag_13:\n    /* \"#utility.yul\":753:758   */\n  0x00\n    /* \"#utility.yul\":784:790   */\n  dup2\n    /* \"#utility.yul\":778:791   */\n  mload\n    /* \"#utility.yul\":769:791   */\n  swap1\n  pop\n    /* \"#utility.yul\":800:833   */\n  tag_25\n    /* \"#utility.yul\":827:832   */\n  dup2\n    /* \"#utility.yul\":800:833   */\n  tag_12\n  jump\t// in\ntag_25:\n    /* \"#utility.yul\":696:839   */\n  swap3\n  swap2\n  pop\n  pop\n  jump\t// out\n    /* \"#utility.yul\":845:1352   */\ntag_3:\n    /* \"#utility.yul\":924:930   */\n  0x00\n    /* \"#utility.yul\":932:938   */\n  dup1\n    /* \"#utility.yul\":981:983   */\n  0x40\n    /* \"#utility.yul\":969:978   */\n  dup4\n    /* \"#utility.yul\":960:967   */\n  dup6\n    /* \"#utility.yul\":956:979   */\n  sub\n    /* \"#utility.yul\":952:984   */\n  slt\n    /* \"#utility.yul\":949:1068   */\n  iszero\n  tag_27\n  jumpi\n    /* \"#utility.yul\":987:1066   */\n  tag_28\n  tag_8\n  jump\t// in\ntag_28:\n    /* \"#utility.yul\":949:1068   */\ntag_27:\n    /* \"#utility.yul\":1107:1108   */\n  0x00\n    /* \"#utility.yul\":1132:1196   */\n  tag_29\n    /* \"#utility.yul\":1188:1195   */\n  dup6\n    /* \"#utility.yul\":1179:1185   */\n  dup3\n    /* \"#utility.yul\":1168:1177   */\n  dup7\n    /* \"#utility.yul\":1164:1186   */\n  add\n    /* \"#utility.yul\":1132:1196   */\n  tag_13\n  jump\t// in\ntag_29:\n    /* \"#utility.yul\":1122:1196   */\n  swap3\n  pop\n    /* \"#utility.yul\":1078:1206   */\n  pop\n    /* \"#utility.yul\":1245:1247   */\n  0x20\n    /* \"#utility.yul\":1271:1335   */\n  tag_30\n    /* \"#utility.yul\":1327:1334   */\n  dup6\n    /* \"#utility.yul\":1318:1324   */\n  dup3\n    /* \"#utility.yul\":1307:1316   */\n  dup7\n    /* \"#utility.yul\":1303:1325   */\n  add\n    /* \"#utility.yul\":1271:1335   */\n  tag_13\n  jump\t// in\ntag_30:\n    /* \"#utility.yul\":1261:1335   */\n  swap2\n  pop\n    /* \"#utility.yul\":1216:1345   */\n  pop\n    /* \"#utility.yul\":845:1352   */\n  swap3\n  pop\n  swap3\n  swap1\n  pop\n  jump\t// out\n    /* \"contracts/EnhancedRBAC.sol\":121:1976  contract EnhancedRBAC {... */\ntag_6:\n  dataSize(sub_0)\n  dup1\n  dataOffset(sub_0)\n  0x00\n  codecopy\n  0x00\n  return\nstop\n\nsub_0: assembly {\n        /* \"contracts/EnhancedRBAC.sol\":121:1976  contract EnhancedRBAC {... */\n      mstore(0x40, 0x80)\n      callvalue\n      dup1\n      iszero\n      tag_1\n      jumpi\n      0x00\n      dup1\n      revert\n    tag_1:\n      pop\n      jumpi(tag_2, lt(calldatasize, 0x04))\n      shr(0xe0, calldataload(0x00))\n      dup1\n      0x20b18727\n      eq\n      tag_3\n      jumpi\n      dup1\n      0x577f9fb1\n      eq\n      tag_4\n      jumpi\n      dup1\n      0x6aebbd66\n      eq\n      tag_5\n      jumpi\n    tag_2:\n      0x00\n      dup1\n      revert\n        /* \"contracts/EnhancedRBAC.sol\":1360:1909  function assignRole(... */\n    tag_3:\n      tag_6\n      0x04\n      dup1\n      calldatasize\n      sub\n      dup2\n      add\n      swap1\n      tag_7\n      swap2\n      swap1\n      tag_8\n      jump\t// in\n    tag_7:\n      tag_9\n      jump\t// in\n    tag_6:\n      stop\n        /* \"contracts/EnhancedRBAC.sol\":514:545  IDIDRegistry public didRegistry */\n    tag_4:\n      tag_10\n      tag_11\n      jump\t// in\n    tag_10:\n      mload(0x40)\n      tag_12\n      swap2\n      swap1\n      tag_13\n      jump\t// in\n    tag_12:\n      mload(0x40)\n      dup1\n      swap2\n      sub\n      swap1\n      return\n        /* \"contracts/EnhancedRBAC.sol\":552:582  ZKPVerifier public zkpVerifier */\n    tag_5:\n      tag_14\n      tag_15\n      jump\t// in\n    tag_14:\n      mload(0x40)\n      tag_16\n      swap2\n      swap1\n      tag_17\n      jump\t// in\n    tag_16:\n      mload(0x40)\n      dup1\n      swap2\n      sub\n      swap1\n      return\n        /* \"contracts/EnhancedRBAC.sol\":1360:1909  function assignRole(... */\n    tag_9:\n        /* \"contracts/EnhancedRBAC.sol\":1550:1561  didRegistry */\n      0x02\n      0x00\n      swap1\n      sload\n      swap1\n      0x0100\n      exp\n      swap1\n      div\n      0xffffffffffffffffffffffffffffffffffffffff\n      and\n        /* \"contracts/EnhancedRBAC.sol\":1550:1578  didRegistry.verifyDIDControl */\n      0xffffffffffffffffffffffffffffffffffffffff\n      and\n      0xaabe5036\n        /* \"contracts/EnhancedRBAC.sol\":1579:1583  user */\n      dup7\n        /* \"contracts/EnhancedRBAC.sol\":1585:1588  did */\n      dup5\n        /* \"contracts/EnhancedRBAC.sol\":1550:1589  didRegistry.verifyDIDControl(user, did) */\n      mload(0x40)\n      dup4\n      0xffffffff\n      and\n      0xe0\n      shl\n      dup2\n      mstore\n      0x04\n      add\n      tag_19\n      swap3\n      swap2\n      swap1\n      tag_20\n      jump\t// in\n    tag_19:\n      0x20\n      mload(0x40)\n      dup1\n      dup4\n      sub\n      dup2\n      dup7\n      gas\n      staticcall\n      iszero\n      dup1\n      iszero\n      tag_22\n      jumpi\n      returndatasize\n      0x00\n      dup1\n      returndatacopy\n      revert(0x00, returndatasize)\n    tag_22:\n      pop\n      pop\n      pop\n      pop\n      mload(0x40)\n      returndatasize\n      not(0x1f)\n      0x1f\n      dup3\n      add\n      and\n      dup3\n      add\n      dup1\n      0x40\n      mstore\n      pop\n      dup2\n      add\n      swap1\n      tag_23\n      swap2\n      swap1\n      tag_24\n      jump\t// in\n    tag_23:\n        /* \"contracts/EnhancedRBAC.sol\":1542:1613  require(didRegistry.verifyDIDControl(user, did), \"Invalid DID control\") */\n      tag_25\n      jumpi\n      mload(0x40)\n      0x08c379a000000000000000000000000000000000000000000000000000000000\n      dup2\n      mstore\n      0x04\n      add\n      tag_26\n      swap1\n      tag_27\n      jump\t// in\n    tag_26:\n      mload(0x40)\n      dup1\n      swap2\n      sub\n      swap1\n      revert\n    tag_25:\n        /* \"contracts/EnhancedRBAC.sol\":1652:1854  RoleData({... */\n      mload(0x40)\n      dup1\n      0xa0\n      add\n      0x40\n      mstore\n      dup1\n        /* \"contracts/EnhancedRBAC.sol\":1682:1686  role */\n      dup6\n        /* \"contracts/EnhancedRBAC.sol\":1652:1854  RoleData({... */\n      0x06\n      dup2\n      gt\n      iszero\n      tag_28\n      jumpi\n      tag_29\n      tag_30\n      jump\t// in\n    tag_29:\n    tag_28:\n      dup2\n      mstore\n      0x20\n      add\n        /* \"contracts/EnhancedRBAC.sol\":1711:1715  true */\n      0x01\n        /* \"contracts/EnhancedRBAC.sol\":1652:1854  RoleData({... */\n      iszero\n      iszero\n      dup2\n      mstore\n      0x20\n      add\n        /* \"contracts/EnhancedRBAC.sol\":1760:1774  validityPeriod */\n      dup3\n        /* \"contracts/EnhancedRBAC.sol\":1742:1757  block.timestamp */\n      timestamp\n        /* \"contracts/EnhancedRBAC.sol\":1742:1774  block.timestamp + validityPeriod */\n      tag_31\n      swap2\n      swap1\n      tag_32\n      jump\t// in\n    tag_31:\n        /* \"contracts/EnhancedRBAC.sol\":1652:1854  RoleData({... */\n      dup2\n      mstore\n      0x20\n      add\n        /* \"contracts/EnhancedRBAC.sol\":1805:1819  roleCredential */\n      dup5\n        /* \"contracts/EnhancedRBAC.sol\":1652:1854  RoleData({... */\n      dup2\n      mstore\n      0x20\n      add\n        /* \"contracts/EnhancedRBAC.sol\":1839:1842  did */\n      dup4\n        /* \"contracts/EnhancedRBAC.sol\":1652:1854  RoleData({... */\n      dup2\n      mstore\n      pop\n        /* \"contracts/EnhancedRBAC.sol\":1634:1643  userRoles */\n      0x00\n        /* \"contracts/EnhancedRBAC.sol\":1634:1649  userRoles[user] */\n      dup1\n        /* \"contracts/EnhancedRBAC.sol\":1644:1648  user */\n      dup8\n        /* \"contracts/EnhancedRBAC.sol\":1634:1649  userRoles[user] */\n      0xffffffffffffffffffffffffffffffffffffffff\n      and\n      0xffffffffffffffffffffffffffffffffffffffff\n      and\n      dup2\n      mstore\n      0x20\n      add\n      swap1\n      dup2\n      mstore\n      0x20\n      add\n      0x00\n      keccak256\n        /* \"contracts/EnhancedRBAC.sol\":1634:1854  userRoles[user] = RoleData({... */\n      0x00\n      dup3\n      add\n      mload\n      dup2\n      0x00\n      add\n      exp(0x0100, 0x00)\n      dup2\n      sload\n      dup2\n      0xff\n      mul\n      not\n      and\n      swap1\n      dup4\n      0x06\n      dup2\n      gt\n      iszero\n      tag_33\n      jumpi\n      tag_34\n      tag_30\n      jump\t// in\n    tag_34:\n    tag_33:\n      mul\n      or\n      swap1\n      sstore\n      pop\n      0x20\n      dup3\n      add\n      mload\n      dup2\n      0x00\n      add\n      exp(0x0100, 0x01)\n      dup2\n      sload\n      dup2\n      0xff\n      mul\n      not\n      and\n      swap1\n      dup4\n      iszero\n      iszero\n      mul\n      or\n      swap1\n      sstore\n      pop\n      0x40\n      dup3\n      add\n      mload\n      dup2\n      0x01\n      add\n      sstore\n      0x60\n      dup3\n      add\n      mload\n      dup2\n      0x02\n      add\n      sstore\n      0x80\n      dup3\n      add\n      mload\n      dup2\n      0x03\n      add\n      swap1\n      dup2\n      tag_35\n      swap2\n      swap1\n      tag_36\n      jump\t// in\n    tag_35:\n      pop\n      swap1\n      pop\n      pop\n        /* \"contracts/EnhancedRBAC.sol\":1885:1889  user */\n      dup5\n        /* \"contracts/EnhancedRBAC.sol\":1872:1901  RoleAssigned(user, role, did) */\n      0xffffffffffffffffffffffffffffffffffffffff\n      and\n      0x6f9e8382effc1f2659a04b480fc00e03e9ea704a05c90d74db22a5fb12ee46af\n        /* \"contracts/EnhancedRBAC.sol\":1891:1895  role */\n      dup6\n        /* \"contracts/EnhancedRBAC.sol\":1897:1900  did */\n      dup5\n        /* \"contracts/EnhancedRBAC.sol\":1872:1901  RoleAssigned(user, role, did) */\n      mload(0x40)\n      tag_37\n      swap3\n      swap2\n      swap1\n      tag_38\n      jump\t// in\n    tag_37:\n      mload(0x40)\n      dup1\n      swap2\n      sub\n      swap1\n      log2\n        /* \"contracts/EnhancedRBAC.sol\":1360:1909  function assignRole(... */\n      pop\n      pop\n      pop\n      pop\n      pop\n      jump\t// out\n        /* \"contracts/EnhancedRBAC.sol\":514:545  IDIDRegistry public didRegistry */\n    tag_11:\n      0x02\n      0x00\n      swap1\n      sload\n      swap1\n      0x0100\n      exp\n      swap1\n      div\n      0xffffffffffffffffffffffffffffffffffffffff\n      and\n      dup2\n      jump\t// out\n        /* \"contracts/EnhancedRBAC.sol\":552:582  ZKPVerifier public zkpVerifier */\n    tag_15:\n      0x03\n      0x00\n      swap1\n      sload\n      swap1\n      0x0100\n      exp\n      swap1\n      div\n      0xffffffffffffffffffffffffffffffffffffffff\n      and\n      dup2\n      jump\t// out\n        /* \"#utility.yul\":7:82   */\n    tag_39:\n        /* \"#utility.yul\":40:46   */\n      0x00\n        /* \"#utility.yul\":73:75   */\n      0x40\n        /* \"#utility.yul\":67:76   */\n      mload\n        /* \"#utility.yul\":57:76   */\n      swap1\n      pop\n        /* \"#utility.yul\":7:82   */\n      swap1\n      jump\t// out\n        /* \"#utility.yul\":88:205   */\n    tag_40:\n        /* \"#utility.yul\":197:198   */\n      0x00\n        /* \"#utility.yul\":194:195   */\n      dup1\n        /* \"#utility.yul\":187:199   */\n      revert\n        /* \"#utility.yul\":211:328   */\n    tag_41:\n        /* \"#utility.yul\":320:321   */\n      0x00\n        /* \"#utility.yul\":317:318   */\n      dup1\n        /* \"#utility.yul\":310:322   */\n      revert\n        /* \"#utility.yul\":334:460   */\n    tag_42:\n        /* \"#utility.yul\":371:378   */\n      0x00\n        /* \"#utility.yul\":411:453   */\n      0xffffffffffffffffffffffffffffffffffffffff\n        /* \"#utility.yul\":404:409   */\n      dup3\n        /* \"#utility.yul\":400:454   */\n      and\n        /* \"#utility.yul\":389:454   */\n      swap1\n      pop\n        /* \"#utility.yul\":334:460   */\n      swap2\n      swap1\n      pop\n      jump\t// out\n        /* \"#utility.yul\":466:562   */\n    tag_43:\n        /* \"#utility.yul\":503:510   */\n      0x00\n        /* \"#utility.yul\":532:556   */\n      tag_108\n        /* \"#utility.yul\":550:555   */\n      dup3\n        /* \"#utility.yul\":532:556   */\n      tag_42\n      jump\t// in\n    tag_108:\n        /* \"#utility.yul\":521:556   */\n      swap1\n      pop\n        /* \"#utility.yul\":466:562   */\n      swap2\n      swap1\n      pop\n      jump\t// out\n        /* \"#utility.yul\":568:690   */\n    tag_44:\n        /* \"#utility.yul\":641:665   */\n      tag_110\n        /* \"#utility.yul\":659:664   */\n      dup2\n        /* \"#utility.yul\":641:665   */\n      tag_43\n      jump\t// in\n    tag_110:\n        /* \"#utility.yul\":634:639   */\n      dup2\n        /* \"#utility.yul\":631:666   */\n      eq\n        /* \"#utility.yul\":621:684   */\n      tag_111\n      jumpi\n        /* \"#utility.yul\":680:681   */\n      0x00\n        /* \"#utility.yul\":677:678   */\n      dup1\n        /* \"#utility.yul\":670:682   */\n      revert\n        /* \"#utility.yul\":621:684   */\n    tag_111:\n        /* \"#utility.yul\":568:690   */\n      pop\n      jump\t// out\n        /* \"#utility.yul\":696:835   */\n    tag_45:\n        /* \"#utility.yul\":742:747   */\n      0x00\n        /* \"#utility.yul\":780:786   */\n      dup2\n        /* \"#utility.yul\":767:787   */\n      calldataload\n        /* \"#utility.yul\":758:787   */\n      swap1\n      pop\n        /* \"#utility.yul\":796:829   */\n      tag_113\n        /* \"#utility.yul\":823:828   */\n      dup2\n        /* \"#utility.yul\":796:829   */\n      tag_44\n      jump\t// in\n    tag_113:\n        /* \"#utility.yul\":696:835   */\n      swap3\n      swap2\n      pop\n      pop\n      jump\t// out\n        /* \"#utility.yul\":841:947   */\n    tag_46:\n        /* \"#utility.yul\":921:922   */\n      0x07\n        /* \"#utility.yul\":914:919   */\n      dup2\n        /* \"#utility.yul\":911:923   */\n      lt\n        /* \"#utility.yul\":901:941   */\n      tag_115\n      jumpi\n        /* \"#utility.yul\":937:938   */\n      0x00\n        /* \"#utility.yul\":934:935   */\n      dup1\n        /* \"#utility.yul\":927:939   */\n      revert\n        /* \"#utility.yul\":901:941   */\n    tag_115:\n        /* \"#utility.yul\":841:947   */\n      pop\n      jump\t// out\n        /* \"#utility.yul\":953:1106   */\n    tag_47:\n        /* \"#utility.yul\":1006:1011   */\n      0x00\n        /* \"#utility.yul\":1044:1050   */\n      dup2\n        /* \"#utility.yul\":1031:1051   */\n      calldataload\n        /* \"#utility.yul\":1022:1051   */\n      swap1\n      pop\n        /* \"#utility.yul\":1060:1100   */\n      tag_117\n        /* \"#utility.yul\":1094:1099   */\n      dup2\n        /* \"#utility.yul\":1060:1100   */\n      tag_46\n      jump\t// in\n    tag_117:\n        /* \"#utility.yul\":953:1106   */\n      swap3\n      swap2\n      pop\n      pop\n      jump\t// out\n        /* \"#utility.yul\":1112:1189   */\n    tag_48:\n        /* \"#utility.yul\":1149:1156   */\n      0x00\n        /* \"#utility.yul\":1178:1183   */\n      dup2\n        /* \"#utility.yul\":1167:1183   */\n      swap1\n      pop\n        /* \"#utility.yul\":1112:1189   */\n      swap2\n      swap1\n      pop\n      jump\t// out\n        /* \"#utility.yul\":1195:1317   */\n    tag_49:\n        /* \"#utility.yul\":1268:1292   */\n      tag_120\n        /* \"#utility.yul\":1286:1291   */\n      dup2\n        /* \"#utility.yul\":1268:1292   */\n      tag_48\n      jump\t// in\n    tag_120:\n        /* \"#utility.yul\":1261:1266   */\n      dup2\n        /* \"#utility.yul\":1258:1293   */\n      eq\n        /* \"#utility.yul\":1248:1311   */\n      tag_121\n      jumpi\n        /* \"#utility.yul\":1307:1308   */\n      0x00\n        /* \"#utility.yul\":1304:1305   */\n      dup1\n        /* \"#utility.yul\":1297:1309   */\n      revert\n        /* \"#utility.yul\":1248:1311   */\n    tag_121:\n        /* \"#utility.yul\":1195:1317   */\n      pop\n      jump\t// out\n        /* \"#utility.yul\":1323:1462   */\n    tag_50:\n        /* \"#utility.yul\":1369:1374   */\n      0x00\n        /* \"#utility.yul\":1407:1413   */\n      dup2\n        /* \"#utility.yul\":1394:1414   */\n      calldataload\n        /* \"#utility.yul\":1385:1414   */\n      swap1\n      pop\n        /* \"#utility.yul\":1423:1456   */\n      tag_123\n        /* \"#utility.yul\":1450:1455   */\n      dup2\n        /* \"#utility.yul\":1423:1456   */\n      tag_49\n      jump\t// in\n    tag_123:\n        /* \"#utility.yul\":1323:1462   */\n      swap3\n      swap2\n      pop\n      pop\n      jump\t// out\n        /* \"#utility.yul\":1468:1585   */\n    tag_51:\n        /* \"#utility.yul\":1577:1578   */\n      0x00\n        /* \"#utility.yul\":1574:1575   */\n      dup1\n        /* \"#utility.yul\":1567:1579   */\n      revert\n        /* \"#utility.yul\":1591:1708   */\n    tag_52:\n        /* \"#utility.yul\":1700:1701   */\n      0x00\n        /* \"#utility.yul\":1697:1698   */\n      dup1\n        /* \"#utility.yul\":1690:1702   */\n      revert\n        /* \"#utility.yul\":1714:1816   */\n    tag_53:\n        /* \"#utility.yul\":1755:1761   */\n      0x00\n        /* \"#utility.yul\":1806:1808   */\n      0x1f\n        /* \"#utility.yul\":1802:1809   */\n      not\n        /* \"#utility.yul\":1797:1799   */\n      0x1f\n        /* \"#utility.yul\":1790:1795   */\n      dup4\n        /* \"#utility.yul\":1786:1800   */\n      add\n        /* \"#utility.yul\":1782:1810   */\n      and\n        /* \"#utility.yul\":1772:1810   */\n      swap1\n      pop\n        /* \"#utility.yul\":1714:1816   */\n      swap2\n      swap1\n      pop\n      jump\t// out\n        /* \"#utility.yul\":1822:2002   */\n    tag_54:\n        /* \"#utility.yul\":1870:1947   */\n      0x4e487b7100000000000000000000000000000000000000000000000000000000\n        /* \"#utility.yul\":1867:1868   */\n      0x00\n        /* \"#utility.yul\":1860:1948   */\n      mstore\n        /* \"#utility.yul\":1967:1971   */\n      0x41\n        /* \"#utility.yul\":1964:1965   */\n      0x04\n        /* \"#utility.yul\":1957:1972   */\n      mstore\n        /* \"#utility.yul\":1991:1995   */\n      0x24\n        /* \"#utility.yul\":1988:1989   */\n      0x00\n        /* \"#utility.yul\":1981:1996   */\n      revert\n        /* \"#utility.yul\":2008:2289   */\n    tag_55:\n        /* \"#utility.yul\":2091:2118   */\n      tag_129\n        /* \"#utility.yul\":2113:2117   */\n      dup3\n        /* \"#utility.yul\":2091:2118   */\n      tag_53\n      jump\t// in\n    tag_129:\n        /* \"#utility.yul\":2083:2089   */\n      dup2\n        /* \"#utility.yul\":2079:2119   */\n      add\n        /* \"#utility.yul\":2221:2227   */\n      dup2\n        /* \"#utility.yul\":2209:2219   */\n      dup2\n        /* \"#utility.yul\":2206:2228   */\n      lt\n        /* \"#utility.yul\":2185:2203   */\n      0xffffffffffffffff\n        /* \"#utility.yul\":2173:2183   */\n      dup3\n        /* \"#utility.yul\":2170:2204   */\n      gt\n        /* \"#utility.yul\":2167:2229   */\n      or\n        /* \"#utility.yul\":2164:2252   */\n      iszero\n      tag_130\n      jumpi\n        /* \"#utility.yul\":2232:2250   */\n      tag_131\n      tag_54\n      jump\t// in\n    tag_131:\n        /* \"#utility.yul\":2164:2252   */\n    tag_130:\n        /* \"#utility.yul\":2272:2282   */\n      dup1\n        /* \"#utility.yul\":2268:2270   */\n      0x40\n        /* \"#utility.yul\":2261:2283   */\n      mstore\n        /* \"#utility.yul\":2051:2289   */\n      pop\n        /* \"#utility.yul\":2008:2289   */\n      pop\n      pop\n      jump\t// out\n        /* \"#utility.yul\":2295:2424   */\n    tag_56:\n        /* \"#utility.yul\":2329:2335   */\n      0x00\n        /* \"#utility.yul\":2356:2376   */\n      tag_133\n      tag_39\n      jump\t// in\n    tag_133:\n        /* \"#utility.yul\":2346:2376   */\n      swap1\n      pop\n        /* \"#utility.yul\":2385:2418   */\n      tag_134\n        /* \"#utility.yul\":2413:2417   */\n      dup3\n        /* \"#utility.yul\":2405:2411   */\n      dup3\n        /* \"#utility.yul\":2385:2418   */\n      tag_55\n      jump\t// in\n    tag_134:\n        /* \"#utility.yul\":2295:2424   */\n      swap2\n      swap1\n      pop\n      jump\t// out\n        /* \"#utility.yul\":2430:2738   */\n    tag_57:\n        /* \"#utility.yul\":2492:2496   */\n      0x00\n        /* \"#utility.yul\":2582:2600   */\n      0xffffffffffffffff\n        /* \"#utility.yul\":2574:2580   */\n      dup3\n        /* \"#utility.yul\":2571:2601   */\n      gt\n        /* \"#utility.yul\":2568:2624   */\n      iszero\n      tag_136\n      jumpi\n        /* \"#utility.yul\":2604:2622   */\n      tag_137\n      tag_54\n      jump\t// in\n    tag_137:\n        /* \"#utility.yul\":2568:2624   */\n    tag_136:\n        /* \"#utility.yul\":2642:2671   */\n      tag_138\n        /* \"#utility.yul\":2664:2670   */\n      dup3\n        /* \"#utility.yul\":2642:2671   */\n      tag_53\n      jump\t// in\n    tag_138:\n        /* \"#utility.yul\":2634:2671   */\n      swap1\n      pop\n        /* \"#utility.yul\":2726:2730   */\n      0x20\n        /* \"#utility.yul\":2720:2724   */\n      dup2\n        /* \"#utility.yul\":2716:2731   */\n      add\n        /* \"#utility.yul\":2708:2731   */\n      swap1\n      pop\n        /* \"#utility.yul\":2430:2738   */\n      swap2\n      swap1\n      pop\n      jump\t// out\n        /* \"#utility.yul\":2744:2892   */\n    tag_58:\n        /* \"#utility.yul\":2842:2848   */\n      dup3\n        /* \"#utility.yul\":2837:2840   */\n      dup2\n        /* \"#utility.yul\":2832:2835   */\n      dup4\n        /* \"#utility.yul\":2819:2849   */\n      calldatacopy\n        /* \"#utility.yul\":2883:2884   */\n      0x00\n        /* \"#utility.yul\":2874:2880   */\n      dup4\n        /* \"#utility.yul\":2869:2872   */\n      dup4\n        /* \"#utility.yul\":2865:2881   */\n      add\n        /* \"#utility.yul\":2858:2885   */\n      mstore\n        /* \"#utility.yul\":2744:2892   */\n      pop\n      pop\n      pop\n      jump\t// out\n        /* \"#utility.yul\":2898:3323   */\n    tag_59:\n        /* \"#utility.yul\":2976:2981   */\n      0x00\n        /* \"#utility.yul\":3001:3067   */\n      tag_141\n        /* \"#utility.yul\":3017:3066   */\n      tag_142\n        /* \"#utility.yul\":3059:3065   */\n      dup5\n        /* \"#utility.yul\":3017:3066   */\n      tag_57\n      jump\t// in\n    tag_142:\n        /* \"#utility.yul\":3001:3067   */\n      tag_56\n      jump\t// in\n    tag_141:\n        /* \"#utility.yul\":2992:3067   */\n      swap1\n      pop\n        /* \"#utility.yul\":3090:3096   */\n      dup3\n        /* \"#utility.yul\":3083:3088   */\n      dup2\n        /* \"#utility.yul\":3076:3097   */\n      mstore\n        /* \"#utility.yul\":3128:3132   */\n      0x20\n        /* \"#utility.yul\":3121:3126   */\n      dup2\n        /* \"#utility.yul\":3117:3133   */\n      add\n        /* \"#utility.yul\":3166:3169   */\n      dup5\n        /* \"#utility.yul\":3157:3163   */\n      dup5\n        /* \"#utility.yul\":3152:3155   */\n      dup5\n        /* \"#utility.yul\":3148:3164   */\n      add\n        /* \"#utility.yul\":3145:3170   */\n      gt\n        /* \"#utility.yul\":3142:3254   */\n      iszero\n      tag_143\n      jumpi\n        /* \"#utility.yul\":3173:3252   */\n      tag_144\n      tag_52\n      jump\t// in\n    tag_144:\n        /* \"#utility.yul\":3142:3254   */\n    tag_143:\n        /* \"#utility.yul\":3263:3317   */\n      tag_145\n        /* \"#utility.yul\":3310:3316   */\n      dup5\n        /* \"#utility.yul\":3305:3308   */\n      dup3\n        /* \"#utility.yul\":3300:3303   */\n      dup6\n        /* \"#utility.yul\":3263:3317   */\n      tag_58\n      jump\t// in\n    tag_145:\n        /* \"#utility.yul\":2982:3323   */\n      pop\n        /* \"#utility.yul\":2898:3323   */\n      swap4\n      swap3\n      pop\n      pop\n      pop\n      jump\t// out\n        /* \"#utility.yul\":3343:3683   */\n    tag_60:\n        /* \"#utility.yul\":3399:3404   */\n      0x00\n        /* \"#utility.yul\":3448:3451   */\n      dup3\n        /* \"#utility.yul\":3441:3445   */\n      0x1f\n        /* \"#utility.yul\":3433:3439   */\n      dup4\n        /* \"#utility.yul\":3429:3446   */\n      add\n        /* \"#utility.yul\":3425:3452   */\n      slt\n        /* \"#utility.yul\":3415:3537   */\n      tag_147\n      jumpi\n        /* \"#utility.yul\":3456:3535   */\n      tag_148\n      tag_51\n      jump\t// in\n    tag_148:\n        /* \"#utility.yul\":3415:3537   */\n    tag_147:\n        /* \"#utility.yul\":3573:3579   */\n      dup2\n        /* \"#utility.yul\":3560:3580   */\n      calldataload\n        /* \"#utility.yul\":3598:3677   */\n      tag_149\n        /* \"#utility.yul\":3673:3676   */\n      dup5\n        /* \"#utility.yul\":3665:3671   */\n      dup3\n        /* \"#utility.yul\":3658:3662   */\n      0x20\n        /* \"#utility.yul\":3650:3656   */\n      dup7\n        /* \"#utility.yul\":3646:3663   */\n      add\n        /* \"#utility.yul\":3598:3677   */\n      tag_59\n      jump\t// in\n    tag_149:\n        /* \"#utility.yul\":3589:3677   */\n      swap2\n      pop\n        /* \"#utility.yul\":3405:3683   */\n      pop\n        /* \"#utility.yul\":3343:3683   */\n      swap3\n      swap2\n      pop\n      pop\n      jump\t// out\n        /* \"#utility.yul\":3689:3766   */\n    tag_61:\n        /* \"#utility.yul\":3726:3733   */\n      0x00\n        /* \"#utility.yul\":3755:3760   */\n      dup2\n        /* \"#utility.yul\":3744:3760   */\n      swap1\n      pop\n        /* \"#utility.yul\":3689:3766   */\n      swap2\n      swap1\n      pop\n      jump\t// out\n        /* \"#utility.yul\":3772:3894   */\n    tag_62:\n        /* \"#utility.yul\":3845:3869   */\n      tag_152\n        /* \"#utility.yul\":3863:3868   */\n      dup2\n        /* \"#utility.yul\":3845:3869   */\n      tag_61\n      jump\t// in\n    tag_152:\n        /* \"#utility.yul\":3838:3843   */\n      dup2\n        /* \"#utility.yul\":3835:3870   */\n      eq\n        /* \"#utility.yul\":3825:3888   */\n      tag_153\n      jumpi\n        /* \"#utility.yul\":3884:3885   */\n      0x00\n        /* \"#utility.yul\":3881:3882   */\n      dup1\n        /* \"#utility.yul\":3874:3886   */\n      revert\n        /* \"#utility.yul\":3825:3888   */\n    tag_153:\n        /* \"#utility.yul\":3772:3894   */\n      pop\n      jump\t// out\n        /* \"#utility.yul\":3900:4039   */\n    tag_63:\n        /* \"#utility.yul\":3946:3951   */\n      0x00\n        /* \"#utility.yul\":3984:3990   */\n      dup2\n        /* \"#utility.yul\":3971:3991   */\n      calldataload\n        /* \"#utility.yul\":3962:3991   */\n      swap1\n      pop\n        /* \"#utility.yul\":4000:4033   */\n      tag_155\n        /* \"#utility.yul\":4027:4032   */\n      dup2\n        /* \"#utility.yul\":4000:4033   */\n      tag_62\n      jump\t// in\n    tag_155:\n        /* \"#utility.yul\":3900:4039   */\n      swap3\n      swap2\n      pop\n      pop\n      jump\t// out\n        /* \"#utility.yul\":4045:5150   */\n    tag_8:\n        /* \"#utility.yul\":4157:4163   */\n      0x00\n        /* \"#utility.yul\":4165:4171   */\n      dup1\n        /* \"#utility.yul\":4173:4179   */\n      0x00\n        /* \"#utility.yul\":4181:4187   */\n      dup1\n        /* \"#utility.yul\":4189:4195   */\n      0x00\n        /* \"#utility.yul\":4238:4241   */\n      0xa0\n        /* \"#utility.yul\":4226:4235   */\n      dup7\n        /* \"#utility.yul\":4217:4224   */\n      dup9\n        /* \"#utility.yul\":4213:4236   */\n      sub\n        /* \"#utility.yul\":4209:4242   */\n      slt\n        /* \"#utility.yul\":4206:4326   */\n      iszero\n      tag_157\n      jumpi\n        /* \"#utility.yul\":4245:4324   */\n      tag_158\n      tag_40\n      jump\t// in\n    tag_158:\n        /* \"#utility.yul\":4206:4326   */\n    tag_157:\n        /* \"#utility.yul\":4365:4366   */\n      0x00\n        /* \"#utility.yul\":4390:4443   */\n      tag_159\n        /* \"#utility.yul\":4435:4442   */\n      dup9\n        /* \"#utility.yul\":4426:4432   */\n      dup3\n        /* \"#utility.yul\":4415:4424   */\n      dup10\n        /* \"#utility.yul\":4411:4433   */\n      add\n        /* \"#utility.yul\":4390:4443   */\n      tag_45\n      jump\t// in\n    tag_159:\n        /* \"#utility.yul\":4380:4443   */\n      swap6\n      pop\n        /* \"#utility.yul\":4336:4453   */\n      pop\n        /* \"#utility.yul\":4492:4494   */\n      0x20\n        /* \"#utility.yul\":4518:4578   */\n      tag_160\n        /* \"#utility.yul\":4570:4577   */\n      dup9\n        /* \"#utility.yul\":4561:4567   */\n      dup3\n        /* \"#utility.yul\":4550:4559   */\n      dup10\n        /* \"#utility.yul\":4546:4568   */\n      add\n        /* \"#utility.yul\":4518:4578   */\n      tag_47\n      jump\t// in\n    tag_160:\n        /* \"#utility.yul\":4508:4578   */\n      swap5\n      pop\n        /* \"#utility.yul\":4463:4588   */\n      pop\n        /* \"#utility.yul\":4627:4629   */\n      0x40\n        /* \"#utility.yul\":4653:4706   */\n      tag_161\n        /* \"#utility.yul\":4698:4705   */\n      dup9\n        /* \"#utility.yul\":4689:4695   */\n      dup3\n        /* \"#utility.yul\":4678:4687   */\n      dup10\n        /* \"#utility.yul\":4674:4696   */\n      add\n        /* \"#utility.yul\":4653:4706   */\n      tag_50\n      jump\t// in\n    tag_161:\n        /* \"#utility.yul\":4643:4706   */\n      swap4\n      pop\n        /* \"#utility.yul\":4598:4716   */\n      pop\n        /* \"#utility.yul\":4783:4785   */\n      0x60\n        /* \"#utility.yul\":4772:4781   */\n      dup7\n        /* \"#utility.yul\":4768:4786   */\n      add\n        /* \"#utility.yul\":4755:4787   */\n      calldataload\n        /* \"#utility.yul\":4814:4832   */\n      0xffffffffffffffff\n        /* \"#utility.yul\":4806:4812   */\n      dup2\n        /* \"#utility.yul\":4803:4833   */\n      gt\n        /* \"#utility.yul\":4800:4917   */\n      iszero\n      tag_162\n      jumpi\n        /* \"#utility.yul\":4836:4915   */\n      tag_163\n      tag_41\n      jump\t// in\n    tag_163:\n        /* \"#utility.yul\":4800:4917   */\n    tag_162:\n        /* \"#utility.yul\":4941:5004   */\n      tag_164\n        /* \"#utility.yul\":4996:5003   */\n      dup9\n        /* \"#utility.yul\":4987:4993   */\n      dup3\n        /* \"#utility.yul\":4976:4985   */\n      dup10\n        /* \"#utility.yul\":4972:4994   */\n      add\n        /* \"#utility.yul\":4941:5004   */\n      tag_60\n      jump\t// in\n    tag_164:\n        /* \"#utility.yul\":4931:5004   */\n      swap3\n      pop\n        /* \"#utility.yul\":4726:5014   */\n      pop\n        /* \"#utility.yul\":5053:5056   */\n      0x80\n        /* \"#utility.yul\":5080:5133   */\n      tag_165\n        /* \"#utility.yul\":5125:5132   */\n      dup9\n        /* \"#utility.yul\":5116:5122   */\n      dup3\n        /* \"#utility.yul\":5105:5114   */\n      dup10\n        /* \"#utility.yul\":5101:5123   */\n      add\n        /* \"#utility.yul\":5080:5133   */\n      tag_63\n      jump\t// in\n    tag_165:\n        /* \"#utility.yul\":5070:5133   */\n      swap2\n      pop\n        /* \"#utility.yul\":5024:5143   */\n      pop\n        /* \"#utility.yul\":4045:5150   */\n      swap3\n      swap6\n      pop\n      swap3\n      swap6\n      swap1\n      swap4\n      pop\n      jump\t// out\n        /* \"#utility.yul\":5156:5216   */\n    tag_64:\n        /* \"#utility.yul\":5184:5187   */\n      0x00\n        /* \"#utility.yul\":5205:5210   */\n      dup2\n        /* \"#utility.yul\":5198:5210   */\n      swap1\n      pop\n        /* \"#utility.yul\":5156:5216   */\n      swap2\n      swap1\n      pop\n      jump\t// out\n        /* \"#utility.yul\":5222:5364   */\n    tag_65:\n        /* \"#utility.yul\":5272:5281   */\n      0x00\n        /* \"#utility.yul\":5305:5358   */\n      tag_168\n        /* \"#utility.yul\":5323:5357   */\n      tag_169\n        /* \"#utility.yul\":5332:5356   */\n      tag_170\n        /* \"#utility.yul\":5350:5355   */\n      dup5\n        /* \"#utility.yul\":5332:5356   */\n      tag_42\n      jump\t// in\n    tag_170:\n        /* \"#utility.yul\":5323:5357   */\n      tag_64\n      jump\t// in\n    tag_169:\n        /* \"#utility.yul\":5305:5358   */\n      tag_42\n      jump\t// in\n    tag_168:\n        /* \"#utility.yul\":5292:5358   */\n      swap1\n      pop\n        /* \"#utility.yul\":5222:5364   */\n      swap2\n      swap1\n      pop\n      jump\t// out\n        /* \"#utility.yul\":5370:5496   */\n    tag_66:\n        /* \"#utility.yul\":5420:5429   */\n      0x00\n        /* \"#utility.yul\":5453:5490   */\n      tag_172\n        /* \"#utility.yul\":5484:5489   */\n      dup3\n        /* \"#utility.yul\":5453:5490   */\n      tag_65\n      jump\t// in\n    tag_172:\n        /* \"#utility.yul\":5440:5490   */\n      swap1\n      pop\n        /* \"#utility.yul\":5370:5496   */\n      swap2\n      swap1\n      pop\n      jump\t// out\n        /* \"#utility.yul\":5502:5648   */\n    tag_67:\n        /* \"#utility.yul\":5572:5581   */\n      0x00\n        /* \"#utility.yul\":5605:5642   */\n      tag_174\n        /* \"#utility.yul\":5636:5641   */\n      dup3\n        /* \"#utility.yul\":5605:5642   */\n      tag_66\n      jump\t// in\n    tag_174:\n        /* \"#utility.yul\":5592:5642   */\n      swap1\n      pop\n        /* \"#utility.yul\":5502:5648   */\n      swap2\n      swap1\n      pop\n      jump\t// out\n        /* \"#utility.yul\":5654:5825   */\n    tag_68:\n        /* \"#utility.yul\":5761:5818   */\n      tag_176\n        /* \"#utility.yul\":5812:5817   */\n      dup2\n        /* \"#utility.yul\":5761:5818   */\n      tag_67\n      jump\t// in\n    tag_176:\n        /* \"#utility.yul\":5756:5759   */\n      dup3\n        /* \"#utility.yul\":5749:5819   */\n      mstore\n        /* \"#utility.yul\":5654:5825   */\n      pop\n      pop\n      jump\t// out\n        /* \"#utility.yul\":5831:6093   */\n    tag_13:\n        /* \"#utility.yul\":5944:5948   */\n      0x00\n        /* \"#utility.yul\":5982:5984   */\n      0x20\n        /* \"#utility.yul\":5971:5980   */\n      dup3\n        /* \"#utility.yul\":5967:5985   */\n      add\n        /* \"#utility.yul\":5959:5985   */\n      swap1\n      pop\n        /* \"#utility.yul\":5995:6086   */\n      tag_178\n        /* \"#utility.yul\":6083:6084   */\n      0x00\n        /* \"#utility.yul\":6072:6081   */\n      dup4\n        /* \"#utility.yul\":6068:6085   */\n      add\n        /* \"#utility.yul\":6059:6065   */\n      dup5\n        /* \"#utility.yul\":5995:6086   */\n      tag_68\n      jump\t// in\n    tag_178:\n        /* \"#utility.yul\":5831:6093   */\n      swap3\n      swap2\n      pop\n      pop\n      jump\t// out\n        /* \"#utility.yul\":6099:6244   */\n    tag_69:\n        /* \"#utility.yul\":6168:6177   */\n      0x00\n        /* \"#utility.yul\":6201:6238   */\n      tag_180\n        /* \"#utility.yul\":6232:6237   */\n      dup3\n        /* \"#utility.yul\":6201:6238   */\n      tag_66\n      jump\t// in\n    tag_180:\n        /* \"#utility.yul\":6188:6238   */\n      swap1\n      pop\n        /* \"#utility.yul\":6099:6244   */\n      swap2\n      swap1\n      pop\n      jump\t// out\n        /* \"#utility.yul\":6250:6419   */\n    tag_70:\n        /* \"#utility.yul\":6356:6412   */\n      tag_182\n        /* \"#utility.yul\":6406:6411   */\n      dup2\n        /* \"#utility.yul\":6356:6412   */\n      tag_69\n      jump\t// in\n    tag_182:\n        /* \"#utility.yul\":6351:6354   */\n      dup3\n        /* \"#utility.yul\":6344:6413   */\n      mstore\n        /* \"#utility.yul\":6250:6419   */\n      pop\n      pop\n      jump\t// out\n        /* \"#utility.yul\":6425:6685   */\n    tag_17:\n        /* \"#utility.yul\":6537:6541   */\n      0x00\n        /* \"#utility.yul\":6575:6577   */\n      0x20\n        /* \"#utility.yul\":6564:6573   */\n      dup3\n        /* \"#utility.yul\":6560:6578   */\n      add\n        /* \"#utility.yul\":6552:6578   */\n      swap1\n      pop\n        /* \"#utility.yul\":6588:6678   */\n      tag_184\n        /* \"#utility.yul\":6675:6676   */\n      0x00\n        /* \"#utility.yul\":6664:6673   */\n      dup4\n        /* \"#utility.yul\":6660:6677   */\n      add\n        /* \"#utility.yul\":6651:6657   */\n      dup5\n        /* \"#utility.yul\":6588:6678   */\n      tag_70\n      jump\t// in\n    tag_184:\n        /* \"#utility.yul\":6425:6685   */\n      swap3\n      swap2\n      pop\n      pop\n      jump\t// out\n        /* \"#utility.yul\":6691:6809   */\n    tag_71:\n        /* \"#utility.yul\":6778:6802   */\n      tag_186\n        /* \"#utility.yul\":6796:6801   */\n      dup2\n        /* \"#utility.yul\":6778:6802   */\n      tag_43\n      jump\t// in\n    tag_186:\n        /* \"#utility.yul\":6773:6776   */\n      dup3\n        /* \"#utility.yul\":6766:6803   */\n      mstore\n        /* \"#utility.yul\":6691:6809   */\n      pop\n      pop\n      jump\t// out\n        /* \"#utility.yul\":6815:6914   */\n    tag_72:\n        /* \"#utility.yul\":6867:6873   */\n      0x00\n        /* \"#utility.yul\":6901:6906   */\n      dup2\n        /* \"#utility.yul\":6895:6907   */\n      mload\n        /* \"#utility.yul\":6885:6907   */\n      swap1\n      pop\n        /* \"#utility.yul\":6815:6914   */\n      swap2\n      swap1\n      pop\n      jump\t// out\n        /* \"#utility.yul\":6920:7089   */\n    tag_73:\n        /* \"#utility.yul\":7004:7015   */\n      0x00\n        /* \"#utility.yul\":7038:7044   */\n      dup3\n        /* \"#utility.yul\":7033:7036   */\n      dup3\n        /* \"#utility.yul\":7026:7045   */\n      mstore\n        /* \"#utility.yul\":7078:7082   */\n      0x20\n        /* \"#utility.yul\":7073:7076   */\n      dup3\n        /* \"#utility.yul\":7069:7083   */\n      add\n        /* \"#utility.yul\":7054:7083   */\n      swap1\n      pop\n        /* \"#utility.yul\":6920:7089   */\n      swap3\n      swap2\n      pop\n      pop\n      jump\t// out\n        /* \"#utility.yul\":7095:7234   */\n    tag_74:\n        /* \"#utility.yul\":7184:7190   */\n      dup3\n        /* \"#utility.yul\":7179:7182   */\n      dup2\n        /* \"#utility.yul\":7174:7177   */\n      dup4\n        /* \"#utility.yul\":7168:7191   */\n      mcopy\n        /* \"#utility.yul\":7225:7226   */\n      0x00\n        /* \"#utility.yul\":7216:7222   */\n      dup4\n        /* \"#utility.yul\":7211:7214   */\n      dup4\n        /* \"#utility.yul\":7207:7223   */\n      add\n        /* \"#utility.yul\":7200:7227   */\n      mstore\n        /* \"#utility.yul\":7095:7234   */\n      pop\n      pop\n      pop\n      jump\t// out\n        /* \"#utility.yul\":7240:7617   */\n    tag_75:\n        /* \"#utility.yul\":7328:7331   */\n      0x00\n        /* \"#utility.yul\":7356:7395   */\n      tag_191\n        /* \"#utility.yul\":7389:7394   */\n      dup3\n        /* \"#utility.yul\":7356:7395   */\n      tag_72\n      jump\t// in\n    tag_191:\n        /* \"#utility.yul\":7411:7482   */\n      tag_192\n        /* \"#utility.yul\":7475:7481   */\n      dup2\n        /* \"#utility.yul\":7470:7473   */\n      dup6\n        /* \"#utility.yul\":7411:7482   */\n      tag_73\n      jump\t// in\n    tag_192:\n        /* \"#utility.yul\":7404:7482   */\n      swap4\n      pop\n        /* \"#utility.yul\":7491:7556   */\n      tag_193\n        /* \"#utility.yul\":7549:7555   */\n      dup2\n        /* \"#utility.yul\":7544:7547   */\n      dup6\n        /* \"#utility.yul\":7537:7541   */\n      0x20\n        /* \"#utility.yul\":7530:7535   */\n      dup7\n        /* \"#utility.yul\":7526:7542   */\n      add\n        /* \"#utility.yul\":7491:7556   */\n      tag_74\n      jump\t// in\n    tag_193:\n        /* \"#utility.yul\":7581:7610   */\n      tag_194\n        /* \"#utility.yul\":7603:7609   */\n      dup2\n        /* \"#utility.yul\":7581:7610   */\n      tag_53\n      jump\t// in\n    tag_194:\n        /* \"#utility.yul\":7576:7579   */\n      dup5\n        /* \"#utility.yul\":7572:7611   */\n      add\n        /* \"#utility.yul\":7565:7611   */\n      swap2\n      pop\n        /* \"#utility.yul\":7332:7617   */\n      pop\n        /* \"#utility.yul\":7240:7617   */\n      swap3\n      swap2\n      pop\n      pop\n      jump\t// out\n        /* \"#utility.yul\":7623:8046   */\n    tag_20:\n        /* \"#utility.yul\":7764:7768   */\n      0x00\n        /* \"#utility.yul\":7802:7804   */\n      0x40\n        /* \"#utility.yul\":7791:7800   */\n      dup3\n        /* \"#utility.yul\":7787:7805   */\n      add\n        /* \"#utility.yul\":7779:7805   */\n      swap1\n      pop\n        /* \"#utility.yul\":7815:7886   */\n      tag_196\n        /* \"#utility.yul\":7883:7884   */\n      0x00\n        /* \"#utility.yul\":7872:7881   */\n      dup4\n        /* \"#utility.yul\":7868:7885   */\n      add\n        /* \"#utility.yul\":7859:7865   */\n      dup6\n        /* \"#utility.yul\":7815:7886   */\n      tag_71\n      jump\t// in\n    tag_196:\n        /* \"#utility.yul\":7933:7942   */\n      dup2\n        /* \"#utility.yul\":7927:7931   */\n      dup2\n        /* \"#utility.yul\":7923:7943   */\n      sub\n        /* \"#utility.yul\":7918:7920   */\n      0x20\n        /* \"#utility.yul\":7907:7916   */\n      dup4\n        /* \"#utility.yul\":7903:7921   */\n      add\n        /* \"#utility.yul\":7896:7944   */\n      mstore\n        /* \"#utility.yul\":7961:8039   */\n      tag_197\n        /* \"#utility.yul\":8034:8038   */\n      dup2\n        /* \"#utility.yul\":8025:8031   */\n      dup5\n        /* \"#utility.yul\":7961:8039   */\n      tag_75\n      jump\t// in\n    tag_197:\n        /* \"#utility.yul\":7953:8039   */\n      swap1\n      pop\n        /* \"#utility.yul\":7623:8046   */\n      swap4\n      swap3\n      pop\n      pop\n      pop\n      jump\t// out\n        /* \"#utility.yul\":8052:8142   */\n    tag_76:\n        /* \"#utility.yul\":8086:8093   */\n      0x00\n        /* \"#utility.yul\":8129:8134   */\n      dup2\n        /* \"#utility.yul\":8122:8135   */\n      iszero\n        /* \"#utility.yul\":8115:8136   */\n      iszero\n        /* \"#utility.yul\":8104:8136   */\n      swap1\n      pop\n        /* \"#utility.yul\":8052:8142   */\n      swap2\n      swap1\n      pop\n      jump\t// out\n        /* \"#utility.yul\":8148:8264   */\n    tag_77:\n        /* \"#utility.yul\":8218:8239   */\n      tag_200\n        /* \"#utility.yul\":8233:8238   */\n      dup2\n        /* \"#utility.yul\":8218:8239   */\n      tag_76\n      jump\t// in\n    tag_200:\n        /* \"#utility.yul\":8211:8216   */\n      dup2\n        /* \"#utility.yul\":8208:8240   */\n      eq\n        /* \"#utility.yul\":8198:8258   */\n      tag_201\n      jumpi\n        /* \"#utility.yul\":8254:8255   */\n      0x00\n        /* \"#utility.yul\":8251:8252   */\n      dup1\n        /* \"#utility.yul\":8244:8256   */\n      revert\n        /* \"#utility.yul\":8198:8258   */\n    tag_201:\n        /* \"#utility.yul\":8148:8264   */\n      pop\n      jump\t// out\n        /* \"#utility.yul\":8270:8407   */\n    tag_78:\n        /* \"#utility.yul\":8324:8329   */\n      0x00\n        /* \"#utility.yul\":8355:8361   */\n      dup2\n        /* \"#utility.yul\":8349:8362   */\n      mload\n        /* \"#utility.yul\":8340:8362   */\n      swap1\n      pop\n        /* \"#utility.yul\":8371:8401   */\n      tag_203\n        /* \"#utility.yul\":8395:8400   */\n      dup2\n        /* \"#utility.yul\":8371:8401   */\n      tag_77\n      jump\t// in\n    tag_203:\n        /* \"#utility.yul\":8270:8407   */\n      swap3\n      swap2\n      pop\n      pop\n      jump\t// out\n        /* \"#utility.yul\":8413:8758   */\n    tag_24:\n        /* \"#utility.yul\":8480:8486   */\n      0x00\n        /* \"#utility.yul\":8529:8531   */\n      0x20\n        /* \"#utility.yul\":8517:8526   */\n      dup3\n        /* \"#utility.yul\":8508:8515   */\n      dup5\n        /* \"#utility.yul\":8504:8527   */\n      sub\n        /* \"#utility.yul\":8500:8532   */\n      slt\n        /* \"#utility.yul\":8497:8616   */\n      iszero\n      tag_205\n      jumpi\n        /* \"#utility.yul\":8535:8614   */\n      tag_206\n      tag_40\n      jump\t// in\n    tag_206:\n        /* \"#utility.yul\":8497:8616   */\n    tag_205:\n        /* \"#utility.yul\":8655:8656   */\n      0x00\n        /* \"#utility.yul\":8680:8741   */\n      tag_207\n        /* \"#utility.yul\":8733:8740   */\n      dup5\n        /* \"#utility.yul\":8724:8730   */\n      dup3\n        /* \"#utility.yul\":8713:8722   */\n      dup6\n        /* \"#utility.yul\":8709:8731   */\n      add\n        /* \"#utility.yul\":8680:8741   */\n      tag_78\n      jump\t// in\n    tag_207:\n        /* \"#utility.yul\":8670:8741   */\n      swap2\n      pop\n        /* \"#utility.yul\":8626:8751   */\n      pop\n        /* \"#utility.yul\":8413:8758   */\n      swap3\n      swap2\n      pop\n      pop\n      jump\t// out\n        /* \"#utility.yul\":8764:8933   */\n    tag_79:\n        /* \"#utility.yul\":8904:8925   */\n      0x496e76616c69642044494420636f6e74726f6c00000000000000000000000000\n        /* \"#utility.yul\":8900:8901   */\n      0x00\n        /* \"#utility.yul\":8892:8898   */\n      dup3\n        /* \"#utility.yul\":8888:8902   */\n      add\n        /* \"#utility.yul\":8881:8926   */\n      mstore\n        /* \"#utility.yul\":8764:8933   */\n      pop\n      jump\t// out\n        /* \"#utility.yul\":8939:9305   */\n    tag_80:\n        /* \"#utility.yul\":9081:9084   */\n      0x00\n        /* \"#utility.yul\":9102:9169   */\n      tag_210\n        /* \"#utility.yul\":9166:9168   */\n      0x13\n        /* \"#utility.yul\":9161:9164   */\n      dup4\n        /* \"#utility.yul\":9102:9169   */\n      tag_73\n      jump\t// in\n    tag_210:\n        /* \"#utility.yul\":9095:9169   */\n      swap2\n      pop\n        /* \"#utility.yul\":9178:9271   */\n      tag_211\n        /* \"#utility.yul\":9267:9270   */\n      dup3\n        /* \"#utility.yul\":9178:9271   */\n      tag_79\n      jump\t// in\n    tag_211:\n        /* \"#utility.yul\":9296:9298   */\n      0x20\n        /* \"#utility.yul\":9291:9294   */\n      dup3\n        /* \"#utility.yul\":9287:9299   */\n      add\n        /* \"#utility.yul\":9280:9299   */\n      swap1\n      pop\n        /* \"#utility.yul\":8939:9305   */\n      swap2\n      swap1\n      pop\n      jump\t// out\n        /* \"#utility.yul\":9311:9730   */\n    tag_27:\n        /* \"#utility.yul\":9477:9481   */\n      0x00\n        /* \"#utility.yul\":9515:9517   */\n      0x20\n        /* \"#utility.yul\":9504:9513   */\n      dup3\n        /* \"#utility.yul\":9500:9518   */\n      add\n        /* \"#utility.yul\":9492:9518   */\n      swap1\n      pop\n        /* \"#utility.yul\":9564:9573   */\n      dup2\n        /* \"#utility.yul\":9558:9562   */\n      dup2\n        /* \"#utility.yul\":9554:9574   */\n      sub\n        /* \"#utility.yul\":9550:9551   */\n      0x00\n        /* \"#utility.yul\":9539:9548   */\n      dup4\n        /* \"#utility.yul\":9535:9552   */\n      add\n        /* \"#utility.yul\":9528:9575   */\n      mstore\n        /* \"#utility.yul\":9592:9723   */\n      tag_213\n        /* \"#utility.yul\":9718:9722   */\n      dup2\n        /* \"#utility.yul\":9592:9723   */\n      tag_80\n      jump\t// in\n    tag_213:\n        /* \"#utility.yul\":9584:9723   */\n      swap1\n      pop\n        /* \"#utility.yul\":9311:9730   */\n      swap2\n      swap1\n      pop\n      jump\t// out\n        /* \"#utility.yul\":9736:9916   */\n    tag_30:\n        /* \"#utility.yul\":9784:9861   */\n      0x4e487b7100000000000000000000000000000000000000000000000000000000\n        /* \"#utility.yul\":9781:9782   */\n      0x00\n        /* \"#utility.yul\":9774:9862   */\n      mstore\n        /* \"#utility.yul\":9881:9885   */\n      0x21\n        /* \"#utility.yul\":9878:9879   */\n      0x04\n        /* \"#utility.yul\":9871:9886   */\n      mstore\n        /* \"#utility.yul\":9905:9909   */\n      0x24\n        /* \"#utility.yul\":9902:9903   */\n      0x00\n        /* \"#utility.yul\":9895:9910   */\n      revert\n        /* \"#utility.yul\":9922:10102   */\n    tag_81:\n        /* \"#utility.yul\":9970:10047   */\n      0x4e487b7100000000000000000000000000000000000000000000000000000000\n        /* \"#utility.yul\":9967:9968   */\n      0x00\n        /* \"#utility.yul\":9960:10048   */\n      mstore\n        /* \"#utility.yul\":10067:10071   */\n      0x11\n        /* \"#utility.yul\":10064:10065   */\n      0x04\n        /* \"#utility.yul\":10057:10072   */\n      mstore\n        /* \"#utility.yul\":10091:10095   */\n      0x24\n        /* \"#utility.yul\":10088:10089   */\n      0x00\n        /* \"#utility.yul\":10081:10096   */\n      revert\n        /* \"#utility.yul\":10108:10299   */\n    tag_32:\n        /* \"#utility.yul\":10148:10151   */\n      0x00\n        /* \"#utility.yul\":10167:10187   */\n      tag_217\n        /* \"#utility.yul\":10185:10186   */\n      dup3\n        /* \"#utility.yul\":10167:10187   */\n      tag_61\n      jump\t// in\n    tag_217:\n        /* \"#utility.yul\":10162:10187   */\n      swap2\n      pop\n        /* \"#utility.yul\":10201:10221   */\n      tag_218\n        /* \"#utility.yul\":10219:10220   */\n      dup4\n        /* \"#utility.yul\":10201:10221   */\n      tag_61\n      jump\t// in\n    tag_218:\n        /* \"#utility.yul\":10196:10221   */\n      swap3\n      pop\n        /* \"#utility.yul\":10244:10245   */\n      dup3\n        /* \"#utility.yul\":10241:10242   */\n      dup3\n        /* \"#utility.yul\":10237:10246   */\n      add\n        /* \"#utility.yul\":10230:10246   */\n      swap1\n      pop\n        /* \"#utility.yul\":10265:10268   */\n      dup1\n        /* \"#utility.yul\":10262:10263   */\n      dup3\n        /* \"#utility.yul\":10259:10269   */\n      gt\n        /* \"#utility.yul\":10256:10292   */\n      iszero\n      tag_219\n      jumpi\n        /* \"#utility.yul\":10272:10290   */\n      tag_220\n      tag_81\n      jump\t// in\n    tag_220:\n        /* \"#utility.yul\":10256:10292   */\n    tag_219:\n        /* \"#utility.yul\":10108:10299   */\n      swap3\n      swap2\n      pop\n      pop\n      jump\t// out\n        /* \"#utility.yul\":10305:10485   */\n    tag_82:\n        /* \"#utility.yul\":10353:10430   */\n      0x4e487b7100000000000000000000000000000000000000000000000000000000\n        /* \"#utility.yul\":10350:10351   */\n      0x00\n        /* \"#utility.yul\":10343:10431   */\n      mstore\n        /* \"#utility.yul\":10450:10454   */\n      0x22\n        /* \"#utility.yul\":10447:10448   */\n      0x04\n        /* \"#utility.yul\":10440:10455   */\n      mstore\n        /* \"#utility.yul\":10474:10478   */\n      0x24\n        /* \"#utility.yul\":10471:10472   */\n      0x00\n        /* \"#utility.yul\":10464:10479   */\n      revert\n        /* \"#utility.yul\":10491:10811   */\n    tag_83:\n        /* \"#utility.yul\":10535:10541   */\n      0x00\n        /* \"#utility.yul\":10572:10573   */\n      0x02\n        /* \"#utility.yul\":10566:10570   */\n      dup3\n        /* \"#utility.yul\":10562:10574   */\n      div\n        /* \"#utility.yul\":10552:10574   */\n      swap1\n      pop\n        /* \"#utility.yul\":10619:10620   */\n      0x01\n        /* \"#utility.yul\":10613:10617   */\n      dup3\n        /* \"#utility.yul\":10609:10621   */\n      and\n        /* \"#utility.yul\":10640:10658   */\n      dup1\n        /* \"#utility.yul\":10630:10711   */\n      tag_223\n      jumpi\n        /* \"#utility.yul\":10696:10700   */\n      0x7f\n        /* \"#utility.yul\":10688:10694   */\n      dup3\n        /* \"#utility.yul\":10684:10701   */\n      and\n        /* \"#utility.yul\":10674:10701   */\n      swap2\n      pop\n        /* \"#utility.yul\":10630:10711   */\n    tag_223:\n        /* \"#utility.yul\":10758:10760   */\n      0x20\n        /* \"#utility.yul\":10750:10756   */\n      dup3\n        /* \"#utility.yul\":10747:10761   */\n      lt\n        /* \"#utility.yul\":10727:10745   */\n      dup2\n        /* \"#utility.yul\":10724:10762   */\n      sub\n        /* \"#utility.yul\":10721:10805   */\n      tag_224\n      jumpi\n        /* \"#utility.yul\":10777:10795   */\n      tag_225\n      tag_82\n      jump\t// in\n    tag_225:\n        /* \"#utility.yul\":10721:10805   */\n    tag_224:\n        /* \"#utility.yul\":10542:10811   */\n      pop\n        /* \"#utility.yul\":10491:10811   */\n      swap2\n      swap1\n      pop\n      jump\t// out\n        /* \"#utility.yul\":10817:10958   */\n    tag_84:\n        /* \"#utility.yul\":10866:10870   */\n      0x00\n        /* \"#utility.yul\":10889:10892   */\n      dup2\n        /* \"#utility.yul\":10881:10892   */\n      swap1\n      pop\n        /* \"#utility.yul\":10912:10915   */\n      dup2\n        /* \"#utility.yul\":10909:10910   */\n      0x00\n        /* \"#utility.yul\":10902:10916   */\n      mstore\n        /* \"#utility.yul\":10946:10950   */\n      0x20\n        /* \"#utility.yul\":10943:10944   */\n      0x00\n        /* \"#utility.yul\":10933:10951   */\n      keccak256\n        /* \"#utility.yul\":10925:10951   */\n      swap1\n      pop\n        /* \"#utility.yul\":10817:10958   */\n      swap2\n      swap1\n      pop\n      jump\t// out\n        /* \"#utility.yul\":10964:11057   */\n    tag_85:\n        /* \"#utility.yul\":11001:11007   */\n      0x00\n        /* \"#utility.yul\":11048:11050   */\n      0x20\n        /* \"#utility.yul\":11043:11045   */\n      0x1f\n        /* \"#utility.yul\":11036:11041   */\n      dup4\n        /* \"#utility.yul\":11032:11046   */\n      add\n        /* \"#utility.yul\":11028:11051   */\n      div\n        /* \"#utility.yul\":11018:11051   */\n      swap1\n      pop\n        /* \"#utility.yul\":10964:11057   */\n      swap2\n      swap1\n      pop\n      jump\t// out\n        /* \"#utility.yul\":11063:11170   */\n    tag_86:\n        /* \"#utility.yul\":11107:11115   */\n      0x00\n        /* \"#utility.yul\":11157:11162   */\n      dup3\n        /* \"#utility.yul\":11151:11155   */\n      dup3\n        /* \"#utility.yul\":11147:11163   */\n      shl\n        /* \"#utility.yul\":11126:11163   */\n      swap1\n      pop\n        /* \"#utility.yul\":11063:11170   */\n      swap3\n      swap2\n      pop\n      pop\n      jump\t// out\n        /* \"#utility.yul\":11176:11569   */\n    tag_87:\n        /* \"#utility.yul\":11245:11251   */\n      0x00\n        /* \"#utility.yul\":11295:11296   */\n      0x08\n        /* \"#utility.yul\":11283:11293   */\n      dup4\n        /* \"#utility.yul\":11279:11297   */\n      mul\n        /* \"#utility.yul\":11318:11415   */\n      tag_230\n        /* \"#utility.yul\":11348:11414   */\n      0xffffffffffffffffffffffffffffffffffffffffffffffffffffffffffffffff\n        /* \"#utility.yul\":11337:11346   */\n      dup3\n        /* \"#utility.yul\":11318:11415   */\n      tag_86\n      jump\t// in\n    tag_230:\n        /* \"#utility.yul\":11436:11475   */\n      tag_231\n        /* \"#utility.yul\":11466:11474   */\n      dup7\n        /* \"#utility.yul\":11455:11464   */\n      dup4\n        /* \"#utility.yul\":11436:11475   */\n      tag_86\n      jump\t// in\n    tag_231:\n        /* \"#utility.yul\":11424:11475   */\n      swap6\n      pop\n        /* \"#utility.yul\":11508:11512   */\n      dup1\n        /* \"#utility.yul\":11504:11513   */\n      not\n        /* \"#utility.yul\":11497:11502   */\n      dup5\n        /* \"#utility.yul\":11493:11514   */\n      and\n        /* \"#utility.yul\":11484:11514   */\n      swap4\n      pop\n        /* \"#utility.yul\":11557:11561   */\n      dup1\n        /* \"#utility.yul\":11547:11555   */\n      dup7\n        /* \"#utility.yul\":11543:11562   */\n      and\n        /* \"#utility.yul\":11536:11541   */\n      dup5\n        /* \"#utility.yul\":11533:11563   */\n      or\n        /* \"#utility.yul\":11523:11563   */\n      swap3\n      pop\n        /* \"#utility.yul\":11252:11569   */\n      pop\n      pop\n        /* \"#utility.yul\":11176:11569   */\n      swap4\n      swap3\n      pop\n      pop\n      pop\n      jump\t// out\n        /* \"#utility.yul\":11575:11717   */\n    tag_88:\n        /* \"#utility.yul\":11625:11634   */\n      0x00\n        /* \"#utility.yul\":11658:11711   */\n      tag_233\n        /* \"#utility.yul\":11676:11710   */\n      tag_234\n        /* \"#utility.yul\":11685:11709   */\n      tag_235\n        /* \"#utility.yul\":11703:11708   */\n      dup5\n        /* \"#utility.yul\":11685:11709   */\n      tag_61\n      jump\t// in\n    tag_235:\n        /* \"#utility.yul\":11676:11710   */\n      tag_64\n      jump\t// in\n    tag_234:\n        /* \"#utility.yul\":11658:11711   */\n      tag_61\n      jump\t// in\n    tag_233:\n        /* \"#utility.yul\":11645:11711   */\n      swap1\n      pop\n        /* \"#utility.yul\":11575:11717   */\n      swap2\n      swap1\n      pop\n      jump\t// out\n        /* \"#utility.yul\":11723:11798   */\n    tag_89:\n        /* \"#utility.yul\":11766:11769   */\n      0x00\n        /* \"#utility.yul\":11787:11792   */\n      dup2\n        /* \"#utility.yul\":11780:11792   */\n      swap1\n      pop\n        /* \"#utility.yul\":11723:11798   */\n      swap2\n      swap1\n      pop\n      jump\t// out\n        /* \"#utility.yul\":11804:12073   */\n    tag_90:\n        /* \"#utility.yul\":11914:11953   */\n      tag_238\n        /* \"#utility.yul\":11945:11952   */\n      dup4\n        /* \"#utility.yul\":11914:11953   */\n      tag_88\n      jump\t// in\n    tag_238:\n        /* \"#utility.yul\":11975:12066   */\n      tag_239\n        /* \"#utility.yul\":12024:12065   */\n      tag_240\n        /* \"#utility.yul\":12048:12064   */\n      dup3\n        /* \"#utility.yul\":12024:12065   */\n      tag_89\n      jump\t// in\n    tag_240:\n        /* \"#utility.yul\":12016:12022   */\n      dup5\n        /* \"#utility.yul\":12009:12013   */\n      dup5\n        /* \"#utility.yul\":12003:12014   */\n      sload\n        /* \"#utility.yul\":11975:12066   */\n      tag_87\n      jump\t// in\n    tag_239:\n        /* \"#utility.yul\":11969:11973   */\n      dup3\n        /* \"#utility.yul\":11962:12067   */\n      sstore\n        /* \"#utility.yul\":11880:12073   */\n      pop\n        /* \"#utility.yul\":11804:12073   */\n      pop\n      pop\n      pop\n      jump\t// out\n        /* \"#utility.yul\":12079:12152   */\n    tag_91:\n        /* \"#utility.yul\":12124:12127   */\n      0x00\n        /* \"#utility.yul\":12079:12152   */\n      swap1\n      jump\t// out\n        /* \"#utility.yul\":12158:12347   */\n    tag_92:\n        /* \"#utility.yul\":12235:12267   */\n      tag_243\n      tag_91\n      jump\t// in\n    tag_243:\n        /* \"#utility.yul\":12276:12341   */\n      tag_244\n        /* \"#utility.yul\":12334:12340   */\n      dup2\n        /* \"#utility.yul\":12326:12332   */\n      dup5\n        /* \"#utility.yul\":12320:12324   */\n      dup5\n        /* \"#utility.yul\":12276:12341   */\n      tag_90\n      jump\t// in\n    tag_244:\n        /* \"#utility.yul\":12211:12347   */\n      pop\n        /* \"#utility.yul\":12158:12347   */\n      pop\n      pop\n      jump\t// out\n        /* \"#utility.yul\":12353:12539   */\n    tag_93:\n        /* \"#utility.yul\":12413:12533   */\n    tag_246:\n        /* \"#utility.yul\":12430:12433   */\n      dup2\n        /* \"#utility.yul\":12423:12428   */\n      dup2\n        /* \"#utility.yul\":12420:12434   */\n      lt\n        /* \"#utility.yul\":12413:12533   */\n      iszero\n      tag_248\n      jumpi\n        /* \"#utility.yul\":12484:12523   */\n      tag_249\n        /* \"#utility.yul\":12521:12522   */\n      0x00\n        /* \"#utility.yul\":12514:12519   */\n      dup3\n        /* \"#utility.yul\":12484:12523   */\n      tag_92\n      jump\t// in\n    tag_249:\n        /* \"#utility.yul\":12457:12458   */\n      0x01\n        /* \"#utility.yul\":12450:12455   */\n      dup2\n        /* \"#utility.yul\":12446:12459   */\n      add\n        /* \"#utility.yul\":12437:12459   */\n      swap1\n      pop\n        /* \"#utility.yul\":12413:12533   */\n      jump(tag_246)\n    tag_248:\n        /* \"#utility.yul\":12353:12539   */\n      pop\n      pop\n      jump\t// out\n        /* \"#utility.yul\":12545:13088   */\n    tag_94:\n        /* \"#utility.yul\":12646:12648   */\n      0x1f\n        /* \"#utility.yul\":12641:12644   */\n      dup3\n        /* \"#utility.yul\":12638:12649   */\n      gt\n        /* \"#utility.yul\":12635:13081   */\n      iszero\n      tag_251\n      jumpi\n        /* \"#utility.yul\":12680:12718   */\n      tag_252\n        /* \"#utility.yul\":12712:12717   */\n      dup2\n        /* \"#utility.yul\":12680:12718   */\n      tag_84\n      jump\t// in\n    tag_252:\n        /* \"#utility.yul\":12764:12793   */\n      tag_253\n        /* \"#utility.yul\":12782:12792   */\n      dup5\n        /* \"#utility.yul\":12764:12793   */\n      tag_85\n      jump\t// in\n    tag_253:\n        /* \"#utility.yul\":12754:12762   */\n      dup2\n        /* \"#utility.yul\":12750:12794   */\n      add\n        /* \"#utility.yul\":12947:12949   */\n      0x20\n        /* \"#utility.yul\":12935:12945   */\n      dup6\n        /* \"#utility.yul\":12932:12950   */\n      lt\n        /* \"#utility.yul\":12929:12978   */\n      iszero\n      tag_254\n      jumpi\n        /* \"#utility.yul\":12968:12976   */\n      dup2\n        /* \"#utility.yul\":12953:12976   */\n      swap1\n      pop\n        /* \"#utility.yul\":12929:12978   */\n    tag_254:\n        /* \"#utility.yul\":12991:13071   */\n      tag_255\n        /* \"#utility.yul\":13047:13069   */\n      tag_256\n        /* \"#utility.yul\":13065:13068   */\n      dup6\n        /* \"#utility.yul\":13047:13069   */\n      tag_85\n      jump\t// in\n    tag_256:\n        /* \"#utility.yul\":13037:13045   */\n      dup4\n        /* \"#utility.yul\":13033:13070   */\n      add\n        /* \"#utility.yul\":13020:13031   */\n      dup3\n        /* \"#utility.yul\":12991:13071   */\n      tag_93\n      jump\t// in\n    tag_255:\n        /* \"#utility.yul\":12650:13081   */\n      pop\n      pop\n        /* \"#utility.yul\":12635:13081   */\n    tag_251:\n        /* \"#utility.yul\":12545:13088   */\n      pop\n      pop\n      pop\n      jump\t// out\n        /* \"#utility.yul\":13094:13211   */\n    tag_95:\n        /* \"#utility.yul\":13148:13156   */\n      0x00\n        /* \"#utility.yul\":13198:13203   */\n      dup3\n        /* \"#utility.yul\":13192:13196   */\n      dup3\n        /* \"#utility.yul\":13188:13204   */\n      shr\n        /* \"#utility.yul\":13167:13204   */\n      swap1\n      pop\n        /* \"#utility.yul\":13094:13211   */\n      swap3\n      swap2\n      pop\n      pop\n      jump\t// out\n        /* \"#utility.yul\":13217:13386   */\n    tag_96:\n        /* \"#utility.yul\":13261:13267   */\n      0x00\n        /* \"#utility.yul\":13294:13345   */\n      tag_259\n        /* \"#utility.yul\":13342:13343   */\n      0x00\n        /* \"#utility.yul\":13338:13344   */\n      not\n        /* \"#utility.yul\":13330:13335   */\n      dup5\n        /* \"#utility.yul\":13327:13328   */\n      0x08\n        /* \"#utility.yul\":13323:13336   */\n      mul\n        /* \"#utility.yul\":13294:13345   */\n      tag_95\n      jump\t// in\n    tag_259:\n        /* \"#utility.yul\":13290:13346   */\n      not\n        /* \"#utility.yul\":13375:13379   */\n      dup1\n        /* \"#utility.yul\":13369:13373   */\n      dup4\n        /* \"#utility.yul\":13365:13380   */\n      and\n        /* \"#utility.yul\":13355:13380   */\n      swap2\n      pop\n        /* \"#utility.yul\":13268:13386   */\n      pop\n        /* \"#utility.yul\":13217:13386   */\n      swap3\n      swap2\n      pop\n      pop\n      jump\t// out\n        /* \"#utility.yul\":13391:13686   */\n    tag_97:\n        /* \"#utility.yul\":13467:13471   */\n      0x00\n        /* \"#utility.yul\":13613:13642   */\n      tag_261\n        /* \"#utility.yul\":13638:13641   */\n      dup4\n        /* \"#utility.yul\":13632:13636   */\n      dup4\n        /* \"#utility.yul\":13613:13642   */\n      tag_96\n      jump\t// in\n    tag_261:\n        /* \"#utility.yul\":13605:13642   */\n      swap2\n      pop\n        /* \"#utility.yul\":13675:13678   */\n      dup3\n        /* \"#utility.yul\":13672:13673   */\n      0x02\n        /* \"#utility.yul\":13668:13679   */\n      mul\n        /* \"#utility.yul\":13662:13666   */\n      dup3\n        /* \"#utility.yul\":13659:13680   */\n      or\n        /* \"#utility.yul\":13651:13680   */\n      swap1\n      pop\n        /* \"#utility.yul\":13391:13686   */\n      swap3\n      swap2\n      pop\n      pop\n      jump\t// out\n        /* \"#utility.yul\":13691:15086   */\n    tag_36:\n        /* \"#utility.yul\":13808:13845   */\n      tag_263\n        /* \"#utility.yul\":13841:13844   */\n      dup3\n        /* \"#utility.yul\":13808:13845   */\n      tag_72\n      jump\t// in\n    tag_263:\n        /* \"#utility.yul\":13910:13928   */\n      0xffffffffffffffff\n        /* \"#utility.yul\":13902:13908   */\n      dup2\n        /* \"#utility.yul\":13899:13929   */\n      gt\n        /* \"#utility.yul\":13896:13952   */\n      iszero\n      tag_264\n      jumpi\n        /* \"#utility.yul\":13932:13950   */\n      tag_265\n      tag_54\n      jump\t// in\n    tag_265:\n        /* \"#utility.yul\":13896:13952   */\n    tag_264:\n        /* \"#utility.yul\":13976:14014   */\n      tag_266\n        /* \"#utility.yul\":14008:14012   */\n      dup3\n        /* \"#utility.yul\":14002:14013   */\n      sload\n        /* \"#utility.yul\":13976:14014   */\n      tag_83\n      jump\t// in\n    tag_266:\n        /* \"#utility.yul\":14061:14128   */\n      tag_267\n        /* \"#utility.yul\":14121:14127   */\n      dup3\n        /* \"#utility.yul\":14113:14119   */\n      dup3\n        /* \"#utility.yul\":14107:14111   */\n      dup6\n        /* \"#utility.yul\":14061:14128   */\n      tag_94\n      jump\t// in\n    tag_267:\n        /* \"#utility.yul\":14155:14156   */\n      0x00\n        /* \"#utility.yul\":14179:14183   */\n      0x20\n        /* \"#utility.yul\":14166:14183   */\n      swap1\n      pop\n        /* \"#utility.yul\":14211:14213   */\n      0x1f\n        /* \"#utility.yul\":14203:14209   */\n      dup4\n        /* \"#utility.yul\":14200:14214   */\n      gt\n        /* \"#utility.yul\":14228:14229   */\n      0x01\n        /* \"#utility.yul\":14223:14841   */\n      dup2\n      eq\n      tag_269\n      jumpi\n        /* \"#utility.yul\":14885:14886   */\n      0x00\n        /* \"#utility.yul\":14902:14908   */\n      dup5\n        /* \"#utility.yul\":14899:14976   */\n      iszero\n      tag_270\n      jumpi\n        /* \"#utility.yul\":14951:14960   */\n      dup3\n        /* \"#utility.yul\":14946:14949   */\n      dup8\n        /* \"#utility.yul\":14942:14961   */\n      add\n        /* \"#utility.yul\":14936:14962   */\n      mload\n        /* \"#utility.yul\":14927:14962   */\n      swap1\n      pop\n        /* \"#utility.yul\":14899:14976   */\n    tag_270:\n        /* \"#utility.yul\":15002:15069   */\n      tag_271\n        /* \"#utility.yul\":15062:15068   */\n      dup6\n        /* \"#utility.yul\":15055:15060   */\n      dup3\n        /* \"#utility.yul\":15002:15069   */\n      tag_97\n      jump\t// in\n    tag_271:\n        /* \"#utility.yul\":14996:15000   */\n      dup7\n        /* \"#utility.yul\":14989:15070   */\n      sstore\n        /* \"#utility.yul\":14858:15080   */\n      pop\n        /* \"#utility.yul\":14193:15080   */\n      jump(tag_268)\n        /* \"#utility.yul\":14223:14841   */\n    tag_269:\n        /* \"#utility.yul\":14275:14279   */\n      0x1f\n        /* \"#utility.yul\":14271:14280   */\n      not\n        /* \"#utility.yul\":14263:14269   */\n      dup5\n        /* \"#utility.yul\":14259:14281   */\n      and\n        /* \"#utility.yul\":14309:14346   */\n      tag_272\n        /* \"#utility.yul\":14341:14345   */\n      dup7\n        /* \"#utility.yul\":14309:14346   */\n      tag_84\n      jump\t// in\n    tag_272:\n        /* \"#utility.yul\":14368:14369   */\n      0x00\n        /* \"#utility.yul\":14382:14590   */\n    tag_273:\n        /* \"#utility.yul\":14396:14403   */\n      dup3\n        /* \"#utility.yul\":14393:14394   */\n      dup2\n        /* \"#utility.yul\":14390:14404   */\n      lt\n        /* \"#utility.yul\":14382:14590   */\n      iszero\n      tag_275\n      jumpi\n        /* \"#utility.yul\":14475:14484   */\n      dup5\n        /* \"#utility.yul\":14470:14473   */\n      dup10\n        /* \"#utility.yul\":14466:14485   */\n      add\n        /* \"#utility.yul\":14460:14486   */\n      mload\n        /* \"#utility.yul\":14452:14458   */\n      dup3\n        /* \"#utility.yul\":14445:14487   */\n      sstore\n        /* \"#utility.yul\":14526:14527   */\n      0x01\n        /* \"#utility.yul\":14518:14524   */\n      dup3\n        /* \"#utility.yul\":14514:14528   */\n      add\n        /* \"#utility.yul\":14504:14528   */\n      swap2\n      pop\n        /* \"#utility.yul\":14573:14575   */\n      0x20\n        /* \"#utility.yul\":14562:14571   */\n      dup6\n        /* \"#utility.yul\":14558:14576   */\n      add\n        /* \"#utility.yul\":14545:14576   */\n      swap5\n      pop\n        /* \"#utility.yul\":14419:14423   */\n      0x20\n        /* \"#utility.yul\":14416:14417   */\n      dup2\n        /* \"#utility.yul\":14412:14424   */\n      add\n        /* \"#utility.yul\":14407:14424   */\n      swap1\n      pop\n        /* \"#utility.yul\":14382:14590   */\n      jump(tag_273)\n    tag_275:\n        /* \"#utility.yul\":14618:14624   */\n      dup7\n        /* \"#utility.yul\":14609:14616   */\n      dup4\n        /* \"#utility.yul\":14606:14625   */\n      lt\n        /* \"#utility.yul\":14603:14782   */\n      iszero\n      tag_276\n      jumpi\n        /* \"#utility.yul\":14676:14685   */\n      dup5\n        /* \"#utility.yul\":14671:14674   */\n      dup10\n        /* \"#utility.yul\":14667:14686   */\n      add\n        /* \"#utility.yul\":14661:14687   */\n      mload\n        /* \"#utility.yul\":14719:14767   */\n      tag_277\n        /* \"#utility.yul\":14761:14765   */\n      0x1f\n        /* \"#utility.yul\":14753:14759   */\n      dup10\n        /* \"#utility.yul\":14749:14766   */\n      and\n        /* \"#utility.yul\":14738:14747   */\n      dup3\n        /* \"#utility.yul\":14719:14767   */\n      tag_96\n      jump\t// in\n    tag_277:\n        /* \"#utility.yul\":14711:14717   */\n      dup4\n        /* \"#utility.yul\":14704:14768   */\n      sstore\n        /* \"#utility.yul\":14626:14782   */\n      pop\n        /* \"#utility.yul\":14603:14782   */\n    tag_276:\n        /* \"#utility.yul\":14828:14829   */\n      0x01\n        /* \"#utility.yul\":14824:14825   */\n      0x02\n        /* \"#utility.yul\":14816:14822   */\n      dup9\n        /* \"#utility.yul\":14812:14826   */\n      mul\n        /* \"#utility.yul\":14808:14830   */\n      add\n        /* \"#utility.yul\":14802:14806   */\n      dup9\n        /* \"#utility.yul\":14795:14831   */\n      sstore\n        /* \"#utility.yul\":14230:14841   */\n      pop\n      pop\n      pop\n        /* \"#utility.yul\":14193:15080   */\n    tag_268:\n      pop\n        /* \"#utility.yul\":13783:15086   */\n      pop\n      pop\n      pop\n        /* \"#utility.yul\":13691:15086   */\n      pop\n      pop\n      jump\t// out\n        /* \"#utility.yul\":15092:15204   */\n    tag_98:\n        /* \"#utility.yul\":15172:15173   */\n      0x07\n        /* \"#utility.yul\":15165:15170   */\n      dup2\n        /* \"#utility.yul\":15162:15174   */\n      lt\n        /* \"#utility.yul\":15152:15198   */\n      tag_279\n      jumpi\n        /* \"#utility.yul\":15178:15196   */\n      tag_280\n      tag_30\n      jump\t// in\n    tag_280:\n        /* \"#utility.yul\":15152:15198   */\n    tag_279:\n        /* \"#utility.yul\":15092:15204   */\n      pop\n      jump\t// out\n        /* \"#utility.yul\":15210:15335   */\n    tag_99:\n        /* \"#utility.yul\":15254:15261   */\n      0x00\n        /* \"#utility.yul\":15283:15288   */\n      dup2\n        /* \"#utility.yul\":15272:15288   */\n      swap1\n      pop\n        /* \"#utility.yul\":15289:15329   */\n      tag_282\n        /* \"#utility.yul\":15323:15328   */\n      dup3\n        /* \"#utility.yul\":15289:15329   */\n      tag_98\n      jump\t// in\n    tag_282:\n        /* \"#utility.yul\":15210:15335   */\n      swap2\n      swap1\n      pop\n      jump\t// out\n        /* \"#utility.yul\":15341:15466   */\n    tag_100:\n        /* \"#utility.yul\":15396:15405   */\n      0x00\n        /* \"#utility.yul\":15429:15460   */\n      tag_284\n        /* \"#utility.yul\":15454:15459   */\n      dup3\n        /* \"#utility.yul\":15429:15460   */\n      tag_99\n      jump\t// in\n    tag_284:\n        /* \"#utility.yul\":15416:15460   */\n      swap1\n      pop\n        /* \"#utility.yul\":15341:15466   */\n      swap2\n      swap1\n      pop\n      jump\t// out\n        /* \"#utility.yul\":15472:15613   */\n    tag_101:\n        /* \"#utility.yul\":15564:15606   */\n      tag_286\n        /* \"#utility.yul\":15600:15605   */\n      dup2\n        /* \"#utility.yul\":15564:15606   */\n      tag_100\n      jump\t// in\n    tag_286:\n        /* \"#utility.yul\":15559:15562   */\n      dup3\n        /* \"#utility.yul\":15552:15607   */\n      mstore\n        /* \"#utility.yul\":15472:15613   */\n      pop\n      pop\n      jump\t// out\n        /* \"#utility.yul\":15619:16052   */\n    tag_38:\n        /* \"#utility.yul\":15765:15769   */\n      0x00\n        /* \"#utility.yul\":15803:15805   */\n      0x40\n        /* \"#utility.yul\":15792:15801   */\n      dup3\n        /* \"#utility.yul\":15788:15806   */\n      add\n        /* \"#utility.yul\":15780:15806   */\n      swap1\n      pop\n        /* \"#utility.yul\":15816:15892   */\n      tag_288\n        /* \"#utility.yul\":15889:15890   */\n      0x00\n        /* \"#utility.yul\":15878:15887   */\n      dup4\n        /* \"#utility.yul\":15874:15891   */\n      add\n        /* \"#utility.yul\":15865:15871   */\n      dup6\n        /* \"#utility.yul\":15816:15892   */\n      tag_101\n      jump\t// in\n    tag_288:\n        /* \"#utility.yul\":15939:15948   */\n      dup2\n        /* \"#utility.yul\":15933:15937   */\n      dup2\n        /* \"#utility.yul\":15929:15949   */\n      sub\n        /* \"#utility.yul\":15924:15926   */\n      0x20\n        /* \"#utility.yul\":15913:15922   */\n      dup4\n        /* \"#utility.yul\":15909:15927   */\n      add\n        /* \"#utility.yul\":15902:15950   */\n      mstore\n        /* \"#utility.yul\":15967:16045   */\n      tag_289\n        /* \"#utility.yul\":16040:16044   */\n      dup2\n        /* \"#utility.yul\":16031:16037   */\n      dup5\n        /* \"#utility.yul\":15967:16045   */\n      tag_75\n      jump\t// in\n    tag_289:\n        /* \"#utility.yul\":15959:16045   */\n      swap1\n      pop\n        /* \"#utility.yul\":15619:16052   */\n      swap4\n      swap3\n      pop\n      pop\n      pop\n      jump\t// out\n\n    auxdata: 0xa26469706673582212207481cdea59530997d3a2b156a65c029a9fabe4cbdd053517837960c502e0b39264736f6c634300081a0033\n}\n",
				"bytecode": {
					"linkReferences": {},
					"object": "608060405234801561000f575f80fd5b50604051610d3f380380610d3f83398181016040528101906100319190610116565b8160025f6101000a81548173ffffffffffffffffffffffffffffffffffffffff021916908373ffffffffffffffffffffffffffffffffffffffff1602179055508060035f6101000a81548173ffffffffffffffffffffffffffffffffffffffff021916908373ffffffffffffffffffffffffffffffffffffffff1602179055505050610154565b5f80fd5b5f73ffffffffffffffffffffffffffffffffffffffff82169050919050565b5f6100e5826100bc565b9050919050565b6100f5816100db565b81146100ff575f80fd5b50565b5f81519050610110816100ec565b92915050565b5f806040838503121561012c5761012b6100b8565b5b5f61013985828601610102565b925050602061014a85828601610102565b9150509250929050565b610bde806101615f395ff3fe608060405234801561000f575f80fd5b506004361061003f575f3560e01c806320b1872714610043578063577f9fb11461005f5780636aebbd661461007d575b5f80fd5b61005d60048036038101906100589190610542565b61009b565b005b6100676102c8565b6040516100749190610630565b60405180910390f35b6100856102ed565b6040516100929190610669565b60405180910390f35b60025f9054906101000a900473ffffffffffffffffffffffffffffffffffffffff1673ffffffffffffffffffffffffffffffffffffffff1663aabe503686846040518363ffffffff1660e01b81526004016100f79291906106f1565b602060405180830381865afa158015610112573d5f803e3d5ffd5b505050506040513d601f19601f820116820180604052508101906101369190610754565b610175576040517f08c379a000000000000000000000000000000000000000000000000000000000815260040161016c906107c9565b60405180910390fd5b6040518060a00160405280856006811115610193576101926107e7565b5b815260200160011515815260200182426101ad9190610841565b8152602001848152602001838152505f808773ffffffffffffffffffffffffffffffffffffffff1673ffffffffffffffffffffffffffffffffffffffff1681526020019081526020015f205f820151815f015f6101000a81548160ff021916908360068111156102205761021f6107e7565b5b02179055506020820151815f0160016101000a81548160ff0219169083151502179055506040820151816001015560608201518160020155608082015181600301908161026d9190610a65565b509050508473ffffffffffffffffffffffffffffffffffffffff167f6f9e8382effc1f2659a04b480fc00e03e9ea704a05c90d74db22a5fb12ee46af85846040516102b9929190610b7a565b60405180910390a25050505050565b60025f9054906101000a900473ffffffffffffffffffffffffffffffffffffffff1681565b60035f9054906101000a900473ffffffffffffffffffffffffffffffffffffffff1681565b5f604051905090565b5f80fd5b5f80fd5b5f73ffffffffffffffffffffffffffffffffffffffff82169050919050565b5f61034c82610323565b9050919050565b61035c81610342565b8114610366575f80fd5b50565b5f8135905061037781610353565b92915050565b60078110610389575f80fd5b50565b5f8135905061039a8161037d565b92915050565b5f819050919050565b6103b2816103a0565b81146103bc575f80fd5b50565b5f813590506103cd816103a9565b92915050565b5f80fd5b5f80fd5b5f601f19601f8301169050919050565b7f4e487b71000000000000000000000000000000000000000000000000000000005f52604160045260245ffd5b610421826103db565b810181811067ffffffffffffffff821117156104405761043f6103eb565b5b80604052505050565b5f610452610312565b905061045e8282610418565b919050565b5f67ffffffffffffffff82111561047d5761047c6103eb565b5b610486826103db565b9050602081019050919050565b828183375f83830152505050565b5f6104b36104ae84610463565b610449565b9050828152602081018484840111156104cf576104ce6103d7565b5b6104da848285610493565b509392505050565b5f82601f8301126104f6576104f56103d3565b5b81356105068482602086016104a1565b91505092915050565b5f819050919050565b6105218161050f565b811461052b575f80fd5b50565b5f8135905061053c81610518565b92915050565b5f805f805f60a0868803121561055b5761055a61031b565b5b5f61056888828901610369565b95505060206105798882890161038c565b945050604061058a888289016103bf565b935050606086013567ffffffffffffffff8111156105ab576105aa61031f565b5b6105b7888289016104e2565b92505060806105c88882890161052e565b9150509295509295909350565b5f819050919050565b5f6105f86105f36105ee84610323565b6105d5565b610323565b9050919050565b5f610609826105de565b9050919050565b5f61061a826105ff565b9050919050565b61062a81610610565b82525050565b5f6020820190506106435f830184610621565b92915050565b5f610653826105ff565b9050919050565b61066381610649565b82525050565b5f60208201905061067c5f83018461065a565b92915050565b61068b81610342565b82525050565b5f81519050919050565b5f82825260208201905092915050565b8281835e5f83830152505050565b5f6106c382610691565b6106cd818561069b565b93506106dd8185602086016106ab565b6106e6816103db565b840191505092915050565b5f6040820190506107045f830185610682565b818103602083015261071681846106b9565b90509392505050565b5f8115159050919050565b6107338161071f565b811461073d575f80fd5b50565b5f8151905061074e8161072a565b92915050565b5f602082840312156107695761076861031b565b5b5f61077684828501610740565b91505092915050565b7f496e76616c69642044494420636f6e74726f6c000000000000000000000000005f82015250565b5f6107b360138361069b565b91506107be8261077f565b602082019050919050565b5f6020820190508181035f8301526107e0816107a7565b9050919050565b7f4e487b71000000000000000000000000000000000000000000000000000000005f52602160045260245ffd5b7f4e487b71000000000000000000000000000000000000000000000000000000005f52601160045260245ffd5b5f61084b8261050f565b91506108568361050f565b925082820190508082111561086e5761086d610814565b5b92915050565b7f4e487b71000000000000000000000000000000000000000000000000000000005f52602260045260245ffd5b5f60028204905060018216806108b857607f821691505b6020821081036108cb576108ca610874565b5b50919050565b5f819050815f5260205f209050919050565b5f6020601f8301049050919050565b5f82821b905092915050565b5f6008830261092d7fffffffffffffffffffffffffffffffffffffffffffffffffffffffffffffffff826108f2565b61093786836108f2565b95508019841693508086168417925050509392505050565b5f61096961096461095f8461050f565b6105d5565b61050f565b9050919050565b5f819050919050565b6109828361094f565b61099661098e82610970565b8484546108fe565b825550505050565b5f90565b6109aa61099e565b6109b5818484610979565b505050565b5b818110156109d8576109cd5f826109a2565b6001810190506109bb565b5050565b601f821115610a1d576109ee816108d1565b6109f7846108e3565b81016020851015610a06578190505b610a1a610a12856108e3565b8301826109ba565b50505b505050565b5f82821c905092915050565b5f610a3d5f1984600802610a22565b1980831691505092915050565b5f610a558383610a2e565b9150826002028217905092915050565b610a6e82610691565b67ffffffffffffffff811115610a8757610a866103eb565b5b610a9182546108a1565b610a9c8282856109dc565b5f60209050601f831160018114610acd575f8415610abb578287015190505b610ac58582610a4a565b865550610b2c565b601f198416610adb866108d1565b5f5b82811015610b0257848901518255600182019150602085019450602081019050610add565b86831015610b1f5784890151610b1b601f891682610a2e565b8355505b6001600288020188555050505b505050505050565b60078110610b4557610b446107e7565b5b50565b5f819050610b5582610b34565b919050565b5f610b6482610b48565b9050919050565b610b7481610b5a565b82525050565b5f604082019050610b8d5f830185610b6b565b8181036020830152610b9f81846106b9565b9050939250505056fea26469706673582212207481cdea59530997d3a2b156a65c029a9fabe4cbdd053517837960c502e0b39264736f6c634300081a0033",
					"opcodes": "PUSH1 0x80 PUSH1 0x40 MSTORE CALLVALUE DUP1 ISZERO PUSH2 0xF JUMPI PUSH0 DUP1 REVERT JUMPDEST POP PUSH1 0x40 MLOAD PUSH2 0xD3F CODESIZE SUB DUP1 PUSH2 0xD3F DUP4 CODECOPY DUP2 DUP2 ADD PUSH1 0x40 MSTORE DUP2 ADD SWAP1 PUSH2 0x31 SWAP2 SWAP1 PUSH2 0x116 JUMP JUMPDEST DUP2 PUSH1 0x2 PUSH0 PUSH2 0x100 EXP DUP2 SLOAD DUP2 PUSH20 0xFFFFFFFFFFFFFFFFFFFFFFFFFFFFFFFFFFFFFFFF MUL NOT AND SWAP1 DUP4 PUSH20 0xFFFFFFFFFFFFFFFFFFFFFFFFFFFFFFFFFFFFFFFF AND MUL OR SWAP1 SSTORE POP DUP1 PUSH1 0x3 PUSH0 PUSH2 0x100 EXP DUP2 SLOAD DUP2 PUSH20 0xFFFFFFFFFFFFFFFFFFFFFFFFFFFFFFFFFFFFFFFF MUL NOT AND SWAP1 DUP4 PUSH20 0xFFFFFFFFFFFFFFFFFFFFFFFFFFFFFFFFFFFFFFFF AND MUL OR SWAP1 SSTORE POP POP POP PUSH2 0x154 JUMP JUMPDEST PUSH0 DUP1 REVERT JUMPDEST PUSH0 PUSH20 0xFFFFFFFFFFFFFFFFFFFFFFFFFFFFFFFFFFFFFFFF DUP3 AND SWAP1 POP SWAP2 SWAP1 POP JUMP JUMPDEST PUSH0 PUSH2 0xE5 DUP3 PUSH2 0xBC JUMP JUMPDEST SWAP1 POP SWAP2 SWAP1 POP JUMP JUMPDEST PUSH2 0xF5 DUP2 PUSH2 0xDB JUMP JUMPDEST DUP2 EQ PUSH2 0xFF JUMPI PUSH0 DUP1 REVERT JUMPDEST POP JUMP JUMPDEST PUSH0 DUP2 MLOAD SWAP1 POP PUSH2 0x110 DUP2 PUSH2 0xEC JUMP JUMPDEST SWAP3 SWAP2 POP POP JUMP JUMPDEST PUSH0 DUP1 PUSH1 0x40 DUP4 DUP6 SUB SLT ISZERO PUSH2 0x12C JUMPI PUSH2 0x12B PUSH2 0xB8 JUMP JUMPDEST JUMPDEST PUSH0 PUSH2 0x139 DUP6 DUP3 DUP7 ADD PUSH2 0x102 JUMP JUMPDEST SWAP3 POP POP PUSH1 0x20 PUSH2 0x14A DUP6 DUP3 DUP7 ADD PUSH2 0x102 JUMP JUMPDEST SWAP2 POP POP SWAP3 POP SWAP3 SWAP1 POP JUMP JUMPDEST PUSH2 0xBDE DUP1 PUSH2 0x161 PUSH0 CODECOPY PUSH0 RETURN INVALID PUSH1 0x80 PUSH1 0x40 MSTORE CALLVALUE DUP1 ISZERO PUSH2 0xF JUMPI PUSH0 DUP1 REVERT JUMPDEST POP PUSH1 0x4 CALLDATASIZE LT PUSH2 0x3F JUMPI PUSH0 CALLDATALOAD PUSH1 0xE0 SHR DUP1 PUSH4 0x20B18727 EQ PUSH2 0x43 JUMPI DUP1 PUSH4 0x577F9FB1 EQ PUSH2 0x5F JUMPI DUP1 PUSH4 0x6AEBBD66 EQ PUSH2 0x7D JUMPI JUMPDEST PUSH0 DUP1 REVERT JUMPDEST PUSH2 0x5D PUSH1 0x4 DUP1 CALLDATASIZE SUB DUP2 ADD SWAP1 PUSH2 0x58 SWAP2 SWAP1 PUSH2 0x542 JUMP JUMPDEST PUSH2 0x9B JUMP JUMPDEST STOP JUMPDEST PUSH2 0x67 PUSH2 0x2C8 JUMP JUMPDEST PUSH1 0x40 MLOAD PUSH2 0x74 SWAP2 SWAP1 PUSH2 0x630 JUMP JUMPDEST PUSH1 0x40 MLOAD DUP1 SWAP2 SUB SWAP1 RETURN JUMPDEST PUSH2 0x85 PUSH2 0x2ED JUMP JUMPDEST PUSH1 0x40 MLOAD PUSH2 0x92 SWAP2 SWAP1 PUSH2 0x669 JUMP JUMPDEST PUSH1 0x40 MLOAD DUP1 SWAP2 SUB SWAP1 RETURN JUMPDEST PUSH1 0x2 PUSH0 SWAP1 SLOAD SWAP1 PUSH2 0x100 EXP SWAP1 DIV PUSH20 0xFFFFFFFFFFFFFFFFFFFFFFFFFFFFFFFFFFFFFFFF AND PUSH20 0xFFFFFFFFFFFFFFFFFFFFFFFFFFFFFFFFFFFFFFFF AND PUSH4 0xAABE5036 DUP7 DUP5 PUSH1 0x40 MLOAD DUP4 PUSH4 0xFFFFFFFF AND PUSH1 0xE0 SHL DUP2 MSTORE PUSH1 0x4 ADD PUSH2 0xF7 SWAP3 SWAP2 SWAP1 PUSH2 0x6F1 JUMP JUMPDEST PUSH1 0x20 PUSH1 0x40 MLOAD DUP1 DUP4 SUB DUP2 DUP7 GAS STATICCALL ISZERO DUP1 ISZERO PUSH2 0x112 JUMPI RETURNDATASIZE PUSH0 DUP1 RETURNDATACOPY RETURNDATASIZE PUSH0 REVERT JUMPDEST POP POP POP POP PUSH1 0x40 MLOAD RETURNDATASIZE PUSH1 0x1F NOT PUSH1 0x1F DUP3 ADD AND DUP3 ADD DUP1 PUSH1 0x40 MSTORE POP DUP2 ADD SWAP1 PUSH2 0x136 SWAP2 SWAP1 PUSH2 0x754 JUMP JUMPDEST PUSH2 0x175 JUMPI PUSH1 0x40 MLOAD PUSH32 0x8C379A000000000000000000000000000000000000000000000000000000000 DUP2 MSTORE PUSH1 0x4 ADD PUSH2 0x16C SWAP1 PUSH2 0x7C9 JUMP JUMPDEST PUSH1 0x40 MLOAD DUP1 SWAP2 SUB SWAP1 REVERT JUMPDEST PUSH1 0x40 MLOAD DUP1 PUSH1 0xA0 ADD PUSH1 0x40 MSTORE DUP1 DUP6 PUSH1 0x6 DUP2 GT ISZERO PUSH2 0x193 JUMPI PUSH2 0x192 PUSH2 0x7E7 JUMP JUMPDEST JUMPDEST DUP2 MSTORE PUSH1 0x20 ADD PUSH1 0x1 ISZERO ISZERO DUP2 MSTORE PUSH1 0x20 ADD DUP3 TIMESTAMP PUSH2 0x1AD SWAP2 SWAP1 PUSH2 0x841 JUMP JUMPDEST DUP2 MSTORE PUSH1 0x20 ADD DUP5 DUP2 MSTORE PUSH1 0x20 ADD DUP4 DUP2 MSTORE POP PUSH0 DUP1 DUP8 PUSH20 0xFFFFFFFFFFFFFFFFFFFFFFFFFFFFFFFFFFFFFFFF AND PUSH20 0xFFFFFFFFFFFFFFFFFFFFFFFFFFFFFFFFFFFFFFFF AND DUP2 MSTORE PUSH1 0x20 ADD SWAP1 DUP2 MSTORE PUSH1 0x20 ADD PUSH0 KECCAK256 PUSH0 DUP3 ADD MLOAD DUP2 PUSH0 ADD PUSH0 PUSH2 0x100 EXP DUP2 SLOAD DUP2 PUSH1 0xFF MUL NOT AND SWAP1 DUP4 PUSH1 0x6 DUP2 GT ISZERO PUSH2 0x220 JUMPI PUSH2 0x21F PUSH2 0x7E7 JUMP JUMPDEST JUMPDEST MUL OR SWAP1 SSTORE POP PUSH1 0x20 DUP3 ADD MLOAD DUP2 PUSH0 ADD PUSH1 0x1 PUSH2 0x100 EXP DUP2 SLOAD DUP2 PUSH1 0xFF MUL NOT AND SWAP1 DUP4 ISZERO ISZERO MUL OR SWAP1 SSTORE POP PUSH1 0x40 DUP3 ADD MLOAD DUP2 PUSH1 0x1 ADD SSTORE PUSH1 0x60 DUP3 ADD MLOAD DUP2 PUSH1 0x2 ADD SSTORE PUSH1 0x80 DUP3 ADD MLOAD DUP2 PUSH1 0x3 ADD SWAP1 DUP2 PUSH2 0x26D SWAP2 SWAP1 PUSH2 0xA65 JUMP JUMPDEST POP SWAP1 POP POP DUP5 PUSH20 0xFFFFFFFFFFFFFFFFFFFFFFFFFFFFFFFFFFFFFFFF AND PUSH32 0x6F9E8382EFFC1F2659A04B480FC00E03E9EA704A05C90D74DB22A5FB12EE46AF DUP6 DUP5 PUSH1 0x40 MLOAD PUSH2 0x2B9 SWAP3 SWAP2 SWAP1 PUSH2 0xB7A JUMP JUMPDEST PUSH1 0x40 MLOAD DUP1 SWAP2 SUB SWAP1 LOG2 POP POP POP POP POP JUMP JUMPDEST PUSH1 0x2 PUSH0 SWAP1 SLOAD SWAP1 PUSH2 0x100 EXP SWAP1 DIV PUSH20 0xFFFFFFFFFFFFFFFFFFFFFFFFFFFFFFFFFFFFFFFF AND DUP2 JUMP JUMPDEST PUSH1 0x3 PUSH0 SWAP1 SLOAD SWAP1 PUSH2 0x100 EXP SWAP1 DIV PUSH20 0xFFFFFFFFFFFFFFFFFFFFFFFFFFFFFFFFFFFFFFFF AND DUP2 JUMP JUMPDEST PUSH0 PUSH1 0x40 MLOAD SWAP1 POP SWAP1 JUMP JUMPDEST PUSH0 DUP1 REVERT JUMPDEST PUSH0 DUP1 REVERT JUMPDEST PUSH0 PUSH20 0xFFFFFFFFFFFFFFFFFFFFFFFFFFFFFFFFFFFFFFFF DUP3 AND SWAP1 POP SWAP2 SWAP1 POP JUMP JUMPDEST PUSH0 PUSH2 0x34C DUP3 PUSH2 0x323 JUMP JUMPDEST SWAP1 POP SWAP2 SWAP1 POP JUMP JUMPDEST PUSH2 0x35C DUP2 PUSH2 0x342 JUMP JUMPDEST DUP2 EQ PUSH2 0x366 JUMPI PUSH0 DUP1 REVERT JUMPDEST POP JUMP JUMPDEST PUSH0 DUP2 CALLDATALOAD SWAP1 POP PUSH2 0x377 DUP2 PUSH2 0x353 JUMP JUMPDEST SWAP3 SWAP2 POP POP JUMP JUMPDEST PUSH1 0x7 DUP2 LT PUSH2 0x389 JUMPI PUSH0 DUP1 REVERT JUMPDEST POP JUMP JUMPDEST PUSH0 DUP2 CALLDATALOAD SWAP1 POP PUSH2 0x39A DUP2 PUSH2 0x37D JUMP JUMPDEST SWAP3 SWAP2 POP POP JUMP JUMPDEST PUSH0 DUP2 SWAP1 POP SWAP2 SWAP1 POP JUMP JUMPDEST PUSH2 0x3B2 DUP2 PUSH2 0x3A0 JUMP JUMPDEST DUP2 EQ PUSH2 0x3BC JUMPI PUSH0 DUP1 REVERT JUMPDEST POP JUMP JUMPDEST PUSH0 DUP2 CALLDATALOAD SWAP1 POP PUSH2 0x3CD DUP2 PUSH2 0x3A9 JUMP JUMPDEST SWAP3 SWAP2 POP POP JUMP JUMPDEST PUSH0 DUP1 REVERT JUMPDEST PUSH0 DUP1 REVERT JUMPDEST PUSH0 PUSH1 0x1F NOT PUSH1 0x1F DUP4 ADD AND SWAP1 POP SWAP2 SWAP1 POP JUMP JUMPDEST PUSH32 0x4E487B7100000000000000000000000000000000000000000000000000000000 PUSH0 MSTORE PUSH1 0x41 PUSH1 0x4 MSTORE PUSH1 0x24 PUSH0 REVERT JUMPDEST PUSH2 0x421 DUP3 PUSH2 0x3DB JUMP JUMPDEST DUP2 ADD DUP2 DUP2 LT PUSH8 0xFFFFFFFFFFFFFFFF DUP3 GT OR ISZERO PUSH2 0x440 JUMPI PUSH2 0x43F PUSH2 0x3EB JUMP JUMPDEST JUMPDEST DUP1 PUSH1 0x40 MSTORE POP POP POP JUMP JUMPDEST PUSH0 PUSH2 0x452 PUSH2 0x312 JUMP JUMPDEST SWAP1 POP PUSH2 0x45E DUP3 DUP3 PUSH2 0x418 JUMP JUMPDEST SWAP2 SWAP1 POP JUMP JUMPDEST PUSH0 PUSH8 0xFFFFFFFFFFFFFFFF DUP3 GT ISZERO PUSH2 0x47D JUMPI PUSH2 0x47C PUSH2 0x3EB JUMP JUMPDEST JUMPDEST PUSH2 0x486 DUP3 PUSH2 0x3DB JUMP JUMPDEST SWAP1 POP PUSH1 0x20 DUP2 ADD SWAP1 POP SWAP2 SWAP1 POP JUMP JUMPDEST DUP3 DUP2 DUP4 CALLDATACOPY PUSH0 DUP4 DUP4 ADD MSTORE POP POP POP JUMP JUMPDEST PUSH0 PUSH2 0x4B3 PUSH2 0x4AE DUP5 PUSH2 0x463 JUMP JUMPDEST PUSH2 0x449 JUMP JUMPDEST SWAP1 POP DUP3 DUP2 MSTORE PUSH1 0x20 DUP2 ADD DUP5 DUP5 DUP5 ADD GT ISZERO PUSH2 0x4CF JUMPI PUSH2 0x4CE PUSH2 0x3D7 JUMP JUMPDEST JUMPDEST PUSH2 0x4DA DUP5 DUP3 DUP6 PUSH2 0x493 JUMP JUMPDEST POP SWAP4 SWAP3 POP POP POP JUMP JUMPDEST PUSH0 DUP3 PUSH1 0x1F DUP4 ADD SLT PUSH2 0x4F6 JUMPI PUSH2 0x4F5 PUSH2 0x3D3 JUMP JUMPDEST JUMPDEST DUP2 CALLDATALOAD PUSH2 0x506 DUP5 DUP3 PUSH1 0x20 DUP7 ADD PUSH2 0x4A1 JUMP JUMPDEST SWAP2 POP POP SWAP3 SWAP2 POP POP JUMP JUMPDEST PUSH0 DUP2 SWAP1 POP SWAP2 SWAP1 POP JUMP JUMPDEST PUSH2 0x521 DUP2 PUSH2 0x50F JUMP JUMPDEST DUP2 EQ PUSH2 0x52B JUMPI PUSH0 DUP1 REVERT JUMPDEST POP JUMP JUMPDEST PUSH0 DUP2 CALLDATALOAD SWAP1 POP PUSH2 0x53C DUP2 PUSH2 0x518 JUMP JUMPDEST SWAP3 SWAP2 POP POP JUMP JUMPDEST PUSH0 DUP1 PUSH0 DUP1 PUSH0 PUSH1 0xA0 DUP7 DUP9 SUB SLT ISZERO PUSH2 0x55B JUMPI PUSH2 0x55A PUSH2 0x31B JUMP JUMPDEST JUMPDEST PUSH0 PUSH2 0x568 DUP9 DUP3 DUP10 ADD PUSH2 0x369 JUMP JUMPDEST SWAP6 POP POP PUSH1 0x20 PUSH2 0x579 DUP9 DUP3 DUP10 ADD PUSH2 0x38C JUMP JUMPDEST SWAP5 POP POP PUSH1 0x40 PUSH2 0x58A DUP9 DUP3 DUP10 ADD PUSH2 0x3BF JUMP JUMPDEST SWAP4 POP POP PUSH1 0x60 DUP7 ADD CALLDATALOAD PUSH8 0xFFFFFFFFFFFFFFFF DUP2 GT ISZERO PUSH2 0x5AB JUMPI PUSH2 0x5AA PUSH2 0x31F JUMP JUMPDEST JUMPDEST PUSH2 0x5B7 DUP9 DUP3 DUP10 ADD PUSH2 0x4E2 JUMP JUMPDEST SWAP3 POP POP PUSH1 0x80 PUSH2 0x5C8 DUP9 DUP3 DUP10 ADD PUSH2 0x52E JUMP JUMPDEST SWAP2 POP POP SWAP3 SWAP6 POP SWAP3 SWAP6 SWAP1 SWAP4 POP JUMP JUMPDEST PUSH0 DUP2 SWAP1 POP SWAP2 SWAP1 POP JUMP JUMPDEST PUSH0 PUSH2 0x5F8 PUSH2 0x5F3 PUSH2 0x5EE DUP5 PUSH2 0x323 JUMP JUMPDEST PUSH2 0x5D5 JUMP JUMPDEST PUSH2 0x323 JUMP JUMPDEST SWAP1 POP SWAP2 SWAP1 POP JUMP JUMPDEST PUSH0 PUSH2 0x609 DUP3 PUSH2 0x5DE JUMP JUMPDEST SWAP1 POP SWAP2 SWAP1 POP JUMP JUMPDEST PUSH0 PUSH2 0x61A DUP3 PUSH2 0x5FF JUMP JUMPDEST SWAP1 POP SWAP2 SWAP1 POP JUMP JUMPDEST PUSH2 0x62A DUP2 PUSH2 0x610 JUMP JUMPDEST DUP3 MSTORE POP POP JUMP JUMPDEST PUSH0 PUSH1 0x20 DUP3 ADD SWAP1 POP PUSH2 0x643 PUSH0 DUP4 ADD DUP5 PUSH2 0x621 JUMP JUMPDEST SWAP3 SWAP2 POP POP JUMP JUMPDEST PUSH0 PUSH2 0x653 DUP3 PUSH2 0x5FF JUMP JUMPDEST SWAP1 POP SWAP2 SWAP1 POP JUMP JUMPDEST PUSH2 0x663 DUP2 PUSH2 0x649 JUMP JUMPDEST DUP3 MSTORE POP POP JUMP JUMPDEST PUSH0 PUSH1 0x20 DUP3 ADD SWAP1 POP PUSH2 0x67C PUSH0 DUP4 ADD DUP5 PUSH2 0x65A JUMP JUMPDEST SWAP3 SWAP2 POP POP JUMP JUMPDEST PUSH2 0x68B DUP2 PUSH2 0x342 JUMP JUMPDEST DUP3 MSTORE POP POP JUMP JUMPDEST PUSH0 DUP2 MLOAD SWAP1 POP SWAP2 SWAP1 POP JUMP JUMPDEST PUSH0 DUP3 DUP3 MSTORE PUSH1 0x20 DUP3 ADD SWAP1 POP SWAP3 SWAP2 POP POP JUMP JUMPDEST DUP3 DUP2 DUP4 MCOPY PUSH0 DUP4 DUP4 ADD MSTORE POP POP POP JUMP JUMPDEST PUSH0 PUSH2 0x6C3 DUP3 PUSH2 0x691 JUMP JUMPDEST PUSH2 0x6CD DUP2 DUP6 PUSH2 0x69B JUMP JUMPDEST SWAP4 POP PUSH2 0x6DD DUP2 DUP6 PUSH1 0x20 DUP7 ADD PUSH2 0x6AB JUMP JUMPDEST PUSH2 0x6E6 DUP2 PUSH2 0x3DB JUMP JUMPDEST DUP5 ADD SWAP2 POP POP SWAP3 SWAP2 POP POP JUMP JUMPDEST PUSH0 PUSH1 0x40 DUP3 ADD SWAP1 POP PUSH2 0x704 PUSH0 DUP4 ADD DUP6 PUSH2 0x682 JUMP JUMPDEST DUP2 DUP2 SUB PUSH1 0x20 DUP4 ADD MSTORE PUSH2 0x716 DUP2 DUP5 PUSH2 0x6B9 JUMP JUMPDEST SWAP1 POP SWAP4 SWAP3 POP POP POP JUMP JUMPDEST PUSH0 DUP2 ISZERO ISZERO SWAP1 POP SWAP2 SWAP1 POP JUMP JUMPDEST PUSH2 0x733 DUP2 PUSH2 0x71F JUMP JUMPDEST DUP2 EQ PUSH2 0x73D JUMPI PUSH0 DUP1 REVERT JUMPDEST POP JUMP JUMPDEST PUSH0 DUP2 MLOAD SWAP1 POP PUSH2 0x74E DUP2 PUSH2 0x72A JUMP JUMPDEST SWAP3 SWAP2 POP POP JUMP JUMPDEST PUSH0 PUSH1 0x20 DUP3 DUP5 SUB SLT ISZERO PUSH2 0x769 JUMPI PUSH2 0x768 PUSH2 0x31B JUMP JUMPDEST JUMPDEST PUSH0 PUSH2 0x776 DUP5 DUP3 DUP6 ADD PUSH2 0x740 JUMP JUMPDEST SWAP2 POP POP SWAP3 SWAP2 POP POP JUMP JUMPDEST PUSH32 0x496E76616C69642044494420636F6E74726F6C00000000000000000000000000 PUSH0 DUP3 ADD MSTORE POP JUMP JUMPDEST PUSH0 PUSH2 0x7B3 PUSH1 0x13 DUP4 PUSH2 0x69B JUMP JUMPDEST SWAP2 POP PUSH2 0x7BE DUP3 PUSH2 0x77F JUMP JUMPDEST PUSH1 0x20 DUP3 ADD SWAP1 POP SWAP2 SWAP1 POP JUMP JUMPDEST PUSH0 PUSH1 0x20 DUP3 ADD SWAP1 POP DUP2 DUP2 SUB PUSH0 DUP4 ADD MSTORE PUSH2 0x7E0 DUP2 PUSH2 0x7A7 JUMP JUMPDEST SWAP1 POP SWAP2 SWAP1 POP JUMP JUMPDEST PUSH32 0x4E487B7100000000000000000000000000000000000000000000000000000000 PUSH0 MSTORE PUSH1 0x21 PUSH1 0x4 MSTORE PUSH1 0x24 PUSH0 REVERT JUMPDEST PUSH32 0x4E487B7100000000000000000000000000000000000000000000000000000000 PUSH0 MSTORE PUSH1 0x11 PUSH1 0x4 MSTORE PUSH1 0x24 PUSH0 REVERT JUMPDEST PUSH0 PUSH2 0x84B DUP3 PUSH2 0x50F JUMP JUMPDEST SWAP2 POP PUSH2 0x856 DUP4 PUSH2 0x50F JUMP JUMPDEST SWAP3 POP DUP3 DUP3 ADD SWAP1 POP DUP1 DUP3 GT ISZERO PUSH2 0x86E JUMPI PUSH2 0x86D PUSH2 0x814 JUMP JUMPDEST JUMPDEST SWAP3 SWAP2 POP POP JUMP JUMPDEST PUSH32 0x4E487B7100000000000000000000000000000000000000000000000000000000 PUSH0 MSTORE PUSH1 0x22 PUSH1 0x4 MSTORE PUSH1 0x24 PUSH0 REVERT JUMPDEST PUSH0 PUSH1 0x2 DUP3 DIV SWAP1 POP PUSH1 0x1 DUP3 AND DUP1 PUSH2 0x8B8 JUMPI PUSH1 0x7F DUP3 AND SWAP2 POP JUMPDEST PUSH1 0x20 DUP3 LT DUP2 SUB PUSH2 0x8CB JUMPI PUSH2 0x8CA PUSH2 0x874 JUMP JUMPDEST JUMPDEST POP SWAP2 SWAP1 POP JUMP JUMPDEST PUSH0 DUP2 SWAP1 POP DUP2 PUSH0 MSTORE PUSH1 0x20 PUSH0 KECCAK256 SWAP1 POP SWAP2 SWAP1 POP JUMP JUMPDEST PUSH0 PUSH1 0x20 PUSH1 0x1F DUP4 ADD DIV SWAP1 POP SWAP2 SWAP1 POP JUMP JUMPDEST PUSH0 DUP3 DUP3 SHL SWAP1 POP SWAP3 SWAP2 POP POP JUMP JUMPDEST PUSH0 PUSH1 0x8 DUP4 MUL PUSH2 0x92D PUSH32 0xFFFFFFFFFFFFFFFFFFFFFFFFFFFFFFFFFFFFFFFFFFFFFFFFFFFFFFFFFFFFFFFF DUP3 PUSH2 0x8F2 JUMP JUMPDEST PUSH2 0x937 DUP7 DUP4 PUSH2 0x8F2 JUMP JUMPDEST SWAP6 POP DUP1 NOT DUP5 AND SWAP4 POP DUP1 DUP7 AND DUP5 OR SWAP3 POP POP POP SWAP4 SWAP3 POP POP POP JUMP JUMPDEST PUSH0 PUSH2 0x969 PUSH2 0x964 PUSH2 0x95F DUP5 PUSH2 0x50F JUMP JUMPDEST PUSH2 0x5D5 JUMP JUMPDEST PUSH2 0x50F JUMP JUMPDEST SWAP1 POP SWAP2 SWAP1 POP JUMP JUMPDEST PUSH0 DUP2 SWAP1 POP SWAP2 SWAP1 POP JUMP JUMPDEST PUSH2 0x982 DUP4 PUSH2 0x94F JUMP JUMPDEST PUSH2 0x996 PUSH2 0x98E DUP3 PUSH2 0x970 JUMP JUMPDEST DUP5 DUP5 SLOAD PUSH2 0x8FE JUMP JUMPDEST DUP3 SSTORE POP POP POP POP JUMP JUMPDEST PUSH0 SWAP1 JUMP JUMPDEST PUSH2 0x9AA PUSH2 0x99E JUMP JUMPDEST PUSH2 0x9B5 DUP2 DUP5 DUP5 PUSH2 0x979 JUMP JUMPDEST POP POP POP JUMP JUMPDEST JUMPDEST DUP2 DUP2 LT ISZERO PUSH2 0x9D8 JUMPI PUSH2 0x9CD PUSH0 DUP3 PUSH2 0x9A2 JUMP JUMPDEST PUSH1 0x1 DUP2 ADD SWAP1 POP PUSH2 0x9BB JUMP JUMPDEST POP POP JUMP JUMPDEST PUSH1 0x1F DUP3 GT ISZERO PUSH2 0xA1D JUMPI PUSH2 0x9EE DUP2 PUSH2 0x8D1 JUMP JUMPDEST PUSH2 0x9F7 DUP5 PUSH2 0x8E3 JUMP JUMPDEST DUP2 ADD PUSH1 0x20 DUP6 LT ISZERO PUSH2 0xA06 JUMPI DUP2 SWAP1 POP JUMPDEST PUSH2 0xA1A PUSH2 0xA12 DUP6 PUSH2 0x8E3 JUMP JUMPDEST DUP4 ADD DUP3 PUSH2 0x9BA JUMP JUMPDEST POP POP JUMPDEST POP POP POP JUMP JUMPDEST PUSH0 DUP3 DUP3 SHR SWAP1 POP SWAP3 SWAP2 POP POP JUMP JUMPDEST PUSH0 PUSH2 0xA3D PUSH0 NOT DUP5 PUSH1 0x8 MUL PUSH2 0xA22 JUMP JUMPDEST NOT DUP1 DUP4 AND SWAP2 POP POP SWAP3 SWAP2 POP POP JUMP JUMPDEST PUSH0 PUSH2 0xA55 DUP4 DUP4 PUSH2 0xA2E JUMP JUMPDEST SWAP2 POP DUP3 PUSH1 0x2 MUL DUP3 OR SWAP1 POP SWAP3 SWAP2 POP POP JUMP JUMPDEST PUSH2 0xA6E DUP3 PUSH2 0x691 JUMP JUMPDEST PUSH8 0xFFFFFFFFFFFFFFFF DUP2 GT ISZERO PUSH2 0xA87 JUMPI PUSH2 0xA86 PUSH2 0x3EB JUMP JUMPDEST JUMPDEST PUSH2 0xA91 DUP3 SLOAD PUSH2 0x8A1 JUMP JUMPDEST PUSH2 0xA9C DUP3 DUP3 DUP6 PUSH2 0x9DC JUMP JUMPDEST PUSH0 PUSH1 0x20 SWAP1 POP PUSH1 0x1F DUP4 GT PUSH1 0x1 DUP2 EQ PUSH2 0xACD JUMPI PUSH0 DUP5 ISZERO PUSH2 0xABB JUMPI DUP3 DUP8 ADD MLOAD SWAP1 POP JUMPDEST PUSH2 0xAC5 DUP6 DUP3 PUSH2 0xA4A JUMP JUMPDEST DUP7 SSTORE POP PUSH2 0xB2C JUMP JUMPDEST PUSH1 0x1F NOT DUP5 AND PUSH2 0xADB DUP7 PUSH2 0x8D1 JUMP JUMPDEST PUSH0 JUMPDEST DUP3 DUP2 LT ISZERO PUSH2 0xB02 JUMPI DUP5 DUP10 ADD MLOAD DUP3 SSTORE PUSH1 0x1 DUP3 ADD SWAP2 POP PUSH1 0x20 DUP6 ADD SWAP5 POP PUSH1 0x20 DUP2 ADD SWAP1 POP PUSH2 0xADD JUMP JUMPDEST DUP7 DUP4 LT ISZERO PUSH2 0xB1F JUMPI DUP5 DUP10 ADD MLOAD PUSH2 0xB1B PUSH1 0x1F DUP10 AND DUP3 PUSH2 0xA2E JUMP JUMPDEST DUP4 SSTORE POP JUMPDEST PUSH1 0x1 PUSH1 0x2 DUP9 MUL ADD DUP9 SSTORE POP POP POP JUMPDEST POP POP POP POP POP POP JUMP JUMPDEST PUSH1 0x7 DUP2 LT PUSH2 0xB45 JUMPI PUSH2 0xB44 PUSH2 0x7E7 JUMP JUMPDEST JUMPDEST POP JUMP JUMPDEST PUSH0 DUP2 SWAP1 POP PUSH2 0xB55 DUP3 PUSH2 0xB34 JUMP JUMPDEST SWAP2 SWAP1 POP JUMP JUMPDEST PUSH0 PUSH2 0xB64 DUP3 PUSH2 0xB48 JUMP JUMPDEST SWAP1 POP SWAP2 SWAP1 POP JUMP JUMPDEST PUSH2 0xB74 DUP2 PUSH2 0xB5A JUMP JUMPDEST DUP3 MSTORE POP POP JUMP JUMPDEST PUSH0 PUSH1 0x40 DUP3 ADD SWAP1 POP PUSH2 0xB8D PUSH0 DUP4 ADD DUP6 PUSH2 0xB6B JUMP JUMPDEST DUP2 DUP2 SUB PUSH1 0x20 DUP4 ADD MSTORE PUSH2 0xB9F DUP2 DUP5 PUSH2 0x6B9 JUMP JUMPDEST SWAP1 POP SWAP4 SWAP3 POP POP POP JUMP INVALID LOG2 PUSH5 0x6970667358 0x22 SLT KECCAK256 PUSH21 0x81CDEA59530997D3A2B156A65C029A9FABE4CBDD05 CALLDATALOAD OR DUP4 PUSH26 0x60C502E0B39264736F6C634300081A0033000000000000000000 "
				},
				"gasEstimates": {
					"creation": {
						"codeDepositCost": "607600",
						"executionCost": "infinite",
						"totalCost": "infinite"
					},
					"external": {
						"assignRole(address,uint8,bytes32,string,uint256)": "infinite",
						"didRegistry()": "infinite",
						"zkpVerifier()": "infinite"
					}
				},
				"methodIdentifiers": {
					"assignRole(address,uint8,bytes32,string,uint256)": "20b18727",
					"didRegistry()": "577f9fb1",
					"zkpVerifier()": "6aebbd66"
				}
			},
			"storageLayout": {
				"storage": [
					{
						"astId": 28,
						"contract": "contracts/EnhancedRBAC.sol:EnhancedRBAC",
						"label": "userRoles",
						"offset": 0,
						"slot": "0",
						"type": "t_mapping(t_address,t_struct(RoleData)23_storage)"
					},
					{
						"astId": 35,
						"contract": "contracts/EnhancedRBAC.sol:EnhancedRBAC",
						"label": "rolePermissions",
						"offset": 0,
						"slot": "1",
						"type": "t_mapping(t_enum(Role)11,t_mapping(t_string_memory_ptr,t_bool))"
					},
					{
						"astId": 38,
						"contract": "contracts/EnhancedRBAC.sol:EnhancedRBAC",
						"label": "didRegistry",
						"offset": 0,
						"slot": "2",
						"type": "t_contract(IDIDRegistry)225"
					},
					{
						"astId": 41,
						"contract": "contracts/EnhancedRBAC.sol:EnhancedRBAC",
						"label": "zkpVerifier",
						"offset": 0,
						"slot": "3",
						"type": "t_contract(ZKPVerifier)445"
					}
				],
				"types": {
					"t_address": {
						"encoding": "inplace",
						"label": "address",
						"numberOfBytes": "20"
					},
					"t_bool": {
						"encoding": "inplace",
						"label": "bool",
						"numberOfBytes": "1"
					},
					"t_bytes32": {
						"encoding": "inplace",
						"label": "bytes32",
						"numberOfBytes": "32"
					},
					"t_contract(IDIDRegistry)225": {
						"encoding": "inplace",
						"label": "contract IDIDRegistry",
						"numberOfBytes": "20"
					},
					"t_contract(ZKPVerifier)445": {
						"encoding": "inplace",
						"label": "contract ZKPVerifier",
						"numberOfBytes": "20"
					},
					"t_enum(Role)11": {
						"encoding": "inplace",
						"label": "enum EnhancedRBAC.Role",
						"numberOfBytes": "1"
					},
					"t_mapping(t_address,t_struct(RoleData)23_storage)": {
						"encoding": "mapping",
						"key": "t_address",
						"label": "mapping(address => struct EnhancedRBAC.RoleData)",
						"numberOfBytes": "32",
						"value": "t_struct(RoleData)23_storage"
					},
					"t_mapping(t_enum(Role)11,t_mapping(t_string_memory_ptr,t_bool))": {
						"encoding": "mapping",
						"key": "t_enum(Role)11",
						"label": "mapping(enum EnhancedRBAC.Role => mapping(string => bool))",
						"numberOfBytes": "32",
						"value": "t_mapping(t_string_memory_ptr,t_bool)"
					},
					"t_mapping(t_string_memory_ptr,t_bool)": {
						"encoding": "mapping",
						"key": "t_string_memory_ptr",
						"label": "mapping(string => bool)",
						"numberOfBytes": "32",
						"value": "t_bool"
					},
					"t_string_memory_ptr": {
						"encoding": "bytes",
						"label": "string",
						"numberOfBytes": "32"
					},
					"t_string_storage": {
						"encoding": "bytes",
						"label": "string",
						"numberOfBytes": "32"
					},
					"t_struct(RoleData)23_storage": {
						"encoding": "inplace",
						"label": "struct EnhancedRBAC.RoleData",
						"members": [
							{
								"astId": 14,
								"contract": "contracts/EnhancedRBAC.sol:EnhancedRBAC",
								"label": "role",
								"offset": 0,
								"slot": "0",
								"type": "t_enum(Role)11"
							},
							{
								"astId": 16,
								"contract": "contracts/EnhancedRBAC.sol:EnhancedRBAC",
								"label": "isActive",
								"offset": 1,
								"slot": "0",
								"type": "t_bool"
							},
							{
								"astId": 18,
								"contract": "contracts/EnhancedRBAC.sol:EnhancedRBAC",
								"label": "validUntil",
								"offset": 0,
								"slot": "1",
								"type": "t_uint256"
							},
							{
								"astId": 20,
								"contract": "contracts/EnhancedRBAC.sol:EnhancedRBAC",
								"label": "roleCredential",
								"offset": 0,
								"slot": "2",
								"type": "t_bytes32"
							},
							{
								"astId": 22,
								"contract": "contracts/EnhancedRBAC.sol:EnhancedRBAC",
								"label": "did",
								"offset": 0,
								"slot": "3",
								"type": "t_string_storage"
							}
						],
						"numberOfBytes": "128"
					},
					"t_uint256": {
						"encoding": "inplace",
						"label": "uint256",
						"numberOfBytes": "32"
					}
				}
			},
			"userdoc": {
				"kind": "user",
				"methods": {},
				"version": 1
			}
		}
	}
}