{
	"contracts/ZKPVerifier.sol": {
		"ZKPVerifier": {
			"abi": [
				{
					"anonymous": false,
					"inputs": [
						{
							"indexed": true,
							"internalType": "address",
							"name": "user",
							"type": "address"
						},
						{
							"indexed": false,
							"internalType": "bytes32",
							"name": "proofHash",
							"type": "bytes32"
						}
					],
					"name": "ProofSubmitted",
					"type": "event"
				},
				{
					"anonymous": false,
					"inputs": [
						{
							"indexed": true,
							"internalType": "address",
							"name": "user",
							"type": "address"
						},
						{
							"indexed": false,
							"internalType": "bool",
							"name": "success",
							"type": "bool"
						}
					],
					"name": "ProofVerified",
					"type": "event"
				},
				{
					"inputs": [
						{
							"internalType": "address",
							"name": "user",
							"type": "address"
						}
					],
					"name": "getProofDetails",
					"outputs": [
						{
							"internalType": "bytes32",
							"name": "roleHash",
							"type": "bytes32"
						},
						{
							"internalType": "uint256",
							"name": "timestamp",
							"type": "uint256"
						},
						{
							"internalType": "bool",
							"name": "isValid",
							"type": "bool"
						}
					],
					"stateMutability": "view",
					"type": "function"
				},
				{
					"inputs": [
						{
							"internalType": "address",
							"name": "user",
							"type": "address"
						}
					],
					"name": "hasValidProof",
					"outputs": [
						{
							"internalType": "bool",
							"name": "",
							"type": "bool"
						}
					],
					"stateMutability": "view",
					"type": "function"
				},
				{
					"inputs": [
						{
							"internalType": "address",
							"name": "user",
							"type": "address"
						}
					],
					"name": "invalidateProof",
					"outputs": [],
					"stateMutability": "nonpayable",
					"type": "function"
				},
				{
					"inputs": [
						{
							"internalType": "address",
							"name": "",
							"type": "address"
						}
					],
					"name": "roleProofs",
					"outputs": [
						{
							"internalType": "bytes32",
							"name": "",
							"type": "bytes32"
						}
					],
					"stateMutability": "view",
					"type": "function"
				},
				{
					"inputs": [
						{
							"internalType": "bytes32",
							"name": "proofHash",
							"type": "bytes32"
						}
					],
					"name": "submitProof",
					"outputs": [],
					"stateMutability": "nonpayable",
					"type": "function"
				},
				{
					"inputs": [
						{
							"internalType": "address",
							"name": "",
							"type": "address"
						}
					],
					"name": "userProofs",
					"outputs": [
						{
							"internalType": "bytes32",
							"name": "roleHash",
							"type": "bytes32"
						},
						{
							"internalType": "uint256",
							"name": "timestamp",
							"type": "uint256"
						},
						{
							"internalType": "bool",
							"name": "isValid",
							"type": "bool"
						}
					],
					"stateMutability": "view",
					"type": "function"
				},
				{
					"inputs": [
						{
							"internalType": "address",
							"name": "user",
							"type": "address"
						},
						{
							"internalType": "bytes32",
							"name": "roleHash",
							"type": "bytes32"
						}
					],
					"name": "validateProof",
					"outputs": [
						{
							"internalType": "bool",
							"name": "",
							"type": "bool"
						}
					],
					"stateMutability": "view",
					"type": "function"
				},
				{
					"inputs": [
						{
							"internalType": "address",
							"name": "user",
							"type": "address"
						},
						{
							"internalType": "bytes32",
							"name": "roleHash",
							"type": "bytes32"
						},
						{
							"internalType": "bytes",
							"name": "",
							"type": "bytes"
						}
					],
					"name": "verifyProof",
					"outputs": [
						{
							"internalType": "bool",
							"name": "",
							"type": "bool"
						}
					],
					"stateMutability": "nonpayable",
					"type": "function"
				}
			],
			"devdoc": {
				"kind": "dev",
				"methods": {},
				"version": 1
			},
			"evm": {
				"assembly": "    /* \"contracts/ZKPVerifier.sol\":60:2480  contract ZKPVerifier {... */\n  mstore(0x40, 0x80)\n  callvalue\n  dup1\n  iszero\n  tag_1\n  jumpi\n  0x00\n  dup1\n  revert\ntag_1:\n  pop\n  dataSize(sub_0)\n  dup1\n  dataOffset(sub_0)\n  0x00\n  codecopy\n  0x00\n  return\nstop\n\nsub_0: assembly {\n        /* \"contracts/ZKPVerifier.sol\":60:2480  contract ZKPVerifier {... */\n      mstore(0x40, 0x80)\n      callvalue\n      dup1\n      iszero\n      tag_1\n      jumpi\n      0x00\n      dup1\n      revert\n    tag_1:\n      pop\n      jumpi(tag_2, lt(calldatasize, 0x04))\n      shr(0xe0, calldataload(0x00))\n      dup1\n      0x98dfd0a7\n      gt\n      tag_11\n      jumpi\n      dup1\n      0x98dfd0a7\n      eq\n      tag_7\n      jumpi\n      dup1\n      0xaa74233e\n      eq\n      tag_8\n      jumpi\n      dup1\n      0xbf084408\n      eq\n      tag_9\n      jumpi\n      dup1\n      0xeee44448\n      eq\n      tag_10\n      jumpi\n      jump(tag_2)\n    tag_11:\n      dup1\n      0x01ae8b7b\n      eq\n      tag_3\n      jumpi\n      dup1\n      0x22b824ab\n      eq\n      tag_4\n      jumpi\n      dup1\n      0x56e377d6\n      eq\n      tag_5\n      jumpi\n      dup1\n      0x66ca5b72\n      eq\n      tag_6\n      jumpi\n    tag_2:\n      0x00\n      dup1\n      revert\n        /* \"contracts/ZKPVerifier.sol\":1732:1846  function hasValidProof(address user) public view returns (bool) {... */\n    tag_3:\n      tag_12\n      0x04\n      dup1\n      calldatasize\n      sub\n      dup2\n      add\n      swap1\n      tag_13\n      swap2\n      swap1\n      tag_14\n      jump\t// in\n    tag_13:\n      tag_15\n      jump\t// in\n    tag_12:\n      mload(0x40)\n      tag_16\n      swap2\n      swap1\n      tag_17\n      jump\t// in\n    tag_16:\n      mload(0x40)\n      dup1\n      swap2\n      sub\n      swap1\n      return\n        /* \"contracts/ZKPVerifier.sol\":554:601  mapping(address => RoleProof) public userProofs */\n    tag_4:\n      tag_18\n      0x04\n      dup1\n      calldatasize\n      sub\n      dup2\n      add\n      swap1\n      tag_19\n      swap2\n      swap1\n      tag_14\n      jump\t// in\n    tag_19:\n      tag_20\n      jump\t// in\n    tag_18:\n      mload(0x40)\n      tag_21\n      swap4\n      swap3\n      swap2\n      swap1\n      tag_22\n      jump\t// in\n    tag_21:\n      mload(0x40)\n      dup1\n      swap2\n      sub\n      swap1\n      return\n        /* \"contracts/ZKPVerifier.sol\":1048:1370  function verifyProof(... */\n    tag_5:\n      tag_23\n      0x04\n      dup1\n      calldatasize\n      sub\n      dup2\n      add\n      swap1\n      tag_24\n      swap2\n      swap1\n      tag_25\n      jump\t// in\n    tag_24:\n      tag_26\n      jump\t// in\n    tag_23:\n      mload(0x40)\n      tag_27\n      swap2\n      swap1\n      tag_17\n      jump\t// in\n    tag_27:\n      mload(0x40)\n      dup1\n      swap2\n      sub\n      swap1\n      return\n        /* \"contracts/ZKPVerifier.sol\":2262:2477  function invalidateProof(address user) public {... */\n    tag_6:\n      tag_28\n      0x04\n      dup1\n      calldatasize\n      sub\n      dup2\n      add\n      swap1\n      tag_29\n      swap2\n      swap1\n      tag_14\n      jump\t// in\n    tag_29:\n      tag_30\n      jump\t// in\n    tag_28:\n      stop\n        /* \"contracts/ZKPVerifier.sol\":1445:1670  function validateProof(... */\n    tag_7:\n      tag_31\n      0x04\n      dup1\n      calldatasize\n      sub\n      dup2\n      add\n      swap1\n      tag_32\n      swap2\n      swap1\n      tag_33\n      jump\t// in\n    tag_32:\n      tag_34\n      jump\t// in\n    tag_31:\n      mload(0x40)\n      tag_35\n      swap2\n      swap1\n      tag_17\n      jump\t// in\n    tag_35:\n      mload(0x40)\n      dup1\n      swap2\n      sub\n      swap1\n      return\n        /* \"contracts/ZKPVerifier.sol\":1892:2215  function getProofDetails(address user) ... */\n    tag_8:\n      tag_36\n      0x04\n      dup1\n      calldatasize\n      sub\n      dup2\n      add\n      swap1\n      tag_37\n      swap2\n      swap1\n      tag_14\n      jump\t// in\n    tag_37:\n      tag_38\n      jump\t// in\n    tag_36:\n      mload(0x40)\n      tag_39\n      swap4\n      swap3\n      swap2\n      swap1\n      tag_22\n      jump\t// in\n    tag_39:\n      mload(0x40)\n      dup1\n      swap2\n      sub\n      swap1\n      return\n        /* \"contracts/ZKPVerifier.sol\":660:994  function submitProof(bytes32 proofHash) public {... */\n    tag_9:\n      tag_40\n      0x04\n      dup1\n      calldatasize\n      sub\n      dup2\n      add\n      swap1\n      tag_41\n      swap2\n      swap1\n      tag_42\n      jump\t// in\n    tag_41:\n      tag_43\n      jump\t// in\n    tag_40:\n      stop\n        /* \"contracts/ZKPVerifier.sol\":138:183  mapping(address => bytes32) public roleProofs */\n    tag_10:\n      tag_44\n      0x04\n      dup1\n      calldatasize\n      sub\n      dup2\n      add\n      swap1\n      tag_45\n      swap2\n      swap1\n      tag_14\n      jump\t// in\n    tag_45:\n      tag_46\n      jump\t// in\n    tag_44:\n      mload(0x40)\n      tag_47\n      swap2\n      swap1\n      tag_48\n      jump\t// in\n    tag_47:\n      mload(0x40)\n      dup1\n      swap2\n      sub\n      swap1\n      return\n        /* \"contracts/ZKPVerifier.sol\":1732:1846  function hasValidProof(address user) public view returns (bool) {... */\n    tag_15:\n        /* \"contracts/ZKPVerifier.sol\":1790:1794  bool */\n      0x00\n        /* \"contracts/ZKPVerifier.sol\":1814:1824  userProofs */\n      0x01\n        /* \"contracts/ZKPVerifier.sol\":1814:1830  userProofs[user] */\n      0x00\n        /* \"contracts/ZKPVerifier.sol\":1825:1829  user */\n      dup4\n        /* \"contracts/ZKPVerifier.sol\":1814:1830  userProofs[user] */\n      0xffffffffffffffffffffffffffffffffffffffff\n      and\n      0xffffffffffffffffffffffffffffffffffffffff\n      and\n      dup2\n      mstore\n      0x20\n      add\n      swap1\n      dup2\n      mstore\n      0x20\n      add\n      0x00\n      keccak256\n        /* \"contracts/ZKPVerifier.sol\":1814:1838  userProofs[user].isValid */\n      0x02\n      add\n      0x00\n      swap1\n      sload\n      swap1\n      0x0100\n      exp\n      swap1\n      div\n      0xff\n      and\n        /* \"contracts/ZKPVerifier.sol\":1807:1838  return userProofs[user].isValid */\n      swap1\n      pop\n        /* \"contracts/ZKPVerifier.sol\":1732:1846  function hasValidProof(address user) public view returns (bool) {... */\n      swap2\n      swap1\n      pop\n      jump\t// out\n        /* \"contracts/ZKPVerifier.sol\":554:601  mapping(address => RoleProof) public userProofs */\n    tag_20:\n      mstore(0x20, 0x01)\n      dup1\n      0x00\n      mstore\n      keccak256(0x00, 0x40)\n      0x00\n      swap2\n      pop\n      swap1\n      pop\n      dup1\n      0x00\n      add\n      sload\n      swap1\n      dup1\n      0x01\n      add\n      sload\n      swap1\n      dup1\n      0x02\n      add\n      0x00\n      swap1\n      sload\n      swap1\n      0x0100\n      exp\n      swap1\n      div\n      0xff\n      and\n      swap1\n      pop\n      dup4\n      jump\t// out\n        /* \"contracts/ZKPVerifier.sol\":1048:1370  function verifyProof(... */\n    tag_26:\n        /* \"contracts/ZKPVerifier.sol\":1177:1181  bool */\n      0x00\n        /* \"contracts/ZKPVerifier.sol\":1194:1206  bool isValid */\n      dup1\n        /* \"contracts/ZKPVerifier.sol\":1209:1238  validateProof(user, roleHash) */\n      tag_51\n        /* \"contracts/ZKPVerifier.sol\":1223:1227  user */\n      dup6\n        /* \"contracts/ZKPVerifier.sol\":1229:1237  roleHash */\n      dup6\n        /* \"contracts/ZKPVerifier.sol\":1209:1222  validateProof */\n      tag_34\n        /* \"contracts/ZKPVerifier.sol\":1209:1238  validateProof(user, roleHash) */\n      jump\t// in\n    tag_51:\n        /* \"contracts/ZKPVerifier.sol\":1194:1238  bool isValid = validateProof(user, roleHash) */\n      swap1\n      pop\n        /* \"contracts/ZKPVerifier.sol\":1286:1293  isValid */\n      dup1\n        /* \"contracts/ZKPVerifier.sol\":1259:1269  userProofs */\n      0x01\n        /* \"contracts/ZKPVerifier.sol\":1259:1275  userProofs[user] */\n      0x00\n        /* \"contracts/ZKPVerifier.sol\":1270:1274  user */\n      dup8\n        /* \"contracts/ZKPVerifier.sol\":1259:1275  userProofs[user] */\n      0xffffffffffffffffffffffffffffffffffffffff\n      and\n      0xffffffffffffffffffffffffffffffffffffffff\n      and\n      dup2\n      mstore\n      0x20\n      add\n      swap1\n      dup2\n      mstore\n      0x20\n      add\n      0x00\n      keccak256\n        /* \"contracts/ZKPVerifier.sol\":1259:1283  userProofs[user].isValid */\n      0x02\n      add\n      0x00\n        /* \"contracts/ZKPVerifier.sol\":1259:1293  userProofs[user].isValid = isValid */\n      0x0100\n      exp\n      dup2\n      sload\n      dup2\n      0xff\n      mul\n      not\n      and\n      swap1\n      dup4\n      iszero\n      iszero\n      mul\n      or\n      swap1\n      sstore\n      pop\n        /* \"contracts/ZKPVerifier.sol\":1323:1327  user */\n      dup5\n        /* \"contracts/ZKPVerifier.sol\":1309:1337  ProofVerified(user, isValid) */\n      0xffffffffffffffffffffffffffffffffffffffff\n      and\n      0x67138ba576c85b9348a42249a156ac9e82c361ab57372970c581a0c36c9673e9\n        /* \"contracts/ZKPVerifier.sol\":1329:1336  isValid */\n      dup3\n        /* \"contracts/ZKPVerifier.sol\":1309:1337  ProofVerified(user, isValid) */\n      mload(0x40)\n      tag_52\n      swap2\n      swap1\n      tag_17\n      jump\t// in\n    tag_52:\n      mload(0x40)\n      dup1\n      swap2\n      sub\n      swap1\n      log2\n        /* \"contracts/ZKPVerifier.sol\":1355:1362  isValid */\n      dup1\n        /* \"contracts/ZKPVerifier.sol\":1348:1362  return isValid */\n      swap2\n      pop\n      pop\n        /* \"contracts/ZKPVerifier.sol\":1048:1370  function verifyProof(... */\n      swap4\n      swap3\n      pop\n      pop\n      pop\n      jump\t// out\n        /* \"contracts/ZKPVerifier.sol\":2262:2477  function invalidateProof(address user) public {... */\n    tag_30:\n        /* \"contracts/ZKPVerifier.sol\":2422:2427  false */\n      0x00\n        /* \"contracts/ZKPVerifier.sol\":2395:2405  userProofs */\n      0x01\n        /* \"contracts/ZKPVerifier.sol\":2395:2411  userProofs[user] */\n      0x00\n        /* \"contracts/ZKPVerifier.sol\":2406:2410  user */\n      dup4\n        /* \"contracts/ZKPVerifier.sol\":2395:2411  userProofs[user] */\n      0xffffffffffffffffffffffffffffffffffffffff\n      and\n      0xffffffffffffffffffffffffffffffffffffffff\n      and\n      dup2\n      mstore\n      0x20\n      add\n      swap1\n      dup2\n      mstore\n      0x20\n      add\n      0x00\n      keccak256\n        /* \"contracts/ZKPVerifier.sol\":2395:2419  userProofs[user].isValid */\n      0x02\n      add\n      0x00\n        /* \"contracts/ZKPVerifier.sol\":2395:2427  userProofs[user].isValid = false */\n      0x0100\n      exp\n      dup2\n      sload\n      dup2\n      0xff\n      mul\n      not\n      and\n      swap1\n      dup4\n      iszero\n      iszero\n      mul\n      or\n      swap1\n      sstore\n      pop\n        /* \"contracts/ZKPVerifier.sol\":2457:2461  user */\n      dup1\n        /* \"contracts/ZKPVerifier.sol\":2443:2469  ProofVerified(user, false) */\n      0xffffffffffffffffffffffffffffffffffffffff\n      and\n      0x67138ba576c85b9348a42249a156ac9e82c361ab57372970c581a0c36c9673e9\n        /* \"contracts/ZKPVerifier.sol\":2463:2468  false */\n      0x00\n        /* \"contracts/ZKPVerifier.sol\":2443:2469  ProofVerified(user, false) */\n      mload(0x40)\n      tag_54\n      swap2\n      swap1\n      tag_17\n      jump\t// in\n    tag_54:\n      mload(0x40)\n      dup1\n      swap2\n      sub\n      swap1\n      log2\n        /* \"contracts/ZKPVerifier.sol\":2262:2477  function invalidateProof(address user) public {... */\n      pop\n      jump\t// out\n        /* \"contracts/ZKPVerifier.sol\":1445:1670  function validateProof(... */\n    tag_34:\n        /* \"contracts/ZKPVerifier.sol\":1546:1550  bool */\n      0x00\n        /* \"contracts/ZKPVerifier.sol\":1654:1662  roleHash */\n      dup2\n        /* \"contracts/ZKPVerifier.sol\":1634:1644  roleProofs */\n      0x00\n        /* \"contracts/ZKPVerifier.sol\":1634:1650  roleProofs[user] */\n      dup1\n        /* \"contracts/ZKPVerifier.sol\":1645:1649  user */\n      dup6\n        /* \"contracts/ZKPVerifier.sol\":1634:1650  roleProofs[user] */\n      0xffffffffffffffffffffffffffffffffffffffff\n      and\n      0xffffffffffffffffffffffffffffffffffffffff\n      and\n      dup2\n      mstore\n      0x20\n      add\n      swap1\n      dup2\n      mstore\n      0x20\n      add\n      0x00\n      keccak256\n      sload\n        /* \"contracts/ZKPVerifier.sol\":1634:1662  roleProofs[user] == roleHash */\n      eq\n        /* \"contracts/ZKPVerifier.sol\":1627:1662  return roleProofs[user] == roleHash */\n      swap1\n      pop\n        /* \"contracts/ZKPVerifier.sol\":1445:1670  function validateProof(... */\n      swap3\n      swap2\n      pop\n      pop\n      jump\t// out\n        /* \"contracts/ZKPVerifier.sol\":1892:2215  function getProofDetails(address user) ... */\n    tag_38:\n        /* \"contracts/ZKPVerifier.sol\":1996:2012  bytes32 roleHash */\n      0x00\n        /* \"contracts/ZKPVerifier.sol\":2027:2044  uint256 timestamp */\n      dup1\n        /* \"contracts/ZKPVerifier.sol\":2059:2071  bool isValid */\n      0x00\n        /* \"contracts/ZKPVerifier.sol\":2100:2122  RoleProof memory proof */\n      dup1\n        /* \"contracts/ZKPVerifier.sol\":2125:2135  userProofs */\n      0x01\n        /* \"contracts/ZKPVerifier.sol\":2125:2141  userProofs[user] */\n      0x00\n        /* \"contracts/ZKPVerifier.sol\":2136:2140  user */\n      dup7\n        /* \"contracts/ZKPVerifier.sol\":2125:2141  userProofs[user] */\n      0xffffffffffffffffffffffffffffffffffffffff\n      and\n      0xffffffffffffffffffffffffffffffffffffffff\n      and\n      dup2\n      mstore\n      0x20\n      add\n      swap1\n      dup2\n      mstore\n      0x20\n      add\n      0x00\n      keccak256\n        /* \"contracts/ZKPVerifier.sol\":2100:2141  RoleProof memory proof = userProofs[user] */\n      mload(0x40)\n      dup1\n      0x60\n      add\n      0x40\n      mstore\n      swap1\n      dup2\n      0x00\n      dup3\n      add\n      sload\n      dup2\n      mstore\n      0x20\n      add\n      0x01\n      dup3\n      add\n      sload\n      dup2\n      mstore\n      0x20\n      add\n      0x02\n      dup3\n      add\n      0x00\n      swap1\n      sload\n      swap1\n      0x0100\n      exp\n      swap1\n      div\n      0xff\n      and\n      iszero\n      iszero\n      iszero\n      iszero\n      dup2\n      mstore\n      pop\n      pop\n      swap1\n      pop\n        /* \"contracts/ZKPVerifier.sol\":2160:2165  proof */\n      dup1\n        /* \"contracts/ZKPVerifier.sol\":2160:2174  proof.roleHash */\n      0x00\n      add\n      mload\n        /* \"contracts/ZKPVerifier.sol\":2176:2181  proof */\n      dup2\n        /* \"contracts/ZKPVerifier.sol\":2176:2191  proof.timestamp */\n      0x20\n      add\n      mload\n        /* \"contracts/ZKPVerifier.sol\":2193:2198  proof */\n      dup3\n        /* \"contracts/ZKPVerifier.sol\":2193:2206  proof.isValid */\n      0x40\n      add\n      mload\n        /* \"contracts/ZKPVerifier.sol\":2152:2207  return (proof.roleHash, proof.timestamp, proof.isValid) */\n      swap4\n      pop\n      swap4\n      pop\n      swap4\n      pop\n      pop\n        /* \"contracts/ZKPVerifier.sol\":1892:2215  function getProofDetails(address user) ... */\n      swap2\n      swap4\n      swap1\n      swap3\n      pop\n      jump\t// out\n        /* \"contracts/ZKPVerifier.sol\":660:994  function submitProof(bytes32 proofHash) public {... */\n    tag_43:\n        /* \"contracts/ZKPVerifier.sol\":743:752  proofHash */\n      dup1\n        /* \"contracts/ZKPVerifier.sol\":718:728  roleProofs */\n      0x00\n        /* \"contracts/ZKPVerifier.sol\":718:740  roleProofs[msg.sender] */\n      dup1\n        /* \"contracts/ZKPVerifier.sol\":729:739  msg.sender */\n      caller\n        /* \"contracts/ZKPVerifier.sol\":718:740  roleProofs[msg.sender] */\n      0xffffffffffffffffffffffffffffffffffffffff\n      and\n      0xffffffffffffffffffffffffffffffffffffffff\n      and\n      dup2\n      mstore\n      0x20\n      add\n      swap1\n      dup2\n      mstore\n      0x20\n      add\n      0x00\n      keccak256\n        /* \"contracts/ZKPVerifier.sol\":718:752  roleProofs[msg.sender] = proofHash */\n      dup2\n      swap1\n      sstore\n      pop\n        /* \"contracts/ZKPVerifier.sol\":798:923  RoleProof({... */\n      mload(0x40)\n      dup1\n      0x60\n      add\n      0x40\n      mstore\n      dup1\n        /* \"contracts/ZKPVerifier.sol\":833:842  proofHash */\n      dup3\n        /* \"contracts/ZKPVerifier.sol\":798:923  RoleProof({... */\n      dup2\n      mstore\n      0x20\n      add\n        /* \"contracts/ZKPVerifier.sol\":868:883  block.timestamp */\n      timestamp\n        /* \"contracts/ZKPVerifier.sol\":798:923  RoleProof({... */\n      dup2\n      mstore\n      0x20\n      add\n        /* \"contracts/ZKPVerifier.sol\":907:911  true */\n      0x01\n        /* \"contracts/ZKPVerifier.sol\":798:923  RoleProof({... */\n      iszero\n      iszero\n      dup2\n      mstore\n      pop\n        /* \"contracts/ZKPVerifier.sol\":773:783  userProofs */\n      0x01\n        /* \"contracts/ZKPVerifier.sol\":773:795  userProofs[msg.sender] */\n      0x00\n        /* \"contracts/ZKPVerifier.sol\":784:794  msg.sender */\n      caller\n        /* \"contracts/ZKPVerifier.sol\":773:795  userProofs[msg.sender] */\n      0xffffffffffffffffffffffffffffffffffffffff\n      and\n      0xffffffffffffffffffffffffffffffffffffffff\n      and\n      dup2\n      mstore\n      0x20\n      add\n      swap1\n      dup2\n      mstore\n      0x20\n      add\n      0x00\n      keccak256\n        /* \"contracts/ZKPVerifier.sol\":773:923  userProofs[msg.sender] = RoleProof({... */\n      0x00\n      dup3\n      add\n      mload\n      dup2\n      0x00\n      add\n      sstore\n      0x20\n      dup3\n      add\n      mload\n      dup2\n      0x01\n      add\n      sstore\n      0x40\n      dup3\n      add\n      mload\n      dup2\n      0x02\n      add\n      exp(0x0100, 0x00)\n      dup2\n      sload\n      dup2\n      0xff\n      mul\n      not\n      and\n      swap1\n      dup4\n      iszero\n      iszero\n      mul\n      or\n      swap1\n      sstore\n      pop\n      swap1\n      pop\n      pop\n        /* \"contracts/ZKPVerifier.sol\":964:974  msg.sender */\n      caller\n        /* \"contracts/ZKPVerifier.sol\":949:986  ProofSubmitted(msg.sender, proofHash) */\n      0xffffffffffffffffffffffffffffffffffffffff\n      and\n      0x6001ac408879869d65636618cd8495cce3026445823e6de88d46ade8a9c81c79\n        /* \"contracts/ZKPVerifier.sol\":976:985  proofHash */\n      dup3\n        /* \"contracts/ZKPVerifier.sol\":949:986  ProofSubmitted(msg.sender, proofHash) */\n      mload(0x40)\n      tag_58\n      swap2\n      swap1\n      tag_48\n      jump\t// in\n    tag_58:\n      mload(0x40)\n      dup1\n      swap2\n      sub\n      swap1\n      log2\n        /* \"contracts/ZKPVerifier.sol\":660:994  function submitProof(bytes32 proofHash) public {... */\n      pop\n      jump\t// out\n        /* \"contracts/ZKPVerifier.sol\":138:183  mapping(address => bytes32) public roleProofs */\n    tag_46:\n      mstore(0x20, 0x00)\n      dup1\n      0x00\n      mstore\n      keccak256(0x00, 0x40)\n      0x00\n      swap2\n      pop\n      swap1\n      pop\n      sload\n      dup2\n      jump\t// out\n        /* \"#utility.yul\":7:82   */\n    tag_59:\n        /* \"#utility.yul\":40:46   */\n      0x00\n        /* \"#utility.yul\":73:75   */\n      0x40\n        /* \"#utility.yul\":67:76   */\n      mload\n        /* \"#utility.yul\":57:76   */\n      swap1\n      pop\n        /* \"#utility.yul\":7:82   */\n      swap1\n      jump\t// out\n        /* \"#utility.yul\":88:205   */\n    tag_60:\n        /* \"#utility.yul\":197:198   */\n      0x00\n        /* \"#utility.yul\":194:195   */\n      dup1\n        /* \"#utility.yul\":187:199   */\n      revert\n        /* \"#utility.yul\":211:328   */\n    tag_61:\n        /* \"#utility.yul\":320:321   */\n      0x00\n        /* \"#utility.yul\":317:318   */\n      dup1\n        /* \"#utility.yul\":310:322   */\n      revert\n        /* \"#utility.yul\":334:460   */\n    tag_62:\n        /* \"#utility.yul\":371:378   */\n      0x00\n        /* \"#utility.yul\":411:453   */\n      0xffffffffffffffffffffffffffffffffffffffff\n        /* \"#utility.yul\":404:409   */\n      dup3\n        /* \"#utility.yul\":400:454   */\n      and\n        /* \"#utility.yul\":389:454   */\n      swap1\n      pop\n        /* \"#utility.yul\":334:460   */\n      swap2\n      swap1\n      pop\n      jump\t// out\n        /* \"#utility.yul\":466:562   */\n    tag_63:\n        /* \"#utility.yul\":503:510   */\n      0x00\n        /* \"#utility.yul\":532:556   */\n      tag_90\n        /* \"#utility.yul\":550:555   */\n      dup3\n        /* \"#utility.yul\":532:556   */\n      tag_62\n      jump\t// in\n    tag_90:\n        /* \"#utility.yul\":521:556   */\n      swap1\n      pop\n        /* \"#utility.yul\":466:562   */\n      swap2\n      swap1\n      pop\n      jump\t// out\n        /* \"#utility.yul\":568:690   */\n    tag_64:\n        /* \"#utility.yul\":641:665   */\n      tag_92\n        /* \"#utility.yul\":659:664   */\n      dup2\n        /* \"#utility.yul\":641:665   */\n      tag_63\n      jump\t// in\n    tag_92:\n        /* \"#utility.yul\":634:639   */\n      dup2\n        /* \"#utility.yul\":631:666   */\n      eq\n        /* \"#utility.yul\":621:684   */\n      tag_93\n      jumpi\n        /* \"#utility.yul\":680:681   */\n      0x00\n        /* \"#utility.yul\":677:678   */\n      dup1\n        /* \"#utility.yul\":670:682   */\n      revert\n        /* \"#utility.yul\":621:684   */\n    tag_93:\n        /* \"#utility.yul\":568:690   */\n      pop\n      jump\t// out\n        /* \"#utility.yul\":696:835   */\n    tag_65:\n        /* \"#utility.yul\":742:747   */\n      0x00\n        /* \"#utility.yul\":780:786   */\n      dup2\n        /* \"#utility.yul\":767:787   */\n      calldataload\n        /* \"#utility.yul\":758:787   */\n      swap1\n      pop\n        /* \"#utility.yul\":796:829   */\n      tag_95\n        /* \"#utility.yul\":823:828   */\n      dup2\n        /* \"#utility.yul\":796:829   */\n      tag_64\n      jump\t// in\n    tag_95:\n        /* \"#utility.yul\":696:835   */\n      swap3\n      swap2\n      pop\n      pop\n      jump\t// out\n        /* \"#utility.yul\":841:1170   */\n    tag_14:\n        /* \"#utility.yul\":900:906   */\n      0x00\n        /* \"#utility.yul\":949:951   */\n      0x20\n        /* \"#utility.yul\":937:946   */\n      dup3\n        /* \"#utility.yul\":928:935   */\n      dup5\n        /* \"#utility.yul\":924:947   */\n      sub\n        /* \"#utility.yul\":920:952   */\n      slt\n        /* \"#utility.yul\":917:1036   */\n      iszero\n      tag_97\n      jumpi\n        /* \"#utility.yul\":955:1034   */\n      tag_98\n      tag_60\n      jump\t// in\n    tag_98:\n        /* \"#utility.yul\":917:1036   */\n    tag_97:\n        /* \"#utility.yul\":1075:1076   */\n      0x00\n        /* \"#utility.yul\":1100:1153   */\n      tag_99\n        /* \"#utility.yul\":1145:1152   */\n      dup5\n        /* \"#utility.yul\":1136:1142   */\n      dup3\n        /* \"#utility.yul\":1125:1134   */\n      dup6\n        /* \"#utility.yul\":1121:1143   */\n      add\n        /* \"#utility.yul\":1100:1153   */\n      tag_65\n      jump\t// in\n    tag_99:\n        /* \"#utility.yul\":1090:1153   */\n      swap2\n      pop\n        /* \"#utility.yul\":1046:1163   */\n      pop\n        /* \"#utility.yul\":841:1170   */\n      swap3\n      swap2\n      pop\n      pop\n      jump\t// out\n        /* \"#utility.yul\":1176:1266   */\n    tag_66:\n        /* \"#utility.yul\":1210:1217   */\n      0x00\n        /* \"#utility.yul\":1253:1258   */\n      dup2\n        /* \"#utility.yul\":1246:1259   */\n      iszero\n        /* \"#utility.yul\":1239:1260   */\n      iszero\n        /* \"#utility.yul\":1228:1260   */\n      swap1\n      pop\n        /* \"#utility.yul\":1176:1266   */\n      swap2\n      swap1\n      pop\n      jump\t// out\n        /* \"#utility.yul\":1272:1381   */\n    tag_67:\n        /* \"#utility.yul\":1353:1374   */\n      tag_102\n        /* \"#utility.yul\":1368:1373   */\n      dup2\n        /* \"#utility.yul\":1353:1374   */\n      tag_66\n      jump\t// in\n    tag_102:\n        /* \"#utility.yul\":1348:1351   */\n      dup3\n        /* \"#utility.yul\":1341:1375   */\n      mstore\n        /* \"#utility.yul\":1272:1381   */\n      pop\n      pop\n      jump\t// out\n        /* \"#utility.yul\":1387:1597   */\n    tag_17:\n        /* \"#utility.yul\":1474:1478   */\n      0x00\n        /* \"#utility.yul\":1512:1514   */\n      0x20\n        /* \"#utility.yul\":1501:1510   */\n      dup3\n        /* \"#utility.yul\":1497:1515   */\n      add\n        /* \"#utility.yul\":1489:1515   */\n      swap1\n      pop\n        /* \"#utility.yul\":1525:1590   */\n      tag_104\n        /* \"#utility.yul\":1587:1588   */\n      0x00\n        /* \"#utility.yul\":1576:1585   */\n      dup4\n        /* \"#utility.yul\":1572:1589   */\n      add\n        /* \"#utility.yul\":1563:1569   */\n      dup5\n        /* \"#utility.yul\":1525:1590   */\n      tag_67\n      jump\t// in\n    tag_104:\n        /* \"#utility.yul\":1387:1597   */\n      swap3\n      swap2\n      pop\n      pop\n      jump\t// out\n        /* \"#utility.yul\":1603:1680   */\n    tag_68:\n        /* \"#utility.yul\":1640:1647   */\n      0x00\n        /* \"#utility.yul\":1669:1674   */\n      dup2\n        /* \"#utility.yul\":1658:1674   */\n      swap1\n      pop\n        /* \"#utility.yul\":1603:1680   */\n      swap2\n      swap1\n      pop\n      jump\t// out\n        /* \"#utility.yul\":1686:1804   */\n    tag_69:\n        /* \"#utility.yul\":1773:1797   */\n      tag_107\n        /* \"#utility.yul\":1791:1796   */\n      dup2\n        /* \"#utility.yul\":1773:1797   */\n      tag_68\n      jump\t// in\n    tag_107:\n        /* \"#utility.yul\":1768:1771   */\n      dup3\n        /* \"#utility.yul\":1761:1798   */\n      mstore\n        /* \"#utility.yul\":1686:1804   */\n      pop\n      pop\n      jump\t// out\n        /* \"#utility.yul\":1810:1887   */\n    tag_70:\n        /* \"#utility.yul\":1847:1854   */\n      0x00\n        /* \"#utility.yul\":1876:1881   */\n      dup2\n        /* \"#utility.yul\":1865:1881   */\n      swap1\n      pop\n        /* \"#utility.yul\":1810:1887   */\n      swap2\n      swap1\n      pop\n      jump\t// out\n        /* \"#utility.yul\":1893:2011   */\n    tag_71:\n        /* \"#utility.yul\":1980:2004   */\n      tag_110\n        /* \"#utility.yul\":1998:2003   */\n      dup2\n        /* \"#utility.yul\":1980:2004   */\n      tag_70\n      jump\t// in\n    tag_110:\n        /* \"#utility.yul\":1975:1978   */\n      dup3\n        /* \"#utility.yul\":1968:2005   */\n      mstore\n        /* \"#utility.yul\":1893:2011   */\n      pop\n      pop\n      jump\t// out\n        /* \"#utility.yul\":2017:2447   */\n    tag_22:\n        /* \"#utility.yul\":2160:2164   */\n      0x00\n        /* \"#utility.yul\":2198:2200   */\n      0x60\n        /* \"#utility.yul\":2187:2196   */\n      dup3\n        /* \"#utility.yul\":2183:2201   */\n      add\n        /* \"#utility.yul\":2175:2201   */\n      swap1\n      pop\n        /* \"#utility.yul\":2211:2282   */\n      tag_112\n        /* \"#utility.yul\":2279:2280   */\n      0x00\n        /* \"#utility.yul\":2268:2277   */\n      dup4\n        /* \"#utility.yul\":2264:2281   */\n      add\n        /* \"#utility.yul\":2255:2261   */\n      dup7\n        /* \"#utility.yul\":2211:2282   */\n      tag_69\n      jump\t// in\n    tag_112:\n        /* \"#utility.yul\":2292:2364   */\n      tag_113\n        /* \"#utility.yul\":2360:2362   */\n      0x20\n        /* \"#utility.yul\":2349:2358   */\n      dup4\n        /* \"#utility.yul\":2345:2363   */\n      add\n        /* \"#utility.yul\":2336:2342   */\n      dup6\n        /* \"#utility.yul\":2292:2364   */\n      tag_71\n      jump\t// in\n    tag_113:\n        /* \"#utility.yul\":2374:2440   */\n      tag_114\n        /* \"#utility.yul\":2436:2438   */\n      0x40\n        /* \"#utility.yul\":2425:2434   */\n      dup4\n        /* \"#utility.yul\":2421:2439   */\n      add\n        /* \"#utility.yul\":2412:2418   */\n      dup5\n        /* \"#utility.yul\":2374:2440   */\n      tag_67\n      jump\t// in\n    tag_114:\n        /* \"#utility.yul\":2017:2447   */\n      swap5\n      swap4\n      pop\n      pop\n      pop\n      pop\n      jump\t// out\n        /* \"#utility.yul\":2453:2575   */\n    tag_72:\n        /* \"#utility.yul\":2526:2550   */\n      tag_116\n        /* \"#utility.yul\":2544:2549   */\n      dup2\n        /* \"#utility.yul\":2526:2550   */\n      tag_68\n      jump\t// in\n    tag_116:\n        /* \"#utility.yul\":2519:2524   */\n      dup2\n        /* \"#utility.yul\":2516:2551   */\n      eq\n        /* \"#utility.yul\":2506:2569   */\n      tag_117\n      jumpi\n        /* \"#utility.yul\":2565:2566   */\n      0x00\n        /* \"#utility.yul\":2562:2563   */\n      dup1\n        /* \"#utility.yul\":2555:2567   */\n      revert\n        /* \"#utility.yul\":2506:2569   */\n    tag_117:\n        /* \"#utility.yul\":2453:2575   */\n      pop\n      jump\t// out\n        /* \"#utility.yul\":2581:2720   */\n    tag_73:\n        /* \"#utility.yul\":2627:2632   */\n      0x00\n        /* \"#utility.yul\":2665:2671   */\n      dup2\n        /* \"#utility.yul\":2652:2672   */\n      calldataload\n        /* \"#utility.yul\":2643:2672   */\n      swap1\n      pop\n        /* \"#utility.yul\":2681:2714   */\n      tag_119\n        /* \"#utility.yul\":2708:2713   */\n      dup2\n        /* \"#utility.yul\":2681:2714   */\n      tag_72\n      jump\t// in\n    tag_119:\n        /* \"#utility.yul\":2581:2720   */\n      swap3\n      swap2\n      pop\n      pop\n      jump\t// out\n        /* \"#utility.yul\":2726:2843   */\n    tag_74:\n        /* \"#utility.yul\":2835:2836   */\n      0x00\n        /* \"#utility.yul\":2832:2833   */\n      dup1\n        /* \"#utility.yul\":2825:2837   */\n      revert\n        /* \"#utility.yul\":2849:2966   */\n    tag_75:\n        /* \"#utility.yul\":2958:2959   */\n      0x00\n        /* \"#utility.yul\":2955:2956   */\n      dup1\n        /* \"#utility.yul\":2948:2960   */\n      revert\n        /* \"#utility.yul\":2972:3074   */\n    tag_76:\n        /* \"#utility.yul\":3013:3019   */\n      0x00\n        /* \"#utility.yul\":3064:3066   */\n      0x1f\n        /* \"#utility.yul\":3060:3067   */\n      not\n        /* \"#utility.yul\":3055:3057   */\n      0x1f\n        /* \"#utility.yul\":3048:3053   */\n      dup4\n        /* \"#utility.yul\":3044:3058   */\n      add\n        /* \"#utility.yul\":3040:3068   */\n      and\n        /* \"#utility.yul\":3030:3068   */\n      swap1\n      pop\n        /* \"#utility.yul\":2972:3074   */\n      swap2\n      swap1\n      pop\n      jump\t// out\n        /* \"#utility.yul\":3080:3260   */\n    tag_77:\n        /* \"#utility.yul\":3128:3205   */\n      0x4e487b7100000000000000000000000000000000000000000000000000000000\n        /* \"#utility.yul\":3125:3126   */\n      0x00\n        /* \"#utility.yul\":3118:3206   */\n      mstore\n        /* \"#utility.yul\":3225:3229   */\n      0x41\n        /* \"#utility.yul\":3222:3223   */\n      0x04\n        /* \"#utility.yul\":3215:3230   */\n      mstore\n        /* \"#utility.yul\":3249:3253   */\n      0x24\n        /* \"#utility.yul\":3246:3247   */\n      0x00\n        /* \"#utility.yul\":3239:3254   */\n      revert\n        /* \"#utility.yul\":3266:3547   */\n    tag_78:\n        /* \"#utility.yul\":3349:3376   */\n      tag_125\n        /* \"#utility.yul\":3371:3375   */\n      dup3\n        /* \"#utility.yul\":3349:3376   */\n      tag_76\n      jump\t// in\n    tag_125:\n        /* \"#utility.yul\":3341:3347   */\n      dup2\n        /* \"#utility.yul\":3337:3377   */\n      add\n        /* \"#utility.yul\":3479:3485   */\n      dup2\n        /* \"#utility.yul\":3467:3477   */\n      dup2\n        /* \"#utility.yul\":3464:3486   */\n      lt\n        /* \"#utility.yul\":3443:3461   */\n      0xffffffffffffffff\n        /* \"#utility.yul\":3431:3441   */\n      dup3\n        /* \"#utility.yul\":3428:3462   */\n      gt\n        /* \"#utility.yul\":3425:3487   */\n      or\n        /* \"#utility.yul\":3422:3510   */\n      iszero\n      tag_126\n      jumpi\n        /* \"#utility.yul\":3490:3508   */\n      tag_127\n      tag_77\n      jump\t// in\n    tag_127:\n        /* \"#utility.yul\":3422:3510   */\n    tag_126:\n        /* \"#utility.yul\":3530:3540   */\n      dup1\n        /* \"#utility.yul\":3526:3528   */\n      0x40\n        /* \"#utility.yul\":3519:3541   */\n      mstore\n        /* \"#utility.yul\":3309:3547   */\n      pop\n        /* \"#utility.yul\":3266:3547   */\n      pop\n      pop\n      jump\t// out\n        /* \"#utility.yul\":3553:3682   */\n    tag_79:\n        /* \"#utility.yul\":3587:3593   */\n      0x00\n        /* \"#utility.yul\":3614:3634   */\n      tag_129\n      tag_59\n      jump\t// in\n    tag_129:\n        /* \"#utility.yul\":3604:3634   */\n      swap1\n      pop\n        /* \"#utility.yul\":3643:3676   */\n      tag_130\n        /* \"#utility.yul\":3671:3675   */\n      dup3\n        /* \"#utility.yul\":3663:3669   */\n      dup3\n        /* \"#utility.yul\":3643:3676   */\n      tag_78\n      jump\t// in\n    tag_130:\n        /* \"#utility.yul\":3553:3682   */\n      swap2\n      swap1\n      pop\n      jump\t// out\n        /* \"#utility.yul\":3688:3995   */\n    tag_80:\n        /* \"#utility.yul\":3749:3753   */\n      0x00\n        /* \"#utility.yul\":3839:3857   */\n      0xffffffffffffffff\n        /* \"#utility.yul\":3831:3837   */\n      dup3\n        /* \"#utility.yul\":3828:3858   */\n      gt\n        /* \"#utility.yul\":3825:3881   */\n      iszero\n      tag_132\n      jumpi\n        /* \"#utility.yul\":3861:3879   */\n      tag_133\n      tag_77\n      jump\t// in\n    tag_133:\n        /* \"#utility.yul\":3825:3881   */\n    tag_132:\n        /* \"#utility.yul\":3899:3928   */\n      tag_134\n        /* \"#utility.yul\":3921:3927   */\n      dup3\n        /* \"#utility.yul\":3899:3928   */\n      tag_76\n      jump\t// in\n    tag_134:\n        /* \"#utility.yul\":3891:3928   */\n      swap1\n      pop\n        /* \"#utility.yul\":3983:3987   */\n      0x20\n        /* \"#utility.yul\":3977:3981   */\n      dup2\n        /* \"#utility.yul\":3973:3988   */\n      add\n        /* \"#utility.yul\":3965:3988   */\n      swap1\n      pop\n        /* \"#utility.yul\":3688:3995   */\n      swap2\n      swap1\n      pop\n      jump\t// out\n        /* \"#utility.yul\":4001:4149   */\n    tag_81:\n        /* \"#utility.yul\":4099:4105   */\n      dup3\n        /* \"#utility.yul\":4094:4097   */\n      dup2\n        /* \"#utility.yul\":4089:4092   */\n      dup4\n        /* \"#utility.yul\":4076:4106   */\n      calldatacopy\n        /* \"#utility.yul\":4140:4141   */\n      0x00\n        /* \"#utility.yul\":4131:4137   */\n      dup4\n        /* \"#utility.yul\":4126:4129   */\n      dup4\n        /* \"#utility.yul\":4122:4138   */\n      add\n        /* \"#utility.yul\":4115:4142   */\n      mstore\n        /* \"#utility.yul\":4001:4149   */\n      pop\n      pop\n      pop\n      jump\t// out\n        /* \"#utility.yul\":4155:4578   */\n    tag_82:\n        /* \"#utility.yul\":4232:4237   */\n      0x00\n        /* \"#utility.yul\":4257:4322   */\n      tag_137\n        /* \"#utility.yul\":4273:4321   */\n      tag_138\n        /* \"#utility.yul\":4314:4320   */\n      dup5\n        /* \"#utility.yul\":4273:4321   */\n      tag_80\n      jump\t// in\n    tag_138:\n        /* \"#utility.yul\":4257:4322   */\n      tag_79\n      jump\t// in\n    tag_137:\n        /* \"#utility.yul\":4248:4322   */\n      swap1\n      pop\n        /* \"#utility.yul\":4345:4351   */\n      dup3\n        /* \"#utility.yul\":4338:4343   */\n      dup2\n        /* \"#utility.yul\":4331:4352   */\n      mstore\n        /* \"#utility.yul\":4383:4387   */\n      0x20\n        /* \"#utility.yul\":4376:4381   */\n      dup2\n        /* \"#utility.yul\":4372:4388   */\n      add\n        /* \"#utility.yul\":4421:4424   */\n      dup5\n        /* \"#utility.yul\":4412:4418   */\n      dup5\n        /* \"#utility.yul\":4407:4410   */\n      dup5\n        /* \"#utility.yul\":4403:4419   */\n      add\n        /* \"#utility.yul\":4400:4425   */\n      gt\n        /* \"#utility.yul\":4397:4509   */\n      iszero\n      tag_139\n      jumpi\n        /* \"#utility.yul\":4428:4507   */\n      tag_140\n      tag_75\n      jump\t// in\n    tag_140:\n        /* \"#utility.yul\":4397:4509   */\n    tag_139:\n        /* \"#utility.yul\":4518:4572   */\n      tag_141\n        /* \"#utility.yul\":4565:4571   */\n      dup5\n        /* \"#utility.yul\":4560:4563   */\n      dup3\n        /* \"#utility.yul\":4555:4558   */\n      dup6\n        /* \"#utility.yul\":4518:4572   */\n      tag_81\n      jump\t// in\n    tag_141:\n        /* \"#utility.yul\":4238:4578   */\n      pop\n        /* \"#utility.yul\":4155:4578   */\n      swap4\n      swap3\n      pop\n      pop\n      pop\n      jump\t// out\n        /* \"#utility.yul\":4597:4935   */\n    tag_83:\n        /* \"#utility.yul\":4652:4657   */\n      0x00\n        /* \"#utility.yul\":4701:4704   */\n      dup3\n        /* \"#utility.yul\":4694:4698   */\n      0x1f\n        /* \"#utility.yul\":4686:4692   */\n      dup4\n        /* \"#utility.yul\":4682:4699   */\n      add\n        /* \"#utility.yul\":4678:4705   */\n      slt\n        /* \"#utility.yul\":4668:4790   */\n      tag_143\n      jumpi\n        /* \"#utility.yul\":4709:4788   */\n      tag_144\n      tag_74\n      jump\t// in\n    tag_144:\n        /* \"#utility.yul\":4668:4790   */\n    tag_143:\n        /* \"#utility.yul\":4826:4832   */\n      dup2\n        /* \"#utility.yul\":4813:4833   */\n      calldataload\n        /* \"#utility.yul\":4851:4929   */\n      tag_145\n        /* \"#utility.yul\":4925:4928   */\n      dup5\n        /* \"#utility.yul\":4917:4923   */\n      dup3\n        /* \"#utility.yul\":4910:4914   */\n      0x20\n        /* \"#utility.yul\":4902:4908   */\n      dup7\n        /* \"#utility.yul\":4898:4915   */\n      add\n        /* \"#utility.yul\":4851:4929   */\n      tag_82\n      jump\t// in\n    tag_145:\n        /* \"#utility.yul\":4842:4929   */\n      swap2\n      pop\n        /* \"#utility.yul\":4658:4935   */\n      pop\n        /* \"#utility.yul\":4597:4935   */\n      swap3\n      swap2\n      pop\n      pop\n      jump\t// out\n        /* \"#utility.yul\":4941:5738   */\n    tag_25:\n        /* \"#utility.yul\":5027:5033   */\n      0x00\n        /* \"#utility.yul\":5035:5041   */\n      dup1\n        /* \"#utility.yul\":5043:5049   */\n      0x00\n        /* \"#utility.yul\":5092:5094   */\n      0x60\n        /* \"#utility.yul\":5080:5089   */\n      dup5\n        /* \"#utility.yul\":5071:5078   */\n      dup7\n        /* \"#utility.yul\":5067:5090   */\n      sub\n        /* \"#utility.yul\":5063:5095   */\n      slt\n        /* \"#utility.yul\":5060:5179   */\n      iszero\n      tag_147\n      jumpi\n        /* \"#utility.yul\":5098:5177   */\n      tag_148\n      tag_60\n      jump\t// in\n    tag_148:\n        /* \"#utility.yul\":5060:5179   */\n    tag_147:\n        /* \"#utility.yul\":5218:5219   */\n      0x00\n        /* \"#utility.yul\":5243:5296   */\n      tag_149\n        /* \"#utility.yul\":5288:5295   */\n      dup7\n        /* \"#utility.yul\":5279:5285   */\n      dup3\n        /* \"#utility.yul\":5268:5277   */\n      dup8\n        /* \"#utility.yul\":5264:5286   */\n      add\n        /* \"#utility.yul\":5243:5296   */\n      tag_65\n      jump\t// in\n    tag_149:\n        /* \"#utility.yul\":5233:5296   */\n      swap4\n      pop\n        /* \"#utility.yul\":5189:5306   */\n      pop\n        /* \"#utility.yul\":5345:5347   */\n      0x20\n        /* \"#utility.yul\":5371:5424   */\n      tag_150\n        /* \"#utility.yul\":5416:5423   */\n      dup7\n        /* \"#utility.yul\":5407:5413   */\n      dup3\n        /* \"#utility.yul\":5396:5405   */\n      dup8\n        /* \"#utility.yul\":5392:5414   */\n      add\n        /* \"#utility.yul\":5371:5424   */\n      tag_73\n      jump\t// in\n    tag_150:\n        /* \"#utility.yul\":5361:5424   */\n      swap3\n      pop\n        /* \"#utility.yul\":5316:5434   */\n      pop\n        /* \"#utility.yul\":5501:5503   */\n      0x40\n        /* \"#utility.yul\":5490:5499   */\n      dup5\n        /* \"#utility.yul\":5486:5504   */\n      add\n        /* \"#utility.yul\":5473:5505   */\n      calldataload\n        /* \"#utility.yul\":5532:5550   */\n      0xffffffffffffffff\n        /* \"#utility.yul\":5524:5530   */\n      dup2\n        /* \"#utility.yul\":5521:5551   */\n      gt\n        /* \"#utility.yul\":5518:5635   */\n      iszero\n      tag_151\n      jumpi\n        /* \"#utility.yul\":5554:5633   */\n      tag_152\n      tag_61\n      jump\t// in\n    tag_152:\n        /* \"#utility.yul\":5518:5635   */\n    tag_151:\n        /* \"#utility.yul\":5659:5721   */\n      tag_153\n        /* \"#utility.yul\":5713:5720   */\n      dup7\n        /* \"#utility.yul\":5704:5710   */\n      dup3\n        /* \"#utility.yul\":5693:5702   */\n      dup8\n        /* \"#utility.yul\":5689:5711   */\n      add\n        /* \"#utility.yul\":5659:5721   */\n      tag_83\n      jump\t// in\n    tag_153:\n        /* \"#utility.yul\":5649:5721   */\n      swap2\n      pop\n        /* \"#utility.yul\":5444:5731   */\n      pop\n        /* \"#utility.yul\":4941:5738   */\n      swap3\n      pop\n      swap3\n      pop\n      swap3\n      jump\t// out\n        /* \"#utility.yul\":5744:6218   */\n    tag_33:\n        /* \"#utility.yul\":5812:5818   */\n      0x00\n        /* \"#utility.yul\":5820:5826   */\n      dup1\n        /* \"#utility.yul\":5869:5871   */\n      0x40\n        /* \"#utility.yul\":5857:5866   */\n      dup4\n        /* \"#utility.yul\":5848:5855   */\n      dup6\n        /* \"#utility.yul\":5844:5867   */\n      sub\n        /* \"#utility.yul\":5840:5872   */\n      slt\n        /* \"#utility.yul\":5837:5956   */\n      iszero\n      tag_155\n      jumpi\n        /* \"#utility.yul\":5875:5954   */\n      tag_156\n      tag_60\n      jump\t// in\n    tag_156:\n        /* \"#utility.yul\":5837:5956   */\n    tag_155:\n        /* \"#utility.yul\":5995:5996   */\n      0x00\n        /* \"#utility.yul\":6020:6073   */\n      tag_157\n        /* \"#utility.yul\":6065:6072   */\n      dup6\n        /* \"#utility.yul\":6056:6062   */\n      dup3\n        /* \"#utility.yul\":6045:6054   */\n      dup7\n        /* \"#utility.yul\":6041:6063   */\n      add\n        /* \"#utility.yul\":6020:6073   */\n      tag_65\n      jump\t// in\n    tag_157:\n        /* \"#utility.yul\":6010:6073   */\n      swap3\n      pop\n        /* \"#utility.yul\":5966:6083   */\n      pop\n        /* \"#utility.yul\":6122:6124   */\n      0x20\n        /* \"#utility.yul\":6148:6201   */\n      tag_158\n        /* \"#utility.yul\":6193:6200   */\n      dup6\n        /* \"#utility.yul\":6184:6190   */\n      dup3\n        /* \"#utility.yul\":6173:6182   */\n      dup7\n        /* \"#utility.yul\":6169:6191   */\n      add\n        /* \"#utility.yul\":6148:6201   */\n      tag_73\n      jump\t// in\n    tag_158:\n        /* \"#utility.yul\":6138:6201   */\n      swap2\n      pop\n        /* \"#utility.yul\":6093:6211   */\n      pop\n        /* \"#utility.yul\":5744:6218   */\n      swap3\n      pop\n      swap3\n      swap1\n      pop\n      jump\t// out\n        /* \"#utility.yul\":6224:6553   */\n    tag_42:\n        /* \"#utility.yul\":6283:6289   */\n      0x00\n        /* \"#utility.yul\":6332:6334   */\n      0x20\n        /* \"#utility.yul\":6320:6329   */\n      dup3\n        /* \"#utility.yul\":6311:6318   */\n      dup5\n        /* \"#utility.yul\":6307:6330   */\n      sub\n        /* \"#utility.yul\":6303:6335   */\n      slt\n        /* \"#utility.yul\":6300:6419   */\n      iszero\n      tag_160\n      jumpi\n        /* \"#utility.yul\":6338:6417   */\n      tag_161\n      tag_60\n      jump\t// in\n    tag_161:\n        /* \"#utility.yul\":6300:6419   */\n    tag_160:\n        /* \"#utility.yul\":6458:6459   */\n      0x00\n        /* \"#utility.yul\":6483:6536   */\n      tag_162\n        /* \"#utility.yul\":6528:6535   */\n      dup5\n        /* \"#utility.yul\":6519:6525   */\n      dup3\n        /* \"#utility.yul\":6508:6517   */\n      dup6\n        /* \"#utility.yul\":6504:6526   */\n      add\n        /* \"#utility.yul\":6483:6536   */\n      tag_73\n      jump\t// in\n    tag_162:\n        /* \"#utility.yul\":6473:6536   */\n      swap2\n      pop\n        /* \"#utility.yul\":6429:6546   */\n      pop\n        /* \"#utility.yul\":6224:6553   */\n      swap3\n      swap2\n      pop\n      pop\n      jump\t// out\n        /* \"#utility.yul\":6559:6781   */\n    tag_48:\n        /* \"#utility.yul\":6652:6656   */\n      0x00\n        /* \"#utility.yul\":6690:6692   */\n      0x20\n        /* \"#utility.yul\":6679:6688   */\n      dup3\n        /* \"#utility.yul\":6675:6693   */\n      add\n        /* \"#utility.yul\":6667:6693   */\n      swap1\n      pop\n        /* \"#utility.yul\":6703:6774   */\n      tag_164\n        /* \"#utility.yul\":6771:6772   */\n      0x00\n        /* \"#utility.yul\":6760:6769   */\n      dup4\n        /* \"#utility.yul\":6756:6773   */\n      add\n        /* \"#utility.yul\":6747:6753   */\n      dup5\n        /* \"#utility.yul\":6703:6774   */\n      tag_69\n      jump\t// in\n    tag_164:\n        /* \"#utility.yul\":6559:6781   */\n      swap3\n      swap2\n      pop\n      pop\n      jump\t// out\n\n    auxdata: 0xa26469706673582212208bcbc46e4f11539943a055daba9dd3e31bfb7ea8dd54ffea3a71819abe6ca6fc64736f6c634300081a0033\n}\n",
				"bytecode": {
					"linkReferences": {},
					"object": "6080604052348015600e575f80fd5b5061099f8061001c5f395ff3fe608060405234801561000f575f80fd5b5060043610610086575f3560e01c806398dfd0a71161005957806398dfd0a714610138578063aa74233e14610168578063bf0844081461019a578063eee44448146101b657610086565b806301ae8b7b1461008a57806322b824ab146100ba57806356e377d6146100ec57806366ca5b721461011c575b5f80fd5b6100a4600480360381019061009f9190610652565b6101e6565b6040516100b19190610697565b60405180910390f35b6100d460048036038101906100cf9190610652565b61023b565b6040516100e3939291906106e0565b60405180910390f35b6101066004803603810190610101919061087b565b61026d565b6040516101139190610697565b60405180910390f35b61013660048036038101906101319190610652565b61032b565b005b610152600480360381019061014d91906108e7565b6103d3565b60405161015f9190610697565b60405180910390f35b610182600480360381019061017d9190610652565b61041b565b604051610191939291906106e0565b60405180910390f35b6101b460048036038101906101af9190610925565b6104b2565b005b6101d060048036038101906101cb9190610652565b6105d3565b6040516101dd9190610950565b60405180910390f35b5f60015f8373ffffffffffffffffffffffffffffffffffffffff1673ffffffffffffffffffffffffffffffffffffffff1681526020019081526020015f206002015f9054906101000a900460ff169050919050565b6001602052805f5260405f205f91509050805f015490806001015490806002015f9054906101000a900460ff16905083565b5f8061027985856103d3565b90508060015f8773ffffffffffffffffffffffffffffffffffffffff1673ffffffffffffffffffffffffffffffffffffffff1681526020019081526020015f206002015f6101000a81548160ff0219169083151502179055508473ffffffffffffffffffffffffffffffffffffffff167f67138ba576c85b9348a42249a156ac9e82c361ab57372970c581a0c36c9673e9826040516103189190610697565b60405180910390a2809150509392505050565b5f60015f8373ffffffffffffffffffffffffffffffffffffffff1673ffffffffffffffffffffffffffffffffffffffff1681526020019081526020015f206002015f6101000a81548160ff0219169083151502179055508073ffffffffffffffffffffffffffffffffffffffff167f67138ba576c85b9348a42249a156ac9e82c361ab57372970c581a0c36c9673e95f6040516103c89190610697565b60405180910390a250565b5f815f808573ffffffffffffffffffffffffffffffffffffffff1673ffffffffffffffffffffffffffffffffffffffff1681526020019081526020015f205414905092915050565b5f805f8060015f8673ffffffffffffffffffffffffffffffffffffffff1673ffffffffffffffffffffffffffffffffffffffff1681526020019081526020015f206040518060600160405290815f820154815260200160018201548152602001600282015f9054906101000a900460ff1615151515815250509050805f015181602001518260400151935093509350509193909250565b805f803373ffffffffffffffffffffffffffffffffffffffff1673ffffffffffffffffffffffffffffffffffffffff1681526020019081526020015f208190555060405180606001604052808281526020014281526020016001151581525060015f3373ffffffffffffffffffffffffffffffffffffffff1673ffffffffffffffffffffffffffffffffffffffff1681526020019081526020015f205f820151815f0155602082015181600101556040820151816002015f6101000a81548160ff0219169083151502179055509050503373ffffffffffffffffffffffffffffffffffffffff167f6001ac408879869d65636618cd8495cce3026445823e6de88d46ade8a9c81c79826040516105c89190610950565b60405180910390a250565b5f602052805f5260405f205f915090505481565b5f604051905090565b5f80fd5b5f80fd5b5f73ffffffffffffffffffffffffffffffffffffffff82169050919050565b5f610621826105f8565b9050919050565b61063181610617565b811461063b575f80fd5b50565b5f8135905061064c81610628565b92915050565b5f60208284031215610667576106666105f0565b5b5f6106748482850161063e565b91505092915050565b5f8115159050919050565b6106918161067d565b82525050565b5f6020820190506106aa5f830184610688565b92915050565b5f819050919050565b6106c2816106b0565b82525050565b5f819050919050565b6106da816106c8565b82525050565b5f6060820190506106f35f8301866106b9565b61070060208301856106d1565b61070d6040830184610688565b949350505050565b61071e816106b0565b8114610728575f80fd5b50565b5f8135905061073981610715565b92915050565b5f80fd5b5f80fd5b5f601f19601f8301169050919050565b7f4e487b71000000000000000000000000000000000000000000000000000000005f52604160045260245ffd5b61078d82610747565b810181811067ffffffffffffffff821117156107ac576107ab610757565b5b80604052505050565b5f6107be6105e7565b90506107ca8282610784565b919050565b5f67ffffffffffffffff8211156107e9576107e8610757565b5b6107f282610747565b9050602081019050919050565b828183375f83830152505050565b5f61081f61081a846107cf565b6107b5565b90508281526020810184848401111561083b5761083a610743565b5b6108468482856107ff565b509392505050565b5f82601f8301126108625761086161073f565b5b813561087284826020860161080d565b91505092915050565b5f805f60608486031215610892576108916105f0565b5b5f61089f8682870161063e565b93505060206108b08682870161072b565b925050604084013567ffffffffffffffff8111156108d1576108d06105f4565b5b6108dd8682870161084e565b9150509250925092565b5f80604083850312156108fd576108fc6105f0565b5b5f61090a8582860161063e565b925050602061091b8582860161072b565b9150509250929050565b5f6020828403121561093a576109396105f0565b5b5f6109478482850161072b565b91505092915050565b5f6020820190506109635f8301846106b9565b9291505056fea26469706673582212208bcbc46e4f11539943a055daba9dd3e31bfb7ea8dd54ffea3a71819abe6ca6fc64736f6c634300081a0033",
					"opcodes": "PUSH1 0x80 PUSH1 0x40 MSTORE CALLVALUE DUP1 ISZERO PUSH1 0xE JUMPI PUSH0 DUP1 REVERT JUMPDEST POP PUSH2 0x99F DUP1 PUSH2 0x1C PUSH0 CODECOPY PUSH0 RETURN INVALID PUSH1 0x80 PUSH1 0x40 MSTORE CALLVALUE DUP1 ISZERO PUSH2 0xF JUMPI PUSH0 DUP1 REVERT JUMPDEST POP PUSH1 0x4 CALLDATASIZE LT PUSH2 0x86 JUMPI PUSH0 CALLDATALOAD PUSH1 0xE0 SHR DUP1 PUSH4 0x98DFD0A7 GT PUSH2 0x59 JUMPI DUP1 PUSH4 0x98DFD0A7 EQ PUSH2 0x138 JUMPI DUP1 PUSH4 0xAA74233E EQ PUSH2 0x168 JUMPI DUP1 PUSH4 0xBF084408 EQ PUSH2 0x19A JUMPI DUP1 PUSH4 0xEEE44448 EQ PUSH2 0x1B6 JUMPI PUSH2 0x86 JUMP JUMPDEST DUP1 PUSH4 0x1AE8B7B EQ PUSH2 0x8A JUMPI DUP1 PUSH4 0x22B824AB EQ PUSH2 0xBA JUMPI DUP1 PUSH4 0x56E377D6 EQ PUSH2 0xEC JUMPI DUP1 PUSH4 0x66CA5B72 EQ PUSH2 0x11C JUMPI JUMPDEST PUSH0 DUP1 REVERT JUMPDEST PUSH2 0xA4 PUSH1 0x4 DUP1 CALLDATASIZE SUB DUP2 ADD SWAP1 PUSH2 0x9F SWAP2 SWAP1 PUSH2 0x652 JUMP JUMPDEST PUSH2 0x1E6 JUMP JUMPDEST PUSH1 0x40 MLOAD PUSH2 0xB1 SWAP2 SWAP1 PUSH2 0x697 JUMP JUMPDEST PUSH1 0x40 MLOAD DUP1 SWAP2 SUB SWAP1 RETURN JUMPDEST PUSH2 0xD4 PUSH1 0x4 DUP1 CALLDATASIZE SUB DUP2 ADD SWAP1 PUSH2 0xCF SWAP2 SWAP1 PUSH2 0x652 JUMP JUMPDEST PUSH2 0x23B JUMP JUMPDEST PUSH1 0x40 MLOAD PUSH2 0xE3 SWAP4 SWAP3 SWAP2 SWAP1 PUSH2 0x6E0 JUMP JUMPDEST PUSH1 0x40 MLOAD DUP1 SWAP2 SUB SWAP1 RETURN JUMPDEST PUSH2 0x106 PUSH1 0x4 DUP1 CALLDATASIZE SUB DUP2 ADD SWAP1 PUSH2 0x101 SWAP2 SWAP1 PUSH2 0x87B JUMP JUMPDEST PUSH2 0x26D JUMP JUMPDEST PUSH1 0x40 MLOAD PUSH2 0x113 SWAP2 SWAP1 PUSH2 0x697 JUMP JUMPDEST PUSH1 0x40 MLOAD DUP1 SWAP2 SUB SWAP1 RETURN JUMPDEST PUSH2 0x136 PUSH1 0x4 DUP1 CALLDATASIZE SUB DUP2 ADD SWAP1 PUSH2 0x131 SWAP2 SWAP1 PUSH2 0x652 JUMP JUMPDEST PUSH2 0x32B JUMP JUMPDEST STOP JUMPDEST PUSH2 0x152 PUSH1 0x4 DUP1 CALLDATASIZE SUB DUP2 ADD SWAP1 PUSH2 0x14D SWAP2 SWAP1 PUSH2 0x8E7 JUMP JUMPDEST PUSH2 0x3D3 JUMP JUMPDEST PUSH1 0x40 MLOAD PUSH2 0x15F SWAP2 SWAP1 PUSH2 0x697 JUMP JUMPDEST PUSH1 0x40 MLOAD DUP1 SWAP2 SUB SWAP1 RETURN JUMPDEST PUSH2 0x182 PUSH1 0x4 DUP1 CALLDATASIZE SUB DUP2 ADD SWAP1 PUSH2 0x17D SWAP2 SWAP1 PUSH2 0x652 JUMP JUMPDEST PUSH2 0x41B JUMP JUMPDEST PUSH1 0x40 MLOAD PUSH2 0x191 SWAP4 SWAP3 SWAP2 SWAP1 PUSH2 0x6E0 JUMP JUMPDEST PUSH1 0x40 MLOAD DUP1 SWAP2 SUB SWAP1 RETURN JUMPDEST PUSH2 0x1B4 PUSH1 0x4 DUP1 CALLDATASIZE SUB DUP2 ADD SWAP1 PUSH2 0x1AF SWAP2 SWAP1 PUSH2 0x925 JUMP JUMPDEST PUSH2 0x4B2 JUMP JUMPDEST STOP JUMPDEST PUSH2 0x1D0 PUSH1 0x4 DUP1 CALLDATASIZE SUB DUP2 ADD SWAP1 PUSH2 0x1CB SWAP2 SWAP1 PUSH2 0x652 JUMP JUMPDEST PUSH2 0x5D3 JUMP JUMPDEST PUSH1 0x40 MLOAD PUSH2 0x1DD SWAP2 SWAP1 PUSH2 0x950 JUMP JUMPDEST PUSH1 0x40 MLOAD DUP1 SWAP2 SUB SWAP1 RETURN JUMPDEST PUSH0 PUSH1 0x1 PUSH0 DUP4 PUSH20 0xFFFFFFFFFFFFFFFFFFFFFFFFFFFFFFFFFFFFFFFF AND PUSH20 0xFFFFFFFFFFFFFFFFFFFFFFFFFFFFFFFFFFFFFFFF AND DUP2 MSTORE PUSH1 0x20 ADD SWAP1 DUP2 MSTORE PUSH1 0x20 ADD PUSH0 KECCAK256 PUSH1 0x2 ADD PUSH0 SWAP1 SLOAD SWAP1 PUSH2 0x100 EXP SWAP1 DIV PUSH1 0xFF AND SWAP1 POP SWAP2 SWAP1 POP JUMP JUMPDEST PUSH1 0x1 PUSH1 0x20 MSTORE DUP1 PUSH0 MSTORE PUSH1 0x40 PUSH0 KECCAK256 PUSH0 SWAP2 POP SWAP1 POP DUP1 PUSH0 ADD SLOAD SWAP1 DUP1 PUSH1 0x1 ADD SLOAD SWAP1 DUP1 PUSH1 0x2 ADD PUSH0 SWAP1 SLOAD SWAP1 PUSH2 0x100 EXP SWAP1 DIV PUSH1 0xFF AND SWAP1 POP DUP4 JUMP JUMPDEST PUSH0 DUP1 PUSH2 0x279 DUP6 DUP6 PUSH2 0x3D3 JUMP JUMPDEST SWAP1 POP DUP1 PUSH1 0x1 PUSH0 DUP8 PUSH20 0xFFFFFFFFFFFFFFFFFFFFFFFFFFFFFFFFFFFFFFFF AND PUSH20 0xFFFFFFFFFFFFFFFFFFFFFFFFFFFFFFFFFFFFFFFF AND DUP2 MSTORE PUSH1 0x20 ADD SWAP1 DUP2 MSTORE PUSH1 0x20 ADD PUSH0 KECCAK256 PUSH1 0x2 ADD PUSH0 PUSH2 0x100 EXP DUP2 SLOAD DUP2 PUSH1 0xFF MUL NOT AND SWAP1 DUP4 ISZERO ISZERO MUL OR SWAP1 SSTORE POP DUP5 PUSH20 0xFFFFFFFFFFFFFFFFFFFFFFFFFFFFFFFFFFFFFFFF AND PUSH32 0x67138BA576C85B9348A42249A156AC9E82C361AB57372970C581A0C36C9673E9 DUP3 PUSH1 0x40 MLOAD PUSH2 0x318 SWAP2 SWAP1 PUSH2 0x697 JUMP JUMPDEST PUSH1 0x40 MLOAD DUP1 SWAP2 SUB SWAP1 LOG2 DUP1 SWAP2 POP POP SWAP4 SWAP3 POP POP POP JUMP JUMPDEST PUSH0 PUSH1 0x1 PUSH0 DUP4 PUSH20 0xFFFFFFFFFFFFFFFFFFFFFFFFFFFFFFFFFFFFFFFF AND PUSH20 0xFFFFFFFFFFFFFFFFFFFFFFFFFFFFFFFFFFFFFFFF AND DUP2 MSTORE PUSH1 0x20 ADD SWAP1 DUP2 MSTORE PUSH1 0x20 ADD PUSH0 KECCAK256 PUSH1 0x2 ADD PUSH0 PUSH2 0x100 EXP DUP2 SLOAD DUP2 PUSH1 0xFF MUL NOT AND SWAP1 DUP4 ISZERO ISZERO MUL OR SWAP1 SSTORE POP DUP1 PUSH20 0xFFFFFFFFFFFFFFFFFFFFFFFFFFFFFFFFFFFFFFFF AND PUSH32 0x67138BA576C85B9348A42249A156AC9E82C361AB57372970C581A0C36C9673E9 PUSH0 PUSH1 0x40 MLOAD PUSH2 0x3C8 SWAP2 SWAP1 PUSH2 0x697 JUMP JUMPDEST PUSH1 0x40 MLOAD DUP1 SWAP2 SUB SWAP1 LOG2 POP JUMP JUMPDEST PUSH0 DUP2 PUSH0 DUP1 DUP6 PUSH20 0xFFFFFFFFFFFFFFFFFFFFFFFFFFFFFFFFFFFFFFFF AND PUSH20 0xFFFFFFFFFFFFFFFFFFFFFFFFFFFFFFFFFFFFFFFF AND DUP2 MSTORE PUSH1 0x20 ADD SWAP1 DUP2 MSTORE PUSH1 0x20 ADD PUSH0 KECCAK256 SLOAD EQ SWAP1 POP SWAP3 SWAP2 POP POP JUMP JUMPDEST PUSH0 DUP1 PUSH0 DUP1 PUSH1 0x1 PUSH0 DUP7 PUSH20 0xFFFFFFFFFFFFFFFFFFFFFFFFFFFFFFFFFFFFFFFF AND PUSH20 0xFFFFFFFFFFFFFFFFFFFFFFFFFFFFFFFFFFFFFFFF AND DUP2 MSTORE PUSH1 0x20 ADD SWAP1 DUP2 MSTORE PUSH1 0x20 ADD PUSH0 KECCAK256 PUSH1 0x40 MLOAD DUP1 PUSH1 0x60 ADD PUSH1 0x40 MSTORE SWAP1 DUP2 PUSH0 DUP3 ADD SLOAD DUP2 MSTORE PUSH1 0x20 ADD PUSH1 0x1 DUP3 ADD SLOAD DUP2 MSTORE PUSH1 0x20 ADD PUSH1 0x2 DUP3 ADD PUSH0 SWAP1 SLOAD SWAP1 PUSH2 0x100 EXP SWAP1 DIV PUSH1 0xFF AND ISZERO ISZERO ISZERO ISZERO DUP2 MSTORE POP POP SWAP1 POP DUP1 PUSH0 ADD MLOAD DUP2 PUSH1 0x20 ADD MLOAD DUP3 PUSH1 0x40 ADD MLOAD SWAP4 POP SWAP4 POP SWAP4 POP POP SWAP2 SWAP4 SWAP1 SWAP3 POP JUMP JUMPDEST DUP1 PUSH0 DUP1 CALLER PUSH20 0xFFFFFFFFFFFFFFFFFFFFFFFFFFFFFFFFFFFFFFFF AND PUSH20 0xFFFFFFFFFFFFFFFFFFFFFFFFFFFFFFFFFFFFFFFF AND DUP2 MSTORE PUSH1 0x20 ADD SWAP1 DUP2 MSTORE PUSH1 0x20 ADD PUSH0 KECCAK256 DUP2 SWAP1 SSTORE POP PUSH1 0x40 MLOAD DUP1 PUSH1 0x60 ADD PUSH1 0x40 MSTORE DUP1 DUP3 DUP2 MSTORE PUSH1 0x20 ADD TIMESTAMP DUP2 MSTORE PUSH1 0x20 ADD PUSH1 0x1 ISZERO ISZERO DUP2 MSTORE POP PUSH1 0x1 PUSH0 CALLER PUSH20 0xFFFFFFFFFFFFFFFFFFFFFFFFFFFFFFFFFFFFFFFF AND PUSH20 0xFFFFFFFFFFFFFFFFFFFFFFFFFFFFFFFFFFFFFFFF AND DUP2 MSTORE PUSH1 0x20 ADD SWAP1 DUP2 MSTORE PUSH1 0x20 ADD PUSH0 KECCAK256 PUSH0 DUP3 ADD MLOAD DUP2 PUSH0 ADD SSTORE PUSH1 0x20 DUP3 ADD MLOAD DUP2 PUSH1 0x1 ADD SSTORE PUSH1 0x40 DUP3 ADD MLOAD DUP2 PUSH1 0x2 ADD PUSH0 PUSH2 0x100 EXP DUP2 SLOAD DUP2 PUSH1 0xFF MUL NOT AND SWAP1 DUP4 ISZERO ISZERO MUL OR SWAP1 SSTORE POP SWAP1 POP POP CALLER PUSH20 0xFFFFFFFFFFFFFFFFFFFFFFFFFFFFFFFFFFFFFFFF AND PUSH32 0x6001AC408879869D65636618CD8495CCE3026445823E6DE88D46ADE8A9C81C79 DUP3 PUSH1 0x40 MLOAD PUSH2 0x5C8 SWAP2 SWAP1 PUSH2 0x950 JUMP JUMPDEST PUSH1 0x40 MLOAD DUP1 SWAP2 SUB SWAP1 LOG2 POP JUMP JUMPDEST PUSH0 PUSH1 0x20 MSTORE DUP1 PUSH0 MSTORE PUSH1 0x40 PUSH0 KECCAK256 PUSH0 SWAP2 POP SWAP1 POP SLOAD DUP2 JUMP JUMPDEST PUSH0 PUSH1 0x40 MLOAD SWAP1 POP SWAP1 JUMP JUMPDEST PUSH0 DUP1 REVERT JUMPDEST PUSH0 DUP1 REVERT JUMPDEST PUSH0 PUSH20 0xFFFFFFFFFFFFFFFFFFFFFFFFFFFFFFFFFFFFFFFF DUP3 AND SWAP1 POP SWAP2 SWAP1 POP JUMP JUMPDEST PUSH0 PUSH2 0x621 DUP3 PUSH2 0x5F8 JUMP JUMPDEST SWAP1 POP SWAP2 SWAP1 POP JUMP JUMPDEST PUSH2 0x631 DUP2 PUSH2 0x617 JUMP JUMPDEST DUP2 EQ PUSH2 0x63B JUMPI PUSH0 DUP1 REVERT JUMPDEST POP JUMP JUMPDEST PUSH0 DUP2 CALLDATALOAD SWAP1 POP PUSH2 0x64C DUP2 PUSH2 0x628 JUMP JUMPDEST SWAP3 SWAP2 POP POP JUMP JUMPDEST PUSH0 PUSH1 0x20 DUP3 DUP5 SUB SLT ISZERO PUSH2 0x667 JUMPI PUSH2 0x666 PUSH2 0x5F0 JUMP JUMPDEST JUMPDEST PUSH0 PUSH2 0x674 DUP5 DUP3 DUP6 ADD PUSH2 0x63E JUMP JUMPDEST SWAP2 POP POP SWAP3 SWAP2 POP POP JUMP JUMPDEST PUSH0 DUP2 ISZERO ISZERO SWAP1 POP SWAP2 SWAP1 POP JUMP JUMPDEST PUSH2 0x691 DUP2 PUSH2 0x67D JUMP JUMPDEST DUP3 MSTORE POP POP JUMP JUMPDEST PUSH0 PUSH1 0x20 DUP3 ADD SWAP1 POP PUSH2 0x6AA PUSH0 DUP4 ADD DUP5 PUSH2 0x688 JUMP JUMPDEST SWAP3 SWAP2 POP POP JUMP JUMPDEST PUSH0 DUP2 SWAP1 POP SWAP2 SWAP1 POP JUMP JUMPDEST PUSH2 0x6C2 DUP2 PUSH2 0x6B0 JUMP JUMPDEST DUP3 MSTORE POP POP JUMP JUMPDEST PUSH0 DUP2 SWAP1 POP SWAP2 SWAP1 POP JUMP JUMPDEST PUSH2 0x6DA DUP2 PUSH2 0x6C8 JUMP JUMPDEST DUP3 MSTORE POP POP JUMP JUMPDEST PUSH0 PUSH1 0x60 DUP3 ADD SWAP1 POP PUSH2 0x6F3 PUSH0 DUP4 ADD DUP7 PUSH2 0x6B9 JUMP JUMPDEST PUSH2 0x700 PUSH1 0x20 DUP4 ADD DUP6 PUSH2 0x6D1 JUMP JUMPDEST PUSH2 0x70D PUSH1 0x40 DUP4 ADD DUP5 PUSH2 0x688 JUMP JUMPDEST SWAP5 SWAP4 POP POP POP POP JUMP JUMPDEST PUSH2 0x71E DUP2 PUSH2 0x6B0 JUMP JUMPDEST DUP2 EQ PUSH2 0x728 JUMPI PUSH0 DUP1 REVERT JUMPDEST POP JUMP JUMPDEST PUSH0 DUP2 CALLDATALOAD SWAP1 POP PUSH2 0x739 DUP2 PUSH2 0x715 JUMP JUMPDEST SWAP3 SWAP2 POP POP JUMP JUMPDEST PUSH0 DUP1 REVERT JUMPDEST PUSH0 DUP1 REVERT JUMPDEST PUSH0 PUSH1 0x1F NOT PUSH1 0x1F DUP4 ADD AND SWAP1 POP SWAP2 SWAP1 POP JUMP JUMPDEST PUSH32 0x4E487B7100000000000000000000000000000000000000000000000000000000 PUSH0 MSTORE PUSH1 0x41 PUSH1 0x4 MSTORE PUSH1 0x24 PUSH0 REVERT JUMPDEST PUSH2 0x78D DUP3 PUSH2 0x747 JUMP JUMPDEST DUP2 ADD DUP2 DUP2 LT PUSH8 0xFFFFFFFFFFFFFFFF DUP3 GT OR ISZERO PUSH2 0x7AC JUMPI PUSH2 0x7AB PUSH2 0x757 JUMP JUMPDEST JUMPDEST DUP1 PUSH1 0x40 MSTORE POP POP POP JUMP JUMPDEST PUSH0 PUSH2 0x7BE PUSH2 0x5E7 JUMP JUMPDEST SWAP1 POP PUSH2 0x7CA DUP3 DUP3 PUSH2 0x784 JUMP JUMPDEST SWAP2 SWAP1 POP JUMP JUMPDEST PUSH0 PUSH8 0xFFFFFFFFFFFFFFFF DUP3 GT ISZERO PUSH2 0x7E9 JUMPI PUSH2 0x7E8 PUSH2 0x757 JUMP JUMPDEST JUMPDEST PUSH2 0x7F2 DUP3 PUSH2 0x747 JUMP JUMPDEST SWAP1 POP PUSH1 0x20 DUP2 ADD SWAP1 POP SWAP2 SWAP1 POP JUMP JUMPDEST DUP3 DUP2 DUP4 CALLDATACOPY PUSH0 DUP4 DUP4 ADD MSTORE POP POP POP JUMP JUMPDEST PUSH0 PUSH2 0x81F PUSH2 0x81A DUP5 PUSH2 0x7CF JUMP JUMPDEST PUSH2 0x7B5 JUMP JUMPDEST SWAP1 POP DUP3 DUP2 MSTORE PUSH1 0x20 DUP2 ADD DUP5 DUP5 DUP5 ADD GT ISZERO PUSH2 0x83B JUMPI PUSH2 0x83A PUSH2 0x743 JUMP JUMPDEST JUMPDEST PUSH2 0x846 DUP5 DUP3 DUP6 PUSH2 0x7FF JUMP JUMPDEST POP SWAP4 SWAP3 POP POP POP JUMP JUMPDEST PUSH0 DUP3 PUSH1 0x1F DUP4 ADD SLT PUSH2 0x862 JUMPI PUSH2 0x861 PUSH2 0x73F JUMP JUMPDEST JUMPDEST DUP2 CALLDATALOAD PUSH2 0x872 DUP5 DUP3 PUSH1 0x20 DUP7 ADD PUSH2 0x80D JUMP JUMPDEST SWAP2 POP POP SWAP3 SWAP2 POP POP JUMP JUMPDEST PUSH0 DUP1 PUSH0 PUSH1 0x60 DUP5 DUP7 SUB SLT ISZERO PUSH2 0x892 JUMPI PUSH2 0x891 PUSH2 0x5F0 JUMP JUMPDEST JUMPDEST PUSH0 PUSH2 0x89F DUP7 DUP3 DUP8 ADD PUSH2 0x63E JUMP JUMPDEST SWAP4 POP POP PUSH1 0x20 PUSH2 0x8B0 DUP7 DUP3 DUP8 ADD PUSH2 0x72B JUMP JUMPDEST SWAP3 POP POP PUSH1 0x40 DUP5 ADD CALLDATALOAD PUSH8 0xFFFFFFFFFFFFFFFF DUP2 GT ISZERO PUSH2 0x8D1 JUMPI PUSH2 0x8D0 PUSH2 0x5F4 JUMP JUMPDEST JUMPDEST PUSH2 0x8DD DUP7 DUP3 DUP8 ADD PUSH2 0x84E JUMP JUMPDEST SWAP2 POP POP SWAP3 POP SWAP3 POP SWAP3 JUMP JUMPDEST PUSH0 DUP1 PUSH1 0x40 DUP4 DUP6 SUB SLT ISZERO PUSH2 0x8FD JUMPI PUSH2 0x8FC PUSH2 0x5F0 JUMP JUMPDEST JUMPDEST PUSH0 PUSH2 0x90A DUP6 DUP3 DUP7 ADD PUSH2 0x63E JUMP JUMPDEST SWAP3 POP POP PUSH1 0x20 PUSH2 0x91B DUP6 DUP3 DUP7 ADD PUSH2 0x72B JUMP JUMPDEST SWAP2 POP POP SWAP3 POP SWAP3 SWAP1 POP JUMP JUMPDEST PUSH0 PUSH1 0x20 DUP3 DUP5 SUB SLT ISZERO PUSH2 0x93A JUMPI PUSH2 0x939 PUSH2 0x5F0 JUMP JUMPDEST JUMPDEST PUSH0 PUSH2 0x947 DUP5 DUP3 DUP6 ADD PUSH2 0x72B JUMP JUMPDEST SWAP2 POP POP SWAP3 SWAP2 POP POP JUMP JUMPDEST PUSH0 PUSH1 0x20 DUP3 ADD SWAP1 POP PUSH2 0x963 PUSH0 DUP4 ADD DUP5 PUSH2 0x6B9 JUMP JUMPDEST SWAP3 SWAP2 POP POP JUMP INVALID LOG2 PUSH5 0x6970667358 0x22 SLT KECCAK256 DUP12 0xCB 0xC4 PUSH15 0x4F11539943A055DABA9DD3E31BFB7E 0xA8 0xDD SLOAD SELFDESTRUCT 0xEA GASPRICE PUSH18 0x819ABE6CA6FC64736F6C634300081A003300 "
				},
				"gasEstimates": {
					"creation": {
						"codeDepositCost": "492600",
						"executionCost": "522",
						"totalCost": "493122"
					},
					"external": {
						"getProofDetails(address)": "7464",
						"hasValidProof(address)": "2877",
						"invalidateProof(address)": "26452",
						"roleProofs(address)": "2867",
						"submitProof(bytes32)": "infinite",
						"userProofs(address)": "7301",
						"validateProof(address,bytes32)": "3012",
						"verifyProof(address,bytes32,bytes)": "infinite"
					}
				},
				"methodIdentifiers": {
					"getProofDetails(address)": "aa74233e",
					"hasValidProof(address)": "01ae8b7b",
					"invalidateProof(address)": "66ca5b72",
					"roleProofs(address)": "eee44448",
					"submitProof(bytes32)": "bf084408",
					"userProofs(address)": "22b824ab",
					"validateProof(address,bytes32)": "98dfd0a7",
					"verifyProof(address,bytes32,bytes)": "56e377d6"
				}
			},
			"storageLayout": {
				"storage": [
					{
						"astId": 5,
						"contract": "contracts/ZKPVerifier.sol:ZKPVerifier",
						"label": "roleProofs",
						"offset": 0,
						"slot": "0",
						"type": "t_mapping(t_address,t_bytes32)"
					},
					{
						"astId": 29,
						"contract": "contracts/ZKPVerifier.sol:ZKPVerifier",
						"label": "userProofs",
						"offset": 0,
						"slot": "1",
						"type": "t_mapping(t_address,t_struct(RoleProof)24_storage)"
					}
				],
				"types": {
					"t_address": {
						"encoding": "inplace",
						"label": "address",
						"numberOfBytes": "20"
					},
					"t_bool": {
						"encoding": "inplace",
						"label": "bool",
						"numberOfBytes": "1"
					},
					"t_bytes32": {
						"encoding": "inplace",
						"label": "bytes32",
						"numberOfBytes": "32"
					},
					"t_mapping(t_address,t_bytes32)": {
						"encoding": "mapping",
						"key": "t_address",
						"label": "mapping(address => bytes32)",
						"numberOfBytes": "32",
						"value": "t_bytes32"
					},
					"t_mapping(t_address,t_struct(RoleProof)24_storage)": {
						"encoding": "mapping",
						"key": "t_address",
						"label": "mapping(address => struct ZKPVerifier.RoleProof)",
						"numberOfBytes": "32",
						"value": "t_struct(RoleProof)24_storage"
					},
					"t_struct(RoleProof)24_storage": {
						"encoding": "inplace",
						"label": "struct ZKPVerifier.RoleProof",
						"members": [
							{
								"astId": 19,
								"contract": "contracts/ZKPVerifier.sol:ZKPVerifier",
								"label": "roleHash",
								"offset": 0,
								"slot": "0",
								"type": "t_bytes32"
							},
							{
								"astId": 21,
								"contract": "contracts/ZKPVerifier.sol:ZKPVerifier",
								"label": "timestamp",
								"offset": 0,
								"slot": "1",
								"type": "t_uint256"
							},
							{
								"astId": 23,
								"contract": "contracts/ZKPVerifier.sol:ZKPVerifier",
								"label": "isValid",
								"offset": 0,
								"slot": "2",
								"type": "t_bool"
							}
						],
						"numberOfBytes": "96"
					},
					"t_uint256": {
						"encoding": "inplace",
						"label": "uint256",
						"numberOfBytes": "32"
					}
				}
			},
			"userdoc": {
				"kind": "user",
				"methods": {},
				"version": 1
			}
		}
	}
}