{
	"data": {
		"bytecode": {
			"linkReferences": {},
			"object": "6080604052348015600e575f80fd5b50611cee8061001c5f395ff3fe608060405234801561000f575f80fd5b50600436106100a7575f3560e01c8063584426d01161006f578063584426d01461017357806380e52e3f1461018f578063890e3093146101ab57806389b3af29146101db57806390218ee81461020b578063d62078991461023b576100a7565b806307d6e3d9146100ab57806313d054d7146100db57806325f2ac62146100f757806327820851146101135780634327757514610143575b5f80fd5b6100c560048036038101906100c091906111dd565b610257565b6040516100d29190611235565b60405180910390f35b6100f560048036038101906100f09190611281565b6102a2565b005b610111600480360381019061010c919061140d565b61051e565b005b61012d60048036038101906101289190611467565b61066e565b60405161013a9190611505565b60405180910390f35b61015d60048036038101906101589190611467565b6106c1565b60405161016a919061157e565b60405180910390f35b61018d600480360381019061018891906115eb565b610790565b005b6101a960048036038101906101a49190611467565b6108ae565b005b6101c560048036038101906101c09190611467565b610a80565b6040516101d29190611666565b60405180910390f35b6101f560048036038101906101f0919061140d565b610ac8565b6040516102029190611235565b60405180910390f35b6102256004803603810190610220919061167f565b610d66565b6040516102329190611235565b60405180910390f35b610255600480360381019061025091906116bd565b610e3c565b005b5f815f808573ffffffffffffffffffffffffffffffffffffffff1673ffffffffffffffffffffffffffffffffffffffff1681526020019081526020015f206002015414905092915050565b600460068111156102b6576102b5611492565b5b5f808573ffffffffffffffffffffffffffffffffffffffff1673ffffffffffffffffffffffffffffffffffffffff1681526020019081526020015f205f015f9054906101000a900460ff16600681111561031357610312611492565b5b148061038d57506003600681111561032e5761032d611492565b5b5f808573ffffffffffffffffffffffffffffffffffffffff1673ffffffffffffffffffffffffffffffffffffffff1681526020019081526020015f205f015f9054906101000a900460ff16600681111561038b5761038a611492565b5b145b6103cc576040517f08c379a00000000000000000000000000000000000000000000000000000000081526004016103c39061179a565b60405180910390fd5b600160035f8573ffffffffffffffffffffffffffffffffffffffff1673ffffffffffffffffffffffffffffffffffffffff1681526020019081526020015f205f8473ffffffffffffffffffffffffffffffffffffffff1673ffffffffffffffffffffffffffffffffffffffff1681526020019081526020015f205f6101000a81548160ff021916908315150217905550804261046891906117e5565b60045f8573ffffffffffffffffffffffffffffffffffffffff1673ffffffffffffffffffffffffffffffffffffffff1681526020019081526020015f20819055508173ffffffffffffffffffffffffffffffffffffffff168373ffffffffffffffffffffffffffffffffffffffff167f5d1675d647fd82d7866123d4b61e400e9b9cd41946ae22001974c31e8addb20b834261050491906117e5565b6040516105119190611827565b60405180910390a3505050565b6005600681111561053257610531611492565b5b5f803373ffffffffffffffffffffffffffffffffffffffff1673ffffffffffffffffffffffffffffffffffffffff1681526020019081526020015f205f015f9054906101000a900460ff16600681111561058f5761058e611492565b5b146105cf576040517f08c379a00000000000000000000000000000000000000000000000000000000081526004016105c69061188a565b60405180910390fd5b805f808473ffffffffffffffffffffffffffffffffffffffff1673ffffffffffffffffffffffffffffffffffffffff1681526020019081526020015f20600301908161061b9190611aa2565b508173ffffffffffffffffffffffffffffffffffffffff167f2e4c08625c9e3b0b3c8abc753cd58a5e03a51e54ef21641e798745077b2848d482604051610662919061157e565b60405180910390a25050565b5f805f8373ffffffffffffffffffffffffffffffffffffffff1673ffffffffffffffffffffffffffffffffffffffff1681526020019081526020015f205f015f9054906101000a900460ff169050919050565b60605f808373ffffffffffffffffffffffffffffffffffffffff1673ffffffffffffffffffffffffffffffffffffffff1681526020019081526020015f20600301805461070d906118d5565b80601f0160208091040260200160405190810160405280929190818152602001828054610739906118d5565b80156107845780601f1061075b57610100808354040283529160200191610784565b820191905f5260205f20905b81548152906001019060200180831161076757829003601f168201915b50505050509050919050565b600560068111156107a4576107a3611492565b5b5f803373ffffffffffffffffffffffffffffffffffffffff1673ffffffffffffffffffffffffffffffffffffffff1681526020019081526020015f205f015f9054906101000a900460ff16600681111561080157610800611492565b5b14610841576040517f08c379a00000000000000000000000000000000000000000000000000000000081526004016108389061188a565b60405180910390fd5b8060015f85600681111561085857610857611492565b5b600681111561086a57610869611492565b5b81526020019081526020015f20836040516108859190611bab565b90815260200160405180910390205f6101000a81548160ff021916908315150217905550505050565b600560068111156108c2576108c1611492565b5b5f803373ffffffffffffffffffffffffffffffffffffffff1673ffffffffffffffffffffffffffffffffffffffff1681526020019081526020015f205f015f9054906101000a900460ff16600681111561091f5761091e611492565b5b1461095f576040517f08c379a00000000000000000000000000000000000000000000000000000000081526004016109569061188a565b60405180910390fd5b5f805f8373ffffffffffffffffffffffffffffffffffffffff1673ffffffffffffffffffffffffffffffffffffffff1681526020019081526020015f205f015f9054906101000a900460ff1690505f808373ffffffffffffffffffffffffffffffffffffffff1673ffffffffffffffffffffffffffffffffffffffff1681526020019081526020015f205f8082015f6101000a81549060ff02191690555f820160016101000a81549060ff0219169055600182015f9055600282015f9055600382015f610a2c91906110e7565b50508173ffffffffffffffffffffffffffffffffffffffff167f34a1009b84e077aee5bc8197faf7105e54f9ba6879e2a51a716e4156ea9ad76982604051610a749190611505565b60405180910390a25050565b5f805f8373ffffffffffffffffffffffffffffffffffffffff1673ffffffffffffffffffffffffffffffffffffffff1681526020019081526020015f20600201549050919050565b5f825f808273ffffffffffffffffffffffffffffffffffffffff1673ffffffffffffffffffffffffffffffffffffffff1681526020019081526020015f205f0160019054906101000a900460ff16610b55576040517f08c379a0000000000000000000000000000000000000000000000000000000008152600401610b4c90611c0b565b60405180910390fd5b425f808373ffffffffffffffffffffffffffffffffffffffff1673ffffffffffffffffffffffffffffffffffffffff1681526020019081526020015f206001015411610bd6576040517f08c379a0000000000000000000000000000000000000000000000000000000008152600401610bcd90611c73565b60405180910390fd5b60025f8573ffffffffffffffffffffffffffffffffffffffff1673ffffffffffffffffffffffffffffffffffffffff1681526020019081526020015f2083604051610c219190611bab565b90815260200160405180910390206001015f9054906101000a900460ff168015610ca657504260025f8673ffffffffffffffffffffffffffffffffffffffff1673ffffffffffffffffffffffffffffffffffffffff1681526020019081526020015f2084604051610c929190611bab565b908152602001604051809103902060020154115b15610cb45760019150610d5f565b60015f805f8773ffffffffffffffffffffffffffffffffffffffff1673ffffffffffffffffffffffffffffffffffffffff1681526020019081526020015f205f015f9054906101000a900460ff166006811115610d1457610d13611492565b5b6006811115610d2657610d25611492565b5b81526020019081526020015f2083604051610d419190611bab565b90815260200160405180910390205f9054906101000a900460ff1691505b5092915050565b5f60035f8473ffffffffffffffffffffffffffffffffffffffff1673ffffffffffffffffffffffffffffffffffffffff1681526020019081526020015f205f8373ffffffffffffffffffffffffffffffffffffffff1673ffffffffffffffffffffffffffffffffffffffff1681526020019081526020015f205f9054906101000a900460ff168015610e3457504260045f8573ffffffffffffffffffffffffffffffffffffffff1673ffffffffffffffffffffffffffffffffffffffff1681526020019081526020015f2054115b905092915050565b60056006811115610e5057610e4f611492565b5b5f803373ffffffffffffffffffffffffffffffffffffffff1673ffffffffffffffffffffffffffffffffffffffff1681526020019081526020015f205f015f9054906101000a900460ff166006811115610ead57610eac611492565b5b14610eed576040517f08c379a0000000000000000000000000000000000000000000000000000000008152600401610ee49061188a565b60405180910390fd5b6040518060a00160405280856006811115610f0b57610f0a611492565b5b81526020016001151581526020018442610f2591906117e5565b8152602001838152602001828152505f808773ffffffffffffffffffffffffffffffffffffffff1673ffffffffffffffffffffffffffffffffffffffff1681526020019081526020015f205f820151815f015f6101000a81548160ff02191690836006811115610f9857610f97611492565b5b02179055506020820151815f0160016101000a81548160ff02191690831515021790555060408201518160010155606082015181600201556080820151816003019081610fe59190611aa2565b509050508473ffffffffffffffffffffffffffffffffffffffff167fb7f677009e40b63d956ecadcfcb1f65c754aa8f19532b58a315c47d23dfcbdcb85854261102e91906117e5565b60405161103c929190611c91565b60405180910390a28473ffffffffffffffffffffffffffffffffffffffff167ff14d50635c42317b4d1282b6a2752b2a85162c335d7dd219891576dae3da254c8360405161108a9190611666565b60405180910390a28473ffffffffffffffffffffffffffffffffffffffff167f2e4c08625c9e3b0b3c8abc753cd58a5e03a51e54ef21641e798745077b2848d4826040516110d8919061157e565b60405180910390a25050505050565b5080546110f3906118d5565b5f825580601f106111045750611121565b601f0160209004905f5260205f20908101906111209190611124565b5b50565b5b8082111561113b575f815f905550600101611125565b5090565b5f604051905090565b5f80fd5b5f80fd5b5f73ffffffffffffffffffffffffffffffffffffffff82169050919050565b5f61117982611150565b9050919050565b6111898161116f565b8114611193575f80fd5b50565b5f813590506111a481611180565b92915050565b5f819050919050565b6111bc816111aa565b81146111c6575f80fd5b50565b5f813590506111d7816111b3565b92915050565b5f80604083850312156111f3576111f2611148565b5b5f61120085828601611196565b9250506020611211858286016111c9565b9150509250929050565b5f8115159050919050565b61122f8161121b565b82525050565b5f6020820190506112485f830184611226565b92915050565b5f819050919050565b6112608161124e565b811461126a575f80fd5b50565b5f8135905061127b81611257565b92915050565b5f805f6060848603121561129857611297611148565b5b5f6112a586828701611196565b93505060206112b686828701611196565b92505060406112c78682870161126d565b9150509250925092565b5f80fd5b5f80fd5b5f601f19601f8301169050919050565b7f4e487b71000000000000000000000000000000000000000000000000000000005f52604160045260245ffd5b61131f826112d9565b810181811067ffffffffffffffff8211171561133e5761133d6112e9565b5b80604052505050565b5f61135061113f565b905061135c8282611316565b919050565b5f67ffffffffffffffff82111561137b5761137a6112e9565b5b611384826112d9565b9050602081019050919050565b828183375f83830152505050565b5f6113b16113ac84611361565b611347565b9050828152602081018484840111156113cd576113cc6112d5565b5b6113d8848285611391565b509392505050565b5f82601f8301126113f4576113f36112d1565b5b813561140484826020860161139f565b91505092915050565b5f806040838503121561142357611422611148565b5b5f61143085828601611196565b925050602083013567ffffffffffffffff8111156114515761145061114c565b5b61145d858286016113e0565b9150509250929050565b5f6020828403121561147c5761147b611148565b5b5f61148984828501611196565b91505092915050565b7f4e487b71000000000000000000000000000000000000000000000000000000005f52602160045260245ffd5b600781106114d0576114cf611492565b5b50565b5f8190506114e0826114bf565b919050565b5f6114ef826114d3565b9050919050565b6114ff816114e5565b82525050565b5f6020820190506115185f8301846114f6565b92915050565b5f81519050919050565b5f82825260208201905092915050565b8281835e5f83830152505050565b5f6115508261151e565b61155a8185611528565b935061156a818560208601611538565b611573816112d9565b840191505092915050565b5f6020820190508181035f8301526115968184611546565b905092915050565b600781106115aa575f80fd5b50565b5f813590506115bb8161159e565b92915050565b6115ca8161121b565b81146115d4575f80fd5b50565b5f813590506115e5816115c1565b92915050565b5f805f6060848603121561160257611601611148565b5b5f61160f868287016115ad565b935050602084013567ffffffffffffffff8111156116305761162f61114c565b5b61163c868287016113e0565b925050604061164d868287016115d7565b9150509250925092565b611660816111aa565b82525050565b5f6020820190506116795f830184611657565b92915050565b5f806040838503121561169557611694611148565b5b5f6116a285828601611196565b92505060206116b385828601611196565b9150509250929050565b5f805f805f60a086880312156116d6576116d5611148565b5b5f6116e388828901611196565b95505060206116f4888289016115ad565b94505060406117058882890161126d565b9350506060611716888289016111c9565b925050608086013567ffffffffffffffff8111156117375761173661114c565b5b611743888289016113e0565b9150509295509295909350565b7f556e617574686f72697a65642070726f766964657220726f6c650000000000005f82015250565b5f611784601a83611528565b915061178f82611750565b602082019050919050565b5f6020820190508181035f8301526117b181611778565b9050919050565b7f4e487b71000000000000000000000000000000000000000000000000000000005f52601160045260245ffd5b5f6117ef8261124e565b91506117fa8361124e565b9250828201905080821115611812576118116117b8565b5b92915050565b6118218161124e565b82525050565b5f60208201905061183a5f830184611818565b92915050565b7f41646d696e2061636365737320726571756972656400000000000000000000005f82015250565b5f611874601583611528565b915061187f82611840565b602082019050919050565b5f6020820190508181035f8301526118a181611868565b9050919050565b7f4e487b71000000000000000000000000000000000000000000000000000000005f52602260045260245ffd5b5f60028204905060018216806118ec57607f821691505b6020821081036118ff576118fe6118a8565b5b50919050565b5f819050815f5260205f209050919050565b5f6020601f8301049050919050565b5f82821b905092915050565b5f600883026119617fffffffffffffffffffffffffffffffffffffffffffffffffffffffffffffffff82611926565b61196b8683611926565b95508019841693508086168417925050509392505050565b5f819050919050565b5f6119a66119a161199c8461124e565b611983565b61124e565b9050919050565b5f819050919050565b6119bf8361198c565b6119d36119cb826119ad565b848454611932565b825550505050565b5f90565b6119e76119db565b6119f28184846119b6565b505050565b5b81811015611a1557611a0a5f826119df565b6001810190506119f8565b5050565b601f821115611a5a57611a2b81611905565b611a3484611917565b81016020851015611a43578190505b611a57611a4f85611917565b8301826119f7565b50505b505050565b5f82821c905092915050565b5f611a7a5f1984600802611a5f565b1980831691505092915050565b5f611a928383611a6b565b9150826002028217905092915050565b611aab8261151e565b67ffffffffffffffff811115611ac457611ac36112e9565b5b611ace82546118d5565b611ad9828285611a19565b5f60209050601f831160018114611b0a575f8415611af8578287015190505b611b028582611a87565b865550611b69565b601f198416611b1886611905565b5f5b82811015611b3f57848901518255600182019150602085019450602081019050611b1a565b86831015611b5c5784890151611b58601f891682611a6b565b8355505b6001600288020188555050505b505050505050565b5f81905092915050565b5f611b858261151e565b611b8f8185611b71565b9350611b9f818560208601611538565b80840191505092915050565b5f611bb68284611b7b565b915081905092915050565b7f526f6c65206e6f742061637469766500000000000000000000000000000000005f82015250565b5f611bf5600f83611528565b9150611c0082611bc1565b602082019050919050565b5f6020820190508181035f830152611c2281611be9565b9050919050565b7f526f6c65206578706972656400000000000000000000000000000000000000005f82015250565b5f611c5d600c83611528565b9150611c6882611c29565b602082019050919050565b5f6020820190508181035f830152611c8a81611c51565b9050919050565b5f604082019050611ca45f8301856114f6565b611cb16020830184611818565b939250505056fea26469706673582212201c9a037b7663ada9c9ef383bb3187f1d4060dee9ec49c8160f8358e3c7a9f20f64736f6c634300081a0033",
			"opcodes": "PUSH1 0x80 PUSH1 0x40 MSTORE CALLVALUE DUP1 ISZERO PUSH1 0xE JUMPI PUSH0 DUP1 REVERT JUMPDEST POP PUSH2 0x1CEE DUP1 PUSH2 0x1C PUSH0 CODECOPY PUSH0 RETURN INVALID PUSH1 0x80 PUSH1 0x40 MSTORE CALLVALUE DUP1 ISZERO PUSH2 0xF JUMPI PUSH0 DUP1 REVERT JUMPDEST POP PUSH1 0x4 CALLDATASIZE LT PUSH2 0xA7 JUMPI PUSH0 CALLDATALOAD PUSH1 0xE0 SHR DUP1 PUSH4 0x584426D0 GT PUSH2 0x6F JUMPI DUP1 PUSH4 0x584426D0 EQ PUSH2 0x173 JUMPI DUP1 PUSH4 0x80E52E3F EQ PUSH2 0x18F JUMPI DUP1 PUSH4 0x890E3093 EQ PUSH2 0x1AB JUMPI DUP1 PUSH4 0x89B3AF29 EQ PUSH2 0x1DB JUMPI DUP1 PUSH4 0x90218EE8 EQ PUSH2 0x20B JUMPI DUP1 PUSH4 0xD6207899 EQ PUSH2 0x23B JUMPI PUSH2 0xA7 JUMP JUMPDEST DUP1 PUSH4 0x7D6E3D9 EQ PUSH2 0xAB JUMPI DUP1 PUSH4 0x13D054D7 EQ PUSH2 0xDB JUMPI DUP1 PUSH4 0x25F2AC62 EQ PUSH2 0xF7 JUMPI DUP1 PUSH4 0x27820851 EQ PUSH2 0x113 JUMPI DUP1 PUSH4 0x43277575 EQ PUSH2 0x143 JUMPI JUMPDEST PUSH0 DUP1 REVERT JUMPDEST PUSH2 0xC5 PUSH1 0x4 DUP1 CALLDATASIZE SUB DUP2 ADD SWAP1 PUSH2 0xC0 SWAP2 SWAP1 PUSH2 0x11DD JUMP JUMPDEST PUSH2 0x257 JUMP JUMPDEST PUSH1 0x40 MLOAD PUSH2 0xD2 SWAP2 SWAP1 PUSH2 0x1235 JUMP JUMPDEST PUSH1 0x40 MLOAD DUP1 SWAP2 SUB SWAP1 RETURN JUMPDEST PUSH2 0xF5 PUSH1 0x4 DUP1 CALLDATASIZE SUB DUP2 ADD SWAP1 PUSH2 0xF0 SWAP2 SWAP1 PUSH2 0x1281 JUMP JUMPDEST PUSH2 0x2A2 JUMP JUMPDEST STOP JUMPDEST PUSH2 0x111 PUSH1 0x4 DUP1 CALLDATASIZE SUB DUP2 ADD SWAP1 PUSH2 0x10C SWAP2 SWAP1 PUSH2 0x140D JUMP JUMPDEST PUSH2 0x51E JUMP JUMPDEST STOP JUMPDEST PUSH2 0x12D PUSH1 0x4 DUP1 CALLDATASIZE SUB DUP2 ADD SWAP1 PUSH2 0x128 SWAP2 SWAP1 PUSH2 0x1467 JUMP JUMPDEST PUSH2 0x66E JUMP JUMPDEST PUSH1 0x40 MLOAD PUSH2 0x13A SWAP2 SWAP1 PUSH2 0x1505 JUMP JUMPDEST PUSH1 0x40 MLOAD DUP1 SWAP2 SUB SWAP1 RETURN JUMPDEST PUSH2 0x15D PUSH1 0x4 DUP1 CALLDATASIZE SUB DUP2 ADD SWAP1 PUSH2 0x158 SWAP2 SWAP1 PUSH2 0x1467 JUMP JUMPDEST PUSH2 0x6C1 JUMP JUMPDEST PUSH1 0x40 MLOAD PUSH2 0x16A SWAP2 SWAP1 PUSH2 0x157E JUMP JUMPDEST PUSH1 0x40 MLOAD DUP1 SWAP2 SUB SWAP1 RETURN JUMPDEST PUSH2 0x18D PUSH1 0x4 DUP1 CALLDATASIZE SUB DUP2 ADD SWAP1 PUSH2 0x188 SWAP2 SWAP1 PUSH2 0x15EB JUMP JUMPDEST PUSH2 0x790 JUMP JUMPDEST STOP JUMPDEST PUSH2 0x1A9 PUSH1 0x4 DUP1 CALLDATASIZE SUB DUP2 ADD SWAP1 PUSH2 0x1A4 SWAP2 SWAP1 PUSH2 0x1467 JUMP JUMPDEST PUSH2 0x8AE JUMP JUMPDEST STOP JUMPDEST PUSH2 0x1C5 PUSH1 0x4 DUP1 CALLDATASIZE SUB DUP2 ADD SWAP1 PUSH2 0x1C0 SWAP2 SWAP1 PUSH2 0x1467 JUMP JUMPDEST PUSH2 0xA80 JUMP JUMPDEST PUSH1 0x40 MLOAD PUSH2 0x1D2 SWAP2 SWAP1 PUSH2 0x1666 JUMP JUMPDEST PUSH1 0x40 MLOAD DUP1 SWAP2 SUB SWAP1 RETURN JUMPDEST PUSH2 0x1F5 PUSH1 0x4 DUP1 CALLDATASIZE SUB DUP2 ADD SWAP1 PUSH2 0x1F0 SWAP2 SWAP1 PUSH2 0x140D JUMP JUMPDEST PUSH2 0xAC8 JUMP JUMPDEST PUSH1 0x40 MLOAD PUSH2 0x202 SWAP2 SWAP1 PUSH2 0x1235 JUMP JUMPDEST PUSH1 0x40 MLOAD DUP1 SWAP2 SUB SWAP1 RETURN JUMPDEST PUSH2 0x225 PUSH1 0x4 DUP1 CALLDATASIZE SUB DUP2 ADD SWAP1 PUSH2 0x220 SWAP2 SWAP1 PUSH2 0x167F JUMP JUMPDEST PUSH2 0xD66 JUMP JUMPDEST PUSH1 0x40 MLOAD PUSH2 0x232 SWAP2 SWAP1 PUSH2 0x1235 JUMP JUMPDEST PUSH1 0x40 MLOAD DUP1 SWAP2 SUB SWAP1 RETURN JUMPDEST PUSH2 0x255 PUSH1 0x4 DUP1 CALLDATASIZE SUB DUP2 ADD SWAP1 PUSH2 0x250 SWAP2 SWAP1 PUSH2 0x16BD JUMP JUMPDEST PUSH2 0xE3C JUMP JUMPDEST STOP JUMPDEST PUSH0 DUP2 PUSH0 DUP1 DUP6 PUSH20 0xFFFFFFFFFFFFFFFFFFFFFFFFFFFFFFFFFFFFFFFF AND PUSH20 0xFFFFFFFFFFFFFFFFFFFFFFFFFFFFFFFFFFFFFFFF AND DUP2 MSTORE PUSH1 0x20 ADD SWAP1 DUP2 MSTORE PUSH1 0x20 ADD PUSH0 KECCAK256 PUSH1 0x2 ADD SLOAD EQ SWAP1 POP SWAP3 SWAP2 POP POP JUMP JUMPDEST PUSH1 0x4 PUSH1 0x6 DUP2 GT ISZERO PUSH2 0x2B6 JUMPI PUSH2 0x2B5 PUSH2 0x1492 JUMP JUMPDEST JUMPDEST PUSH0 DUP1 DUP6 PUSH20 0xFFFFFFFFFFFFFFFFFFFFFFFFFFFFFFFFFFFFFFFF AND PUSH20 0xFFFFFFFFFFFFFFFFFFFFFFFFFFFFFFFFFFFFFFFF AND DUP2 MSTORE PUSH1 0x20 ADD SWAP1 DUP2 MSTORE PUSH1 0x20 ADD PUSH0 KECCAK256 PUSH0 ADD PUSH0 SWAP1 SLOAD SWAP1 PUSH2 0x100 EXP SWAP1 DIV PUSH1 0xFF AND PUSH1 0x6 DUP2 GT ISZERO PUSH2 0x313 JUMPI PUSH2 0x312 PUSH2 0x1492 JUMP JUMPDEST JUMPDEST EQ DUP1 PUSH2 0x38D JUMPI POP PUSH1 0x3 PUSH1 0x6 DUP2 GT ISZERO PUSH2 0x32E JUMPI PUSH2 0x32D PUSH2 0x1492 JUMP JUMPDEST JUMPDEST PUSH0 DUP1 DUP6 PUSH20 0xFFFFFFFFFFFFFFFFFFFFFFFFFFFFFFFFFFFFFFFF AND PUSH20 0xFFFFFFFFFFFFFFFFFFFFFFFFFFFFFFFFFFFFFFFF AND DUP2 MSTORE PUSH1 0x20 ADD SWAP1 DUP2 MSTORE PUSH1 0x20 ADD PUSH0 KECCAK256 PUSH0 ADD PUSH0 SWAP1 SLOAD SWAP1 PUSH2 0x100 EXP SWAP1 DIV PUSH1 0xFF AND PUSH1 0x6 DUP2 GT ISZERO PUSH2 0x38B JUMPI PUSH2 0x38A PUSH2 0x1492 JUMP JUMPDEST JUMPDEST EQ JUMPDEST PUSH2 0x3CC JUMPI PUSH1 0x40 MLOAD PUSH32 0x8C379A000000000000000000000000000000000000000000000000000000000 DUP2 MSTORE PUSH1 0x4 ADD PUSH2 0x3C3 SWAP1 PUSH2 0x179A JUMP JUMPDEST PUSH1 0x40 MLOAD DUP1 SWAP2 SUB SWAP1 REVERT JUMPDEST PUSH1 0x1 PUSH1 0x3 PUSH0 DUP6 PUSH20 0xFFFFFFFFFFFFFFFFFFFFFFFFFFFFFFFFFFFFFFFF AND PUSH20 0xFFFFFFFFFFFFFFFFFFFFFFFFFFFFFFFFFFFFFFFF AND DUP2 MSTORE PUSH1 0x20 ADD SWAP1 DUP2 MSTORE PUSH1 0x20 ADD PUSH0 KECCAK256 PUSH0 DUP5 PUSH20 0xFFFFFFFFFFFFFFFFFFFFFFFFFFFFFFFFFFFFFFFF AND PUSH20 0xFFFFFFFFFFFFFFFFFFFFFFFFFFFFFFFFFFFFFFFF AND DUP2 MSTORE PUSH1 0x20 ADD SWAP1 DUP2 MSTORE PUSH1 0x20 ADD PUSH0 KECCAK256 PUSH0 PUSH2 0x100 EXP DUP2 SLOAD DUP2 PUSH1 0xFF MUL NOT AND SWAP1 DUP4 ISZERO ISZERO MUL OR SWAP1 SSTORE POP DUP1 TIMESTAMP PUSH2 0x468 SWAP2 SWAP1 PUSH2 0x17E5 JUMP JUMPDEST PUSH1 0x4 PUSH0 DUP6 PUSH20 0xFFFFFFFFFFFFFFFFFFFFFFFFFFFFFFFFFFFFFFFF AND PUSH20 0xFFFFFFFFFFFFFFFFFFFFFFFFFFFFFFFFFFFFFFFF AND DUP2 MSTORE PUSH1 0x20 ADD SWAP1 DUP2 MSTORE PUSH1 0x20 ADD PUSH0 KECCAK256 DUP2 SWAP1 SSTORE POP DUP2 PUSH20 0xFFFFFFFFFFFFFFFFFFFFFFFFFFFFFFFFFFFFFFFF AND DUP4 PUSH20 0xFFFFFFFFFFFFFFFFFFFFFFFFFFFFFFFFFFFFFFFF AND PUSH32 0x5D1675D647FD82D7866123D4B61E400E9B9CD41946AE22001974C31E8ADDB20B DUP4 TIMESTAMP PUSH2 0x504 SWAP2 SWAP1 PUSH2 0x17E5 JUMP JUMPDEST PUSH1 0x40 MLOAD PUSH2 0x511 SWAP2 SWAP1 PUSH2 0x1827 JUMP JUMPDEST PUSH1 0x40 MLOAD DUP1 SWAP2 SUB SWAP1 LOG3 POP POP POP JUMP JUMPDEST PUSH1 0x5 PUSH1 0x6 DUP2 GT ISZERO PUSH2 0x532 JUMPI PUSH2 0x531 PUSH2 0x1492 JUMP JUMPDEST JUMPDEST PUSH0 DUP1 CALLER PUSH20 0xFFFFFFFFFFFFFFFFFFFFFFFFFFFFFFFFFFFFFFFF AND PUSH20 0xFFFFFFFFFFFFFFFFFFFFFFFFFFFFFFFFFFFFFFFF AND DUP2 MSTORE PUSH1 0x20 ADD SWAP1 DUP2 MSTORE PUSH1 0x20 ADD PUSH0 KECCAK256 PUSH0 ADD PUSH0 SWAP1 SLOAD SWAP1 PUSH2 0x100 EXP SWAP1 DIV PUSH1 0xFF AND PUSH1 0x6 DUP2 GT ISZERO PUSH2 0x58F JUMPI PUSH2 0x58E PUSH2 0x1492 JUMP JUMPDEST JUMPDEST EQ PUSH2 0x5CF JUMPI PUSH1 0x40 MLOAD PUSH32 0x8C379A000000000000000000000000000000000000000000000000000000000 DUP2 MSTORE PUSH1 0x4 ADD PUSH2 0x5C6 SWAP1 PUSH2 0x188A JUMP JUMPDEST PUSH1 0x40 MLOAD DUP1 SWAP2 SUB SWAP1 REVERT JUMPDEST DUP1 PUSH0 DUP1 DUP5 PUSH20 0xFFFFFFFFFFFFFFFFFFFFFFFFFFFFFFFFFFFFFFFF AND PUSH20 0xFFFFFFFFFFFFFFFFFFFFFFFFFFFFFFFFFFFFFFFF AND DUP2 MSTORE PUSH1 0x20 ADD SWAP1 DUP2 MSTORE PUSH1 0x20 ADD PUSH0 KECCAK256 PUSH1 0x3 ADD SWAP1 DUP2 PUSH2 0x61B SWAP2 SWAP1 PUSH2 0x1AA2 JUMP JUMPDEST POP DUP2 PUSH20 0xFFFFFFFFFFFFFFFFFFFFFFFFFFFFFFFFFFFFFFFF AND PUSH32 0x2E4C08625C9E3B0B3C8ABC753CD58A5E03A51E54EF21641E798745077B2848D4 DUP3 PUSH1 0x40 MLOAD PUSH2 0x662 SWAP2 SWAP1 PUSH2 0x157E JUMP JUMPDEST PUSH1 0x40 MLOAD DUP1 SWAP2 SUB SWAP1 LOG2 POP POP JUMP JUMPDEST PUSH0 DUP1 PUSH0 DUP4 PUSH20 0xFFFFFFFFFFFFFFFFFFFFFFFFFFFFFFFFFFFFFFFF AND PUSH20 0xFFFFFFFFFFFFFFFFFFFFFFFFFFFFFFFFFFFFFFFF AND DUP2 MSTORE PUSH1 0x20 ADD SWAP1 DUP2 MSTORE PUSH1 0x20 ADD PUSH0 KECCAK256 PUSH0 ADD PUSH0 SWAP1 SLOAD SWAP1 PUSH2 0x100 EXP SWAP1 DIV PUSH1 0xFF AND SWAP1 POP SWAP2 SWAP1 POP JUMP JUMPDEST PUSH1 0x60 PUSH0 DUP1 DUP4 PUSH20 0xFFFFFFFFFFFFFFFFFFFFFFFFFFFFFFFFFFFFFFFF AND PUSH20 0xFFFFFFFFFFFFFFFFFFFFFFFFFFFFFFFFFFFFFFFF AND DUP2 MSTORE PUSH1 0x20 ADD SWAP1 DUP2 MSTORE PUSH1 0x20 ADD PUSH0 KECCAK256 PUSH1 0x3 ADD DUP1 SLOAD PUSH2 0x70D SWAP1 PUSH2 0x18D5 JUMP JUMPDEST DUP1 PUSH1 0x1F ADD PUSH1 0x20 DUP1 SWAP2 DIV MUL PUSH1 0x20 ADD PUSH1 0x40 MLOAD SWAP1 DUP2 ADD PUSH1 0x40 MSTORE DUP1 SWAP3 SWAP2 SWAP1 DUP2 DUP2 MSTORE PUSH1 0x20 ADD DUP3 DUP1 SLOAD PUSH2 0x739 SWAP1 PUSH2 0x18D5 JUMP JUMPDEST DUP1 ISZERO PUSH2 0x784 JUMPI DUP1 PUSH1 0x1F LT PUSH2 0x75B JUMPI PUSH2 0x100 DUP1 DUP4 SLOAD DIV MUL DUP4 MSTORE SWAP2 PUSH1 0x20 ADD SWAP2 PUSH2 0x784 JUMP JUMPDEST DUP3 ADD SWAP2 SWAP1 PUSH0 MSTORE PUSH1 0x20 PUSH0 KECCAK256 SWAP1 JUMPDEST DUP2 SLOAD DUP2 MSTORE SWAP1 PUSH1 0x1 ADD SWAP1 PUSH1 0x20 ADD DUP1 DUP4 GT PUSH2 0x767 JUMPI DUP3 SWAP1 SUB PUSH1 0x1F AND DUP3 ADD SWAP2 JUMPDEST POP POP POP POP POP SWAP1 POP SWAP2 SWAP1 POP JUMP JUMPDEST PUSH1 0x5 PUSH1 0x6 DUP2 GT ISZERO PUSH2 0x7A4 JUMPI PUSH2 0x7A3 PUSH2 0x1492 JUMP JUMPDEST JUMPDEST PUSH0 DUP1 CALLER PUSH20 0xFFFFFFFFFFFFFFFFFFFFFFFFFFFFFFFFFFFFFFFF AND PUSH20 0xFFFFFFFFFFFFFFFFFFFFFFFFFFFFFFFFFFFFFFFF AND DUP2 MSTORE PUSH1 0x20 ADD SWAP1 DUP2 MSTORE PUSH1 0x20 ADD PUSH0 KECCAK256 PUSH0 ADD PUSH0 SWAP1 SLOAD SWAP1 PUSH2 0x100 EXP SWAP1 DIV PUSH1 0xFF AND PUSH1 0x6 DUP2 GT ISZERO PUSH2 0x801 JUMPI PUSH2 0x800 PUSH2 0x1492 JUMP JUMPDEST JUMPDEST EQ PUSH2 0x841 JUMPI PUSH1 0x40 MLOAD PUSH32 0x8C379A000000000000000000000000000000000000000000000000000000000 DUP2 MSTORE PUSH1 0x4 ADD PUSH2 0x838 SWAP1 PUSH2 0x188A JUMP JUMPDEST PUSH1 0x40 MLOAD DUP1 SWAP2 SUB SWAP1 REVERT JUMPDEST DUP1 PUSH1 0x1 PUSH0 DUP6 PUSH1 0x6 DUP2 GT ISZERO PUSH2 0x858 JUMPI PUSH2 0x857 PUSH2 0x1492 JUMP JUMPDEST JUMPDEST PUSH1 0x6 DUP2 GT ISZERO PUSH2 0x86A JUMPI PUSH2 0x869 PUSH2 0x1492 JUMP JUMPDEST JUMPDEST DUP2 MSTORE PUSH1 0x20 ADD SWAP1 DUP2 MSTORE PUSH1 0x20 ADD PUSH0 KECCAK256 DUP4 PUSH1 0x40 MLOAD PUSH2 0x885 SWAP2 SWAP1 PUSH2 0x1BAB JUMP JUMPDEST SWAP1 DUP2 MSTORE PUSH1 0x20 ADD PUSH1 0x40 MLOAD DUP1 SWAP2 SUB SWAP1 KECCAK256 PUSH0 PUSH2 0x100 EXP DUP2 SLOAD DUP2 PUSH1 0xFF MUL NOT AND SWAP1 DUP4 ISZERO ISZERO MUL OR SWAP1 SSTORE POP POP POP POP JUMP JUMPDEST PUSH1 0x5 PUSH1 0x6 DUP2 GT ISZERO PUSH2 0x8C2 JUMPI PUSH2 0x8C1 PUSH2 0x1492 JUMP JUMPDEST JUMPDEST PUSH0 DUP1 CALLER PUSH20 0xFFFFFFFFFFFFFFFFFFFFFFFFFFFFFFFFFFFFFFFF AND PUSH20 0xFFFFFFFFFFFFFFFFFFFFFFFFFFFFFFFFFFFFFFFF AND DUP2 MSTORE PUSH1 0x20 ADD SWAP1 DUP2 MSTORE PUSH1 0x20 ADD PUSH0 KECCAK256 PUSH0 ADD PUSH0 SWAP1 SLOAD SWAP1 PUSH2 0x100 EXP SWAP1 DIV PUSH1 0xFF AND PUSH1 0x6 DUP2 GT ISZERO PUSH2 0x91F JUMPI PUSH2 0x91E PUSH2 0x1492 JUMP JUMPDEST JUMPDEST EQ PUSH2 0x95F JUMPI PUSH1 0x40 MLOAD PUSH32 0x8C379A000000000000000000000000000000000000000000000000000000000 DUP2 MSTORE PUSH1 0x4 ADD PUSH2 0x956 SWAP1 PUSH2 0x188A JUMP JUMPDEST PUSH1 0x40 MLOAD DUP1 SWAP2 SUB SWAP1 REVERT JUMPDEST PUSH0 DUP1 PUSH0 DUP4 PUSH20 0xFFFFFFFFFFFFFFFFFFFFFFFFFFFFFFFFFFFFFFFF AND PUSH20 0xFFFFFFFFFFFFFFFFFFFFFFFFFFFFFFFFFFFFFFFF AND DUP2 MSTORE PUSH1 0x20 ADD SWAP1 DUP2 MSTORE PUSH1 0x20 ADD PUSH0 KECCAK256 PUSH0 ADD PUSH0 SWAP1 SLOAD SWAP1 PUSH2 0x100 EXP SWAP1 DIV PUSH1 0xFF AND SWAP1 POP PUSH0 DUP1 DUP4 PUSH20 0xFFFFFFFFFFFFFFFFFFFFFFFFFFFFFFFFFFFFFFFF AND PUSH20 0xFFFFFFFFFFFFFFFFFFFFFFFFFFFFFFFFFFFFFFFF AND DUP2 MSTORE PUSH1 0x20 ADD SWAP1 DUP2 MSTORE PUSH1 0x20 ADD PUSH0 KECCAK256 PUSH0 DUP1 DUP3 ADD PUSH0 PUSH2 0x100 EXP DUP2 SLOAD SWAP1 PUSH1 0xFF MUL NOT AND SWAP1 SSTORE PUSH0 DUP3 ADD PUSH1 0x1 PUSH2 0x100 EXP DUP2 SLOAD SWAP1 PUSH1 0xFF MUL NOT AND SWAP1 SSTORE PUSH1 0x1 DUP3 ADD PUSH0 SWAP1 SSTORE PUSH1 0x2 DUP3 ADD PUSH0 SWAP1 SSTORE PUSH1 0x3 DUP3 ADD PUSH0 PUSH2 0xA2C SWAP2 SWAP1 PUSH2 0x10E7 JUMP JUMPDEST POP POP DUP2 PUSH20 0xFFFFFFFFFFFFFFFFFFFFFFFFFFFFFFFFFFFFFFFF AND PUSH32 0x34A1009B84E077AEE5BC8197FAF7105E54F9BA6879E2A51A716E4156EA9AD769 DUP3 PUSH1 0x40 MLOAD PUSH2 0xA74 SWAP2 SWAP1 PUSH2 0x1505 JUMP JUMPDEST PUSH1 0x40 MLOAD DUP1 SWAP2 SUB SWAP1 LOG2 POP POP JUMP JUMPDEST PUSH0 DUP1 PUSH0 DUP4 PUSH20 0xFFFFFFFFFFFFFFFFFFFFFFFFFFFFFFFFFFFFFFFF AND PUSH20 0xFFFFFFFFFFFFFFFFFFFFFFFFFFFFFFFFFFFFFFFF AND DUP2 MSTORE PUSH1 0x20 ADD SWAP1 DUP2 MSTORE PUSH1 0x20 ADD PUSH0 KECCAK256 PUSH1 0x2 ADD SLOAD SWAP1 POP SWAP2 SWAP1 POP JUMP JUMPDEST PUSH0 DUP3 PUSH0 DUP1 DUP3 PUSH20 0xFFFFFFFFFFFFFFFFFFFFFFFFFFFFFFFFFFFFFFFF AND PUSH20 0xFFFFFFFFFFFFFFFFFFFFFFFFFFFFFFFFFFFFFFFF AND DUP2 MSTORE PUSH1 0x20 ADD SWAP1 DUP2 MSTORE PUSH1 0x20 ADD PUSH0 KECCAK256 PUSH0 ADD PUSH1 0x1 SWAP1 SLOAD SWAP1 PUSH2 0x100 EXP SWAP1 DIV PUSH1 0xFF AND PUSH2 0xB55 JUMPI PUSH1 0x40 MLOAD PUSH32 0x8C379A000000000000000000000000000000000000000000000000000000000 DUP2 MSTORE PUSH1 0x4 ADD PUSH2 0xB4C SWAP1 PUSH2 0x1C0B JUMP JUMPDEST PUSH1 0x40 MLOAD DUP1 SWAP2 SUB SWAP1 REVERT JUMPDEST TIMESTAMP PUSH0 DUP1 DUP4 PUSH20 0xFFFFFFFFFFFFFFFFFFFFFFFFFFFFFFFFFFFFFFFF AND PUSH20 0xFFFFFFFFFFFFFFFFFFFFFFFFFFFFFFFFFFFFFFFF AND DUP2 MSTORE PUSH1 0x20 ADD SWAP1 DUP2 MSTORE PUSH1 0x20 ADD PUSH0 KECCAK256 PUSH1 0x1 ADD SLOAD GT PUSH2 0xBD6 JUMPI PUSH1 0x40 MLOAD PUSH32 0x8C379A000000000000000000000000000000000000000000000000000000000 DUP2 MSTORE PUSH1 0x4 ADD PUSH2 0xBCD SWAP1 PUSH2 0x1C73 JUMP JUMPDEST PUSH1 0x40 MLOAD DUP1 SWAP2 SUB SWAP1 REVERT JUMPDEST PUSH1 0x2 PUSH0 DUP6 PUSH20 0xFFFFFFFFFFFFFFFFFFFFFFFFFFFFFFFFFFFFFFFF AND PUSH20 0xFFFFFFFFFFFFFFFFFFFFFFFFFFFFFFFFFFFFFFFF AND DUP2 MSTORE PUSH1 0x20 ADD SWAP1 DUP2 MSTORE PUSH1 0x20 ADD PUSH0 KECCAK256 DUP4 PUSH1 0x40 MLOAD PUSH2 0xC21 SWAP2 SWAP1 PUSH2 0x1BAB JUMP JUMPDEST SWAP1 DUP2 MSTORE PUSH1 0x20 ADD PUSH1 0x40 MLOAD DUP1 SWAP2 SUB SWAP1 KECCAK256 PUSH1 0x1 ADD PUSH0 SWAP1 SLOAD SWAP1 PUSH2 0x100 EXP SWAP1 DIV PUSH1 0xFF AND DUP1 ISZERO PUSH2 0xCA6 JUMPI POP TIMESTAMP PUSH1 0x2 PUSH0 DUP7 PUSH20 0xFFFFFFFFFFFFFFFFFFFFFFFFFFFFFFFFFFFFFFFF AND PUSH20 0xFFFFFFFFFFFFFFFFFFFFFFFFFFFFFFFFFFFFFFFF AND DUP2 MSTORE PUSH1 0x20 ADD SWAP1 DUP2 MSTORE PUSH1 0x20 ADD PUSH0 KECCAK256 DUP5 PUSH1 0x40 MLOAD PUSH2 0xC92 SWAP2 SWAP1 PUSH2 0x1BAB JUMP JUMPDEST SWAP1 DUP2 MSTORE PUSH1 0x20 ADD PUSH1 0x40 MLOAD DUP1 SWAP2 SUB SWAP1 KECCAK256 PUSH1 0x2 ADD SLOAD GT JUMPDEST ISZERO PUSH2 0xCB4 JUMPI PUSH1 0x1 SWAP2 POP PUSH2 0xD5F JUMP JUMPDEST PUSH1 0x1 PUSH0 DUP1 PUSH0 DUP8 PUSH20 0xFFFFFFFFFFFFFFFFFFFFFFFFFFFFFFFFFFFFFFFF AND PUSH20 0xFFFFFFFFFFFFFFFFFFFFFFFFFFFFFFFFFFFFFFFF AND DUP2 MSTORE PUSH1 0x20 ADD SWAP1 DUP2 MSTORE PUSH1 0x20 ADD PUSH0 KECCAK256 PUSH0 ADD PUSH0 SWAP1 SLOAD SWAP1 PUSH2 0x100 EXP SWAP1 DIV PUSH1 0xFF AND PUSH1 0x6 DUP2 GT ISZERO PUSH2 0xD14 JUMPI PUSH2 0xD13 PUSH2 0x1492 JUMP JUMPDEST JUMPDEST PUSH1 0x6 DUP2 GT ISZERO PUSH2 0xD26 JUMPI PUSH2 0xD25 PUSH2 0x1492 JUMP JUMPDEST JUMPDEST DUP2 MSTORE PUSH1 0x20 ADD SWAP1 DUP2 MSTORE PUSH1 0x20 ADD PUSH0 KECCAK256 DUP4 PUSH1 0x40 MLOAD PUSH2 0xD41 SWAP2 SWAP1 PUSH2 0x1BAB JUMP JUMPDEST SWAP1 DUP2 MSTORE PUSH1 0x20 ADD PUSH1 0x40 MLOAD DUP1 SWAP2 SUB SWAP1 KECCAK256 PUSH0 SWAP1 SLOAD SWAP1 PUSH2 0x100 EXP SWAP1 DIV PUSH1 0xFF AND SWAP2 POP JUMPDEST POP SWAP3 SWAP2 POP POP JUMP JUMPDEST PUSH0 PUSH1 0x3 PUSH0 DUP5 PUSH20 0xFFFFFFFFFFFFFFFFFFFFFFFFFFFFFFFFFFFFFFFF AND PUSH20 0xFFFFFFFFFFFFFFFFFFFFFFFFFFFFFFFFFFFFFFFF AND DUP2 MSTORE PUSH1 0x20 ADD SWAP1 DUP2 MSTORE PUSH1 0x20 ADD PUSH0 KECCAK256 PUSH0 DUP4 PUSH20 0xFFFFFFFFFFFFFFFFFFFFFFFFFFFFFFFFFFFFFFFF AND PUSH20 0xFFFFFFFFFFFFFFFFFFFFFFFFFFFFFFFFFFFFFFFF AND DUP2 MSTORE PUSH1 0x20 ADD SWAP1 DUP2 MSTORE PUSH1 0x20 ADD PUSH0 KECCAK256 PUSH0 SWAP1 SLOAD SWAP1 PUSH2 0x100 EXP SWAP1 DIV PUSH1 0xFF AND DUP1 ISZERO PUSH2 0xE34 JUMPI POP TIMESTAMP PUSH1 0x4 PUSH0 DUP6 PUSH20 0xFFFFFFFFFFFFFFFFFFFFFFFFFFFFFFFFFFFFFFFF AND PUSH20 0xFFFFFFFFFFFFFFFFFFFFFFFFFFFFFFFFFFFFFFFF AND DUP2 MSTORE PUSH1 0x20 ADD SWAP1 DUP2 MSTORE PUSH1 0x20 ADD PUSH0 KECCAK256 SLOAD GT JUMPDEST SWAP1 POP SWAP3 SWAP2 POP POP JUMP JUMPDEST PUSH1 0x5 PUSH1 0x6 DUP2 GT ISZERO PUSH2 0xE50 JUMPI PUSH2 0xE4F PUSH2 0x1492 JUMP JUMPDEST JUMPDEST PUSH0 DUP1 CALLER PUSH20 0xFFFFFFFFFFFFFFFFFFFFFFFFFFFFFFFFFFFFFFFF AND PUSH20 0xFFFFFFFFFFFFFFFFFFFFFFFFFFFFFFFFFFFFFFFF AND DUP2 MSTORE PUSH1 0x20 ADD SWAP1 DUP2 MSTORE PUSH1 0x20 ADD PUSH0 KECCAK256 PUSH0 ADD PUSH0 SWAP1 SLOAD SWAP1 PUSH2 0x100 EXP SWAP1 DIV PUSH1 0xFF AND PUSH1 0x6 DUP2 GT ISZERO PUSH2 0xEAD JUMPI PUSH2 0xEAC PUSH2 0x1492 JUMP JUMPDEST JUMPDEST EQ PUSH2 0xEED JUMPI PUSH1 0x40 MLOAD PUSH32 0x8C379A000000000000000000000000000000000000000000000000000000000 DUP2 MSTORE PUSH1 0x4 ADD PUSH2 0xEE4 SWAP1 PUSH2 0x188A JUMP JUMPDEST PUSH1 0x40 MLOAD DUP1 SWAP2 SUB SWAP1 REVERT JUMPDEST PUSH1 0x40 MLOAD DUP1 PUSH1 0xA0 ADD PUSH1 0x40 MSTORE DUP1 DUP6 PUSH1 0x6 DUP2 GT ISZERO PUSH2 0xF0B JUMPI PUSH2 0xF0A PUSH2 0x1492 JUMP JUMPDEST JUMPDEST DUP2 MSTORE PUSH1 0x20 ADD PUSH1 0x1 ISZERO ISZERO DUP2 MSTORE PUSH1 0x20 ADD DUP5 TIMESTAMP PUSH2 0xF25 SWAP2 SWAP1 PUSH2 0x17E5 JUMP JUMPDEST DUP2 MSTORE PUSH1 0x20 ADD DUP4 DUP2 MSTORE PUSH1 0x20 ADD DUP3 DUP2 MSTORE POP PUSH0 DUP1 DUP8 PUSH20 0xFFFFFFFFFFFFFFFFFFFFFFFFFFFFFFFFFFFFFFFF AND PUSH20 0xFFFFFFFFFFFFFFFFFFFFFFFFFFFFFFFFFFFFFFFF AND DUP2 MSTORE PUSH1 0x20 ADD SWAP1 DUP2 MSTORE PUSH1 0x20 ADD PUSH0 KECCAK256 PUSH0 DUP3 ADD MLOAD DUP2 PUSH0 ADD PUSH0 PUSH2 0x100 EXP DUP2 SLOAD DUP2 PUSH1 0xFF MUL NOT AND SWAP1 DUP4 PUSH1 0x6 DUP2 GT ISZERO PUSH2 0xF98 JUMPI PUSH2 0xF97 PUSH2 0x1492 JUMP JUMPDEST JUMPDEST MUL OR SWAP1 SSTORE POP PUSH1 0x20 DUP3 ADD MLOAD DUP2 PUSH0 ADD PUSH1 0x1 PUSH2 0x100 EXP DUP2 SLOAD DUP2 PUSH1 0xFF MUL NOT AND SWAP1 DUP4 ISZERO ISZERO MUL OR SWAP1 SSTORE POP PUSH1 0x40 DUP3 ADD MLOAD DUP2 PUSH1 0x1 ADD SSTORE PUSH1 0x60 DUP3 ADD MLOAD DUP2 PUSH1 0x2 ADD SSTORE PUSH1 0x80 DUP3 ADD MLOAD DUP2 PUSH1 0x3 ADD SWAP1 DUP2 PUSH2 0xFE5 SWAP2 SWAP1 PUSH2 0x1AA2 JUMP JUMPDEST POP SWAP1 POP POP DUP5 PUSH20 0xFFFFFFFFFFFFFFFFFFFFFFFFFFFFFFFFFFFFFFFF AND PUSH32 0xB7F677009E40B63D956ECADCFCB1F65C754AA8F19532B58A315C47D23DFCBDCB DUP6 DUP6 TIMESTAMP PUSH2 0x102E SWAP2 SWAP1 PUSH2 0x17E5 JUMP JUMPDEST PUSH1 0x40 MLOAD PUSH2 0x103C SWAP3 SWAP2 SWAP1 PUSH2 0x1C91 JUMP JUMPDEST PUSH1 0x40 MLOAD DUP1 SWAP2 SUB SWAP1 LOG2 DUP5 PUSH20 0xFFFFFFFFFFFFFFFFFFFFFFFFFFFFFFFFFFFFFFFF AND PUSH32 0xF14D50635C42317B4D1282B6A2752B2A85162C335D7DD219891576DAE3DA254C DUP4 PUSH1 0x40 MLOAD PUSH2 0x108A SWAP2 SWAP1 PUSH2 0x1666 JUMP JUMPDEST PUSH1 0x40 MLOAD DUP1 SWAP2 SUB SWAP1 LOG2 DUP5 PUSH20 0xFFFFFFFFFFFFFFFFFFFFFFFFFFFFFFFFFFFFFFFF AND PUSH32 0x2E4C08625C9E3B0B3C8ABC753CD58A5E03A51E54EF21641E798745077B2848D4 DUP3 PUSH1 0x40 MLOAD PUSH2 0x10D8 SWAP2 SWAP1 PUSH2 0x157E JUMP JUMPDEST PUSH1 0x40 MLOAD DUP1 SWAP2 SUB SWAP1 LOG2 POP POP POP POP POP JUMP JUMPDEST POP DUP1 SLOAD PUSH2 0x10F3 SWAP1 PUSH2 0x18D5 JUMP JUMPDEST PUSH0 DUP3 SSTORE DUP1 PUSH1 0x1F LT PUSH2 0x1104 JUMPI POP PUSH2 0x1121 JUMP JUMPDEST PUSH1 0x1F ADD PUSH1 0x20 SWAP1 DIV SWAP1 PUSH0 MSTORE PUSH1 0x20 PUSH0 KECCAK256 SWAP1 DUP2 ADD SWAP1 PUSH2 0x1120 SWAP2 SWAP1 PUSH2 0x1124 JUMP JUMPDEST JUMPDEST POP JUMP JUMPDEST JUMPDEST DUP1 DUP3 GT ISZERO PUSH2 0x113B JUMPI PUSH0 DUP2 PUSH0 SWAP1 SSTORE POP PUSH1 0x1 ADD PUSH2 0x1125 JUMP JUMPDEST POP SWAP1 JUMP JUMPDEST PUSH0 PUSH1 0x40 MLOAD SWAP1 POP SWAP1 JUMP JUMPDEST PUSH0 DUP1 REVERT JUMPDEST PUSH0 DUP1 REVERT JUMPDEST PUSH0 PUSH20 0xFFFFFFFFFFFFFFFFFFFFFFFFFFFFFFFFFFFFFFFF DUP3 AND SWAP1 POP SWAP2 SWAP1 POP JUMP JUMPDEST PUSH0 PUSH2 0x1179 DUP3 PUSH2 0x1150 JUMP JUMPDEST SWAP1 POP SWAP2 SWAP1 POP JUMP JUMPDEST PUSH2 0x1189 DUP2 PUSH2 0x116F JUMP JUMPDEST DUP2 EQ PUSH2 0x1193 JUMPI PUSH0 DUP1 REVERT JUMPDEST POP JUMP JUMPDEST PUSH0 DUP2 CALLDATALOAD SWAP1 POP PUSH2 0x11A4 DUP2 PUSH2 0x1180 JUMP JUMPDEST SWAP3 SWAP2 POP POP JUMP JUMPDEST PUSH0 DUP2 SWAP1 POP SWAP2 SWAP1 POP JUMP JUMPDEST PUSH2 0x11BC DUP2 PUSH2 0x11AA JUMP JUMPDEST DUP2 EQ PUSH2 0x11C6 JUMPI PUSH0 DUP1 REVERT JUMPDEST POP JUMP JUMPDEST PUSH0 DUP2 CALLDATALOAD SWAP1 POP PUSH2 0x11D7 DUP2 PUSH2 0x11B3 JUMP JUMPDEST SWAP3 SWAP2 POP POP JUMP JUMPDEST PUSH0 DUP1 PUSH1 0x40 DUP4 DUP6 SUB SLT ISZERO PUSH2 0x11F3 JUMPI PUSH2 0x11F2 PUSH2 0x1148 JUMP JUMPDEST JUMPDEST PUSH0 PUSH2 0x1200 DUP6 DUP3 DUP7 ADD PUSH2 0x1196 JUMP JUMPDEST SWAP3 POP POP PUSH1 0x20 PUSH2 0x1211 DUP6 DUP3 DUP7 ADD PUSH2 0x11C9 JUMP JUMPDEST SWAP2 POP POP SWAP3 POP SWAP3 SWAP1 POP JUMP JUMPDEST PUSH0 DUP2 ISZERO ISZERO SWAP1 POP SWAP2 SWAP1 POP JUMP JUMPDEST PUSH2 0x122F DUP2 PUSH2 0x121B JUMP JUMPDEST DUP3 MSTORE POP POP JUMP JUMPDEST PUSH0 PUSH1 0x20 DUP3 ADD SWAP1 POP PUSH2 0x1248 PUSH0 DUP4 ADD DUP5 PUSH2 0x1226 JUMP JUMPDEST SWAP3 SWAP2 POP POP JUMP JUMPDEST PUSH0 DUP2 SWAP1 POP SWAP2 SWAP1 POP JUMP JUMPDEST PUSH2 0x1260 DUP2 PUSH2 0x124E JUMP JUMPDEST DUP2 EQ PUSH2 0x126A JUMPI PUSH0 DUP1 REVERT JUMPDEST POP JUMP JUMPDEST PUSH0 DUP2 CALLDATALOAD SWAP1 POP PUSH2 0x127B DUP2 PUSH2 0x1257 JUMP JUMPDEST SWAP3 SWAP2 POP POP JUMP JUMPDEST PUSH0 DUP1 PUSH0 PUSH1 0x60 DUP5 DUP7 SUB SLT ISZERO PUSH2 0x1298 JUMPI PUSH2 0x1297 PUSH2 0x1148 JUMP JUMPDEST JUMPDEST PUSH0 PUSH2 0x12A5 DUP7 DUP3 DUP8 ADD PUSH2 0x1196 JUMP JUMPDEST SWAP4 POP POP PUSH1 0x20 PUSH2 0x12B6 DUP7 DUP3 DUP8 ADD PUSH2 0x1196 JUMP JUMPDEST SWAP3 POP POP PUSH1 0x40 PUSH2 0x12C7 DUP7 DUP3 DUP8 ADD PUSH2 0x126D JUMP JUMPDEST SWAP2 POP POP SWAP3 POP SWAP3 POP SWAP3 JUMP JUMPDEST PUSH0 DUP1 REVERT JUMPDEST PUSH0 DUP1 REVERT JUMPDEST PUSH0 PUSH1 0x1F NOT PUSH1 0x1F DUP4 ADD AND SWAP1 POP SWAP2 SWAP1 POP JUMP JUMPDEST PUSH32 0x4E487B7100000000000000000000000000000000000000000000000000000000 PUSH0 MSTORE PUSH1 0x41 PUSH1 0x4 MSTORE PUSH1 0x24 PUSH0 REVERT JUMPDEST PUSH2 0x131F DUP3 PUSH2 0x12D9 JUMP JUMPDEST DUP2 ADD DUP2 DUP2 LT PUSH8 0xFFFFFFFFFFFFFFFF DUP3 GT OR ISZERO PUSH2 0x133E JUMPI PUSH2 0x133D PUSH2 0x12E9 JUMP JUMPDEST JUMPDEST DUP1 PUSH1 0x40 MSTORE POP POP POP JUMP JUMPDEST PUSH0 PUSH2 0x1350 PUSH2 0x113F JUMP JUMPDEST SWAP1 POP PUSH2 0x135C DUP3 DUP3 PUSH2 0x1316 JUMP JUMPDEST SWAP2 SWAP1 POP JUMP JUMPDEST PUSH0 PUSH8 0xFFFFFFFFFFFFFFFF DUP3 GT ISZERO PUSH2 0x137B JUMPI PUSH2 0x137A PUSH2 0x12E9 JUMP JUMPDEST JUMPDEST PUSH2 0x1384 DUP3 PUSH2 0x12D9 JUMP JUMPDEST SWAP1 POP PUSH1 0x20 DUP2 ADD SWAP1 POP SWAP2 SWAP1 POP JUMP JUMPDEST DUP3 DUP2 DUP4 CALLDATACOPY PUSH0 DUP4 DUP4 ADD MSTORE POP POP POP JUMP JUMPDEST PUSH0 PUSH2 0x13B1 PUSH2 0x13AC DUP5 PUSH2 0x1361 JUMP JUMPDEST PUSH2 0x1347 JUMP JUMPDEST SWAP1 POP DUP3 DUP2 MSTORE PUSH1 0x20 DUP2 ADD DUP5 DUP5 DUP5 ADD GT ISZERO PUSH2 0x13CD JUMPI PUSH2 0x13CC PUSH2 0x12D5 JUMP JUMPDEST JUMPDEST PUSH2 0x13D8 DUP5 DUP3 DUP6 PUSH2 0x1391 JUMP JUMPDEST POP SWAP4 SWAP3 POP POP POP JUMP JUMPDEST PUSH0 DUP3 PUSH1 0x1F DUP4 ADD SLT PUSH2 0x13F4 JUMPI PUSH2 0x13F3 PUSH2 0x12D1 JUMP JUMPDEST JUMPDEST DUP2 CALLDATALOAD PUSH2 0x1404 DUP5 DUP3 PUSH1 0x20 DUP7 ADD PUSH2 0x139F JUMP JUMPDEST SWAP2 POP POP SWAP3 SWAP2 POP POP JUMP JUMPDEST PUSH0 DUP1 PUSH1 0x40 DUP4 DUP6 SUB SLT ISZERO PUSH2 0x1423 JUMPI PUSH2 0x1422 PUSH2 0x1148 JUMP JUMPDEST JUMPDEST PUSH0 PUSH2 0x1430 DUP6 DUP3 DUP7 ADD PUSH2 0x1196 JUMP JUMPDEST SWAP3 POP POP PUSH1 0x20 DUP4 ADD CALLDATALOAD PUSH8 0xFFFFFFFFFFFFFFFF DUP2 GT ISZERO PUSH2 0x1451 JUMPI PUSH2 0x1450 PUSH2 0x114C JUMP JUMPDEST JUMPDEST PUSH2 0x145D DUP6 DUP3 DUP7 ADD PUSH2 0x13E0 JUMP JUMPDEST SWAP2 POP POP SWAP3 POP SWAP3 SWAP1 POP JUMP JUMPDEST PUSH0 PUSH1 0x20 DUP3 DUP5 SUB SLT ISZERO PUSH2 0x147C JUMPI PUSH2 0x147B PUSH2 0x1148 JUMP JUMPDEST JUMPDEST PUSH0 PUSH2 0x1489 DUP5 DUP3 DUP6 ADD PUSH2 0x1196 JUMP JUMPDEST SWAP2 POP POP SWAP3 SWAP2 POP POP JUMP JUMPDEST PUSH32 0x4E487B7100000000000000000000000000000000000000000000000000000000 PUSH0 MSTORE PUSH1 0x21 PUSH1 0x4 MSTORE PUSH1 0x24 PUSH0 REVERT JUMPDEST PUSH1 0x7 DUP2 LT PUSH2 0x14D0 JUMPI PUSH2 0x14CF PUSH2 0x1492 JUMP JUMPDEST JUMPDEST POP JUMP JUMPDEST PUSH0 DUP2 SWAP1 POP PUSH2 0x14E0 DUP3 PUSH2 0x14BF JUMP JUMPDEST SWAP2 SWAP1 POP JUMP JUMPDEST PUSH0 PUSH2 0x14EF DUP3 PUSH2 0x14D3 JUMP JUMPDEST SWAP1 POP SWAP2 SWAP1 POP JUMP JUMPDEST PUSH2 0x14FF DUP2 PUSH2 0x14E5 JUMP JUMPDEST DUP3 MSTORE POP POP JUMP JUMPDEST PUSH0 PUSH1 0x20 DUP3 ADD SWAP1 POP PUSH2 0x1518 PUSH0 DUP4 ADD DUP5 PUSH2 0x14F6 JUMP JUMPDEST SWAP3 SWAP2 POP POP JUMP JUMPDEST PUSH0 DUP2 MLOAD SWAP1 POP SWAP2 SWAP1 POP JUMP JUMPDEST PUSH0 DUP3 DUP3 MSTORE PUSH1 0x20 DUP3 ADD SWAP1 POP SWAP3 SWAP2 POP POP JUMP JUMPDEST DUP3 DUP2 DUP4 MCOPY PUSH0 DUP4 DUP4 ADD MSTORE POP POP POP JUMP JUMPDEST PUSH0 PUSH2 0x1550 DUP3 PUSH2 0x151E JUMP JUMPDEST PUSH2 0x155A DUP2 DUP6 PUSH2 0x1528 JUMP JUMPDEST SWAP4 POP PUSH2 0x156A DUP2 DUP6 PUSH1 0x20 DUP7 ADD PUSH2 0x1538 JUMP JUMPDEST PUSH2 0x1573 DUP2 PUSH2 0x12D9 JUMP JUMPDEST DUP5 ADD SWAP2 POP POP SWAP3 SWAP2 POP POP JUMP JUMPDEST PUSH0 PUSH1 0x20 DUP3 ADD SWAP1 POP DUP2 DUP2 SUB PUSH0 DUP4 ADD MSTORE PUSH2 0x1596 DUP2 DUP5 PUSH2 0x1546 JUMP JUMPDEST SWAP1 POP SWAP3 SWAP2 POP POP JUMP JUMPDEST PUSH1 0x7 DUP2 LT PUSH2 0x15AA JUMPI PUSH0 DUP1 REVERT JUMPDEST POP JUMP JUMPDEST PUSH0 DUP2 CALLDATALOAD SWAP1 POP PUSH2 0x15BB DUP2 PUSH2 0x159E JUMP JUMPDEST SWAP3 SWAP2 POP POP JUMP JUMPDEST PUSH2 0x15CA DUP2 PUSH2 0x121B JUMP JUMPDEST DUP2 EQ PUSH2 0x15D4 JUMPI PUSH0 DUP1 REVERT JUMPDEST POP JUMP JUMPDEST PUSH0 DUP2 CALLDATALOAD SWAP1 POP PUSH2 0x15E5 DUP2 PUSH2 0x15C1 JUMP JUMPDEST SWAP3 SWAP2 POP POP JUMP JUMPDEST PUSH0 DUP1 PUSH0 PUSH1 0x60 DUP5 DUP7 SUB SLT ISZERO PUSH2 0x1602 JUMPI PUSH2 0x1601 PUSH2 0x1148 JUMP JUMPDEST JUMPDEST PUSH0 PUSH2 0x160F DUP7 DUP3 DUP8 ADD PUSH2 0x15AD JUMP JUMPDEST SWAP4 POP POP PUSH1 0x20 DUP5 ADD CALLDATALOAD PUSH8 0xFFFFFFFFFFFFFFFF DUP2 GT ISZERO PUSH2 0x1630 JUMPI PUSH2 0x162F PUSH2 0x114C JUMP JUMPDEST JUMPDEST PUSH2 0x163C DUP7 DUP3 DUP8 ADD PUSH2 0x13E0 JUMP JUMPDEST SWAP3 POP POP PUSH1 0x40 PUSH2 0x164D DUP7 DUP3 DUP8 ADD PUSH2 0x15D7 JUMP JUMPDEST SWAP2 POP POP SWAP3 POP SWAP3 POP SWAP3 JUMP JUMPDEST PUSH2 0x1660 DUP2 PUSH2 0x11AA JUMP JUMPDEST DUP3 MSTORE POP POP JUMP JUMPDEST PUSH0 PUSH1 0x20 DUP3 ADD SWAP1 POP PUSH2 0x1679 PUSH0 DUP4 ADD DUP5 PUSH2 0x1657 JUMP JUMPDEST SWAP3 SWAP2 POP POP JUMP JUMPDEST PUSH0 DUP1 PUSH1 0x40 DUP4 DUP6 SUB SLT ISZERO PUSH2 0x1695 JUMPI PUSH2 0x1694 PUSH2 0x1148 JUMP JUMPDEST JUMPDEST PUSH0 PUSH2 0x16A2 DUP6 DUP3 DUP7 ADD PUSH2 0x1196 JUMP JUMPDEST SWAP3 POP POP PUSH1 0x20 PUSH2 0x16B3 DUP6 DUP3 DUP7 ADD PUSH2 0x1196 JUMP JUMPDEST SWAP2 POP POP SWAP3 POP SWAP3 SWAP1 POP JUMP JUMPDEST PUSH0 DUP1 PUSH0 DUP1 PUSH0 PUSH1 0xA0 DUP7 DUP9 SUB SLT ISZERO PUSH2 0x16D6 JUMPI PUSH2 0x16D5 PUSH2 0x1148 JUMP JUMPDEST JUMPDEST PUSH0 PUSH2 0x16E3 DUP9 DUP3 DUP10 ADD PUSH2 0x1196 JUMP JUMPDEST SWAP6 POP POP PUSH1 0x20 PUSH2 0x16F4 DUP9 DUP3 DUP10 ADD PUSH2 0x15AD JUMP JUMPDEST SWAP5 POP POP PUSH1 0x40 PUSH2 0x1705 DUP9 DUP3 DUP10 ADD PUSH2 0x126D JUMP JUMPDEST SWAP4 POP POP PUSH1 0x60 PUSH2 0x1716 DUP9 DUP3 DUP10 ADD PUSH2 0x11C9 JUMP JUMPDEST SWAP3 POP POP PUSH1 0x80 DUP7 ADD CALLDATALOAD PUSH8 0xFFFFFFFFFFFFFFFF DUP2 GT ISZERO PUSH2 0x1737 JUMPI PUSH2 0x1736 PUSH2 0x114C JUMP JUMPDEST JUMPDEST PUSH2 0x1743 DUP9 DUP3 DUP10 ADD PUSH2 0x13E0 JUMP JUMPDEST SWAP2 POP POP SWAP3 SWAP6 POP SWAP3 SWAP6 SWAP1 SWAP4 POP JUMP JUMPDEST PUSH32 0x556E617574686F72697A65642070726F766964657220726F6C65000000000000 PUSH0 DUP3 ADD MSTORE POP JUMP JUMPDEST PUSH0 PUSH2 0x1784 PUSH1 0x1A DUP4 PUSH2 0x1528 JUMP JUMPDEST SWAP2 POP PUSH2 0x178F DUP3 PUSH2 0x1750 JUMP JUMPDEST PUSH1 0x20 DUP3 ADD SWAP1 POP SWAP2 SWAP1 POP JUMP JUMPDEST PUSH0 PUSH1 0x20 DUP3 ADD SWAP1 POP DUP2 DUP2 SUB PUSH0 DUP4 ADD MSTORE PUSH2 0x17B1 DUP2 PUSH2 0x1778 JUMP JUMPDEST SWAP1 POP SWAP2 SWAP1 POP JUMP JUMPDEST PUSH32 0x4E487B7100000000000000000000000000000000000000000000000000000000 PUSH0 MSTORE PUSH1 0x11 PUSH1 0x4 MSTORE PUSH1 0x24 PUSH0 REVERT JUMPDEST PUSH0 PUSH2 0x17EF DUP3 PUSH2 0x124E JUMP JUMPDEST SWAP2 POP PUSH2 0x17FA DUP4 PUSH2 0x124E JUMP JUMPDEST SWAP3 POP DUP3 DUP3 ADD SWAP1 POP DUP1 DUP3 GT ISZERO PUSH2 0x1812 JUMPI PUSH2 0x1811 PUSH2 0x17B8 JUMP JUMPDEST JUMPDEST SWAP3 SWAP2 POP POP JUMP JUMPDEST PUSH2 0x1821 DUP2 PUSH2 0x124E JUMP JUMPDEST DUP3 MSTORE POP POP JUMP JUMPDEST PUSH0 PUSH1 0x20 DUP3 ADD SWAP1 POP PUSH2 0x183A PUSH0 DUP4 ADD DUP5 PUSH2 0x1818 JUMP JUMPDEST SWAP3 SWAP2 POP POP JUMP JUMPDEST PUSH32 0x41646D696E206163636573732072657175697265640000000000000000000000 PUSH0 DUP3 ADD MSTORE POP JUMP JUMPDEST PUSH0 PUSH2 0x1874 PUSH1 0x15 DUP4 PUSH2 0x1528 JUMP JUMPDEST SWAP2 POP PUSH2 0x187F DUP3 PUSH2 0x1840 JUMP JUMPDEST PUSH1 0x20 DUP3 ADD SWAP1 POP SWAP2 SWAP1 POP JUMP JUMPDEST PUSH0 PUSH1 0x20 DUP3 ADD SWAP1 POP DUP2 DUP2 SUB PUSH0 DUP4 ADD MSTORE PUSH2 0x18A1 DUP2 PUSH2 0x1868 JUMP JUMPDEST SWAP1 POP SWAP2 SWAP1 POP JUMP JUMPDEST PUSH32 0x4E487B7100000000000000000000000000000000000000000000000000000000 PUSH0 MSTORE PUSH1 0x22 PUSH1 0x4 MSTORE PUSH1 0x24 PUSH0 REVERT JUMPDEST PUSH0 PUSH1 0x2 DUP3 DIV SWAP1 POP PUSH1 0x1 DUP3 AND DUP1 PUSH2 0x18EC JUMPI PUSH1 0x7F DUP3 AND SWAP2 POP JUMPDEST PUSH1 0x20 DUP3 LT DUP2 SUB PUSH2 0x18FF JUMPI PUSH2 0x18FE PUSH2 0x18A8 JUMP JUMPDEST JUMPDEST POP SWAP2 SWAP1 POP JUMP JUMPDEST PUSH0 DUP2 SWAP1 POP DUP2 PUSH0 MSTORE PUSH1 0x20 PUSH0 KECCAK256 SWAP1 POP SWAP2 SWAP1 POP JUMP JUMPDEST PUSH0 PUSH1 0x20 PUSH1 0x1F DUP4 ADD DIV SWAP1 POP SWAP2 SWAP1 POP JUMP JUMPDEST PUSH0 DUP3 DUP3 SHL SWAP1 POP SWAP3 SWAP2 POP POP JUMP JUMPDEST PUSH0 PUSH1 0x8 DUP4 MUL PUSH2 0x1961 PUSH32 0xFFFFFFFFFFFFFFFFFFFFFFFFFFFFFFFFFFFFFFFFFFFFFFFFFFFFFFFFFFFFFFFF DUP3 PUSH2 0x1926 JUMP JUMPDEST PUSH2 0x196B DUP7 DUP4 PUSH2 0x1926 JUMP JUMPDEST SWAP6 POP DUP1 NOT DUP5 AND SWAP4 POP DUP1 DUP7 AND DUP5 OR SWAP3 POP POP POP SWAP4 SWAP3 POP POP POP JUMP JUMPDEST PUSH0 DUP2 SWAP1 POP SWAP2 SWAP1 POP JUMP JUMPDEST PUSH0 PUSH2 0x19A6 PUSH2 0x19A1 PUSH2 0x199C DUP5 PUSH2 0x124E JUMP JUMPDEST PUSH2 0x1983 JUMP JUMPDEST PUSH2 0x124E JUMP JUMPDEST SWAP1 POP SWAP2 SWAP1 POP JUMP JUMPDEST PUSH0 DUP2 SWAP1 POP SWAP2 SWAP1 POP JUMP JUMPDEST PUSH2 0x19BF DUP4 PUSH2 0x198C JUMP JUMPDEST PUSH2 0x19D3 PUSH2 0x19CB DUP3 PUSH2 0x19AD JUMP JUMPDEST DUP5 DUP5 SLOAD PUSH2 0x1932 JUMP JUMPDEST DUP3 SSTORE POP POP POP POP JUMP JUMPDEST PUSH0 SWAP1 JUMP JUMPDEST PUSH2 0x19E7 PUSH2 0x19DB JUMP JUMPDEST PUSH2 0x19F2 DUP2 DUP5 DUP5 PUSH2 0x19B6 JUMP JUMPDEST POP POP POP JUMP JUMPDEST JUMPDEST DUP2 DUP2 LT ISZERO PUSH2 0x1A15 JUMPI PUSH2 0x1A0A PUSH0 DUP3 PUSH2 0x19DF JUMP JUMPDEST PUSH1 0x1 DUP2 ADD SWAP1 POP PUSH2 0x19F8 JUMP JUMPDEST POP POP JUMP JUMPDEST PUSH1 0x1F DUP3 GT ISZERO PUSH2 0x1A5A JUMPI PUSH2 0x1A2B DUP2 PUSH2 0x1905 JUMP JUMPDEST PUSH2 0x1A34 DUP5 PUSH2 0x1917 JUMP JUMPDEST DUP2 ADD PUSH1 0x20 DUP6 LT ISZERO PUSH2 0x1A43 JUMPI DUP2 SWAP1 POP JUMPDEST PUSH2 0x1A57 PUSH2 0x1A4F DUP6 PUSH2 0x1917 JUMP JUMPDEST DUP4 ADD DUP3 PUSH2 0x19F7 JUMP JUMPDEST POP POP JUMPDEST POP POP POP JUMP JUMPDEST PUSH0 DUP3 DUP3 SHR SWAP1 POP SWAP3 SWAP2 POP POP JUMP JUMPDEST PUSH0 PUSH2 0x1A7A PUSH0 NOT DUP5 PUSH1 0x8 MUL PUSH2 0x1A5F JUMP JUMPDEST NOT DUP1 DUP4 AND SWAP2 POP POP SWAP3 SWAP2 POP POP JUMP JUMPDEST PUSH0 PUSH2 0x1A92 DUP4 DUP4 PUSH2 0x1A6B JUMP JUMPDEST SWAP2 POP DUP3 PUSH1 0x2 MUL DUP3 OR SWAP1 POP SWAP3 SWAP2 POP POP JUMP JUMPDEST PUSH2 0x1AAB DUP3 PUSH2 0x151E JUMP JUMPDEST PUSH8 0xFFFFFFFFFFFFFFFF DUP2 GT ISZERO PUSH2 0x1AC4 JUMPI PUSH2 0x1AC3 PUSH2 0x12E9 JUMP JUMPDEST JUMPDEST PUSH2 0x1ACE DUP3 SLOAD PUSH2 0x18D5 JUMP JUMPDEST PUSH2 0x1AD9 DUP3 DUP3 DUP6 PUSH2 0x1A19 JUMP JUMPDEST PUSH0 PUSH1 0x20 SWAP1 POP PUSH1 0x1F DUP4 GT PUSH1 0x1 DUP2 EQ PUSH2 0x1B0A JUMPI PUSH0 DUP5 ISZERO PUSH2 0x1AF8 JUMPI DUP3 DUP8 ADD MLOAD SWAP1 POP JUMPDEST PUSH2 0x1B02 DUP6 DUP3 PUSH2 0x1A87 JUMP JUMPDEST DUP7 SSTORE POP PUSH2 0x1B69 JUMP JUMPDEST PUSH1 0x1F NOT DUP5 AND PUSH2 0x1B18 DUP7 PUSH2 0x1905 JUMP JUMPDEST PUSH0 JUMPDEST DUP3 DUP2 LT ISZERO PUSH2 0x1B3F JUMPI DUP5 DUP10 ADD MLOAD DUP3 SSTORE PUSH1 0x1 DUP3 ADD SWAP2 POP PUSH1 0x20 DUP6 ADD SWAP5 POP PUSH1 0x20 DUP2 ADD SWAP1 POP PUSH2 0x1B1A JUMP JUMPDEST DUP7 DUP4 LT ISZERO PUSH2 0x1B5C JUMPI DUP5 DUP10 ADD MLOAD PUSH2 0x1B58 PUSH1 0x1F DUP10 AND DUP3 PUSH2 0x1A6B JUMP JUMPDEST DUP4 SSTORE POP JUMPDEST PUSH1 0x1 PUSH1 0x2 DUP9 MUL ADD DUP9 SSTORE POP POP POP JUMPDEST POP POP POP POP POP POP JUMP JUMPDEST PUSH0 DUP2 SWAP1 POP SWAP3 SWAP2 POP POP JUMP JUMPDEST PUSH0 PUSH2 0x1B85 DUP3 PUSH2 0x151E JUMP JUMPDEST PUSH2 0x1B8F DUP2 DUP6 PUSH2 0x1B71 JUMP JUMPDEST SWAP4 POP PUSH2 0x1B9F DUP2 DUP6 PUSH1 0x20 DUP7 ADD PUSH2 0x1538 JUMP JUMPDEST DUP1 DUP5 ADD SWAP2 POP POP SWAP3 SWAP2 POP POP JUMP JUMPDEST PUSH0 PUSH2 0x1BB6 DUP3 DUP5 PUSH2 0x1B7B JUMP JUMPDEST SWAP2 POP DUP2 SWAP1 POP SWAP3 SWAP2 POP POP JUMP JUMPDEST PUSH32 0x526F6C65206E6F74206163746976650000000000000000000000000000000000 PUSH0 DUP3 ADD MSTORE POP JUMP JUMPDEST PUSH0 PUSH2 0x1BF5 PUSH1 0xF DUP4 PUSH2 0x1528 JUMP JUMPDEST SWAP2 POP PUSH2 0x1C00 DUP3 PUSH2 0x1BC1 JUMP JUMPDEST PUSH1 0x20 DUP3 ADD SWAP1 POP SWAP2 SWAP1 POP JUMP JUMPDEST PUSH0 PUSH1 0x20 DUP3 ADD SWAP1 POP DUP2 DUP2 SUB PUSH0 DUP4 ADD MSTORE PUSH2 0x1C22 DUP2 PUSH2 0x1BE9 JUMP JUMPDEST SWAP1 POP SWAP2 SWAP1 POP JUMP JUMPDEST PUSH32 0x526F6C6520657870697265640000000000000000000000000000000000000000 PUSH0 DUP3 ADD MSTORE POP JUMP JUMPDEST PUSH0 PUSH2 0x1C5D PUSH1 0xC DUP4 PUSH2 0x1528 JUMP JUMPDEST SWAP2 POP PUSH2 0x1C68 DUP3 PUSH2 0x1C29 JUMP JUMPDEST PUSH1 0x20 DUP3 ADD SWAP1 POP SWAP2 SWAP1 POP JUMP JUMPDEST PUSH0 PUSH1 0x20 DUP3 ADD SWAP1 POP DUP2 DUP2 SUB PUSH0 DUP4 ADD MSTORE PUSH2 0x1C8A DUP2 PUSH2 0x1C51 JUMP JUMPDEST SWAP1 POP SWAP2 SWAP1 POP JUMP JUMPDEST PUSH0 PUSH1 0x40 DUP3 ADD SWAP1 POP PUSH2 0x1CA4 PUSH0 DUP4 ADD DUP6 PUSH2 0x14F6 JUMP JUMPDEST PUSH2 0x1CB1 PUSH1 0x20 DUP4 ADD DUP5 PUSH2 0x1818 JUMP JUMPDEST SWAP4 SWAP3 POP POP POP JUMP INVALID LOG2 PUSH5 0x6970667358 0x22 SLT KECCAK256 SHR SWAP11 SUB PUSH28 0x7663ADA9C9EF383BB3187F1D4060DEE9EC49C8160F8358E3C7A9F20F PUSH5 0x736F6C6343 STOP ADDMOD BYTE STOP CALLER "
		},
		"gasEstimates": {
			"creation": {
				"codeDepositCost": "1481200",
				"executionCost": "1546",
				"totalCost": "1482746"
			},
			"external": {
				"assignRole(address,uint8,uint256,bytes32,string)": "infinite",
				"getRoleCredential(address)": "2879",
				"getUserDID(address)": "infinite",
				"getUserRole(address)": "3030",
				"grantEmergencyAccess(address,address,uint256)": "infinite",
				"hasEmergencyAccess(address,address)": "infinite",
				"hasPermission(address,string)": "infinite",
				"revokeRole(address)": "infinite",
				"setRolePermission(uint8,string,bool)": "infinite",
				"updateDID(address,string)": "infinite",
				"verifyRoleCredential(address,bytes32)": "3019"
			}
		},
		"methodIdentifiers": {
			"assignRole(address,uint8,uint256,bytes32,string)": "d6207899",
			"getRoleCredential(address)": "890e3093",
			"getUserDID(address)": "43277575",
			"getUserRole(address)": "27820851",
			"grantEmergencyAccess(address,address,uint256)": "13d054d7",
			"hasEmergencyAccess(address,address)": "90218ee8",
			"hasPermission(address,string)": "89b3af29",
			"revokeRole(address)": "80e52e3f",
			"setRolePermission(uint8,string,bool)": "584426d0",
			"updateDID(address,string)": "25f2ac62",
			"verifyRoleCredential(address,bytes32)": "07d6e3d9"
		}
	},
	"abi": [
		{
			"anonymous": false,
			"inputs": [
				{
					"indexed": true,
					"internalType": "address",
					"name": "user",
					"type": "address"
				},
				{
					"indexed": false,
					"internalType": "string",
					"name": "did",
					"type": "string"
				}
			],
			"name": "DIDAssigned",
			"type": "event"
		},
		{
			"anonymous": false,
			"inputs": [
				{
					"indexed": true,
					"internalType": "address",
					"name": "provider",
					"type": "address"
				},
				{
					"indexed": true,
					"internalType": "address",
					"name": "patient",
					"type": "address"
				},
				{
					"indexed": false,
					"internalType": "uint256",
					"name": "expiry",
					"type": "uint256"
				}
			],
			"name": "EmergencyAccessGranted",
			"type": "event"
		},
		{
			"anonymous": false,
			"inputs": [
				{
					"indexed": true,
					"internalType": "address",
					"name": "user",
					"type": "address"
				},
				{
					"indexed": false,
					"internalType": "string",
					"name": "permission",
					"type": "string"
				},
				{
					"indexed": false,
					"internalType": "uint256",
					"name": "validUntil",
					"type": "uint256"
				}
			],
			"name": "PermissionGranted",
			"type": "event"
		},
		{
			"anonymous": false,
			"inputs": [
				{
					"indexed": true,
					"internalType": "address",
					"name": "user",
					"type": "address"
				},
				{
					"indexed": false,
					"internalType": "string",
					"name": "permission",
					"type": "string"
				}
			],
			"name": "PermissionRevoked",
			"type": "event"
		},
		{
			"anonymous": false,
			"inputs": [
				{
					"indexed": true,
					"internalType": "address",
					"name": "user",
					"type": "address"
				},
				{
					"indexed": false,
					"internalType": "enum EnhancedRBAC.Role",
					"name": "role",
					"type": "uint8"
				},
				{
					"indexed": false,
					"internalType": "uint256",
					"name": "validUntil",
					"type": "uint256"
				}
			],
			"name": "RoleAssigned",
			"type": "event"
		},
		{
			"anonymous": false,
			"inputs": [
				{
					"indexed": true,
					"internalType": "address",
					"name": "user",
					"type": "address"
				},
				{
					"indexed": false,
					"internalType": "bytes32",
					"name": "credentialHash",
					"type": "bytes32"
				}
			],
			"name": "RoleCredentialUpdated",
			"type": "event"
		},
		{
			"anonymous": false,
			"inputs": [
				{
					"indexed": true,
					"internalType": "address",
					"name": "user",
					"type": "address"
				},
				{
					"indexed": false,
					"internalType": "enum EnhancedRBAC.Role",
					"name": "role",
					"type": "uint8"
				}
			],
			"name": "RoleRevoked",
			"type": "event"
		},
		{
			"inputs": [
				{
					"internalType": "address",
					"name": "user",
					"type": "address"
				},
				{
					"internalType": "enum EnhancedRBAC.Role",
					"name": "role",
					"type": "uint8"
				},
				{
					"internalType": "uint256",
					"name": "validityPeriod",
					"type": "uint256"
				},
				{
					"internalType": "bytes32",
					"name": "roleCredential",
					"type": "bytes32"
				},
				{
					"internalType": "string",
					"name": "did",
					"type": "string"
				}
			],
			"name": "assignRole",
			"outputs": [],
			"stateMutability": "nonpayable",
			"type": "function"
		},
		{
			"inputs": [
				{
					"internalType": "address",
					"name": "user",
					"type": "address"
				}
			],
			"name": "getRoleCredential",
			"outputs": [
				{
					"internalType": "bytes32",
					"name": "",
					"type": "bytes32"
				}
			],
			"stateMutability": "view",
			"type": "function"
		},
		{
			"inputs": [
				{
					"internalType": "address",
					"name": "user",
					"type": "address"
				}
			],
			"name": "getUserDID",
			"outputs": [
				{
					"internalType": "string",
					"name": "",
					"type": "string"
				}
			],
			"stateMutability": "view",
			"type": "function"
		},
		{
			"inputs": [
				{
					"internalType": "address",
					"name": "user",
					"type": "address"
				}
			],
			"name": "getUserRole",
			"outputs": [
				{
					"internalType": "enum EnhancedRBAC.Role",
					"name": "",
					"type": "uint8"
				}
			],
			"stateMutability": "view",
			"type": "function"
		},
		{
			"inputs": [
				{
					"internalType": "address",
					"name": "provider",
					"type": "address"
				},
				{
					"internalType": "address",
					"name": "patient",
					"type": "address"
				},
				{
					"internalType": "uint256",
					"name": "duration",
					"type": "uint256"
				}
			],
			"name": "grantEmergencyAccess",
			"outputs": [],
			"stateMutability": "nonpayable",
			"type": "function"
		},
		{
			"inputs": [
				{
					"internalType": "address",
					"name": "provider",
					"type": "address"
				},
				{
					"internalType": "address",
					"name": "patient",
					"type": "address"
				}
			],
			"name": "hasEmergencyAccess",
			"outputs": [
				{
					"internalType": "bool",
					"name": "",
					"type": "bool"
				}
			],
			"stateMutability": "view",
			"type": "function"
		},
		{
			"inputs": [
				{
					"internalType": "address",
					"name": "user",
					"type": "address"
				},
				{
					"internalType": "string",
					"name": "permission",
					"type": "string"
				}
			],
			"name": "hasPermission",
			"outputs": [
				{
					"internalType": "bool",
					"name": "",
					"type": "bool"
				}
			],
			"stateMutability": "view",
			"type": "function"
		},
		{
			"inputs": [
				{
					"internalType": "address",
					"name": "user",
					"type": "address"
				}
			],
			"name": "revokeRole",
			"outputs": [],
			"stateMutability": "nonpayable",
			"type": "function"
		},
		{
			"inputs": [
				{
					"internalType": "enum EnhancedRBAC.Role",
					"name": "role",
					"type": "uint8"
				},
				{
					"internalType": "string",
					"name": "permission",
					"type": "string"
				},
				{
					"internalType": "bool",
					"name": "allowed",
					"type": "bool"
				}
			],
			"name": "setRolePermission",
			"outputs": [],
			"stateMutability": "nonpayable",
			"type": "function"
		},
		{
			"inputs": [
				{
					"internalType": "address",
					"name": "user",
					"type": "address"
				},
				{
					"internalType": "string",
					"name": "newDID",
					"type": "string"
				}
			],
			"name": "updateDID",
			"outputs": [],
			"stateMutability": "nonpayable",
			"type": "function"
		},
		{
			"inputs": [
				{
					"internalType": "address",
					"name": "user",
					"type": "address"
				},
				{
					"internalType": "bytes32",
					"name": "credentialHash",
					"type": "bytes32"
				}
			],
			"name": "verifyRoleCredential",
			"outputs": [
				{
					"internalType": "bool",
					"name": "",
					"type": "bool"
				}
			],
			"stateMutability": "view",
			"type": "function"
		}
	]
}