{
	"data": {
		"bytecode": {
			"linkReferences": {},
			"object": "608060405234801561000f575f80fd5b506040516136b93803806136b983398181016040528101906100319190610197565b835f806101000a81548173ffffffffffffffffffffffffffffffffffffffff021916908373ffffffffffffffffffffffffffffffffffffffff1602179055508260015f6101000a81548173ffffffffffffffffffffffffffffffffffffffff021916908373ffffffffffffffffffffffffffffffffffffffff1602179055508160025f6101000a81548173ffffffffffffffffffffffffffffffffffffffff021916908373ffffffffffffffffffffffffffffffffffffffff1602179055508060035f6101000a81548173ffffffffffffffffffffffffffffffffffffffff021916908373ffffffffffffffffffffffffffffffffffffffff160217905550505050506101fb565b5f80fd5b5f73ffffffffffffffffffffffffffffffffffffffff82169050919050565b5f6101668261013d565b9050919050565b6101768161015c565b8114610180575f80fd5b50565b5f815190506101918161016d565b92915050565b5f805f80608085870312156101af576101ae610139565b5b5f6101bc87828801610183565b94505060206101cd87828801610183565b93505060406101de87828801610183565b92505060606101ef87828801610183565b91505092959194509250565b6134b1806102085f395ff3fe608060405234801561000f575f80fd5b50600436106100a7575f3560e01c80635a2d6ebd1161006f5780635a2d6ebd146101515780636aebbd661461016f57806373b492ff1461018d5780637eb3a982146101a9578063ac053aa9146101c5578063c7d7421c146101f7576100a7565b80630f8b6dd3146100ab57806313007d55146100db578063145e32e1146100f95780632114ef1f14610115578063577f9fb114610133575b5f80fd5b6100c560048036038101906100c091906120bf565b610213565b6040516100d291906121a7565b60405180910390f35b6100e36108b5565b6040516100f09190612222565b60405180910390f35b610113600480360381019061010e91906120bf565b6108d8565b005b61011d610fc6565b60405161012a9190612253565b60405180910390f35b61013b610fcd565b604051610148919061228c565b60405180910390f35b610159610ff2565b60405161016691906122c5565b60405180910390f35b610177611017565b60405161018491906122fe565b60405180910390f35b6101a760048036038101906101a29190612317565b61103c565b005b6101c360048036038101906101be9190612317565b611326565b005b6101df60048036038101906101da9190612342565b61173b565b6040516101ee9392919061239a565b60405180910390f35b610211600480360381019061020c91906123d6565b6118fa565b005b60605f60025f9054906101000a900473ffffffffffffffffffffffffffffffffffffffff1673ffffffffffffffffffffffffffffffffffffffff166395f9250d336040518263ffffffff1660e01b8152600401610270919061249d565b5f60405180830381865afa15801561028a573d5f803e3d5ffd5b505050506040513d5f823e3d601f19601f820116820180604052508101906102b29190612524565b90505f8151116102f7576040517f08c379a00000000000000000000000000000000000000000000000000000000081526004016102ee906125b5565b60405180910390fd5b5f805f9054906101000a900473ffffffffffffffffffffffffffffffffffffffff1673ffffffffffffffffffffffffffffffffffffffff1663890e3093336040518263ffffffff1660e01b8152600401610351919061249d565b602060405180830381865afa15801561036c573d5f803e3d5ffd5b505050506040513d601f19601f820116820180604052508101906103909190612606565b90505f3382866040516020016103a8939291906126da565b60405160208183030381529060405280519060200120905060035f9054906101000a900473ffffffffffffffffffffffffffffffffffffffff1673ffffffffffffffffffffffffffffffffffffffff166398dfd0a733836040518363ffffffff1660e01b815260040161041c929190612721565b602060405180830381865afa158015610437573d5f803e3d5ffd5b505050506040513d601f19601f8201168201806040525081019061045b9190612772565b61049a576040517f08c379a0000000000000000000000000000000000000000000000000000000008152600401610491906127e7565b60405180910390fd5b60045f8873ffffffffffffffffffffffffffffffffffffffff1673ffffffffffffffffffffffffffffffffffffffff1681526020019081526020015f206001015f9054906101000a900460ff16610526576040517f08c379a000000000000000000000000000000000000000000000000000000000815260040161051d9061284f565b60405180910390fd5b5f8054906101000a900473ffffffffffffffffffffffffffffffffffffffff1673ffffffffffffffffffffffffffffffffffffffff166389b3af29336040518263ffffffff1660e01b815260040161057e91906128b7565b602060405180830381865afa158015610599573d5f803e3d5ffd5b505050506040513d601f19601f820116820180604052508101906105bd9190612772565b156106af5760045f8873ffffffffffffffffffffffffffffffffffffffff1673ffffffffffffffffffffffffffffffffffffffff1681526020019081526020015f2060020186604051610610919061291d565b9081526020016040518091039020805461062990612960565b80601f016020809104026020016040519081016040528092919081815260200182805461065590612960565b80156106a05780601f10610677576101008083540402835291602001916106a0565b820191905f5260205f20905b81548152906001019060200180831161068357829003601f168201915b505050505093505050506108ae565b5f60045f8973ffffffffffffffffffffffffffffffffffffffff1673ffffffffffffffffffffffffffffffffffffffff1681526020019081526020015f206003015f3373ffffffffffffffffffffffffffffffffffffffff1673ffffffffffffffffffffffffffffffffffffffff1681526020019081526020015f209050805f015f9054906101000a900460ff16801561074c5750428160010154115b8015610785575033888760405160200161076893929190612990565b604051602081830303815290604052805190602001208160030154145b6107c4576040517f08c379a00000000000000000000000000000000000000000000000000000000081526004016107bb90612a12565b60405180910390fd5b60045f8973ffffffffffffffffffffffffffffffffffffffff1673ffffffffffffffffffffffffffffffffffffffff1681526020019081526020015f2060020187604051610812919061291d565b9081526020016040518091039020805461082b90612960565b80601f016020809104026020016040519081016040528092919081815260200182805461085790612960565b80156108a25780601f10610879576101008083540402835291602001916108a2565b820191905f5260205f20905b81548152906001019060200180831161088557829003601f168201915b50505050509450505050505b9392505050565b5f8054906101000a900473ffffffffffffffffffffffffffffffffffffffff1681565b5f60025f9054906101000a900473ffffffffffffffffffffffffffffffffffffffff1673ffffffffffffffffffffffffffffffffffffffff166395f9250d336040518263ffffffff1660e01b8152600401610933919061249d565b5f60405180830381865afa15801561094d573d5f803e3d5ffd5b505050506040513d5f823e3d601f19601f820116820180604052508101906109759190612524565b90505f8151116109ba576040517f08c379a00000000000000000000000000000000000000000000000000000000081526004016109b1906125b5565b60405180910390fd5b5f805f9054906101000a900473ffffffffffffffffffffffffffffffffffffffff1673ffffffffffffffffffffffffffffffffffffffff1663890e3093336040518263ffffffff1660e01b8152600401610a14919061249d565b602060405180830381865afa158015610a2f573d5f803e3d5ffd5b505050506040513d601f19601f82011682018060405250810190610a539190612606565b905060035f9054906101000a900473ffffffffffffffffffffffffffffffffffffffff1673ffffffffffffffffffffffffffffffffffffffff166356e377d63383866040518463ffffffff1660e01b8152600401610ab393929190612a78565b6020604051808303815f875af1158015610acf573d5f803e3d5ffd5b505050506040513d601f19601f82011682018060405250810190610af39190612772565b610b32576040517f08c379a0000000000000000000000000000000000000000000000000000000008152600401610b29906127e7565b60405180910390fd5b60046006811115610b4657610b45612ab4565b5b5f8054906101000a900473ffffffffffffffffffffffffffffffffffffffff1673ffffffffffffffffffffffffffffffffffffffff166327820851336040518263ffffffff1660e01b8152600401610b9e919061249d565b602060405180830381865afa158015610bb9573d5f803e3d5ffd5b505050506040513d601f19601f82011682018060405250810190610bdd9190612b04565b6006811115610bef57610bee612ab4565b5b1480610cb5575060036006811115610c0a57610c09612ab4565b5b5f8054906101000a900473ffffffffffffffffffffffffffffffffffffffff1673ffffffffffffffffffffffffffffffffffffffff166327820851336040518263ffffffff1660e01b8152600401610c62919061249d565b602060405180830381865afa158015610c7d573d5f803e3d5ffd5b505050506040513d601f19601f82011682018060405250810190610ca19190612b04565b6006811115610cb357610cb2612ab4565b5b145b610cf4576040517f08c379a0000000000000000000000000000000000000000000000000000000008152600401610ceb90612b9f565b60405180910390fd5b60045f8673ffffffffffffffffffffffffffffffffffffffff1673ffffffffffffffffffffffffffffffffffffffff1681526020019081526020015f206001015f9054906101000a900460ff16610d80576040517f08c379a0000000000000000000000000000000000000000000000000000000008152600401610d779061284f565b60405180910390fd5b5f33864286604051602001610d989493929190612bdd565b6040516020818303038152906040528051906020012090505f6201518042610dc09190612c53565b905060405180608001604052806001151581526020018281526020018781526020018381525060045f8973ffffffffffffffffffffffffffffffffffffffff1673ffffffffffffffffffffffffffffffffffffffff1681526020019081526020015f206003015f3373ffffffffffffffffffffffffffffffffffffffff1673ffffffffffffffffffffffffffffffffffffffff1681526020019081526020015f205f820151815f015f6101000a81548160ff021916908315150217905550602082015181600101556040820151816002019081610e9d9190612e1a565b50606082015181600301559050508673ffffffffffffffffffffffffffffffffffffffff163373ffffffffffffffffffffffffffffffffffffffff167f5d1675d647fd82d7866123d4b61e400e9b9cd41946ae22001974c31e8addb20b83604051610f089190612253565b60405180910390a360015f9054906101000a900473ffffffffffffffffffffffffffffffffffffffff1673ffffffffffffffffffffffffffffffffffffffff166367fe17f4338987604051602001610f609190612f33565b60405160208183030381529060405260016040518563ffffffff1660e01b8152600401610f909493929190612f9e565b5f604051808303815f87803b158015610fa7575f80fd5b505af1158015610fb9573d5f803e3d5ffd5b5050505050505050505050565b6201518081565b60025f9054906101000a900473ffffffffffffffffffffffffffffffffffffffff1681565b60015f9054906101000a900473ffffffffffffffffffffffffffffffffffffffff1681565b60035f9054906101000a900473ffffffffffffffffffffffffffffffffffffffff1681565b60045f3373ffffffffffffffffffffffffffffffffffffffff1673ffffffffffffffffffffffffffffffffffffffff1681526020019081526020015f206001015f9054906101000a900460ff166110c8576040517f08c379a00000000000000000000000000000000000000000000000000000000081526004016110bf9061284f565b60405180910390fd5b60045f3373ffffffffffffffffffffffffffffffffffffffff1673ffffffffffffffffffffffffffffffffffffffff1681526020019081526020015f206003015f8273ffffffffffffffffffffffffffffffffffffffff1673ffffffffffffffffffffffffffffffffffffffff1681526020019081526020015f205f015f9054906101000a900460ff16611191576040517f08c379a000000000000000000000000000000000000000000000000000000000815260040161118890613045565b60405180910390fd5b60045f3373ffffffffffffffffffffffffffffffffffffffff1673ffffffffffffffffffffffffffffffffffffffff1681526020019081526020015f206003015f8273ffffffffffffffffffffffffffffffffffffffff1673ffffffffffffffffffffffffffffffffffffffff1681526020019081526020015f205f8082015f6101000a81549060ff0219169055600182015f9055600282015f6112359190611e22565b600382015f905550503373ffffffffffffffffffffffffffffffffffffffff168173ffffffffffffffffffffffffffffffffffffffff167f381ceeb666db3e3c307a575ad34d05f5b497665803dd1983e06e72dd7b4120e460405160405180910390a360015f9054906101000a900473ffffffffffffffffffffffffffffffffffffffff1673ffffffffffffffffffffffffffffffffffffffff166367fe17f433835f6040518463ffffffff1660e01b81526004016112f6939291906130f7565b5f604051808303815f87803b15801561130d575f80fd5b505af115801561131f573d5f803e3d5ffd5b5050505050565b5f60025f9054906101000a900473ffffffffffffffffffffffffffffffffffffffff1673ffffffffffffffffffffffffffffffffffffffff166395f9250d336040518263ffffffff1660e01b8152600401611381919061249d565b5f60405180830381865afa15801561139b573d5f803e3d5ffd5b505050506040513d5f823e3d601f19601f820116820180604052508101906113c39190612524565b90505f815111611408576040517f08c379a00000000000000000000000000000000000000000000000000000000081526004016113ff906125b5565b60405180910390fd5b5f8054906101000a900473ffffffffffffffffffffffffffffffffffffffff1673ffffffffffffffffffffffffffffffffffffffff166389b3af29336040518263ffffffff1660e01b8152600401611460919061319c565b602060405180830381865afa15801561147b573d5f803e3d5ffd5b505050506040513d601f19601f8201168201806040525081019061149f9190612772565b6114de576040517f08c379a00000000000000000000000000000000000000000000000000000000081526004016114d590613212565b60405180910390fd5b60045f8373ffffffffffffffffffffffffffffffffffffffff1673ffffffffffffffffffffffffffffffffffffffff1681526020019081526020015f206001015f9054906101000a900460ff161561156b576040517f08c379a00000000000000000000000000000000000000000000000000000000081526004016115629061327a565b60405180910390fd5b600160045f8473ffffffffffffffffffffffffffffffffffffffff1673ffffffffffffffffffffffffffffffffffffffff1681526020019081526020015f206001015f6101000a81548160ff02191690831515021790555060025f9054906101000a900473ffffffffffffffffffffffffffffffffffffffff1673ffffffffffffffffffffffffffffffffffffffff166395f9250d836040518263ffffffff1660e01b815260040161161d919061249d565b5f60405180830381865afa158015611637573d5f803e3d5ffd5b505050506040513d5f823e3d601f19601f8201168201806040525081019061165f9190612524565b60045f8473ffffffffffffffffffffffffffffffffffffffff1673ffffffffffffffffffffffffffffffffffffffff1681526020019081526020015f2060040190816116ab9190612e1a565b5060015f9054906101000a900473ffffffffffffffffffffffffffffffffffffffff1673ffffffffffffffffffffffffffffffffffffffff166367fe17f433845f6040518463ffffffff1660e01b815260040161170a939291906132e2565b5f604051808303815f87803b158015611721575f80fd5b505af1158015611733573d5f803e3d5ffd5b505050505050565b5f80606060045f8573ffffffffffffffffffffffffffffffffffffffff1673ffffffffffffffffffffffffffffffffffffffff1681526020019081526020015f206001015f9054906101000a900460ff166117cb576040517f08c379a00000000000000000000000000000000000000000000000000000000081526004016117c29061284f565b60405180910390fd5b5f60045f8673ffffffffffffffffffffffffffffffffffffffff1673ffffffffffffffffffffffffffffffffffffffff1681526020019081526020015f206003015f8773ffffffffffffffffffffffffffffffffffffffff1673ffffffffffffffffffffffffffffffffffffffff1681526020019081526020015f209050805f015f9054906101000a900460ff1681600101548260020180805461186e90612960565b80601f016020809104026020016040519081016040528092919081815260200182805461189a90612960565b80156118e55780601f106118bc576101008083540402835291602001916118e5565b820191905f5260205f20905b8154815290600101906020018083116118c857829003601f168201915b50505050509050935093509350509250925092565b5f60025f9054906101000a900473ffffffffffffffffffffffffffffffffffffffff1673ffffffffffffffffffffffffffffffffffffffff166395f9250d336040518263ffffffff1660e01b8152600401611955919061249d565b5f60405180830381865afa15801561196f573d5f803e3d5ffd5b505050506040513d5f823e3d601f19601f820116820180604052508101906119979190612524565b90505f8151116119dc576040517f08c379a00000000000000000000000000000000000000000000000000000000081526004016119d3906125b5565b60405180910390fd5b5f805f9054906101000a900473ffffffffffffffffffffffffffffffffffffffff1673ffffffffffffffffffffffffffffffffffffffff1663890e3093336040518263ffffffff1660e01b8152600401611a36919061249d565b602060405180830381865afa158015611a51573d5f803e3d5ffd5b505050506040513d601f19601f82011682018060405250810190611a759190612606565b905060035f9054906101000a900473ffffffffffffffffffffffffffffffffffffffff1673ffffffffffffffffffffffffffffffffffffffff166356e377d63383866040518463ffffffff1660e01b8152600401611ad593929190612a78565b6020604051808303815f875af1158015611af1573d5f803e3d5ffd5b505050506040513d601f19601f82011682018060405250810190611b159190612772565b611b54576040517f08c379a0000000000000000000000000000000000000000000000000000000008152600401611b4b906127e7565b60405180910390fd5b5f8054906101000a900473ffffffffffffffffffffffffffffffffffffffff1673ffffffffffffffffffffffffffffffffffffffff166389b3af29336040518263ffffffff1660e01b8152600401611bac9190613387565b602060405180830381865afa158015611bc7573d5f803e3d5ffd5b505050506040513d601f19601f82011682018060405250810190611beb9190612772565b611c2a576040517f08c379a0000000000000000000000000000000000000000000000000000000008152600401611c2190613212565b60405180910390fd5b60045f8773ffffffffffffffffffffffffffffffffffffffff1673ffffffffffffffffffffffffffffffffffffffff1681526020019081526020015f206001015f9054906101000a900460ff16611cb6576040517f08c379a0000000000000000000000000000000000000000000000000000000008152600401611cad9061284f565b60405180910390fd5b8360045f8873ffffffffffffffffffffffffffffffffffffffff1673ffffffffffffffffffffffffffffffffffffffff1681526020019081526020015f2060020186604051611d05919061291d565b90815260200160405180910390209081611d1f9190612e1a565b508573ffffffffffffffffffffffffffffffffffffffff167f9efb5c7f10a4f04630ee8342cc0456f34298c1249198a5fd73e2f12e29dd584c86604051611d6691906121a7565b60405180910390a260015f9054906101000a900473ffffffffffffffffffffffffffffffffffffffff1673ffffffffffffffffffffffffffffffffffffffff166367fe17f4338888604051602001611dbe91906133fd565b6040516020818303038152906040525f6040518563ffffffff1660e01b8152600401611ded949392919061341e565b5f604051808303815f87803b158015611e04575f80fd5b505af1158015611e16573d5f803e3d5ffd5b50505050505050505050565b508054611e2e90612960565b5f825580601f10611e3f5750611e5c565b601f0160209004905f5260205f2090810190611e5b9190611e5f565b5b50565b5b80821115611e76575f815f905550600101611e60565b5090565b5f604051905090565b5f80fd5b5f80fd5b5f73ffffffffffffffffffffffffffffffffffffffff82169050919050565b5f611eb482611e8b565b9050919050565b611ec481611eaa565b8114611ece575f80fd5b50565b5f81359050611edf81611ebb565b92915050565b5f80fd5b5f80fd5b5f601f19601f8301169050919050565b7f4e487b71000000000000000000000000000000000000000000000000000000005f52604160045260245ffd5b611f3382611eed565b810181811067ffffffffffffffff82111715611f5257611f51611efd565b5b80604052505050565b5f611f64611e7a565b9050611f708282611f2a565b919050565b5f67ffffffffffffffff821115611f8f57611f8e611efd565b5b611f9882611eed565b9050602081019050919050565b828183375f83830152505050565b5f611fc5611fc084611f75565b611f5b565b905082815260208101848484011115611fe157611fe0611ee9565b5b611fec848285611fa5565b509392505050565b5f82601f83011261200857612007611ee5565b5b8135612018848260208601611fb3565b91505092915050565b5f67ffffffffffffffff82111561203b5761203a611efd565b5b61204482611eed565b9050602081019050919050565b5f61206361205e84612021565b611f5b565b90508281526020810184848401111561207f5761207e611ee9565b5b61208a848285611fa5565b509392505050565b5f82601f8301126120a6576120a5611ee5565b5b81356120b6848260208601612051565b91505092915050565b5f805f606084860312156120d6576120d5611e83565b5b5f6120e386828701611ed1565b935050602084013567ffffffffffffffff81111561210457612103611e87565b5b61211086828701611ff4565b925050604084013567ffffffffffffffff81111561213157612130611e87565b5b61213d86828701612092565b9150509250925092565b5f81519050919050565b5f82825260208201905092915050565b8281835e5f83830152505050565b5f61217982612147565b6121838185612151565b9350612193818560208601612161565b61219c81611eed565b840191505092915050565b5f6020820190508181035f8301526121bf818461216f565b905092915050565b5f819050919050565b5f6121ea6121e56121e084611e8b565b6121c7565b611e8b565b9050919050565b5f6121fb826121d0565b9050919050565b5f61220c826121f1565b9050919050565b61221c81612202565b82525050565b5f6020820190506122355f830184612213565b92915050565b5f819050919050565b61224d8161223b565b82525050565b5f6020820190506122665f830184612244565b92915050565b5f612276826121f1565b9050919050565b6122868161226c565b82525050565b5f60208201905061229f5f83018461227d565b92915050565b5f6122af826121f1565b9050919050565b6122bf816122a5565b82525050565b5f6020820190506122d85f8301846122b6565b92915050565b5f6122e8826121f1565b9050919050565b6122f8816122de565b82525050565b5f6020820190506123115f8301846122ef565b92915050565b5f6020828403121561232c5761232b611e83565b5b5f61233984828501611ed1565b91505092915050565b5f806040838503121561235857612357611e83565b5b5f61236585828601611ed1565b925050602061237685828601611ed1565b9150509250929050565b5f8115159050919050565b61239481612380565b82525050565b5f6060820190506123ad5f83018661238b565b6123ba6020830185612244565b81810360408301526123cc818461216f565b9050949350505050565b5f805f80608085870312156123ee576123ed611e83565b5b5f6123fb87828801611ed1565b945050602085013567ffffffffffffffff81111561241c5761241b611e87565b5b61242887828801611ff4565b935050604085013567ffffffffffffffff81111561244957612448611e87565b5b61245587828801611ff4565b925050606085013567ffffffffffffffff81111561247657612475611e87565b5b61248287828801612092565b91505092959194509250565b61249781611eaa565b82525050565b5f6020820190506124b05f83018461248e565b92915050565b5f6124c86124c384611f75565b611f5b565b9050828152602081018484840111156124e4576124e3611ee9565b5b6124ef848285612161565b509392505050565b5f82601f83011261250b5761250a611ee5565b5b815161251b8482602086016124b6565b91505092915050565b5f6020828403121561253957612538611e83565b5b5f82015167ffffffffffffffff81111561255657612555611e87565b5b612562848285016124f7565b91505092915050565b7f50726f766964657220444944206e6f7420666f756e64000000000000000000005f82015250565b5f61259f601683612151565b91506125aa8261256b565b602082019050919050565b5f6020820190508181035f8301526125cc81612593565b9050919050565b5f819050919050565b6125e5816125d3565b81146125ef575f80fd5b50565b5f81519050612600816125dc565b92915050565b5f6020828403121561261b5761261a611e83565b5b5f612628848285016125f2565b91505092915050565b5f8160601b9050919050565b5f61264782612631565b9050919050565b5f6126588261263d565b9050919050565b61267061266b82611eaa565b61264e565b82525050565b5f819050919050565b61269061268b826125d3565b612676565b82525050565b5f81519050919050565b5f81905092915050565b5f6126b482612696565b6126be81856126a0565b93506126ce818560208601612161565b80840191505092915050565b5f6126e5828661265f565b6014820191506126f5828561267f565b60208201915061270582846126aa565b9150819050949350505050565b61271b816125d3565b82525050565b5f6040820190506127345f83018561248e565b6127416020830184612712565b9392505050565b61275181612380565b811461275b575f80fd5b50565b5f8151905061276c81612748565b92915050565b5f6020828403121561278757612786611e83565b5b5f6127948482850161275e565b91505092915050565b7f496e76616c696420726f6c652070726f6f6600000000000000000000000000005f82015250565b5f6127d1601283612151565b91506127dc8261279d565b602082019050919050565b5f6020820190508181035f8301526127fe816127c5565b9050919050565b7f50617469656e74207265636f7264206e6f7420666f756e6400000000000000005f82015250565b5f612839601883612151565b915061284482612805565b602082019050919050565b5f6020820190508181035f8301526128668161282d565b9050919050565b7f766965775f6461746100000000000000000000000000000000000000000000005f82015250565b5f6128a1600983612151565b91506128ac8261286d565b602082019050919050565b5f6040820190506128ca5f83018461248e565b81810360208301526128db81612895565b905092915050565b5f81905092915050565b5f6128f782612147565b61290181856128e3565b9350612911818560208601612161565b80840191505092915050565b5f61292882846128ed565b915081905092915050565b7f4e487b71000000000000000000000000000000000000000000000000000000005f52602260045260245ffd5b5f600282049050600182168061297757607f821691505b60208210810361298a57612989612933565b5b50919050565b5f61299b828661265f565b6014820191506129ab828561265f565b6014820191506129bb82846126aa565b9150819050949350505050565b7f4e6f2076616c69642061636365737320726967687473000000000000000000005f82015250565b5f6129fc601683612151565b9150612a07826129c8565b602082019050919050565b5f6020820190508181035f830152612a29816129f0565b9050919050565b5f82825260208201905092915050565b5f612a4a82612696565b612a548185612a30565b9350612a64818560208601612161565b612a6d81611eed565b840191505092915050565b5f606082019050612a8b5f83018661248e565b612a986020830185612712565b8181036040830152612aaa8184612a40565b9050949350505050565b7f4e487b71000000000000000000000000000000000000000000000000000000005f52602160045260245ffd5b60078110612aed575f80fd5b50565b5f81519050612afe81612ae1565b92915050565b5f60208284031215612b1957612b18611e83565b5b5f612b2684828501612af0565b91505092915050565b7f4f6e6c7920646f63746f7273206f7220706172616d65646963732063616e20725f8201527f65717565737420656d657267656e637920616363657373000000000000000000602082015250565b5f612b89603783612151565b9150612b9482612b2f565b604082019050919050565b5f6020820190508181035f830152612bb681612b7d565b9050919050565b5f819050919050565b612bd7612bd28261223b565b612bbd565b82525050565b5f612be8828761265f565b601482019150612bf8828661265f565b601482019150612c088285612bc6565b602082019150612c1882846126aa565b915081905095945050505050565b7f4e487b71000000000000000000000000000000000000000000000000000000005f52601160045260245ffd5b5f612c5d8261223b565b9150612c688361223b565b9250828201905080821115612c8057612c7f612c26565b5b92915050565b5f819050815f5260205f209050919050565b5f6020601f8301049050919050565b5f82821b905092915050565b5f60088302612ce27fffffffffffffffffffffffffffffffffffffffffffffffffffffffffffffffff82612ca7565b612cec8683612ca7565b95508019841693508086168417925050509392505050565b5f612d1e612d19612d148461223b565b6121c7565b61223b565b9050919050565b5f819050919050565b612d3783612d04565b612d4b612d4382612d25565b848454612cb3565b825550505050565b5f90565b612d5f612d53565b612d6a818484612d2e565b505050565b5b81811015612d8d57612d825f82612d57565b600181019050612d70565b5050565b601f821115612dd257612da381612c86565b612dac84612c98565b81016020851015612dbb578190505b612dcf612dc785612c98565b830182612d6f565b50505b505050565b5f82821c905092915050565b5f612df25f1984600802612dd7565b1980831691505092915050565b5f612e0a8383612de3565b9150826002028217905092915050565b612e2382612147565b67ffffffffffffffff811115612e3c57612e3b611efd565b5b612e468254612960565b612e51828285612d91565b5f60209050601f831160018114612e82575f8415612e70578287015190505b612e7a8582612dff565b865550612ee1565b601f198416612e9086612c86565b5f5b82811015612eb757848901518255600182019150602085019450602081019050612e92565b86831015612ed45784890151612ed0601f891682612de3565b8355505b6001600288020188555050505b505050505050565b7f456d657267656e637920616363657373206279204449443a20000000000000005f82015250565b5f612f1d6019836128e3565b9150612f2882612ee9565b601982019050919050565b5f612f3d82612f11565b9150612f4982846128ed565b915081905092915050565b7f656d657267656e63795f616363657373000000000000000000000000000000005f82015250565b5f612f88601083612151565b9150612f9382612f54565b602082019050919050565b5f60a082019050612fb15f83018761248e565b612fbe602083018661248e565b8181036040830152612fcf81612f7c565b90508181036060830152612fe3818561216f565b9050612ff2608083018461238b565b95945050505050565b7f4e6f20656d657267656e63792061636365737320666f756e64000000000000005f82015250565b5f61302f601983612151565b915061303a82612ffb565b602082019050919050565b5f6020820190508181035f83015261305c81613023565b9050919050565b7f7265766f6b655f656d657267656e6379000000000000000000000000000000005f82015250565b5f613097601083612151565b91506130a282613063565b602082019050919050565b7f456d657267656e637920616363657373207265766f6b656400000000000000005f82015250565b5f6130e1601883612151565b91506130ec826130ad565b602082019050919050565b5f60a08201905061310a5f83018661248e565b613117602083018561248e565b81810360408301526131288161308b565b9050818103606083015261313b816130d5565b905061314a608083018461238b565b949350505050565b7f6372656174655f7265636f7264000000000000000000000000000000000000005f82015250565b5f613186600d83612151565b915061319182613152565b602082019050919050565b5f6040820190506131af5f83018461248e565b81810360208301526131c08161317a565b905092915050565b7f556e617574686f72697a656420616363657373000000000000000000000000005f82015250565b5f6131fc601383612151565b9150613207826131c8565b602082019050919050565b5f6020820190508181035f830152613229816131f0565b9050919050565b7f50617469656e74207265636f726420616c7265616479206578697374730000005f82015250565b5f613264601d83612151565b915061326f82613230565b602082019050919050565b5f6020820190508181035f83015261329181613258565b9050919050565b7f4e65772070617469656e74207265636f726420637265617465640000000000005f82015250565b5f6132cc601a83612151565b91506132d782613298565b602082019050919050565b5f60a0820190506132f55f83018661248e565b613302602083018561248e565b81810360408301526133138161317a565b90508181036060830152613326816132c0565b9050613335608083018461238b565b949350505050565b7f7570646174655f646174610000000000000000000000000000000000000000005f82015250565b5f613371600b83612151565b915061337c8261333d565b602082019050919050565b5f60408201905061339a5f83018461248e565b81810360208301526133ab81613365565b905092915050565b7f55706461746564200000000000000000000000000000000000000000000000005f82015250565b5f6133e76008836128e3565b91506133f2826133b3565b600882019050919050565b5f613407826133db565b915061341382846128ed565b915081905092915050565b5f60a0820190506134315f83018761248e565b61343e602083018661248e565b818103604083015261344f81613365565b90508181036060830152613463818561216f565b9050613472608083018461238b565b9594505050505056fea264697066735822122073ce17c8d2a262f98de53371292335f0518b826828e9b6e9a702f2e66c08a16364736f6c634300081a0033",
			"opcodes": "PUSH1 0x80 PUSH1 0x40 MSTORE CALLVALUE DUP1 ISZERO PUSH2 0xF JUMPI PUSH0 DUP1 REVERT JUMPDEST POP PUSH1 0x40 MLOAD PUSH2 0x36B9 CODESIZE SUB DUP1 PUSH2 0x36B9 DUP4 CODECOPY DUP2 DUP2 ADD PUSH1 0x40 MSTORE DUP2 ADD SWAP1 PUSH2 0x31 SWAP2 SWAP1 PUSH2 0x197 JUMP JUMPDEST DUP4 PUSH0 DUP1 PUSH2 0x100 EXP DUP2 SLOAD DUP2 PUSH20 0xFFFFFFFFFFFFFFFFFFFFFFFFFFFFFFFFFFFFFFFF MUL NOT AND SWAP1 DUP4 PUSH20 0xFFFFFFFFFFFFFFFFFFFFFFFFFFFFFFFFFFFFFFFF AND MUL OR SWAP1 SSTORE POP DUP3 PUSH1 0x1 PUSH0 PUSH2 0x100 EXP DUP2 SLOAD DUP2 PUSH20 0xFFFFFFFFFFFFFFFFFFFFFFFFFFFFFFFFFFFFFFFF MUL NOT AND SWAP1 DUP4 PUSH20 0xFFFFFFFFFFFFFFFFFFFFFFFFFFFFFFFFFFFFFFFF AND MUL OR SWAP1 SSTORE POP DUP2 PUSH1 0x2 PUSH0 PUSH2 0x100 EXP DUP2 SLOAD DUP2 PUSH20 0xFFFFFFFFFFFFFFFFFFFFFFFFFFFFFFFFFFFFFFFF MUL NOT AND SWAP1 DUP4 PUSH20 0xFFFFFFFFFFFFFFFFFFFFFFFFFFFFFFFFFFFFFFFF AND MUL OR SWAP1 SSTORE POP DUP1 PUSH1 0x3 PUSH0 PUSH2 0x100 EXP DUP2 SLOAD DUP2 PUSH20 0xFFFFFFFFFFFFFFFFFFFFFFFFFFFFFFFFFFFFFFFF MUL NOT AND SWAP1 DUP4 PUSH20 0xFFFFFFFFFFFFFFFFFFFFFFFFFFFFFFFFFFFFFFFF AND MUL OR SWAP1 SSTORE POP POP POP POP POP PUSH2 0x1FB JUMP JUMPDEST PUSH0 DUP1 REVERT JUMPDEST PUSH0 PUSH20 0xFFFFFFFFFFFFFFFFFFFFFFFFFFFFFFFFFFFFFFFF DUP3 AND SWAP1 POP SWAP2 SWAP1 POP JUMP JUMPDEST PUSH0 PUSH2 0x166 DUP3 PUSH2 0x13D JUMP JUMPDEST SWAP1 POP SWAP2 SWAP1 POP JUMP JUMPDEST PUSH2 0x176 DUP2 PUSH2 0x15C JUMP JUMPDEST DUP2 EQ PUSH2 0x180 JUMPI PUSH0 DUP1 REVERT JUMPDEST POP JUMP JUMPDEST PUSH0 DUP2 MLOAD SWAP1 POP PUSH2 0x191 DUP2 PUSH2 0x16D JUMP JUMPDEST SWAP3 SWAP2 POP POP JUMP JUMPDEST PUSH0 DUP1 PUSH0 DUP1 PUSH1 0x80 DUP6 DUP8 SUB SLT ISZERO PUSH2 0x1AF JUMPI PUSH2 0x1AE PUSH2 0x139 JUMP JUMPDEST JUMPDEST PUSH0 PUSH2 0x1BC DUP8 DUP3 DUP9 ADD PUSH2 0x183 JUMP JUMPDEST SWAP5 POP POP PUSH1 0x20 PUSH2 0x1CD DUP8 DUP3 DUP9 ADD PUSH2 0x183 JUMP JUMPDEST SWAP4 POP POP PUSH1 0x40 PUSH2 0x1DE DUP8 DUP3 DUP9 ADD PUSH2 0x183 JUMP JUMPDEST SWAP3 POP POP PUSH1 0x60 PUSH2 0x1EF DUP8 DUP3 DUP9 ADD PUSH2 0x183 JUMP JUMPDEST SWAP2 POP POP SWAP3 SWAP6 SWAP2 SWAP5 POP SWAP3 POP JUMP JUMPDEST PUSH2 0x34B1 DUP1 PUSH2 0x208 PUSH0 CODECOPY PUSH0 RETURN INVALID PUSH1 0x80 PUSH1 0x40 MSTORE CALLVALUE DUP1 ISZERO PUSH2 0xF JUMPI PUSH0 DUP1 REVERT JUMPDEST POP PUSH1 0x4 CALLDATASIZE LT PUSH2 0xA7 JUMPI PUSH0 CALLDATALOAD PUSH1 0xE0 SHR DUP1 PUSH4 0x5A2D6EBD GT PUSH2 0x6F JUMPI DUP1 PUSH4 0x5A2D6EBD EQ PUSH2 0x151 JUMPI DUP1 PUSH4 0x6AEBBD66 EQ PUSH2 0x16F JUMPI DUP1 PUSH4 0x73B492FF EQ PUSH2 0x18D JUMPI DUP1 PUSH4 0x7EB3A982 EQ PUSH2 0x1A9 JUMPI DUP1 PUSH4 0xAC053AA9 EQ PUSH2 0x1C5 JUMPI DUP1 PUSH4 0xC7D7421C EQ PUSH2 0x1F7 JUMPI PUSH2 0xA7 JUMP JUMPDEST DUP1 PUSH4 0xF8B6DD3 EQ PUSH2 0xAB JUMPI DUP1 PUSH4 0x13007D55 EQ PUSH2 0xDB JUMPI DUP1 PUSH4 0x145E32E1 EQ PUSH2 0xF9 JUMPI DUP1 PUSH4 0x2114EF1F EQ PUSH2 0x115 JUMPI DUP1 PUSH4 0x577F9FB1 EQ PUSH2 0x133 JUMPI JUMPDEST PUSH0 DUP1 REVERT JUMPDEST PUSH2 0xC5 PUSH1 0x4 DUP1 CALLDATASIZE SUB DUP2 ADD SWAP1 PUSH2 0xC0 SWAP2 SWAP1 PUSH2 0x20BF JUMP JUMPDEST PUSH2 0x213 JUMP JUMPDEST PUSH1 0x40 MLOAD PUSH2 0xD2 SWAP2 SWAP1 PUSH2 0x21A7 JUMP JUMPDEST PUSH1 0x40 MLOAD DUP1 SWAP2 SUB SWAP1 RETURN JUMPDEST PUSH2 0xE3 PUSH2 0x8B5 JUMP JUMPDEST PUSH1 0x40 MLOAD PUSH2 0xF0 SWAP2 SWAP1 PUSH2 0x2222 JUMP JUMPDEST PUSH1 0x40 MLOAD DUP1 SWAP2 SUB SWAP1 RETURN JUMPDEST PUSH2 0x113 PUSH1 0x4 DUP1 CALLDATASIZE SUB DUP2 ADD SWAP1 PUSH2 0x10E SWAP2 SWAP1 PUSH2 0x20BF JUMP JUMPDEST PUSH2 0x8D8 JUMP JUMPDEST STOP JUMPDEST PUSH2 0x11D PUSH2 0xFC6 JUMP JUMPDEST PUSH1 0x40 MLOAD PUSH2 0x12A SWAP2 SWAP1 PUSH2 0x2253 JUMP JUMPDEST PUSH1 0x40 MLOAD DUP1 SWAP2 SUB SWAP1 RETURN JUMPDEST PUSH2 0x13B PUSH2 0xFCD JUMP JUMPDEST PUSH1 0x40 MLOAD PUSH2 0x148 SWAP2 SWAP1 PUSH2 0x228C JUMP JUMPDEST PUSH1 0x40 MLOAD DUP1 SWAP2 SUB SWAP1 RETURN JUMPDEST PUSH2 0x159 PUSH2 0xFF2 JUMP JUMPDEST PUSH1 0x40 MLOAD PUSH2 0x166 SWAP2 SWAP1 PUSH2 0x22C5 JUMP JUMPDEST PUSH1 0x40 MLOAD DUP1 SWAP2 SUB SWAP1 RETURN JUMPDEST PUSH2 0x177 PUSH2 0x1017 JUMP JUMPDEST PUSH1 0x40 MLOAD PUSH2 0x184 SWAP2 SWAP1 PUSH2 0x22FE JUMP JUMPDEST PUSH1 0x40 MLOAD DUP1 SWAP2 SUB SWAP1 RETURN JUMPDEST PUSH2 0x1A7 PUSH1 0x4 DUP1 CALLDATASIZE SUB DUP2 ADD SWAP1 PUSH2 0x1A2 SWAP2 SWAP1 PUSH2 0x2317 JUMP JUMPDEST PUSH2 0x103C JUMP JUMPDEST STOP JUMPDEST PUSH2 0x1C3 PUSH1 0x4 DUP1 CALLDATASIZE SUB DUP2 ADD SWAP1 PUSH2 0x1BE SWAP2 SWAP1 PUSH2 0x2317 JUMP JUMPDEST PUSH2 0x1326 JUMP JUMPDEST STOP JUMPDEST PUSH2 0x1DF PUSH1 0x4 DUP1 CALLDATASIZE SUB DUP2 ADD SWAP1 PUSH2 0x1DA SWAP2 SWAP1 PUSH2 0x2342 JUMP JUMPDEST PUSH2 0x173B JUMP JUMPDEST PUSH1 0x40 MLOAD PUSH2 0x1EE SWAP4 SWAP3 SWAP2 SWAP1 PUSH2 0x239A JUMP JUMPDEST PUSH1 0x40 MLOAD DUP1 SWAP2 SUB SWAP1 RETURN JUMPDEST PUSH2 0x211 PUSH1 0x4 DUP1 CALLDATASIZE SUB DUP2 ADD SWAP1 PUSH2 0x20C SWAP2 SWAP1 PUSH2 0x23D6 JUMP JUMPDEST PUSH2 0x18FA JUMP JUMPDEST STOP JUMPDEST PUSH1 0x60 PUSH0 PUSH1 0x2 PUSH0 SWAP1 SLOAD SWAP1 PUSH2 0x100 EXP SWAP1 DIV PUSH20 0xFFFFFFFFFFFFFFFFFFFFFFFFFFFFFFFFFFFFFFFF AND PUSH20 0xFFFFFFFFFFFFFFFFFFFFFFFFFFFFFFFFFFFFFFFF AND PUSH4 0x95F9250D CALLER PUSH1 0x40 MLOAD DUP3 PUSH4 0xFFFFFFFF AND PUSH1 0xE0 SHL DUP2 MSTORE PUSH1 0x4 ADD PUSH2 0x270 SWAP2 SWAP1 PUSH2 0x249D JUMP JUMPDEST PUSH0 PUSH1 0x40 MLOAD DUP1 DUP4 SUB DUP2 DUP7 GAS STATICCALL ISZERO DUP1 ISZERO PUSH2 0x28A JUMPI RETURNDATASIZE PUSH0 DUP1 RETURNDATACOPY RETURNDATASIZE PUSH0 REVERT JUMPDEST POP POP POP POP PUSH1 0x40 MLOAD RETURNDATASIZE PUSH0 DUP3 RETURNDATACOPY RETURNDATASIZE PUSH1 0x1F NOT PUSH1 0x1F DUP3 ADD AND DUP3 ADD DUP1 PUSH1 0x40 MSTORE POP DUP2 ADD SWAP1 PUSH2 0x2B2 SWAP2 SWAP1 PUSH2 0x2524 JUMP JUMPDEST SWAP1 POP PUSH0 DUP2 MLOAD GT PUSH2 0x2F7 JUMPI PUSH1 0x40 MLOAD PUSH32 0x8C379A000000000000000000000000000000000000000000000000000000000 DUP2 MSTORE PUSH1 0x4 ADD PUSH2 0x2EE SWAP1 PUSH2 0x25B5 JUMP JUMPDEST PUSH1 0x40 MLOAD DUP1 SWAP2 SUB SWAP1 REVERT JUMPDEST PUSH0 DUP1 PUSH0 SWAP1 SLOAD SWAP1 PUSH2 0x100 EXP SWAP1 DIV PUSH20 0xFFFFFFFFFFFFFFFFFFFFFFFFFFFFFFFFFFFFFFFF AND PUSH20 0xFFFFFFFFFFFFFFFFFFFFFFFFFFFFFFFFFFFFFFFF AND PUSH4 0x890E3093 CALLER PUSH1 0x40 MLOAD DUP3 PUSH4 0xFFFFFFFF AND PUSH1 0xE0 SHL DUP2 MSTORE PUSH1 0x4 ADD PUSH2 0x351 SWAP2 SWAP1 PUSH2 0x249D JUMP JUMPDEST PUSH1 0x20 PUSH1 0x40 MLOAD DUP1 DUP4 SUB DUP2 DUP7 GAS STATICCALL ISZERO DUP1 ISZERO PUSH2 0x36C JUMPI RETURNDATASIZE PUSH0 DUP1 RETURNDATACOPY RETURNDATASIZE PUSH0 REVERT JUMPDEST POP POP POP POP PUSH1 0x40 MLOAD RETURNDATASIZE PUSH1 0x1F NOT PUSH1 0x1F DUP3 ADD AND DUP3 ADD DUP1 PUSH1 0x40 MSTORE POP DUP2 ADD SWAP1 PUSH2 0x390 SWAP2 SWAP1 PUSH2 0x2606 JUMP JUMPDEST SWAP1 POP PUSH0 CALLER DUP3 DUP7 PUSH1 0x40 MLOAD PUSH1 0x20 ADD PUSH2 0x3A8 SWAP4 SWAP3 SWAP2 SWAP1 PUSH2 0x26DA JUMP JUMPDEST PUSH1 0x40 MLOAD PUSH1 0x20 DUP2 DUP4 SUB SUB DUP2 MSTORE SWAP1 PUSH1 0x40 MSTORE DUP1 MLOAD SWAP1 PUSH1 0x20 ADD KECCAK256 SWAP1 POP PUSH1 0x3 PUSH0 SWAP1 SLOAD SWAP1 PUSH2 0x100 EXP SWAP1 DIV PUSH20 0xFFFFFFFFFFFFFFFFFFFFFFFFFFFFFFFFFFFFFFFF AND PUSH20 0xFFFFFFFFFFFFFFFFFFFFFFFFFFFFFFFFFFFFFFFF AND PUSH4 0x98DFD0A7 CALLER DUP4 PUSH1 0x40 MLOAD DUP4 PUSH4 0xFFFFFFFF AND PUSH1 0xE0 SHL DUP2 MSTORE PUSH1 0x4 ADD PUSH2 0x41C SWAP3 SWAP2 SWAP1 PUSH2 0x2721 JUMP JUMPDEST PUSH1 0x20 PUSH1 0x40 MLOAD DUP1 DUP4 SUB DUP2 DUP7 GAS STATICCALL ISZERO DUP1 ISZERO PUSH2 0x437 JUMPI RETURNDATASIZE PUSH0 DUP1 RETURNDATACOPY RETURNDATASIZE PUSH0 REVERT JUMPDEST POP POP POP POP PUSH1 0x40 MLOAD RETURNDATASIZE PUSH1 0x1F NOT PUSH1 0x1F DUP3 ADD AND DUP3 ADD DUP1 PUSH1 0x40 MSTORE POP DUP2 ADD SWAP1 PUSH2 0x45B SWAP2 SWAP1 PUSH2 0x2772 JUMP JUMPDEST PUSH2 0x49A JUMPI PUSH1 0x40 MLOAD PUSH32 0x8C379A000000000000000000000000000000000000000000000000000000000 DUP2 MSTORE PUSH1 0x4 ADD PUSH2 0x491 SWAP1 PUSH2 0x27E7 JUMP JUMPDEST PUSH1 0x40 MLOAD DUP1 SWAP2 SUB SWAP1 REVERT JUMPDEST PUSH1 0x4 PUSH0 DUP9 PUSH20 0xFFFFFFFFFFFFFFFFFFFFFFFFFFFFFFFFFFFFFFFF AND PUSH20 0xFFFFFFFFFFFFFFFFFFFFFFFFFFFFFFFFFFFFFFFF AND DUP2 MSTORE PUSH1 0x20 ADD SWAP1 DUP2 MSTORE PUSH1 0x20 ADD PUSH0 KECCAK256 PUSH1 0x1 ADD PUSH0 SWAP1 SLOAD SWAP1 PUSH2 0x100 EXP SWAP1 DIV PUSH1 0xFF AND PUSH2 0x526 JUMPI PUSH1 0x40 MLOAD PUSH32 0x8C379A000000000000000000000000000000000000000000000000000000000 DUP2 MSTORE PUSH1 0x4 ADD PUSH2 0x51D SWAP1 PUSH2 0x284F JUMP JUMPDEST PUSH1 0x40 MLOAD DUP1 SWAP2 SUB SWAP1 REVERT JUMPDEST PUSH0 DUP1 SLOAD SWAP1 PUSH2 0x100 EXP SWAP1 DIV PUSH20 0xFFFFFFFFFFFFFFFFFFFFFFFFFFFFFFFFFFFFFFFF AND PUSH20 0xFFFFFFFFFFFFFFFFFFFFFFFFFFFFFFFFFFFFFFFF AND PUSH4 0x89B3AF29 CALLER PUSH1 0x40 MLOAD DUP3 PUSH4 0xFFFFFFFF AND PUSH1 0xE0 SHL DUP2 MSTORE PUSH1 0x4 ADD PUSH2 0x57E SWAP2 SWAP1 PUSH2 0x28B7 JUMP JUMPDEST PUSH1 0x20 PUSH1 0x40 MLOAD DUP1 DUP4 SUB DUP2 DUP7 GAS STATICCALL ISZERO DUP1 ISZERO PUSH2 0x599 JUMPI RETURNDATASIZE PUSH0 DUP1 RETURNDATACOPY RETURNDATASIZE PUSH0 REVERT JUMPDEST POP POP POP POP PUSH1 0x40 MLOAD RETURNDATASIZE PUSH1 0x1F NOT PUSH1 0x1F DUP3 ADD AND DUP3 ADD DUP1 PUSH1 0x40 MSTORE POP DUP2 ADD SWAP1 PUSH2 0x5BD SWAP2 SWAP1 PUSH2 0x2772 JUMP JUMPDEST ISZERO PUSH2 0x6AF JUMPI PUSH1 0x4 PUSH0 DUP9 PUSH20 0xFFFFFFFFFFFFFFFFFFFFFFFFFFFFFFFFFFFFFFFF AND PUSH20 0xFFFFFFFFFFFFFFFFFFFFFFFFFFFFFFFFFFFFFFFF AND DUP2 MSTORE PUSH1 0x20 ADD SWAP1 DUP2 MSTORE PUSH1 0x20 ADD PUSH0 KECCAK256 PUSH1 0x2 ADD DUP7 PUSH1 0x40 MLOAD PUSH2 0x610 SWAP2 SWAP1 PUSH2 0x291D JUMP JUMPDEST SWAP1 DUP2 MSTORE PUSH1 0x20 ADD PUSH1 0x40 MLOAD DUP1 SWAP2 SUB SWAP1 KECCAK256 DUP1 SLOAD PUSH2 0x629 SWAP1 PUSH2 0x2960 JUMP JUMPDEST DUP1 PUSH1 0x1F ADD PUSH1 0x20 DUP1 SWAP2 DIV MUL PUSH1 0x20 ADD PUSH1 0x40 MLOAD SWAP1 DUP2 ADD PUSH1 0x40 MSTORE DUP1 SWAP3 SWAP2 SWAP1 DUP2 DUP2 MSTORE PUSH1 0x20 ADD DUP3 DUP1 SLOAD PUSH2 0x655 SWAP1 PUSH2 0x2960 JUMP JUMPDEST DUP1 ISZERO PUSH2 0x6A0 JUMPI DUP1 PUSH1 0x1F LT PUSH2 0x677 JUMPI PUSH2 0x100 DUP1 DUP4 SLOAD DIV MUL DUP4 MSTORE SWAP2 PUSH1 0x20 ADD SWAP2 PUSH2 0x6A0 JUMP JUMPDEST DUP3 ADD SWAP2 SWAP1 PUSH0 MSTORE PUSH1 0x20 PUSH0 KECCAK256 SWAP1 JUMPDEST DUP2 SLOAD DUP2 MSTORE SWAP1 PUSH1 0x1 ADD SWAP1 PUSH1 0x20 ADD DUP1 DUP4 GT PUSH2 0x683 JUMPI DUP3 SWAP1 SUB PUSH1 0x1F AND DUP3 ADD SWAP2 JUMPDEST POP POP POP POP POP SWAP4 POP POP POP POP PUSH2 0x8AE JUMP JUMPDEST PUSH0 PUSH1 0x4 PUSH0 DUP10 PUSH20 0xFFFFFFFFFFFFFFFFFFFFFFFFFFFFFFFFFFFFFFFF AND PUSH20 0xFFFFFFFFFFFFFFFFFFFFFFFFFFFFFFFFFFFFFFFF AND DUP2 MSTORE PUSH1 0x20 ADD SWAP1 DUP2 MSTORE PUSH1 0x20 ADD PUSH0 KECCAK256 PUSH1 0x3 ADD PUSH0 CALLER PUSH20 0xFFFFFFFFFFFFFFFFFFFFFFFFFFFFFFFFFFFFFFFF AND PUSH20 0xFFFFFFFFFFFFFFFFFFFFFFFFFFFFFFFFFFFFFFFF AND DUP2 MSTORE PUSH1 0x20 ADD SWAP1 DUP2 MSTORE PUSH1 0x20 ADD PUSH0 KECCAK256 SWAP1 POP DUP1 PUSH0 ADD PUSH0 SWAP1 SLOAD SWAP1 PUSH2 0x100 EXP SWAP1 DIV PUSH1 0xFF AND DUP1 ISZERO PUSH2 0x74C JUMPI POP TIMESTAMP DUP2 PUSH1 0x1 ADD SLOAD GT JUMPDEST DUP1 ISZERO PUSH2 0x785 JUMPI POP CALLER DUP9 DUP8 PUSH1 0x40 MLOAD PUSH1 0x20 ADD PUSH2 0x768 SWAP4 SWAP3 SWAP2 SWAP1 PUSH2 0x2990 JUMP JUMPDEST PUSH1 0x40 MLOAD PUSH1 0x20 DUP2 DUP4 SUB SUB DUP2 MSTORE SWAP1 PUSH1 0x40 MSTORE DUP1 MLOAD SWAP1 PUSH1 0x20 ADD KECCAK256 DUP2 PUSH1 0x3 ADD SLOAD EQ JUMPDEST PUSH2 0x7C4 JUMPI PUSH1 0x40 MLOAD PUSH32 0x8C379A000000000000000000000000000000000000000000000000000000000 DUP2 MSTORE PUSH1 0x4 ADD PUSH2 0x7BB SWAP1 PUSH2 0x2A12 JUMP JUMPDEST PUSH1 0x40 MLOAD DUP1 SWAP2 SUB SWAP1 REVERT JUMPDEST PUSH1 0x4 PUSH0 DUP10 PUSH20 0xFFFFFFFFFFFFFFFFFFFFFFFFFFFFFFFFFFFFFFFF AND PUSH20 0xFFFFFFFFFFFFFFFFFFFFFFFFFFFFFFFFFFFFFFFF AND DUP2 MSTORE PUSH1 0x20 ADD SWAP1 DUP2 MSTORE PUSH1 0x20 ADD PUSH0 KECCAK256 PUSH1 0x2 ADD DUP8 PUSH1 0x40 MLOAD PUSH2 0x812 SWAP2 SWAP1 PUSH2 0x291D JUMP JUMPDEST SWAP1 DUP2 MSTORE PUSH1 0x20 ADD PUSH1 0x40 MLOAD DUP1 SWAP2 SUB SWAP1 KECCAK256 DUP1 SLOAD PUSH2 0x82B SWAP1 PUSH2 0x2960 JUMP JUMPDEST DUP1 PUSH1 0x1F ADD PUSH1 0x20 DUP1 SWAP2 DIV MUL PUSH1 0x20 ADD PUSH1 0x40 MLOAD SWAP1 DUP2 ADD PUSH1 0x40 MSTORE DUP1 SWAP3 SWAP2 SWAP1 DUP2 DUP2 MSTORE PUSH1 0x20 ADD DUP3 DUP1 SLOAD PUSH2 0x857 SWAP1 PUSH2 0x2960 JUMP JUMPDEST DUP1 ISZERO PUSH2 0x8A2 JUMPI DUP1 PUSH1 0x1F LT PUSH2 0x879 JUMPI PUSH2 0x100 DUP1 DUP4 SLOAD DIV MUL DUP4 MSTORE SWAP2 PUSH1 0x20 ADD SWAP2 PUSH2 0x8A2 JUMP JUMPDEST DUP3 ADD SWAP2 SWAP1 PUSH0 MSTORE PUSH1 0x20 PUSH0 KECCAK256 SWAP1 JUMPDEST DUP2 SLOAD DUP2 MSTORE SWAP1 PUSH1 0x1 ADD SWAP1 PUSH1 0x20 ADD DUP1 DUP4 GT PUSH2 0x885 JUMPI DUP3 SWAP1 SUB PUSH1 0x1F AND DUP3 ADD SWAP2 JUMPDEST POP POP POP POP POP SWAP5 POP POP POP POP POP JUMPDEST SWAP4 SWAP3 POP POP POP JUMP JUMPDEST PUSH0 DUP1 SLOAD SWAP1 PUSH2 0x100 EXP SWAP1 DIV PUSH20 0xFFFFFFFFFFFFFFFFFFFFFFFFFFFFFFFFFFFFFFFF AND DUP2 JUMP JUMPDEST PUSH0 PUSH1 0x2 PUSH0 SWAP1 SLOAD SWAP1 PUSH2 0x100 EXP SWAP1 DIV PUSH20 0xFFFFFFFFFFFFFFFFFFFFFFFFFFFFFFFFFFFFFFFF AND PUSH20 0xFFFFFFFFFFFFFFFFFFFFFFFFFFFFFFFFFFFFFFFF AND PUSH4 0x95F9250D CALLER PUSH1 0x40 MLOAD DUP3 PUSH4 0xFFFFFFFF AND PUSH1 0xE0 SHL DUP2 MSTORE PUSH1 0x4 ADD PUSH2 0x933 SWAP2 SWAP1 PUSH2 0x249D JUMP JUMPDEST PUSH0 PUSH1 0x40 MLOAD DUP1 DUP4 SUB DUP2 DUP7 GAS STATICCALL ISZERO DUP1 ISZERO PUSH2 0x94D JUMPI RETURNDATASIZE PUSH0 DUP1 RETURNDATACOPY RETURNDATASIZE PUSH0 REVERT JUMPDEST POP POP POP POP PUSH1 0x40 MLOAD RETURNDATASIZE PUSH0 DUP3 RETURNDATACOPY RETURNDATASIZE PUSH1 0x1F NOT PUSH1 0x1F DUP3 ADD AND DUP3 ADD DUP1 PUSH1 0x40 MSTORE POP DUP2 ADD SWAP1 PUSH2 0x975 SWAP2 SWAP1 PUSH2 0x2524 JUMP JUMPDEST SWAP1 POP PUSH0 DUP2 MLOAD GT PUSH2 0x9BA JUMPI PUSH1 0x40 MLOAD PUSH32 0x8C379A000000000000000000000000000000000000000000000000000000000 DUP2 MSTORE PUSH1 0x4 ADD PUSH2 0x9B1 SWAP1 PUSH2 0x25B5 JUMP JUMPDEST PUSH1 0x40 MLOAD DUP1 SWAP2 SUB SWAP1 REVERT JUMPDEST PUSH0 DUP1 PUSH0 SWAP1 SLOAD SWAP1 PUSH2 0x100 EXP SWAP1 DIV PUSH20 0xFFFFFFFFFFFFFFFFFFFFFFFFFFFFFFFFFFFFFFFF AND PUSH20 0xFFFFFFFFFFFFFFFFFFFFFFFFFFFFFFFFFFFFFFFF AND PUSH4 0x890E3093 CALLER PUSH1 0x40 MLOAD DUP3 PUSH4 0xFFFFFFFF AND PUSH1 0xE0 SHL DUP2 MSTORE PUSH1 0x4 ADD PUSH2 0xA14 SWAP2 SWAP1 PUSH2 0x249D JUMP JUMPDEST PUSH1 0x20 PUSH1 0x40 MLOAD DUP1 DUP4 SUB DUP2 DUP7 GAS STATICCALL ISZERO DUP1 ISZERO PUSH2 0xA2F JUMPI RETURNDATASIZE PUSH0 DUP1 RETURNDATACOPY RETURNDATASIZE PUSH0 REVERT JUMPDEST POP POP POP POP PUSH1 0x40 MLOAD RETURNDATASIZE PUSH1 0x1F NOT PUSH1 0x1F DUP3 ADD AND DUP3 ADD DUP1 PUSH1 0x40 MSTORE POP DUP2 ADD SWAP1 PUSH2 0xA53 SWAP2 SWAP1 PUSH2 0x2606 JUMP JUMPDEST SWAP1 POP PUSH1 0x3 PUSH0 SWAP1 SLOAD SWAP1 PUSH2 0x100 EXP SWAP1 DIV PUSH20 0xFFFFFFFFFFFFFFFFFFFFFFFFFFFFFFFFFFFFFFFF AND PUSH20 0xFFFFFFFFFFFFFFFFFFFFFFFFFFFFFFFFFFFFFFFF AND PUSH4 0x56E377D6 CALLER DUP4 DUP7 PUSH1 0x40 MLOAD DUP5 PUSH4 0xFFFFFFFF AND PUSH1 0xE0 SHL DUP2 MSTORE PUSH1 0x4 ADD PUSH2 0xAB3 SWAP4 SWAP3 SWAP2 SWAP1 PUSH2 0x2A78 JUMP JUMPDEST PUSH1 0x20 PUSH1 0x40 MLOAD DUP1 DUP4 SUB DUP2 PUSH0 DUP8 GAS CALL ISZERO DUP1 ISZERO PUSH2 0xACF JUMPI RETURNDATASIZE PUSH0 DUP1 RETURNDATACOPY RETURNDATASIZE PUSH0 REVERT JUMPDEST POP POP POP POP PUSH1 0x40 MLOAD RETURNDATASIZE PUSH1 0x1F NOT PUSH1 0x1F DUP3 ADD AND DUP3 ADD DUP1 PUSH1 0x40 MSTORE POP DUP2 ADD SWAP1 PUSH2 0xAF3 SWAP2 SWAP1 PUSH2 0x2772 JUMP JUMPDEST PUSH2 0xB32 JUMPI PUSH1 0x40 MLOAD PUSH32 0x8C379A000000000000000000000000000000000000000000000000000000000 DUP2 MSTORE PUSH1 0x4 ADD PUSH2 0xB29 SWAP1 PUSH2 0x27E7 JUMP JUMPDEST PUSH1 0x40 MLOAD DUP1 SWAP2 SUB SWAP1 REVERT JUMPDEST PUSH1 0x4 PUSH1 0x6 DUP2 GT ISZERO PUSH2 0xB46 JUMPI PUSH2 0xB45 PUSH2 0x2AB4 JUMP JUMPDEST JUMPDEST PUSH0 DUP1 SLOAD SWAP1 PUSH2 0x100 EXP SWAP1 DIV PUSH20 0xFFFFFFFFFFFFFFFFFFFFFFFFFFFFFFFFFFFFFFFF AND PUSH20 0xFFFFFFFFFFFFFFFFFFFFFFFFFFFFFFFFFFFFFFFF AND PUSH4 0x27820851 CALLER PUSH1 0x40 MLOAD DUP3 PUSH4 0xFFFFFFFF AND PUSH1 0xE0 SHL DUP2 MSTORE PUSH1 0x4 ADD PUSH2 0xB9E SWAP2 SWAP1 PUSH2 0x249D JUMP JUMPDEST PUSH1 0x20 PUSH1 0x40 MLOAD DUP1 DUP4 SUB DUP2 DUP7 GAS STATICCALL ISZERO DUP1 ISZERO PUSH2 0xBB9 JUMPI RETURNDATASIZE PUSH0 DUP1 RETURNDATACOPY RETURNDATASIZE PUSH0 REVERT JUMPDEST POP POP POP POP PUSH1 0x40 MLOAD RETURNDATASIZE PUSH1 0x1F NOT PUSH1 0x1F DUP3 ADD AND DUP3 ADD DUP1 PUSH1 0x40 MSTORE POP DUP2 ADD SWAP1 PUSH2 0xBDD SWAP2 SWAP1 PUSH2 0x2B04 JUMP JUMPDEST PUSH1 0x6 DUP2 GT ISZERO PUSH2 0xBEF JUMPI PUSH2 0xBEE PUSH2 0x2AB4 JUMP JUMPDEST JUMPDEST EQ DUP1 PUSH2 0xCB5 JUMPI POP PUSH1 0x3 PUSH1 0x6 DUP2 GT ISZERO PUSH2 0xC0A JUMPI PUSH2 0xC09 PUSH2 0x2AB4 JUMP JUMPDEST JUMPDEST PUSH0 DUP1 SLOAD SWAP1 PUSH2 0x100 EXP SWAP1 DIV PUSH20 0xFFFFFFFFFFFFFFFFFFFFFFFFFFFFFFFFFFFFFFFF AND PUSH20 0xFFFFFFFFFFFFFFFFFFFFFFFFFFFFFFFFFFFFFFFF AND PUSH4 0x27820851 CALLER PUSH1 0x40 MLOAD DUP3 PUSH4 0xFFFFFFFF AND PUSH1 0xE0 SHL DUP2 MSTORE PUSH1 0x4 ADD PUSH2 0xC62 SWAP2 SWAP1 PUSH2 0x249D JUMP JUMPDEST PUSH1 0x20 PUSH1 0x40 MLOAD DUP1 DUP4 SUB DUP2 DUP7 GAS STATICCALL ISZERO DUP1 ISZERO PUSH2 0xC7D JUMPI RETURNDATASIZE PUSH0 DUP1 RETURNDATACOPY RETURNDATASIZE PUSH0 REVERT JUMPDEST POP POP POP POP PUSH1 0x40 MLOAD RETURNDATASIZE PUSH1 0x1F NOT PUSH1 0x1F DUP3 ADD AND DUP3 ADD DUP1 PUSH1 0x40 MSTORE POP DUP2 ADD SWAP1 PUSH2 0xCA1 SWAP2 SWAP1 PUSH2 0x2B04 JUMP JUMPDEST PUSH1 0x6 DUP2 GT ISZERO PUSH2 0xCB3 JUMPI PUSH2 0xCB2 PUSH2 0x2AB4 JUMP JUMPDEST JUMPDEST EQ JUMPDEST PUSH2 0xCF4 JUMPI PUSH1 0x40 MLOAD PUSH32 0x8C379A000000000000000000000000000000000000000000000000000000000 DUP2 MSTORE PUSH1 0x4 ADD PUSH2 0xCEB SWAP1 PUSH2 0x2B9F JUMP JUMPDEST PUSH1 0x40 MLOAD DUP1 SWAP2 SUB SWAP1 REVERT JUMPDEST PUSH1 0x4 PUSH0 DUP7 PUSH20 0xFFFFFFFFFFFFFFFFFFFFFFFFFFFFFFFFFFFFFFFF AND PUSH20 0xFFFFFFFFFFFFFFFFFFFFFFFFFFFFFFFFFFFFFFFF AND DUP2 MSTORE PUSH1 0x20 ADD SWAP1 DUP2 MSTORE PUSH1 0x20 ADD PUSH0 KECCAK256 PUSH1 0x1 ADD PUSH0 SWAP1 SLOAD SWAP1 PUSH2 0x100 EXP SWAP1 DIV PUSH1 0xFF AND PUSH2 0xD80 JUMPI PUSH1 0x40 MLOAD PUSH32 0x8C379A000000000000000000000000000000000000000000000000000000000 DUP2 MSTORE PUSH1 0x4 ADD PUSH2 0xD77 SWAP1 PUSH2 0x284F JUMP JUMPDEST PUSH1 0x40 MLOAD DUP1 SWAP2 SUB SWAP1 REVERT JUMPDEST PUSH0 CALLER DUP7 TIMESTAMP DUP7 PUSH1 0x40 MLOAD PUSH1 0x20 ADD PUSH2 0xD98 SWAP5 SWAP4 SWAP3 SWAP2 SWAP1 PUSH2 0x2BDD JUMP JUMPDEST PUSH1 0x40 MLOAD PUSH1 0x20 DUP2 DUP4 SUB SUB DUP2 MSTORE SWAP1 PUSH1 0x40 MSTORE DUP1 MLOAD SWAP1 PUSH1 0x20 ADD KECCAK256 SWAP1 POP PUSH0 PUSH3 0x15180 TIMESTAMP PUSH2 0xDC0 SWAP2 SWAP1 PUSH2 0x2C53 JUMP JUMPDEST SWAP1 POP PUSH1 0x40 MLOAD DUP1 PUSH1 0x80 ADD PUSH1 0x40 MSTORE DUP1 PUSH1 0x1 ISZERO ISZERO DUP2 MSTORE PUSH1 0x20 ADD DUP3 DUP2 MSTORE PUSH1 0x20 ADD DUP8 DUP2 MSTORE PUSH1 0x20 ADD DUP4 DUP2 MSTORE POP PUSH1 0x4 PUSH0 DUP10 PUSH20 0xFFFFFFFFFFFFFFFFFFFFFFFFFFFFFFFFFFFFFFFF AND PUSH20 0xFFFFFFFFFFFFFFFFFFFFFFFFFFFFFFFFFFFFFFFF AND DUP2 MSTORE PUSH1 0x20 ADD SWAP1 DUP2 MSTORE PUSH1 0x20 ADD PUSH0 KECCAK256 PUSH1 0x3 ADD PUSH0 CALLER PUSH20 0xFFFFFFFFFFFFFFFFFFFFFFFFFFFFFFFFFFFFFFFF AND PUSH20 0xFFFFFFFFFFFFFFFFFFFFFFFFFFFFFFFFFFFFFFFF AND DUP2 MSTORE PUSH1 0x20 ADD SWAP1 DUP2 MSTORE PUSH1 0x20 ADD PUSH0 KECCAK256 PUSH0 DUP3 ADD MLOAD DUP2 PUSH0 ADD PUSH0 PUSH2 0x100 EXP DUP2 SLOAD DUP2 PUSH1 0xFF MUL NOT AND SWAP1 DUP4 ISZERO ISZERO MUL OR SWAP1 SSTORE POP PUSH1 0x20 DUP3 ADD MLOAD DUP2 PUSH1 0x1 ADD SSTORE PUSH1 0x40 DUP3 ADD MLOAD DUP2 PUSH1 0x2 ADD SWAP1 DUP2 PUSH2 0xE9D SWAP2 SWAP1 PUSH2 0x2E1A JUMP JUMPDEST POP PUSH1 0x60 DUP3 ADD MLOAD DUP2 PUSH1 0x3 ADD SSTORE SWAP1 POP POP DUP7 PUSH20 0xFFFFFFFFFFFFFFFFFFFFFFFFFFFFFFFFFFFFFFFF AND CALLER PUSH20 0xFFFFFFFFFFFFFFFFFFFFFFFFFFFFFFFFFFFFFFFF AND PUSH32 0x5D1675D647FD82D7866123D4B61E400E9B9CD41946AE22001974C31E8ADDB20B DUP4 PUSH1 0x40 MLOAD PUSH2 0xF08 SWAP2 SWAP1 PUSH2 0x2253 JUMP JUMPDEST PUSH1 0x40 MLOAD DUP1 SWAP2 SUB SWAP1 LOG3 PUSH1 0x1 PUSH0 SWAP1 SLOAD SWAP1 PUSH2 0x100 EXP SWAP1 DIV PUSH20 0xFFFFFFFFFFFFFFFFFFFFFFFFFFFFFFFFFFFFFFFF AND PUSH20 0xFFFFFFFFFFFFFFFFFFFFFFFFFFFFFFFFFFFFFFFF AND PUSH4 0x67FE17F4 CALLER DUP10 DUP8 PUSH1 0x40 MLOAD PUSH1 0x20 ADD PUSH2 0xF60 SWAP2 SWAP1 PUSH2 0x2F33 JUMP JUMPDEST PUSH1 0x40 MLOAD PUSH1 0x20 DUP2 DUP4 SUB SUB DUP2 MSTORE SWAP1 PUSH1 0x40 MSTORE PUSH1 0x1 PUSH1 0x40 MLOAD DUP6 PUSH4 0xFFFFFFFF AND PUSH1 0xE0 SHL DUP2 MSTORE PUSH1 0x4 ADD PUSH2 0xF90 SWAP5 SWAP4 SWAP3 SWAP2 SWAP1 PUSH2 0x2F9E JUMP JUMPDEST PUSH0 PUSH1 0x40 MLOAD DUP1 DUP4 SUB DUP2 PUSH0 DUP8 DUP1 EXTCODESIZE ISZERO DUP1 ISZERO PUSH2 0xFA7 JUMPI PUSH0 DUP1 REVERT JUMPDEST POP GAS CALL ISZERO DUP1 ISZERO PUSH2 0xFB9 JUMPI RETURNDATASIZE PUSH0 DUP1 RETURNDATACOPY RETURNDATASIZE PUSH0 REVERT JUMPDEST POP POP POP POP POP POP POP POP POP POP POP JUMP JUMPDEST PUSH3 0x15180 DUP2 JUMP JUMPDEST PUSH1 0x2 PUSH0 SWAP1 SLOAD SWAP1 PUSH2 0x100 EXP SWAP1 DIV PUSH20 0xFFFFFFFFFFFFFFFFFFFFFFFFFFFFFFFFFFFFFFFF AND DUP2 JUMP JUMPDEST PUSH1 0x1 PUSH0 SWAP1 SLOAD SWAP1 PUSH2 0x100 EXP SWAP1 DIV PUSH20 0xFFFFFFFFFFFFFFFFFFFFFFFFFFFFFFFFFFFFFFFF AND DUP2 JUMP JUMPDEST PUSH1 0x3 PUSH0 SWAP1 SLOAD SWAP1 PUSH2 0x100 EXP SWAP1 DIV PUSH20 0xFFFFFFFFFFFFFFFFFFFFFFFFFFFFFFFFFFFFFFFF AND DUP2 JUMP JUMPDEST PUSH1 0x4 PUSH0 CALLER PUSH20 0xFFFFFFFFFFFFFFFFFFFFFFFFFFFFFFFFFFFFFFFF AND PUSH20 0xFFFFFFFFFFFFFFFFFFFFFFFFFFFFFFFFFFFFFFFF AND DUP2 MSTORE PUSH1 0x20 ADD SWAP1 DUP2 MSTORE PUSH1 0x20 ADD PUSH0 KECCAK256 PUSH1 0x1 ADD PUSH0 SWAP1 SLOAD SWAP1 PUSH2 0x100 EXP SWAP1 DIV PUSH1 0xFF AND PUSH2 0x10C8 JUMPI PUSH1 0x40 MLOAD PUSH32 0x8C379A000000000000000000000000000000000000000000000000000000000 DUP2 MSTORE PUSH1 0x4 ADD PUSH2 0x10BF SWAP1 PUSH2 0x284F JUMP JUMPDEST PUSH1 0x40 MLOAD DUP1 SWAP2 SUB SWAP1 REVERT JUMPDEST PUSH1 0x4 PUSH0 CALLER PUSH20 0xFFFFFFFFFFFFFFFFFFFFFFFFFFFFFFFFFFFFFFFF AND PUSH20 0xFFFFFFFFFFFFFFFFFFFFFFFFFFFFFFFFFFFFFFFF AND DUP2 MSTORE PUSH1 0x20 ADD SWAP1 DUP2 MSTORE PUSH1 0x20 ADD PUSH0 KECCAK256 PUSH1 0x3 ADD PUSH0 DUP3 PUSH20 0xFFFFFFFFFFFFFFFFFFFFFFFFFFFFFFFFFFFFFFFF AND PUSH20 0xFFFFFFFFFFFFFFFFFFFFFFFFFFFFFFFFFFFFFFFF AND DUP2 MSTORE PUSH1 0x20 ADD SWAP1 DUP2 MSTORE PUSH1 0x20 ADD PUSH0 KECCAK256 PUSH0 ADD PUSH0 SWAP1 SLOAD SWAP1 PUSH2 0x100 EXP SWAP1 DIV PUSH1 0xFF AND PUSH2 0x1191 JUMPI PUSH1 0x40 MLOAD PUSH32 0x8C379A000000000000000000000000000000000000000000000000000000000 DUP2 MSTORE PUSH1 0x4 ADD PUSH2 0x1188 SWAP1 PUSH2 0x3045 JUMP JUMPDEST PUSH1 0x40 MLOAD DUP1 SWAP2 SUB SWAP1 REVERT JUMPDEST PUSH1 0x4 PUSH0 CALLER PUSH20 0xFFFFFFFFFFFFFFFFFFFFFFFFFFFFFFFFFFFFFFFF AND PUSH20 0xFFFFFFFFFFFFFFFFFFFFFFFFFFFFFFFFFFFFFFFF AND DUP2 MSTORE PUSH1 0x20 ADD SWAP1 DUP2 MSTORE PUSH1 0x20 ADD PUSH0 KECCAK256 PUSH1 0x3 ADD PUSH0 DUP3 PUSH20 0xFFFFFFFFFFFFFFFFFFFFFFFFFFFFFFFFFFFFFFFF AND PUSH20 0xFFFFFFFFFFFFFFFFFFFFFFFFFFFFFFFFFFFFFFFF AND DUP2 MSTORE PUSH1 0x20 ADD SWAP1 DUP2 MSTORE PUSH1 0x20 ADD PUSH0 KECCAK256 PUSH0 DUP1 DUP3 ADD PUSH0 PUSH2 0x100 EXP DUP2 SLOAD SWAP1 PUSH1 0xFF MUL NOT AND SWAP1 SSTORE PUSH1 0x1 DUP3 ADD PUSH0 SWAP1 SSTORE PUSH1 0x2 DUP3 ADD PUSH0 PUSH2 0x1235 SWAP2 SWAP1 PUSH2 0x1E22 JUMP JUMPDEST PUSH1 0x3 DUP3 ADD PUSH0 SWAP1 SSTORE POP POP CALLER PUSH20 0xFFFFFFFFFFFFFFFFFFFFFFFFFFFFFFFFFFFFFFFF AND DUP2 PUSH20 0xFFFFFFFFFFFFFFFFFFFFFFFFFFFFFFFFFFFFFFFF AND PUSH32 0x381CEEB666DB3E3C307A575AD34D05F5B497665803DD1983E06E72DD7B4120E4 PUSH1 0x40 MLOAD PUSH1 0x40 MLOAD DUP1 SWAP2 SUB SWAP1 LOG3 PUSH1 0x1 PUSH0 SWAP1 SLOAD SWAP1 PUSH2 0x100 EXP SWAP1 DIV PUSH20 0xFFFFFFFFFFFFFFFFFFFFFFFFFFFFFFFFFFFFFFFF AND PUSH20 0xFFFFFFFFFFFFFFFFFFFFFFFFFFFFFFFFFFFFFFFF AND PUSH4 0x67FE17F4 CALLER DUP4 PUSH0 PUSH1 0x40 MLOAD DUP5 PUSH4 0xFFFFFFFF AND PUSH1 0xE0 SHL DUP2 MSTORE PUSH1 0x4 ADD PUSH2 0x12F6 SWAP4 SWAP3 SWAP2 SWAP1 PUSH2 0x30F7 JUMP JUMPDEST PUSH0 PUSH1 0x40 MLOAD DUP1 DUP4 SUB DUP2 PUSH0 DUP8 DUP1 EXTCODESIZE ISZERO DUP1 ISZERO PUSH2 0x130D JUMPI PUSH0 DUP1 REVERT JUMPDEST POP GAS CALL ISZERO DUP1 ISZERO PUSH2 0x131F JUMPI RETURNDATASIZE PUSH0 DUP1 RETURNDATACOPY RETURNDATASIZE PUSH0 REVERT JUMPDEST POP POP POP POP POP JUMP JUMPDEST PUSH0 PUSH1 0x2 PUSH0 SWAP1 SLOAD SWAP1 PUSH2 0x100 EXP SWAP1 DIV PUSH20 0xFFFFFFFFFFFFFFFFFFFFFFFFFFFFFFFFFFFFFFFF AND PUSH20 0xFFFFFFFFFFFFFFFFFFFFFFFFFFFFFFFFFFFFFFFF AND PUSH4 0x95F9250D CALLER PUSH1 0x40 MLOAD DUP3 PUSH4 0xFFFFFFFF AND PUSH1 0xE0 SHL DUP2 MSTORE PUSH1 0x4 ADD PUSH2 0x1381 SWAP2 SWAP1 PUSH2 0x249D JUMP JUMPDEST PUSH0 PUSH1 0x40 MLOAD DUP1 DUP4 SUB DUP2 DUP7 GAS STATICCALL ISZERO DUP1 ISZERO PUSH2 0x139B JUMPI RETURNDATASIZE PUSH0 DUP1 RETURNDATACOPY RETURNDATASIZE PUSH0 REVERT JUMPDEST POP POP POP POP PUSH1 0x40 MLOAD RETURNDATASIZE PUSH0 DUP3 RETURNDATACOPY RETURNDATASIZE PUSH1 0x1F NOT PUSH1 0x1F DUP3 ADD AND DUP3 ADD DUP1 PUSH1 0x40 MSTORE POP DUP2 ADD SWAP1 PUSH2 0x13C3 SWAP2 SWAP1 PUSH2 0x2524 JUMP JUMPDEST SWAP1 POP PUSH0 DUP2 MLOAD GT PUSH2 0x1408 JUMPI PUSH1 0x40 MLOAD PUSH32 0x8C379A000000000000000000000000000000000000000000000000000000000 DUP2 MSTORE PUSH1 0x4 ADD PUSH2 0x13FF SWAP1 PUSH2 0x25B5 JUMP JUMPDEST PUSH1 0x40 MLOAD DUP1 SWAP2 SUB SWAP1 REVERT JUMPDEST PUSH0 DUP1 SLOAD SWAP1 PUSH2 0x100 EXP SWAP1 DIV PUSH20 0xFFFFFFFFFFFFFFFFFFFFFFFFFFFFFFFFFFFFFFFF AND PUSH20 0xFFFFFFFFFFFFFFFFFFFFFFFFFFFFFFFFFFFFFFFF AND PUSH4 0x89B3AF29 CALLER PUSH1 0x40 MLOAD DUP3 PUSH4 0xFFFFFFFF AND PUSH1 0xE0 SHL DUP2 MSTORE PUSH1 0x4 ADD PUSH2 0x1460 SWAP2 SWAP1 PUSH2 0x319C JUMP JUMPDEST PUSH1 0x20 PUSH1 0x40 MLOAD DUP1 DUP4 SUB DUP2 DUP7 GAS STATICCALL ISZERO DUP1 ISZERO PUSH2 0x147B JUMPI RETURNDATASIZE PUSH0 DUP1 RETURNDATACOPY RETURNDATASIZE PUSH0 REVERT JUMPDEST POP POP POP POP PUSH1 0x40 MLOAD RETURNDATASIZE PUSH1 0x1F NOT PUSH1 0x1F DUP3 ADD AND DUP3 ADD DUP1 PUSH1 0x40 MSTORE POP DUP2 ADD SWAP1 PUSH2 0x149F SWAP2 SWAP1 PUSH2 0x2772 JUMP JUMPDEST PUSH2 0x14DE JUMPI PUSH1 0x40 MLOAD PUSH32 0x8C379A000000000000000000000000000000000000000000000000000000000 DUP2 MSTORE PUSH1 0x4 ADD PUSH2 0x14D5 SWAP1 PUSH2 0x3212 JUMP JUMPDEST PUSH1 0x40 MLOAD DUP1 SWAP2 SUB SWAP1 REVERT JUMPDEST PUSH1 0x4 PUSH0 DUP4 PUSH20 0xFFFFFFFFFFFFFFFFFFFFFFFFFFFFFFFFFFFFFFFF AND PUSH20 0xFFFFFFFFFFFFFFFFFFFFFFFFFFFFFFFFFFFFFFFF AND DUP2 MSTORE PUSH1 0x20 ADD SWAP1 DUP2 MSTORE PUSH1 0x20 ADD PUSH0 KECCAK256 PUSH1 0x1 ADD PUSH0 SWAP1 SLOAD SWAP1 PUSH2 0x100 EXP SWAP1 DIV PUSH1 0xFF AND ISZERO PUSH2 0x156B JUMPI PUSH1 0x40 MLOAD PUSH32 0x8C379A000000000000000000000000000000000000000000000000000000000 DUP2 MSTORE PUSH1 0x4 ADD PUSH2 0x1562 SWAP1 PUSH2 0x327A JUMP JUMPDEST PUSH1 0x40 MLOAD DUP1 SWAP2 SUB SWAP1 REVERT JUMPDEST PUSH1 0x1 PUSH1 0x4 PUSH0 DUP5 PUSH20 0xFFFFFFFFFFFFFFFFFFFFFFFFFFFFFFFFFFFFFFFF AND PUSH20 0xFFFFFFFFFFFFFFFFFFFFFFFFFFFFFFFFFFFFFFFF AND DUP2 MSTORE PUSH1 0x20 ADD SWAP1 DUP2 MSTORE PUSH1 0x20 ADD PUSH0 KECCAK256 PUSH1 0x1 ADD PUSH0 PUSH2 0x100 EXP DUP2 SLOAD DUP2 PUSH1 0xFF MUL NOT AND SWAP1 DUP4 ISZERO ISZERO MUL OR SWAP1 SSTORE POP PUSH1 0x2 PUSH0 SWAP1 SLOAD SWAP1 PUSH2 0x100 EXP SWAP1 DIV PUSH20 0xFFFFFFFFFFFFFFFFFFFFFFFFFFFFFFFFFFFFFFFF AND PUSH20 0xFFFFFFFFFFFFFFFFFFFFFFFFFFFFFFFFFFFFFFFF AND PUSH4 0x95F9250D DUP4 PUSH1 0x40 MLOAD DUP3 PUSH4 0xFFFFFFFF AND PUSH1 0xE0 SHL DUP2 MSTORE PUSH1 0x4 ADD PUSH2 0x161D SWAP2 SWAP1 PUSH2 0x249D JUMP JUMPDEST PUSH0 PUSH1 0x40 MLOAD DUP1 DUP4 SUB DUP2 DUP7 GAS STATICCALL ISZERO DUP1 ISZERO PUSH2 0x1637 JUMPI RETURNDATASIZE PUSH0 DUP1 RETURNDATACOPY RETURNDATASIZE PUSH0 REVERT JUMPDEST POP POP POP POP PUSH1 0x40 MLOAD RETURNDATASIZE PUSH0 DUP3 RETURNDATACOPY RETURNDATASIZE PUSH1 0x1F NOT PUSH1 0x1F DUP3 ADD AND DUP3 ADD DUP1 PUSH1 0x40 MSTORE POP DUP2 ADD SWAP1 PUSH2 0x165F SWAP2 SWAP1 PUSH2 0x2524 JUMP JUMPDEST PUSH1 0x4 PUSH0 DUP5 PUSH20 0xFFFFFFFFFFFFFFFFFFFFFFFFFFFFFFFFFFFFFFFF AND PUSH20 0xFFFFFFFFFFFFFFFFFFFFFFFFFFFFFFFFFFFFFFFF AND DUP2 MSTORE PUSH1 0x20 ADD SWAP1 DUP2 MSTORE PUSH1 0x20 ADD PUSH0 KECCAK256 PUSH1 0x4 ADD SWAP1 DUP2 PUSH2 0x16AB SWAP2 SWAP1 PUSH2 0x2E1A JUMP JUMPDEST POP PUSH1 0x1 PUSH0 SWAP1 SLOAD SWAP1 PUSH2 0x100 EXP SWAP1 DIV PUSH20 0xFFFFFFFFFFFFFFFFFFFFFFFFFFFFFFFFFFFFFFFF AND PUSH20 0xFFFFFFFFFFFFFFFFFFFFFFFFFFFFFFFFFFFFFFFF AND PUSH4 0x67FE17F4 CALLER DUP5 PUSH0 PUSH1 0x40 MLOAD DUP5 PUSH4 0xFFFFFFFF AND PUSH1 0xE0 SHL DUP2 MSTORE PUSH1 0x4 ADD PUSH2 0x170A SWAP4 SWAP3 SWAP2 SWAP1 PUSH2 0x32E2 JUMP JUMPDEST PUSH0 PUSH1 0x40 MLOAD DUP1 DUP4 SUB DUP2 PUSH0 DUP8 DUP1 EXTCODESIZE ISZERO DUP1 ISZERO PUSH2 0x1721 JUMPI PUSH0 DUP1 REVERT JUMPDEST POP GAS CALL ISZERO DUP1 ISZERO PUSH2 0x1733 JUMPI RETURNDATASIZE PUSH0 DUP1 RETURNDATACOPY RETURNDATASIZE PUSH0 REVERT JUMPDEST POP POP POP POP POP POP JUMP JUMPDEST PUSH0 DUP1 PUSH1 0x60 PUSH1 0x4 PUSH0 DUP6 PUSH20 0xFFFFFFFFFFFFFFFFFFFFFFFFFFFFFFFFFFFFFFFF AND PUSH20 0xFFFFFFFFFFFFFFFFFFFFFFFFFFFFFFFFFFFFFFFF AND DUP2 MSTORE PUSH1 0x20 ADD SWAP1 DUP2 MSTORE PUSH1 0x20 ADD PUSH0 KECCAK256 PUSH1 0x1 ADD PUSH0 SWAP1 SLOAD SWAP1 PUSH2 0x100 EXP SWAP1 DIV PUSH1 0xFF AND PUSH2 0x17CB JUMPI PUSH1 0x40 MLOAD PUSH32 0x8C379A000000000000000000000000000000000000000000000000000000000 DUP2 MSTORE PUSH1 0x4 ADD PUSH2 0x17C2 SWAP1 PUSH2 0x284F JUMP JUMPDEST PUSH1 0x40 MLOAD DUP1 SWAP2 SUB SWAP1 REVERT JUMPDEST PUSH0 PUSH1 0x4 PUSH0 DUP7 PUSH20 0xFFFFFFFFFFFFFFFFFFFFFFFFFFFFFFFFFFFFFFFF AND PUSH20 0xFFFFFFFFFFFFFFFFFFFFFFFFFFFFFFFFFFFFFFFF AND DUP2 MSTORE PUSH1 0x20 ADD SWAP1 DUP2 MSTORE PUSH1 0x20 ADD PUSH0 KECCAK256 PUSH1 0x3 ADD PUSH0 DUP8 PUSH20 0xFFFFFFFFFFFFFFFFFFFFFFFFFFFFFFFFFFFFFFFF AND PUSH20 0xFFFFFFFFFFFFFFFFFFFFFFFFFFFFFFFFFFFFFFFF AND DUP2 MSTORE PUSH1 0x20 ADD SWAP1 DUP2 MSTORE PUSH1 0x20 ADD PUSH0 KECCAK256 SWAP1 POP DUP1 PUSH0 ADD PUSH0 SWAP1 SLOAD SWAP1 PUSH2 0x100 EXP SWAP1 DIV PUSH1 0xFF AND DUP2 PUSH1 0x1 ADD SLOAD DUP3 PUSH1 0x2 ADD DUP1 DUP1 SLOAD PUSH2 0x186E SWAP1 PUSH2 0x2960 JUMP JUMPDEST DUP1 PUSH1 0x1F ADD PUSH1 0x20 DUP1 SWAP2 DIV MUL PUSH1 0x20 ADD PUSH1 0x40 MLOAD SWAP1 DUP2 ADD PUSH1 0x40 MSTORE DUP1 SWAP3 SWAP2 SWAP1 DUP2 DUP2 MSTORE PUSH1 0x20 ADD DUP3 DUP1 SLOAD PUSH2 0x189A SWAP1 PUSH2 0x2960 JUMP JUMPDEST DUP1 ISZERO PUSH2 0x18E5 JUMPI DUP1 PUSH1 0x1F LT PUSH2 0x18BC JUMPI PUSH2 0x100 DUP1 DUP4 SLOAD DIV MUL DUP4 MSTORE SWAP2 PUSH1 0x20 ADD SWAP2 PUSH2 0x18E5 JUMP JUMPDEST DUP3 ADD SWAP2 SWAP1 PUSH0 MSTORE PUSH1 0x20 PUSH0 KECCAK256 SWAP1 JUMPDEST DUP2 SLOAD DUP2 MSTORE SWAP1 PUSH1 0x1 ADD SWAP1 PUSH1 0x20 ADD DUP1 DUP4 GT PUSH2 0x18C8 JUMPI DUP3 SWAP1 SUB PUSH1 0x1F AND DUP3 ADD SWAP2 JUMPDEST POP POP POP POP POP SWAP1 POP SWAP4 POP SWAP4 POP SWAP4 POP POP SWAP3 POP SWAP3 POP SWAP3 JUMP JUMPDEST PUSH0 PUSH1 0x2 PUSH0 SWAP1 SLOAD SWAP1 PUSH2 0x100 EXP SWAP1 DIV PUSH20 0xFFFFFFFFFFFFFFFFFFFFFFFFFFFFFFFFFFFFFFFF AND PUSH20 0xFFFFFFFFFFFFFFFFFFFFFFFFFFFFFFFFFFFFFFFF AND PUSH4 0x95F9250D CALLER PUSH1 0x40 MLOAD DUP3 PUSH4 0xFFFFFFFF AND PUSH1 0xE0 SHL DUP2 MSTORE PUSH1 0x4 ADD PUSH2 0x1955 SWAP2 SWAP1 PUSH2 0x249D JUMP JUMPDEST PUSH0 PUSH1 0x40 MLOAD DUP1 DUP4 SUB DUP2 DUP7 GAS STATICCALL ISZERO DUP1 ISZERO PUSH2 0x196F JUMPI RETURNDATASIZE PUSH0 DUP1 RETURNDATACOPY RETURNDATASIZE PUSH0 REVERT JUMPDEST POP POP POP POP PUSH1 0x40 MLOAD RETURNDATASIZE PUSH0 DUP3 RETURNDATACOPY RETURNDATASIZE PUSH1 0x1F NOT PUSH1 0x1F DUP3 ADD AND DUP3 ADD DUP1 PUSH1 0x40 MSTORE POP DUP2 ADD SWAP1 PUSH2 0x1997 SWAP2 SWAP1 PUSH2 0x2524 JUMP JUMPDEST SWAP1 POP PUSH0 DUP2 MLOAD GT PUSH2 0x19DC JUMPI PUSH1 0x40 MLOAD PUSH32 0x8C379A000000000000000000000000000000000000000000000000000000000 DUP2 MSTORE PUSH1 0x4 ADD PUSH2 0x19D3 SWAP1 PUSH2 0x25B5 JUMP JUMPDEST PUSH1 0x40 MLOAD DUP1 SWAP2 SUB SWAP1 REVERT JUMPDEST PUSH0 DUP1 PUSH0 SWAP1 SLOAD SWAP1 PUSH2 0x100 EXP SWAP1 DIV PUSH20 0xFFFFFFFFFFFFFFFFFFFFFFFFFFFFFFFFFFFFFFFF AND PUSH20 0xFFFFFFFFFFFFFFFFFFFFFFFFFFFFFFFFFFFFFFFF AND PUSH4 0x890E3093 CALLER PUSH1 0x40 MLOAD DUP3 PUSH4 0xFFFFFFFF AND PUSH1 0xE0 SHL DUP2 MSTORE PUSH1 0x4 ADD PUSH2 0x1A36 SWAP2 SWAP1 PUSH2 0x249D JUMP JUMPDEST PUSH1 0x20 PUSH1 0x40 MLOAD DUP1 DUP4 SUB DUP2 DUP7 GAS STATICCALL ISZERO DUP1 ISZERO PUSH2 0x1A51 JUMPI RETURNDATASIZE PUSH0 DUP1 RETURNDATACOPY RETURNDATASIZE PUSH0 REVERT JUMPDEST POP POP POP POP PUSH1 0x40 MLOAD RETURNDATASIZE PUSH1 0x1F NOT PUSH1 0x1F DUP3 ADD AND DUP3 ADD DUP1 PUSH1 0x40 MSTORE POP DUP2 ADD SWAP1 PUSH2 0x1A75 SWAP2 SWAP1 PUSH2 0x2606 JUMP JUMPDEST SWAP1 POP PUSH1 0x3 PUSH0 SWAP1 SLOAD SWAP1 PUSH2 0x100 EXP SWAP1 DIV PUSH20 0xFFFFFFFFFFFFFFFFFFFFFFFFFFFFFFFFFFFFFFFF AND PUSH20 0xFFFFFFFFFFFFFFFFFFFFFFFFFFFFFFFFFFFFFFFF AND PUSH4 0x56E377D6 CALLER DUP4 DUP7 PUSH1 0x40 MLOAD DUP5 PUSH4 0xFFFFFFFF AND PUSH1 0xE0 SHL DUP2 MSTORE PUSH1 0x4 ADD PUSH2 0x1AD5 SWAP4 SWAP3 SWAP2 SWAP1 PUSH2 0x2A78 JUMP JUMPDEST PUSH1 0x20 PUSH1 0x40 MLOAD DUP1 DUP4 SUB DUP2 PUSH0 DUP8 GAS CALL ISZERO DUP1 ISZERO PUSH2 0x1AF1 JUMPI RETURNDATASIZE PUSH0 DUP1 RETURNDATACOPY RETURNDATASIZE PUSH0 REVERT JUMPDEST POP POP POP POP PUSH1 0x40 MLOAD RETURNDATASIZE PUSH1 0x1F NOT PUSH1 0x1F DUP3 ADD AND DUP3 ADD DUP1 PUSH1 0x40 MSTORE POP DUP2 ADD SWAP1 PUSH2 0x1B15 SWAP2 SWAP1 PUSH2 0x2772 JUMP JUMPDEST PUSH2 0x1B54 JUMPI PUSH1 0x40 MLOAD PUSH32 0x8C379A000000000000000000000000000000000000000000000000000000000 DUP2 MSTORE PUSH1 0x4 ADD PUSH2 0x1B4B SWAP1 PUSH2 0x27E7 JUMP JUMPDEST PUSH1 0x40 MLOAD DUP1 SWAP2 SUB SWAP1 REVERT JUMPDEST PUSH0 DUP1 SLOAD SWAP1 PUSH2 0x100 EXP SWAP1 DIV PUSH20 0xFFFFFFFFFFFFFFFFFFFFFFFFFFFFFFFFFFFFFFFF AND PUSH20 0xFFFFFFFFFFFFFFFFFFFFFFFFFFFFFFFFFFFFFFFF AND PUSH4 0x89B3AF29 CALLER PUSH1 0x40 MLOAD DUP3 PUSH4 0xFFFFFFFF AND PUSH1 0xE0 SHL DUP2 MSTORE PUSH1 0x4 ADD PUSH2 0x1BAC SWAP2 SWAP1 PUSH2 0x3387 JUMP JUMPDEST PUSH1 0x20 PUSH1 0x40 MLOAD DUP1 DUP4 SUB DUP2 DUP7 GAS STATICCALL ISZERO DUP1 ISZERO PUSH2 0x1BC7 JUMPI RETURNDATASIZE PUSH0 DUP1 RETURNDATACOPY RETURNDATASIZE PUSH0 REVERT JUMPDEST POP POP POP POP PUSH1 0x40 MLOAD RETURNDATASIZE PUSH1 0x1F NOT PUSH1 0x1F DUP3 ADD AND DUP3 ADD DUP1 PUSH1 0x40 MSTORE POP DUP2 ADD SWAP1 PUSH2 0x1BEB SWAP2 SWAP1 PUSH2 0x2772 JUMP JUMPDEST PUSH2 0x1C2A JUMPI PUSH1 0x40 MLOAD PUSH32 0x8C379A000000000000000000000000000000000000000000000000000000000 DUP2 MSTORE PUSH1 0x4 ADD PUSH2 0x1C21 SWAP1 PUSH2 0x3212 JUMP JUMPDEST PUSH1 0x40 MLOAD DUP1 SWAP2 SUB SWAP1 REVERT JUMPDEST PUSH1 0x4 PUSH0 DUP8 PUSH20 0xFFFFFFFFFFFFFFFFFFFFFFFFFFFFFFFFFFFFFFFF AND PUSH20 0xFFFFFFFFFFFFFFFFFFFFFFFFFFFFFFFFFFFFFFFF AND DUP2 MSTORE PUSH1 0x20 ADD SWAP1 DUP2 MSTORE PUSH1 0x20 ADD PUSH0 KECCAK256 PUSH1 0x1 ADD PUSH0 SWAP1 SLOAD SWAP1 PUSH2 0x100 EXP SWAP1 DIV PUSH1 0xFF AND PUSH2 0x1CB6 JUMPI PUSH1 0x40 MLOAD PUSH32 0x8C379A000000000000000000000000000000000000000000000000000000000 DUP2 MSTORE PUSH1 0x4 ADD PUSH2 0x1CAD SWAP1 PUSH2 0x284F JUMP JUMPDEST PUSH1 0x40 MLOAD DUP1 SWAP2 SUB SWAP1 REVERT JUMPDEST DUP4 PUSH1 0x4 PUSH0 DUP9 PUSH20 0xFFFFFFFFFFFFFFFFFFFFFFFFFFFFFFFFFFFFFFFF AND PUSH20 0xFFFFFFFFFFFFFFFFFFFFFFFFFFFFFFFFFFFFFFFF AND DUP2 MSTORE PUSH1 0x20 ADD SWAP1 DUP2 MSTORE PUSH1 0x20 ADD PUSH0 KECCAK256 PUSH1 0x2 ADD DUP7 PUSH1 0x40 MLOAD PUSH2 0x1D05 SWAP2 SWAP1 PUSH2 0x291D JUMP JUMPDEST SWAP1 DUP2 MSTORE PUSH1 0x20 ADD PUSH1 0x40 MLOAD DUP1 SWAP2 SUB SWAP1 KECCAK256 SWAP1 DUP2 PUSH2 0x1D1F SWAP2 SWAP1 PUSH2 0x2E1A JUMP JUMPDEST POP DUP6 PUSH20 0xFFFFFFFFFFFFFFFFFFFFFFFFFFFFFFFFFFFFFFFF AND PUSH32 0x9EFB5C7F10A4F04630EE8342CC0456F34298C1249198A5FD73E2F12E29DD584C DUP7 PUSH1 0x40 MLOAD PUSH2 0x1D66 SWAP2 SWAP1 PUSH2 0x21A7 JUMP JUMPDEST PUSH1 0x40 MLOAD DUP1 SWAP2 SUB SWAP1 LOG2 PUSH1 0x1 PUSH0 SWAP1 SLOAD SWAP1 PUSH2 0x100 EXP SWAP1 DIV PUSH20 0xFFFFFFFFFFFFFFFFFFFFFFFFFFFFFFFFFFFFFFFF AND PUSH20 0xFFFFFFFFFFFFFFFFFFFFFFFFFFFFFFFFFFFFFFFF AND PUSH4 0x67FE17F4 CALLER DUP9 DUP9 PUSH1 0x40 MLOAD PUSH1 0x20 ADD PUSH2 0x1DBE SWAP2 SWAP1 PUSH2 0x33FD JUMP JUMPDEST PUSH1 0x40 MLOAD PUSH1 0x20 DUP2 DUP4 SUB SUB DUP2 MSTORE SWAP1 PUSH1 0x40 MSTORE PUSH0 PUSH1 0x40 MLOAD DUP6 PUSH4 0xFFFFFFFF AND PUSH1 0xE0 SHL DUP2 MSTORE PUSH1 0x4 ADD PUSH2 0x1DED SWAP5 SWAP4 SWAP3 SWAP2 SWAP1 PUSH2 0x341E JUMP JUMPDEST PUSH0 PUSH1 0x40 MLOAD DUP1 DUP4 SUB DUP2 PUSH0 DUP8 DUP1 EXTCODESIZE ISZERO DUP1 ISZERO PUSH2 0x1E04 JUMPI PUSH0 DUP1 REVERT JUMPDEST POP GAS CALL ISZERO DUP1 ISZERO PUSH2 0x1E16 JUMPI RETURNDATASIZE PUSH0 DUP1 RETURNDATACOPY RETURNDATASIZE PUSH0 REVERT JUMPDEST POP POP POP POP POP POP POP POP POP POP JUMP JUMPDEST POP DUP1 SLOAD PUSH2 0x1E2E SWAP1 PUSH2 0x2960 JUMP JUMPDEST PUSH0 DUP3 SSTORE DUP1 PUSH1 0x1F LT PUSH2 0x1E3F JUMPI POP PUSH2 0x1E5C JUMP JUMPDEST PUSH1 0x1F ADD PUSH1 0x20 SWAP1 DIV SWAP1 PUSH0 MSTORE PUSH1 0x20 PUSH0 KECCAK256 SWAP1 DUP2 ADD SWAP1 PUSH2 0x1E5B SWAP2 SWAP1 PUSH2 0x1E5F JUMP JUMPDEST JUMPDEST POP JUMP JUMPDEST JUMPDEST DUP1 DUP3 GT ISZERO PUSH2 0x1E76 JUMPI PUSH0 DUP2 PUSH0 SWAP1 SSTORE POP PUSH1 0x1 ADD PUSH2 0x1E60 JUMP JUMPDEST POP SWAP1 JUMP JUMPDEST PUSH0 PUSH1 0x40 MLOAD SWAP1 POP SWAP1 JUMP JUMPDEST PUSH0 DUP1 REVERT JUMPDEST PUSH0 DUP1 REVERT JUMPDEST PUSH0 PUSH20 0xFFFFFFFFFFFFFFFFFFFFFFFFFFFFFFFFFFFFFFFF DUP3 AND SWAP1 POP SWAP2 SWAP1 POP JUMP JUMPDEST PUSH0 PUSH2 0x1EB4 DUP3 PUSH2 0x1E8B JUMP JUMPDEST SWAP1 POP SWAP2 SWAP1 POP JUMP JUMPDEST PUSH2 0x1EC4 DUP2 PUSH2 0x1EAA JUMP JUMPDEST DUP2 EQ PUSH2 0x1ECE JUMPI PUSH0 DUP1 REVERT JUMPDEST POP JUMP JUMPDEST PUSH0 DUP2 CALLDATALOAD SWAP1 POP PUSH2 0x1EDF DUP2 PUSH2 0x1EBB JUMP JUMPDEST SWAP3 SWAP2 POP POP JUMP JUMPDEST PUSH0 DUP1 REVERT JUMPDEST PUSH0 DUP1 REVERT JUMPDEST PUSH0 PUSH1 0x1F NOT PUSH1 0x1F DUP4 ADD AND SWAP1 POP SWAP2 SWAP1 POP JUMP JUMPDEST PUSH32 0x4E487B7100000000000000000000000000000000000000000000000000000000 PUSH0 MSTORE PUSH1 0x41 PUSH1 0x4 MSTORE PUSH1 0x24 PUSH0 REVERT JUMPDEST PUSH2 0x1F33 DUP3 PUSH2 0x1EED JUMP JUMPDEST DUP2 ADD DUP2 DUP2 LT PUSH8 0xFFFFFFFFFFFFFFFF DUP3 GT OR ISZERO PUSH2 0x1F52 JUMPI PUSH2 0x1F51 PUSH2 0x1EFD JUMP JUMPDEST JUMPDEST DUP1 PUSH1 0x40 MSTORE POP POP POP JUMP JUMPDEST PUSH0 PUSH2 0x1F64 PUSH2 0x1E7A JUMP JUMPDEST SWAP1 POP PUSH2 0x1F70 DUP3 DUP3 PUSH2 0x1F2A JUMP JUMPDEST SWAP2 SWAP1 POP JUMP JUMPDEST PUSH0 PUSH8 0xFFFFFFFFFFFFFFFF DUP3 GT ISZERO PUSH2 0x1F8F JUMPI PUSH2 0x1F8E PUSH2 0x1EFD JUMP JUMPDEST JUMPDEST PUSH2 0x1F98 DUP3 PUSH2 0x1EED JUMP JUMPDEST SWAP1 POP PUSH1 0x20 DUP2 ADD SWAP1 POP SWAP2 SWAP1 POP JUMP JUMPDEST DUP3 DUP2 DUP4 CALLDATACOPY PUSH0 DUP4 DUP4 ADD MSTORE POP POP POP JUMP JUMPDEST PUSH0 PUSH2 0x1FC5 PUSH2 0x1FC0 DUP5 PUSH2 0x1F75 JUMP JUMPDEST PUSH2 0x1F5B JUMP JUMPDEST SWAP1 POP DUP3 DUP2 MSTORE PUSH1 0x20 DUP2 ADD DUP5 DUP5 DUP5 ADD GT ISZERO PUSH2 0x1FE1 JUMPI PUSH2 0x1FE0 PUSH2 0x1EE9 JUMP JUMPDEST JUMPDEST PUSH2 0x1FEC DUP5 DUP3 DUP6 PUSH2 0x1FA5 JUMP JUMPDEST POP SWAP4 SWAP3 POP POP POP JUMP JUMPDEST PUSH0 DUP3 PUSH1 0x1F DUP4 ADD SLT PUSH2 0x2008 JUMPI PUSH2 0x2007 PUSH2 0x1EE5 JUMP JUMPDEST JUMPDEST DUP2 CALLDATALOAD PUSH2 0x2018 DUP5 DUP3 PUSH1 0x20 DUP7 ADD PUSH2 0x1FB3 JUMP JUMPDEST SWAP2 POP POP SWAP3 SWAP2 POP POP JUMP JUMPDEST PUSH0 PUSH8 0xFFFFFFFFFFFFFFFF DUP3 GT ISZERO PUSH2 0x203B JUMPI PUSH2 0x203A PUSH2 0x1EFD JUMP JUMPDEST JUMPDEST PUSH2 0x2044 DUP3 PUSH2 0x1EED JUMP JUMPDEST SWAP1 POP PUSH1 0x20 DUP2 ADD SWAP1 POP SWAP2 SWAP1 POP JUMP JUMPDEST PUSH0 PUSH2 0x2063 PUSH2 0x205E DUP5 PUSH2 0x2021 JUMP JUMPDEST PUSH2 0x1F5B JUMP JUMPDEST SWAP1 POP DUP3 DUP2 MSTORE PUSH1 0x20 DUP2 ADD DUP5 DUP5 DUP5 ADD GT ISZERO PUSH2 0x207F JUMPI PUSH2 0x207E PUSH2 0x1EE9 JUMP JUMPDEST JUMPDEST PUSH2 0x208A DUP5 DUP3 DUP6 PUSH2 0x1FA5 JUMP JUMPDEST POP SWAP4 SWAP3 POP POP POP JUMP JUMPDEST PUSH0 DUP3 PUSH1 0x1F DUP4 ADD SLT PUSH2 0x20A6 JUMPI PUSH2 0x20A5 PUSH2 0x1EE5 JUMP JUMPDEST JUMPDEST DUP2 CALLDATALOAD PUSH2 0x20B6 DUP5 DUP3 PUSH1 0x20 DUP7 ADD PUSH2 0x2051 JUMP JUMPDEST SWAP2 POP POP SWAP3 SWAP2 POP POP JUMP JUMPDEST PUSH0 DUP1 PUSH0 PUSH1 0x60 DUP5 DUP7 SUB SLT ISZERO PUSH2 0x20D6 JUMPI PUSH2 0x20D5 PUSH2 0x1E83 JUMP JUMPDEST JUMPDEST PUSH0 PUSH2 0x20E3 DUP7 DUP3 DUP8 ADD PUSH2 0x1ED1 JUMP JUMPDEST SWAP4 POP POP PUSH1 0x20 DUP5 ADD CALLDATALOAD PUSH8 0xFFFFFFFFFFFFFFFF DUP2 GT ISZERO PUSH2 0x2104 JUMPI PUSH2 0x2103 PUSH2 0x1E87 JUMP JUMPDEST JUMPDEST PUSH2 0x2110 DUP7 DUP3 DUP8 ADD PUSH2 0x1FF4 JUMP JUMPDEST SWAP3 POP POP PUSH1 0x40 DUP5 ADD CALLDATALOAD PUSH8 0xFFFFFFFFFFFFFFFF DUP2 GT ISZERO PUSH2 0x2131 JUMPI PUSH2 0x2130 PUSH2 0x1E87 JUMP JUMPDEST JUMPDEST PUSH2 0x213D DUP7 DUP3 DUP8 ADD PUSH2 0x2092 JUMP JUMPDEST SWAP2 POP POP SWAP3 POP SWAP3 POP SWAP3 JUMP JUMPDEST PUSH0 DUP2 MLOAD SWAP1 POP SWAP2 SWAP1 POP JUMP JUMPDEST PUSH0 DUP3 DUP3 MSTORE PUSH1 0x20 DUP3 ADD SWAP1 POP SWAP3 SWAP2 POP POP JUMP JUMPDEST DUP3 DUP2 DUP4 MCOPY PUSH0 DUP4 DUP4 ADD MSTORE POP POP POP JUMP JUMPDEST PUSH0 PUSH2 0x2179 DUP3 PUSH2 0x2147 JUMP JUMPDEST PUSH2 0x2183 DUP2 DUP6 PUSH2 0x2151 JUMP JUMPDEST SWAP4 POP PUSH2 0x2193 DUP2 DUP6 PUSH1 0x20 DUP7 ADD PUSH2 0x2161 JUMP JUMPDEST PUSH2 0x219C DUP2 PUSH2 0x1EED JUMP JUMPDEST DUP5 ADD SWAP2 POP POP SWAP3 SWAP2 POP POP JUMP JUMPDEST PUSH0 PUSH1 0x20 DUP3 ADD SWAP1 POP DUP2 DUP2 SUB PUSH0 DUP4 ADD MSTORE PUSH2 0x21BF DUP2 DUP5 PUSH2 0x216F JUMP JUMPDEST SWAP1 POP SWAP3 SWAP2 POP POP JUMP JUMPDEST PUSH0 DUP2 SWAP1 POP SWAP2 SWAP1 POP JUMP JUMPDEST PUSH0 PUSH2 0x21EA PUSH2 0x21E5 PUSH2 0x21E0 DUP5 PUSH2 0x1E8B JUMP JUMPDEST PUSH2 0x21C7 JUMP JUMPDEST PUSH2 0x1E8B JUMP JUMPDEST SWAP1 POP SWAP2 SWAP1 POP JUMP JUMPDEST PUSH0 PUSH2 0x21FB DUP3 PUSH2 0x21D0 JUMP JUMPDEST SWAP1 POP SWAP2 SWAP1 POP JUMP JUMPDEST PUSH0 PUSH2 0x220C DUP3 PUSH2 0x21F1 JUMP JUMPDEST SWAP1 POP SWAP2 SWAP1 POP JUMP JUMPDEST PUSH2 0x221C DUP2 PUSH2 0x2202 JUMP JUMPDEST DUP3 MSTORE POP POP JUMP JUMPDEST PUSH0 PUSH1 0x20 DUP3 ADD SWAP1 POP PUSH2 0x2235 PUSH0 DUP4 ADD DUP5 PUSH2 0x2213 JUMP JUMPDEST SWAP3 SWAP2 POP POP JUMP JUMPDEST PUSH0 DUP2 SWAP1 POP SWAP2 SWAP1 POP JUMP JUMPDEST PUSH2 0x224D DUP2 PUSH2 0x223B JUMP JUMPDEST DUP3 MSTORE POP POP JUMP JUMPDEST PUSH0 PUSH1 0x20 DUP3 ADD SWAP1 POP PUSH2 0x2266 PUSH0 DUP4 ADD DUP5 PUSH2 0x2244 JUMP JUMPDEST SWAP3 SWAP2 POP POP JUMP JUMPDEST PUSH0 PUSH2 0x2276 DUP3 PUSH2 0x21F1 JUMP JUMPDEST SWAP1 POP SWAP2 SWAP1 POP JUMP JUMPDEST PUSH2 0x2286 DUP2 PUSH2 0x226C JUMP JUMPDEST DUP3 MSTORE POP POP JUMP JUMPDEST PUSH0 PUSH1 0x20 DUP3 ADD SWAP1 POP PUSH2 0x229F PUSH0 DUP4 ADD DUP5 PUSH2 0x227D JUMP JUMPDEST SWAP3 SWAP2 POP POP JUMP JUMPDEST PUSH0 PUSH2 0x22AF DUP3 PUSH2 0x21F1 JUMP JUMPDEST SWAP1 POP SWAP2 SWAP1 POP JUMP JUMPDEST PUSH2 0x22BF DUP2 PUSH2 0x22A5 JUMP JUMPDEST DUP3 MSTORE POP POP JUMP JUMPDEST PUSH0 PUSH1 0x20 DUP3 ADD SWAP1 POP PUSH2 0x22D8 PUSH0 DUP4 ADD DUP5 PUSH2 0x22B6 JUMP JUMPDEST SWAP3 SWAP2 POP POP JUMP JUMPDEST PUSH0 PUSH2 0x22E8 DUP3 PUSH2 0x21F1 JUMP JUMPDEST SWAP1 POP SWAP2 SWAP1 POP JUMP JUMPDEST PUSH2 0x22F8 DUP2 PUSH2 0x22DE JUMP JUMPDEST DUP3 MSTORE POP POP JUMP JUMPDEST PUSH0 PUSH1 0x20 DUP3 ADD SWAP1 POP PUSH2 0x2311 PUSH0 DUP4 ADD DUP5 PUSH2 0x22EF JUMP JUMPDEST SWAP3 SWAP2 POP POP JUMP JUMPDEST PUSH0 PUSH1 0x20 DUP3 DUP5 SUB SLT ISZERO PUSH2 0x232C JUMPI PUSH2 0x232B PUSH2 0x1E83 JUMP JUMPDEST JUMPDEST PUSH0 PUSH2 0x2339 DUP5 DUP3 DUP6 ADD PUSH2 0x1ED1 JUMP JUMPDEST SWAP2 POP POP SWAP3 SWAP2 POP POP JUMP JUMPDEST PUSH0 DUP1 PUSH1 0x40 DUP4 DUP6 SUB SLT ISZERO PUSH2 0x2358 JUMPI PUSH2 0x2357 PUSH2 0x1E83 JUMP JUMPDEST JUMPDEST PUSH0 PUSH2 0x2365 DUP6 DUP3 DUP7 ADD PUSH2 0x1ED1 JUMP JUMPDEST SWAP3 POP POP PUSH1 0x20 PUSH2 0x2376 DUP6 DUP3 DUP7 ADD PUSH2 0x1ED1 JUMP JUMPDEST SWAP2 POP POP SWAP3 POP SWAP3 SWAP1 POP JUMP JUMPDEST PUSH0 DUP2 ISZERO ISZERO SWAP1 POP SWAP2 SWAP1 POP JUMP JUMPDEST PUSH2 0x2394 DUP2 PUSH2 0x2380 JUMP JUMPDEST DUP3 MSTORE POP POP JUMP JUMPDEST PUSH0 PUSH1 0x60 DUP3 ADD SWAP1 POP PUSH2 0x23AD PUSH0 DUP4 ADD DUP7 PUSH2 0x238B JUMP JUMPDEST PUSH2 0x23BA PUSH1 0x20 DUP4 ADD DUP6 PUSH2 0x2244 JUMP JUMPDEST DUP2 DUP2 SUB PUSH1 0x40 DUP4 ADD MSTORE PUSH2 0x23CC DUP2 DUP5 PUSH2 0x216F JUMP JUMPDEST SWAP1 POP SWAP5 SWAP4 POP POP POP POP JUMP JUMPDEST PUSH0 DUP1 PUSH0 DUP1 PUSH1 0x80 DUP6 DUP8 SUB SLT ISZERO PUSH2 0x23EE JUMPI PUSH2 0x23ED PUSH2 0x1E83 JUMP JUMPDEST JUMPDEST PUSH0 PUSH2 0x23FB DUP8 DUP3 DUP9 ADD PUSH2 0x1ED1 JUMP JUMPDEST SWAP5 POP POP PUSH1 0x20 DUP6 ADD CALLDATALOAD PUSH8 0xFFFFFFFFFFFFFFFF DUP2 GT ISZERO PUSH2 0x241C JUMPI PUSH2 0x241B PUSH2 0x1E87 JUMP JUMPDEST JUMPDEST PUSH2 0x2428 DUP8 DUP3 DUP9 ADD PUSH2 0x1FF4 JUMP JUMPDEST SWAP4 POP POP PUSH1 0x40 DUP6 ADD CALLDATALOAD PUSH8 0xFFFFFFFFFFFFFFFF DUP2 GT ISZERO PUSH2 0x2449 JUMPI PUSH2 0x2448 PUSH2 0x1E87 JUMP JUMPDEST JUMPDEST PUSH2 0x2455 DUP8 DUP3 DUP9 ADD PUSH2 0x1FF4 JUMP JUMPDEST SWAP3 POP POP PUSH1 0x60 DUP6 ADD CALLDATALOAD PUSH8 0xFFFFFFFFFFFFFFFF DUP2 GT ISZERO PUSH2 0x2476 JUMPI PUSH2 0x2475 PUSH2 0x1E87 JUMP JUMPDEST JUMPDEST PUSH2 0x2482 DUP8 DUP3 DUP9 ADD PUSH2 0x2092 JUMP JUMPDEST SWAP2 POP POP SWAP3 SWAP6 SWAP2 SWAP5 POP SWAP3 POP JUMP JUMPDEST PUSH2 0x2497 DUP2 PUSH2 0x1EAA JUMP JUMPDEST DUP3 MSTORE POP POP JUMP JUMPDEST PUSH0 PUSH1 0x20 DUP3 ADD SWAP1 POP PUSH2 0x24B0 PUSH0 DUP4 ADD DUP5 PUSH2 0x248E JUMP JUMPDEST SWAP3 SWAP2 POP POP JUMP JUMPDEST PUSH0 PUSH2 0x24C8 PUSH2 0x24C3 DUP5 PUSH2 0x1F75 JUMP JUMPDEST PUSH2 0x1F5B JUMP JUMPDEST SWAP1 POP DUP3 DUP2 MSTORE PUSH1 0x20 DUP2 ADD DUP5 DUP5 DUP5 ADD GT ISZERO PUSH2 0x24E4 JUMPI PUSH2 0x24E3 PUSH2 0x1EE9 JUMP JUMPDEST JUMPDEST PUSH2 0x24EF DUP5 DUP3 DUP6 PUSH2 0x2161 JUMP JUMPDEST POP SWAP4 SWAP3 POP POP POP JUMP JUMPDEST PUSH0 DUP3 PUSH1 0x1F DUP4 ADD SLT PUSH2 0x250B JUMPI PUSH2 0x250A PUSH2 0x1EE5 JUMP JUMPDEST JUMPDEST DUP2 MLOAD PUSH2 0x251B DUP5 DUP3 PUSH1 0x20 DUP7 ADD PUSH2 0x24B6 JUMP JUMPDEST SWAP2 POP POP SWAP3 SWAP2 POP POP JUMP JUMPDEST PUSH0 PUSH1 0x20 DUP3 DUP5 SUB SLT ISZERO PUSH2 0x2539 JUMPI PUSH2 0x2538 PUSH2 0x1E83 JUMP JUMPDEST JUMPDEST PUSH0 DUP3 ADD MLOAD PUSH8 0xFFFFFFFFFFFFFFFF DUP2 GT ISZERO PUSH2 0x2556 JUMPI PUSH2 0x2555 PUSH2 0x1E87 JUMP JUMPDEST JUMPDEST PUSH2 0x2562 DUP5 DUP3 DUP6 ADD PUSH2 0x24F7 JUMP JUMPDEST SWAP2 POP POP SWAP3 SWAP2 POP POP JUMP JUMPDEST PUSH32 0x50726F766964657220444944206E6F7420666F756E6400000000000000000000 PUSH0 DUP3 ADD MSTORE POP JUMP JUMPDEST PUSH0 PUSH2 0x259F PUSH1 0x16 DUP4 PUSH2 0x2151 JUMP JUMPDEST SWAP2 POP PUSH2 0x25AA DUP3 PUSH2 0x256B JUMP JUMPDEST PUSH1 0x20 DUP3 ADD SWAP1 POP SWAP2 SWAP1 POP JUMP JUMPDEST PUSH0 PUSH1 0x20 DUP3 ADD SWAP1 POP DUP2 DUP2 SUB PUSH0 DUP4 ADD MSTORE PUSH2 0x25CC DUP2 PUSH2 0x2593 JUMP JUMPDEST SWAP1 POP SWAP2 SWAP1 POP JUMP JUMPDEST PUSH0 DUP2 SWAP1 POP SWAP2 SWAP1 POP JUMP JUMPDEST PUSH2 0x25E5 DUP2 PUSH2 0x25D3 JUMP JUMPDEST DUP2 EQ PUSH2 0x25EF JUMPI PUSH0 DUP1 REVERT JUMPDEST POP JUMP JUMPDEST PUSH0 DUP2 MLOAD SWAP1 POP PUSH2 0x2600 DUP2 PUSH2 0x25DC JUMP JUMPDEST SWAP3 SWAP2 POP POP JUMP JUMPDEST PUSH0 PUSH1 0x20 DUP3 DUP5 SUB SLT ISZERO PUSH2 0x261B JUMPI PUSH2 0x261A PUSH2 0x1E83 JUMP JUMPDEST JUMPDEST PUSH0 PUSH2 0x2628 DUP5 DUP3 DUP6 ADD PUSH2 0x25F2 JUMP JUMPDEST SWAP2 POP POP SWAP3 SWAP2 POP POP JUMP JUMPDEST PUSH0 DUP2 PUSH1 0x60 SHL SWAP1 POP SWAP2 SWAP1 POP JUMP JUMPDEST PUSH0 PUSH2 0x2647 DUP3 PUSH2 0x2631 JUMP JUMPDEST SWAP1 POP SWAP2 SWAP1 POP JUMP JUMPDEST PUSH0 PUSH2 0x2658 DUP3 PUSH2 0x263D JUMP JUMPDEST SWAP1 POP SWAP2 SWAP1 POP JUMP JUMPDEST PUSH2 0x2670 PUSH2 0x266B DUP3 PUSH2 0x1EAA JUMP JUMPDEST PUSH2 0x264E JUMP JUMPDEST DUP3 MSTORE POP POP JUMP JUMPDEST PUSH0 DUP2 SWAP1 POP SWAP2 SWAP1 POP JUMP JUMPDEST PUSH2 0x2690 PUSH2 0x268B DUP3 PUSH2 0x25D3 JUMP JUMPDEST PUSH2 0x2676 JUMP JUMPDEST DUP3 MSTORE POP POP JUMP JUMPDEST PUSH0 DUP2 MLOAD SWAP1 POP SWAP2 SWAP1 POP JUMP JUMPDEST PUSH0 DUP2 SWAP1 POP SWAP3 SWAP2 POP POP JUMP JUMPDEST PUSH0 PUSH2 0x26B4 DUP3 PUSH2 0x2696 JUMP JUMPDEST PUSH2 0x26BE DUP2 DUP6 PUSH2 0x26A0 JUMP JUMPDEST SWAP4 POP PUSH2 0x26CE DUP2 DUP6 PUSH1 0x20 DUP7 ADD PUSH2 0x2161 JUMP JUMPDEST DUP1 DUP5 ADD SWAP2 POP POP SWAP3 SWAP2 POP POP JUMP JUMPDEST PUSH0 PUSH2 0x26E5 DUP3 DUP7 PUSH2 0x265F JUMP JUMPDEST PUSH1 0x14 DUP3 ADD SWAP2 POP PUSH2 0x26F5 DUP3 DUP6 PUSH2 0x267F JUMP JUMPDEST PUSH1 0x20 DUP3 ADD SWAP2 POP PUSH2 0x2705 DUP3 DUP5 PUSH2 0x26AA JUMP JUMPDEST SWAP2 POP DUP2 SWAP1 POP SWAP5 SWAP4 POP POP POP POP JUMP JUMPDEST PUSH2 0x271B DUP2 PUSH2 0x25D3 JUMP JUMPDEST DUP3 MSTORE POP POP JUMP JUMPDEST PUSH0 PUSH1 0x40 DUP3 ADD SWAP1 POP PUSH2 0x2734 PUSH0 DUP4 ADD DUP6 PUSH2 0x248E JUMP JUMPDEST PUSH2 0x2741 PUSH1 0x20 DUP4 ADD DUP5 PUSH2 0x2712 JUMP JUMPDEST SWAP4 SWAP3 POP POP POP JUMP JUMPDEST PUSH2 0x2751 DUP2 PUSH2 0x2380 JUMP JUMPDEST DUP2 EQ PUSH2 0x275B JUMPI PUSH0 DUP1 REVERT JUMPDEST POP JUMP JUMPDEST PUSH0 DUP2 MLOAD SWAP1 POP PUSH2 0x276C DUP2 PUSH2 0x2748 JUMP JUMPDEST SWAP3 SWAP2 POP POP JUMP JUMPDEST PUSH0 PUSH1 0x20 DUP3 DUP5 SUB SLT ISZERO PUSH2 0x2787 JUMPI PUSH2 0x2786 PUSH2 0x1E83 JUMP JUMPDEST JUMPDEST PUSH0 PUSH2 0x2794 DUP5 DUP3 DUP6 ADD PUSH2 0x275E JUMP JUMPDEST SWAP2 POP POP SWAP3 SWAP2 POP POP JUMP JUMPDEST PUSH32 0x496E76616C696420726F6C652070726F6F660000000000000000000000000000 PUSH0 DUP3 ADD MSTORE POP JUMP JUMPDEST PUSH0 PUSH2 0x27D1 PUSH1 0x12 DUP4 PUSH2 0x2151 JUMP JUMPDEST SWAP2 POP PUSH2 0x27DC DUP3 PUSH2 0x279D JUMP JUMPDEST PUSH1 0x20 DUP3 ADD SWAP1 POP SWAP2 SWAP1 POP JUMP JUMPDEST PUSH0 PUSH1 0x20 DUP3 ADD SWAP1 POP DUP2 DUP2 SUB PUSH0 DUP4 ADD MSTORE PUSH2 0x27FE DUP2 PUSH2 0x27C5 JUMP JUMPDEST SWAP1 POP SWAP2 SWAP1 POP JUMP JUMPDEST PUSH32 0x50617469656E74207265636F7264206E6F7420666F756E640000000000000000 PUSH0 DUP3 ADD MSTORE POP JUMP JUMPDEST PUSH0 PUSH2 0x2839 PUSH1 0x18 DUP4 PUSH2 0x2151 JUMP JUMPDEST SWAP2 POP PUSH2 0x2844 DUP3 PUSH2 0x2805 JUMP JUMPDEST PUSH1 0x20 DUP3 ADD SWAP1 POP SWAP2 SWAP1 POP JUMP JUMPDEST PUSH0 PUSH1 0x20 DUP3 ADD SWAP1 POP DUP2 DUP2 SUB PUSH0 DUP4 ADD MSTORE PUSH2 0x2866 DUP2 PUSH2 0x282D JUMP JUMPDEST SWAP1 POP SWAP2 SWAP1 POP JUMP JUMPDEST PUSH32 0x766965775F646174610000000000000000000000000000000000000000000000 PUSH0 DUP3 ADD MSTORE POP JUMP JUMPDEST PUSH0 PUSH2 0x28A1 PUSH1 0x9 DUP4 PUSH2 0x2151 JUMP JUMPDEST SWAP2 POP PUSH2 0x28AC DUP3 PUSH2 0x286D JUMP JUMPDEST PUSH1 0x20 DUP3 ADD SWAP1 POP SWAP2 SWAP1 POP JUMP JUMPDEST PUSH0 PUSH1 0x40 DUP3 ADD SWAP1 POP PUSH2 0x28CA PUSH0 DUP4 ADD DUP5 PUSH2 0x248E JUMP JUMPDEST DUP2 DUP2 SUB PUSH1 0x20 DUP4 ADD MSTORE PUSH2 0x28DB DUP2 PUSH2 0x2895 JUMP JUMPDEST SWAP1 POP SWAP3 SWAP2 POP POP JUMP JUMPDEST PUSH0 DUP2 SWAP1 POP SWAP3 SWAP2 POP POP JUMP JUMPDEST PUSH0 PUSH2 0x28F7 DUP3 PUSH2 0x2147 JUMP JUMPDEST PUSH2 0x2901 DUP2 DUP6 PUSH2 0x28E3 JUMP JUMPDEST SWAP4 POP PUSH2 0x2911 DUP2 DUP6 PUSH1 0x20 DUP7 ADD PUSH2 0x2161 JUMP JUMPDEST DUP1 DUP5 ADD SWAP2 POP POP SWAP3 SWAP2 POP POP JUMP JUMPDEST PUSH0 PUSH2 0x2928 DUP3 DUP5 PUSH2 0x28ED JUMP JUMPDEST SWAP2 POP DUP2 SWAP1 POP SWAP3 SWAP2 POP POP JUMP JUMPDEST PUSH32 0x4E487B7100000000000000000000000000000000000000000000000000000000 PUSH0 MSTORE PUSH1 0x22 PUSH1 0x4 MSTORE PUSH1 0x24 PUSH0 REVERT JUMPDEST PUSH0 PUSH1 0x2 DUP3 DIV SWAP1 POP PUSH1 0x1 DUP3 AND DUP1 PUSH2 0x2977 JUMPI PUSH1 0x7F DUP3 AND SWAP2 POP JUMPDEST PUSH1 0x20 DUP3 LT DUP2 SUB PUSH2 0x298A JUMPI PUSH2 0x2989 PUSH2 0x2933 JUMP JUMPDEST JUMPDEST POP SWAP2 SWAP1 POP JUMP JUMPDEST PUSH0 PUSH2 0x299B DUP3 DUP7 PUSH2 0x265F JUMP JUMPDEST PUSH1 0x14 DUP3 ADD SWAP2 POP PUSH2 0x29AB DUP3 DUP6 PUSH2 0x265F JUMP JUMPDEST PUSH1 0x14 DUP3 ADD SWAP2 POP PUSH2 0x29BB DUP3 DUP5 PUSH2 0x26AA JUMP JUMPDEST SWAP2 POP DUP2 SWAP1 POP SWAP5 SWAP4 POP POP POP POP JUMP JUMPDEST PUSH32 0x4E6F2076616C6964206163636573732072696768747300000000000000000000 PUSH0 DUP3 ADD MSTORE POP JUMP JUMPDEST PUSH0 PUSH2 0x29FC PUSH1 0x16 DUP4 PUSH2 0x2151 JUMP JUMPDEST SWAP2 POP PUSH2 0x2A07 DUP3 PUSH2 0x29C8 JUMP JUMPDEST PUSH1 0x20 DUP3 ADD SWAP1 POP SWAP2 SWAP1 POP JUMP JUMPDEST PUSH0 PUSH1 0x20 DUP3 ADD SWAP1 POP DUP2 DUP2 SUB PUSH0 DUP4 ADD MSTORE PUSH2 0x2A29 DUP2 PUSH2 0x29F0 JUMP JUMPDEST SWAP1 POP SWAP2 SWAP1 POP JUMP JUMPDEST PUSH0 DUP3 DUP3 MSTORE PUSH1 0x20 DUP3 ADD SWAP1 POP SWAP3 SWAP2 POP POP JUMP JUMPDEST PUSH0 PUSH2 0x2A4A DUP3 PUSH2 0x2696 JUMP JUMPDEST PUSH2 0x2A54 DUP2 DUP6 PUSH2 0x2A30 JUMP JUMPDEST SWAP4 POP PUSH2 0x2A64 DUP2 DUP6 PUSH1 0x20 DUP7 ADD PUSH2 0x2161 JUMP JUMPDEST PUSH2 0x2A6D DUP2 PUSH2 0x1EED JUMP JUMPDEST DUP5 ADD SWAP2 POP POP SWAP3 SWAP2 POP POP JUMP JUMPDEST PUSH0 PUSH1 0x60 DUP3 ADD SWAP1 POP PUSH2 0x2A8B PUSH0 DUP4 ADD DUP7 PUSH2 0x248E JUMP JUMPDEST PUSH2 0x2A98 PUSH1 0x20 DUP4 ADD DUP6 PUSH2 0x2712 JUMP JUMPDEST DUP2 DUP2 SUB PUSH1 0x40 DUP4 ADD MSTORE PUSH2 0x2AAA DUP2 DUP5 PUSH2 0x2A40 JUMP JUMPDEST SWAP1 POP SWAP5 SWAP4 POP POP POP POP JUMP JUMPDEST PUSH32 0x4E487B7100000000000000000000000000000000000000000000000000000000 PUSH0 MSTORE PUSH1 0x21 PUSH1 0x4 MSTORE PUSH1 0x24 PUSH0 REVERT JUMPDEST PUSH1 0x7 DUP2 LT PUSH2 0x2AED JUMPI PUSH0 DUP1 REVERT JUMPDEST POP JUMP JUMPDEST PUSH0 DUP2 MLOAD SWAP1 POP PUSH2 0x2AFE DUP2 PUSH2 0x2AE1 JUMP JUMPDEST SWAP3 SWAP2 POP POP JUMP JUMPDEST PUSH0 PUSH1 0x20 DUP3 DUP5 SUB SLT ISZERO PUSH2 0x2B19 JUMPI PUSH2 0x2B18 PUSH2 0x1E83 JUMP JUMPDEST JUMPDEST PUSH0 PUSH2 0x2B26 DUP5 DUP3 DUP6 ADD PUSH2 0x2AF0 JUMP JUMPDEST SWAP2 POP POP SWAP3 SWAP2 POP POP JUMP JUMPDEST PUSH32 0x4F6E6C7920646F63746F7273206F7220706172616D65646963732063616E2072 PUSH0 DUP3 ADD MSTORE PUSH32 0x65717565737420656D657267656E637920616363657373000000000000000000 PUSH1 0x20 DUP3 ADD MSTORE POP JUMP JUMPDEST PUSH0 PUSH2 0x2B89 PUSH1 0x37 DUP4 PUSH2 0x2151 JUMP JUMPDEST SWAP2 POP PUSH2 0x2B94 DUP3 PUSH2 0x2B2F JUMP JUMPDEST PUSH1 0x40 DUP3 ADD SWAP1 POP SWAP2 SWAP1 POP JUMP JUMPDEST PUSH0 PUSH1 0x20 DUP3 ADD SWAP1 POP DUP2 DUP2 SUB PUSH0 DUP4 ADD MSTORE PUSH2 0x2BB6 DUP2 PUSH2 0x2B7D JUMP JUMPDEST SWAP1 POP SWAP2 SWAP1 POP JUMP JUMPDEST PUSH0 DUP2 SWAP1 POP SWAP2 SWAP1 POP JUMP JUMPDEST PUSH2 0x2BD7 PUSH2 0x2BD2 DUP3 PUSH2 0x223B JUMP JUMPDEST PUSH2 0x2BBD JUMP JUMPDEST DUP3 MSTORE POP POP JUMP JUMPDEST PUSH0 PUSH2 0x2BE8 DUP3 DUP8 PUSH2 0x265F JUMP JUMPDEST PUSH1 0x14 DUP3 ADD SWAP2 POP PUSH2 0x2BF8 DUP3 DUP7 PUSH2 0x265F JUMP JUMPDEST PUSH1 0x14 DUP3 ADD SWAP2 POP PUSH2 0x2C08 DUP3 DUP6 PUSH2 0x2BC6 JUMP JUMPDEST PUSH1 0x20 DUP3 ADD SWAP2 POP PUSH2 0x2C18 DUP3 DUP5 PUSH2 0x26AA JUMP JUMPDEST SWAP2 POP DUP2 SWAP1 POP SWAP6 SWAP5 POP POP POP POP POP JUMP JUMPDEST PUSH32 0x4E487B7100000000000000000000000000000000000000000000000000000000 PUSH0 MSTORE PUSH1 0x11 PUSH1 0x4 MSTORE PUSH1 0x24 PUSH0 REVERT JUMPDEST PUSH0 PUSH2 0x2C5D DUP3 PUSH2 0x223B JUMP JUMPDEST SWAP2 POP PUSH2 0x2C68 DUP4 PUSH2 0x223B JUMP JUMPDEST SWAP3 POP DUP3 DUP3 ADD SWAP1 POP DUP1 DUP3 GT ISZERO PUSH2 0x2C80 JUMPI PUSH2 0x2C7F PUSH2 0x2C26 JUMP JUMPDEST JUMPDEST SWAP3 SWAP2 POP POP JUMP JUMPDEST PUSH0 DUP2 SWAP1 POP DUP2 PUSH0 MSTORE PUSH1 0x20 PUSH0 KECCAK256 SWAP1 POP SWAP2 SWAP1 POP JUMP JUMPDEST PUSH0 PUSH1 0x20 PUSH1 0x1F DUP4 ADD DIV SWAP1 POP SWAP2 SWAP1 POP JUMP JUMPDEST PUSH0 DUP3 DUP3 SHL SWAP1 POP SWAP3 SWAP2 POP POP JUMP JUMPDEST PUSH0 PUSH1 0x8 DUP4 MUL PUSH2 0x2CE2 PUSH32 0xFFFFFFFFFFFFFFFFFFFFFFFFFFFFFFFFFFFFFFFFFFFFFFFFFFFFFFFFFFFFFFFF DUP3 PUSH2 0x2CA7 JUMP JUMPDEST PUSH2 0x2CEC DUP7 DUP4 PUSH2 0x2CA7 JUMP JUMPDEST SWAP6 POP DUP1 NOT DUP5 AND SWAP4 POP DUP1 DUP7 AND DUP5 OR SWAP3 POP POP POP SWAP4 SWAP3 POP POP POP JUMP JUMPDEST PUSH0 PUSH2 0x2D1E PUSH2 0x2D19 PUSH2 0x2D14 DUP5 PUSH2 0x223B JUMP JUMPDEST PUSH2 0x21C7 JUMP JUMPDEST PUSH2 0x223B JUMP JUMPDEST SWAP1 POP SWAP2 SWAP1 POP JUMP JUMPDEST PUSH0 DUP2 SWAP1 POP SWAP2 SWAP1 POP JUMP JUMPDEST PUSH2 0x2D37 DUP4 PUSH2 0x2D04 JUMP JUMPDEST PUSH2 0x2D4B PUSH2 0x2D43 DUP3 PUSH2 0x2D25 JUMP JUMPDEST DUP5 DUP5 SLOAD PUSH2 0x2CB3 JUMP JUMPDEST DUP3 SSTORE POP POP POP POP JUMP JUMPDEST PUSH0 SWAP1 JUMP JUMPDEST PUSH2 0x2D5F PUSH2 0x2D53 JUMP JUMPDEST PUSH2 0x2D6A DUP2 DUP5 DUP5 PUSH2 0x2D2E JUMP JUMPDEST POP POP POP JUMP JUMPDEST JUMPDEST DUP2 DUP2 LT ISZERO PUSH2 0x2D8D JUMPI PUSH2 0x2D82 PUSH0 DUP3 PUSH2 0x2D57 JUMP JUMPDEST PUSH1 0x1 DUP2 ADD SWAP1 POP PUSH2 0x2D70 JUMP JUMPDEST POP POP JUMP JUMPDEST PUSH1 0x1F DUP3 GT ISZERO PUSH2 0x2DD2 JUMPI PUSH2 0x2DA3 DUP2 PUSH2 0x2C86 JUMP JUMPDEST PUSH2 0x2DAC DUP5 PUSH2 0x2C98 JUMP JUMPDEST DUP2 ADD PUSH1 0x20 DUP6 LT ISZERO PUSH2 0x2DBB JUMPI DUP2 SWAP1 POP JUMPDEST PUSH2 0x2DCF PUSH2 0x2DC7 DUP6 PUSH2 0x2C98 JUMP JUMPDEST DUP4 ADD DUP3 PUSH2 0x2D6F JUMP JUMPDEST POP POP JUMPDEST POP POP POP JUMP JUMPDEST PUSH0 DUP3 DUP3 SHR SWAP1 POP SWAP3 SWAP2 POP POP JUMP JUMPDEST PUSH0 PUSH2 0x2DF2 PUSH0 NOT DUP5 PUSH1 0x8 MUL PUSH2 0x2DD7 JUMP JUMPDEST NOT DUP1 DUP4 AND SWAP2 POP POP SWAP3 SWAP2 POP POP JUMP JUMPDEST PUSH0 PUSH2 0x2E0A DUP4 DUP4 PUSH2 0x2DE3 JUMP JUMPDEST SWAP2 POP DUP3 PUSH1 0x2 MUL DUP3 OR SWAP1 POP SWAP3 SWAP2 POP POP JUMP JUMPDEST PUSH2 0x2E23 DUP3 PUSH2 0x2147 JUMP JUMPDEST PUSH8 0xFFFFFFFFFFFFFFFF DUP2 GT ISZERO PUSH2 0x2E3C JUMPI PUSH2 0x2E3B PUSH2 0x1EFD JUMP JUMPDEST JUMPDEST PUSH2 0x2E46 DUP3 SLOAD PUSH2 0x2960 JUMP JUMPDEST PUSH2 0x2E51 DUP3 DUP3 DUP6 PUSH2 0x2D91 JUMP JUMPDEST PUSH0 PUSH1 0x20 SWAP1 POP PUSH1 0x1F DUP4 GT PUSH1 0x1 DUP2 EQ PUSH2 0x2E82 JUMPI PUSH0 DUP5 ISZERO PUSH2 0x2E70 JUMPI DUP3 DUP8 ADD MLOAD SWAP1 POP JUMPDEST PUSH2 0x2E7A DUP6 DUP3 PUSH2 0x2DFF JUMP JUMPDEST DUP7 SSTORE POP PUSH2 0x2EE1 JUMP JUMPDEST PUSH1 0x1F NOT DUP5 AND PUSH2 0x2E90 DUP7 PUSH2 0x2C86 JUMP JUMPDEST PUSH0 JUMPDEST DUP3 DUP2 LT ISZERO PUSH2 0x2EB7 JUMPI DUP5 DUP10 ADD MLOAD DUP3 SSTORE PUSH1 0x1 DUP3 ADD SWAP2 POP PUSH1 0x20 DUP6 ADD SWAP5 POP PUSH1 0x20 DUP2 ADD SWAP1 POP PUSH2 0x2E92 JUMP JUMPDEST DUP7 DUP4 LT ISZERO PUSH2 0x2ED4 JUMPI DUP5 DUP10 ADD MLOAD PUSH2 0x2ED0 PUSH1 0x1F DUP10 AND DUP3 PUSH2 0x2DE3 JUMP JUMPDEST DUP4 SSTORE POP JUMPDEST PUSH1 0x1 PUSH1 0x2 DUP9 MUL ADD DUP9 SSTORE POP POP POP JUMPDEST POP POP POP POP POP POP JUMP JUMPDEST PUSH32 0x456D657267656E637920616363657373206279204449443A2000000000000000 PUSH0 DUP3 ADD MSTORE POP JUMP JUMPDEST PUSH0 PUSH2 0x2F1D PUSH1 0x19 DUP4 PUSH2 0x28E3 JUMP JUMPDEST SWAP2 POP PUSH2 0x2F28 DUP3 PUSH2 0x2EE9 JUMP JUMPDEST PUSH1 0x19 DUP3 ADD SWAP1 POP SWAP2 SWAP1 POP JUMP JUMPDEST PUSH0 PUSH2 0x2F3D DUP3 PUSH2 0x2F11 JUMP JUMPDEST SWAP2 POP PUSH2 0x2F49 DUP3 DUP5 PUSH2 0x28ED JUMP JUMPDEST SWAP2 POP DUP2 SWAP1 POP SWAP3 SWAP2 POP POP JUMP JUMPDEST PUSH32 0x656D657267656E63795F61636365737300000000000000000000000000000000 PUSH0 DUP3 ADD MSTORE POP JUMP JUMPDEST PUSH0 PUSH2 0x2F88 PUSH1 0x10 DUP4 PUSH2 0x2151 JUMP JUMPDEST SWAP2 POP PUSH2 0x2F93 DUP3 PUSH2 0x2F54 JUMP JUMPDEST PUSH1 0x20 DUP3 ADD SWAP1 POP SWAP2 SWAP1 POP JUMP JUMPDEST PUSH0 PUSH1 0xA0 DUP3 ADD SWAP1 POP PUSH2 0x2FB1 PUSH0 DUP4 ADD DUP8 PUSH2 0x248E JUMP JUMPDEST PUSH2 0x2FBE PUSH1 0x20 DUP4 ADD DUP7 PUSH2 0x248E JUMP JUMPDEST DUP2 DUP2 SUB PUSH1 0x40 DUP4 ADD MSTORE PUSH2 0x2FCF DUP2 PUSH2 0x2F7C JUMP JUMPDEST SWAP1 POP DUP2 DUP2 SUB PUSH1 0x60 DUP4 ADD MSTORE PUSH2 0x2FE3 DUP2 DUP6 PUSH2 0x216F JUMP JUMPDEST SWAP1 POP PUSH2 0x2FF2 PUSH1 0x80 DUP4 ADD DUP5 PUSH2 0x238B JUMP JUMPDEST SWAP6 SWAP5 POP POP POP POP POP JUMP JUMPDEST PUSH32 0x4E6F20656D657267656E63792061636365737320666F756E6400000000000000 PUSH0 DUP3 ADD MSTORE POP JUMP JUMPDEST PUSH0 PUSH2 0x302F PUSH1 0x19 DUP4 PUSH2 0x2151 JUMP JUMPDEST SWAP2 POP PUSH2 0x303A DUP3 PUSH2 0x2FFB JUMP JUMPDEST PUSH1 0x20 DUP3 ADD SWAP1 POP SWAP2 SWAP1 POP JUMP JUMPDEST PUSH0 PUSH1 0x20 DUP3 ADD SWAP1 POP DUP2 DUP2 SUB PUSH0 DUP4 ADD MSTORE PUSH2 0x305C DUP2 PUSH2 0x3023 JUMP JUMPDEST SWAP1 POP SWAP2 SWAP1 POP JUMP JUMPDEST PUSH32 0x7265766F6B655F656D657267656E637900000000000000000000000000000000 PUSH0 DUP3 ADD MSTORE POP JUMP JUMPDEST PUSH0 PUSH2 0x3097 PUSH1 0x10 DUP4 PUSH2 0x2151 JUMP JUMPDEST SWAP2 POP PUSH2 0x30A2 DUP3 PUSH2 0x3063 JUMP JUMPDEST PUSH1 0x20 DUP3 ADD SWAP1 POP SWAP2 SWAP1 POP JUMP JUMPDEST PUSH32 0x456D657267656E637920616363657373207265766F6B65640000000000000000 PUSH0 DUP3 ADD MSTORE POP JUMP JUMPDEST PUSH0 PUSH2 0x30E1 PUSH1 0x18 DUP4 PUSH2 0x2151 JUMP JUMPDEST SWAP2 POP PUSH2 0x30EC DUP3 PUSH2 0x30AD JUMP JUMPDEST PUSH1 0x20 DUP3 ADD SWAP1 POP SWAP2 SWAP1 POP JUMP JUMPDEST PUSH0 PUSH1 0xA0 DUP3 ADD SWAP1 POP PUSH2 0x310A PUSH0 DUP4 ADD DUP7 PUSH2 0x248E JUMP JUMPDEST PUSH2 0x3117 PUSH1 0x20 DUP4 ADD DUP6 PUSH2 0x248E JUMP JUMPDEST DUP2 DUP2 SUB PUSH1 0x40 DUP4 ADD MSTORE PUSH2 0x3128 DUP2 PUSH2 0x308B JUMP JUMPDEST SWAP1 POP DUP2 DUP2 SUB PUSH1 0x60 DUP4 ADD MSTORE PUSH2 0x313B DUP2 PUSH2 0x30D5 JUMP JUMPDEST SWAP1 POP PUSH2 0x314A PUSH1 0x80 DUP4 ADD DUP5 PUSH2 0x238B JUMP JUMPDEST SWAP5 SWAP4 POP POP POP POP JUMP JUMPDEST PUSH32 0x6372656174655F7265636F726400000000000000000000000000000000000000 PUSH0 DUP3 ADD MSTORE POP JUMP JUMPDEST PUSH0 PUSH2 0x3186 PUSH1 0xD DUP4 PUSH2 0x2151 JUMP JUMPDEST SWAP2 POP PUSH2 0x3191 DUP3 PUSH2 0x3152 JUMP JUMPDEST PUSH1 0x20 DUP3 ADD SWAP1 POP SWAP2 SWAP1 POP JUMP JUMPDEST PUSH0 PUSH1 0x40 DUP3 ADD SWAP1 POP PUSH2 0x31AF PUSH0 DUP4 ADD DUP5 PUSH2 0x248E JUMP JUMPDEST DUP2 DUP2 SUB PUSH1 0x20 DUP4 ADD MSTORE PUSH2 0x31C0 DUP2 PUSH2 0x317A JUMP JUMPDEST SWAP1 POP SWAP3 SWAP2 POP POP JUMP JUMPDEST PUSH32 0x556E617574686F72697A65642061636365737300000000000000000000000000 PUSH0 DUP3 ADD MSTORE POP JUMP JUMPDEST PUSH0 PUSH2 0x31FC PUSH1 0x13 DUP4 PUSH2 0x2151 JUMP JUMPDEST SWAP2 POP PUSH2 0x3207 DUP3 PUSH2 0x31C8 JUMP JUMPDEST PUSH1 0x20 DUP3 ADD SWAP1 POP SWAP2 SWAP1 POP JUMP JUMPDEST PUSH0 PUSH1 0x20 DUP3 ADD SWAP1 POP DUP2 DUP2 SUB PUSH0 DUP4 ADD MSTORE PUSH2 0x3229 DUP2 PUSH2 0x31F0 JUMP JUMPDEST SWAP1 POP SWAP2 SWAP1 POP JUMP JUMPDEST PUSH32 0x50617469656E74207265636F726420616C726561647920657869737473000000 PUSH0 DUP3 ADD MSTORE POP JUMP JUMPDEST PUSH0 PUSH2 0x3264 PUSH1 0x1D DUP4 PUSH2 0x2151 JUMP JUMPDEST SWAP2 POP PUSH2 0x326F DUP3 PUSH2 0x3230 JUMP JUMPDEST PUSH1 0x20 DUP3 ADD SWAP1 POP SWAP2 SWAP1 POP JUMP JUMPDEST PUSH0 PUSH1 0x20 DUP3 ADD SWAP1 POP DUP2 DUP2 SUB PUSH0 DUP4 ADD MSTORE PUSH2 0x3291 DUP2 PUSH2 0x3258 JUMP JUMPDEST SWAP1 POP SWAP2 SWAP1 POP JUMP JUMPDEST PUSH32 0x4E65772070617469656E74207265636F72642063726561746564000000000000 PUSH0 DUP3 ADD MSTORE POP JUMP JUMPDEST PUSH0 PUSH2 0x32CC PUSH1 0x1A DUP4 PUSH2 0x2151 JUMP JUMPDEST SWAP2 POP PUSH2 0x32D7 DUP3 PUSH2 0x3298 JUMP JUMPDEST PUSH1 0x20 DUP3 ADD SWAP1 POP SWAP2 SWAP1 POP JUMP JUMPDEST PUSH0 PUSH1 0xA0 DUP3 ADD SWAP1 POP PUSH2 0x32F5 PUSH0 DUP4 ADD DUP7 PUSH2 0x248E JUMP JUMPDEST PUSH2 0x3302 PUSH1 0x20 DUP4 ADD DUP6 PUSH2 0x248E JUMP JUMPDEST DUP2 DUP2 SUB PUSH1 0x40 DUP4 ADD MSTORE PUSH2 0x3313 DUP2 PUSH2 0x317A JUMP JUMPDEST SWAP1 POP DUP2 DUP2 SUB PUSH1 0x60 DUP4 ADD MSTORE PUSH2 0x3326 DUP2 PUSH2 0x32C0 JUMP JUMPDEST SWAP1 POP PUSH2 0x3335 PUSH1 0x80 DUP4 ADD DUP5 PUSH2 0x238B JUMP JUMPDEST SWAP5 SWAP4 POP POP POP POP JUMP JUMPDEST PUSH32 0x7570646174655F64617461000000000000000000000000000000000000000000 PUSH0 DUP3 ADD MSTORE POP JUMP JUMPDEST PUSH0 PUSH2 0x3371 PUSH1 0xB DUP4 PUSH2 0x2151 JUMP JUMPDEST SWAP2 POP PUSH2 0x337C DUP3 PUSH2 0x333D JUMP JUMPDEST PUSH1 0x20 DUP3 ADD SWAP1 POP SWAP2 SWAP1 POP JUMP JUMPDEST PUSH0 PUSH1 0x40 DUP3 ADD SWAP1 POP PUSH2 0x339A PUSH0 DUP4 ADD DUP5 PUSH2 0x248E JUMP JUMPDEST DUP2 DUP2 SUB PUSH1 0x20 DUP4 ADD MSTORE PUSH2 0x33AB DUP2 PUSH2 0x3365 JUMP JUMPDEST SWAP1 POP SWAP3 SWAP2 POP POP JUMP JUMPDEST PUSH32 0x5570646174656420000000000000000000000000000000000000000000000000 PUSH0 DUP3 ADD MSTORE POP JUMP JUMPDEST PUSH0 PUSH2 0x33E7 PUSH1 0x8 DUP4 PUSH2 0x28E3 JUMP JUMPDEST SWAP2 POP PUSH2 0x33F2 DUP3 PUSH2 0x33B3 JUMP JUMPDEST PUSH1 0x8 DUP3 ADD SWAP1 POP SWAP2 SWAP1 POP JUMP JUMPDEST PUSH0 PUSH2 0x3407 DUP3 PUSH2 0x33DB JUMP JUMPDEST SWAP2 POP PUSH2 0x3413 DUP3 DUP5 PUSH2 0x28ED JUMP JUMPDEST SWAP2 POP DUP2 SWAP1 POP SWAP3 SWAP2 POP POP JUMP JUMPDEST PUSH0 PUSH1 0xA0 DUP3 ADD SWAP1 POP PUSH2 0x3431 PUSH0 DUP4 ADD DUP8 PUSH2 0x248E JUMP JUMPDEST PUSH2 0x343E PUSH1 0x20 DUP4 ADD DUP7 PUSH2 0x248E JUMP JUMPDEST DUP2 DUP2 SUB PUSH1 0x40 DUP4 ADD MSTORE PUSH2 0x344F DUP2 PUSH2 0x3365 JUMP JUMPDEST SWAP1 POP DUP2 DUP2 SUB PUSH1 0x60 DUP4 ADD MSTORE PUSH2 0x3463 DUP2 DUP6 PUSH2 0x216F JUMP JUMPDEST SWAP1 POP PUSH2 0x3472 PUSH1 0x80 DUP4 ADD DUP5 PUSH2 0x238B JUMP JUMPDEST SWAP6 SWAP5 POP POP POP POP POP JUMP INVALID LOG2 PUSH5 0x6970667358 0x22 SLT KECCAK256 PUSH20 0xCE17C8D2A262F98DE53371292335F0518B826828 0xE9 0xB6 0xE9 0xA7 MUL CALLCODE 0xE6 PUSH13 0x8A16364736F6C634300081A00 CALLER "
		},
		"gasEstimates": {
			"creation": {
				"codeDepositCost": "2697800",
				"executionCost": "infinite",
				"totalCost": "infinite"
			},
			"external": {
				"EMERGENCY_ACCESS_DURATION()": "392",
				"accessControl()": "infinite",
				"auditLog()": "infinite",
				"checkEmergencyAccess(address,address)": "infinite",
				"createPatientRecord(address)": "infinite",
				"didRegistry()": "infinite",
				"getPatientData(address,string,bytes)": "infinite",
				"requestEmergencyAccess(address,string,bytes)": "infinite",
				"revokeEmergencyAccess(address)": "infinite",
				"updatePatientData(address,string,string,bytes)": "infinite",
				"zkpVerifier()": "infinite"
			}
		},
		"methodIdentifiers": {
			"EMERGENCY_ACCESS_DURATION()": "2114ef1f",
			"accessControl()": "13007d55",
			"auditLog()": "5a2d6ebd",
			"checkEmergencyAccess(address,address)": "ac053aa9",
			"createPatientRecord(address)": "7eb3a982",
			"didRegistry()": "577f9fb1",
			"getPatientData(address,string,bytes)": "0f8b6dd3",
			"requestEmergencyAccess(address,string,bytes)": "145e32e1",
			"revokeEmergencyAccess(address)": "73b492ff",
			"updatePatientData(address,string,string,bytes)": "c7d7421c",
			"zkpVerifier()": "6aebbd66"
		}
	},
	"abi": [
		{
			"inputs": [
				{
					"internalType": "address",
					"name": "_rbacAddress",
					"type": "address"
				},
				{
					"internalType": "address",
					"name": "_auditLogAddress",
					"type": "address"
				},
				{
					"internalType": "address",
					"name": "_didRegistryAddress",
					"type": "address"
				},
				{
					"internalType": "address",
					"name": "_zkpVerifierAddress",
					"type": "address"
				}
			],
			"stateMutability": "nonpayable",
			"type": "constructor"
		},
		{
			"anonymous": false,
			"inputs": [
				{
					"indexed": true,
					"internalType": "address",
					"name": "provider",
					"type": "address"
				},
				{
					"indexed": true,
					"internalType": "address",
					"name": "patient",
					"type": "address"
				},
				{
					"indexed": false,
					"internalType": "uint256",
					"name": "expiryTime",
					"type": "uint256"
				}
			],
			"name": "EmergencyAccessGranted",
			"type": "event"
		},
		{
			"anonymous": false,
			"inputs": [
				{
					"indexed": true,
					"internalType": "address",
					"name": "provider",
					"type": "address"
				},
				{
					"indexed": true,
					"internalType": "address",
					"name": "patient",
					"type": "address"
				}
			],
			"name": "EmergencyAccessRevoked",
			"type": "event"
		},
		{
			"anonymous": false,
			"inputs": [
				{
					"indexed": true,
					"internalType": "address",
					"name": "patient",
					"type": "address"
				},
				{
					"indexed": false,
					"internalType": "string",
					"name": "category",
					"type": "string"
				}
			],
			"name": "PatientDataUpdated",
			"type": "event"
		},
		{
			"inputs": [],
			"name": "EMERGENCY_ACCESS_DURATION",
			"outputs": [
				{
					"internalType": "uint256",
					"name": "",
					"type": "uint256"
				}
			],
			"stateMutability": "view",
			"type": "function"
		},
		{
			"inputs": [],
			"name": "accessControl",
			"outputs": [
				{
					"internalType": "contract IEnhancedRBAC",
					"name": "",
					"type": "address"
				}
			],
			"stateMutability": "view",
			"type": "function"
		},
		{
			"inputs": [],
			"name": "auditLog",
			"outputs": [
				{
					"internalType": "contract EnhancedAuditLog",
					"name": "",
					"type": "address"
				}
			],
			"stateMutability": "view",
			"type": "function"
		},
		{
			"inputs": [
				{
					"internalType": "address",
					"name": "provider",
					"type": "address"
				},
				{
					"internalType": "address",
					"name": "patient",
					"type": "address"
				}
			],
			"name": "checkEmergencyAccess",
			"outputs": [
				{
					"internalType": "bool",
					"name": "granted",
					"type": "bool"
				},
				{
					"internalType": "uint256",
					"name": "expiry",
					"type": "uint256"
				},
				{
					"internalType": "string",
					"name": "reason",
					"type": "string"
				}
			],
			"stateMutability": "view",
			"type": "function"
		},
		{
			"inputs": [
				{
					"internalType": "address",
					"name": "patient",
					"type": "address"
				}
			],
			"name": "createPatientRecord",
			"outputs": [],
			"stateMutability": "nonpayable",
			"type": "function"
		},
		{
			"inputs": [],
			"name": "didRegistry",
			"outputs": [
				{
					"internalType": "contract IDIDRegistry",
					"name": "",
					"type": "address"
				}
			],
			"stateMutability": "view",
			"type": "function"
		},
		{
			"inputs": [
				{
					"internalType": "address",
					"name": "patient",
					"type": "address"
				},
				{
					"internalType": "string",
					"name": "category",
					"type": "string"
				},
				{
					"internalType": "bytes",
					"name": "zkProof",
					"type": "bytes"
				}
			],
			"name": "getPatientData",
			"outputs": [
				{
					"internalType": "string",
					"name": "",
					"type": "string"
				}
			],
			"stateMutability": "view",
			"type": "function"
		},
		{
			"inputs": [
				{
					"internalType": "address",
					"name": "patient",
					"type": "address"
				},
				{
					"internalType": "string",
					"name": "reason",
					"type": "string"
				},
				{
					"internalType": "bytes",
					"name": "zkProof",
					"type": "bytes"
				}
			],
			"name": "requestEmergencyAccess",
			"outputs": [],
			"stateMutability": "nonpayable",
			"type": "function"
		},
		{
			"inputs": [
				{
					"internalType": "address",
					"name": "provider",
					"type": "address"
				}
			],
			"name": "revokeEmergencyAccess",
			"outputs": [],
			"stateMutability": "nonpayable",
			"type": "function"
		},
		{
			"inputs": [
				{
					"internalType": "address",
					"name": "patient",
					"type": "address"
				},
				{
					"internalType": "string",
					"name": "category",
					"type": "string"
				},
				{
					"internalType": "string",
					"name": "encryptedData",
					"type": "string"
				},
				{
					"internalType": "bytes",
					"name": "zkProof",
					"type": "bytes"
				}
			],
			"name": "updatePatientData",
			"outputs": [],
			"stateMutability": "nonpayable",
			"type": "function"
		},
		{
			"inputs": [],
			"name": "zkpVerifier",
			"outputs": [
				{
					"internalType": "contract ZKPVerifier",
					"name": "",
					"type": "address"
				}
			],
			"stateMutability": "view",
			"type": "function"
		}
	]
}